{
	"ETHKIPU/simpleDEX/simpleDEX_flattened.sol": {
		"SimpleDEX": {
			"abi": [
				{
					"inputs": [
						{
							"internalType": "address",
							"name": "_tokenA",
							"type": "address"
						},
						{
							"internalType": "address",
							"name": "_tokenB",
							"type": "address"
						}
					],
					"stateMutability": "nonpayable",
					"type": "constructor"
				},
				{
					"anonymous": false,
					"inputs": [
						{
							"indexed": false,
							"internalType": "uint256",
							"name": "amountA",
							"type": "uint256"
						},
						{
							"indexed": false,
							"internalType": "uint256",
							"name": "amountB",
							"type": "uint256"
						}
					],
					"name": "LiquidityAdded",
					"type": "event"
				},
				{
					"anonymous": false,
					"inputs": [
						{
							"indexed": false,
							"internalType": "uint256",
							"name": "amountA",
							"type": "uint256"
						},
						{
							"indexed": false,
							"internalType": "uint256",
							"name": "amountB",
							"type": "uint256"
						}
					],
					"name": "LiquidityRemoved",
					"type": "event"
				},
				{
					"anonymous": false,
					"inputs": [
						{
							"indexed": true,
							"internalType": "address",
							"name": "user",
							"type": "address"
						},
						{
							"indexed": false,
							"internalType": "uint256",
							"name": "amountAIn",
							"type": "uint256"
						},
						{
							"indexed": false,
							"internalType": "uint256",
							"name": "amountBOut",
							"type": "uint256"
						}
					],
					"name": "TokensSwappedAB",
					"type": "event"
				},
				{
					"anonymous": false,
					"inputs": [
						{
							"indexed": true,
							"internalType": "address",
							"name": "user",
							"type": "address"
						},
						{
							"indexed": false,
							"internalType": "uint256",
							"name": "amountBIn",
							"type": "uint256"
						},
						{
							"indexed": false,
							"internalType": "uint256",
							"name": "amountAOut",
							"type": "uint256"
						}
					],
					"name": "TokensSwappedBA",
					"type": "event"
				},
				{
					"inputs": [
						{
							"internalType": "uint256",
							"name": "amountA",
							"type": "uint256"
						},
						{
							"internalType": "uint256",
							"name": "amountB",
							"type": "uint256"
						}
					],
					"name": "addLiquidity",
					"outputs": [],
					"stateMutability": "nonpayable",
					"type": "function"
				},
				{
					"inputs": [],
					"name": "balanceofA",
					"outputs": [
						{
							"internalType": "uint256",
							"name": "",
							"type": "uint256"
						}
					],
					"stateMutability": "view",
					"type": "function"
				},
				{
					"inputs": [],
					"name": "balanceofB",
					"outputs": [
						{
							"internalType": "uint256",
							"name": "",
							"type": "uint256"
						}
					],
					"stateMutability": "view",
					"type": "function"
				},
				{
					"inputs": [
						{
							"internalType": "address",
							"name": "_token",
							"type": "address"
						}
					],
					"name": "getPrice",
					"outputs": [
						{
							"internalType": "uint256",
							"name": "",
							"type": "uint256"
						}
					],
					"stateMutability": "view",
					"type": "function"
				},
				{
					"inputs": [],
					"name": "owner",
					"outputs": [
						{
							"internalType": "address",
							"name": "",
							"type": "address"
						}
					],
					"stateMutability": "view",
					"type": "function"
				},
				{
					"inputs": [
						{
							"internalType": "uint256",
							"name": "amountA",
							"type": "uint256"
						},
						{
							"internalType": "uint256",
							"name": "amountB",
							"type": "uint256"
						}
					],
					"name": "removeLiquidity",
					"outputs": [],
					"stateMutability": "nonpayable",
					"type": "function"
				},
				{
					"inputs": [
						{
							"internalType": "uint256",
							"name": "amountAIn",
							"type": "uint256"
						}
					],
					"name": "swapAforB",
					"outputs": [],
					"stateMutability": "nonpayable",
					"type": "function"
				},
				{
					"inputs": [
						{
							"internalType": "uint256",
							"name": "amountBIn",
							"type": "uint256"
						}
					],
					"name": "swapBforA",
					"outputs": [],
					"stateMutability": "nonpayable",
					"type": "function"
				},
				{
					"inputs": [],
					"name": "tokenA",
					"outputs": [
						{
							"internalType": "contract IERC20",
							"name": "",
							"type": "address"
						}
					],
					"stateMutability": "view",
					"type": "function"
				},
				{
					"inputs": [],
					"name": "tokenB",
					"outputs": [
						{
							"internalType": "contract IERC20",
							"name": "",
							"type": "address"
						}
					],
					"stateMutability": "view",
					"type": "function"
				}
			],
			"devdoc": {
				"kind": "dev",
				"methods": {},
				"version": 1
			},
			"evm": {
				"assembly": "    /* \"ETHKIPU/simpleDEX/simpleDEX_flattened.sol\":2966:9160  contract SimpleDEX {... */\n  mstore(0x40, 0x80)\n    /* \"ETHKIPU/simpleDEX/simpleDEX_flattened.sol\":3915:4069  constructor(address _tokenA, address _tokenB) { ... */\n  callvalue\n  dup1\n  iszero\n  tag_1\n  jumpi\n  0x00\n  dup1\n  revert\ntag_1:\n  pop\n  mload(0x40)\n  sub(codesize, bytecodeSize)\n  dup1\n  bytecodeSize\n  dup4\n  codecopy\n  dup2\n  dup2\n  add\n  0x40\n  mstore\n  dup2\n  add\n  swap1\n  tag_2\n  swap2\n  swap1\n  tag_3\n  jump\t// in\ntag_2:\n    /* \"ETHKIPU/simpleDEX/simpleDEX_flattened.sol\":3989:3996  _tokenA */\n  dup2\n    /* \"ETHKIPU/simpleDEX/simpleDEX_flattened.sol\":3973:3979  tokenA */\n  0x00\n  dup1\n    /* \"ETHKIPU/simpleDEX/simpleDEX_flattened.sol\":3973:3997  tokenA = IERC20(_tokenA) */\n  0x0100\n  exp\n  dup2\n  sload\n  dup2\n  0xffffffffffffffffffffffffffffffffffffffff\n  mul\n  not\n  and\n  swap1\n  dup4\n  0xffffffffffffffffffffffffffffffffffffffff\n  and\n  mul\n  or\n  swap1\n  sstore\n  pop\n    /* \"ETHKIPU/simpleDEX/simpleDEX_flattened.sol\":4024:4031  _tokenB */\n  dup1\n    /* \"ETHKIPU/simpleDEX/simpleDEX_flattened.sol\":4008:4014  tokenB */\n  0x01\n  0x00\n    /* \"ETHKIPU/simpleDEX/simpleDEX_flattened.sol\":4008:4032  tokenB = IERC20(_tokenB) */\n  0x0100\n  exp\n  dup2\n  sload\n  dup2\n  0xffffffffffffffffffffffffffffffffffffffff\n  mul\n  not\n  and\n  swap1\n  dup4\n  0xffffffffffffffffffffffffffffffffffffffff\n  and\n  mul\n  or\n  swap1\n  sstore\n  pop\n    /* \"ETHKIPU/simpleDEX/simpleDEX_flattened.sol\":4051:4061  msg.sender */\n  caller\n    /* \"ETHKIPU/simpleDEX/simpleDEX_flattened.sol\":4043:4048  owner */\n  0x04\n  0x00\n    /* \"ETHKIPU/simpleDEX/simpleDEX_flattened.sol\":4043:4061  owner = msg.sender */\n  0x0100\n  exp\n  dup2\n  sload\n  dup2\n  0xffffffffffffffffffffffffffffffffffffffff\n  mul\n  not\n  and\n  swap1\n  dup4\n  0xffffffffffffffffffffffffffffffffffffffff\n  and\n  mul\n  or\n  swap1\n  sstore\n  pop\n    /* \"ETHKIPU/simpleDEX/simpleDEX_flattened.sol\":3915:4069  constructor(address _tokenA, address _tokenB) { ... */\n  pop\n  pop\n    /* \"ETHKIPU/simpleDEX/simpleDEX_flattened.sol\":2966:9160  contract SimpleDEX {... */\n  jump(tag_6)\n    /* \"#utility.yul\":88:205   */\ntag_8:\n    /* \"#utility.yul\":197:198   */\n  0x00\n    /* \"#utility.yul\":194:195   */\n  dup1\n    /* \"#utility.yul\":187:199   */\n  revert\n    /* \"#utility.yul\":334:460   */\ntag_10:\n    /* \"#utility.yul\":371:378   */\n  0x00\n    /* \"#utility.yul\":411:453   */\n  0xffffffffffffffffffffffffffffffffffffffff\n    /* \"#utility.yul\":404:409   */\n  dup3\n    /* \"#utility.yul\":400:454   */\n  and\n    /* \"#utility.yul\":389:454   */\n  swap1\n  pop\n    /* \"#utility.yul\":334:460   */\n  swap2\n  swap1\n  pop\n  jump\t// out\n    /* \"#utility.yul\":466:562   */\ntag_11:\n    /* \"#utility.yul\":503:510   */\n  0x00\n    /* \"#utility.yul\":532:556   */\n  tag_20\n    /* \"#utility.yul\":550:555   */\n  dup3\n    /* \"#utility.yul\":532:556   */\n  tag_10\n  jump\t// in\ntag_20:\n    /* \"#utility.yul\":521:556   */\n  swap1\n  pop\n    /* \"#utility.yul\":466:562   */\n  swap2\n  swap1\n  pop\n  jump\t// out\n    /* \"#utility.yul\":568:690   */\ntag_12:\n    /* \"#utility.yul\":641:665   */\n  tag_22\n    /* \"#utility.yul\":659:664   */\n  dup2\n    /* \"#utility.yul\":641:665   */\n  tag_11\n  jump\t// in\ntag_22:\n    /* \"#utility.yul\":634:639   */\n  dup2\n    /* \"#utility.yul\":631:666   */\n  eq\n    /* \"#utility.yul\":621:684   */\n  tag_23\n  jumpi\n    /* \"#utility.yul\":680:681   */\n  0x00\n    /* \"#utility.yul\":677:678   */\n  dup1\n    /* \"#utility.yul\":670:682   */\n  revert\n    /* \"#utility.yul\":621:684   */\ntag_23:\n    /* \"#utility.yul\":568:690   */\n  pop\n  jump\t// out\n    /* \"#utility.yul\":696:839   */\ntag_13:\n    /* \"#utility.yul\":753:758   */\n  0x00\n    /* \"#utility.yul\":784:790   */\n  dup2\n    /* \"#utility.yul\":778:791   */\n  mload\n    /* \"#utility.yul\":769:791   */\n  swap1\n  pop\n    /* \"#utility.yul\":800:833   */\n  tag_25\n    /* \"#utility.yul\":827:832   */\n  dup2\n    /* \"#utility.yul\":800:833   */\n  tag_12\n  jump\t// in\ntag_25:\n    /* \"#utility.yul\":696:839   */\n  swap3\n  swap2\n  pop\n  pop\n  jump\t// out\n    /* \"#utility.yul\":845:1352   */\ntag_3:\n    /* \"#utility.yul\":924:930   */\n  0x00\n    /* \"#utility.yul\":932:938   */\n  dup1\n    /* \"#utility.yul\":981:983   */\n  0x40\n    /* \"#utility.yul\":969:978   */\n  dup4\n    /* \"#utility.yul\":960:967   */\n  dup6\n    /* \"#utility.yul\":956:979   */\n  sub\n    /* \"#utility.yul\":952:984   */\n  slt\n    /* \"#utility.yul\":949:1068   */\n  iszero\n  tag_27\n  jumpi\n    /* \"#utility.yul\":987:1066   */\n  tag_28\n  tag_8\n  jump\t// in\ntag_28:\n    /* \"#utility.yul\":949:1068   */\ntag_27:\n    /* \"#utility.yul\":1107:1108   */\n  0x00\n    /* \"#utility.yul\":1132:1196   */\n  tag_29\n    /* \"#utility.yul\":1188:1195   */\n  dup6\n    /* \"#utility.yul\":1179:1185   */\n  dup3\n    /* \"#utility.yul\":1168:1177   */\n  dup7\n    /* \"#utility.yul\":1164:1186   */\n  add\n    /* \"#utility.yul\":1132:1196   */\n  tag_13\n  jump\t// in\ntag_29:\n    /* \"#utility.yul\":1122:1196   */\n  swap3\n  pop\n    /* \"#utility.yul\":1078:1206   */\n  pop\n    /* \"#utility.yul\":1245:1247   */\n  0x20\n    /* \"#utility.yul\":1271:1335   */\n  tag_30\n    /* \"#utility.yul\":1327:1334   */\n  dup6\n    /* \"#utility.yul\":1318:1324   */\n  dup3\n    /* \"#utility.yul\":1307:1316   */\n  dup7\n    /* \"#utility.yul\":1303:1325   */\n  add\n    /* \"#utility.yul\":1271:1335   */\n  tag_13\n  jump\t// in\ntag_30:\n    /* \"#utility.yul\":1261:1335   */\n  swap2\n  pop\n    /* \"#utility.yul\":1216:1345   */\n  pop\n    /* \"#utility.yul\":845:1352   */\n  swap3\n  pop\n  swap3\n  swap1\n  pop\n  jump\t// out\n    /* \"ETHKIPU/simpleDEX/simpleDEX_flattened.sol\":2966:9160  contract SimpleDEX {... */\ntag_6:\n  dataSize(sub_0)\n  dup1\n  dataOffset(sub_0)\n  0x00\n  codecopy\n  0x00\n  return\nstop\n\nsub_0: assembly {\n        /* \"ETHKIPU/simpleDEX/simpleDEX_flattened.sol\":2966:9160  contract SimpleDEX {... */\n      mstore(0x40, 0x80)\n      callvalue\n      dup1\n      iszero\n      tag_1\n      jumpi\n      0x00\n      dup1\n      revert\n    tag_1:\n      pop\n      jumpi(tag_2, lt(calldatasize, 0x04))\n      shr(0xe0, calldataload(0x00))\n      dup1\n      0x8014a7aa\n      gt\n      tag_13\n      jumpi\n      dup1\n      0x8014a7aa\n      eq\n      tag_8\n      jumpi\n      dup1\n      0x8da5cb5b\n      eq\n      tag_9\n      jumpi\n      dup1\n      0x9cd441da\n      eq\n      tag_10\n      jumpi\n      dup1\n      0x9d7de6b3\n      eq\n      tag_11\n      jumpi\n      dup1\n      0xe4f1f70a\n      eq\n      tag_12\n      jumpi\n      jump(tag_2)\n    tag_13:\n      dup1\n      0x0fc63d10\n      eq\n      tag_3\n      jumpi\n      dup1\n      0x21ecb58b\n      eq\n      tag_4\n      jumpi\n      dup1\n      0x41976e09\n      eq\n      tag_5\n      jumpi\n      dup1\n      0x5f64b55b\n      eq\n      tag_6\n      jumpi\n      dup1\n      0x6009c4a0\n      eq\n      tag_7\n      jumpi\n    tag_2:\n      0x00\n      dup1\n      revert\n        /* \"ETHKIPU/simpleDEX/simpleDEX_flattened.sol\":2992:3012  IERC20 public tokenA */\n    tag_3:\n      tag_14\n      tag_15\n      jump\t// in\n    tag_14:\n      mload(0x40)\n      tag_16\n      swap2\n      swap1\n      tag_17\n      jump\t// in\n    tag_16:\n      mload(0x40)\n      dup1\n      swap2\n      sub\n      swap1\n      return\n        /* \"ETHKIPU/simpleDEX/simpleDEX_flattened.sol\":3170:3195  uint256 public balanceofA */\n    tag_4:\n      tag_18\n      tag_19\n      jump\t// in\n    tag_18:\n      mload(0x40)\n      tag_20\n      swap2\n      swap1\n      tag_21\n      jump\t// in\n    tag_20:\n      mload(0x40)\n      dup1\n      swap2\n      sub\n      swap1\n      return\n        /* \"ETHKIPU/simpleDEX/simpleDEX_flattened.sol\":8614:9155  function getPrice(address _token) external view EnoughLiquidity returns (uint256) {... */\n    tag_5:\n      tag_22\n      0x04\n      dup1\n      calldatasize\n      sub\n      dup2\n      add\n      swap1\n      tag_23\n      swap2\n      swap1\n      tag_24\n      jump\t// in\n    tag_23:\n      tag_25\n      jump\t// in\n    tag_22:\n      mload(0x40)\n      tag_26\n      swap2\n      swap1\n      tag_21\n      jump\t// in\n    tag_26:\n      mload(0x40)\n      dup1\n      swap2\n      sub\n      swap1\n      return\n        /* \"ETHKIPU/simpleDEX/simpleDEX_flattened.sol\":3081:3101  IERC20 public tokenB */\n    tag_6:\n      tag_27\n      tag_28\n      jump\t// in\n    tag_27:\n      mload(0x40)\n      tag_29\n      swap2\n      swap1\n      tag_17\n      jump\t// in\n    tag_29:\n      mload(0x40)\n      dup1\n      swap2\n      sub\n      swap1\n      return\n        /* \"ETHKIPU/simpleDEX/simpleDEX_flattened.sol\":3254:3279  uint256 public balanceofB */\n    tag_7:\n      tag_30\n      tag_31\n      jump\t// in\n    tag_30:\n      mload(0x40)\n      tag_32\n      swap2\n      swap1\n      tag_21\n      jump\t// in\n    tag_32:\n      mload(0x40)\n      dup1\n      swap2\n      sub\n      swap1\n      return\n        /* \"ETHKIPU/simpleDEX/simpleDEX_flattened.sol\":6546:7810  function swapBforA(uint256 amountBIn) external EnoughLiquidity {... */\n    tag_8:\n      tag_33\n      0x04\n      dup1\n      calldatasize\n      sub\n      dup2\n      add\n      swap1\n      tag_34\n      swap2\n      swap1\n      tag_35\n      jump\t// in\n    tag_34:\n      tag_36\n      jump\t// in\n    tag_33:\n      stop\n        /* \"ETHKIPU/simpleDEX/simpleDEX_flattened.sol\":3338:3358  address public owner */\n    tag_9:\n      tag_37\n      tag_38\n      jump\t// in\n    tag_37:\n      mload(0x40)\n      tag_39\n      swap2\n      swap1\n      tag_40\n      jump\t// in\n    tag_39:\n      mload(0x40)\n      dup1\n      swap2\n      sub\n      swap1\n      return\n        /* \"ETHKIPU/simpleDEX/simpleDEX_flattened.sol\":4472:5192  function addLiquidity(uint256 amountA, uint256 amountB) external onlyOwner {... */\n    tag_10:\n      tag_41\n      0x04\n      dup1\n      calldatasize\n      sub\n      dup2\n      add\n      swap1\n      tag_42\n      swap2\n      swap1\n      tag_43\n      jump\t// in\n    tag_42:\n      tag_44\n      jump\t// in\n    tag_41:\n      stop\n        /* \"ETHKIPU/simpleDEX/simpleDEX_flattened.sol\":7861:8531  function removeLiquidity(uint256 amountA, uint256 amountB) external onlyOwner EnoughLiquidity {... */\n    tag_11:\n      tag_45\n      0x04\n      dup1\n      calldatasize\n      sub\n      dup2\n      add\n      swap1\n      tag_46\n      swap2\n      swap1\n      tag_43\n      jump\t// in\n    tag_46:\n      tag_47\n      jump\t// in\n    tag_45:\n      stop\n        /* \"ETHKIPU/simpleDEX/simpleDEX_flattened.sol\":5233:6505  function swapAforB(uint256 amountAIn) external EnoughLiquidity {... */\n    tag_12:\n      tag_48\n      0x04\n      dup1\n      calldatasize\n      sub\n      dup2\n      add\n      swap1\n      tag_49\n      swap2\n      swap1\n      tag_35\n      jump\t// in\n    tag_49:\n      tag_50\n      jump\t// in\n    tag_48:\n      stop\n        /* \"ETHKIPU/simpleDEX/simpleDEX_flattened.sol\":2992:3012  IERC20 public tokenA */\n    tag_15:\n      0x00\n      dup1\n      sload\n      swap1\n      0x0100\n      exp\n      swap1\n      div\n      0xffffffffffffffffffffffffffffffffffffffff\n      and\n      dup2\n      jump\t// out\n        /* \"ETHKIPU/simpleDEX/simpleDEX_flattened.sol\":3170:3195  uint256 public balanceofA */\n    tag_19:\n      sload(0x02)\n      dup2\n      jump\t// out\n        /* \"ETHKIPU/simpleDEX/simpleDEX_flattened.sol\":8614:9155  function getPrice(address _token) external view EnoughLiquidity returns (uint256) {... */\n    tag_25:\n        /* \"ETHKIPU/simpleDEX/simpleDEX_flattened.sol\":8687:8694  uint256 */\n      0x00\n        /* \"ETHKIPU/simpleDEX/simpleDEX_flattened.sol\":4326:4327  0 */\n      dup1\n        /* \"ETHKIPU/simpleDEX/simpleDEX_flattened.sol\":4313:4323  balanceofA */\n      sload(0x02)\n        /* \"ETHKIPU/simpleDEX/simpleDEX_flattened.sol\":4313:4327  balanceofA > 0 */\n      gt\n        /* \"ETHKIPU/simpleDEX/simpleDEX_flattened.sol\":4313:4345  balanceofA > 0 && balanceofB > 0 */\n      dup1\n      iszero\n      tag_52\n      jumpi\n      pop\n        /* \"ETHKIPU/simpleDEX/simpleDEX_flattened.sol\":4344:4345  0 */\n      0x00\n        /* \"ETHKIPU/simpleDEX/simpleDEX_flattened.sol\":4331:4341  balanceofB */\n      sload(0x03)\n        /* \"ETHKIPU/simpleDEX/simpleDEX_flattened.sol\":4331:4345  balanceofB > 0 */\n      gt\n        /* \"ETHKIPU/simpleDEX/simpleDEX_flattened.sol\":4313:4345  balanceofA > 0 && balanceofB > 0 */\n    tag_52:\n        /* \"ETHKIPU/simpleDEX/simpleDEX_flattened.sol\":4305:4370  require(balanceofA > 0 && balanceofB > 0, \"Not enough liquidity\") */\n      tag_53\n      jumpi\n      mload(0x40)\n      0x08c379a000000000000000000000000000000000000000000000000000000000\n      dup2\n      mstore\n      0x04\n      add\n      tag_54\n      swap1\n      tag_55\n      jump\t// in\n    tag_54:\n      mload(0x40)\n      dup1\n      swap2\n      sub\n      swap1\n      revert\n    tag_53:\n        /* \"ETHKIPU/simpleDEX/simpleDEX_flattened.sol\":8733:8739  tokenA */\n      0x00\n      dup1\n      sload\n      swap1\n      0x0100\n      exp\n      swap1\n      div\n      0xffffffffffffffffffffffffffffffffffffffff\n      and\n        /* \"ETHKIPU/simpleDEX/simpleDEX_flattened.sol\":8715:8740  _token == address(tokenA) */\n      0xffffffffffffffffffffffffffffffffffffffff\n      and\n        /* \"ETHKIPU/simpleDEX/simpleDEX_flattened.sol\":8715:8721  _token */\n      dup3\n        /* \"ETHKIPU/simpleDEX/simpleDEX_flattened.sol\":8715:8740  _token == address(tokenA) */\n      0xffffffffffffffffffffffffffffffffffffffff\n      and\n      eq\n        /* \"ETHKIPU/simpleDEX/simpleDEX_flattened.sol\":8715:8769  _token == address(tokenA) || _token == address(tokenB) */\n      dup1\n      tag_57\n      jumpi\n      pop\n        /* \"ETHKIPU/simpleDEX/simpleDEX_flattened.sol\":8762:8768  tokenB */\n      0x01\n      0x00\n      swap1\n      sload\n      swap1\n      0x0100\n      exp\n      swap1\n      div\n      0xffffffffffffffffffffffffffffffffffffffff\n      and\n        /* \"ETHKIPU/simpleDEX/simpleDEX_flattened.sol\":8744:8769  _token == address(tokenB) */\n      0xffffffffffffffffffffffffffffffffffffffff\n      and\n        /* \"ETHKIPU/simpleDEX/simpleDEX_flattened.sol\":8744:8750  _token */\n      dup3\n        /* \"ETHKIPU/simpleDEX/simpleDEX_flattened.sol\":8744:8769  _token == address(tokenB) */\n      0xffffffffffffffffffffffffffffffffffffffff\n      and\n      eq\n        /* \"ETHKIPU/simpleDEX/simpleDEX_flattened.sol\":8715:8769  _token == address(tokenA) || _token == address(tokenB) */\n    tag_57:\n        /* \"ETHKIPU/simpleDEX/simpleDEX_flattened.sol\":8707:8795  require(_token == address(tokenA) || _token == address(tokenB), \"Invalid token address\") */\n      tag_58\n      jumpi\n      mload(0x40)\n      0x08c379a000000000000000000000000000000000000000000000000000000000\n      dup2\n      mstore\n      0x04\n      add\n      tag_59\n      swap1\n      tag_60\n      jump\t// in\n    tag_59:\n      mload(0x40)\n      dup1\n      swap2\n      sub\n      swap1\n      revert\n    tag_58:\n        /* \"ETHKIPU/simpleDEX/simpleDEX_flattened.sol\":8877:8883  tokenA */\n      0x00\n      dup1\n      sload\n      swap1\n      0x0100\n      exp\n      swap1\n      div\n      0xffffffffffffffffffffffffffffffffffffffff\n      and\n        /* \"ETHKIPU/simpleDEX/simpleDEX_flattened.sol\":8859:8884  _token == address(tokenA) */\n      0xffffffffffffffffffffffffffffffffffffffff\n      and\n        /* \"ETHKIPU/simpleDEX/simpleDEX_flattened.sol\":8859:8865  _token */\n      dup3\n        /* \"ETHKIPU/simpleDEX/simpleDEX_flattened.sol\":8859:8884  _token == address(tokenA) */\n      0xffffffffffffffffffffffffffffffffffffffff\n      and\n      sub\n        /* \"ETHKIPU/simpleDEX/simpleDEX_flattened.sol\":8855:9148  if (_token == address(tokenA)) { //If it is tokenA, it returns the result of balanceB/balanceA... */\n      tag_61\n      jumpi\n        /* \"ETHKIPU/simpleDEX/simpleDEX_flattened.sol\":8992:9002  balanceofA */\n      sload(0x02)\n        /* \"ETHKIPU/simpleDEX/simpleDEX_flattened.sol\":8984:8988  1e18 */\n      0x0de0b6b3a7640000\n        /* \"ETHKIPU/simpleDEX/simpleDEX_flattened.sol\":8971:8981  balanceofB */\n      sload(0x03)\n        /* \"ETHKIPU/simpleDEX/simpleDEX_flattened.sol\":8971:8988  balanceofB * 1e18 */\n      tag_62\n      swap2\n      swap1\n      tag_63\n      jump\t// in\n    tag_62:\n        /* \"ETHKIPU/simpleDEX/simpleDEX_flattened.sol\":8970:9002  (balanceofB * 1e18) / balanceofA */\n      tag_64\n      swap2\n      swap1\n      tag_65\n      jump\t// in\n    tag_64:\n        /* \"ETHKIPU/simpleDEX/simpleDEX_flattened.sol\":8963:9002  return (balanceofB * 1e18) / balanceofA */\n      swap1\n      pop\n      jump(tag_56)\n        /* \"ETHKIPU/simpleDEX/simpleDEX_flattened.sol\":8855:9148  if (_token == address(tokenA)) { //If it is tokenA, it returns the result of balanceB/balanceA... */\n    tag_61:\n        /* \"ETHKIPU/simpleDEX/simpleDEX_flattened.sol\":9126:9136  balanceofB */\n      sload(0x03)\n        /* \"ETHKIPU/simpleDEX/simpleDEX_flattened.sol\":9118:9122  1e18 */\n      0x0de0b6b3a7640000\n        /* \"ETHKIPU/simpleDEX/simpleDEX_flattened.sol\":9105:9115  balanceofA */\n      sload(0x02)\n        /* \"ETHKIPU/simpleDEX/simpleDEX_flattened.sol\":9105:9122  balanceofA * 1e18 */\n      tag_67\n      swap2\n      swap1\n      tag_63\n      jump\t// in\n    tag_67:\n        /* \"ETHKIPU/simpleDEX/simpleDEX_flattened.sol\":9104:9136  (balanceofA * 1e18) / balanceofB */\n      tag_68\n      swap2\n      swap1\n      tag_65\n      jump\t// in\n    tag_68:\n        /* \"ETHKIPU/simpleDEX/simpleDEX_flattened.sol\":9097:9136  return (balanceofA * 1e18) / balanceofB */\n      swap1\n      pop\n        /* \"ETHKIPU/simpleDEX/simpleDEX_flattened.sol\":4382:4383  _ */\n    tag_56:\n        /* \"ETHKIPU/simpleDEX/simpleDEX_flattened.sol\":8614:9155  function getPrice(address _token) external view EnoughLiquidity returns (uint256) {... */\n      swap2\n      swap1\n      pop\n      jump\t// out\n        /* \"ETHKIPU/simpleDEX/simpleDEX_flattened.sol\":3081:3101  IERC20 public tokenB */\n    tag_28:\n      0x01\n      0x00\n      swap1\n      sload\n      swap1\n      0x0100\n      exp\n      swap1\n      div\n      0xffffffffffffffffffffffffffffffffffffffff\n      and\n      dup2\n      jump\t// out\n        /* \"ETHKIPU/simpleDEX/simpleDEX_flattened.sol\":3254:3279  uint256 public balanceofB */\n    tag_31:\n      sload(0x03)\n      dup2\n      jump\t// out\n        /* \"ETHKIPU/simpleDEX/simpleDEX_flattened.sol\":6546:7810  function swapBforA(uint256 amountBIn) external EnoughLiquidity {... */\n    tag_36:\n        /* \"ETHKIPU/simpleDEX/simpleDEX_flattened.sol\":4326:4327  0 */\n      0x00\n        /* \"ETHKIPU/simpleDEX/simpleDEX_flattened.sol\":4313:4323  balanceofA */\n      sload(0x02)\n        /* \"ETHKIPU/simpleDEX/simpleDEX_flattened.sol\":4313:4327  balanceofA > 0 */\n      gt\n        /* \"ETHKIPU/simpleDEX/simpleDEX_flattened.sol\":4313:4345  balanceofA > 0 && balanceofB > 0 */\n      dup1\n      iszero\n      tag_70\n      jumpi\n      pop\n        /* \"ETHKIPU/simpleDEX/simpleDEX_flattened.sol\":4344:4345  0 */\n      0x00\n        /* \"ETHKIPU/simpleDEX/simpleDEX_flattened.sol\":4331:4341  balanceofB */\n      sload(0x03)\n        /* \"ETHKIPU/simpleDEX/simpleDEX_flattened.sol\":4331:4345  balanceofB > 0 */\n      gt\n        /* \"ETHKIPU/simpleDEX/simpleDEX_flattened.sol\":4313:4345  balanceofA > 0 && balanceofB > 0 */\n    tag_70:\n        /* \"ETHKIPU/simpleDEX/simpleDEX_flattened.sol\":4305:4370  require(balanceofA > 0 && balanceofB > 0, \"Not enough liquidity\") */\n      tag_71\n      jumpi\n      mload(0x40)\n      0x08c379a000000000000000000000000000000000000000000000000000000000\n      dup2\n      mstore\n      0x04\n      add\n      tag_72\n      swap1\n      tag_55\n      jump\t// in\n    tag_72:\n      mload(0x40)\n      dup1\n      swap2\n      sub\n      swap1\n      revert\n    tag_71:\n        /* \"ETHKIPU/simpleDEX/simpleDEX_flattened.sol\":6640:6641  0 */\n      0x00\n        /* \"ETHKIPU/simpleDEX/simpleDEX_flattened.sol\":6628:6637  amountBIn */\n      dup2\n        /* \"ETHKIPU/simpleDEX/simpleDEX_flattened.sol\":6628:6641  amountBIn > 0 */\n      gt\n        /* \"ETHKIPU/simpleDEX/simpleDEX_flattened.sol\":6620:6675  require(amountBIn > 0, \"Amount must be greater than 0\") */\n      tag_74\n      jumpi\n      mload(0x40)\n      0x08c379a000000000000000000000000000000000000000000000000000000000\n      dup2\n      mstore\n      0x04\n      add\n      tag_75\n      swap1\n      tag_76\n      jump\t// in\n    tag_75:\n      mload(0x40)\n      dup1\n      swap2\n      sub\n      swap1\n      revert\n    tag_74:\n        /* \"ETHKIPU/simpleDEX/simpleDEX_flattened.sol\":6898:6917  uint256 denominator */\n      0x00\n        /* \"ETHKIPU/simpleDEX/simpleDEX_flattened.sol\":6933:6942  amountBIn */\n      dup2\n        /* \"ETHKIPU/simpleDEX/simpleDEX_flattened.sol\":6920:6930  balanceofB */\n      sload(0x03)\n        /* \"ETHKIPU/simpleDEX/simpleDEX_flattened.sol\":6920:6942  balanceofB - amountBIn */\n      tag_77\n      swap2\n      swap1\n      tag_78\n      jump\t// in\n    tag_77:\n        /* \"ETHKIPU/simpleDEX/simpleDEX_flattened.sol\":6898:6942  uint256 denominator = balanceofB - amountBIn */\n      swap1\n      pop\n        /* \"ETHKIPU/simpleDEX/simpleDEX_flattened.sol\":6963:6979  uint256 fraction */\n      0x00\n        /* \"ETHKIPU/simpleDEX/simpleDEX_flattened.sol\":7010:7021  denominator */\n      dup2\n        /* \"ETHKIPU/simpleDEX/simpleDEX_flattened.sol\":6996:7006  balanceofB */\n      sload(0x03)\n        /* \"ETHKIPU/simpleDEX/simpleDEX_flattened.sol\":6983:6993  balanceofA */\n      sload(0x02)\n        /* \"ETHKIPU/simpleDEX/simpleDEX_flattened.sol\":6983:7006  balanceofA * balanceofB */\n      tag_79\n      swap2\n      swap1\n      tag_63\n      jump\t// in\n    tag_79:\n        /* \"ETHKIPU/simpleDEX/simpleDEX_flattened.sol\":6982:7021  (balanceofA * balanceofB) / denominator */\n      tag_80\n      swap2\n      swap1\n      tag_65\n      jump\t// in\n    tag_80:\n        /* \"ETHKIPU/simpleDEX/simpleDEX_flattened.sol\":6963:7021  uint256 fraction = (balanceofA * balanceofB) / denominator */\n      swap1\n      pop\n        /* \"ETHKIPU/simpleDEX/simpleDEX_flattened.sol\":7048:7066  uint256 amountAOut */\n      0x00\n        /* \"ETHKIPU/simpleDEX/simpleDEX_flattened.sol\":7080:7090  balanceofA */\n      sload(0x02)\n        /* \"ETHKIPU/simpleDEX/simpleDEX_flattened.sol\":7069:7077  fraction */\n      dup3\n        /* \"ETHKIPU/simpleDEX/simpleDEX_flattened.sol\":7069:7090  fraction - balanceofA */\n      tag_81\n      swap2\n      swap1\n      tag_78\n      jump\t// in\n    tag_81:\n        /* \"ETHKIPU/simpleDEX/simpleDEX_flattened.sol\":7048:7090  uint256 amountAOut = fraction - balanceofA */\n      swap1\n      pop\n        /* \"ETHKIPU/simpleDEX/simpleDEX_flattened.sol\":7147:7148  0 */\n      0x00\n        /* \"ETHKIPU/simpleDEX/simpleDEX_flattened.sol\":7134:7144  amountAOut */\n      dup2\n        /* \"ETHKIPU/simpleDEX/simpleDEX_flattened.sol\":7134:7148  amountAOut > 0 */\n      gt\n        /* \"ETHKIPU/simpleDEX/simpleDEX_flattened.sol\":7134:7176  amountAOut > 0 && amountAOut <= balanceofA */\n      dup1\n      iszero\n      tag_82\n      jumpi\n      pop\n        /* \"ETHKIPU/simpleDEX/simpleDEX_flattened.sol\":7166:7176  balanceofA */\n      sload(0x02)\n        /* \"ETHKIPU/simpleDEX/simpleDEX_flattened.sol\":7152:7162  amountAOut */\n      dup2\n        /* \"ETHKIPU/simpleDEX/simpleDEX_flattened.sol\":7152:7176  amountAOut <= balanceofA */\n      gt\n      iszero\n        /* \"ETHKIPU/simpleDEX/simpleDEX_flattened.sol\":7134:7176  amountAOut > 0 && amountAOut <= balanceofA */\n    tag_82:\n        /* \"ETHKIPU/simpleDEX/simpleDEX_flattened.sol\":7126:7202  require(amountAOut > 0 && amountAOut <= balanceofA, \"Invalid output amount\") */\n      tag_83\n      jumpi\n      mload(0x40)\n      0x08c379a000000000000000000000000000000000000000000000000000000000\n      dup2\n      mstore\n      0x04\n      add\n      tag_84\n      swap1\n      tag_85\n      jump\t// in\n    tag_84:\n      mload(0x40)\n      dup1\n      swap2\n      sub\n      swap1\n      revert\n    tag_83:\n        /* \"ETHKIPU/simpleDEX/simpleDEX_flattened.sol\":7302:7308  tokenB */\n      0x01\n      0x00\n      swap1\n      sload\n      swap1\n      0x0100\n      exp\n      swap1\n      div\n      0xffffffffffffffffffffffffffffffffffffffff\n      and\n        /* \"ETHKIPU/simpleDEX/simpleDEX_flattened.sol\":7302:7321  tokenB.transferFrom */\n      0xffffffffffffffffffffffffffffffffffffffff\n      and\n      0x23b872dd\n        /* \"ETHKIPU/simpleDEX/simpleDEX_flattened.sol\":7322:7332  msg.sender */\n      caller\n        /* \"ETHKIPU/simpleDEX/simpleDEX_flattened.sol\":7342:7346  this */\n      address\n        /* \"ETHKIPU/simpleDEX/simpleDEX_flattened.sol\":7349:7358  amountBIn */\n      dup8\n        /* \"ETHKIPU/simpleDEX/simpleDEX_flattened.sol\":7302:7359  tokenB.transferFrom(msg.sender, address(this), amountBIn) */\n      mload(0x40)\n      dup5\n      0xffffffff\n      and\n      0xe0\n      shl\n      dup2\n      mstore\n      0x04\n      add\n      tag_86\n      swap4\n      swap3\n      swap2\n      swap1\n      tag_87\n      jump\t// in\n    tag_86:\n      0x20\n      mload(0x40)\n      dup1\n      dup4\n      sub\n      dup2\n      0x00\n      dup8\n      gas\n      call\n      iszero\n      dup1\n      iszero\n      tag_89\n      jumpi\n      returndatasize\n      0x00\n      dup1\n      returndatacopy\n      revert(0x00, returndatasize)\n    tag_89:\n      pop\n      pop\n      pop\n      pop\n      mload(0x40)\n      returndatasize\n      not(0x1f)\n      0x1f\n      dup3\n      add\n      and\n      dup3\n      add\n      dup1\n      0x40\n      mstore\n      pop\n      dup2\n      add\n      swap1\n      tag_90\n      swap2\n      swap1\n      tag_91\n      jump\t// in\n    tag_90:\n      pop\n        /* \"ETHKIPU/simpleDEX/simpleDEX_flattened.sol\":7444:7450  tokenA */\n      0x00\n      dup1\n      sload\n      swap1\n      0x0100\n      exp\n      swap1\n      div\n      0xffffffffffffffffffffffffffffffffffffffff\n      and\n        /* \"ETHKIPU/simpleDEX/simpleDEX_flattened.sol\":7444:7459  tokenA.transfer */\n      0xffffffffffffffffffffffffffffffffffffffff\n      and\n      0xa9059cbb\n        /* \"ETHKIPU/simpleDEX/simpleDEX_flattened.sol\":7460:7470  msg.sender */\n      caller\n        /* \"ETHKIPU/simpleDEX/simpleDEX_flattened.sol\":7472:7482  amountAOut */\n      dup4\n        /* \"ETHKIPU/simpleDEX/simpleDEX_flattened.sol\":7444:7483  tokenA.transfer(msg.sender, amountAOut) */\n      mload(0x40)\n      dup4\n      0xffffffff\n      and\n      0xe0\n      shl\n      dup2\n      mstore\n      0x04\n      add\n      tag_92\n      swap3\n      swap2\n      swap1\n      tag_93\n      jump\t// in\n    tag_92:\n      0x20\n      mload(0x40)\n      dup1\n      dup4\n      sub\n      dup2\n      0x00\n      dup8\n      gas\n      call\n      iszero\n      dup1\n      iszero\n      tag_95\n      jumpi\n      returndatasize\n      0x00\n      dup1\n      returndatacopy\n      revert(0x00, returndatasize)\n    tag_95:\n      pop\n      pop\n      pop\n      pop\n      mload(0x40)\n      returndatasize\n      not(0x1f)\n      0x1f\n      dup3\n      add\n      and\n      dup3\n      add\n      dup1\n      0x40\n      mstore\n      pop\n      dup2\n      add\n      swap1\n      tag_96\n      swap2\n      swap1\n      tag_91\n      jump\t// in\n    tag_96:\n      pop\n        /* \"ETHKIPU/simpleDEX/simpleDEX_flattened.sol\":7563:7572  amountBIn */\n      dup4\n        /* \"ETHKIPU/simpleDEX/simpleDEX_flattened.sol\":7549:7559  balanceofB */\n      0x03\n      0x00\n        /* \"ETHKIPU/simpleDEX/simpleDEX_flattened.sol\":7549:7572  balanceofB += amountBIn */\n      dup3\n      dup3\n      sload\n      tag_97\n      swap2\n      swap1\n      tag_98\n      jump\t// in\n    tag_97:\n      swap3\n      pop\n      pop\n      dup2\n      swap1\n      sstore\n      pop\n        /* \"ETHKIPU/simpleDEX/simpleDEX_flattened.sol\":7637:7647  amountAOut */\n      dup1\n        /* \"ETHKIPU/simpleDEX/simpleDEX_flattened.sol\":7623:7633  balanceofA */\n      0x02\n      0x00\n        /* \"ETHKIPU/simpleDEX/simpleDEX_flattened.sol\":7623:7647  balanceofA -= amountAOut */\n      dup3\n      dup3\n      sload\n      tag_99\n      swap2\n      swap1\n      tag_78\n      jump\t// in\n    tag_99:\n      swap3\n      pop\n      pop\n      dup2\n      swap1\n      sstore\n      pop\n        /* \"ETHKIPU/simpleDEX/simpleDEX_flattened.sol\":7721:7731  msg.sender */\n      caller\n        /* \"ETHKIPU/simpleDEX/simpleDEX_flattened.sol\":7705:7755  TokensSwappedBA(msg.sender, amountBIn, amountAOut) */\n      0xffffffffffffffffffffffffffffffffffffffff\n      and\n      0xbb8ca5a7eaee5dfdf64c229b7ceb6cb3ec5b257008af3f94d86ef0771058f353\n        /* \"ETHKIPU/simpleDEX/simpleDEX_flattened.sol\":7733:7742  amountBIn */\n      dup6\n        /* \"ETHKIPU/simpleDEX/simpleDEX_flattened.sol\":7744:7754  amountAOut */\n      dup4\n        /* \"ETHKIPU/simpleDEX/simpleDEX_flattened.sol\":7705:7755  TokensSwappedBA(msg.sender, amountBIn, amountAOut) */\n      mload(0x40)\n      tag_100\n      swap3\n      swap2\n      swap1\n      tag_101\n      jump\t// in\n    tag_100:\n      mload(0x40)\n      dup1\n      swap2\n      sub\n      swap1\n      log2\n        /* \"ETHKIPU/simpleDEX/simpleDEX_flattened.sol\":6609:7810  {... */\n      pop\n      pop\n      pop\n        /* \"ETHKIPU/simpleDEX/simpleDEX_flattened.sol\":6546:7810  function swapBforA(uint256 amountBIn) external EnoughLiquidity {... */\n      pop\n      jump\t// out\n        /* \"ETHKIPU/simpleDEX/simpleDEX_flattened.sol\":3338:3358  address public owner */\n    tag_38:\n      0x04\n      0x00\n      swap1\n      sload\n      swap1\n      0x0100\n      exp\n      swap1\n      div\n      0xffffffffffffffffffffffffffffffffffffffff\n      and\n      dup2\n      jump\t// out\n        /* \"ETHKIPU/simpleDEX/simpleDEX_flattened.sol\":4472:5192  function addLiquidity(uint256 amountA, uint256 amountB) external onlyOwner {... */\n    tag_44:\n        /* \"ETHKIPU/simpleDEX/simpleDEX_flattened.sol\":4168:4173  owner */\n      0x04\n      0x00\n      swap1\n      sload\n      swap1\n      0x0100\n      exp\n      swap1\n      div\n      0xffffffffffffffffffffffffffffffffffffffff\n      and\n        /* \"ETHKIPU/simpleDEX/simpleDEX_flattened.sol\":4154:4173  msg.sender == owner */\n      0xffffffffffffffffffffffffffffffffffffffff\n      and\n        /* \"ETHKIPU/simpleDEX/simpleDEX_flattened.sol\":4154:4164  msg.sender */\n      caller\n        /* \"ETHKIPU/simpleDEX/simpleDEX_flattened.sol\":4154:4173  msg.sender == owner */\n      0xffffffffffffffffffffffffffffffffffffffff\n      and\n      eq\n        /* \"ETHKIPU/simpleDEX/simpleDEX_flattened.sol\":4146:4191  require(msg.sender == owner, \"Not the owner\") */\n      tag_103\n      jumpi\n      mload(0x40)\n      0x08c379a000000000000000000000000000000000000000000000000000000000\n      dup2\n      mstore\n      0x04\n      add\n      tag_104\n      swap1\n      tag_105\n      jump\t// in\n    tag_104:\n      mload(0x40)\n      dup1\n      swap2\n      sub\n      swap1\n      revert\n    tag_103:\n        /* \"ETHKIPU/simpleDEX/simpleDEX_flattened.sol\":4576:4577  0 */\n      0x00\n        /* \"ETHKIPU/simpleDEX/simpleDEX_flattened.sol\":4566:4573  amountA */\n      dup3\n        /* \"ETHKIPU/simpleDEX/simpleDEX_flattened.sol\":4566:4577  amountA > 0 */\n      gt\n        /* \"ETHKIPU/simpleDEX/simpleDEX_flattened.sol\":4566:4592  amountA > 0 && amountB > 0 */\n      dup1\n      iszero\n      tag_107\n      jumpi\n      pop\n        /* \"ETHKIPU/simpleDEX/simpleDEX_flattened.sol\":4591:4592  0 */\n      0x00\n        /* \"ETHKIPU/simpleDEX/simpleDEX_flattened.sol\":4581:4588  amountB */\n      dup2\n        /* \"ETHKIPU/simpleDEX/simpleDEX_flattened.sol\":4581:4592  amountB > 0 */\n      gt\n        /* \"ETHKIPU/simpleDEX/simpleDEX_flattened.sol\":4566:4592  amountA > 0 && amountB > 0 */\n    tag_107:\n        /* \"ETHKIPU/simpleDEX/simpleDEX_flattened.sol\":4558:4627  require(amountA > 0 && amountB > 0, \"Amounts must be greater than 0\") */\n      tag_108\n      jumpi\n      mload(0x40)\n      0x08c379a000000000000000000000000000000000000000000000000000000000\n      dup2\n      mstore\n      0x04\n      add\n      tag_109\n      swap1\n      tag_110\n      jump\t// in\n    tag_109:\n      mload(0x40)\n      dup1\n      swap2\n      sub\n      swap1\n      revert\n    tag_108:\n        /* \"ETHKIPU/simpleDEX/simpleDEX_flattened.sol\":4708:4714  tokenA */\n      0x00\n      dup1\n      sload\n      swap1\n      0x0100\n      exp\n      swap1\n      div\n      0xffffffffffffffffffffffffffffffffffffffff\n      and\n        /* \"ETHKIPU/simpleDEX/simpleDEX_flattened.sol\":4708:4727  tokenA.transferFrom */\n      0xffffffffffffffffffffffffffffffffffffffff\n      and\n      0x23b872dd\n        /* \"ETHKIPU/simpleDEX/simpleDEX_flattened.sol\":4728:4738  msg.sender */\n      caller\n        /* \"ETHKIPU/simpleDEX/simpleDEX_flattened.sol\":4748:4752  this */\n      address\n        /* \"ETHKIPU/simpleDEX/simpleDEX_flattened.sol\":4755:4762  amountA */\n      dup6\n        /* \"ETHKIPU/simpleDEX/simpleDEX_flattened.sol\":4708:4763  tokenA.transferFrom(msg.sender, address(this), amountA) */\n      mload(0x40)\n      dup5\n      0xffffffff\n      and\n      0xe0\n      shl\n      dup2\n      mstore\n      0x04\n      add\n      tag_111\n      swap4\n      swap3\n      swap2\n      swap1\n      tag_87\n      jump\t// in\n    tag_111:\n      0x20\n      mload(0x40)\n      dup1\n      dup4\n      sub\n      dup2\n      0x00\n      dup8\n      gas\n      call\n      iszero\n      dup1\n      iszero\n      tag_113\n      jumpi\n      returndatasize\n      0x00\n      dup1\n      returndatacopy\n      revert(0x00, returndatasize)\n    tag_113:\n      pop\n      pop\n      pop\n      pop\n      mload(0x40)\n      returndatasize\n      not(0x1f)\n      0x1f\n      dup3\n      add\n      and\n      dup3\n      add\n      dup1\n      0x40\n      mstore\n      pop\n      dup2\n      add\n      swap1\n      tag_114\n      swap2\n      swap1\n      tag_91\n      jump\t// in\n    tag_114:\n      pop\n        /* \"ETHKIPU/simpleDEX/simpleDEX_flattened.sol\":4834:4840  tokenB */\n      0x01\n      0x00\n      swap1\n      sload\n      swap1\n      0x0100\n      exp\n      swap1\n      div\n      0xffffffffffffffffffffffffffffffffffffffff\n      and\n        /* \"ETHKIPU/simpleDEX/simpleDEX_flattened.sol\":4834:4853  tokenB.transferFrom */\n      0xffffffffffffffffffffffffffffffffffffffff\n      and\n      0x23b872dd\n        /* \"ETHKIPU/simpleDEX/simpleDEX_flattened.sol\":4854:4864  msg.sender */\n      caller\n        /* \"ETHKIPU/simpleDEX/simpleDEX_flattened.sol\":4874:4878  this */\n      address\n        /* \"ETHKIPU/simpleDEX/simpleDEX_flattened.sol\":4881:4888  amountB */\n      dup5\n        /* \"ETHKIPU/simpleDEX/simpleDEX_flattened.sol\":4834:4889  tokenB.transferFrom(msg.sender, address(this), amountB) */\n      mload(0x40)\n      dup5\n      0xffffffff\n      and\n      0xe0\n      shl\n      dup2\n      mstore\n      0x04\n      add\n      tag_115\n      swap4\n      swap3\n      swap2\n      swap1\n      tag_87\n      jump\t// in\n    tag_115:\n      0x20\n      mload(0x40)\n      dup1\n      dup4\n      sub\n      dup2\n      0x00\n      dup8\n      gas\n      call\n      iszero\n      dup1\n      iszero\n      tag_117\n      jumpi\n      returndatasize\n      0x00\n      dup1\n      returndatacopy\n      revert(0x00, returndatasize)\n    tag_117:\n      pop\n      pop\n      pop\n      pop\n      mload(0x40)\n      returndatasize\n      not(0x1f)\n      0x1f\n      dup3\n      add\n      and\n      dup3\n      add\n      dup1\n      0x40\n      mstore\n      pop\n      dup2\n      add\n      swap1\n      tag_118\n      swap2\n      swap1\n      tag_91\n      jump\t// in\n    tag_118:\n      pop\n        /* \"ETHKIPU/simpleDEX/simpleDEX_flattened.sol\":4976:4983  amountA */\n      dup2\n        /* \"ETHKIPU/simpleDEX/simpleDEX_flattened.sol\":4962:4972  balanceofA */\n      0x02\n      0x00\n        /* \"ETHKIPU/simpleDEX/simpleDEX_flattened.sol\":4962:4983  balanceofA += amountA */\n      dup3\n      dup3\n      sload\n      tag_119\n      swap2\n      swap1\n      tag_98\n      jump\t// in\n    tag_119:\n      swap3\n      pop\n      pop\n      dup2\n      swap1\n      sstore\n      pop\n        /* \"ETHKIPU/simpleDEX/simpleDEX_flattened.sol\":5048:5055  amountB */\n      dup1\n        /* \"ETHKIPU/simpleDEX/simpleDEX_flattened.sol\":5034:5044  balanceofB */\n      0x03\n      0x00\n        /* \"ETHKIPU/simpleDEX/simpleDEX_flattened.sol\":5034:5055  balanceofB += amountB */\n      dup3\n      dup3\n      sload\n      tag_120\n      swap2\n      swap1\n      tag_98\n      jump\t// in\n    tag_120:\n      swap3\n      pop\n      pop\n      dup2\n      swap1\n      sstore\n      pop\n        /* \"ETHKIPU/simpleDEX/simpleDEX_flattened.sol\":5113:5145  LiquidityAdded(amountA, amountB) */\n      0x38f8a0c92f4c5b0b6877f878cb4c0c8d348a47b76d716c8e78f425043df9515b\n        /* \"ETHKIPU/simpleDEX/simpleDEX_flattened.sol\":5128:5135  amountA */\n      dup3\n        /* \"ETHKIPU/simpleDEX/simpleDEX_flattened.sol\":5137:5144  amountB */\n      dup3\n        /* \"ETHKIPU/simpleDEX/simpleDEX_flattened.sol\":5113:5145  LiquidityAdded(amountA, amountB) */\n      mload(0x40)\n      tag_121\n      swap3\n      swap2\n      swap1\n      tag_101\n      jump\t// in\n    tag_121:\n      mload(0x40)\n      dup1\n      swap2\n      sub\n      swap1\n      log1\n        /* \"ETHKIPU/simpleDEX/simpleDEX_flattened.sol\":4472:5192  function addLiquidity(uint256 amountA, uint256 amountB) external onlyOwner {... */\n      pop\n      pop\n      jump\t// out\n        /* \"ETHKIPU/simpleDEX/simpleDEX_flattened.sol\":7861:8531  function removeLiquidity(uint256 amountA, uint256 amountB) external onlyOwner EnoughLiquidity {... */\n    tag_47:\n        /* \"ETHKIPU/simpleDEX/simpleDEX_flattened.sol\":4168:4173  owner */\n      0x04\n      0x00\n      swap1\n      sload\n      swap1\n      0x0100\n      exp\n      swap1\n      div\n      0xffffffffffffffffffffffffffffffffffffffff\n      and\n        /* \"ETHKIPU/simpleDEX/simpleDEX_flattened.sol\":4154:4173  msg.sender == owner */\n      0xffffffffffffffffffffffffffffffffffffffff\n      and\n        /* \"ETHKIPU/simpleDEX/simpleDEX_flattened.sol\":4154:4164  msg.sender */\n      caller\n        /* \"ETHKIPU/simpleDEX/simpleDEX_flattened.sol\":4154:4173  msg.sender == owner */\n      0xffffffffffffffffffffffffffffffffffffffff\n      and\n      eq\n        /* \"ETHKIPU/simpleDEX/simpleDEX_flattened.sol\":4146:4191  require(msg.sender == owner, \"Not the owner\") */\n      tag_123\n      jumpi\n      mload(0x40)\n      0x08c379a000000000000000000000000000000000000000000000000000000000\n      dup2\n      mstore\n      0x04\n      add\n      tag_124\n      swap1\n      tag_105\n      jump\t// in\n    tag_124:\n      mload(0x40)\n      dup1\n      swap2\n      sub\n      swap1\n      revert\n    tag_123:\n        /* \"ETHKIPU/simpleDEX/simpleDEX_flattened.sol\":4326:4327  0 */\n      0x00\n        /* \"ETHKIPU/simpleDEX/simpleDEX_flattened.sol\":4313:4323  balanceofA */\n      sload(0x02)\n        /* \"ETHKIPU/simpleDEX/simpleDEX_flattened.sol\":4313:4327  balanceofA > 0 */\n      gt\n        /* \"ETHKIPU/simpleDEX/simpleDEX_flattened.sol\":4313:4345  balanceofA > 0 && balanceofB > 0 */\n      dup1\n      iszero\n      tag_126\n      jumpi\n      pop\n        /* \"ETHKIPU/simpleDEX/simpleDEX_flattened.sol\":4344:4345  0 */\n      0x00\n        /* \"ETHKIPU/simpleDEX/simpleDEX_flattened.sol\":4331:4341  balanceofB */\n      sload(0x03)\n        /* \"ETHKIPU/simpleDEX/simpleDEX_flattened.sol\":4331:4345  balanceofB > 0 */\n      gt\n        /* \"ETHKIPU/simpleDEX/simpleDEX_flattened.sol\":4313:4345  balanceofA > 0 && balanceofB > 0 */\n    tag_126:\n        /* \"ETHKIPU/simpleDEX/simpleDEX_flattened.sol\":4305:4370  require(balanceofA > 0 && balanceofB > 0, \"Not enough liquidity\") */\n      tag_127\n      jumpi\n      mload(0x40)\n      0x08c379a000000000000000000000000000000000000000000000000000000000\n      dup2\n      mstore\n      0x04\n      add\n      tag_128\n      swap1\n      tag_55\n      jump\t// in\n    tag_128:\n      mload(0x40)\n      dup1\n      swap2\n      sub\n      swap1\n      revert\n    tag_127:\n        /* \"ETHKIPU/simpleDEX/simpleDEX_flattened.sol\":7985:7995  balanceofA */\n      sload(0x02)\n        /* \"ETHKIPU/simpleDEX/simpleDEX_flattened.sol\":7974:7981  amountA */\n      dup3\n        /* \"ETHKIPU/simpleDEX/simpleDEX_flattened.sol\":7974:7995  amountA <= balanceofA */\n      gt\n      iszero\n        /* \"ETHKIPU/simpleDEX/simpleDEX_flattened.sol\":7974:8020  amountA <= balanceofA && amountB <= balanceofB */\n      dup1\n      iszero\n      tag_130\n      jumpi\n      pop\n        /* \"ETHKIPU/simpleDEX/simpleDEX_flattened.sol\":8010:8020  balanceofB */\n      sload(0x03)\n        /* \"ETHKIPU/simpleDEX/simpleDEX_flattened.sol\":7999:8006  amountB */\n      dup2\n        /* \"ETHKIPU/simpleDEX/simpleDEX_flattened.sol\":7999:8020  amountB <= balanceofB */\n      gt\n      iszero\n        /* \"ETHKIPU/simpleDEX/simpleDEX_flattened.sol\":7974:8020  amountA <= balanceofA && amountB <= balanceofB */\n    tag_130:\n        /* \"ETHKIPU/simpleDEX/simpleDEX_flattened.sol\":7966:8045  require(amountA <= balanceofA && amountB <= balanceofB, \"Not enough liquidity\") */\n      tag_131\n      jumpi\n      mload(0x40)\n      0x08c379a000000000000000000000000000000000000000000000000000000000\n      dup2\n      mstore\n      0x04\n      add\n      tag_132\n      swap1\n      tag_55\n      jump\t// in\n    tag_132:\n      mload(0x40)\n      dup1\n      swap2\n      sub\n      swap1\n      revert\n    tag_131:\n        /* \"ETHKIPU/simpleDEX/simpleDEX_flattened.sol\":8130:8137  amountA */\n      dup2\n        /* \"ETHKIPU/simpleDEX/simpleDEX_flattened.sol\":8116:8126  balanceofA */\n      0x02\n      0x00\n        /* \"ETHKIPU/simpleDEX/simpleDEX_flattened.sol\":8116:8137  balanceofA -= amountA */\n      dup3\n      dup3\n      sload\n      tag_133\n      swap2\n      swap1\n      tag_78\n      jump\t// in\n    tag_133:\n      swap3\n      pop\n      pop\n      dup2\n      swap1\n      sstore\n      pop\n        /* \"ETHKIPU/simpleDEX/simpleDEX_flattened.sol\":8202:8209  amountB */\n      dup1\n        /* \"ETHKIPU/simpleDEX/simpleDEX_flattened.sol\":8188:8198  balanceofB */\n      0x03\n      0x00\n        /* \"ETHKIPU/simpleDEX/simpleDEX_flattened.sol\":8188:8209  balanceofB -= amountB */\n      dup3\n      dup3\n      sload\n      tag_134\n      swap2\n      swap1\n      tag_78\n      jump\t// in\n    tag_134:\n      swap3\n      pop\n      pop\n      dup2\n      swap1\n      sstore\n      pop\n        /* \"ETHKIPU/simpleDEX/simpleDEX_flattened.sol\":8262:8268  tokenA */\n      0x00\n      dup1\n      sload\n      swap1\n      0x0100\n      exp\n      swap1\n      div\n      0xffffffffffffffffffffffffffffffffffffffff\n      and\n        /* \"ETHKIPU/simpleDEX/simpleDEX_flattened.sol\":8262:8277  tokenA.transfer */\n      0xffffffffffffffffffffffffffffffffffffffff\n      and\n      0xa9059cbb\n        /* \"ETHKIPU/simpleDEX/simpleDEX_flattened.sol\":8278:8288  msg.sender */\n      caller\n        /* \"ETHKIPU/simpleDEX/simpleDEX_flattened.sol\":8290:8297  amountA */\n      dup5\n        /* \"ETHKIPU/simpleDEX/simpleDEX_flattened.sol\":8262:8298  tokenA.transfer(msg.sender, amountA) */\n      mload(0x40)\n      dup4\n      0xffffffff\n      and\n      0xe0\n      shl\n      dup2\n      mstore\n      0x04\n      add\n      tag_135\n      swap3\n      swap2\n      swap1\n      tag_93\n      jump\t// in\n    tag_135:\n      0x20\n      mload(0x40)\n      dup1\n      dup4\n      sub\n      dup2\n      0x00\n      dup8\n      gas\n      call\n      iszero\n      dup1\n      iszero\n      tag_137\n      jumpi\n      returndatasize\n      0x00\n      dup1\n      returndatacopy\n      revert(0x00, returndatasize)\n    tag_137:\n      pop\n      pop\n      pop\n      pop\n      mload(0x40)\n      returndatasize\n      not(0x1f)\n      0x1f\n      dup3\n      add\n      and\n      dup3\n      add\n      dup1\n      0x40\n      mstore\n      pop\n      dup2\n      add\n      swap1\n      tag_138\n      swap2\n      swap1\n      tag_91\n      jump\t// in\n    tag_138:\n      pop\n        /* \"ETHKIPU/simpleDEX/simpleDEX_flattened.sol\":8352:8358  tokenB */\n      0x01\n      0x00\n      swap1\n      sload\n      swap1\n      0x0100\n      exp\n      swap1\n      div\n      0xffffffffffffffffffffffffffffffffffffffff\n      and\n        /* \"ETHKIPU/simpleDEX/simpleDEX_flattened.sol\":8352:8367  tokenB.transfer */\n      0xffffffffffffffffffffffffffffffffffffffff\n      and\n      0xa9059cbb\n        /* \"ETHKIPU/simpleDEX/simpleDEX_flattened.sol\":8368:8378  msg.sender */\n      caller\n        /* \"ETHKIPU/simpleDEX/simpleDEX_flattened.sol\":8380:8387  amountB */\n      dup4\n        /* \"ETHKIPU/simpleDEX/simpleDEX_flattened.sol\":8352:8388  tokenB.transfer(msg.sender, amountB) */\n      mload(0x40)\n      dup4\n      0xffffffff\n      and\n      0xe0\n      shl\n      dup2\n      mstore\n      0x04\n      add\n      tag_139\n      swap3\n      swap2\n      swap1\n      tag_93\n      jump\t// in\n    tag_139:\n      0x20\n      mload(0x40)\n      dup1\n      dup4\n      sub\n      dup2\n      0x00\n      dup8\n      gas\n      call\n      iszero\n      dup1\n      iszero\n      tag_141\n      jumpi\n      returndatasize\n      0x00\n      dup1\n      returndatacopy\n      revert(0x00, returndatasize)\n    tag_141:\n      pop\n      pop\n      pop\n      pop\n      mload(0x40)\n      returndatasize\n      not(0x1f)\n      0x1f\n      dup3\n      add\n      and\n      dup3\n      add\n      dup1\n      0x40\n      mstore\n      pop\n      dup2\n      add\n      swap1\n      tag_142\n      swap2\n      swap1\n      tag_91\n      jump\t// in\n    tag_142:\n      pop\n        /* \"ETHKIPU/simpleDEX/simpleDEX_flattened.sol\":8449:8483  LiquidityRemoved(amountA, amountB) */\n      0x6f0f96292ae0038c04f9b6bab30f185d9ca02c471d0983f563f2a4f674aef137\n        /* \"ETHKIPU/simpleDEX/simpleDEX_flattened.sol\":8466:8473  amountA */\n      dup3\n        /* \"ETHKIPU/simpleDEX/simpleDEX_flattened.sol\":8475:8482  amountB */\n      dup3\n        /* \"ETHKIPU/simpleDEX/simpleDEX_flattened.sol\":8449:8483  LiquidityRemoved(amountA, amountB) */\n      mload(0x40)\n      tag_143\n      swap3\n      swap2\n      swap1\n      tag_101\n      jump\t// in\n    tag_143:\n      mload(0x40)\n      dup1\n      swap2\n      sub\n      swap1\n      log1\n        /* \"ETHKIPU/simpleDEX/simpleDEX_flattened.sol\":7861:8531  function removeLiquidity(uint256 amountA, uint256 amountB) external onlyOwner EnoughLiquidity {... */\n      pop\n      pop\n      jump\t// out\n        /* \"ETHKIPU/simpleDEX/simpleDEX_flattened.sol\":5233:6505  function swapAforB(uint256 amountAIn) external EnoughLiquidity {... */\n    tag_50:\n        /* \"ETHKIPU/simpleDEX/simpleDEX_flattened.sol\":4326:4327  0 */\n      0x00\n        /* \"ETHKIPU/simpleDEX/simpleDEX_flattened.sol\":4313:4323  balanceofA */\n      sload(0x02)\n        /* \"ETHKIPU/simpleDEX/simpleDEX_flattened.sol\":4313:4327  balanceofA > 0 */\n      gt\n        /* \"ETHKIPU/simpleDEX/simpleDEX_flattened.sol\":4313:4345  balanceofA > 0 && balanceofB > 0 */\n      dup1\n      iszero\n      tag_145\n      jumpi\n      pop\n        /* \"ETHKIPU/simpleDEX/simpleDEX_flattened.sol\":4344:4345  0 */\n      0x00\n        /* \"ETHKIPU/simpleDEX/simpleDEX_flattened.sol\":4331:4341  balanceofB */\n      sload(0x03)\n        /* \"ETHKIPU/simpleDEX/simpleDEX_flattened.sol\":4331:4345  balanceofB > 0 */\n      gt\n        /* \"ETHKIPU/simpleDEX/simpleDEX_flattened.sol\":4313:4345  balanceofA > 0 && balanceofB > 0 */\n    tag_145:\n        /* \"ETHKIPU/simpleDEX/simpleDEX_flattened.sol\":4305:4370  require(balanceofA > 0 && balanceofB > 0, \"Not enough liquidity\") */\n      tag_146\n      jumpi\n      mload(0x40)\n      0x08c379a000000000000000000000000000000000000000000000000000000000\n      dup2\n      mstore\n      0x04\n      add\n      tag_147\n      swap1\n      tag_55\n      jump\t// in\n    tag_147:\n      mload(0x40)\n      dup1\n      swap2\n      sub\n      swap1\n      revert\n    tag_146:\n        /* \"ETHKIPU/simpleDEX/simpleDEX_flattened.sol\":5327:5328  0 */\n      0x00\n        /* \"ETHKIPU/simpleDEX/simpleDEX_flattened.sol\":5315:5324  amountAIn */\n      dup2\n        /* \"ETHKIPU/simpleDEX/simpleDEX_flattened.sol\":5315:5328  amountAIn > 0 */\n      gt\n        /* \"ETHKIPU/simpleDEX/simpleDEX_flattened.sol\":5307:5362  require(amountAIn > 0, \"Amount must be greater than 0\") */\n      tag_149\n      jumpi\n      mload(0x40)\n      0x08c379a000000000000000000000000000000000000000000000000000000000\n      dup2\n      mstore\n      0x04\n      add\n      tag_150\n      swap1\n      tag_76\n      jump\t// in\n    tag_150:\n      mload(0x40)\n      dup1\n      swap2\n      sub\n      swap1\n      revert\n    tag_149:\n        /* \"ETHKIPU/simpleDEX/simpleDEX_flattened.sol\":5585:5604  uint256 denominator */\n      0x00\n        /* \"ETHKIPU/simpleDEX/simpleDEX_flattened.sol\":5620:5629  amountAIn */\n      dup2\n        /* \"ETHKIPU/simpleDEX/simpleDEX_flattened.sol\":5607:5617  balanceofA */\n      sload(0x02)\n        /* \"ETHKIPU/simpleDEX/simpleDEX_flattened.sol\":5607:5629  balanceofA + amountAIn */\n      tag_151\n      swap2\n      swap1\n      tag_98\n      jump\t// in\n    tag_151:\n        /* \"ETHKIPU/simpleDEX/simpleDEX_flattened.sol\":5585:5629  uint256 denominator = balanceofA + amountAIn */\n      swap1\n      pop\n        /* \"ETHKIPU/simpleDEX/simpleDEX_flattened.sol\":5650:5666  uint256 fraction */\n      0x00\n        /* \"ETHKIPU/simpleDEX/simpleDEX_flattened.sol\":5697:5708  denominator */\n      dup2\n        /* \"ETHKIPU/simpleDEX/simpleDEX_flattened.sol\":5683:5693  balanceofB */\n      sload(0x03)\n        /* \"ETHKIPU/simpleDEX/simpleDEX_flattened.sol\":5670:5680  balanceofA */\n      sload(0x02)\n        /* \"ETHKIPU/simpleDEX/simpleDEX_flattened.sol\":5670:5693  balanceofA * balanceofB */\n      tag_152\n      swap2\n      swap1\n      tag_63\n      jump\t// in\n    tag_152:\n        /* \"ETHKIPU/simpleDEX/simpleDEX_flattened.sol\":5669:5708  (balanceofA * balanceofB) / denominator */\n      tag_153\n      swap2\n      swap1\n      tag_65\n      jump\t// in\n    tag_153:\n        /* \"ETHKIPU/simpleDEX/simpleDEX_flattened.sol\":5650:5708  uint256 fraction = (balanceofA * balanceofB) / denominator */\n      swap1\n      pop\n        /* \"ETHKIPU/simpleDEX/simpleDEX_flattened.sol\":5735:5753  uint256 amountBOut */\n      0x00\n        /* \"ETHKIPU/simpleDEX/simpleDEX_flattened.sol\":5769:5777  fraction */\n      dup2\n        /* \"ETHKIPU/simpleDEX/simpleDEX_flattened.sol\":5756:5766  balanceofB */\n      sload(0x03)\n        /* \"ETHKIPU/simpleDEX/simpleDEX_flattened.sol\":5756:5777  balanceofB - fraction */\n      tag_154\n      swap2\n      swap1\n      tag_78\n      jump\t// in\n    tag_154:\n        /* \"ETHKIPU/simpleDEX/simpleDEX_flattened.sol\":5735:5777  uint256 amountBOut = balanceofB - fraction */\n      swap1\n      pop\n        /* \"ETHKIPU/simpleDEX/simpleDEX_flattened.sol\":5842:5843  0 */\n      0x00\n        /* \"ETHKIPU/simpleDEX/simpleDEX_flattened.sol\":5829:5839  amountBOut */\n      dup2\n        /* \"ETHKIPU/simpleDEX/simpleDEX_flattened.sol\":5829:5843  amountBOut > 0 */\n      gt\n        /* \"ETHKIPU/simpleDEX/simpleDEX_flattened.sol\":5829:5871  amountBOut > 0 && amountBOut <= balanceofB */\n      dup1\n      iszero\n      tag_155\n      jumpi\n      pop\n        /* \"ETHKIPU/simpleDEX/simpleDEX_flattened.sol\":5861:5871  balanceofB */\n      sload(0x03)\n        /* \"ETHKIPU/simpleDEX/simpleDEX_flattened.sol\":5847:5857  amountBOut */\n      dup2\n        /* \"ETHKIPU/simpleDEX/simpleDEX_flattened.sol\":5847:5871  amountBOut <= balanceofB */\n      gt\n      iszero\n        /* \"ETHKIPU/simpleDEX/simpleDEX_flattened.sol\":5829:5871  amountBOut > 0 && amountBOut <= balanceofB */\n    tag_155:\n        /* \"ETHKIPU/simpleDEX/simpleDEX_flattened.sol\":5821:5897  require(amountBOut > 0 && amountBOut <= balanceofB, \"Invalid output amount\") */\n      tag_156\n      jumpi\n      mload(0x40)\n      0x08c379a000000000000000000000000000000000000000000000000000000000\n      dup2\n      mstore\n      0x04\n      add\n      tag_157\n      swap1\n      tag_85\n      jump\t// in\n    tag_157:\n      mload(0x40)\n      dup1\n      swap2\n      sub\n      swap1\n      revert\n    tag_156:\n        /* \"ETHKIPU/simpleDEX/simpleDEX_flattened.sol\":5997:6003  tokenA */\n      0x00\n      dup1\n      sload\n      swap1\n      0x0100\n      exp\n      swap1\n      div\n      0xffffffffffffffffffffffffffffffffffffffff\n      and\n        /* \"ETHKIPU/simpleDEX/simpleDEX_flattened.sol\":5997:6016  tokenA.transferFrom */\n      0xffffffffffffffffffffffffffffffffffffffff\n      and\n      0x23b872dd\n        /* \"ETHKIPU/simpleDEX/simpleDEX_flattened.sol\":6017:6027  msg.sender */\n      caller\n        /* \"ETHKIPU/simpleDEX/simpleDEX_flattened.sol\":6037:6041  this */\n      address\n        /* \"ETHKIPU/simpleDEX/simpleDEX_flattened.sol\":6044:6053  amountAIn */\n      dup8\n        /* \"ETHKIPU/simpleDEX/simpleDEX_flattened.sol\":5997:6054  tokenA.transferFrom(msg.sender, address(this), amountAIn) */\n      mload(0x40)\n      dup5\n      0xffffffff\n      and\n      0xe0\n      shl\n      dup2\n      mstore\n      0x04\n      add\n      tag_158\n      swap4\n      swap3\n      swap2\n      swap1\n      tag_87\n      jump\t// in\n    tag_158:\n      0x20\n      mload(0x40)\n      dup1\n      dup4\n      sub\n      dup2\n      0x00\n      dup8\n      gas\n      call\n      iszero\n      dup1\n      iszero\n      tag_160\n      jumpi\n      returndatasize\n      0x00\n      dup1\n      returndatacopy\n      revert(0x00, returndatasize)\n    tag_160:\n      pop\n      pop\n      pop\n      pop\n      mload(0x40)\n      returndatasize\n      not(0x1f)\n      0x1f\n      dup3\n      add\n      and\n      dup3\n      add\n      dup1\n      0x40\n      mstore\n      pop\n      dup2\n      add\n      swap1\n      tag_161\n      swap2\n      swap1\n      tag_91\n      jump\t// in\n    tag_161:\n      pop\n        /* \"ETHKIPU/simpleDEX/simpleDEX_flattened.sol\":6139:6145  tokenB */\n      0x01\n      0x00\n      swap1\n      sload\n      swap1\n      0x0100\n      exp\n      swap1\n      div\n      0xffffffffffffffffffffffffffffffffffffffff\n      and\n        /* \"ETHKIPU/simpleDEX/simpleDEX_flattened.sol\":6139:6154  tokenB.transfer */\n      0xffffffffffffffffffffffffffffffffffffffff\n      and\n      0xa9059cbb\n        /* \"ETHKIPU/simpleDEX/simpleDEX_flattened.sol\":6155:6165  msg.sender */\n      caller\n        /* \"ETHKIPU/simpleDEX/simpleDEX_flattened.sol\":6167:6177  amountBOut */\n      dup4\n        /* \"ETHKIPU/simpleDEX/simpleDEX_flattened.sol\":6139:6178  tokenB.transfer(msg.sender, amountBOut) */\n      mload(0x40)\n      dup4\n      0xffffffff\n      and\n      0xe0\n      shl\n      dup2\n      mstore\n      0x04\n      add\n      tag_162\n      swap3\n      swap2\n      swap1\n      tag_93\n      jump\t// in\n    tag_162:\n      0x20\n      mload(0x40)\n      dup1\n      dup4\n      sub\n      dup2\n      0x00\n      dup8\n      gas\n      call\n      iszero\n      dup1\n      iszero\n      tag_164\n      jumpi\n      returndatasize\n      0x00\n      dup1\n      returndatacopy\n      revert(0x00, returndatasize)\n    tag_164:\n      pop\n      pop\n      pop\n      pop\n      mload(0x40)\n      returndatasize\n      not(0x1f)\n      0x1f\n      dup3\n      add\n      and\n      dup3\n      add\n      dup1\n      0x40\n      mstore\n      pop\n      dup2\n      add\n      swap1\n      tag_165\n      swap2\n      swap1\n      tag_91\n      jump\t// in\n    tag_165:\n      pop\n        /* \"ETHKIPU/simpleDEX/simpleDEX_flattened.sol\":6258:6267  amountAIn */\n      dup4\n        /* \"ETHKIPU/simpleDEX/simpleDEX_flattened.sol\":6244:6254  balanceofA */\n      0x02\n      0x00\n        /* \"ETHKIPU/simpleDEX/simpleDEX_flattened.sol\":6244:6267  balanceofA += amountAIn */\n      dup3\n      dup3\n      sload\n      tag_166\n      swap2\n      swap1\n      tag_98\n      jump\t// in\n    tag_166:\n      swap3\n      pop\n      pop\n      dup2\n      swap1\n      sstore\n      pop\n        /* \"ETHKIPU/simpleDEX/simpleDEX_flattened.sol\":6332:6342  amountBOut */\n      dup1\n        /* \"ETHKIPU/simpleDEX/simpleDEX_flattened.sol\":6318:6328  balanceofB */\n      0x03\n      0x00\n        /* \"ETHKIPU/simpleDEX/simpleDEX_flattened.sol\":6318:6342  balanceofB -= amountBOut */\n      dup3\n      dup3\n      sload\n      tag_167\n      swap2\n      swap1\n      tag_78\n      jump\t// in\n    tag_167:\n      swap3\n      pop\n      pop\n      dup2\n      swap1\n      sstore\n      pop\n        /* \"ETHKIPU/simpleDEX/simpleDEX_flattened.sol\":6416:6426  msg.sender */\n      caller\n        /* \"ETHKIPU/simpleDEX/simpleDEX_flattened.sol\":6400:6450  TokensSwappedAB(msg.sender, amountAIn, amountBOut) */\n      0xffffffffffffffffffffffffffffffffffffffff\n      and\n      0xc2bf2a98e8d2db2c47884656b8fec299cb52d46679346297495fb3f8c21f233c\n        /* \"ETHKIPU/simpleDEX/simpleDEX_flattened.sol\":6428:6437  amountAIn */\n      dup6\n        /* \"ETHKIPU/simpleDEX/simpleDEX_flattened.sol\":6439:6449  amountBOut */\n      dup4\n        /* \"ETHKIPU/simpleDEX/simpleDEX_flattened.sol\":6400:6450  TokensSwappedAB(msg.sender, amountAIn, amountBOut) */\n      mload(0x40)\n      tag_168\n      swap3\n      swap2\n      swap1\n      tag_101\n      jump\t// in\n    tag_168:\n      mload(0x40)\n      dup1\n      swap2\n      sub\n      swap1\n      log2\n        /* \"ETHKIPU/simpleDEX/simpleDEX_flattened.sol\":5296:6505  {... */\n      pop\n      pop\n      pop\n        /* \"ETHKIPU/simpleDEX/simpleDEX_flattened.sol\":5233:6505  function swapAforB(uint256 amountAIn) external EnoughLiquidity {... */\n      pop\n      jump\t// out\n        /* \"#utility.yul\":7:133   */\n    tag_169:\n        /* \"#utility.yul\":44:51   */\n      0x00\n        /* \"#utility.yul\":84:126   */\n      0xffffffffffffffffffffffffffffffffffffffff\n        /* \"#utility.yul\":77:82   */\n      dup3\n        /* \"#utility.yul\":73:127   */\n      and\n        /* \"#utility.yul\":62:127   */\n      swap1\n      pop\n        /* \"#utility.yul\":7:133   */\n      swap2\n      swap1\n      pop\n      jump\t// out\n        /* \"#utility.yul\":139:199   */\n    tag_170:\n        /* \"#utility.yul\":167:170   */\n      0x00\n        /* \"#utility.yul\":188:193   */\n      dup2\n        /* \"#utility.yul\":181:193   */\n      swap1\n      pop\n        /* \"#utility.yul\":139:199   */\n      swap2\n      swap1\n      pop\n      jump\t// out\n        /* \"#utility.yul\":205:347   */\n    tag_171:\n        /* \"#utility.yul\":255:264   */\n      0x00\n        /* \"#utility.yul\":288:341   */\n      tag_208\n        /* \"#utility.yul\":306:340   */\n      tag_209\n        /* \"#utility.yul\":315:339   */\n      tag_210\n        /* \"#utility.yul\":333:338   */\n      dup5\n        /* \"#utility.yul\":315:339   */\n      tag_169\n      jump\t// in\n    tag_210:\n        /* \"#utility.yul\":306:340   */\n      tag_170\n      jump\t// in\n    tag_209:\n        /* \"#utility.yul\":288:341   */\n      tag_169\n      jump\t// in\n    tag_208:\n        /* \"#utility.yul\":275:341   */\n      swap1\n      pop\n        /* \"#utility.yul\":205:347   */\n      swap2\n      swap1\n      pop\n      jump\t// out\n        /* \"#utility.yul\":353:479   */\n    tag_172:\n        /* \"#utility.yul\":403:412   */\n      0x00\n        /* \"#utility.yul\":436:473   */\n      tag_212\n        /* \"#utility.yul\":467:472   */\n      dup3\n        /* \"#utility.yul\":436:473   */\n      tag_171\n      jump\t// in\n    tag_212:\n        /* \"#utility.yul\":423:473   */\n      swap1\n      pop\n        /* \"#utility.yul\":353:479   */\n      swap2\n      swap1\n      pop\n      jump\t// out\n        /* \"#utility.yul\":485:624   */\n    tag_173:\n        /* \"#utility.yul\":548:557   */\n      0x00\n        /* \"#utility.yul\":581:618   */\n      tag_214\n        /* \"#utility.yul\":612:617   */\n      dup3\n        /* \"#utility.yul\":581:618   */\n      tag_172\n      jump\t// in\n    tag_214:\n        /* \"#utility.yul\":568:618   */\n      swap1\n      pop\n        /* \"#utility.yul\":485:624   */\n      swap2\n      swap1\n      pop\n      jump\t// out\n        /* \"#utility.yul\":630:787   */\n    tag_174:\n        /* \"#utility.yul\":730:780   */\n      tag_216\n        /* \"#utility.yul\":774:779   */\n      dup2\n        /* \"#utility.yul\":730:780   */\n      tag_173\n      jump\t// in\n    tag_216:\n        /* \"#utility.yul\":725:728   */\n      dup3\n        /* \"#utility.yul\":718:781   */\n      mstore\n        /* \"#utility.yul\":630:787   */\n      pop\n      pop\n      jump\t// out\n        /* \"#utility.yul\":793:1041   */\n    tag_17:\n        /* \"#utility.yul\":899:903   */\n      0x00\n        /* \"#utility.yul\":937:939   */\n      0x20\n        /* \"#utility.yul\":926:935   */\n      dup3\n        /* \"#utility.yul\":922:940   */\n      add\n        /* \"#utility.yul\":914:940   */\n      swap1\n      pop\n        /* \"#utility.yul\":950:1034   */\n      tag_218\n        /* \"#utility.yul\":1031:1032   */\n      0x00\n        /* \"#utility.yul\":1020:1029   */\n      dup4\n        /* \"#utility.yul\":1016:1033   */\n      add\n        /* \"#utility.yul\":1007:1013   */\n      dup5\n        /* \"#utility.yul\":950:1034   */\n      tag_174\n      jump\t// in\n    tag_218:\n        /* \"#utility.yul\":793:1041   */\n      swap3\n      swap2\n      pop\n      pop\n      jump\t// out\n        /* \"#utility.yul\":1047:1124   */\n    tag_175:\n        /* \"#utility.yul\":1084:1091   */\n      0x00\n        /* \"#utility.yul\":1113:1118   */\n      dup2\n        /* \"#utility.yul\":1102:1118   */\n      swap1\n      pop\n        /* \"#utility.yul\":1047:1124   */\n      swap2\n      swap1\n      pop\n      jump\t// out\n        /* \"#utility.yul\":1130:1248   */\n    tag_176:\n        /* \"#utility.yul\":1217:1241   */\n      tag_221\n        /* \"#utility.yul\":1235:1240   */\n      dup2\n        /* \"#utility.yul\":1217:1241   */\n      tag_175\n      jump\t// in\n    tag_221:\n        /* \"#utility.yul\":1212:1215   */\n      dup3\n        /* \"#utility.yul\":1205:1242   */\n      mstore\n        /* \"#utility.yul\":1130:1248   */\n      pop\n      pop\n      jump\t// out\n        /* \"#utility.yul\":1254:1476   */\n    tag_21:\n        /* \"#utility.yul\":1347:1351   */\n      0x00\n        /* \"#utility.yul\":1385:1387   */\n      0x20\n        /* \"#utility.yul\":1374:1383   */\n      dup3\n        /* \"#utility.yul\":1370:1388   */\n      add\n        /* \"#utility.yul\":1362:1388   */\n      swap1\n      pop\n        /* \"#utility.yul\":1398:1469   */\n      tag_223\n        /* \"#utility.yul\":1466:1467   */\n      0x00\n        /* \"#utility.yul\":1455:1464   */\n      dup4\n        /* \"#utility.yul\":1451:1468   */\n      add\n        /* \"#utility.yul\":1442:1448   */\n      dup5\n        /* \"#utility.yul\":1398:1469   */\n      tag_176\n      jump\t// in\n    tag_223:\n        /* \"#utility.yul\":1254:1476   */\n      swap3\n      swap2\n      pop\n      pop\n      jump\t// out\n        /* \"#utility.yul\":1563:1680   */\n    tag_178:\n        /* \"#utility.yul\":1672:1673   */\n      0x00\n        /* \"#utility.yul\":1669:1670   */\n      dup1\n        /* \"#utility.yul\":1662:1674   */\n      revert\n        /* \"#utility.yul\":1809:1905   */\n    tag_180:\n        /* \"#utility.yul\":1846:1853   */\n      0x00\n        /* \"#utility.yul\":1875:1899   */\n      tag_228\n        /* \"#utility.yul\":1893:1898   */\n      dup3\n        /* \"#utility.yul\":1875:1899   */\n      tag_169\n      jump\t// in\n    tag_228:\n        /* \"#utility.yul\":1864:1899   */\n      swap1\n      pop\n        /* \"#utility.yul\":1809:1905   */\n      swap2\n      swap1\n      pop\n      jump\t// out\n        /* \"#utility.yul\":1911:2033   */\n    tag_181:\n        /* \"#utility.yul\":1984:2008   */\n      tag_230\n        /* \"#utility.yul\":2002:2007   */\n      dup2\n        /* \"#utility.yul\":1984:2008   */\n      tag_180\n      jump\t// in\n    tag_230:\n        /* \"#utility.yul\":1977:1982   */\n      dup2\n        /* \"#utility.yul\":1974:2009   */\n      eq\n        /* \"#utility.yul\":1964:2027   */\n      tag_231\n      jumpi\n        /* \"#utility.yul\":2023:2024   */\n      0x00\n        /* \"#utility.yul\":2020:2021   */\n      dup1\n        /* \"#utility.yul\":2013:2025   */\n      revert\n        /* \"#utility.yul\":1964:2027   */\n    tag_231:\n        /* \"#utility.yul\":1911:2033   */\n      pop\n      jump\t// out\n        /* \"#utility.yul\":2039:2178   */\n    tag_182:\n        /* \"#utility.yul\":2085:2090   */\n      0x00\n        /* \"#utility.yul\":2123:2129   */\n      dup2\n        /* \"#utility.yul\":2110:2130   */\n      calldataload\n        /* \"#utility.yul\":2101:2130   */\n      swap1\n      pop\n        /* \"#utility.yul\":2139:2172   */\n      tag_233\n        /* \"#utility.yul\":2166:2171   */\n      dup2\n        /* \"#utility.yul\":2139:2172   */\n      tag_181\n      jump\t// in\n    tag_233:\n        /* \"#utility.yul\":2039:2178   */\n      swap3\n      swap2\n      pop\n      pop\n      jump\t// out\n        /* \"#utility.yul\":2184:2513   */\n    tag_24:\n        /* \"#utility.yul\":2243:2249   */\n      0x00\n        /* \"#utility.yul\":2292:2294   */\n      0x20\n        /* \"#utility.yul\":2280:2289   */\n      dup3\n        /* \"#utility.yul\":2271:2278   */\n      dup5\n        /* \"#utility.yul\":2267:2290   */\n      sub\n        /* \"#utility.yul\":2263:2295   */\n      slt\n        /* \"#utility.yul\":2260:2379   */\n      iszero\n      tag_235\n      jumpi\n        /* \"#utility.yul\":2298:2377   */\n      tag_236\n      tag_178\n      jump\t// in\n    tag_236:\n        /* \"#utility.yul\":2260:2379   */\n    tag_235:\n        /* \"#utility.yul\":2418:2419   */\n      0x00\n        /* \"#utility.yul\":2443:2496   */\n      tag_237\n        /* \"#utility.yul\":2488:2495   */\n      dup5\n        /* \"#utility.yul\":2479:2485   */\n      dup3\n        /* \"#utility.yul\":2468:2477   */\n      dup6\n        /* \"#utility.yul\":2464:2486   */\n      add\n        /* \"#utility.yul\":2443:2496   */\n      tag_182\n      jump\t// in\n    tag_237:\n        /* \"#utility.yul\":2433:2496   */\n      swap2\n      pop\n        /* \"#utility.yul\":2389:2506   */\n      pop\n        /* \"#utility.yul\":2184:2513   */\n      swap3\n      swap2\n      pop\n      pop\n      jump\t// out\n        /* \"#utility.yul\":2519:2641   */\n    tag_183:\n        /* \"#utility.yul\":2592:2616   */\n      tag_239\n        /* \"#utility.yul\":2610:2615   */\n      dup2\n        /* \"#utility.yul\":2592:2616   */\n      tag_175\n      jump\t// in\n    tag_239:\n        /* \"#utility.yul\":2585:2590   */\n      dup2\n        /* \"#utility.yul\":2582:2617   */\n      eq\n        /* \"#utility.yul\":2572:2635   */\n      tag_240\n      jumpi\n        /* \"#utility.yul\":2631:2632   */\n      0x00\n        /* \"#utility.yul\":2628:2629   */\n      dup1\n        /* \"#utility.yul\":2621:2633   */\n      revert\n        /* \"#utility.yul\":2572:2635   */\n    tag_240:\n        /* \"#utility.yul\":2519:2641   */\n      pop\n      jump\t// out\n        /* \"#utility.yul\":2647:2786   */\n    tag_184:\n        /* \"#utility.yul\":2693:2698   */\n      0x00\n        /* \"#utility.yul\":2731:2737   */\n      dup2\n        /* \"#utility.yul\":2718:2738   */\n      calldataload\n        /* \"#utility.yul\":2709:2738   */\n      swap1\n      pop\n        /* \"#utility.yul\":2747:2780   */\n      tag_242\n        /* \"#utility.yul\":2774:2779   */\n      dup2\n        /* \"#utility.yul\":2747:2780   */\n      tag_183\n      jump\t// in\n    tag_242:\n        /* \"#utility.yul\":2647:2786   */\n      swap3\n      swap2\n      pop\n      pop\n      jump\t// out\n        /* \"#utility.yul\":2792:3121   */\n    tag_35:\n        /* \"#utility.yul\":2851:2857   */\n      0x00\n        /* \"#utility.yul\":2900:2902   */\n      0x20\n        /* \"#utility.yul\":2888:2897   */\n      dup3\n        /* \"#utility.yul\":2879:2886   */\n      dup5\n        /* \"#utility.yul\":2875:2898   */\n      sub\n        /* \"#utility.yul\":2871:2903   */\n      slt\n        /* \"#utility.yul\":2868:2987   */\n      iszero\n      tag_244\n      jumpi\n        /* \"#utility.yul\":2906:2985   */\n      tag_245\n      tag_178\n      jump\t// in\n    tag_245:\n        /* \"#utility.yul\":2868:2987   */\n    tag_244:\n        /* \"#utility.yul\":3026:3027   */\n      0x00\n        /* \"#utility.yul\":3051:3104   */\n      tag_246\n        /* \"#utility.yul\":3096:3103   */\n      dup5\n        /* \"#utility.yul\":3087:3093   */\n      dup3\n        /* \"#utility.yul\":3076:3085   */\n      dup6\n        /* \"#utility.yul\":3072:3094   */\n      add\n        /* \"#utility.yul\":3051:3104   */\n      tag_184\n      jump\t// in\n    tag_246:\n        /* \"#utility.yul\":3041:3104   */\n      swap2\n      pop\n        /* \"#utility.yul\":2997:3114   */\n      pop\n        /* \"#utility.yul\":2792:3121   */\n      swap3\n      swap2\n      pop\n      pop\n      jump\t// out\n        /* \"#utility.yul\":3127:3245   */\n    tag_185:\n        /* \"#utility.yul\":3214:3238   */\n      tag_248\n        /* \"#utility.yul\":3232:3237   */\n      dup2\n        /* \"#utility.yul\":3214:3238   */\n      tag_180\n      jump\t// in\n    tag_248:\n        /* \"#utility.yul\":3209:3212   */\n      dup3\n        /* \"#utility.yul\":3202:3239   */\n      mstore\n        /* \"#utility.yul\":3127:3245   */\n      pop\n      pop\n      jump\t// out\n        /* \"#utility.yul\":3251:3473   */\n    tag_40:\n        /* \"#utility.yul\":3344:3348   */\n      0x00\n        /* \"#utility.yul\":3382:3384   */\n      0x20\n        /* \"#utility.yul\":3371:3380   */\n      dup3\n        /* \"#utility.yul\":3367:3385   */\n      add\n        /* \"#utility.yul\":3359:3385   */\n      swap1\n      pop\n        /* \"#utility.yul\":3395:3466   */\n      tag_250\n        /* \"#utility.yul\":3463:3464   */\n      0x00\n        /* \"#utility.yul\":3452:3461   */\n      dup4\n        /* \"#utility.yul\":3448:3465   */\n      add\n        /* \"#utility.yul\":3439:3445   */\n      dup5\n        /* \"#utility.yul\":3395:3466   */\n      tag_185\n      jump\t// in\n    tag_250:\n        /* \"#utility.yul\":3251:3473   */\n      swap3\n      swap2\n      pop\n      pop\n      jump\t// out\n        /* \"#utility.yul\":3479:3953   */\n    tag_43:\n        /* \"#utility.yul\":3547:3553   */\n      0x00\n        /* \"#utility.yul\":3555:3561   */\n      dup1\n        /* \"#utility.yul\":3604:3606   */\n      0x40\n        /* \"#utility.yul\":3592:3601   */\n      dup4\n        /* \"#utility.yul\":3583:3590   */\n      dup6\n        /* \"#utility.yul\":3579:3602   */\n      sub\n        /* \"#utility.yul\":3575:3607   */\n      slt\n        /* \"#utility.yul\":3572:3691   */\n      iszero\n      tag_252\n      jumpi\n        /* \"#utility.yul\":3610:3689   */\n      tag_253\n      tag_178\n      jump\t// in\n    tag_253:\n        /* \"#utility.yul\":3572:3691   */\n    tag_252:\n        /* \"#utility.yul\":3730:3731   */\n      0x00\n        /* \"#utility.yul\":3755:3808   */\n      tag_254\n        /* \"#utility.yul\":3800:3807   */\n      dup6\n        /* \"#utility.yul\":3791:3797   */\n      dup3\n        /* \"#utility.yul\":3780:3789   */\n      dup7\n        /* \"#utility.yul\":3776:3798   */\n      add\n        /* \"#utility.yul\":3755:3808   */\n      tag_184\n      jump\t// in\n    tag_254:\n        /* \"#utility.yul\":3745:3808   */\n      swap3\n      pop\n        /* \"#utility.yul\":3701:3818   */\n      pop\n        /* \"#utility.yul\":3857:3859   */\n      0x20\n        /* \"#utility.yul\":3883:3936   */\n      tag_255\n        /* \"#utility.yul\":3928:3935   */\n      dup6\n        /* \"#utility.yul\":3919:3925   */\n      dup3\n        /* \"#utility.yul\":3908:3917   */\n      dup7\n        /* \"#utility.yul\":3904:3926   */\n      add\n        /* \"#utility.yul\":3883:3936   */\n      tag_184\n      jump\t// in\n    tag_255:\n        /* \"#utility.yul\":3873:3936   */\n      swap2\n      pop\n        /* \"#utility.yul\":3828:3946   */\n      pop\n        /* \"#utility.yul\":3479:3953   */\n      swap3\n      pop\n      swap3\n      swap1\n      pop\n      jump\t// out\n        /* \"#utility.yul\":3959:4128   */\n    tag_186:\n        /* \"#utility.yul\":4043:4054   */\n      0x00\n        /* \"#utility.yul\":4077:4083   */\n      dup3\n        /* \"#utility.yul\":4072:4075   */\n      dup3\n        /* \"#utility.yul\":4065:4084   */\n      mstore\n        /* \"#utility.yul\":4117:4121   */\n      0x20\n        /* \"#utility.yul\":4112:4115   */\n      dup3\n        /* \"#utility.yul\":4108:4122   */\n      add\n        /* \"#utility.yul\":4093:4122   */\n      swap1\n      pop\n        /* \"#utility.yul\":3959:4128   */\n      swap3\n      swap2\n      pop\n      pop\n      jump\t// out\n        /* \"#utility.yul\":4134:4304   */\n    tag_187:\n        /* \"#utility.yul\":4274:4296   */\n      0x4e6f7420656e6f756768206c6971756964697479000000000000000000000000\n        /* \"#utility.yul\":4270:4271   */\n      0x00\n        /* \"#utility.yul\":4262:4268   */\n      dup3\n        /* \"#utility.yul\":4258:4272   */\n      add\n        /* \"#utility.yul\":4251:4297   */\n      mstore\n        /* \"#utility.yul\":4134:4304   */\n      pop\n      jump\t// out\n        /* \"#utility.yul\":4310:4676   */\n    tag_188:\n        /* \"#utility.yul\":4452:4455   */\n      0x00\n        /* \"#utility.yul\":4473:4540   */\n      tag_259\n        /* \"#utility.yul\":4537:4539   */\n      0x14\n        /* \"#utility.yul\":4532:4535   */\n      dup4\n        /* \"#utility.yul\":4473:4540   */\n      tag_186\n      jump\t// in\n    tag_259:\n        /* \"#utility.yul\":4466:4540   */\n      swap2\n      pop\n        /* \"#utility.yul\":4549:4642   */\n      tag_260\n        /* \"#utility.yul\":4638:4641   */\n      dup3\n        /* \"#utility.yul\":4549:4642   */\n      tag_187\n      jump\t// in\n    tag_260:\n        /* \"#utility.yul\":4667:4669   */\n      0x20\n        /* \"#utility.yul\":4662:4665   */\n      dup3\n        /* \"#utility.yul\":4658:4670   */\n      add\n        /* \"#utility.yul\":4651:4670   */\n      swap1\n      pop\n        /* \"#utility.yul\":4310:4676   */\n      swap2\n      swap1\n      pop\n      jump\t// out\n        /* \"#utility.yul\":4682:5101   */\n    tag_55:\n        /* \"#utility.yul\":4848:4852   */\n      0x00\n        /* \"#utility.yul\":4886:4888   */\n      0x20\n        /* \"#utility.yul\":4875:4884   */\n      dup3\n        /* \"#utility.yul\":4871:4889   */\n      add\n        /* \"#utility.yul\":4863:4889   */\n      swap1\n      pop\n        /* \"#utility.yul\":4935:4944   */\n      dup2\n        /* \"#utility.yul\":4929:4933   */\n      dup2\n        /* \"#utility.yul\":4925:4945   */\n      sub\n        /* \"#utility.yul\":4921:4922   */\n      0x00\n        /* \"#utility.yul\":4910:4919   */\n      dup4\n        /* \"#utility.yul\":4906:4923   */\n      add\n        /* \"#utility.yul\":4899:4946   */\n      mstore\n        /* \"#utility.yul\":4963:5094   */\n      tag_262\n        /* \"#utility.yul\":5089:5093   */\n      dup2\n        /* \"#utility.yul\":4963:5094   */\n      tag_188\n      jump\t// in\n    tag_262:\n        /* \"#utility.yul\":4955:5094   */\n      swap1\n      pop\n        /* \"#utility.yul\":4682:5101   */\n      swap2\n      swap1\n      pop\n      jump\t// out\n        /* \"#utility.yul\":5107:5278   */\n    tag_189:\n        /* \"#utility.yul\":5247:5270   */\n      0x496e76616c696420746f6b656e20616464726573730000000000000000000000\n        /* \"#utility.yul\":5243:5244   */\n      0x00\n        /* \"#utility.yul\":5235:5241   */\n      dup3\n        /* \"#utility.yul\":5231:5245   */\n      add\n        /* \"#utility.yul\":5224:5271   */\n      mstore\n        /* \"#utility.yul\":5107:5278   */\n      pop\n      jump\t// out\n        /* \"#utility.yul\":5284:5650   */\n    tag_190:\n        /* \"#utility.yul\":5426:5429   */\n      0x00\n        /* \"#utility.yul\":5447:5514   */\n      tag_265\n        /* \"#utility.yul\":5511:5513   */\n      0x15\n        /* \"#utility.yul\":5506:5509   */\n      dup4\n        /* \"#utility.yul\":5447:5514   */\n      tag_186\n      jump\t// in\n    tag_265:\n        /* \"#utility.yul\":5440:5514   */\n      swap2\n      pop\n        /* \"#utility.yul\":5523:5616   */\n      tag_266\n        /* \"#utility.yul\":5612:5615   */\n      dup3\n        /* \"#utility.yul\":5523:5616   */\n      tag_189\n      jump\t// in\n    tag_266:\n        /* \"#utility.yul\":5641:5643   */\n      0x20\n        /* \"#utility.yul\":5636:5639   */\n      dup3\n        /* \"#utility.yul\":5632:5644   */\n      add\n        /* \"#utility.yul\":5625:5644   */\n      swap1\n      pop\n        /* \"#utility.yul\":5284:5650   */\n      swap2\n      swap1\n      pop\n      jump\t// out\n        /* \"#utility.yul\":5656:6075   */\n    tag_60:\n        /* \"#utility.yul\":5822:5826   */\n      0x00\n        /* \"#utility.yul\":5860:5862   */\n      0x20\n        /* \"#utility.yul\":5849:5858   */\n      dup3\n        /* \"#utility.yul\":5845:5863   */\n      add\n        /* \"#utility.yul\":5837:5863   */\n      swap1\n      pop\n        /* \"#utility.yul\":5909:5918   */\n      dup2\n        /* \"#utility.yul\":5903:5907   */\n      dup2\n        /* \"#utility.yul\":5899:5919   */\n      sub\n        /* \"#utility.yul\":5895:5896   */\n      0x00\n        /* \"#utility.yul\":5884:5893   */\n      dup4\n        /* \"#utility.yul\":5880:5897   */\n      add\n        /* \"#utility.yul\":5873:5920   */\n      mstore\n        /* \"#utility.yul\":5937:6068   */\n      tag_268\n        /* \"#utility.yul\":6063:6067   */\n      dup2\n        /* \"#utility.yul\":5937:6068   */\n      tag_190\n      jump\t// in\n    tag_268:\n        /* \"#utility.yul\":5929:6068   */\n      swap1\n      pop\n        /* \"#utility.yul\":5656:6075   */\n      swap2\n      swap1\n      pop\n      jump\t// out\n        /* \"#utility.yul\":6081:6261   */\n    tag_191:\n        /* \"#utility.yul\":6129:6206   */\n      0x4e487b7100000000000000000000000000000000000000000000000000000000\n        /* \"#utility.yul\":6126:6127   */\n      0x00\n        /* \"#utility.yul\":6119:6207   */\n      mstore\n        /* \"#utility.yul\":6226:6230   */\n      0x11\n        /* \"#utility.yul\":6223:6224   */\n      0x04\n        /* \"#utility.yul\":6216:6231   */\n      mstore\n        /* \"#utility.yul\":6250:6254   */\n      0x24\n        /* \"#utility.yul\":6247:6248   */\n      0x00\n        /* \"#utility.yul\":6240:6255   */\n      revert\n        /* \"#utility.yul\":6267:6677   */\n    tag_63:\n        /* \"#utility.yul\":6307:6314   */\n      0x00\n        /* \"#utility.yul\":6330:6350   */\n      tag_271\n        /* \"#utility.yul\":6348:6349   */\n      dup3\n        /* \"#utility.yul\":6330:6350   */\n      tag_175\n      jump\t// in\n    tag_271:\n        /* \"#utility.yul\":6325:6350   */\n      swap2\n      pop\n        /* \"#utility.yul\":6364:6384   */\n      tag_272\n        /* \"#utility.yul\":6382:6383   */\n      dup4\n        /* \"#utility.yul\":6364:6384   */\n      tag_175\n      jump\t// in\n    tag_272:\n        /* \"#utility.yul\":6359:6384   */\n      swap3\n      pop\n        /* \"#utility.yul\":6419:6420   */\n      dup3\n        /* \"#utility.yul\":6416:6417   */\n      dup3\n        /* \"#utility.yul\":6412:6421   */\n      mul\n        /* \"#utility.yul\":6441:6471   */\n      tag_273\n        /* \"#utility.yul\":6459:6470   */\n      dup2\n        /* \"#utility.yul\":6441:6471   */\n      tag_175\n      jump\t// in\n    tag_273:\n        /* \"#utility.yul\":6430:6471   */\n      swap2\n      pop\n        /* \"#utility.yul\":6620:6621   */\n      dup3\n        /* \"#utility.yul\":6611:6618   */\n      dup3\n        /* \"#utility.yul\":6607:6622   */\n      div\n        /* \"#utility.yul\":6604:6605   */\n      dup5\n        /* \"#utility.yul\":6601:6623   */\n      eq\n        /* \"#utility.yul\":6581:6582   */\n      dup4\n        /* \"#utility.yul\":6574:6583   */\n      iszero\n        /* \"#utility.yul\":6554:6637   */\n      or\n        /* \"#utility.yul\":6531:6670   */\n      tag_274\n      jumpi\n        /* \"#utility.yul\":6650:6668   */\n      tag_275\n      tag_191\n      jump\t// in\n    tag_275:\n        /* \"#utility.yul\":6531:6670   */\n    tag_274:\n        /* \"#utility.yul\":6315:6677   */\n      pop\n        /* \"#utility.yul\":6267:6677   */\n      swap3\n      swap2\n      pop\n      pop\n      jump\t// out\n        /* \"#utility.yul\":6683:6863   */\n    tag_192:\n        /* \"#utility.yul\":6731:6808   */\n      0x4e487b7100000000000000000000000000000000000000000000000000000000\n        /* \"#utility.yul\":6728:6729   */\n      0x00\n        /* \"#utility.yul\":6721:6809   */\n      mstore\n        /* \"#utility.yul\":6828:6832   */\n      0x12\n        /* \"#utility.yul\":6825:6826   */\n      0x04\n        /* \"#utility.yul\":6818:6833   */\n      mstore\n        /* \"#utility.yul\":6852:6856   */\n      0x24\n        /* \"#utility.yul\":6849:6850   */\n      0x00\n        /* \"#utility.yul\":6842:6857   */\n      revert\n        /* \"#utility.yul\":6869:7054   */\n    tag_65:\n        /* \"#utility.yul\":6909:6910   */\n      0x00\n        /* \"#utility.yul\":6926:6946   */\n      tag_278\n        /* \"#utility.yul\":6944:6945   */\n      dup3\n        /* \"#utility.yul\":6926:6946   */\n      tag_175\n      jump\t// in\n    tag_278:\n        /* \"#utility.yul\":6921:6946   */\n      swap2\n      pop\n        /* \"#utility.yul\":6960:6980   */\n      tag_279\n        /* \"#utility.yul\":6978:6979   */\n      dup4\n        /* \"#utility.yul\":6960:6980   */\n      tag_175\n      jump\t// in\n    tag_279:\n        /* \"#utility.yul\":6955:6980   */\n      swap3\n      pop\n        /* \"#utility.yul\":6999:7000   */\n      dup3\n        /* \"#utility.yul\":6989:7024   */\n      tag_280\n      jumpi\n        /* \"#utility.yul\":7004:7022   */\n      tag_281\n      tag_192\n      jump\t// in\n    tag_281:\n        /* \"#utility.yul\":6989:7024   */\n    tag_280:\n        /* \"#utility.yul\":7046:7047   */\n      dup3\n        /* \"#utility.yul\":7043:7044   */\n      dup3\n        /* \"#utility.yul\":7039:7048   */\n      div\n        /* \"#utility.yul\":7034:7048   */\n      swap1\n      pop\n        /* \"#utility.yul\":6869:7054   */\n      swap3\n      swap2\n      pop\n      pop\n      jump\t// out\n        /* \"#utility.yul\":7060:7239   */\n    tag_193:\n        /* \"#utility.yul\":7200:7231   */\n      0x416d6f756e74206d7573742062652067726561746572207468616e2030000000\n        /* \"#utility.yul\":7196:7197   */\n      0x00\n        /* \"#utility.yul\":7188:7194   */\n      dup3\n        /* \"#utility.yul\":7184:7198   */\n      add\n        /* \"#utility.yul\":7177:7232   */\n      mstore\n        /* \"#utility.yul\":7060:7239   */\n      pop\n      jump\t// out\n        /* \"#utility.yul\":7245:7611   */\n    tag_194:\n        /* \"#utility.yul\":7387:7390   */\n      0x00\n        /* \"#utility.yul\":7408:7475   */\n      tag_284\n        /* \"#utility.yul\":7472:7474   */\n      0x1d\n        /* \"#utility.yul\":7467:7470   */\n      dup4\n        /* \"#utility.yul\":7408:7475   */\n      tag_186\n      jump\t// in\n    tag_284:\n        /* \"#utility.yul\":7401:7475   */\n      swap2\n      pop\n        /* \"#utility.yul\":7484:7577   */\n      tag_285\n        /* \"#utility.yul\":7573:7576   */\n      dup3\n        /* \"#utility.yul\":7484:7577   */\n      tag_193\n      jump\t// in\n    tag_285:\n        /* \"#utility.yul\":7602:7604   */\n      0x20\n        /* \"#utility.yul\":7597:7600   */\n      dup3\n        /* \"#utility.yul\":7593:7605   */\n      add\n        /* \"#utility.yul\":7586:7605   */\n      swap1\n      pop\n        /* \"#utility.yul\":7245:7611   */\n      swap2\n      swap1\n      pop\n      jump\t// out\n        /* \"#utility.yul\":7617:8036   */\n    tag_76:\n        /* \"#utility.yul\":7783:7787   */\n      0x00\n        /* \"#utility.yul\":7821:7823   */\n      0x20\n        /* \"#utility.yul\":7810:7819   */\n      dup3\n        /* \"#utility.yul\":7806:7824   */\n      add\n        /* \"#utility.yul\":7798:7824   */\n      swap1\n      pop\n        /* \"#utility.yul\":7870:7879   */\n      dup2\n        /* \"#utility.yul\":7864:7868   */\n      dup2\n        /* \"#utility.yul\":7860:7880   */\n      sub\n        /* \"#utility.yul\":7856:7857   */\n      0x00\n        /* \"#utility.yul\":7845:7854   */\n      dup4\n        /* \"#utility.yul\":7841:7858   */\n      add\n        /* \"#utility.yul\":7834:7881   */\n      mstore\n        /* \"#utility.yul\":7898:8029   */\n      tag_287\n        /* \"#utility.yul\":8024:8028   */\n      dup2\n        /* \"#utility.yul\":7898:8029   */\n      tag_194\n      jump\t// in\n    tag_287:\n        /* \"#utility.yul\":7890:8029   */\n      swap1\n      pop\n        /* \"#utility.yul\":7617:8036   */\n      swap2\n      swap1\n      pop\n      jump\t// out\n        /* \"#utility.yul\":8042:8236   */\n    tag_78:\n        /* \"#utility.yul\":8082:8086   */\n      0x00\n        /* \"#utility.yul\":8102:8122   */\n      tag_289\n        /* \"#utility.yul\":8120:8121   */\n      dup3\n        /* \"#utility.yul\":8102:8122   */\n      tag_175\n      jump\t// in\n    tag_289:\n        /* \"#utility.yul\":8097:8122   */\n      swap2\n      pop\n        /* \"#utility.yul\":8136:8156   */\n      tag_290\n        /* \"#utility.yul\":8154:8155   */\n      dup4\n        /* \"#utility.yul\":8136:8156   */\n      tag_175\n      jump\t// in\n    tag_290:\n        /* \"#utility.yul\":8131:8156   */\n      swap3\n      pop\n        /* \"#utility.yul\":8180:8181   */\n      dup3\n        /* \"#utility.yul\":8177:8178   */\n      dup3\n        /* \"#utility.yul\":8173:8182   */\n      sub\n        /* \"#utility.yul\":8165:8182   */\n      swap1\n      pop\n        /* \"#utility.yul\":8204:8205   */\n      dup2\n        /* \"#utility.yul\":8198:8202   */\n      dup2\n        /* \"#utility.yul\":8195:8206   */\n      gt\n        /* \"#utility.yul\":8192:8229   */\n      iszero\n      tag_291\n      jumpi\n        /* \"#utility.yul\":8209:8227   */\n      tag_292\n      tag_191\n      jump\t// in\n    tag_292:\n        /* \"#utility.yul\":8192:8229   */\n    tag_291:\n        /* \"#utility.yul\":8042:8236   */\n      swap3\n      swap2\n      pop\n      pop\n      jump\t// out\n        /* \"#utility.yul\":8242:8413   */\n    tag_195:\n        /* \"#utility.yul\":8382:8405   */\n      0x496e76616c6964206f757470757420616d6f756e740000000000000000000000\n        /* \"#utility.yul\":8378:8379   */\n      0x00\n        /* \"#utility.yul\":8370:8376   */\n      dup3\n        /* \"#utility.yul\":8366:8380   */\n      add\n        /* \"#utility.yul\":8359:8406   */\n      mstore\n        /* \"#utility.yul\":8242:8413   */\n      pop\n      jump\t// out\n        /* \"#utility.yul\":8419:8785   */\n    tag_196:\n        /* \"#utility.yul\":8561:8564   */\n      0x00\n        /* \"#utility.yul\":8582:8649   */\n      tag_295\n        /* \"#utility.yul\":8646:8648   */\n      0x15\n        /* \"#utility.yul\":8641:8644   */\n      dup4\n        /* \"#utility.yul\":8582:8649   */\n      tag_186\n      jump\t// in\n    tag_295:\n        /* \"#utility.yul\":8575:8649   */\n      swap2\n      pop\n        /* \"#utility.yul\":8658:8751   */\n      tag_296\n        /* \"#utility.yul\":8747:8750   */\n      dup3\n        /* \"#utility.yul\":8658:8751   */\n      tag_195\n      jump\t// in\n    tag_296:\n        /* \"#utility.yul\":8776:8778   */\n      0x20\n        /* \"#utility.yul\":8771:8774   */\n      dup3\n        /* \"#utility.yul\":8767:8779   */\n      add\n        /* \"#utility.yul\":8760:8779   */\n      swap1\n      pop\n        /* \"#utility.yul\":8419:8785   */\n      swap2\n      swap1\n      pop\n      jump\t// out\n        /* \"#utility.yul\":8791:9210   */\n    tag_85:\n        /* \"#utility.yul\":8957:8961   */\n      0x00\n        /* \"#utility.yul\":8995:8997   */\n      0x20\n        /* \"#utility.yul\":8984:8993   */\n      dup3\n        /* \"#utility.yul\":8980:8998   */\n      add\n        /* \"#utility.yul\":8972:8998   */\n      swap1\n      pop\n        /* \"#utility.yul\":9044:9053   */\n      dup2\n        /* \"#utility.yul\":9038:9042   */\n      dup2\n        /* \"#utility.yul\":9034:9054   */\n      sub\n        /* \"#utility.yul\":9030:9031   */\n      0x00\n        /* \"#utility.yul\":9019:9028   */\n      dup4\n        /* \"#utility.yul\":9015:9032   */\n      add\n        /* \"#utility.yul\":9008:9055   */\n      mstore\n        /* \"#utility.yul\":9072:9203   */\n      tag_298\n        /* \"#utility.yul\":9198:9202   */\n      dup2\n        /* \"#utility.yul\":9072:9203   */\n      tag_196\n      jump\t// in\n    tag_298:\n        /* \"#utility.yul\":9064:9203   */\n      swap1\n      pop\n        /* \"#utility.yul\":8791:9210   */\n      swap2\n      swap1\n      pop\n      jump\t// out\n        /* \"#utility.yul\":9216:9658   */\n    tag_87:\n        /* \"#utility.yul\":9365:9369   */\n      0x00\n        /* \"#utility.yul\":9403:9405   */\n      0x60\n        /* \"#utility.yul\":9392:9401   */\n      dup3\n        /* \"#utility.yul\":9388:9406   */\n      add\n        /* \"#utility.yul\":9380:9406   */\n      swap1\n      pop\n        /* \"#utility.yul\":9416:9487   */\n      tag_300\n        /* \"#utility.yul\":9484:9485   */\n      0x00\n        /* \"#utility.yul\":9473:9482   */\n      dup4\n        /* \"#utility.yul\":9469:9486   */\n      add\n        /* \"#utility.yul\":9460:9466   */\n      dup7\n        /* \"#utility.yul\":9416:9487   */\n      tag_185\n      jump\t// in\n    tag_300:\n        /* \"#utility.yul\":9497:9569   */\n      tag_301\n        /* \"#utility.yul\":9565:9567   */\n      0x20\n        /* \"#utility.yul\":9554:9563   */\n      dup4\n        /* \"#utility.yul\":9550:9568   */\n      add\n        /* \"#utility.yul\":9541:9547   */\n      dup6\n        /* \"#utility.yul\":9497:9569   */\n      tag_185\n      jump\t// in\n    tag_301:\n        /* \"#utility.yul\":9579:9651   */\n      tag_302\n        /* \"#utility.yul\":9647:9649   */\n      0x40\n        /* \"#utility.yul\":9636:9645   */\n      dup4\n        /* \"#utility.yul\":9632:9650   */\n      add\n        /* \"#utility.yul\":9623:9629   */\n      dup5\n        /* \"#utility.yul\":9579:9651   */\n      tag_176\n      jump\t// in\n    tag_302:\n        /* \"#utility.yul\":9216:9658   */\n      swap5\n      swap4\n      pop\n      pop\n      pop\n      pop\n      jump\t// out\n        /* \"#utility.yul\":9664:9754   */\n    tag_197:\n        /* \"#utility.yul\":9698:9705   */\n      0x00\n        /* \"#utility.yul\":9741:9746   */\n      dup2\n        /* \"#utility.yul\":9734:9747   */\n      iszero\n        /* \"#utility.yul\":9727:9748   */\n      iszero\n        /* \"#utility.yul\":9716:9748   */\n      swap1\n      pop\n        /* \"#utility.yul\":9664:9754   */\n      swap2\n      swap1\n      pop\n      jump\t// out\n        /* \"#utility.yul\":9760:9876   */\n    tag_198:\n        /* \"#utility.yul\":9830:9851   */\n      tag_305\n        /* \"#utility.yul\":9845:9850   */\n      dup2\n        /* \"#utility.yul\":9830:9851   */\n      tag_197\n      jump\t// in\n    tag_305:\n        /* \"#utility.yul\":9823:9828   */\n      dup2\n        /* \"#utility.yul\":9820:9852   */\n      eq\n        /* \"#utility.yul\":9810:9870   */\n      tag_306\n      jumpi\n        /* \"#utility.yul\":9866:9867   */\n      0x00\n        /* \"#utility.yul\":9863:9864   */\n      dup1\n        /* \"#utility.yul\":9856:9868   */\n      revert\n        /* \"#utility.yul\":9810:9870   */\n    tag_306:\n        /* \"#utility.yul\":9760:9876   */\n      pop\n      jump\t// out\n        /* \"#utility.yul\":9882:10019   */\n    tag_199:\n        /* \"#utility.yul\":9936:9941   */\n      0x00\n        /* \"#utility.yul\":9967:9973   */\n      dup2\n        /* \"#utility.yul\":9961:9974   */\n      mload\n        /* \"#utility.yul\":9952:9974   */\n      swap1\n      pop\n        /* \"#utility.yul\":9983:10013   */\n      tag_308\n        /* \"#utility.yul\":10007:10012   */\n      dup2\n        /* \"#utility.yul\":9983:10013   */\n      tag_198\n      jump\t// in\n    tag_308:\n        /* \"#utility.yul\":9882:10019   */\n      swap3\n      swap2\n      pop\n      pop\n      jump\t// out\n        /* \"#utility.yul\":10025:10370   */\n    tag_91:\n        /* \"#utility.yul\":10092:10098   */\n      0x00\n        /* \"#utility.yul\":10141:10143   */\n      0x20\n        /* \"#utility.yul\":10129:10138   */\n      dup3\n        /* \"#utility.yul\":10120:10127   */\n      dup5\n        /* \"#utility.yul\":10116:10139   */\n      sub\n        /* \"#utility.yul\":10112:10144   */\n      slt\n        /* \"#utility.yul\":10109:10228   */\n      iszero\n      tag_310\n      jumpi\n        /* \"#utility.yul\":10147:10226   */\n      tag_311\n      tag_178\n      jump\t// in\n    tag_311:\n        /* \"#utility.yul\":10109:10228   */\n    tag_310:\n        /* \"#utility.yul\":10267:10268   */\n      0x00\n        /* \"#utility.yul\":10292:10353   */\n      tag_312\n        /* \"#utility.yul\":10345:10352   */\n      dup5\n        /* \"#utility.yul\":10336:10342   */\n      dup3\n        /* \"#utility.yul\":10325:10334   */\n      dup6\n        /* \"#utility.yul\":10321:10343   */\n      add\n        /* \"#utility.yul\":10292:10353   */\n      tag_199\n      jump\t// in\n    tag_312:\n        /* \"#utility.yul\":10282:10353   */\n      swap2\n      pop\n        /* \"#utility.yul\":10238:10363   */\n      pop\n        /* \"#utility.yul\":10025:10370   */\n      swap3\n      swap2\n      pop\n      pop\n      jump\t// out\n        /* \"#utility.yul\":10376:10708   */\n    tag_93:\n        /* \"#utility.yul\":10497:10501   */\n      0x00\n        /* \"#utility.yul\":10535:10537   */\n      0x40\n        /* \"#utility.yul\":10524:10533   */\n      dup3\n        /* \"#utility.yul\":10520:10538   */\n      add\n        /* \"#utility.yul\":10512:10538   */\n      swap1\n      pop\n        /* \"#utility.yul\":10548:10619   */\n      tag_314\n        /* \"#utility.yul\":10616:10617   */\n      0x00\n        /* \"#utility.yul\":10605:10614   */\n      dup4\n        /* \"#utility.yul\":10601:10618   */\n      add\n        /* \"#utility.yul\":10592:10598   */\n      dup6\n        /* \"#utility.yul\":10548:10619   */\n      tag_185\n      jump\t// in\n    tag_314:\n        /* \"#utility.yul\":10629:10701   */\n      tag_315\n        /* \"#utility.yul\":10697:10699   */\n      0x20\n        /* \"#utility.yul\":10686:10695   */\n      dup4\n        /* \"#utility.yul\":10682:10700   */\n      add\n        /* \"#utility.yul\":10673:10679   */\n      dup5\n        /* \"#utility.yul\":10629:10701   */\n      tag_176\n      jump\t// in\n    tag_315:\n        /* \"#utility.yul\":10376:10708   */\n      swap4\n      swap3\n      pop\n      pop\n      pop\n      jump\t// out\n        /* \"#utility.yul\":10714:10905   */\n    tag_98:\n        /* \"#utility.yul\":10754:10757   */\n      0x00\n        /* \"#utility.yul\":10773:10793   */\n      tag_317\n        /* \"#utility.yul\":10791:10792   */\n      dup3\n        /* \"#utility.yul\":10773:10793   */\n      tag_175\n      jump\t// in\n    tag_317:\n        /* \"#utility.yul\":10768:10793   */\n      swap2\n      pop\n        /* \"#utility.yul\":10807:10827   */\n      tag_318\n        /* \"#utility.yul\":10825:10826   */\n      dup4\n        /* \"#utility.yul\":10807:10827   */\n      tag_175\n      jump\t// in\n    tag_318:\n        /* \"#utility.yul\":10802:10827   */\n      swap3\n      pop\n        /* \"#utility.yul\":10850:10851   */\n      dup3\n        /* \"#utility.yul\":10847:10848   */\n      dup3\n        /* \"#utility.yul\":10843:10852   */\n      add\n        /* \"#utility.yul\":10836:10852   */\n      swap1\n      pop\n        /* \"#utility.yul\":10871:10874   */\n      dup1\n        /* \"#utility.yul\":10868:10869   */\n      dup3\n        /* \"#utility.yul\":10865:10875   */\n      gt\n        /* \"#utility.yul\":10862:10898   */\n      iszero\n      tag_319\n      jumpi\n        /* \"#utility.yul\":10878:10896   */\n      tag_320\n      tag_191\n      jump\t// in\n    tag_320:\n        /* \"#utility.yul\":10862:10898   */\n    tag_319:\n        /* \"#utility.yul\":10714:10905   */\n      swap3\n      swap2\n      pop\n      pop\n      jump\t// out\n        /* \"#utility.yul\":10911:11243   */\n    tag_101:\n        /* \"#utility.yul\":11032:11036   */\n      0x00\n        /* \"#utility.yul\":11070:11072   */\n      0x40\n        /* \"#utility.yul\":11059:11068   */\n      dup3\n        /* \"#utility.yul\":11055:11073   */\n      add\n        /* \"#utility.yul\":11047:11073   */\n      swap1\n      pop\n        /* \"#utility.yul\":11083:11154   */\n      tag_322\n        /* \"#utility.yul\":11151:11152   */\n      0x00\n        /* \"#utility.yul\":11140:11149   */\n      dup4\n        /* \"#utility.yul\":11136:11153   */\n      add\n        /* \"#utility.yul\":11127:11133   */\n      dup6\n        /* \"#utility.yul\":11083:11154   */\n      tag_176\n      jump\t// in\n    tag_322:\n        /* \"#utility.yul\":11164:11236   */\n      tag_323\n        /* \"#utility.yul\":11232:11234   */\n      0x20\n        /* \"#utility.yul\":11221:11230   */\n      dup4\n        /* \"#utility.yul\":11217:11235   */\n      add\n        /* \"#utility.yul\":11208:11214   */\n      dup5\n        /* \"#utility.yul\":11164:11236   */\n      tag_176\n      jump\t// in\n    tag_323:\n        /* \"#utility.yul\":10911:11243   */\n      swap4\n      swap3\n      pop\n      pop\n      pop\n      jump\t// out\n        /* \"#utility.yul\":11249:11412   */\n    tag_200:\n        /* \"#utility.yul\":11389:11404   */\n      0x4e6f7420746865206f776e657200000000000000000000000000000000000000\n        /* \"#utility.yul\":11385:11386   */\n      0x00\n        /* \"#utility.yul\":11377:11383   */\n      dup3\n        /* \"#utility.yul\":11373:11387   */\n      add\n        /* \"#utility.yul\":11366:11405   */\n      mstore\n        /* \"#utility.yul\":11249:11412   */\n      pop\n      jump\t// out\n        /* \"#utility.yul\":11418:11784   */\n    tag_201:\n        /* \"#utility.yul\":11560:11563   */\n      0x00\n        /* \"#utility.yul\":11581:11648   */\n      tag_326\n        /* \"#utility.yul\":11645:11647   */\n      0x0d\n        /* \"#utility.yul\":11640:11643   */\n      dup4\n        /* \"#utility.yul\":11581:11648   */\n      tag_186\n      jump\t// in\n    tag_326:\n        /* \"#utility.yul\":11574:11648   */\n      swap2\n      pop\n        /* \"#utility.yul\":11657:11750   */\n      tag_327\n        /* \"#utility.yul\":11746:11749   */\n      dup3\n        /* \"#utility.yul\":11657:11750   */\n      tag_200\n      jump\t// in\n    tag_327:\n        /* \"#utility.yul\":11775:11777   */\n      0x20\n        /* \"#utility.yul\":11770:11773   */\n      dup3\n        /* \"#utility.yul\":11766:11778   */\n      add\n        /* \"#utility.yul\":11759:11778   */\n      swap1\n      pop\n        /* \"#utility.yul\":11418:11784   */\n      swap2\n      swap1\n      pop\n      jump\t// out\n        /* \"#utility.yul\":11790:12209   */\n    tag_105:\n        /* \"#utility.yul\":11956:11960   */\n      0x00\n        /* \"#utility.yul\":11994:11996   */\n      0x20\n        /* \"#utility.yul\":11983:11992   */\n      dup3\n        /* \"#utility.yul\":11979:11997   */\n      add\n        /* \"#utility.yul\":11971:11997   */\n      swap1\n      pop\n        /* \"#utility.yul\":12043:12052   */\n      dup2\n        /* \"#utility.yul\":12037:12041   */\n      dup2\n        /* \"#utility.yul\":12033:12053   */\n      sub\n        /* \"#utility.yul\":12029:12030   */\n      0x00\n        /* \"#utility.yul\":12018:12027   */\n      dup4\n        /* \"#utility.yul\":12014:12031   */\n      add\n        /* \"#utility.yul\":12007:12054   */\n      mstore\n        /* \"#utility.yul\":12071:12202   */\n      tag_329\n        /* \"#utility.yul\":12197:12201   */\n      dup2\n        /* \"#utility.yul\":12071:12202   */\n      tag_201\n      jump\t// in\n    tag_329:\n        /* \"#utility.yul\":12063:12202   */\n      swap1\n      pop\n        /* \"#utility.yul\":11790:12209   */\n      swap2\n      swap1\n      pop\n      jump\t// out\n        /* \"#utility.yul\":12215:12395   */\n    tag_202:\n        /* \"#utility.yul\":12355:12387   */\n      0x416d6f756e7473206d7573742062652067726561746572207468616e20300000\n        /* \"#utility.yul\":12351:12352   */\n      0x00\n        /* \"#utility.yul\":12343:12349   */\n      dup3\n        /* \"#utility.yul\":12339:12353   */\n      add\n        /* \"#utility.yul\":12332:12388   */\n      mstore\n        /* \"#utility.yul\":12215:12395   */\n      pop\n      jump\t// out\n        /* \"#utility.yul\":12401:12767   */\n    tag_203:\n        /* \"#utility.yul\":12543:12546   */\n      0x00\n        /* \"#utility.yul\":12564:12631   */\n      tag_332\n        /* \"#utility.yul\":12628:12630   */\n      0x1e\n        /* \"#utility.yul\":12623:12626   */\n      dup4\n        /* \"#utility.yul\":12564:12631   */\n      tag_186\n      jump\t// in\n    tag_332:\n        /* \"#utility.yul\":12557:12631   */\n      swap2\n      pop\n        /* \"#utility.yul\":12640:12733   */\n      tag_333\n        /* \"#utility.yul\":12729:12732   */\n      dup3\n        /* \"#utility.yul\":12640:12733   */\n      tag_202\n      jump\t// in\n    tag_333:\n        /* \"#utility.yul\":12758:12760   */\n      0x20\n        /* \"#utility.yul\":12753:12756   */\n      dup3\n        /* \"#utility.yul\":12749:12761   */\n      add\n        /* \"#utility.yul\":12742:12761   */\n      swap1\n      pop\n        /* \"#utility.yul\":12401:12767   */\n      swap2\n      swap1\n      pop\n      jump\t// out\n        /* \"#utility.yul\":12773:13192   */\n    tag_110:\n        /* \"#utility.yul\":12939:12943   */\n      0x00\n        /* \"#utility.yul\":12977:12979   */\n      0x20\n        /* \"#utility.yul\":12966:12975   */\n      dup3\n        /* \"#utility.yul\":12962:12980   */\n      add\n        /* \"#utility.yul\":12954:12980   */\n      swap1\n      pop\n        /* \"#utility.yul\":13026:13035   */\n      dup2\n        /* \"#utility.yul\":13020:13024   */\n      dup2\n        /* \"#utility.yul\":13016:13036   */\n      sub\n        /* \"#utility.yul\":13012:13013   */\n      0x00\n        /* \"#utility.yul\":13001:13010   */\n      dup4\n        /* \"#utility.yul\":12997:13014   */\n      add\n        /* \"#utility.yul\":12990:13037   */\n      mstore\n        /* \"#utility.yul\":13054:13185   */\n      tag_335\n        /* \"#utility.yul\":13180:13184   */\n      dup2\n        /* \"#utility.yul\":13054:13185   */\n      tag_203\n      jump\t// in\n    tag_335:\n        /* \"#utility.yul\":13046:13185   */\n      swap1\n      pop\n        /* \"#utility.yul\":12773:13192   */\n      swap2\n      swap1\n      pop\n      jump\t// out\n\n    auxdata: 0xa264697066735822122086a4bea689a7d4cada576c33867eedd7f00b350549d030c919dce3b49fcb99bf64736f6c634300081a0033\n}\n",
				"bytecode": {
					"linkReferences": {},
					"object": "608060405234801561000f575f80fd5b506040516117a23803806117a283398181016040528101906100319190610155565b815f806101000a81548173ffffffffffffffffffffffffffffffffffffffff021916908373ffffffffffffffffffffffffffffffffffffffff1602179055508060015f6101000a81548173ffffffffffffffffffffffffffffffffffffffff021916908373ffffffffffffffffffffffffffffffffffffffff1602179055503360045f6101000a81548173ffffffffffffffffffffffffffffffffffffffff021916908373ffffffffffffffffffffffffffffffffffffffff1602179055505050610193565b5f80fd5b5f73ffffffffffffffffffffffffffffffffffffffff82169050919050565b5f610124826100fb565b9050919050565b6101348161011a565b811461013e575f80fd5b50565b5f8151905061014f8161012b565b92915050565b5f806040838503121561016b5761016a6100f7565b5b5f61017885828601610141565b925050602061018985828601610141565b9150509250929050565b611602806101a05f395ff3fe608060405234801561000f575f80fd5b506004361061009c575f3560e01c80638014a7aa116100645780638014a7aa146101485780638da5cb5b146101645780639cd441da146101825780639d7de6b31461019e578063e4f1f70a146101ba5761009c565b80630fc63d10146100a057806321ecb58b146100be57806341976e09146100dc5780635f64b55b1461010c5780636009c4a01461012a575b5f80fd5b6100a86101d6565b6040516100b59190610fc9565b60405180910390f35b6100c66101f9565b6040516100d39190610ffa565b60405180910390f35b6100f660048036038101906100f19190611052565b6101ff565b6040516101039190610ffa565b60405180910390f35b6101146103dc565b6040516101219190610fc9565b60405180910390f35b610132610401565b60405161013f9190610ffa565b60405180910390f35b610162600480360381019061015d91906110a7565b610407565b005b61016c6106ea565b60405161017991906110e1565b60405180910390f35b61019c600480360381019061019791906110fa565b61070f565b005b6101b860048036038101906101b391906110fa565b610994565b005b6101d460048036038101906101cf91906110a7565b610c6c565b005b5f8054906101000a900473ffffffffffffffffffffffffffffffffffffffff1681565b60025481565b5f8060025411801561021257505f600354115b610251576040517f08c379a000000000000000000000000000000000000000000000000000000000815260040161024890611192565b60405180910390fd5b5f8054906101000a900473ffffffffffffffffffffffffffffffffffffffff1673ffffffffffffffffffffffffffffffffffffffff168273ffffffffffffffffffffffffffffffffffffffff1614806102f6575060015f9054906101000a900473ffffffffffffffffffffffffffffffffffffffff1673ffffffffffffffffffffffffffffffffffffffff168273ffffffffffffffffffffffffffffffffffffffff16145b610335576040517f08c379a000000000000000000000000000000000000000000000000000000000815260040161032c906111fa565b60405180910390fd5b5f8054906101000a900473ffffffffffffffffffffffffffffffffffffffff1673ffffffffffffffffffffffffffffffffffffffff168273ffffffffffffffffffffffffffffffffffffffff16036103b157600254670de0b6b3a76400006003546103a09190611245565b6103aa91906112b3565b90506103d7565b600354670de0b6b3a76400006002546103ca9190611245565b6103d491906112b3565b90505b919050565b60015f9054906101000a900473ffffffffffffffffffffffffffffffffffffffff1681565b60035481565b5f60025411801561041957505f600354115b610458576040517f08c379a000000000000000000000000000000000000000000000000000000000815260040161044f90611192565b60405180910390fd5b5f811161049a576040517f08c379a00000000000000000000000000000000000000000000000000000000081526004016104919061132d565b60405180910390fd5b5f816003546104a9919061134b565b90505f816003546002546104bd9190611245565b6104c791906112b3565b90505f600254826104d8919061134b565b90505f811180156104eb57506002548111155b61052a576040517f08c379a0000000000000000000000000000000000000000000000000000000008152600401610521906113c8565b60405180910390fd5b60015f9054906101000a900473ffffffffffffffffffffffffffffffffffffffff1673ffffffffffffffffffffffffffffffffffffffff166323b872dd3330876040518463ffffffff1660e01b8152600401610588939291906113e6565b6020604051808303815f875af11580156105a4573d5f803e3d5ffd5b505050506040513d601f19601f820116820180604052508101906105c89190611450565b505f8054906101000a900473ffffffffffffffffffffffffffffffffffffffff1673ffffffffffffffffffffffffffffffffffffffff1663a9059cbb33836040518363ffffffff1660e01b815260040161062392919061147b565b6020604051808303815f875af115801561063f573d5f803e3d5ffd5b505050506040513d601f19601f820116820180604052508101906106639190611450565b508360035f82825461067591906114a2565b925050819055508060025f82825461068d919061134b565b925050819055503373ffffffffffffffffffffffffffffffffffffffff167fbb8ca5a7eaee5dfdf64c229b7ceb6cb3ec5b257008af3f94d86ef0771058f35385836040516106dc9291906114d5565b60405180910390a250505050565b60045f9054906101000a900473ffffffffffffffffffffffffffffffffffffffff1681565b60045f9054906101000a900473ffffffffffffffffffffffffffffffffffffffff1673ffffffffffffffffffffffffffffffffffffffff163373ffffffffffffffffffffffffffffffffffffffff161461079e576040517f08c379a000000000000000000000000000000000000000000000000000000000815260040161079590611546565b60405180910390fd5b5f821180156107ac57505f81115b6107eb576040517f08c379a00000000000000000000000000000000000000000000000000000000081526004016107e2906115ae565b60405180910390fd5b5f8054906101000a900473ffffffffffffffffffffffffffffffffffffffff1673ffffffffffffffffffffffffffffffffffffffff166323b872dd3330856040518463ffffffff1660e01b8152600401610847939291906113e6565b6020604051808303815f875af1158015610863573d5f803e3d5ffd5b505050506040513d601f19601f820116820180604052508101906108879190611450565b5060015f9054906101000a900473ffffffffffffffffffffffffffffffffffffffff1673ffffffffffffffffffffffffffffffffffffffff166323b872dd3330846040518463ffffffff1660e01b81526004016108e6939291906113e6565b6020604051808303815f875af1158015610902573d5f803e3d5ffd5b505050506040513d601f19601f820116820180604052508101906109269190611450565b508160025f82825461093891906114a2565b925050819055508060035f82825461095091906114a2565b925050819055507f38f8a0c92f4c5b0b6877f878cb4c0c8d348a47b76d716c8e78f425043df9515b82826040516109889291906114d5565b60405180910390a15050565b60045f9054906101000a900473ffffffffffffffffffffffffffffffffffffffff1673ffffffffffffffffffffffffffffffffffffffff163373ffffffffffffffffffffffffffffffffffffffff1614610a23576040517f08c379a0000000000000000000000000000000000000000000000000000000008152600401610a1a90611546565b60405180910390fd5b5f600254118015610a3557505f600354115b610a74576040517f08c379a0000000000000000000000000000000000000000000000000000000008152600401610a6b90611192565b60405180910390fd5b6002548211158015610a8857506003548111155b610ac7576040517f08c379a0000000000000000000000000000000000000000000000000000000008152600401610abe90611192565b60405180910390fd5b8160025f828254610ad8919061134b565b925050819055508060035f828254610af0919061134b565b925050819055505f8054906101000a900473ffffffffffffffffffffffffffffffffffffffff1673ffffffffffffffffffffffffffffffffffffffff1663a9059cbb33846040518363ffffffff1660e01b8152600401610b5192919061147b565b6020604051808303815f875af1158015610b6d573d5f803e3d5ffd5b505050506040513d601f19601f82011682018060405250810190610b919190611450565b5060015f9054906101000a900473ffffffffffffffffffffffffffffffffffffffff1673ffffffffffffffffffffffffffffffffffffffff1663a9059cbb33836040518363ffffffff1660e01b8152600401610bee92919061147b565b6020604051808303815f875af1158015610c0a573d5f803e3d5ffd5b505050506040513d601f19601f82011682018060405250810190610c2e9190611450565b507f6f0f96292ae0038c04f9b6bab30f185d9ca02c471d0983f563f2a4f674aef1378282604051610c609291906114d5565b60405180910390a15050565b5f600254118015610c7e57505f600354115b610cbd576040517f08c379a0000000000000000000000000000000000000000000000000000000008152600401610cb490611192565b60405180910390fd5b5f8111610cff576040517f08c379a0000000000000000000000000000000000000000000000000000000008152600401610cf69061132d565b60405180910390fd5b5f81600254610d0e91906114a2565b90505f81600354600254610d229190611245565b610d2c91906112b3565b90505f81600354610d3d919061134b565b90505f81118015610d5057506003548111155b610d8f576040517f08c379a0000000000000000000000000000000000000000000000000000000008152600401610d86906113c8565b60405180910390fd5b5f8054906101000a900473ffffffffffffffffffffffffffffffffffffffff1673ffffffffffffffffffffffffffffffffffffffff166323b872dd3330876040518463ffffffff1660e01b8152600401610deb939291906113e6565b6020604051808303815f875af1158015610e07573d5f803e3d5ffd5b505050506040513d601f19601f82011682018060405250810190610e2b9190611450565b5060015f9054906101000a900473ffffffffffffffffffffffffffffffffffffffff1673ffffffffffffffffffffffffffffffffffffffff1663a9059cbb33836040518363ffffffff1660e01b8152600401610e8892919061147b565b6020604051808303815f875af1158015610ea4573d5f803e3d5ffd5b505050506040513d601f19601f82011682018060405250810190610ec89190611450565b508360025f828254610eda91906114a2565b925050819055508060035f828254610ef2919061134b565b925050819055503373ffffffffffffffffffffffffffffffffffffffff167fc2bf2a98e8d2db2c47884656b8fec299cb52d46679346297495fb3f8c21f233c8583604051610f419291906114d5565b60405180910390a250505050565b5f73ffffffffffffffffffffffffffffffffffffffff82169050919050565b5f819050919050565b5f610f91610f8c610f8784610f4f565b610f6e565b610f4f565b9050919050565b5f610fa282610f77565b9050919050565b5f610fb382610f98565b9050919050565b610fc381610fa9565b82525050565b5f602082019050610fdc5f830184610fba565b92915050565b5f819050919050565b610ff481610fe2565b82525050565b5f60208201905061100d5f830184610feb565b92915050565b5f80fd5b5f61102182610f4f565b9050919050565b61103181611017565b811461103b575f80fd5b50565b5f8135905061104c81611028565b92915050565b5f6020828403121561106757611066611013565b5b5f6110748482850161103e565b91505092915050565b61108681610fe2565b8114611090575f80fd5b50565b5f813590506110a18161107d565b92915050565b5f602082840312156110bc576110bb611013565b5b5f6110c984828501611093565b91505092915050565b6110db81611017565b82525050565b5f6020820190506110f45f8301846110d2565b92915050565b5f80604083850312156111105761110f611013565b5b5f61111d85828601611093565b925050602061112e85828601611093565b9150509250929050565b5f82825260208201905092915050565b7f4e6f7420656e6f756768206c69717569646974790000000000000000000000005f82015250565b5f61117c601483611138565b915061118782611148565b602082019050919050565b5f6020820190508181035f8301526111a981611170565b9050919050565b7f496e76616c696420746f6b656e206164647265737300000000000000000000005f82015250565b5f6111e4601583611138565b91506111ef826111b0565b602082019050919050565b5f6020820190508181035f830152611211816111d8565b9050919050565b7f4e487b71000000000000000000000000000000000000000000000000000000005f52601160045260245ffd5b5f61124f82610fe2565b915061125a83610fe2565b925082820261126881610fe2565b9150828204841483151761127f5761127e611218565b5b5092915050565b7f4e487b71000000000000000000000000000000000000000000000000000000005f52601260045260245ffd5b5f6112bd82610fe2565b91506112c883610fe2565b9250826112d8576112d7611286565b5b828204905092915050565b7f416d6f756e74206d7573742062652067726561746572207468616e20300000005f82015250565b5f611317601d83611138565b9150611322826112e3565b602082019050919050565b5f6020820190508181035f8301526113448161130b565b9050919050565b5f61135582610fe2565b915061136083610fe2565b925082820390508181111561137857611377611218565b5b92915050565b7f496e76616c6964206f757470757420616d6f756e7400000000000000000000005f82015250565b5f6113b2601583611138565b91506113bd8261137e565b602082019050919050565b5f6020820190508181035f8301526113df816113a6565b9050919050565b5f6060820190506113f95f8301866110d2565b61140660208301856110d2565b6114136040830184610feb565b949350505050565b5f8115159050919050565b61142f8161141b565b8114611439575f80fd5b50565b5f8151905061144a81611426565b92915050565b5f6020828403121561146557611464611013565b5b5f6114728482850161143c565b91505092915050565b5f60408201905061148e5f8301856110d2565b61149b6020830184610feb565b9392505050565b5f6114ac82610fe2565b91506114b783610fe2565b92508282019050808211156114cf576114ce611218565b5b92915050565b5f6040820190506114e85f830185610feb565b6114f56020830184610feb565b9392505050565b7f4e6f7420746865206f776e6572000000000000000000000000000000000000005f82015250565b5f611530600d83611138565b915061153b826114fc565b602082019050919050565b5f6020820190508181035f83015261155d81611524565b9050919050565b7f416d6f756e7473206d7573742062652067726561746572207468616e203000005f82015250565b5f611598601e83611138565b91506115a382611564565b602082019050919050565b5f6020820190508181035f8301526115c58161158c565b905091905056fea264697066735822122086a4bea689a7d4cada576c33867eedd7f00b350549d030c919dce3b49fcb99bf64736f6c634300081a0033",
					"opcodes": "PUSH1 0x80 PUSH1 0x40 MSTORE CALLVALUE DUP1 ISZERO PUSH2 0xF JUMPI PUSH0 DUP1 REVERT JUMPDEST POP PUSH1 0x40 MLOAD PUSH2 0x17A2 CODESIZE SUB DUP1 PUSH2 0x17A2 DUP4 CODECOPY DUP2 DUP2 ADD PUSH1 0x40 MSTORE DUP2 ADD SWAP1 PUSH2 0x31 SWAP2 SWAP1 PUSH2 0x155 JUMP JUMPDEST DUP2 PUSH0 DUP1 PUSH2 0x100 EXP DUP2 SLOAD DUP2 PUSH20 0xFFFFFFFFFFFFFFFFFFFFFFFFFFFFFFFFFFFFFFFF MUL NOT AND SWAP1 DUP4 PUSH20 0xFFFFFFFFFFFFFFFFFFFFFFFFFFFFFFFFFFFFFFFF AND MUL OR SWAP1 SSTORE POP DUP1 PUSH1 0x1 PUSH0 PUSH2 0x100 EXP DUP2 SLOAD DUP2 PUSH20 0xFFFFFFFFFFFFFFFFFFFFFFFFFFFFFFFFFFFFFFFF MUL NOT AND SWAP1 DUP4 PUSH20 0xFFFFFFFFFFFFFFFFFFFFFFFFFFFFFFFFFFFFFFFF AND MUL OR SWAP1 SSTORE POP CALLER PUSH1 0x4 PUSH0 PUSH2 0x100 EXP DUP2 SLOAD DUP2 PUSH20 0xFFFFFFFFFFFFFFFFFFFFFFFFFFFFFFFFFFFFFFFF MUL NOT AND SWAP1 DUP4 PUSH20 0xFFFFFFFFFFFFFFFFFFFFFFFFFFFFFFFFFFFFFFFF AND MUL OR SWAP1 SSTORE POP POP POP PUSH2 0x193 JUMP JUMPDEST PUSH0 DUP1 REVERT JUMPDEST PUSH0 PUSH20 0xFFFFFFFFFFFFFFFFFFFFFFFFFFFFFFFFFFFFFFFF DUP3 AND SWAP1 POP SWAP2 SWAP1 POP JUMP JUMPDEST PUSH0 PUSH2 0x124 DUP3 PUSH2 0xFB JUMP JUMPDEST SWAP1 POP SWAP2 SWAP1 POP JUMP JUMPDEST PUSH2 0x134 DUP2 PUSH2 0x11A JUMP JUMPDEST DUP2 EQ PUSH2 0x13E JUMPI PUSH0 DUP1 REVERT JUMPDEST POP JUMP JUMPDEST PUSH0 DUP2 MLOAD SWAP1 POP PUSH2 0x14F DUP2 PUSH2 0x12B JUMP JUMPDEST SWAP3 SWAP2 POP POP JUMP JUMPDEST PUSH0 DUP1 PUSH1 0x40 DUP4 DUP6 SUB SLT ISZERO PUSH2 0x16B JUMPI PUSH2 0x16A PUSH2 0xF7 JUMP JUMPDEST JUMPDEST PUSH0 PUSH2 0x178 DUP6 DUP3 DUP7 ADD PUSH2 0x141 JUMP JUMPDEST SWAP3 POP POP PUSH1 0x20 PUSH2 0x189 DUP6 DUP3 DUP7 ADD PUSH2 0x141 JUMP JUMPDEST SWAP2 POP POP SWAP3 POP SWAP3 SWAP1 POP JUMP JUMPDEST PUSH2 0x1602 DUP1 PUSH2 0x1A0 PUSH0 CODECOPY PUSH0 RETURN INVALID PUSH1 0x80 PUSH1 0x40 MSTORE CALLVALUE DUP1 ISZERO PUSH2 0xF JUMPI PUSH0 DUP1 REVERT JUMPDEST POP PUSH1 0x4 CALLDATASIZE LT PUSH2 0x9C JUMPI PUSH0 CALLDATALOAD PUSH1 0xE0 SHR DUP1 PUSH4 0x8014A7AA GT PUSH2 0x64 JUMPI DUP1 PUSH4 0x8014A7AA EQ PUSH2 0x148 JUMPI DUP1 PUSH4 0x8DA5CB5B EQ PUSH2 0x164 JUMPI DUP1 PUSH4 0x9CD441DA EQ PUSH2 0x182 JUMPI DUP1 PUSH4 0x9D7DE6B3 EQ PUSH2 0x19E JUMPI DUP1 PUSH4 0xE4F1F70A EQ PUSH2 0x1BA JUMPI PUSH2 0x9C JUMP JUMPDEST DUP1 PUSH4 0xFC63D10 EQ PUSH2 0xA0 JUMPI DUP1 PUSH4 0x21ECB58B EQ PUSH2 0xBE JUMPI DUP1 PUSH4 0x41976E09 EQ PUSH2 0xDC JUMPI DUP1 PUSH4 0x5F64B55B EQ PUSH2 0x10C JUMPI DUP1 PUSH4 0x6009C4A0 EQ PUSH2 0x12A JUMPI JUMPDEST PUSH0 DUP1 REVERT JUMPDEST PUSH2 0xA8 PUSH2 0x1D6 JUMP JUMPDEST PUSH1 0x40 MLOAD PUSH2 0xB5 SWAP2 SWAP1 PUSH2 0xFC9 JUMP JUMPDEST PUSH1 0x40 MLOAD DUP1 SWAP2 SUB SWAP1 RETURN JUMPDEST PUSH2 0xC6 PUSH2 0x1F9 JUMP JUMPDEST PUSH1 0x40 MLOAD PUSH2 0xD3 SWAP2 SWAP1 PUSH2 0xFFA JUMP JUMPDEST PUSH1 0x40 MLOAD DUP1 SWAP2 SUB SWAP1 RETURN JUMPDEST PUSH2 0xF6 PUSH1 0x4 DUP1 CALLDATASIZE SUB DUP2 ADD SWAP1 PUSH2 0xF1 SWAP2 SWAP1 PUSH2 0x1052 JUMP JUMPDEST PUSH2 0x1FF JUMP JUMPDEST PUSH1 0x40 MLOAD PUSH2 0x103 SWAP2 SWAP1 PUSH2 0xFFA JUMP JUMPDEST PUSH1 0x40 MLOAD DUP1 SWAP2 SUB SWAP1 RETURN JUMPDEST PUSH2 0x114 PUSH2 0x3DC JUMP JUMPDEST PUSH1 0x40 MLOAD PUSH2 0x121 SWAP2 SWAP1 PUSH2 0xFC9 JUMP JUMPDEST PUSH1 0x40 MLOAD DUP1 SWAP2 SUB SWAP1 RETURN JUMPDEST PUSH2 0x132 PUSH2 0x401 JUMP JUMPDEST PUSH1 0x40 MLOAD PUSH2 0x13F SWAP2 SWAP1 PUSH2 0xFFA JUMP JUMPDEST PUSH1 0x40 MLOAD DUP1 SWAP2 SUB SWAP1 RETURN JUMPDEST PUSH2 0x162 PUSH1 0x4 DUP1 CALLDATASIZE SUB DUP2 ADD SWAP1 PUSH2 0x15D SWAP2 SWAP1 PUSH2 0x10A7 JUMP JUMPDEST PUSH2 0x407 JUMP JUMPDEST STOP JUMPDEST PUSH2 0x16C PUSH2 0x6EA JUMP JUMPDEST PUSH1 0x40 MLOAD PUSH2 0x179 SWAP2 SWAP1 PUSH2 0x10E1 JUMP JUMPDEST PUSH1 0x40 MLOAD DUP1 SWAP2 SUB SWAP1 RETURN JUMPDEST PUSH2 0x19C PUSH1 0x4 DUP1 CALLDATASIZE SUB DUP2 ADD SWAP1 PUSH2 0x197 SWAP2 SWAP1 PUSH2 0x10FA JUMP JUMPDEST PUSH2 0x70F JUMP JUMPDEST STOP JUMPDEST PUSH2 0x1B8 PUSH1 0x4 DUP1 CALLDATASIZE SUB DUP2 ADD SWAP1 PUSH2 0x1B3 SWAP2 SWAP1 PUSH2 0x10FA JUMP JUMPDEST PUSH2 0x994 JUMP JUMPDEST STOP JUMPDEST PUSH2 0x1D4 PUSH1 0x4 DUP1 CALLDATASIZE SUB DUP2 ADD SWAP1 PUSH2 0x1CF SWAP2 SWAP1 PUSH2 0x10A7 JUMP JUMPDEST PUSH2 0xC6C JUMP JUMPDEST STOP JUMPDEST PUSH0 DUP1 SLOAD SWAP1 PUSH2 0x100 EXP SWAP1 DIV PUSH20 0xFFFFFFFFFFFFFFFFFFFFFFFFFFFFFFFFFFFFFFFF AND DUP2 JUMP JUMPDEST PUSH1 0x2 SLOAD DUP2 JUMP JUMPDEST PUSH0 DUP1 PUSH1 0x2 SLOAD GT DUP1 ISZERO PUSH2 0x212 JUMPI POP PUSH0 PUSH1 0x3 SLOAD GT JUMPDEST PUSH2 0x251 JUMPI PUSH1 0x40 MLOAD PUSH32 0x8C379A000000000000000000000000000000000000000000000000000000000 DUP2 MSTORE PUSH1 0x4 ADD PUSH2 0x248 SWAP1 PUSH2 0x1192 JUMP JUMPDEST PUSH1 0x40 MLOAD DUP1 SWAP2 SUB SWAP1 REVERT JUMPDEST PUSH0 DUP1 SLOAD SWAP1 PUSH2 0x100 EXP SWAP1 DIV PUSH20 0xFFFFFFFFFFFFFFFFFFFFFFFFFFFFFFFFFFFFFFFF AND PUSH20 0xFFFFFFFFFFFFFFFFFFFFFFFFFFFFFFFFFFFFFFFF AND DUP3 PUSH20 0xFFFFFFFFFFFFFFFFFFFFFFFFFFFFFFFFFFFFFFFF AND EQ DUP1 PUSH2 0x2F6 JUMPI POP PUSH1 0x1 PUSH0 SWAP1 SLOAD SWAP1 PUSH2 0x100 EXP SWAP1 DIV PUSH20 0xFFFFFFFFFFFFFFFFFFFFFFFFFFFFFFFFFFFFFFFF AND PUSH20 0xFFFFFFFFFFFFFFFFFFFFFFFFFFFFFFFFFFFFFFFF AND DUP3 PUSH20 0xFFFFFFFFFFFFFFFFFFFFFFFFFFFFFFFFFFFFFFFF AND EQ JUMPDEST PUSH2 0x335 JUMPI PUSH1 0x40 MLOAD PUSH32 0x8C379A000000000000000000000000000000000000000000000000000000000 DUP2 MSTORE PUSH1 0x4 ADD PUSH2 0x32C SWAP1 PUSH2 0x11FA JUMP JUMPDEST PUSH1 0x40 MLOAD DUP1 SWAP2 SUB SWAP1 REVERT JUMPDEST PUSH0 DUP1 SLOAD SWAP1 PUSH2 0x100 EXP SWAP1 DIV PUSH20 0xFFFFFFFFFFFFFFFFFFFFFFFFFFFFFFFFFFFFFFFF AND PUSH20 0xFFFFFFFFFFFFFFFFFFFFFFFFFFFFFFFFFFFFFFFF AND DUP3 PUSH20 0xFFFFFFFFFFFFFFFFFFFFFFFFFFFFFFFFFFFFFFFF AND SUB PUSH2 0x3B1 JUMPI PUSH1 0x2 SLOAD PUSH8 0xDE0B6B3A7640000 PUSH1 0x3 SLOAD PUSH2 0x3A0 SWAP2 SWAP1 PUSH2 0x1245 JUMP JUMPDEST PUSH2 0x3AA SWAP2 SWAP1 PUSH2 0x12B3 JUMP JUMPDEST SWAP1 POP PUSH2 0x3D7 JUMP JUMPDEST PUSH1 0x3 SLOAD PUSH8 0xDE0B6B3A7640000 PUSH1 0x2 SLOAD PUSH2 0x3CA SWAP2 SWAP1 PUSH2 0x1245 JUMP JUMPDEST PUSH2 0x3D4 SWAP2 SWAP1 PUSH2 0x12B3 JUMP JUMPDEST SWAP1 POP JUMPDEST SWAP2 SWAP1 POP JUMP JUMPDEST PUSH1 0x1 PUSH0 SWAP1 SLOAD SWAP1 PUSH2 0x100 EXP SWAP1 DIV PUSH20 0xFFFFFFFFFFFFFFFFFFFFFFFFFFFFFFFFFFFFFFFF AND DUP2 JUMP JUMPDEST PUSH1 0x3 SLOAD DUP2 JUMP JUMPDEST PUSH0 PUSH1 0x2 SLOAD GT DUP1 ISZERO PUSH2 0x419 JUMPI POP PUSH0 PUSH1 0x3 SLOAD GT JUMPDEST PUSH2 0x458 JUMPI PUSH1 0x40 MLOAD PUSH32 0x8C379A000000000000000000000000000000000000000000000000000000000 DUP2 MSTORE PUSH1 0x4 ADD PUSH2 0x44F SWAP1 PUSH2 0x1192 JUMP JUMPDEST PUSH1 0x40 MLOAD DUP1 SWAP2 SUB SWAP1 REVERT JUMPDEST PUSH0 DUP2 GT PUSH2 0x49A JUMPI PUSH1 0x40 MLOAD PUSH32 0x8C379A000000000000000000000000000000000000000000000000000000000 DUP2 MSTORE PUSH1 0x4 ADD PUSH2 0x491 SWAP1 PUSH2 0x132D JUMP JUMPDEST PUSH1 0x40 MLOAD DUP1 SWAP2 SUB SWAP1 REVERT JUMPDEST PUSH0 DUP2 PUSH1 0x3 SLOAD PUSH2 0x4A9 SWAP2 SWAP1 PUSH2 0x134B JUMP JUMPDEST SWAP1 POP PUSH0 DUP2 PUSH1 0x3 SLOAD PUSH1 0x2 SLOAD PUSH2 0x4BD SWAP2 SWAP1 PUSH2 0x1245 JUMP JUMPDEST PUSH2 0x4C7 SWAP2 SWAP1 PUSH2 0x12B3 JUMP JUMPDEST SWAP1 POP PUSH0 PUSH1 0x2 SLOAD DUP3 PUSH2 0x4D8 SWAP2 SWAP1 PUSH2 0x134B JUMP JUMPDEST SWAP1 POP PUSH0 DUP2 GT DUP1 ISZERO PUSH2 0x4EB JUMPI POP PUSH1 0x2 SLOAD DUP2 GT ISZERO JUMPDEST PUSH2 0x52A JUMPI PUSH1 0x40 MLOAD PUSH32 0x8C379A000000000000000000000000000000000000000000000000000000000 DUP2 MSTORE PUSH1 0x4 ADD PUSH2 0x521 SWAP1 PUSH2 0x13C8 JUMP JUMPDEST PUSH1 0x40 MLOAD DUP1 SWAP2 SUB SWAP1 REVERT JUMPDEST PUSH1 0x1 PUSH0 SWAP1 SLOAD SWAP1 PUSH2 0x100 EXP SWAP1 DIV PUSH20 0xFFFFFFFFFFFFFFFFFFFFFFFFFFFFFFFFFFFFFFFF AND PUSH20 0xFFFFFFFFFFFFFFFFFFFFFFFFFFFFFFFFFFFFFFFF AND PUSH4 0x23B872DD CALLER ADDRESS DUP8 PUSH1 0x40 MLOAD DUP5 PUSH4 0xFFFFFFFF AND PUSH1 0xE0 SHL DUP2 MSTORE PUSH1 0x4 ADD PUSH2 0x588 SWAP4 SWAP3 SWAP2 SWAP1 PUSH2 0x13E6 JUMP JUMPDEST PUSH1 0x20 PUSH1 0x40 MLOAD DUP1 DUP4 SUB DUP2 PUSH0 DUP8 GAS CALL ISZERO DUP1 ISZERO PUSH2 0x5A4 JUMPI RETURNDATASIZE PUSH0 DUP1 RETURNDATACOPY RETURNDATASIZE PUSH0 REVERT JUMPDEST POP POP POP POP PUSH1 0x40 MLOAD RETURNDATASIZE PUSH1 0x1F NOT PUSH1 0x1F DUP3 ADD AND DUP3 ADD DUP1 PUSH1 0x40 MSTORE POP DUP2 ADD SWAP1 PUSH2 0x5C8 SWAP2 SWAP1 PUSH2 0x1450 JUMP JUMPDEST POP PUSH0 DUP1 SLOAD SWAP1 PUSH2 0x100 EXP SWAP1 DIV PUSH20 0xFFFFFFFFFFFFFFFFFFFFFFFFFFFFFFFFFFFFFFFF AND PUSH20 0xFFFFFFFFFFFFFFFFFFFFFFFFFFFFFFFFFFFFFFFF AND PUSH4 0xA9059CBB CALLER DUP4 PUSH1 0x40 MLOAD DUP4 PUSH4 0xFFFFFFFF AND PUSH1 0xE0 SHL DUP2 MSTORE PUSH1 0x4 ADD PUSH2 0x623 SWAP3 SWAP2 SWAP1 PUSH2 0x147B JUMP JUMPDEST PUSH1 0x20 PUSH1 0x40 MLOAD DUP1 DUP4 SUB DUP2 PUSH0 DUP8 GAS CALL ISZERO DUP1 ISZERO PUSH2 0x63F JUMPI RETURNDATASIZE PUSH0 DUP1 RETURNDATACOPY RETURNDATASIZE PUSH0 REVERT JUMPDEST POP POP POP POP PUSH1 0x40 MLOAD RETURNDATASIZE PUSH1 0x1F NOT PUSH1 0x1F DUP3 ADD AND DUP3 ADD DUP1 PUSH1 0x40 MSTORE POP DUP2 ADD SWAP1 PUSH2 0x663 SWAP2 SWAP1 PUSH2 0x1450 JUMP JUMPDEST POP DUP4 PUSH1 0x3 PUSH0 DUP3 DUP3 SLOAD PUSH2 0x675 SWAP2 SWAP1 PUSH2 0x14A2 JUMP JUMPDEST SWAP3 POP POP DUP2 SWAP1 SSTORE POP DUP1 PUSH1 0x2 PUSH0 DUP3 DUP3 SLOAD PUSH2 0x68D SWAP2 SWAP1 PUSH2 0x134B JUMP JUMPDEST SWAP3 POP POP DUP2 SWAP1 SSTORE POP CALLER PUSH20 0xFFFFFFFFFFFFFFFFFFFFFFFFFFFFFFFFFFFFFFFF AND PUSH32 0xBB8CA5A7EAEE5DFDF64C229B7CEB6CB3EC5B257008AF3F94D86EF0771058F353 DUP6 DUP4 PUSH1 0x40 MLOAD PUSH2 0x6DC SWAP3 SWAP2 SWAP1 PUSH2 0x14D5 JUMP JUMPDEST PUSH1 0x40 MLOAD DUP1 SWAP2 SUB SWAP1 LOG2 POP POP POP POP JUMP JUMPDEST PUSH1 0x4 PUSH0 SWAP1 SLOAD SWAP1 PUSH2 0x100 EXP SWAP1 DIV PUSH20 0xFFFFFFFFFFFFFFFFFFFFFFFFFFFFFFFFFFFFFFFF AND DUP2 JUMP JUMPDEST PUSH1 0x4 PUSH0 SWAP1 SLOAD SWAP1 PUSH2 0x100 EXP SWAP1 DIV PUSH20 0xFFFFFFFFFFFFFFFFFFFFFFFFFFFFFFFFFFFFFFFF AND PUSH20 0xFFFFFFFFFFFFFFFFFFFFFFFFFFFFFFFFFFFFFFFF AND CALLER PUSH20 0xFFFFFFFFFFFFFFFFFFFFFFFFFFFFFFFFFFFFFFFF AND EQ PUSH2 0x79E JUMPI PUSH1 0x40 MLOAD PUSH32 0x8C379A000000000000000000000000000000000000000000000000000000000 DUP2 MSTORE PUSH1 0x4 ADD PUSH2 0x795 SWAP1 PUSH2 0x1546 JUMP JUMPDEST PUSH1 0x40 MLOAD DUP1 SWAP2 SUB SWAP1 REVERT JUMPDEST PUSH0 DUP3 GT DUP1 ISZERO PUSH2 0x7AC JUMPI POP PUSH0 DUP2 GT JUMPDEST PUSH2 0x7EB JUMPI PUSH1 0x40 MLOAD PUSH32 0x8C379A000000000000000000000000000000000000000000000000000000000 DUP2 MSTORE PUSH1 0x4 ADD PUSH2 0x7E2 SWAP1 PUSH2 0x15AE JUMP JUMPDEST PUSH1 0x40 MLOAD DUP1 SWAP2 SUB SWAP1 REVERT JUMPDEST PUSH0 DUP1 SLOAD SWAP1 PUSH2 0x100 EXP SWAP1 DIV PUSH20 0xFFFFFFFFFFFFFFFFFFFFFFFFFFFFFFFFFFFFFFFF AND PUSH20 0xFFFFFFFFFFFFFFFFFFFFFFFFFFFFFFFFFFFFFFFF AND PUSH4 0x23B872DD CALLER ADDRESS DUP6 PUSH1 0x40 MLOAD DUP5 PUSH4 0xFFFFFFFF AND PUSH1 0xE0 SHL DUP2 MSTORE PUSH1 0x4 ADD PUSH2 0x847 SWAP4 SWAP3 SWAP2 SWAP1 PUSH2 0x13E6 JUMP JUMPDEST PUSH1 0x20 PUSH1 0x40 MLOAD DUP1 DUP4 SUB DUP2 PUSH0 DUP8 GAS CALL ISZERO DUP1 ISZERO PUSH2 0x863 JUMPI RETURNDATASIZE PUSH0 DUP1 RETURNDATACOPY RETURNDATASIZE PUSH0 REVERT JUMPDEST POP POP POP POP PUSH1 0x40 MLOAD RETURNDATASIZE PUSH1 0x1F NOT PUSH1 0x1F DUP3 ADD AND DUP3 ADD DUP1 PUSH1 0x40 MSTORE POP DUP2 ADD SWAP1 PUSH2 0x887 SWAP2 SWAP1 PUSH2 0x1450 JUMP JUMPDEST POP PUSH1 0x1 PUSH0 SWAP1 SLOAD SWAP1 PUSH2 0x100 EXP SWAP1 DIV PUSH20 0xFFFFFFFFFFFFFFFFFFFFFFFFFFFFFFFFFFFFFFFF AND PUSH20 0xFFFFFFFFFFFFFFFFFFFFFFFFFFFFFFFFFFFFFFFF AND PUSH4 0x23B872DD CALLER ADDRESS DUP5 PUSH1 0x40 MLOAD DUP5 PUSH4 0xFFFFFFFF AND PUSH1 0xE0 SHL DUP2 MSTORE PUSH1 0x4 ADD PUSH2 0x8E6 SWAP4 SWAP3 SWAP2 SWAP1 PUSH2 0x13E6 JUMP JUMPDEST PUSH1 0x20 PUSH1 0x40 MLOAD DUP1 DUP4 SUB DUP2 PUSH0 DUP8 GAS CALL ISZERO DUP1 ISZERO PUSH2 0x902 JUMPI RETURNDATASIZE PUSH0 DUP1 RETURNDATACOPY RETURNDATASIZE PUSH0 REVERT JUMPDEST POP POP POP POP PUSH1 0x40 MLOAD RETURNDATASIZE PUSH1 0x1F NOT PUSH1 0x1F DUP3 ADD AND DUP3 ADD DUP1 PUSH1 0x40 MSTORE POP DUP2 ADD SWAP1 PUSH2 0x926 SWAP2 SWAP1 PUSH2 0x1450 JUMP JUMPDEST POP DUP2 PUSH1 0x2 PUSH0 DUP3 DUP3 SLOAD PUSH2 0x938 SWAP2 SWAP1 PUSH2 0x14A2 JUMP JUMPDEST SWAP3 POP POP DUP2 SWAP1 SSTORE POP DUP1 PUSH1 0x3 PUSH0 DUP3 DUP3 SLOAD PUSH2 0x950 SWAP2 SWAP1 PUSH2 0x14A2 JUMP JUMPDEST SWAP3 POP POP DUP2 SWAP1 SSTORE POP PUSH32 0x38F8A0C92F4C5B0B6877F878CB4C0C8D348A47B76D716C8E78F425043DF9515B DUP3 DUP3 PUSH1 0x40 MLOAD PUSH2 0x988 SWAP3 SWAP2 SWAP1 PUSH2 0x14D5 JUMP JUMPDEST PUSH1 0x40 MLOAD DUP1 SWAP2 SUB SWAP1 LOG1 POP POP JUMP JUMPDEST PUSH1 0x4 PUSH0 SWAP1 SLOAD SWAP1 PUSH2 0x100 EXP SWAP1 DIV PUSH20 0xFFFFFFFFFFFFFFFFFFFFFFFFFFFFFFFFFFFFFFFF AND PUSH20 0xFFFFFFFFFFFFFFFFFFFFFFFFFFFFFFFFFFFFFFFF AND CALLER PUSH20 0xFFFFFFFFFFFFFFFFFFFFFFFFFFFFFFFFFFFFFFFF AND EQ PUSH2 0xA23 JUMPI PUSH1 0x40 MLOAD PUSH32 0x8C379A000000000000000000000000000000000000000000000000000000000 DUP2 MSTORE PUSH1 0x4 ADD PUSH2 0xA1A SWAP1 PUSH2 0x1546 JUMP JUMPDEST PUSH1 0x40 MLOAD DUP1 SWAP2 SUB SWAP1 REVERT JUMPDEST PUSH0 PUSH1 0x2 SLOAD GT DUP1 ISZERO PUSH2 0xA35 JUMPI POP PUSH0 PUSH1 0x3 SLOAD GT JUMPDEST PUSH2 0xA74 JUMPI PUSH1 0x40 MLOAD PUSH32 0x8C379A000000000000000000000000000000000000000000000000000000000 DUP2 MSTORE PUSH1 0x4 ADD PUSH2 0xA6B SWAP1 PUSH2 0x1192 JUMP JUMPDEST PUSH1 0x40 MLOAD DUP1 SWAP2 SUB SWAP1 REVERT JUMPDEST PUSH1 0x2 SLOAD DUP3 GT ISZERO DUP1 ISZERO PUSH2 0xA88 JUMPI POP PUSH1 0x3 SLOAD DUP2 GT ISZERO JUMPDEST PUSH2 0xAC7 JUMPI PUSH1 0x40 MLOAD PUSH32 0x8C379A000000000000000000000000000000000000000000000000000000000 DUP2 MSTORE PUSH1 0x4 ADD PUSH2 0xABE SWAP1 PUSH2 0x1192 JUMP JUMPDEST PUSH1 0x40 MLOAD DUP1 SWAP2 SUB SWAP1 REVERT JUMPDEST DUP2 PUSH1 0x2 PUSH0 DUP3 DUP3 SLOAD PUSH2 0xAD8 SWAP2 SWAP1 PUSH2 0x134B JUMP JUMPDEST SWAP3 POP POP DUP2 SWAP1 SSTORE POP DUP1 PUSH1 0x3 PUSH0 DUP3 DUP3 SLOAD PUSH2 0xAF0 SWAP2 SWAP1 PUSH2 0x134B JUMP JUMPDEST SWAP3 POP POP DUP2 SWAP1 SSTORE POP PUSH0 DUP1 SLOAD SWAP1 PUSH2 0x100 EXP SWAP1 DIV PUSH20 0xFFFFFFFFFFFFFFFFFFFFFFFFFFFFFFFFFFFFFFFF AND PUSH20 0xFFFFFFFFFFFFFFFFFFFFFFFFFFFFFFFFFFFFFFFF AND PUSH4 0xA9059CBB CALLER DUP5 PUSH1 0x40 MLOAD DUP4 PUSH4 0xFFFFFFFF AND PUSH1 0xE0 SHL DUP2 MSTORE PUSH1 0x4 ADD PUSH2 0xB51 SWAP3 SWAP2 SWAP1 PUSH2 0x147B JUMP JUMPDEST PUSH1 0x20 PUSH1 0x40 MLOAD DUP1 DUP4 SUB DUP2 PUSH0 DUP8 GAS CALL ISZERO DUP1 ISZERO PUSH2 0xB6D JUMPI RETURNDATASIZE PUSH0 DUP1 RETURNDATACOPY RETURNDATASIZE PUSH0 REVERT JUMPDEST POP POP POP POP PUSH1 0x40 MLOAD RETURNDATASIZE PUSH1 0x1F NOT PUSH1 0x1F DUP3 ADD AND DUP3 ADD DUP1 PUSH1 0x40 MSTORE POP DUP2 ADD SWAP1 PUSH2 0xB91 SWAP2 SWAP1 PUSH2 0x1450 JUMP JUMPDEST POP PUSH1 0x1 PUSH0 SWAP1 SLOAD SWAP1 PUSH2 0x100 EXP SWAP1 DIV PUSH20 0xFFFFFFFFFFFFFFFFFFFFFFFFFFFFFFFFFFFFFFFF AND PUSH20 0xFFFFFFFFFFFFFFFFFFFFFFFFFFFFFFFFFFFFFFFF AND PUSH4 0xA9059CBB CALLER DUP4 PUSH1 0x40 MLOAD DUP4 PUSH4 0xFFFFFFFF AND PUSH1 0xE0 SHL DUP2 MSTORE PUSH1 0x4 ADD PUSH2 0xBEE SWAP3 SWAP2 SWAP1 PUSH2 0x147B JUMP JUMPDEST PUSH1 0x20 PUSH1 0x40 MLOAD DUP1 DUP4 SUB DUP2 PUSH0 DUP8 GAS CALL ISZERO DUP1 ISZERO PUSH2 0xC0A JUMPI RETURNDATASIZE PUSH0 DUP1 RETURNDATACOPY RETURNDATASIZE PUSH0 REVERT JUMPDEST POP POP POP POP PUSH1 0x40 MLOAD RETURNDATASIZE PUSH1 0x1F NOT PUSH1 0x1F DUP3 ADD AND DUP3 ADD DUP1 PUSH1 0x40 MSTORE POP DUP2 ADD SWAP1 PUSH2 0xC2E SWAP2 SWAP1 PUSH2 0x1450 JUMP JUMPDEST POP PUSH32 0x6F0F96292AE0038C04F9B6BAB30F185D9CA02C471D0983F563F2A4F674AEF137 DUP3 DUP3 PUSH1 0x40 MLOAD PUSH2 0xC60 SWAP3 SWAP2 SWAP1 PUSH2 0x14D5 JUMP JUMPDEST PUSH1 0x40 MLOAD DUP1 SWAP2 SUB SWAP1 LOG1 POP POP JUMP JUMPDEST PUSH0 PUSH1 0x2 SLOAD GT DUP1 ISZERO PUSH2 0xC7E JUMPI POP PUSH0 PUSH1 0x3 SLOAD GT JUMPDEST PUSH2 0xCBD JUMPI PUSH1 0x40 MLOAD PUSH32 0x8C379A000000000000000000000000000000000000000000000000000000000 DUP2 MSTORE PUSH1 0x4 ADD PUSH2 0xCB4 SWAP1 PUSH2 0x1192 JUMP JUMPDEST PUSH1 0x40 MLOAD DUP1 SWAP2 SUB SWAP1 REVERT JUMPDEST PUSH0 DUP2 GT PUSH2 0xCFF JUMPI PUSH1 0x40 MLOAD PUSH32 0x8C379A000000000000000000000000000000000000000000000000000000000 DUP2 MSTORE PUSH1 0x4 ADD PUSH2 0xCF6 SWAP1 PUSH2 0x132D JUMP JUMPDEST PUSH1 0x40 MLOAD DUP1 SWAP2 SUB SWAP1 REVERT JUMPDEST PUSH0 DUP2 PUSH1 0x2 SLOAD PUSH2 0xD0E SWAP2 SWAP1 PUSH2 0x14A2 JUMP JUMPDEST SWAP1 POP PUSH0 DUP2 PUSH1 0x3 SLOAD PUSH1 0x2 SLOAD PUSH2 0xD22 SWAP2 SWAP1 PUSH2 0x1245 JUMP JUMPDEST PUSH2 0xD2C SWAP2 SWAP1 PUSH2 0x12B3 JUMP JUMPDEST SWAP1 POP PUSH0 DUP2 PUSH1 0x3 SLOAD PUSH2 0xD3D SWAP2 SWAP1 PUSH2 0x134B JUMP JUMPDEST SWAP1 POP PUSH0 DUP2 GT DUP1 ISZERO PUSH2 0xD50 JUMPI POP PUSH1 0x3 SLOAD DUP2 GT ISZERO JUMPDEST PUSH2 0xD8F JUMPI PUSH1 0x40 MLOAD PUSH32 0x8C379A000000000000000000000000000000000000000000000000000000000 DUP2 MSTORE PUSH1 0x4 ADD PUSH2 0xD86 SWAP1 PUSH2 0x13C8 JUMP JUMPDEST PUSH1 0x40 MLOAD DUP1 SWAP2 SUB SWAP1 REVERT JUMPDEST PUSH0 DUP1 SLOAD SWAP1 PUSH2 0x100 EXP SWAP1 DIV PUSH20 0xFFFFFFFFFFFFFFFFFFFFFFFFFFFFFFFFFFFFFFFF AND PUSH20 0xFFFFFFFFFFFFFFFFFFFFFFFFFFFFFFFFFFFFFFFF AND PUSH4 0x23B872DD CALLER ADDRESS DUP8 PUSH1 0x40 MLOAD DUP5 PUSH4 0xFFFFFFFF AND PUSH1 0xE0 SHL DUP2 MSTORE PUSH1 0x4 ADD PUSH2 0xDEB SWAP4 SWAP3 SWAP2 SWAP1 PUSH2 0x13E6 JUMP JUMPDEST PUSH1 0x20 PUSH1 0x40 MLOAD DUP1 DUP4 SUB DUP2 PUSH0 DUP8 GAS CALL ISZERO DUP1 ISZERO PUSH2 0xE07 JUMPI RETURNDATASIZE PUSH0 DUP1 RETURNDATACOPY RETURNDATASIZE PUSH0 REVERT JUMPDEST POP POP POP POP PUSH1 0x40 MLOAD RETURNDATASIZE PUSH1 0x1F NOT PUSH1 0x1F DUP3 ADD AND DUP3 ADD DUP1 PUSH1 0x40 MSTORE POP DUP2 ADD SWAP1 PUSH2 0xE2B SWAP2 SWAP1 PUSH2 0x1450 JUMP JUMPDEST POP PUSH1 0x1 PUSH0 SWAP1 SLOAD SWAP1 PUSH2 0x100 EXP SWAP1 DIV PUSH20 0xFFFFFFFFFFFFFFFFFFFFFFFFFFFFFFFFFFFFFFFF AND PUSH20 0xFFFFFFFFFFFFFFFFFFFFFFFFFFFFFFFFFFFFFFFF AND PUSH4 0xA9059CBB CALLER DUP4 PUSH1 0x40 MLOAD DUP4 PUSH4 0xFFFFFFFF AND PUSH1 0xE0 SHL DUP2 MSTORE PUSH1 0x4 ADD PUSH2 0xE88 SWAP3 SWAP2 SWAP1 PUSH2 0x147B JUMP JUMPDEST PUSH1 0x20 PUSH1 0x40 MLOAD DUP1 DUP4 SUB DUP2 PUSH0 DUP8 GAS CALL ISZERO DUP1 ISZERO PUSH2 0xEA4 JUMPI RETURNDATASIZE PUSH0 DUP1 RETURNDATACOPY RETURNDATASIZE PUSH0 REVERT JUMPDEST POP POP POP POP PUSH1 0x40 MLOAD RETURNDATASIZE PUSH1 0x1F NOT PUSH1 0x1F DUP3 ADD AND DUP3 ADD DUP1 PUSH1 0x40 MSTORE POP DUP2 ADD SWAP1 PUSH2 0xEC8 SWAP2 SWAP1 PUSH2 0x1450 JUMP JUMPDEST POP DUP4 PUSH1 0x2 PUSH0 DUP3 DUP3 SLOAD PUSH2 0xEDA SWAP2 SWAP1 PUSH2 0x14A2 JUMP JUMPDEST SWAP3 POP POP DUP2 SWAP1 SSTORE POP DUP1 PUSH1 0x3 PUSH0 DUP3 DUP3 SLOAD PUSH2 0xEF2 SWAP2 SWAP1 PUSH2 0x134B JUMP JUMPDEST SWAP3 POP POP DUP2 SWAP1 SSTORE POP CALLER PUSH20 0xFFFFFFFFFFFFFFFFFFFFFFFFFFFFFFFFFFFFFFFF AND PUSH32 0xC2BF2A98E8D2DB2C47884656B8FEC299CB52D46679346297495FB3F8C21F233C DUP6 DUP4 PUSH1 0x40 MLOAD PUSH2 0xF41 SWAP3 SWAP2 SWAP1 PUSH2 0x14D5 JUMP JUMPDEST PUSH1 0x40 MLOAD DUP1 SWAP2 SUB SWAP1 LOG2 POP POP POP POP JUMP JUMPDEST PUSH0 PUSH20 0xFFFFFFFFFFFFFFFFFFFFFFFFFFFFFFFFFFFFFFFF DUP3 AND SWAP1 POP SWAP2 SWAP1 POP JUMP JUMPDEST PUSH0 DUP2 SWAP1 POP SWAP2 SWAP1 POP JUMP JUMPDEST PUSH0 PUSH2 0xF91 PUSH2 0xF8C PUSH2 0xF87 DUP5 PUSH2 0xF4F JUMP JUMPDEST PUSH2 0xF6E JUMP JUMPDEST PUSH2 0xF4F JUMP JUMPDEST SWAP1 POP SWAP2 SWAP1 POP JUMP JUMPDEST PUSH0 PUSH2 0xFA2 DUP3 PUSH2 0xF77 JUMP JUMPDEST SWAP1 POP SWAP2 SWAP1 POP JUMP JUMPDEST PUSH0 PUSH2 0xFB3 DUP3 PUSH2 0xF98 JUMP JUMPDEST SWAP1 POP SWAP2 SWAP1 POP JUMP JUMPDEST PUSH2 0xFC3 DUP2 PUSH2 0xFA9 JUMP JUMPDEST DUP3 MSTORE POP POP JUMP JUMPDEST PUSH0 PUSH1 0x20 DUP3 ADD SWAP1 POP PUSH2 0xFDC PUSH0 DUP4 ADD DUP5 PUSH2 0xFBA JUMP JUMPDEST SWAP3 SWAP2 POP POP JUMP JUMPDEST PUSH0 DUP2 SWAP1 POP SWAP2 SWAP1 POP JUMP JUMPDEST PUSH2 0xFF4 DUP2 PUSH2 0xFE2 JUMP JUMPDEST DUP3 MSTORE POP POP JUMP JUMPDEST PUSH0 PUSH1 0x20 DUP3 ADD SWAP1 POP PUSH2 0x100D PUSH0 DUP4 ADD DUP5 PUSH2 0xFEB JUMP JUMPDEST SWAP3 SWAP2 POP POP JUMP JUMPDEST PUSH0 DUP1 REVERT JUMPDEST PUSH0 PUSH2 0x1021 DUP3 PUSH2 0xF4F JUMP JUMPDEST SWAP1 POP SWAP2 SWAP1 POP JUMP JUMPDEST PUSH2 0x1031 DUP2 PUSH2 0x1017 JUMP JUMPDEST DUP2 EQ PUSH2 0x103B JUMPI PUSH0 DUP1 REVERT JUMPDEST POP JUMP JUMPDEST PUSH0 DUP2 CALLDATALOAD SWAP1 POP PUSH2 0x104C DUP2 PUSH2 0x1028 JUMP JUMPDEST SWAP3 SWAP2 POP POP JUMP JUMPDEST PUSH0 PUSH1 0x20 DUP3 DUP5 SUB SLT ISZERO PUSH2 0x1067 JUMPI PUSH2 0x1066 PUSH2 0x1013 JUMP JUMPDEST JUMPDEST PUSH0 PUSH2 0x1074 DUP5 DUP3 DUP6 ADD PUSH2 0x103E JUMP JUMPDEST SWAP2 POP POP SWAP3 SWAP2 POP POP JUMP JUMPDEST PUSH2 0x1086 DUP2 PUSH2 0xFE2 JUMP JUMPDEST DUP2 EQ PUSH2 0x1090 JUMPI PUSH0 DUP1 REVERT JUMPDEST POP JUMP JUMPDEST PUSH0 DUP2 CALLDATALOAD SWAP1 POP PUSH2 0x10A1 DUP2 PUSH2 0x107D JUMP JUMPDEST SWAP3 SWAP2 POP POP JUMP JUMPDEST PUSH0 PUSH1 0x20 DUP3 DUP5 SUB SLT ISZERO PUSH2 0x10BC JUMPI PUSH2 0x10BB PUSH2 0x1013 JUMP JUMPDEST JUMPDEST PUSH0 PUSH2 0x10C9 DUP5 DUP3 DUP6 ADD PUSH2 0x1093 JUMP JUMPDEST SWAP2 POP POP SWAP3 SWAP2 POP POP JUMP JUMPDEST PUSH2 0x10DB DUP2 PUSH2 0x1017 JUMP JUMPDEST DUP3 MSTORE POP POP JUMP JUMPDEST PUSH0 PUSH1 0x20 DUP3 ADD SWAP1 POP PUSH2 0x10F4 PUSH0 DUP4 ADD DUP5 PUSH2 0x10D2 JUMP JUMPDEST SWAP3 SWAP2 POP POP JUMP JUMPDEST PUSH0 DUP1 PUSH1 0x40 DUP4 DUP6 SUB SLT ISZERO PUSH2 0x1110 JUMPI PUSH2 0x110F PUSH2 0x1013 JUMP JUMPDEST JUMPDEST PUSH0 PUSH2 0x111D DUP6 DUP3 DUP7 ADD PUSH2 0x1093 JUMP JUMPDEST SWAP3 POP POP PUSH1 0x20 PUSH2 0x112E DUP6 DUP3 DUP7 ADD PUSH2 0x1093 JUMP JUMPDEST SWAP2 POP POP SWAP3 POP SWAP3 SWAP1 POP JUMP JUMPDEST PUSH0 DUP3 DUP3 MSTORE PUSH1 0x20 DUP3 ADD SWAP1 POP SWAP3 SWAP2 POP POP JUMP JUMPDEST PUSH32 0x4E6F7420656E6F756768206C6971756964697479000000000000000000000000 PUSH0 DUP3 ADD MSTORE POP JUMP JUMPDEST PUSH0 PUSH2 0x117C PUSH1 0x14 DUP4 PUSH2 0x1138 JUMP JUMPDEST SWAP2 POP PUSH2 0x1187 DUP3 PUSH2 0x1148 JUMP JUMPDEST PUSH1 0x20 DUP3 ADD SWAP1 POP SWAP2 SWAP1 POP JUMP JUMPDEST PUSH0 PUSH1 0x20 DUP3 ADD SWAP1 POP DUP2 DUP2 SUB PUSH0 DUP4 ADD MSTORE PUSH2 0x11A9 DUP2 PUSH2 0x1170 JUMP JUMPDEST SWAP1 POP SWAP2 SWAP1 POP JUMP JUMPDEST PUSH32 0x496E76616C696420746F6B656E20616464726573730000000000000000000000 PUSH0 DUP3 ADD MSTORE POP JUMP JUMPDEST PUSH0 PUSH2 0x11E4 PUSH1 0x15 DUP4 PUSH2 0x1138 JUMP JUMPDEST SWAP2 POP PUSH2 0x11EF DUP3 PUSH2 0x11B0 JUMP JUMPDEST PUSH1 0x20 DUP3 ADD SWAP1 POP SWAP2 SWAP1 POP JUMP JUMPDEST PUSH0 PUSH1 0x20 DUP3 ADD SWAP1 POP DUP2 DUP2 SUB PUSH0 DUP4 ADD MSTORE PUSH2 0x1211 DUP2 PUSH2 0x11D8 JUMP JUMPDEST SWAP1 POP SWAP2 SWAP1 POP JUMP JUMPDEST PUSH32 0x4E487B7100000000000000000000000000000000000000000000000000000000 PUSH0 MSTORE PUSH1 0x11 PUSH1 0x4 MSTORE PUSH1 0x24 PUSH0 REVERT JUMPDEST PUSH0 PUSH2 0x124F DUP3 PUSH2 0xFE2 JUMP JUMPDEST SWAP2 POP PUSH2 0x125A DUP4 PUSH2 0xFE2 JUMP JUMPDEST SWAP3 POP DUP3 DUP3 MUL PUSH2 0x1268 DUP2 PUSH2 0xFE2 JUMP JUMPDEST SWAP2 POP DUP3 DUP3 DIV DUP5 EQ DUP4 ISZERO OR PUSH2 0x127F JUMPI PUSH2 0x127E PUSH2 0x1218 JUMP JUMPDEST JUMPDEST POP SWAP3 SWAP2 POP POP JUMP JUMPDEST PUSH32 0x4E487B7100000000000000000000000000000000000000000000000000000000 PUSH0 MSTORE PUSH1 0x12 PUSH1 0x4 MSTORE PUSH1 0x24 PUSH0 REVERT JUMPDEST PUSH0 PUSH2 0x12BD DUP3 PUSH2 0xFE2 JUMP JUMPDEST SWAP2 POP PUSH2 0x12C8 DUP4 PUSH2 0xFE2 JUMP JUMPDEST SWAP3 POP DUP3 PUSH2 0x12D8 JUMPI PUSH2 0x12D7 PUSH2 0x1286 JUMP JUMPDEST JUMPDEST DUP3 DUP3 DIV SWAP1 POP SWAP3 SWAP2 POP POP JUMP JUMPDEST PUSH32 0x416D6F756E74206D7573742062652067726561746572207468616E2030000000 PUSH0 DUP3 ADD MSTORE POP JUMP JUMPDEST PUSH0 PUSH2 0x1317 PUSH1 0x1D DUP4 PUSH2 0x1138 JUMP JUMPDEST SWAP2 POP PUSH2 0x1322 DUP3 PUSH2 0x12E3 JUMP JUMPDEST PUSH1 0x20 DUP3 ADD SWAP1 POP SWAP2 SWAP1 POP JUMP JUMPDEST PUSH0 PUSH1 0x20 DUP3 ADD SWAP1 POP DUP2 DUP2 SUB PUSH0 DUP4 ADD MSTORE PUSH2 0x1344 DUP2 PUSH2 0x130B JUMP JUMPDEST SWAP1 POP SWAP2 SWAP1 POP JUMP JUMPDEST PUSH0 PUSH2 0x1355 DUP3 PUSH2 0xFE2 JUMP JUMPDEST SWAP2 POP PUSH2 0x1360 DUP4 PUSH2 0xFE2 JUMP JUMPDEST SWAP3 POP DUP3 DUP3 SUB SWAP1 POP DUP2 DUP2 GT ISZERO PUSH2 0x1378 JUMPI PUSH2 0x1377 PUSH2 0x1218 JUMP JUMPDEST JUMPDEST SWAP3 SWAP2 POP POP JUMP JUMPDEST PUSH32 0x496E76616C6964206F757470757420616D6F756E740000000000000000000000 PUSH0 DUP3 ADD MSTORE POP JUMP JUMPDEST PUSH0 PUSH2 0x13B2 PUSH1 0x15 DUP4 PUSH2 0x1138 JUMP JUMPDEST SWAP2 POP PUSH2 0x13BD DUP3 PUSH2 0x137E JUMP JUMPDEST PUSH1 0x20 DUP3 ADD SWAP1 POP SWAP2 SWAP1 POP JUMP JUMPDEST PUSH0 PUSH1 0x20 DUP3 ADD SWAP1 POP DUP2 DUP2 SUB PUSH0 DUP4 ADD MSTORE PUSH2 0x13DF DUP2 PUSH2 0x13A6 JUMP JUMPDEST SWAP1 POP SWAP2 SWAP1 POP JUMP JUMPDEST PUSH0 PUSH1 0x60 DUP3 ADD SWAP1 POP PUSH2 0x13F9 PUSH0 DUP4 ADD DUP7 PUSH2 0x10D2 JUMP JUMPDEST PUSH2 0x1406 PUSH1 0x20 DUP4 ADD DUP6 PUSH2 0x10D2 JUMP JUMPDEST PUSH2 0x1413 PUSH1 0x40 DUP4 ADD DUP5 PUSH2 0xFEB JUMP JUMPDEST SWAP5 SWAP4 POP POP POP POP JUMP JUMPDEST PUSH0 DUP2 ISZERO ISZERO SWAP1 POP SWAP2 SWAP1 POP JUMP JUMPDEST PUSH2 0x142F DUP2 PUSH2 0x141B JUMP JUMPDEST DUP2 EQ PUSH2 0x1439 JUMPI PUSH0 DUP1 REVERT JUMPDEST POP JUMP JUMPDEST PUSH0 DUP2 MLOAD SWAP1 POP PUSH2 0x144A DUP2 PUSH2 0x1426 JUMP JUMPDEST SWAP3 SWAP2 POP POP JUMP JUMPDEST PUSH0 PUSH1 0x20 DUP3 DUP5 SUB SLT ISZERO PUSH2 0x1465 JUMPI PUSH2 0x1464 PUSH2 0x1013 JUMP JUMPDEST JUMPDEST PUSH0 PUSH2 0x1472 DUP5 DUP3 DUP6 ADD PUSH2 0x143C JUMP JUMPDEST SWAP2 POP POP SWAP3 SWAP2 POP POP JUMP JUMPDEST PUSH0 PUSH1 0x40 DUP3 ADD SWAP1 POP PUSH2 0x148E PUSH0 DUP4 ADD DUP6 PUSH2 0x10D2 JUMP JUMPDEST PUSH2 0x149B PUSH1 0x20 DUP4 ADD DUP5 PUSH2 0xFEB JUMP JUMPDEST SWAP4 SWAP3 POP POP POP JUMP JUMPDEST PUSH0 PUSH2 0x14AC DUP3 PUSH2 0xFE2 JUMP JUMPDEST SWAP2 POP PUSH2 0x14B7 DUP4 PUSH2 0xFE2 JUMP JUMPDEST SWAP3 POP DUP3 DUP3 ADD SWAP1 POP DUP1 DUP3 GT ISZERO PUSH2 0x14CF JUMPI PUSH2 0x14CE PUSH2 0x1218 JUMP JUMPDEST JUMPDEST SWAP3 SWAP2 POP POP JUMP JUMPDEST PUSH0 PUSH1 0x40 DUP3 ADD SWAP1 POP PUSH2 0x14E8 PUSH0 DUP4 ADD DUP6 PUSH2 0xFEB JUMP JUMPDEST PUSH2 0x14F5 PUSH1 0x20 DUP4 ADD DUP5 PUSH2 0xFEB JUMP JUMPDEST SWAP4 SWAP3 POP POP POP JUMP JUMPDEST PUSH32 0x4E6F7420746865206F776E657200000000000000000000000000000000000000 PUSH0 DUP3 ADD MSTORE POP JUMP JUMPDEST PUSH0 PUSH2 0x1530 PUSH1 0xD DUP4 PUSH2 0x1138 JUMP JUMPDEST SWAP2 POP PUSH2 0x153B DUP3 PUSH2 0x14FC JUMP JUMPDEST PUSH1 0x20 DUP3 ADD SWAP1 POP SWAP2 SWAP1 POP JUMP JUMPDEST PUSH0 PUSH1 0x20 DUP3 ADD SWAP1 POP DUP2 DUP2 SUB PUSH0 DUP4 ADD MSTORE PUSH2 0x155D DUP2 PUSH2 0x1524 JUMP JUMPDEST SWAP1 POP SWAP2 SWAP1 POP JUMP JUMPDEST PUSH32 0x416D6F756E7473206D7573742062652067726561746572207468616E20300000 PUSH0 DUP3 ADD MSTORE POP JUMP JUMPDEST PUSH0 PUSH2 0x1598 PUSH1 0x1E DUP4 PUSH2 0x1138 JUMP JUMPDEST SWAP2 POP PUSH2 0x15A3 DUP3 PUSH2 0x1564 JUMP JUMPDEST PUSH1 0x20 DUP3 ADD SWAP1 POP SWAP2 SWAP1 POP JUMP JUMPDEST PUSH0 PUSH1 0x20 DUP3 ADD SWAP1 POP DUP2 DUP2 SUB PUSH0 DUP4 ADD MSTORE PUSH2 0x15C5 DUP2 PUSH2 0x158C JUMP JUMPDEST SWAP1 POP SWAP2 SWAP1 POP JUMP INVALID LOG2 PUSH5 0x6970667358 0x22 SLT KECCAK256 DUP7 LOG4 0xBE 0xA6 DUP10 0xA7 0xD4 0xCA 0xDA JUMPI PUSH13 0x33867EEDD7F00B350549D030C9 NOT 0xDC 0xE3 0xB4 SWAP16 0xCB SWAP10 0xBF PUSH5 0x736F6C6343 STOP ADDMOD BYTE STOP CALLER "
				},
				"gasEstimates": {
					"creation": {
						"codeDepositCost": "1126800",
						"executionCost": "infinite",
						"totalCost": "infinite"
					},
					"external": {
						"addLiquidity(uint256,uint256)": "infinite",
						"balanceofA()": "2448",
						"balanceofB()": "2514",
						"getPrice(address)": "infinite",
						"owner()": "2530",
						"removeLiquidity(uint256,uint256)": "infinite",
						"swapAforB(uint256)": "infinite",
						"swapBforA(uint256)": "infinite",
						"tokenA()": "infinite",
						"tokenB()": "infinite"
					}
				},
				"methodIdentifiers": {
					"addLiquidity(uint256,uint256)": "9cd441da",
					"balanceofA()": "21ecb58b",
					"balanceofB()": "6009c4a0",
					"getPrice(address)": "41976e09",
					"owner()": "8da5cb5b",
					"removeLiquidity(uint256,uint256)": "9d7de6b3",
					"swapAforB(uint256)": "e4f1f70a",
					"swapBforA(uint256)": "8014a7aa",
					"tokenA()": "0fc63d10",
					"tokenB()": "5f64b55b"
				}
			},
			"storageLayout": {
				"storage": [
					{
						"astId": 81,
						"contract": "ETHKIPU/simpleDEX/simpleDEX_flattened.sol:SimpleDEX",
						"label": "tokenA",
						"offset": 0,
						"slot": "0",
						"type": "t_contract(IERC20)77"
					},
					{
						"astId": 84,
						"contract": "ETHKIPU/simpleDEX/simpleDEX_flattened.sol:SimpleDEX",
						"label": "tokenB",
						"offset": 0,
						"slot": "1",
						"type": "t_contract(IERC20)77"
					},
					{
						"astId": 86,
						"contract": "ETHKIPU/simpleDEX/simpleDEX_flattened.sol:SimpleDEX",
						"label": "balanceofA",
						"offset": 0,
						"slot": "2",
						"type": "t_uint256"
					},
					{
						"astId": 88,
						"contract": "ETHKIPU/simpleDEX/simpleDEX_flattened.sol:SimpleDEX",
						"label": "balanceofB",
						"offset": 0,
						"slot": "3",
						"type": "t_uint256"
					},
					{
						"astId": 90,
						"contract": "ETHKIPU/simpleDEX/simpleDEX_flattened.sol:SimpleDEX",
						"label": "owner",
						"offset": 0,
						"slot": "4",
						"type": "t_address"
					}
				],
				"types": {
					"t_address": {
						"encoding": "inplace",
						"label": "address",
						"numberOfBytes": "20"
					},
					"t_contract(IERC20)77": {
						"encoding": "inplace",
						"label": "contract IERC20",
						"numberOfBytes": "20"
					},
					"t_uint256": {
						"encoding": "inplace",
						"label": "uint256",
						"numberOfBytes": "32"
					}
				}
			},
			"userdoc": {
				"kind": "user",
				"methods": {},
				"version": 1
			}
		}
	}
}