{
	"ETHKIPU/simpleDEX/Dex_v2.sol": {
		"SimpleDEX": {
			"abi": [
				{
					"inputs": [
						{
							"internalType": "address",
							"name": "_tokenA",
							"type": "address"
						},
						{
							"internalType": "address",
							"name": "_tokenB",
							"type": "address"
						},
						{
							"internalType": "address",
							"name": "initialOwner",
							"type": "address"
						}
					],
					"stateMutability": "nonpayable",
					"type": "constructor"
				},
				{
					"inputs": [
						{
							"internalType": "address",
							"name": "owner",
							"type": "address"
						}
					],
					"name": "OwnableInvalidOwner",
					"type": "error"
				},
				{
					"inputs": [
						{
							"internalType": "address",
							"name": "account",
							"type": "address"
						}
					],
					"name": "OwnableUnauthorizedAccount",
					"type": "error"
				},
				{
					"anonymous": false,
					"inputs": [
						{
							"indexed": false,
							"internalType": "uint256",
							"name": "amountA",
							"type": "uint256"
						},
						{
							"indexed": false,
							"internalType": "uint256",
							"name": "amountB",
							"type": "uint256"
						}
					],
					"name": "LiquidityAdded",
					"type": "event"
				},
				{
					"anonymous": false,
					"inputs": [
						{
							"indexed": false,
							"internalType": "uint256",
							"name": "amountA",
							"type": "uint256"
						},
						{
							"indexed": false,
							"internalType": "uint256",
							"name": "amountB",
							"type": "uint256"
						}
					],
					"name": "LiquidityRemoved",
					"type": "event"
				},
				{
					"anonymous": false,
					"inputs": [
						{
							"indexed": true,
							"internalType": "address",
							"name": "previousOwner",
							"type": "address"
						},
						{
							"indexed": true,
							"internalType": "address",
							"name": "newOwner",
							"type": "address"
						}
					],
					"name": "OwnershipTransferred",
					"type": "event"
				},
				{
					"anonymous": false,
					"inputs": [
						{
							"indexed": true,
							"internalType": "address",
							"name": "user",
							"type": "address"
						},
						{
							"indexed": false,
							"internalType": "uint256",
							"name": "amountAIn",
							"type": "uint256"
						},
						{
							"indexed": false,
							"internalType": "uint256",
							"name": "amountBOut",
							"type": "uint256"
						}
					],
					"name": "TokensSwappedAB",
					"type": "event"
				},
				{
					"anonymous": false,
					"inputs": [
						{
							"indexed": true,
							"internalType": "address",
							"name": "user",
							"type": "address"
						},
						{
							"indexed": false,
							"internalType": "uint256",
							"name": "amountBIn",
							"type": "uint256"
						},
						{
							"indexed": false,
							"internalType": "uint256",
							"name": "amountAOut",
							"type": "uint256"
						}
					],
					"name": "TokensSwappedBA",
					"type": "event"
				},
				{
					"inputs": [
						{
							"internalType": "uint256",
							"name": "amountA",
							"type": "uint256"
						},
						{
							"internalType": "uint256",
							"name": "amountB",
							"type": "uint256"
						}
					],
					"name": "addLiquidity",
					"outputs": [],
					"stateMutability": "nonpayable",
					"type": "function"
				},
				{
					"inputs": [],
					"name": "balanceofA",
					"outputs": [
						{
							"internalType": "uint256",
							"name": "",
							"type": "uint256"
						}
					],
					"stateMutability": "view",
					"type": "function"
				},
				{
					"inputs": [],
					"name": "balanceofB",
					"outputs": [
						{
							"internalType": "uint256",
							"name": "",
							"type": "uint256"
						}
					],
					"stateMutability": "view",
					"type": "function"
				},
				{
					"inputs": [
						{
							"internalType": "address",
							"name": "_token",
							"type": "address"
						}
					],
					"name": "getPrice",
					"outputs": [
						{
							"internalType": "uint256",
							"name": "",
							"type": "uint256"
						}
					],
					"stateMutability": "view",
					"type": "function"
				},
				{
					"inputs": [],
					"name": "owner",
					"outputs": [
						{
							"internalType": "address",
							"name": "",
							"type": "address"
						}
					],
					"stateMutability": "view",
					"type": "function"
				},
				{
					"inputs": [
						{
							"internalType": "uint256",
							"name": "amountA",
							"type": "uint256"
						},
						{
							"internalType": "uint256",
							"name": "amountB",
							"type": "uint256"
						}
					],
					"name": "removeLiquidity",
					"outputs": [],
					"stateMutability": "nonpayable",
					"type": "function"
				},
				{
					"inputs": [],
					"name": "renounceOwnership",
					"outputs": [],
					"stateMutability": "nonpayable",
					"type": "function"
				},
				{
					"inputs": [
						{
							"internalType": "uint256",
							"name": "amountAIn",
							"type": "uint256"
						}
					],
					"name": "swapAforB",
					"outputs": [],
					"stateMutability": "nonpayable",
					"type": "function"
				},
				{
					"inputs": [
						{
							"internalType": "uint256",
							"name": "amountBIn",
							"type": "uint256"
						}
					],
					"name": "swapBforA",
					"outputs": [],
					"stateMutability": "nonpayable",
					"type": "function"
				},
				{
					"inputs": [],
					"name": "tokenA",
					"outputs": [
						{
							"internalType": "contract IERC20",
							"name": "",
							"type": "address"
						}
					],
					"stateMutability": "view",
					"type": "function"
				},
				{
					"inputs": [],
					"name": "tokenB",
					"outputs": [
						{
							"internalType": "contract IERC20",
							"name": "",
							"type": "address"
						}
					],
					"stateMutability": "view",
					"type": "function"
				},
				{
					"inputs": [
						{
							"internalType": "address",
							"name": "newOwner",
							"type": "address"
						}
					],
					"name": "transferOwnership",
					"outputs": [],
					"stateMutability": "nonpayable",
					"type": "function"
				}
			],
			"devdoc": {
				"errors": {
					"OwnableInvalidOwner(address)": [
						{
							"details": "The owner is not a valid owner account. (eg. `address(0)`)"
						}
					],
					"OwnableUnauthorizedAccount(address)": [
						{
							"details": "The caller account is not authorized to perform an operation."
						}
					]
				},
				"kind": "dev",
				"methods": {
					"owner()": {
						"details": "Returns the address of the current owner."
					},
					"renounceOwnership()": {
						"details": "Leaves the contract without owner. It will not be possible to call `onlyOwner` functions. Can only be called by the current owner. NOTE: Renouncing ownership will leave the contract without an owner, thereby disabling any functionality that is only available to the owner."
					},
					"transferOwnership(address)": {
						"details": "Transfers ownership of the contract to a new account (`newOwner`). Can only be called by the current owner."
					}
				},
				"version": 1
			},
			"evm": {
				"assembly": "    /* \"ETHKIPU/simpleDEX/Dex_v2.sol\":552:6612  contract SimpleDEX is Ownable {... */\n  mstore(0x40, 0x80)\n    /* \"ETHKIPU/simpleDEX/Dex_v2.sol\":1511:1679  constructor(address _tokenA, address _tokenB, address initialOwner) Ownable(initialOwner) {... */\n  callvalue\n  dup1\n  iszero\n  tag_1\n  jumpi\n  0x00\n  dup1\n  revert\ntag_1:\n  pop\n  mload(0x40)\n  sub(codesize, bytecodeSize)\n  dup1\n  bytecodeSize\n  dup4\n  codecopy\n  dup2\n  dup2\n  add\n  0x40\n  mstore\n  dup2\n  add\n  swap1\n  tag_2\n  swap2\n  swap1\n  tag_3\n  jump\t// in\ntag_2:\n    /* \"ETHKIPU/simpleDEX/Dex_v2.sol\":1587:1599  initialOwner */\n  dup1\n    /* \"@openzeppelin/contracts/access/Ownable.sol\":1297:1298  0 */\n  0x00\n    /* \"@openzeppelin/contracts/access/Ownable.sol\":1273:1299  initialOwner == address(0) */\n  0xffffffffffffffffffffffffffffffffffffffff\n  and\n    /* \"@openzeppelin/contracts/access/Ownable.sol\":1273:1285  initialOwner */\n  dup2\n    /* \"@openzeppelin/contracts/access/Ownable.sol\":1273:1299  initialOwner == address(0) */\n  0xffffffffffffffffffffffffffffffffffffffff\n  and\n  sub\n    /* \"@openzeppelin/contracts/access/Ownable.sol\":1269:1364  if (initialOwner == address(0)) {... */\n  tag_7\n  jumpi\n    /* \"@openzeppelin/contracts/access/Ownable.sol\":1350:1351  0 */\n  0x00\n    /* \"@openzeppelin/contracts/access/Ownable.sol\":1322:1353  OwnableInvalidOwner(address(0)) */\n  mload(0x40)\n  0x1e4fbdf700000000000000000000000000000000000000000000000000000000\n  dup2\n  mstore\n  0x04\n  add\n  tag_8\n  swap2\n  swap1\n  tag_9\n  jump\t// in\ntag_8:\n  mload(0x40)\n  dup1\n  swap2\n  sub\n  swap1\n  revert\n    /* \"@openzeppelin/contracts/access/Ownable.sol\":1269:1364  if (initialOwner == address(0)) {... */\ntag_7:\n    /* \"@openzeppelin/contracts/access/Ownable.sol\":1373:1405  _transferOwnership(initialOwner) */\n  tag_10\n    /* \"@openzeppelin/contracts/access/Ownable.sol\":1392:1404  initialOwner */\n  dup2\n    /* \"@openzeppelin/contracts/access/Ownable.sol\":1373:1391  _transferOwnership */\n  shl(0x20, tag_11)\n    /* \"@openzeppelin/contracts/access/Ownable.sol\":1373:1405  _transferOwnership(initialOwner) */\n  0x20\n  shr\n  jump\t// in\ntag_10:\n    /* \"@openzeppelin/contracts/access/Ownable.sol\":1225:1412  constructor(address initialOwner) {... */\n  pop\n    /* \"ETHKIPU/simpleDEX/Dex_v2.sol\":1628:1635  _tokenA */\n  dup3\n    /* \"ETHKIPU/simpleDEX/Dex_v2.sol\":1612:1618  tokenA */\n  0x01\n  0x00\n    /* \"ETHKIPU/simpleDEX/Dex_v2.sol\":1612:1636  tokenA = IERC20(_tokenA) */\n  0x0100\n  exp\n  dup2\n  sload\n  dup2\n  0xffffffffffffffffffffffffffffffffffffffff\n  mul\n  not\n  and\n  swap1\n  dup4\n  0xffffffffffffffffffffffffffffffffffffffff\n  and\n  mul\n  or\n  swap1\n  sstore\n  pop\n    /* \"ETHKIPU/simpleDEX/Dex_v2.sol\":1663:1670  _tokenB */\n  dup2\n    /* \"ETHKIPU/simpleDEX/Dex_v2.sol\":1647:1653  tokenB */\n  0x02\n  0x00\n    /* \"ETHKIPU/simpleDEX/Dex_v2.sol\":1647:1671  tokenB = IERC20(_tokenB) */\n  0x0100\n  exp\n  dup2\n  sload\n  dup2\n  0xffffffffffffffffffffffffffffffffffffffff\n  mul\n  not\n  and\n  swap1\n  dup4\n  0xffffffffffffffffffffffffffffffffffffffff\n  and\n  mul\n  or\n  swap1\n  sstore\n  pop\n    /* \"ETHKIPU/simpleDEX/Dex_v2.sol\":1511:1679  constructor(address _tokenA, address _tokenB, address initialOwner) Ownable(initialOwner) {... */\n  pop\n  pop\n  pop\n    /* \"ETHKIPU/simpleDEX/Dex_v2.sol\":552:6612  contract SimpleDEX is Ownable {... */\n  jump(tag_13)\n    /* \"@openzeppelin/contracts/access/Ownable.sol\":2912:3099  function _transferOwnership(address newOwner) internal virtual {... */\ntag_11:\n    /* \"@openzeppelin/contracts/access/Ownable.sol\":2985:3001  address oldOwner */\n  0x00\n    /* \"@openzeppelin/contracts/access/Ownable.sol\":3004:3010  _owner */\n  dup1\n  0x00\n  swap1\n  sload\n  swap1\n  0x0100\n  exp\n  swap1\n  div\n  0xffffffffffffffffffffffffffffffffffffffff\n  and\n    /* \"@openzeppelin/contracts/access/Ownable.sol\":2985:3010  address oldOwner = _owner */\n  swap1\n  pop\n    /* \"@openzeppelin/contracts/access/Ownable.sol\":3029:3037  newOwner */\n  dup2\n    /* \"@openzeppelin/contracts/access/Ownable.sol\":3020:3026  _owner */\n  0x00\n  dup1\n    /* \"@openzeppelin/contracts/access/Ownable.sol\":3020:3037  _owner = newOwner */\n  0x0100\n  exp\n  dup2\n  sload\n  dup2\n  0xffffffffffffffffffffffffffffffffffffffff\n  mul\n  not\n  and\n  swap1\n  dup4\n  0xffffffffffffffffffffffffffffffffffffffff\n  and\n  mul\n  or\n  swap1\n  sstore\n  pop\n    /* \"@openzeppelin/contracts/access/Ownable.sol\":3083:3091  newOwner */\n  dup2\n    /* \"@openzeppelin/contracts/access/Ownable.sol\":3052:3092  OwnershipTransferred(oldOwner, newOwner) */\n  0xffffffffffffffffffffffffffffffffffffffff\n  and\n    /* \"@openzeppelin/contracts/access/Ownable.sol\":3073:3081  oldOwner */\n  dup2\n    /* \"@openzeppelin/contracts/access/Ownable.sol\":3052:3092  OwnershipTransferred(oldOwner, newOwner) */\n  0xffffffffffffffffffffffffffffffffffffffff\n  and\n  0x8be0079c531659141344cd1fd0a4f28419497f9722a3daafe3b4186f6b6457e0\n  mload(0x40)\n  mload(0x40)\n  dup1\n  swap2\n  sub\n  swap1\n  log3\n    /* \"@openzeppelin/contracts/access/Ownable.sol\":2975:3099  {... */\n  pop\n    /* \"@openzeppelin/contracts/access/Ownable.sol\":2912:3099  function _transferOwnership(address newOwner) internal virtual {... */\n  pop\n  jump\t// out\n    /* \"#utility.yul\":88:205   */\ntag_16:\n    /* \"#utility.yul\":197:198   */\n  0x00\n    /* \"#utility.yul\":194:195   */\n  dup1\n    /* \"#utility.yul\":187:199   */\n  revert\n    /* \"#utility.yul\":334:460   */\ntag_18:\n    /* \"#utility.yul\":371:378   */\n  0x00\n    /* \"#utility.yul\":411:453   */\n  0xffffffffffffffffffffffffffffffffffffffff\n    /* \"#utility.yul\":404:409   */\n  dup3\n    /* \"#utility.yul\":400:454   */\n  and\n    /* \"#utility.yul\":389:454   */\n  swap1\n  pop\n    /* \"#utility.yul\":334:460   */\n  swap2\n  swap1\n  pop\n  jump\t// out\n    /* \"#utility.yul\":466:562   */\ntag_19:\n    /* \"#utility.yul\":503:510   */\n  0x00\n    /* \"#utility.yul\":532:556   */\n  tag_29\n    /* \"#utility.yul\":550:555   */\n  dup3\n    /* \"#utility.yul\":532:556   */\n  tag_18\n  jump\t// in\ntag_29:\n    /* \"#utility.yul\":521:556   */\n  swap1\n  pop\n    /* \"#utility.yul\":466:562   */\n  swap2\n  swap1\n  pop\n  jump\t// out\n    /* \"#utility.yul\":568:690   */\ntag_20:\n    /* \"#utility.yul\":641:665   */\n  tag_31\n    /* \"#utility.yul\":659:664   */\n  dup2\n    /* \"#utility.yul\":641:665   */\n  tag_19\n  jump\t// in\ntag_31:\n    /* \"#utility.yul\":634:639   */\n  dup2\n    /* \"#utility.yul\":631:666   */\n  eq\n    /* \"#utility.yul\":621:684   */\n  tag_32\n  jumpi\n    /* \"#utility.yul\":680:681   */\n  0x00\n    /* \"#utility.yul\":677:678   */\n  dup1\n    /* \"#utility.yul\":670:682   */\n  revert\n    /* \"#utility.yul\":621:684   */\ntag_32:\n    /* \"#utility.yul\":568:690   */\n  pop\n  jump\t// out\n    /* \"#utility.yul\":696:839   */\ntag_21:\n    /* \"#utility.yul\":753:758   */\n  0x00\n    /* \"#utility.yul\":784:790   */\n  dup2\n    /* \"#utility.yul\":778:791   */\n  mload\n    /* \"#utility.yul\":769:791   */\n  swap1\n  pop\n    /* \"#utility.yul\":800:833   */\n  tag_34\n    /* \"#utility.yul\":827:832   */\n  dup2\n    /* \"#utility.yul\":800:833   */\n  tag_20\n  jump\t// in\ntag_34:\n    /* \"#utility.yul\":696:839   */\n  swap3\n  swap2\n  pop\n  pop\n  jump\t// out\n    /* \"#utility.yul\":845:1508   */\ntag_3:\n    /* \"#utility.yul\":933:939   */\n  0x00\n    /* \"#utility.yul\":941:947   */\n  dup1\n    /* \"#utility.yul\":949:955   */\n  0x00\n    /* \"#utility.yul\":998:1000   */\n  0x60\n    /* \"#utility.yul\":986:995   */\n  dup5\n    /* \"#utility.yul\":977:984   */\n  dup7\n    /* \"#utility.yul\":973:996   */\n  sub\n    /* \"#utility.yul\":969:1001   */\n  slt\n    /* \"#utility.yul\":966:1085   */\n  iszero\n  tag_36\n  jumpi\n    /* \"#utility.yul\":1004:1083   */\n  tag_37\n  tag_16\n  jump\t// in\ntag_37:\n    /* \"#utility.yul\":966:1085   */\ntag_36:\n    /* \"#utility.yul\":1124:1125   */\n  0x00\n    /* \"#utility.yul\":1149:1213   */\n  tag_38\n    /* \"#utility.yul\":1205:1212   */\n  dup7\n    /* \"#utility.yul\":1196:1202   */\n  dup3\n    /* \"#utility.yul\":1185:1194   */\n  dup8\n    /* \"#utility.yul\":1181:1203   */\n  add\n    /* \"#utility.yul\":1149:1213   */\n  tag_21\n  jump\t// in\ntag_38:\n    /* \"#utility.yul\":1139:1213   */\n  swap4\n  pop\n    /* \"#utility.yul\":1095:1223   */\n  pop\n    /* \"#utility.yul\":1262:1264   */\n  0x20\n    /* \"#utility.yul\":1288:1352   */\n  tag_39\n    /* \"#utility.yul\":1344:1351   */\n  dup7\n    /* \"#utility.yul\":1335:1341   */\n  dup3\n    /* \"#utility.yul\":1324:1333   */\n  dup8\n    /* \"#utility.yul\":1320:1342   */\n  add\n    /* \"#utility.yul\":1288:1352   */\n  tag_21\n  jump\t// in\ntag_39:\n    /* \"#utility.yul\":1278:1352   */\n  swap3\n  pop\n    /* \"#utility.yul\":1233:1362   */\n  pop\n    /* \"#utility.yul\":1401:1403   */\n  0x40\n    /* \"#utility.yul\":1427:1491   */\n  tag_40\n    /* \"#utility.yul\":1483:1490   */\n  dup7\n    /* \"#utility.yul\":1474:1480   */\n  dup3\n    /* \"#utility.yul\":1463:1472   */\n  dup8\n    /* \"#utility.yul\":1459:1481   */\n  add\n    /* \"#utility.yul\":1427:1491   */\n  tag_21\n  jump\t// in\ntag_40:\n    /* \"#utility.yul\":1417:1491   */\n  swap2\n  pop\n    /* \"#utility.yul\":1372:1501   */\n  pop\n    /* \"#utility.yul\":845:1508   */\n  swap3\n  pop\n  swap3\n  pop\n  swap3\n  jump\t// out\n    /* \"#utility.yul\":1514:1632   */\ntag_22:\n    /* \"#utility.yul\":1601:1625   */\n  tag_42\n    /* \"#utility.yul\":1619:1624   */\n  dup2\n    /* \"#utility.yul\":1601:1625   */\n  tag_19\n  jump\t// in\ntag_42:\n    /* \"#utility.yul\":1596:1599   */\n  dup3\n    /* \"#utility.yul\":1589:1626   */\n  mstore\n    /* \"#utility.yul\":1514:1632   */\n  pop\n  pop\n  jump\t// out\n    /* \"#utility.yul\":1638:1860   */\ntag_9:\n    /* \"#utility.yul\":1731:1735   */\n  0x00\n    /* \"#utility.yul\":1769:1771   */\n  0x20\n    /* \"#utility.yul\":1758:1767   */\n  dup3\n    /* \"#utility.yul\":1754:1772   */\n  add\n    /* \"#utility.yul\":1746:1772   */\n  swap1\n  pop\n    /* \"#utility.yul\":1782:1853   */\n  tag_44\n    /* \"#utility.yul\":1850:1851   */\n  0x00\n    /* \"#utility.yul\":1839:1848   */\n  dup4\n    /* \"#utility.yul\":1835:1852   */\n  add\n    /* \"#utility.yul\":1826:1832   */\n  dup5\n    /* \"#utility.yul\":1782:1853   */\n  tag_22\n  jump\t// in\ntag_44:\n    /* \"#utility.yul\":1638:1860   */\n  swap3\n  swap2\n  pop\n  pop\n  jump\t// out\n    /* \"ETHKIPU/simpleDEX/Dex_v2.sol\":552:6612  contract SimpleDEX is Ownable {... */\ntag_13:\n  dataSize(sub_0)\n  dup1\n  dataOffset(sub_0)\n  0x00\n  codecopy\n  0x00\n  return\nstop\n\nsub_0: assembly {\n        /* \"ETHKIPU/simpleDEX/Dex_v2.sol\":552:6612  contract SimpleDEX is Ownable {... */\n      mstore(0x40, 0x80)\n      callvalue\n      dup1\n      iszero\n      tag_1\n      jumpi\n      0x00\n      dup1\n      revert\n    tag_1:\n      pop\n      jumpi(tag_2, lt(calldatasize, 0x04))\n      shr(0xe0, calldataload(0x00))\n      dup1\n      0x8014a7aa\n      gt\n      tag_15\n      jumpi\n      dup1\n      0x8014a7aa\n      eq\n      tag_9\n      jumpi\n      dup1\n      0x8da5cb5b\n      eq\n      tag_10\n      jumpi\n      dup1\n      0x9cd441da\n      eq\n      tag_11\n      jumpi\n      dup1\n      0x9d7de6b3\n      eq\n      tag_12\n      jumpi\n      dup1\n      0xe4f1f70a\n      eq\n      tag_13\n      jumpi\n      dup1\n      0xf2fde38b\n      eq\n      tag_14\n      jumpi\n      jump(tag_2)\n    tag_15:\n      dup1\n      0x0fc63d10\n      eq\n      tag_3\n      jumpi\n      dup1\n      0x21ecb58b\n      eq\n      tag_4\n      jumpi\n      dup1\n      0x41976e09\n      eq\n      tag_5\n      jumpi\n      dup1\n      0x5f64b55b\n      eq\n      tag_6\n      jumpi\n      dup1\n      0x6009c4a0\n      eq\n      tag_7\n      jumpi\n      dup1\n      0x715018a6\n      eq\n      tag_8\n      jumpi\n    tag_2:\n      0x00\n      dup1\n      revert\n        /* \"ETHKIPU/simpleDEX/Dex_v2.sol\":589:609  IERC20 public tokenA */\n    tag_3:\n      tag_16\n      tag_17\n      jump\t// in\n    tag_16:\n      mload(0x40)\n      tag_18\n      swap2\n      swap1\n      tag_19\n      jump\t// in\n    tag_18:\n      mload(0x40)\n      dup1\n      swap2\n      sub\n      swap1\n      return\n        /* \"ETHKIPU/simpleDEX/Dex_v2.sol\":769:794  uint256 public balanceofA */\n    tag_4:\n      tag_20\n      tag_21\n      jump\t// in\n    tag_20:\n      mload(0x40)\n      tag_22\n      swap2\n      swap1\n      tag_23\n      jump\t// in\n    tag_22:\n      mload(0x40)\n      dup1\n      swap2\n      sub\n      swap1\n      return\n        /* \"ETHKIPU/simpleDEX/Dex_v2.sol\":6076:6609  function getPrice(address _token) external view EnoughLiquidity returns (uint256) {... */\n    tag_5:\n      tag_24\n      0x04\n      dup1\n      calldatasize\n      sub\n      dup2\n      add\n      swap1\n      tag_25\n      swap2\n      swap1\n      tag_26\n      jump\t// in\n    tag_25:\n      tag_27\n      jump\t// in\n    tag_24:\n      mload(0x40)\n      tag_28\n      swap2\n      swap1\n      tag_23\n      jump\t// in\n    tag_28:\n      mload(0x40)\n      dup1\n      swap2\n      sub\n      swap1\n      return\n        /* \"ETHKIPU/simpleDEX/Dex_v2.sol\":679:699  IERC20 public tokenB */\n    tag_6:\n      tag_29\n      tag_30\n      jump\t// in\n    tag_29:\n      mload(0x40)\n      tag_31\n      swap2\n      swap1\n      tag_19\n      jump\t// in\n    tag_31:\n      mload(0x40)\n      dup1\n      swap2\n      sub\n      swap1\n      return\n        /* \"ETHKIPU/simpleDEX/Dex_v2.sol\":854:879  uint256 public balanceofB */\n    tag_7:\n      tag_32\n      tag_33\n      jump\t// in\n    tag_32:\n      mload(0x40)\n      tag_34\n      swap2\n      swap1\n      tag_23\n      jump\t// in\n    tag_34:\n      mload(0x40)\n      dup1\n      swap2\n      sub\n      swap1\n      return\n        /* \"@openzeppelin/contracts/access/Ownable.sol\":2293:2394  function renounceOwnership() public virtual onlyOwner {... */\n    tag_8:\n      tag_35\n      tag_36\n      jump\t// in\n    tag_35:\n      stop\n        /* \"ETHKIPU/simpleDEX/Dex_v2.sol\":4011:5276  function swapBforA(uint256 amountBIn) external EnoughLiquidity {... */\n    tag_9:\n      tag_37\n      0x04\n      dup1\n      calldatasize\n      sub\n      dup2\n      add\n      swap1\n      tag_38\n      swap2\n      swap1\n      tag_39\n      jump\t// in\n    tag_38:\n      tag_40\n      jump\t// in\n    tag_37:\n      stop\n        /* \"@openzeppelin/contracts/access/Ownable.sol\":1638:1723  function owner() public view virtual returns (address) {... */\n    tag_10:\n      tag_41\n      tag_42\n      jump\t// in\n    tag_41:\n      mload(0x40)\n      tag_43\n      swap2\n      swap1\n      tag_44\n      jump\t// in\n    tag_43:\n      mload(0x40)\n      dup1\n      swap2\n      sub\n      swap1\n      return\n        /* \"ETHKIPU/simpleDEX/Dex_v2.sol\":1948:2668  function addLiquidity(uint256 amountA, uint256 amountB) external onlyOwner {... */\n    tag_11:\n      tag_45\n      0x04\n      dup1\n      calldatasize\n      sub\n      dup2\n      add\n      swap1\n      tag_46\n      swap2\n      swap1\n      tag_47\n      jump\t// in\n    tag_46:\n      tag_48\n      jump\t// in\n    tag_45:\n      stop\n        /* \"ETHKIPU/simpleDEX/Dex_v2.sol\":5327:5993  function removeLiquidity(uint256 amountA, uint256 amountB) external onlyOwner EnoughLiquidity {... */\n    tag_12:\n      tag_49\n      0x04\n      dup1\n      calldatasize\n      sub\n      dup2\n      add\n      swap1\n      tag_50\n      swap2\n      swap1\n      tag_47\n      jump\t// in\n    tag_50:\n      tag_51\n      jump\t// in\n    tag_49:\n      stop\n        /* \"ETHKIPU/simpleDEX/Dex_v2.sol\":2707:3970  function swapAforB(uint256 amountAIn) external EnoughLiquidity {... */\n    tag_13:\n      tag_52\n      0x04\n      dup1\n      calldatasize\n      sub\n      dup2\n      add\n      swap1\n      tag_53\n      swap2\n      swap1\n      tag_39\n      jump\t// in\n    tag_53:\n      tag_54\n      jump\t// in\n    tag_52:\n      stop\n        /* \"@openzeppelin/contracts/access/Ownable.sol\":2543:2758  function transferOwnership(address newOwner) public virtual onlyOwner {... */\n    tag_14:\n      tag_55\n      0x04\n      dup1\n      calldatasize\n      sub\n      dup2\n      add\n      swap1\n      tag_56\n      swap2\n      swap1\n      tag_26\n      jump\t// in\n    tag_56:\n      tag_57\n      jump\t// in\n    tag_55:\n      stop\n        /* \"ETHKIPU/simpleDEX/Dex_v2.sol\":589:609  IERC20 public tokenA */\n    tag_17:\n      0x01\n      0x00\n      swap1\n      sload\n      swap1\n      0x0100\n      exp\n      swap1\n      div\n      0xffffffffffffffffffffffffffffffffffffffff\n      and\n      dup2\n      jump\t// out\n        /* \"ETHKIPU/simpleDEX/Dex_v2.sol\":769:794  uint256 public balanceofA */\n    tag_21:\n      sload(0x03)\n      dup2\n      jump\t// out\n        /* \"ETHKIPU/simpleDEX/Dex_v2.sol\":6076:6609  function getPrice(address _token) external view EnoughLiquidity returns (uint256) {... */\n    tag_27:\n        /* \"ETHKIPU/simpleDEX/Dex_v2.sol\":6149:6156  uint256 */\n      0x00\n        /* \"ETHKIPU/simpleDEX/Dex_v2.sol\":1801:1802  0 */\n      dup1\n        /* \"ETHKIPU/simpleDEX/Dex_v2.sol\":1788:1798  balanceofA */\n      sload(0x03)\n        /* \"ETHKIPU/simpleDEX/Dex_v2.sol\":1788:1802  balanceofA > 0 */\n      gt\n        /* \"ETHKIPU/simpleDEX/Dex_v2.sol\":1788:1820  balanceofA > 0 && balanceofB > 0 */\n      dup1\n      iszero\n      tag_59\n      jumpi\n      pop\n        /* \"ETHKIPU/simpleDEX/Dex_v2.sol\":1819:1820  0 */\n      0x00\n        /* \"ETHKIPU/simpleDEX/Dex_v2.sol\":1806:1816  balanceofB */\n      sload(0x04)\n        /* \"ETHKIPU/simpleDEX/Dex_v2.sol\":1806:1820  balanceofB > 0 */\n      gt\n        /* \"ETHKIPU/simpleDEX/Dex_v2.sol\":1788:1820  balanceofA > 0 && balanceofB > 0 */\n    tag_59:\n        /* \"ETHKIPU/simpleDEX/Dex_v2.sol\":1780:1845  require(balanceofA > 0 && balanceofB > 0, \"Not enough liquidity\") */\n      tag_60\n      jumpi\n      mload(0x40)\n      0x08c379a000000000000000000000000000000000000000000000000000000000\n      dup2\n      mstore\n      0x04\n      add\n      tag_61\n      swap1\n      tag_62\n      jump\t// in\n    tag_61:\n      mload(0x40)\n      dup1\n      swap2\n      sub\n      swap1\n      revert\n    tag_60:\n        /* \"ETHKIPU/simpleDEX/Dex_v2.sol\":6195:6201  tokenA */\n      0x01\n      0x00\n      swap1\n      sload\n      swap1\n      0x0100\n      exp\n      swap1\n      div\n      0xffffffffffffffffffffffffffffffffffffffff\n      and\n        /* \"ETHKIPU/simpleDEX/Dex_v2.sol\":6177:6202  _token == address(tokenA) */\n      0xffffffffffffffffffffffffffffffffffffffff\n      and\n        /* \"ETHKIPU/simpleDEX/Dex_v2.sol\":6177:6183  _token */\n      dup3\n        /* \"ETHKIPU/simpleDEX/Dex_v2.sol\":6177:6202  _token == address(tokenA) */\n      0xffffffffffffffffffffffffffffffffffffffff\n      and\n      eq\n        /* \"ETHKIPU/simpleDEX/Dex_v2.sol\":6177:6231  _token == address(tokenA) || _token == address(tokenB) */\n      dup1\n      tag_64\n      jumpi\n      pop\n        /* \"ETHKIPU/simpleDEX/Dex_v2.sol\":6224:6230  tokenB */\n      0x02\n      0x00\n      swap1\n      sload\n      swap1\n      0x0100\n      exp\n      swap1\n      div\n      0xffffffffffffffffffffffffffffffffffffffff\n      and\n        /* \"ETHKIPU/simpleDEX/Dex_v2.sol\":6206:6231  _token == address(tokenB) */\n      0xffffffffffffffffffffffffffffffffffffffff\n      and\n        /* \"ETHKIPU/simpleDEX/Dex_v2.sol\":6206:6212  _token */\n      dup3\n        /* \"ETHKIPU/simpleDEX/Dex_v2.sol\":6206:6231  _token == address(tokenB) */\n      0xffffffffffffffffffffffffffffffffffffffff\n      and\n      eq\n        /* \"ETHKIPU/simpleDEX/Dex_v2.sol\":6177:6231  _token == address(tokenA) || _token == address(tokenB) */\n    tag_64:\n        /* \"ETHKIPU/simpleDEX/Dex_v2.sol\":6169:6257  require(_token == address(tokenA) || _token == address(tokenB), \"Invalid token address\") */\n      tag_65\n      jumpi\n      mload(0x40)\n      0x08c379a000000000000000000000000000000000000000000000000000000000\n      dup2\n      mstore\n      0x04\n      add\n      tag_66\n      swap1\n      tag_67\n      jump\t// in\n    tag_66:\n      mload(0x40)\n      dup1\n      swap2\n      sub\n      swap1\n      revert\n    tag_65:\n        /* \"ETHKIPU/simpleDEX/Dex_v2.sol\":6331:6337  tokenA */\n      0x01\n      0x00\n      swap1\n      sload\n      swap1\n      0x0100\n      exp\n      swap1\n      div\n      0xffffffffffffffffffffffffffffffffffffffff\n      and\n        /* \"ETHKIPU/simpleDEX/Dex_v2.sol\":6313:6338  _token == address(tokenA) */\n      0xffffffffffffffffffffffffffffffffffffffff\n      and\n        /* \"ETHKIPU/simpleDEX/Dex_v2.sol\":6313:6319  _token */\n      dup3\n        /* \"ETHKIPU/simpleDEX/Dex_v2.sol\":6313:6338  _token == address(tokenA) */\n      0xffffffffffffffffffffffffffffffffffffffff\n      and\n      sub\n        /* \"ETHKIPU/simpleDEX/Dex_v2.sol\":6309:6602  if (_token == address(tokenA)) { //If it is tokenA, it returns the result of balanceB/balanceA... */\n      tag_68\n      jumpi\n        /* \"ETHKIPU/simpleDEX/Dex_v2.sol\":6446:6456  balanceofA */\n      sload(0x03)\n        /* \"ETHKIPU/simpleDEX/Dex_v2.sol\":6438:6442  1e18 */\n      0x0de0b6b3a7640000\n        /* \"ETHKIPU/simpleDEX/Dex_v2.sol\":6425:6435  balanceofB */\n      sload(0x04)\n        /* \"ETHKIPU/simpleDEX/Dex_v2.sol\":6425:6442  balanceofB * 1e18 */\n      tag_69\n      swap2\n      swap1\n      tag_70\n      jump\t// in\n    tag_69:\n        /* \"ETHKIPU/simpleDEX/Dex_v2.sol\":6424:6456  (balanceofB * 1e18) / balanceofA */\n      tag_71\n      swap2\n      swap1\n      tag_72\n      jump\t// in\n    tag_71:\n        /* \"ETHKIPU/simpleDEX/Dex_v2.sol\":6417:6456  return (balanceofB * 1e18) / balanceofA */\n      swap1\n      pop\n      jump(tag_63)\n        /* \"ETHKIPU/simpleDEX/Dex_v2.sol\":6309:6602  if (_token == address(tokenA)) { //If it is tokenA, it returns the result of balanceB/balanceA... */\n    tag_68:\n        /* \"ETHKIPU/simpleDEX/Dex_v2.sol\":6580:6590  balanceofB */\n      sload(0x04)\n        /* \"ETHKIPU/simpleDEX/Dex_v2.sol\":6572:6576  1e18 */\n      0x0de0b6b3a7640000\n        /* \"ETHKIPU/simpleDEX/Dex_v2.sol\":6559:6569  balanceofA */\n      sload(0x03)\n        /* \"ETHKIPU/simpleDEX/Dex_v2.sol\":6559:6576  balanceofA * 1e18 */\n      tag_74\n      swap2\n      swap1\n      tag_70\n      jump\t// in\n    tag_74:\n        /* \"ETHKIPU/simpleDEX/Dex_v2.sol\":6558:6590  (balanceofA * 1e18) / balanceofB */\n      tag_75\n      swap2\n      swap1\n      tag_72\n      jump\t// in\n    tag_75:\n        /* \"ETHKIPU/simpleDEX/Dex_v2.sol\":6551:6590  return (balanceofA * 1e18) / balanceofB */\n      swap1\n      pop\n        /* \"ETHKIPU/simpleDEX/Dex_v2.sol\":1857:1858  _ */\n    tag_63:\n        /* \"ETHKIPU/simpleDEX/Dex_v2.sol\":6076:6609  function getPrice(address _token) external view EnoughLiquidity returns (uint256) {... */\n      swap2\n      swap1\n      pop\n      jump\t// out\n        /* \"ETHKIPU/simpleDEX/Dex_v2.sol\":679:699  IERC20 public tokenB */\n    tag_30:\n      0x02\n      0x00\n      swap1\n      sload\n      swap1\n      0x0100\n      exp\n      swap1\n      div\n      0xffffffffffffffffffffffffffffffffffffffff\n      and\n      dup2\n      jump\t// out\n        /* \"ETHKIPU/simpleDEX/Dex_v2.sol\":854:879  uint256 public balanceofB */\n    tag_33:\n      sload(0x04)\n      dup2\n      jump\t// out\n        /* \"@openzeppelin/contracts/access/Ownable.sol\":2293:2394  function renounceOwnership() public virtual onlyOwner {... */\n    tag_36:\n        /* \"@openzeppelin/contracts/access/Ownable.sol\":1531:1544  _checkOwner() */\n      tag_77\n        /* \"@openzeppelin/contracts/access/Ownable.sol\":1531:1542  _checkOwner */\n      tag_78\n        /* \"@openzeppelin/contracts/access/Ownable.sol\":1531:1544  _checkOwner() */\n      jump\t// in\n    tag_77:\n        /* \"@openzeppelin/contracts/access/Ownable.sol\":2357:2387  _transferOwnership(address(0)) */\n      tag_80\n        /* \"@openzeppelin/contracts/access/Ownable.sol\":2384:2385  0 */\n      0x00\n        /* \"@openzeppelin/contracts/access/Ownable.sol\":2357:2375  _transferOwnership */\n      tag_81\n        /* \"@openzeppelin/contracts/access/Ownable.sol\":2357:2387  _transferOwnership(address(0)) */\n      jump\t// in\n    tag_80:\n        /* \"@openzeppelin/contracts/access/Ownable.sol\":2293:2394  function renounceOwnership() public virtual onlyOwner {... */\n      jump\t// out\n        /* \"ETHKIPU/simpleDEX/Dex_v2.sol\":4011:5276  function swapBforA(uint256 amountBIn) external EnoughLiquidity {... */\n    tag_40:\n        /* \"ETHKIPU/simpleDEX/Dex_v2.sol\":1801:1802  0 */\n      0x00\n        /* \"ETHKIPU/simpleDEX/Dex_v2.sol\":1788:1798  balanceofA */\n      sload(0x03)\n        /* \"ETHKIPU/simpleDEX/Dex_v2.sol\":1788:1802  balanceofA > 0 */\n      gt\n        /* \"ETHKIPU/simpleDEX/Dex_v2.sol\":1788:1820  balanceofA > 0 && balanceofB > 0 */\n      dup1\n      iszero\n      tag_83\n      jumpi\n      pop\n        /* \"ETHKIPU/simpleDEX/Dex_v2.sol\":1819:1820  0 */\n      0x00\n        /* \"ETHKIPU/simpleDEX/Dex_v2.sol\":1806:1816  balanceofB */\n      sload(0x04)\n        /* \"ETHKIPU/simpleDEX/Dex_v2.sol\":1806:1820  balanceofB > 0 */\n      gt\n        /* \"ETHKIPU/simpleDEX/Dex_v2.sol\":1788:1820  balanceofA > 0 && balanceofB > 0 */\n    tag_83:\n        /* \"ETHKIPU/simpleDEX/Dex_v2.sol\":1780:1845  require(balanceofA > 0 && balanceofB > 0, \"Not enough liquidity\") */\n      tag_84\n      jumpi\n      mload(0x40)\n      0x08c379a000000000000000000000000000000000000000000000000000000000\n      dup2\n      mstore\n      0x04\n      add\n      tag_85\n      swap1\n      tag_62\n      jump\t// in\n    tag_85:\n      mload(0x40)\n      dup1\n      swap2\n      sub\n      swap1\n      revert\n    tag_84:\n        /* \"ETHKIPU/simpleDEX/Dex_v2.sol\":4105:4106  0 */\n      0x00\n        /* \"ETHKIPU/simpleDEX/Dex_v2.sol\":4093:4102  amountBIn */\n      dup2\n        /* \"ETHKIPU/simpleDEX/Dex_v2.sol\":4093:4106  amountBIn > 0 */\n      gt\n        /* \"ETHKIPU/simpleDEX/Dex_v2.sol\":4085:4140  require(amountBIn > 0, \"Amount must be greater than 0\") */\n      tag_87\n      jumpi\n      mload(0x40)\n      0x08c379a000000000000000000000000000000000000000000000000000000000\n      dup2\n      mstore\n      0x04\n      add\n      tag_88\n      swap1\n      tag_89\n      jump\t// in\n    tag_88:\n      mload(0x40)\n      dup1\n      swap2\n      sub\n      swap1\n      revert\n    tag_87:\n        /* \"ETHKIPU/simpleDEX/Dex_v2.sol\":4363:4382  uint256 denominator */\n      0x00\n        /* \"ETHKIPU/simpleDEX/Dex_v2.sol\":4398:4407  amountBIn */\n      dup2\n        /* \"ETHKIPU/simpleDEX/Dex_v2.sol\":4385:4395  balanceofB */\n      sload(0x04)\n        /* \"ETHKIPU/simpleDEX/Dex_v2.sol\":4385:4407  balanceofB + amountBIn */\n      tag_90\n      swap2\n      swap1\n      tag_91\n      jump\t// in\n    tag_90:\n        /* \"ETHKIPU/simpleDEX/Dex_v2.sol\":4363:4407  uint256 denominator = balanceofB + amountBIn */\n      swap1\n      pop\n        /* \"ETHKIPU/simpleDEX/Dex_v2.sol\":4428:4444  uint256 fraction */\n      0x00\n        /* \"ETHKIPU/simpleDEX/Dex_v2.sol\":4475:4486  denominator */\n      dup2\n        /* \"ETHKIPU/simpleDEX/Dex_v2.sol\":4461:4471  balanceofB */\n      sload(0x04)\n        /* \"ETHKIPU/simpleDEX/Dex_v2.sol\":4448:4458  balanceofA */\n      sload(0x03)\n        /* \"ETHKIPU/simpleDEX/Dex_v2.sol\":4448:4471  balanceofA * balanceofB */\n      tag_92\n      swap2\n      swap1\n      tag_70\n      jump\t// in\n    tag_92:\n        /* \"ETHKIPU/simpleDEX/Dex_v2.sol\":4447:4486  (balanceofA * balanceofB) / denominator */\n      tag_93\n      swap2\n      swap1\n      tag_72\n      jump\t// in\n    tag_93:\n        /* \"ETHKIPU/simpleDEX/Dex_v2.sol\":4428:4486  uint256 fraction = (balanceofA * balanceofB) / denominator */\n      swap1\n      pop\n        /* \"ETHKIPU/simpleDEX/Dex_v2.sol\":4513:4531  uint256 amountAOut */\n      0x00\n        /* \"ETHKIPU/simpleDEX/Dex_v2.sol\":4547:4555  fraction */\n      dup2\n        /* \"ETHKIPU/simpleDEX/Dex_v2.sol\":4534:4544  balanceofA */\n      sload(0x03)\n        /* \"ETHKIPU/simpleDEX/Dex_v2.sol\":4534:4555  balanceofA - fraction */\n      tag_94\n      swap2\n      swap1\n      tag_95\n      jump\t// in\n    tag_94:\n        /* \"ETHKIPU/simpleDEX/Dex_v2.sol\":4513:4555  uint256 amountAOut = balanceofA - fraction */\n      swap1\n      pop\n        /* \"ETHKIPU/simpleDEX/Dex_v2.sol\":4612:4613  0 */\n      0x00\n        /* \"ETHKIPU/simpleDEX/Dex_v2.sol\":4599:4609  amountAOut */\n      dup2\n        /* \"ETHKIPU/simpleDEX/Dex_v2.sol\":4599:4613  amountAOut > 0 */\n      gt\n        /* \"ETHKIPU/simpleDEX/Dex_v2.sol\":4599:4641  amountAOut > 0 && amountAOut <= balanceofA */\n      dup1\n      iszero\n      tag_96\n      jumpi\n      pop\n        /* \"ETHKIPU/simpleDEX/Dex_v2.sol\":4631:4641  balanceofA */\n      sload(0x03)\n        /* \"ETHKIPU/simpleDEX/Dex_v2.sol\":4617:4627  amountAOut */\n      dup2\n        /* \"ETHKIPU/simpleDEX/Dex_v2.sol\":4617:4641  amountAOut <= balanceofA */\n      gt\n      iszero\n        /* \"ETHKIPU/simpleDEX/Dex_v2.sol\":4599:4641  amountAOut > 0 && amountAOut <= balanceofA */\n    tag_96:\n        /* \"ETHKIPU/simpleDEX/Dex_v2.sol\":4591:4667  require(amountAOut > 0 && amountAOut <= balanceofA, \"Invalid output amount\") */\n      tag_97\n      jumpi\n      mload(0x40)\n      0x08c379a000000000000000000000000000000000000000000000000000000000\n      dup2\n      mstore\n      0x04\n      add\n      tag_98\n      swap1\n      tag_99\n      jump\t// in\n    tag_98:\n      mload(0x40)\n      dup1\n      swap2\n      sub\n      swap1\n      revert\n    tag_97:\n        /* \"ETHKIPU/simpleDEX/Dex_v2.sol\":4767:4773  tokenB */\n      0x02\n      0x00\n      swap1\n      sload\n      swap1\n      0x0100\n      exp\n      swap1\n      div\n      0xffffffffffffffffffffffffffffffffffffffff\n      and\n        /* \"ETHKIPU/simpleDEX/Dex_v2.sol\":4767:4786  tokenB.transferFrom */\n      0xffffffffffffffffffffffffffffffffffffffff\n      and\n      0x23b872dd\n        /* \"ETHKIPU/simpleDEX/Dex_v2.sol\":4787:4797  msg.sender */\n      caller\n        /* \"ETHKIPU/simpleDEX/Dex_v2.sol\":4807:4811  this */\n      address\n        /* \"ETHKIPU/simpleDEX/Dex_v2.sol\":4814:4823  amountBIn */\n      dup8\n        /* \"ETHKIPU/simpleDEX/Dex_v2.sol\":4767:4824  tokenB.transferFrom(msg.sender, address(this), amountBIn) */\n      mload(0x40)\n      dup5\n      0xffffffff\n      and\n      0xe0\n      shl\n      dup2\n      mstore\n      0x04\n      add\n      tag_100\n      swap4\n      swap3\n      swap2\n      swap1\n      tag_101\n      jump\t// in\n    tag_100:\n      0x20\n      mload(0x40)\n      dup1\n      dup4\n      sub\n      dup2\n      0x00\n      dup8\n      gas\n      call\n      iszero\n      dup1\n      iszero\n      tag_103\n      jumpi\n      returndatasize\n      0x00\n      dup1\n      returndatacopy\n      revert(0x00, returndatasize)\n    tag_103:\n      pop\n      pop\n      pop\n      pop\n      mload(0x40)\n      returndatasize\n      not(0x1f)\n      0x1f\n      dup3\n      add\n      and\n      dup3\n      add\n      dup1\n      0x40\n      mstore\n      pop\n      dup2\n      add\n      swap1\n      tag_104\n      swap2\n      swap1\n      tag_105\n      jump\t// in\n    tag_104:\n      pop\n        /* \"ETHKIPU/simpleDEX/Dex_v2.sol\":4909:4915  tokenA */\n      0x01\n      0x00\n      swap1\n      sload\n      swap1\n      0x0100\n      exp\n      swap1\n      div\n      0xffffffffffffffffffffffffffffffffffffffff\n      and\n        /* \"ETHKIPU/simpleDEX/Dex_v2.sol\":4909:4924  tokenA.transfer */\n      0xffffffffffffffffffffffffffffffffffffffff\n      and\n      0xa9059cbb\n        /* \"ETHKIPU/simpleDEX/Dex_v2.sol\":4925:4935  msg.sender */\n      caller\n        /* \"ETHKIPU/simpleDEX/Dex_v2.sol\":4937:4947  amountAOut */\n      dup4\n        /* \"ETHKIPU/simpleDEX/Dex_v2.sol\":4909:4948  tokenA.transfer(msg.sender, amountAOut) */\n      mload(0x40)\n      dup4\n      0xffffffff\n      and\n      0xe0\n      shl\n      dup2\n      mstore\n      0x04\n      add\n      tag_106\n      swap3\n      swap2\n      swap1\n      tag_107\n      jump\t// in\n    tag_106:\n      0x20\n      mload(0x40)\n      dup1\n      dup4\n      sub\n      dup2\n      0x00\n      dup8\n      gas\n      call\n      iszero\n      dup1\n      iszero\n      tag_109\n      jumpi\n      returndatasize\n      0x00\n      dup1\n      returndatacopy\n      revert(0x00, returndatasize)\n    tag_109:\n      pop\n      pop\n      pop\n      pop\n      mload(0x40)\n      returndatasize\n      not(0x1f)\n      0x1f\n      dup3\n      add\n      and\n      dup3\n      add\n      dup1\n      0x40\n      mstore\n      pop\n      dup2\n      add\n      swap1\n      tag_110\n      swap2\n      swap1\n      tag_105\n      jump\t// in\n    tag_110:\n      pop\n        /* \"ETHKIPU/simpleDEX/Dex_v2.sol\":5028:5037  amountBIn */\n      dup4\n        /* \"ETHKIPU/simpleDEX/Dex_v2.sol\":5014:5024  balanceofB */\n      0x04\n      0x00\n        /* \"ETHKIPU/simpleDEX/Dex_v2.sol\":5014:5037  balanceofB += amountBIn */\n      dup3\n      dup3\n      sload\n      tag_111\n      swap2\n      swap1\n      tag_91\n      jump\t// in\n    tag_111:\n      swap3\n      pop\n      pop\n      dup2\n      swap1\n      sstore\n      pop\n        /* \"ETHKIPU/simpleDEX/Dex_v2.sol\":5103:5113  amountAOut */\n      dup1\n        /* \"ETHKIPU/simpleDEX/Dex_v2.sol\":5089:5099  balanceofA */\n      0x03\n      0x00\n        /* \"ETHKIPU/simpleDEX/Dex_v2.sol\":5089:5113  balanceofA -= amountAOut */\n      dup3\n      dup3\n      sload\n      tag_112\n      swap2\n      swap1\n      tag_95\n      jump\t// in\n    tag_112:\n      swap3\n      pop\n      pop\n      dup2\n      swap1\n      sstore\n      pop\n        /* \"ETHKIPU/simpleDEX/Dex_v2.sol\":5187:5197  msg.sender */\n      caller\n        /* \"ETHKIPU/simpleDEX/Dex_v2.sol\":5171:5221  TokensSwappedBA(msg.sender, amountBIn, amountAOut) */\n      0xffffffffffffffffffffffffffffffffffffffff\n      and\n      0xbb8ca5a7eaee5dfdf64c229b7ceb6cb3ec5b257008af3f94d86ef0771058f353\n        /* \"ETHKIPU/simpleDEX/Dex_v2.sol\":5199:5208  amountBIn */\n      dup6\n        /* \"ETHKIPU/simpleDEX/Dex_v2.sol\":5210:5220  amountAOut */\n      dup4\n        /* \"ETHKIPU/simpleDEX/Dex_v2.sol\":5171:5221  TokensSwappedBA(msg.sender, amountBIn, amountAOut) */\n      mload(0x40)\n      tag_113\n      swap3\n      swap2\n      swap1\n      tag_114\n      jump\t// in\n    tag_113:\n      mload(0x40)\n      dup1\n      swap2\n      sub\n      swap1\n      log2\n        /* \"ETHKIPU/simpleDEX/Dex_v2.sol\":4074:5276  {... */\n      pop\n      pop\n      pop\n        /* \"ETHKIPU/simpleDEX/Dex_v2.sol\":4011:5276  function swapBforA(uint256 amountBIn) external EnoughLiquidity {... */\n      pop\n      jump\t// out\n        /* \"@openzeppelin/contracts/access/Ownable.sol\":1638:1723  function owner() public view virtual returns (address) {... */\n    tag_42:\n        /* \"@openzeppelin/contracts/access/Ownable.sol\":1684:1691  address */\n      0x00\n        /* \"@openzeppelin/contracts/access/Ownable.sol\":1710:1716  _owner */\n      dup1\n      0x00\n      swap1\n      sload\n      swap1\n      0x0100\n      exp\n      swap1\n      div\n      0xffffffffffffffffffffffffffffffffffffffff\n      and\n        /* \"@openzeppelin/contracts/access/Ownable.sol\":1703:1716  return _owner */\n      swap1\n      pop\n        /* \"@openzeppelin/contracts/access/Ownable.sol\":1638:1723  function owner() public view virtual returns (address) {... */\n      swap1\n      jump\t// out\n        /* \"ETHKIPU/simpleDEX/Dex_v2.sol\":1948:2668  function addLiquidity(uint256 amountA, uint256 amountB) external onlyOwner {... */\n    tag_48:\n        /* \"@openzeppelin/contracts/access/Ownable.sol\":1531:1544  _checkOwner() */\n      tag_117\n        /* \"@openzeppelin/contracts/access/Ownable.sol\":1531:1542  _checkOwner */\n      tag_78\n        /* \"@openzeppelin/contracts/access/Ownable.sol\":1531:1544  _checkOwner() */\n      jump\t// in\n    tag_117:\n        /* \"ETHKIPU/simpleDEX/Dex_v2.sol\":2052:2053  0 */\n      0x00\n        /* \"ETHKIPU/simpleDEX/Dex_v2.sol\":2042:2049  amountA */\n      dup3\n        /* \"ETHKIPU/simpleDEX/Dex_v2.sol\":2042:2053  amountA > 0 */\n      gt\n        /* \"ETHKIPU/simpleDEX/Dex_v2.sol\":2042:2068  amountA > 0 && amountB > 0 */\n      dup1\n      iszero\n      tag_119\n      jumpi\n      pop\n        /* \"ETHKIPU/simpleDEX/Dex_v2.sol\":2067:2068  0 */\n      0x00\n        /* \"ETHKIPU/simpleDEX/Dex_v2.sol\":2057:2064  amountB */\n      dup2\n        /* \"ETHKIPU/simpleDEX/Dex_v2.sol\":2057:2068  amountB > 0 */\n      gt\n        /* \"ETHKIPU/simpleDEX/Dex_v2.sol\":2042:2068  amountA > 0 && amountB > 0 */\n    tag_119:\n        /* \"ETHKIPU/simpleDEX/Dex_v2.sol\":2034:2103  require(amountA > 0 && amountB > 0, \"Amounts must be greater than 0\") */\n      tag_120\n      jumpi\n      mload(0x40)\n      0x08c379a000000000000000000000000000000000000000000000000000000000\n      dup2\n      mstore\n      0x04\n      add\n      tag_121\n      swap1\n      tag_122\n      jump\t// in\n    tag_121:\n      mload(0x40)\n      dup1\n      swap2\n      sub\n      swap1\n      revert\n    tag_120:\n        /* \"ETHKIPU/simpleDEX/Dex_v2.sol\":2184:2190  tokenA */\n      0x01\n      0x00\n      swap1\n      sload\n      swap1\n      0x0100\n      exp\n      swap1\n      div\n      0xffffffffffffffffffffffffffffffffffffffff\n      and\n        /* \"ETHKIPU/simpleDEX/Dex_v2.sol\":2184:2203  tokenA.transferFrom */\n      0xffffffffffffffffffffffffffffffffffffffff\n      and\n      0x23b872dd\n        /* \"ETHKIPU/simpleDEX/Dex_v2.sol\":2204:2214  msg.sender */\n      caller\n        /* \"ETHKIPU/simpleDEX/Dex_v2.sol\":2224:2228  this */\n      address\n        /* \"ETHKIPU/simpleDEX/Dex_v2.sol\":2231:2238  amountA */\n      dup6\n        /* \"ETHKIPU/simpleDEX/Dex_v2.sol\":2184:2239  tokenA.transferFrom(msg.sender, address(this), amountA) */\n      mload(0x40)\n      dup5\n      0xffffffff\n      and\n      0xe0\n      shl\n      dup2\n      mstore\n      0x04\n      add\n      tag_123\n      swap4\n      swap3\n      swap2\n      swap1\n      tag_101\n      jump\t// in\n    tag_123:\n      0x20\n      mload(0x40)\n      dup1\n      dup4\n      sub\n      dup2\n      0x00\n      dup8\n      gas\n      call\n      iszero\n      dup1\n      iszero\n      tag_125\n      jumpi\n      returndatasize\n      0x00\n      dup1\n      returndatacopy\n      revert(0x00, returndatasize)\n    tag_125:\n      pop\n      pop\n      pop\n      pop\n      mload(0x40)\n      returndatasize\n      not(0x1f)\n      0x1f\n      dup3\n      add\n      and\n      dup3\n      add\n      dup1\n      0x40\n      mstore\n      pop\n      dup2\n      add\n      swap1\n      tag_126\n      swap2\n      swap1\n      tag_105\n      jump\t// in\n    tag_126:\n      pop\n        /* \"ETHKIPU/simpleDEX/Dex_v2.sol\":2310:2316  tokenB */\n      0x02\n      0x00\n      swap1\n      sload\n      swap1\n      0x0100\n      exp\n      swap1\n      div\n      0xffffffffffffffffffffffffffffffffffffffff\n      and\n        /* \"ETHKIPU/simpleDEX/Dex_v2.sol\":2310:2329  tokenB.transferFrom */\n      0xffffffffffffffffffffffffffffffffffffffff\n      and\n      0x23b872dd\n        /* \"ETHKIPU/simpleDEX/Dex_v2.sol\":2330:2340  msg.sender */\n      caller\n        /* \"ETHKIPU/simpleDEX/Dex_v2.sol\":2350:2354  this */\n      address\n        /* \"ETHKIPU/simpleDEX/Dex_v2.sol\":2357:2364  amountB */\n      dup5\n        /* \"ETHKIPU/simpleDEX/Dex_v2.sol\":2310:2365  tokenB.transferFrom(msg.sender, address(this), amountB) */\n      mload(0x40)\n      dup5\n      0xffffffff\n      and\n      0xe0\n      shl\n      dup2\n      mstore\n      0x04\n      add\n      tag_127\n      swap4\n      swap3\n      swap2\n      swap1\n      tag_101\n      jump\t// in\n    tag_127:\n      0x20\n      mload(0x40)\n      dup1\n      dup4\n      sub\n      dup2\n      0x00\n      dup8\n      gas\n      call\n      iszero\n      dup1\n      iszero\n      tag_129\n      jumpi\n      returndatasize\n      0x00\n      dup1\n      returndatacopy\n      revert(0x00, returndatasize)\n    tag_129:\n      pop\n      pop\n      pop\n      pop\n      mload(0x40)\n      returndatasize\n      not(0x1f)\n      0x1f\n      dup3\n      add\n      and\n      dup3\n      add\n      dup1\n      0x40\n      mstore\n      pop\n      dup2\n      add\n      swap1\n      tag_130\n      swap2\n      swap1\n      tag_105\n      jump\t// in\n    tag_130:\n      pop\n        /* \"ETHKIPU/simpleDEX/Dex_v2.sol\":2452:2459  amountA */\n      dup2\n        /* \"ETHKIPU/simpleDEX/Dex_v2.sol\":2438:2448  balanceofA */\n      0x03\n      0x00\n        /* \"ETHKIPU/simpleDEX/Dex_v2.sol\":2438:2459  balanceofA += amountA */\n      dup3\n      dup3\n      sload\n      tag_131\n      swap2\n      swap1\n      tag_91\n      jump\t// in\n    tag_131:\n      swap3\n      pop\n      pop\n      dup2\n      swap1\n      sstore\n      pop\n        /* \"ETHKIPU/simpleDEX/Dex_v2.sol\":2524:2531  amountB */\n      dup1\n        /* \"ETHKIPU/simpleDEX/Dex_v2.sol\":2510:2520  balanceofB */\n      0x04\n      0x00\n        /* \"ETHKIPU/simpleDEX/Dex_v2.sol\":2510:2531  balanceofB += amountB */\n      dup3\n      dup3\n      sload\n      tag_132\n      swap2\n      swap1\n      tag_91\n      jump\t// in\n    tag_132:\n      swap3\n      pop\n      pop\n      dup2\n      swap1\n      sstore\n      pop\n        /* \"ETHKIPU/simpleDEX/Dex_v2.sol\":2589:2621  LiquidityAdded(amountA, amountB) */\n      0x38f8a0c92f4c5b0b6877f878cb4c0c8d348a47b76d716c8e78f425043df9515b\n        /* \"ETHKIPU/simpleDEX/Dex_v2.sol\":2604:2611  amountA */\n      dup3\n        /* \"ETHKIPU/simpleDEX/Dex_v2.sol\":2613:2620  amountB */\n      dup3\n        /* \"ETHKIPU/simpleDEX/Dex_v2.sol\":2589:2621  LiquidityAdded(amountA, amountB) */\n      mload(0x40)\n      tag_133\n      swap3\n      swap2\n      swap1\n      tag_114\n      jump\t// in\n    tag_133:\n      mload(0x40)\n      dup1\n      swap2\n      sub\n      swap1\n      log1\n        /* \"ETHKIPU/simpleDEX/Dex_v2.sol\":1948:2668  function addLiquidity(uint256 amountA, uint256 amountB) external onlyOwner {... */\n      pop\n      pop\n      jump\t// out\n        /* \"ETHKIPU/simpleDEX/Dex_v2.sol\":5327:5993  function removeLiquidity(uint256 amountA, uint256 amountB) external onlyOwner EnoughLiquidity {... */\n    tag_51:\n        /* \"@openzeppelin/contracts/access/Ownable.sol\":1531:1544  _checkOwner() */\n      tag_135\n        /* \"@openzeppelin/contracts/access/Ownable.sol\":1531:1542  _checkOwner */\n      tag_78\n        /* \"@openzeppelin/contracts/access/Ownable.sol\":1531:1544  _checkOwner() */\n      jump\t// in\n    tag_135:\n        /* \"ETHKIPU/simpleDEX/Dex_v2.sol\":1801:1802  0 */\n      0x00\n        /* \"ETHKIPU/simpleDEX/Dex_v2.sol\":1788:1798  balanceofA */\n      sload(0x03)\n        /* \"ETHKIPU/simpleDEX/Dex_v2.sol\":1788:1802  balanceofA > 0 */\n      gt\n        /* \"ETHKIPU/simpleDEX/Dex_v2.sol\":1788:1820  balanceofA > 0 && balanceofB > 0 */\n      dup1\n      iszero\n      tag_137\n      jumpi\n      pop\n        /* \"ETHKIPU/simpleDEX/Dex_v2.sol\":1819:1820  0 */\n      0x00\n        /* \"ETHKIPU/simpleDEX/Dex_v2.sol\":1806:1816  balanceofB */\n      sload(0x04)\n        /* \"ETHKIPU/simpleDEX/Dex_v2.sol\":1806:1820  balanceofB > 0 */\n      gt\n        /* \"ETHKIPU/simpleDEX/Dex_v2.sol\":1788:1820  balanceofA > 0 && balanceofB > 0 */\n    tag_137:\n        /* \"ETHKIPU/simpleDEX/Dex_v2.sol\":1780:1845  require(balanceofA > 0 && balanceofB > 0, \"Not enough liquidity\") */\n      tag_138\n      jumpi\n      mload(0x40)\n      0x08c379a000000000000000000000000000000000000000000000000000000000\n      dup2\n      mstore\n      0x04\n      add\n      tag_139\n      swap1\n      tag_62\n      jump\t// in\n    tag_139:\n      mload(0x40)\n      dup1\n      swap2\n      sub\n      swap1\n      revert\n    tag_138:\n        /* \"ETHKIPU/simpleDEX/Dex_v2.sol\":5451:5461  balanceofA */\n      sload(0x03)\n        /* \"ETHKIPU/simpleDEX/Dex_v2.sol\":5440:5447  amountA */\n      dup3\n        /* \"ETHKIPU/simpleDEX/Dex_v2.sol\":5440:5461  amountA <= balanceofA */\n      gt\n      iszero\n        /* \"ETHKIPU/simpleDEX/Dex_v2.sol\":5440:5486  amountA <= balanceofA && amountB <= balanceofB */\n      dup1\n      iszero\n      tag_141\n      jumpi\n      pop\n        /* \"ETHKIPU/simpleDEX/Dex_v2.sol\":5476:5486  balanceofB */\n      sload(0x04)\n        /* \"ETHKIPU/simpleDEX/Dex_v2.sol\":5465:5472  amountB */\n      dup2\n        /* \"ETHKIPU/simpleDEX/Dex_v2.sol\":5465:5486  amountB <= balanceofB */\n      gt\n      iszero\n        /* \"ETHKIPU/simpleDEX/Dex_v2.sol\":5440:5486  amountA <= balanceofA && amountB <= balanceofB */\n    tag_141:\n        /* \"ETHKIPU/simpleDEX/Dex_v2.sol\":5432:5511  require(amountA <= balanceofA && amountB <= balanceofB, \"Not enough liquidity\") */\n      tag_142\n      jumpi\n      mload(0x40)\n      0x08c379a000000000000000000000000000000000000000000000000000000000\n      dup2\n      mstore\n      0x04\n      add\n      tag_143\n      swap1\n      tag_62\n      jump\t// in\n    tag_143:\n      mload(0x40)\n      dup1\n      swap2\n      sub\n      swap1\n      revert\n    tag_142:\n        /* \"ETHKIPU/simpleDEX/Dex_v2.sol\":5592:5599  amountA */\n      dup2\n        /* \"ETHKIPU/simpleDEX/Dex_v2.sol\":5578:5588  balanceofA */\n      0x03\n      0x00\n        /* \"ETHKIPU/simpleDEX/Dex_v2.sol\":5578:5599  balanceofA -= amountA */\n      dup3\n      dup3\n      sload\n      tag_144\n      swap2\n      swap1\n      tag_95\n      jump\t// in\n    tag_144:\n      swap3\n      pop\n      pop\n      dup2\n      swap1\n      sstore\n      pop\n        /* \"ETHKIPU/simpleDEX/Dex_v2.sol\":5664:5671  amountB */\n      dup1\n        /* \"ETHKIPU/simpleDEX/Dex_v2.sol\":5650:5660  balanceofB */\n      0x04\n      0x00\n        /* \"ETHKIPU/simpleDEX/Dex_v2.sol\":5650:5671  balanceofB -= amountB */\n      dup3\n      dup3\n      sload\n      tag_145\n      swap2\n      swap1\n      tag_95\n      jump\t// in\n    tag_145:\n      swap3\n      pop\n      pop\n      dup2\n      swap1\n      sstore\n      pop\n        /* \"ETHKIPU/simpleDEX/Dex_v2.sol\":5724:5730  tokenA */\n      0x01\n      0x00\n      swap1\n      sload\n      swap1\n      0x0100\n      exp\n      swap1\n      div\n      0xffffffffffffffffffffffffffffffffffffffff\n      and\n        /* \"ETHKIPU/simpleDEX/Dex_v2.sol\":5724:5739  tokenA.transfer */\n      0xffffffffffffffffffffffffffffffffffffffff\n      and\n      0xa9059cbb\n        /* \"ETHKIPU/simpleDEX/Dex_v2.sol\":5740:5750  msg.sender */\n      caller\n        /* \"ETHKIPU/simpleDEX/Dex_v2.sol\":5752:5759  amountA */\n      dup5\n        /* \"ETHKIPU/simpleDEX/Dex_v2.sol\":5724:5760  tokenA.transfer(msg.sender, amountA) */\n      mload(0x40)\n      dup4\n      0xffffffff\n      and\n      0xe0\n      shl\n      dup2\n      mstore\n      0x04\n      add\n      tag_146\n      swap3\n      swap2\n      swap1\n      tag_107\n      jump\t// in\n    tag_146:\n      0x20\n      mload(0x40)\n      dup1\n      dup4\n      sub\n      dup2\n      0x00\n      dup8\n      gas\n      call\n      iszero\n      dup1\n      iszero\n      tag_148\n      jumpi\n      returndatasize\n      0x00\n      dup1\n      returndatacopy\n      revert(0x00, returndatasize)\n    tag_148:\n      pop\n      pop\n      pop\n      pop\n      mload(0x40)\n      returndatasize\n      not(0x1f)\n      0x1f\n      dup3\n      add\n      and\n      dup3\n      add\n      dup1\n      0x40\n      mstore\n      pop\n      dup2\n      add\n      swap1\n      tag_149\n      swap2\n      swap1\n      tag_105\n      jump\t// in\n    tag_149:\n      pop\n        /* \"ETHKIPU/simpleDEX/Dex_v2.sol\":5814:5820  tokenB */\n      0x02\n      0x00\n      swap1\n      sload\n      swap1\n      0x0100\n      exp\n      swap1\n      div\n      0xffffffffffffffffffffffffffffffffffffffff\n      and\n        /* \"ETHKIPU/simpleDEX/Dex_v2.sol\":5814:5829  tokenB.transfer */\n      0xffffffffffffffffffffffffffffffffffffffff\n      and\n      0xa9059cbb\n        /* \"ETHKIPU/simpleDEX/Dex_v2.sol\":5830:5840  msg.sender */\n      caller\n        /* \"ETHKIPU/simpleDEX/Dex_v2.sol\":5842:5849  amountB */\n      dup4\n        /* \"ETHKIPU/simpleDEX/Dex_v2.sol\":5814:5850  tokenB.transfer(msg.sender, amountB) */\n      mload(0x40)\n      dup4\n      0xffffffff\n      and\n      0xe0\n      shl\n      dup2\n      mstore\n      0x04\n      add\n      tag_150\n      swap3\n      swap2\n      swap1\n      tag_107\n      jump\t// in\n    tag_150:\n      0x20\n      mload(0x40)\n      dup1\n      dup4\n      sub\n      dup2\n      0x00\n      dup8\n      gas\n      call\n      iszero\n      dup1\n      iszero\n      tag_152\n      jumpi\n      returndatasize\n      0x00\n      dup1\n      returndatacopy\n      revert(0x00, returndatasize)\n    tag_152:\n      pop\n      pop\n      pop\n      pop\n      mload(0x40)\n      returndatasize\n      not(0x1f)\n      0x1f\n      dup3\n      add\n      and\n      dup3\n      add\n      dup1\n      0x40\n      mstore\n      pop\n      dup2\n      add\n      swap1\n      tag_153\n      swap2\n      swap1\n      tag_105\n      jump\t// in\n    tag_153:\n      pop\n        /* \"ETHKIPU/simpleDEX/Dex_v2.sol\":5911:5945  LiquidityRemoved(amountA, amountB) */\n      0x6f0f96292ae0038c04f9b6bab30f185d9ca02c471d0983f563f2a4f674aef137\n        /* \"ETHKIPU/simpleDEX/Dex_v2.sol\":5928:5935  amountA */\n      dup3\n        /* \"ETHKIPU/simpleDEX/Dex_v2.sol\":5937:5944  amountB */\n      dup3\n        /* \"ETHKIPU/simpleDEX/Dex_v2.sol\":5911:5945  LiquidityRemoved(amountA, amountB) */\n      mload(0x40)\n      tag_154\n      swap3\n      swap2\n      swap1\n      tag_114\n      jump\t// in\n    tag_154:\n      mload(0x40)\n      dup1\n      swap2\n      sub\n      swap1\n      log1\n        /* \"ETHKIPU/simpleDEX/Dex_v2.sol\":5327:5993  function removeLiquidity(uint256 amountA, uint256 amountB) external onlyOwner EnoughLiquidity {... */\n      pop\n      pop\n      jump\t// out\n        /* \"ETHKIPU/simpleDEX/Dex_v2.sol\":2707:3970  function swapAforB(uint256 amountAIn) external EnoughLiquidity {... */\n    tag_54:\n        /* \"ETHKIPU/simpleDEX/Dex_v2.sol\":1801:1802  0 */\n      0x00\n        /* \"ETHKIPU/simpleDEX/Dex_v2.sol\":1788:1798  balanceofA */\n      sload(0x03)\n        /* \"ETHKIPU/simpleDEX/Dex_v2.sol\":1788:1802  balanceofA > 0 */\n      gt\n        /* \"ETHKIPU/simpleDEX/Dex_v2.sol\":1788:1820  balanceofA > 0 && balanceofB > 0 */\n      dup1\n      iszero\n      tag_156\n      jumpi\n      pop\n        /* \"ETHKIPU/simpleDEX/Dex_v2.sol\":1819:1820  0 */\n      0x00\n        /* \"ETHKIPU/simpleDEX/Dex_v2.sol\":1806:1816  balanceofB */\n      sload(0x04)\n        /* \"ETHKIPU/simpleDEX/Dex_v2.sol\":1806:1820  balanceofB > 0 */\n      gt\n        /* \"ETHKIPU/simpleDEX/Dex_v2.sol\":1788:1820  balanceofA > 0 && balanceofB > 0 */\n    tag_156:\n        /* \"ETHKIPU/simpleDEX/Dex_v2.sol\":1780:1845  require(balanceofA > 0 && balanceofB > 0, \"Not enough liquidity\") */\n      tag_157\n      jumpi\n      mload(0x40)\n      0x08c379a000000000000000000000000000000000000000000000000000000000\n      dup2\n      mstore\n      0x04\n      add\n      tag_158\n      swap1\n      tag_62\n      jump\t// in\n    tag_158:\n      mload(0x40)\n      dup1\n      swap2\n      sub\n      swap1\n      revert\n    tag_157:\n        /* \"ETHKIPU/simpleDEX/Dex_v2.sol\":2801:2802  0 */\n      0x00\n        /* \"ETHKIPU/simpleDEX/Dex_v2.sol\":2789:2798  amountAIn */\n      dup2\n        /* \"ETHKIPU/simpleDEX/Dex_v2.sol\":2789:2802  amountAIn > 0 */\n      gt\n        /* \"ETHKIPU/simpleDEX/Dex_v2.sol\":2781:2836  require(amountAIn > 0, \"Amount must be greater than 0\") */\n      tag_160\n      jumpi\n      mload(0x40)\n      0x08c379a000000000000000000000000000000000000000000000000000000000\n      dup2\n      mstore\n      0x04\n      add\n      tag_161\n      swap1\n      tag_89\n      jump\t// in\n    tag_161:\n      mload(0x40)\n      dup1\n      swap2\n      sub\n      swap1\n      revert\n    tag_160:\n        /* \"ETHKIPU/simpleDEX/Dex_v2.sol\":3059:3078  uint256 denominator */\n      0x00\n        /* \"ETHKIPU/simpleDEX/Dex_v2.sol\":3094:3103  amountAIn */\n      dup2\n        /* \"ETHKIPU/simpleDEX/Dex_v2.sol\":3081:3091  balanceofA */\n      sload(0x03)\n        /* \"ETHKIPU/simpleDEX/Dex_v2.sol\":3081:3103  balanceofA + amountAIn */\n      tag_162\n      swap2\n      swap1\n      tag_91\n      jump\t// in\n    tag_162:\n        /* \"ETHKIPU/simpleDEX/Dex_v2.sol\":3059:3103  uint256 denominator = balanceofA + amountAIn */\n      swap1\n      pop\n        /* \"ETHKIPU/simpleDEX/Dex_v2.sol\":3124:3140  uint256 fraction */\n      0x00\n        /* \"ETHKIPU/simpleDEX/Dex_v2.sol\":3171:3182  denominator */\n      dup2\n        /* \"ETHKIPU/simpleDEX/Dex_v2.sol\":3157:3167  balanceofB */\n      sload(0x04)\n        /* \"ETHKIPU/simpleDEX/Dex_v2.sol\":3144:3154  balanceofA */\n      sload(0x03)\n        /* \"ETHKIPU/simpleDEX/Dex_v2.sol\":3144:3167  balanceofA * balanceofB */\n      tag_163\n      swap2\n      swap1\n      tag_70\n      jump\t// in\n    tag_163:\n        /* \"ETHKIPU/simpleDEX/Dex_v2.sol\":3143:3182  (balanceofA * balanceofB) / denominator */\n      tag_164\n      swap2\n      swap1\n      tag_72\n      jump\t// in\n    tag_164:\n        /* \"ETHKIPU/simpleDEX/Dex_v2.sol\":3124:3182  uint256 fraction = (balanceofA * balanceofB) / denominator */\n      swap1\n      pop\n        /* \"ETHKIPU/simpleDEX/Dex_v2.sol\":3209:3227  uint256 amountBOut */\n      0x00\n        /* \"ETHKIPU/simpleDEX/Dex_v2.sol\":3243:3251  fraction */\n      dup2\n        /* \"ETHKIPU/simpleDEX/Dex_v2.sol\":3230:3240  balanceofB */\n      sload(0x04)\n        /* \"ETHKIPU/simpleDEX/Dex_v2.sol\":3230:3251  balanceofB - fraction */\n      tag_165\n      swap2\n      swap1\n      tag_95\n      jump\t// in\n    tag_165:\n        /* \"ETHKIPU/simpleDEX/Dex_v2.sol\":3209:3251  uint256 amountBOut = balanceofB - fraction */\n      swap1\n      pop\n        /* \"ETHKIPU/simpleDEX/Dex_v2.sol\":3308:3309  0 */\n      0x00\n        /* \"ETHKIPU/simpleDEX/Dex_v2.sol\":3295:3305  amountBOut */\n      dup2\n        /* \"ETHKIPU/simpleDEX/Dex_v2.sol\":3295:3309  amountBOut > 0 */\n      gt\n        /* \"ETHKIPU/simpleDEX/Dex_v2.sol\":3295:3337  amountBOut > 0 && amountBOut <= balanceofB */\n      dup1\n      iszero\n      tag_166\n      jumpi\n      pop\n        /* \"ETHKIPU/simpleDEX/Dex_v2.sol\":3327:3337  balanceofB */\n      sload(0x04)\n        /* \"ETHKIPU/simpleDEX/Dex_v2.sol\":3313:3323  amountBOut */\n      dup2\n        /* \"ETHKIPU/simpleDEX/Dex_v2.sol\":3313:3337  amountBOut <= balanceofB */\n      gt\n      iszero\n        /* \"ETHKIPU/simpleDEX/Dex_v2.sol\":3295:3337  amountBOut > 0 && amountBOut <= balanceofB */\n    tag_166:\n        /* \"ETHKIPU/simpleDEX/Dex_v2.sol\":3287:3363  require(amountBOut > 0 && amountBOut <= balanceofB, \"Invalid output amount\") */\n      tag_167\n      jumpi\n      mload(0x40)\n      0x08c379a000000000000000000000000000000000000000000000000000000000\n      dup2\n      mstore\n      0x04\n      add\n      tag_168\n      swap1\n      tag_99\n      jump\t// in\n    tag_168:\n      mload(0x40)\n      dup1\n      swap2\n      sub\n      swap1\n      revert\n    tag_167:\n        /* \"ETHKIPU/simpleDEX/Dex_v2.sol\":3462:3468  tokenA */\n      0x01\n      0x00\n      swap1\n      sload\n      swap1\n      0x0100\n      exp\n      swap1\n      div\n      0xffffffffffffffffffffffffffffffffffffffff\n      and\n        /* \"ETHKIPU/simpleDEX/Dex_v2.sol\":3462:3481  tokenA.transferFrom */\n      0xffffffffffffffffffffffffffffffffffffffff\n      and\n      0x23b872dd\n        /* \"ETHKIPU/simpleDEX/Dex_v2.sol\":3482:3492  msg.sender */\n      caller\n        /* \"ETHKIPU/simpleDEX/Dex_v2.sol\":3502:3506  this */\n      address\n        /* \"ETHKIPU/simpleDEX/Dex_v2.sol\":3509:3518  amountAIn */\n      dup8\n        /* \"ETHKIPU/simpleDEX/Dex_v2.sol\":3462:3519  tokenA.transferFrom(msg.sender, address(this), amountAIn) */\n      mload(0x40)\n      dup5\n      0xffffffff\n      and\n      0xe0\n      shl\n      dup2\n      mstore\n      0x04\n      add\n      tag_169\n      swap4\n      swap3\n      swap2\n      swap1\n      tag_101\n      jump\t// in\n    tag_169:\n      0x20\n      mload(0x40)\n      dup1\n      dup4\n      sub\n      dup2\n      0x00\n      dup8\n      gas\n      call\n      iszero\n      dup1\n      iszero\n      tag_171\n      jumpi\n      returndatasize\n      0x00\n      dup1\n      returndatacopy\n      revert(0x00, returndatasize)\n    tag_171:\n      pop\n      pop\n      pop\n      pop\n      mload(0x40)\n      returndatasize\n      not(0x1f)\n      0x1f\n      dup3\n      add\n      and\n      dup3\n      add\n      dup1\n      0x40\n      mstore\n      pop\n      dup2\n      add\n      swap1\n      tag_172\n      swap2\n      swap1\n      tag_105\n      jump\t// in\n    tag_172:\n      pop\n        /* \"ETHKIPU/simpleDEX/Dex_v2.sol\":3604:3610  tokenB */\n      0x02\n      0x00\n      swap1\n      sload\n      swap1\n      0x0100\n      exp\n      swap1\n      div\n      0xffffffffffffffffffffffffffffffffffffffff\n      and\n        /* \"ETHKIPU/simpleDEX/Dex_v2.sol\":3604:3619  tokenB.transfer */\n      0xffffffffffffffffffffffffffffffffffffffff\n      and\n      0xa9059cbb\n        /* \"ETHKIPU/simpleDEX/Dex_v2.sol\":3620:3630  msg.sender */\n      caller\n        /* \"ETHKIPU/simpleDEX/Dex_v2.sol\":3632:3642  amountBOut */\n      dup4\n        /* \"ETHKIPU/simpleDEX/Dex_v2.sol\":3604:3643  tokenB.transfer(msg.sender, amountBOut) */\n      mload(0x40)\n      dup4\n      0xffffffff\n      and\n      0xe0\n      shl\n      dup2\n      mstore\n      0x04\n      add\n      tag_173\n      swap3\n      swap2\n      swap1\n      tag_107\n      jump\t// in\n    tag_173:\n      0x20\n      mload(0x40)\n      dup1\n      dup4\n      sub\n      dup2\n      0x00\n      dup8\n      gas\n      call\n      iszero\n      dup1\n      iszero\n      tag_175\n      jumpi\n      returndatasize\n      0x00\n      dup1\n      returndatacopy\n      revert(0x00, returndatasize)\n    tag_175:\n      pop\n      pop\n      pop\n      pop\n      mload(0x40)\n      returndatasize\n      not(0x1f)\n      0x1f\n      dup3\n      add\n      and\n      dup3\n      add\n      dup1\n      0x40\n      mstore\n      pop\n      dup2\n      add\n      swap1\n      tag_176\n      swap2\n      swap1\n      tag_105\n      jump\t// in\n    tag_176:\n      pop\n        /* \"ETHKIPU/simpleDEX/Dex_v2.sol\":3723:3732  amountAIn */\n      dup4\n        /* \"ETHKIPU/simpleDEX/Dex_v2.sol\":3709:3719  balanceofA */\n      0x03\n      0x00\n        /* \"ETHKIPU/simpleDEX/Dex_v2.sol\":3709:3732  balanceofA += amountAIn */\n      dup3\n      dup3\n      sload\n      tag_177\n      swap2\n      swap1\n      tag_91\n      jump\t// in\n    tag_177:\n      swap3\n      pop\n      pop\n      dup2\n      swap1\n      sstore\n      pop\n        /* \"ETHKIPU/simpleDEX/Dex_v2.sol\":3797:3807  amountBOut */\n      dup1\n        /* \"ETHKIPU/simpleDEX/Dex_v2.sol\":3783:3793  balanceofB */\n      0x04\n      0x00\n        /* \"ETHKIPU/simpleDEX/Dex_v2.sol\":3783:3807  balanceofB -= amountBOut */\n      dup3\n      dup3\n      sload\n      tag_178\n      swap2\n      swap1\n      tag_95\n      jump\t// in\n    tag_178:\n      swap3\n      pop\n      pop\n      dup2\n      swap1\n      sstore\n      pop\n        /* \"ETHKIPU/simpleDEX/Dex_v2.sol\":3881:3891  msg.sender */\n      caller\n        /* \"ETHKIPU/simpleDEX/Dex_v2.sol\":3865:3915  TokensSwappedAB(msg.sender, amountAIn, amountBOut) */\n      0xffffffffffffffffffffffffffffffffffffffff\n      and\n      0xc2bf2a98e8d2db2c47884656b8fec299cb52d46679346297495fb3f8c21f233c\n        /* \"ETHKIPU/simpleDEX/Dex_v2.sol\":3893:3902  amountAIn */\n      dup6\n        /* \"ETHKIPU/simpleDEX/Dex_v2.sol\":3904:3914  amountBOut */\n      dup4\n        /* \"ETHKIPU/simpleDEX/Dex_v2.sol\":3865:3915  TokensSwappedAB(msg.sender, amountAIn, amountBOut) */\n      mload(0x40)\n      tag_179\n      swap3\n      swap2\n      swap1\n      tag_114\n      jump\t// in\n    tag_179:\n      mload(0x40)\n      dup1\n      swap2\n      sub\n      swap1\n      log2\n        /* \"ETHKIPU/simpleDEX/Dex_v2.sol\":2770:3970  {... */\n      pop\n      pop\n      pop\n        /* \"ETHKIPU/simpleDEX/Dex_v2.sol\":2707:3970  function swapAforB(uint256 amountAIn) external EnoughLiquidity {... */\n      pop\n      jump\t// out\n        /* \"@openzeppelin/contracts/access/Ownable.sol\":2543:2758  function transferOwnership(address newOwner) public virtual onlyOwner {... */\n    tag_57:\n        /* \"@openzeppelin/contracts/access/Ownable.sol\":1531:1544  _checkOwner() */\n      tag_181\n        /* \"@openzeppelin/contracts/access/Ownable.sol\":1531:1542  _checkOwner */\n      tag_78\n        /* \"@openzeppelin/contracts/access/Ownable.sol\":1531:1544  _checkOwner() */\n      jump\t// in\n    tag_181:\n        /* \"@openzeppelin/contracts/access/Ownable.sol\":2647:2648  0 */\n      0x00\n        /* \"@openzeppelin/contracts/access/Ownable.sol\":2627:2649  newOwner == address(0) */\n      0xffffffffffffffffffffffffffffffffffffffff\n      and\n        /* \"@openzeppelin/contracts/access/Ownable.sol\":2627:2635  newOwner */\n      dup2\n        /* \"@openzeppelin/contracts/access/Ownable.sol\":2627:2649  newOwner == address(0) */\n      0xffffffffffffffffffffffffffffffffffffffff\n      and\n      sub\n        /* \"@openzeppelin/contracts/access/Ownable.sol\":2623:2714  if (newOwner == address(0)) {... */\n      tag_183\n      jumpi\n        /* \"@openzeppelin/contracts/access/Ownable.sol\":2700:2701  0 */\n      0x00\n        /* \"@openzeppelin/contracts/access/Ownable.sol\":2672:2703  OwnableInvalidOwner(address(0)) */\n      mload(0x40)\n      0x1e4fbdf700000000000000000000000000000000000000000000000000000000\n      dup2\n      mstore\n      0x04\n      add\n      tag_184\n      swap2\n      swap1\n      tag_44\n      jump\t// in\n    tag_184:\n      mload(0x40)\n      dup1\n      swap2\n      sub\n      swap1\n      revert\n        /* \"@openzeppelin/contracts/access/Ownable.sol\":2623:2714  if (newOwner == address(0)) {... */\n    tag_183:\n        /* \"@openzeppelin/contracts/access/Ownable.sol\":2723:2751  _transferOwnership(newOwner) */\n      tag_185\n        /* \"@openzeppelin/contracts/access/Ownable.sol\":2742:2750  newOwner */\n      dup2\n        /* \"@openzeppelin/contracts/access/Ownable.sol\":2723:2741  _transferOwnership */\n      tag_81\n        /* \"@openzeppelin/contracts/access/Ownable.sol\":2723:2751  _transferOwnership(newOwner) */\n      jump\t// in\n    tag_185:\n        /* \"@openzeppelin/contracts/access/Ownable.sol\":2543:2758  function transferOwnership(address newOwner) public virtual onlyOwner {... */\n      pop\n      jump\t// out\n        /* \"@openzeppelin/contracts/access/Ownable.sol\":1796:1958  function _checkOwner() internal view virtual {... */\n    tag_78:\n        /* \"@openzeppelin/contracts/access/Ownable.sol\":1866:1878  _msgSender() */\n      tag_187\n        /* \"@openzeppelin/contracts/access/Ownable.sol\":1866:1876  _msgSender */\n      tag_188\n        /* \"@openzeppelin/contracts/access/Ownable.sol\":1866:1878  _msgSender() */\n      jump\t// in\n    tag_187:\n        /* \"@openzeppelin/contracts/access/Ownable.sol\":1855:1878  owner() != _msgSender() */\n      0xffffffffffffffffffffffffffffffffffffffff\n      and\n        /* \"@openzeppelin/contracts/access/Ownable.sol\":1855:1862  owner() */\n      tag_189\n        /* \"@openzeppelin/contracts/access/Ownable.sol\":1855:1860  owner */\n      tag_42\n        /* \"@openzeppelin/contracts/access/Ownable.sol\":1855:1862  owner() */\n      jump\t// in\n    tag_189:\n        /* \"@openzeppelin/contracts/access/Ownable.sol\":1855:1878  owner() != _msgSender() */\n      0xffffffffffffffffffffffffffffffffffffffff\n      and\n      eq\n        /* \"@openzeppelin/contracts/access/Ownable.sol\":1851:1952  if (owner() != _msgSender()) {... */\n      tag_190\n      jumpi\n        /* \"@openzeppelin/contracts/access/Ownable.sol\":1928:1940  _msgSender() */\n      tag_191\n        /* \"@openzeppelin/contracts/access/Ownable.sol\":1928:1938  _msgSender */\n      tag_188\n        /* \"@openzeppelin/contracts/access/Ownable.sol\":1928:1940  _msgSender() */\n      jump\t// in\n    tag_191:\n        /* \"@openzeppelin/contracts/access/Ownable.sol\":1901:1941  OwnableUnauthorizedAccount(_msgSender()) */\n      mload(0x40)\n      0x118cdaa700000000000000000000000000000000000000000000000000000000\n      dup2\n      mstore\n      0x04\n      add\n      tag_192\n      swap2\n      swap1\n      tag_44\n      jump\t// in\n    tag_192:\n      mload(0x40)\n      dup1\n      swap2\n      sub\n      swap1\n      revert\n        /* \"@openzeppelin/contracts/access/Ownable.sol\":1851:1952  if (owner() != _msgSender()) {... */\n    tag_190:\n        /* \"@openzeppelin/contracts/access/Ownable.sol\":1796:1958  function _checkOwner() internal view virtual {... */\n      jump\t// out\n        /* \"@openzeppelin/contracts/access/Ownable.sol\":2912:3099  function _transferOwnership(address newOwner) internal virtual {... */\n    tag_81:\n        /* \"@openzeppelin/contracts/access/Ownable.sol\":2985:3001  address oldOwner */\n      0x00\n        /* \"@openzeppelin/contracts/access/Ownable.sol\":3004:3010  _owner */\n      dup1\n      0x00\n      swap1\n      sload\n      swap1\n      0x0100\n      exp\n      swap1\n      div\n      0xffffffffffffffffffffffffffffffffffffffff\n      and\n        /* \"@openzeppelin/contracts/access/Ownable.sol\":2985:3010  address oldOwner = _owner */\n      swap1\n      pop\n        /* \"@openzeppelin/contracts/access/Ownable.sol\":3029:3037  newOwner */\n      dup2\n        /* \"@openzeppelin/contracts/access/Ownable.sol\":3020:3026  _owner */\n      0x00\n      dup1\n        /* \"@openzeppelin/contracts/access/Ownable.sol\":3020:3037  _owner = newOwner */\n      0x0100\n      exp\n      dup2\n      sload\n      dup2\n      0xffffffffffffffffffffffffffffffffffffffff\n      mul\n      not\n      and\n      swap1\n      dup4\n      0xffffffffffffffffffffffffffffffffffffffff\n      and\n      mul\n      or\n      swap1\n      sstore\n      pop\n        /* \"@openzeppelin/contracts/access/Ownable.sol\":3083:3091  newOwner */\n      dup2\n        /* \"@openzeppelin/contracts/access/Ownable.sol\":3052:3092  OwnershipTransferred(oldOwner, newOwner) */\n      0xffffffffffffffffffffffffffffffffffffffff\n      and\n        /* \"@openzeppelin/contracts/access/Ownable.sol\":3073:3081  oldOwner */\n      dup2\n        /* \"@openzeppelin/contracts/access/Ownable.sol\":3052:3092  OwnershipTransferred(oldOwner, newOwner) */\n      0xffffffffffffffffffffffffffffffffffffffff\n      and\n      0x8be0079c531659141344cd1fd0a4f28419497f9722a3daafe3b4186f6b6457e0\n      mload(0x40)\n      mload(0x40)\n      dup1\n      swap2\n      sub\n      swap1\n      log3\n        /* \"@openzeppelin/contracts/access/Ownable.sol\":2975:3099  {... */\n      pop\n        /* \"@openzeppelin/contracts/access/Ownable.sol\":2912:3099  function _transferOwnership(address newOwner) internal virtual {... */\n      pop\n      jump\t// out\n        /* \"@openzeppelin/contracts/utils/Context.sol\":656:752  function _msgSender() internal view virtual returns (address) {... */\n    tag_188:\n        /* \"@openzeppelin/contracts/utils/Context.sol\":709:716  address */\n      0x00\n        /* \"@openzeppelin/contracts/utils/Context.sol\":735:745  msg.sender */\n      caller\n        /* \"@openzeppelin/contracts/utils/Context.sol\":728:745  return msg.sender */\n      swap1\n      pop\n        /* \"@openzeppelin/contracts/utils/Context.sol\":656:752  function _msgSender() internal view virtual returns (address) {... */\n      swap1\n      jump\t// out\n        /* \"#utility.yul\":7:133   */\n    tag_195:\n        /* \"#utility.yul\":44:51   */\n      0x00\n        /* \"#utility.yul\":84:126   */\n      0xffffffffffffffffffffffffffffffffffffffff\n        /* \"#utility.yul\":77:82   */\n      dup3\n        /* \"#utility.yul\":73:127   */\n      and\n        /* \"#utility.yul\":62:127   */\n      swap1\n      pop\n        /* \"#utility.yul\":7:133   */\n      swap2\n      swap1\n      pop\n      jump\t// out\n        /* \"#utility.yul\":139:199   */\n    tag_196:\n        /* \"#utility.yul\":167:170   */\n      0x00\n        /* \"#utility.yul\":188:193   */\n      dup2\n        /* \"#utility.yul\":181:193   */\n      swap1\n      pop\n        /* \"#utility.yul\":139:199   */\n      swap2\n      swap1\n      pop\n      jump\t// out\n        /* \"#utility.yul\":205:347   */\n    tag_197:\n        /* \"#utility.yul\":255:264   */\n      0x00\n        /* \"#utility.yul\":288:341   */\n      tag_232\n        /* \"#utility.yul\":306:340   */\n      tag_233\n        /* \"#utility.yul\":315:339   */\n      tag_234\n        /* \"#utility.yul\":333:338   */\n      dup5\n        /* \"#utility.yul\":315:339   */\n      tag_195\n      jump\t// in\n    tag_234:\n        /* \"#utility.yul\":306:340   */\n      tag_196\n      jump\t// in\n    tag_233:\n        /* \"#utility.yul\":288:341   */\n      tag_195\n      jump\t// in\n    tag_232:\n        /* \"#utility.yul\":275:341   */\n      swap1\n      pop\n        /* \"#utility.yul\":205:347   */\n      swap2\n      swap1\n      pop\n      jump\t// out\n        /* \"#utility.yul\":353:479   */\n    tag_198:\n        /* \"#utility.yul\":403:412   */\n      0x00\n        /* \"#utility.yul\":436:473   */\n      tag_236\n        /* \"#utility.yul\":467:472   */\n      dup3\n        /* \"#utility.yul\":436:473   */\n      tag_197\n      jump\t// in\n    tag_236:\n        /* \"#utility.yul\":423:473   */\n      swap1\n      pop\n        /* \"#utility.yul\":353:479   */\n      swap2\n      swap1\n      pop\n      jump\t// out\n        /* \"#utility.yul\":485:625   */\n    tag_199:\n        /* \"#utility.yul\":549:558   */\n      0x00\n        /* \"#utility.yul\":582:619   */\n      tag_238\n        /* \"#utility.yul\":613:618   */\n      dup3\n        /* \"#utility.yul\":582:619   */\n      tag_198\n      jump\t// in\n    tag_238:\n        /* \"#utility.yul\":569:619   */\n      swap1\n      pop\n        /* \"#utility.yul\":485:625   */\n      swap2\n      swap1\n      pop\n      jump\t// out\n        /* \"#utility.yul\":631:790   */\n    tag_200:\n        /* \"#utility.yul\":732:783   */\n      tag_240\n        /* \"#utility.yul\":777:782   */\n      dup2\n        /* \"#utility.yul\":732:783   */\n      tag_199\n      jump\t// in\n    tag_240:\n        /* \"#utility.yul\":727:730   */\n      dup3\n        /* \"#utility.yul\":720:784   */\n      mstore\n        /* \"#utility.yul\":631:790   */\n      pop\n      pop\n      jump\t// out\n        /* \"#utility.yul\":796:1046   */\n    tag_19:\n        /* \"#utility.yul\":903:907   */\n      0x00\n        /* \"#utility.yul\":941:943   */\n      0x20\n        /* \"#utility.yul\":930:939   */\n      dup3\n        /* \"#utility.yul\":926:944   */\n      add\n        /* \"#utility.yul\":918:944   */\n      swap1\n      pop\n        /* \"#utility.yul\":954:1039   */\n      tag_242\n        /* \"#utility.yul\":1036:1037   */\n      0x00\n        /* \"#utility.yul\":1025:1034   */\n      dup4\n        /* \"#utility.yul\":1021:1038   */\n      add\n        /* \"#utility.yul\":1012:1018   */\n      dup5\n        /* \"#utility.yul\":954:1039   */\n      tag_200\n      jump\t// in\n    tag_242:\n        /* \"#utility.yul\":796:1046   */\n      swap3\n      swap2\n      pop\n      pop\n      jump\t// out\n        /* \"#utility.yul\":1052:1129   */\n    tag_201:\n        /* \"#utility.yul\":1089:1096   */\n      0x00\n        /* \"#utility.yul\":1118:1123   */\n      dup2\n        /* \"#utility.yul\":1107:1123   */\n      swap1\n      pop\n        /* \"#utility.yul\":1052:1129   */\n      swap2\n      swap1\n      pop\n      jump\t// out\n        /* \"#utility.yul\":1135:1253   */\n    tag_202:\n        /* \"#utility.yul\":1222:1246   */\n      tag_245\n        /* \"#utility.yul\":1240:1245   */\n      dup2\n        /* \"#utility.yul\":1222:1246   */\n      tag_201\n      jump\t// in\n    tag_245:\n        /* \"#utility.yul\":1217:1220   */\n      dup3\n        /* \"#utility.yul\":1210:1247   */\n      mstore\n        /* \"#utility.yul\":1135:1253   */\n      pop\n      pop\n      jump\t// out\n        /* \"#utility.yul\":1259:1481   */\n    tag_23:\n        /* \"#utility.yul\":1352:1356   */\n      0x00\n        /* \"#utility.yul\":1390:1392   */\n      0x20\n        /* \"#utility.yul\":1379:1388   */\n      dup3\n        /* \"#utility.yul\":1375:1393   */\n      add\n        /* \"#utility.yul\":1367:1393   */\n      swap1\n      pop\n        /* \"#utility.yul\":1403:1474   */\n      tag_247\n        /* \"#utility.yul\":1471:1472   */\n      0x00\n        /* \"#utility.yul\":1460:1469   */\n      dup4\n        /* \"#utility.yul\":1456:1473   */\n      add\n        /* \"#utility.yul\":1447:1453   */\n      dup5\n        /* \"#utility.yul\":1403:1474   */\n      tag_202\n      jump\t// in\n    tag_247:\n        /* \"#utility.yul\":1259:1481   */\n      swap3\n      swap2\n      pop\n      pop\n      jump\t// out\n        /* \"#utility.yul\":1568:1685   */\n    tag_204:\n        /* \"#utility.yul\":1677:1678   */\n      0x00\n        /* \"#utility.yul\":1674:1675   */\n      dup1\n        /* \"#utility.yul\":1667:1679   */\n      revert\n        /* \"#utility.yul\":1814:1910   */\n    tag_206:\n        /* \"#utility.yul\":1851:1858   */\n      0x00\n        /* \"#utility.yul\":1880:1904   */\n      tag_252\n        /* \"#utility.yul\":1898:1903   */\n      dup3\n        /* \"#utility.yul\":1880:1904   */\n      tag_195\n      jump\t// in\n    tag_252:\n        /* \"#utility.yul\":1869:1904   */\n      swap1\n      pop\n        /* \"#utility.yul\":1814:1910   */\n      swap2\n      swap1\n      pop\n      jump\t// out\n        /* \"#utility.yul\":1916:2038   */\n    tag_207:\n        /* \"#utility.yul\":1989:2013   */\n      tag_254\n        /* \"#utility.yul\":2007:2012   */\n      dup2\n        /* \"#utility.yul\":1989:2013   */\n      tag_206\n      jump\t// in\n    tag_254:\n        /* \"#utility.yul\":1982:1987   */\n      dup2\n        /* \"#utility.yul\":1979:2014   */\n      eq\n        /* \"#utility.yul\":1969:2032   */\n      tag_255\n      jumpi\n        /* \"#utility.yul\":2028:2029   */\n      0x00\n        /* \"#utility.yul\":2025:2026   */\n      dup1\n        /* \"#utility.yul\":2018:2030   */\n      revert\n        /* \"#utility.yul\":1969:2032   */\n    tag_255:\n        /* \"#utility.yul\":1916:2038   */\n      pop\n      jump\t// out\n        /* \"#utility.yul\":2044:2183   */\n    tag_208:\n        /* \"#utility.yul\":2090:2095   */\n      0x00\n        /* \"#utility.yul\":2128:2134   */\n      dup2\n        /* \"#utility.yul\":2115:2135   */\n      calldataload\n        /* \"#utility.yul\":2106:2135   */\n      swap1\n      pop\n        /* \"#utility.yul\":2144:2177   */\n      tag_257\n        /* \"#utility.yul\":2171:2176   */\n      dup2\n        /* \"#utility.yul\":2144:2177   */\n      tag_207\n      jump\t// in\n    tag_257:\n        /* \"#utility.yul\":2044:2183   */\n      swap3\n      swap2\n      pop\n      pop\n      jump\t// out\n        /* \"#utility.yul\":2189:2518   */\n    tag_26:\n        /* \"#utility.yul\":2248:2254   */\n      0x00\n        /* \"#utility.yul\":2297:2299   */\n      0x20\n        /* \"#utility.yul\":2285:2294   */\n      dup3\n        /* \"#utility.yul\":2276:2283   */\n      dup5\n        /* \"#utility.yul\":2272:2295   */\n      sub\n        /* \"#utility.yul\":2268:2300   */\n      slt\n        /* \"#utility.yul\":2265:2384   */\n      iszero\n      tag_259\n      jumpi\n        /* \"#utility.yul\":2303:2382   */\n      tag_260\n      tag_204\n      jump\t// in\n    tag_260:\n        /* \"#utility.yul\":2265:2384   */\n    tag_259:\n        /* \"#utility.yul\":2423:2424   */\n      0x00\n        /* \"#utility.yul\":2448:2501   */\n      tag_261\n        /* \"#utility.yul\":2493:2500   */\n      dup5\n        /* \"#utility.yul\":2484:2490   */\n      dup3\n        /* \"#utility.yul\":2473:2482   */\n      dup6\n        /* \"#utility.yul\":2469:2491   */\n      add\n        /* \"#utility.yul\":2448:2501   */\n      tag_208\n      jump\t// in\n    tag_261:\n        /* \"#utility.yul\":2438:2501   */\n      swap2\n      pop\n        /* \"#utility.yul\":2394:2511   */\n      pop\n        /* \"#utility.yul\":2189:2518   */\n      swap3\n      swap2\n      pop\n      pop\n      jump\t// out\n        /* \"#utility.yul\":2524:2646   */\n    tag_209:\n        /* \"#utility.yul\":2597:2621   */\n      tag_263\n        /* \"#utility.yul\":2615:2620   */\n      dup2\n        /* \"#utility.yul\":2597:2621   */\n      tag_201\n      jump\t// in\n    tag_263:\n        /* \"#utility.yul\":2590:2595   */\n      dup2\n        /* \"#utility.yul\":2587:2622   */\n      eq\n        /* \"#utility.yul\":2577:2640   */\n      tag_264\n      jumpi\n        /* \"#utility.yul\":2636:2637   */\n      0x00\n        /* \"#utility.yul\":2633:2634   */\n      dup1\n        /* \"#utility.yul\":2626:2638   */\n      revert\n        /* \"#utility.yul\":2577:2640   */\n    tag_264:\n        /* \"#utility.yul\":2524:2646   */\n      pop\n      jump\t// out\n        /* \"#utility.yul\":2652:2791   */\n    tag_210:\n        /* \"#utility.yul\":2698:2703   */\n      0x00\n        /* \"#utility.yul\":2736:2742   */\n      dup2\n        /* \"#utility.yul\":2723:2743   */\n      calldataload\n        /* \"#utility.yul\":2714:2743   */\n      swap1\n      pop\n        /* \"#utility.yul\":2752:2785   */\n      tag_266\n        /* \"#utility.yul\":2779:2784   */\n      dup2\n        /* \"#utility.yul\":2752:2785   */\n      tag_209\n      jump\t// in\n    tag_266:\n        /* \"#utility.yul\":2652:2791   */\n      swap3\n      swap2\n      pop\n      pop\n      jump\t// out\n        /* \"#utility.yul\":2797:3126   */\n    tag_39:\n        /* \"#utility.yul\":2856:2862   */\n      0x00\n        /* \"#utility.yul\":2905:2907   */\n      0x20\n        /* \"#utility.yul\":2893:2902   */\n      dup3\n        /* \"#utility.yul\":2884:2891   */\n      dup5\n        /* \"#utility.yul\":2880:2903   */\n      sub\n        /* \"#utility.yul\":2876:2908   */\n      slt\n        /* \"#utility.yul\":2873:2992   */\n      iszero\n      tag_268\n      jumpi\n        /* \"#utility.yul\":2911:2990   */\n      tag_269\n      tag_204\n      jump\t// in\n    tag_269:\n        /* \"#utility.yul\":2873:2992   */\n    tag_268:\n        /* \"#utility.yul\":3031:3032   */\n      0x00\n        /* \"#utility.yul\":3056:3109   */\n      tag_270\n        /* \"#utility.yul\":3101:3108   */\n      dup5\n        /* \"#utility.yul\":3092:3098   */\n      dup3\n        /* \"#utility.yul\":3081:3090   */\n      dup6\n        /* \"#utility.yul\":3077:3099   */\n      add\n        /* \"#utility.yul\":3056:3109   */\n      tag_210\n      jump\t// in\n    tag_270:\n        /* \"#utility.yul\":3046:3109   */\n      swap2\n      pop\n        /* \"#utility.yul\":3002:3119   */\n      pop\n        /* \"#utility.yul\":2797:3126   */\n      swap3\n      swap2\n      pop\n      pop\n      jump\t// out\n        /* \"#utility.yul\":3132:3250   */\n    tag_211:\n        /* \"#utility.yul\":3219:3243   */\n      tag_272\n        /* \"#utility.yul\":3237:3242   */\n      dup2\n        /* \"#utility.yul\":3219:3243   */\n      tag_206\n      jump\t// in\n    tag_272:\n        /* \"#utility.yul\":3214:3217   */\n      dup3\n        /* \"#utility.yul\":3207:3244   */\n      mstore\n        /* \"#utility.yul\":3132:3250   */\n      pop\n      pop\n      jump\t// out\n        /* \"#utility.yul\":3256:3478   */\n    tag_44:\n        /* \"#utility.yul\":3349:3353   */\n      0x00\n        /* \"#utility.yul\":3387:3389   */\n      0x20\n        /* \"#utility.yul\":3376:3385   */\n      dup3\n        /* \"#utility.yul\":3372:3390   */\n      add\n        /* \"#utility.yul\":3364:3390   */\n      swap1\n      pop\n        /* \"#utility.yul\":3400:3471   */\n      tag_274\n        /* \"#utility.yul\":3468:3469   */\n      0x00\n        /* \"#utility.yul\":3457:3466   */\n      dup4\n        /* \"#utility.yul\":3453:3470   */\n      add\n        /* \"#utility.yul\":3444:3450   */\n      dup5\n        /* \"#utility.yul\":3400:3471   */\n      tag_211\n      jump\t// in\n    tag_274:\n        /* \"#utility.yul\":3256:3478   */\n      swap3\n      swap2\n      pop\n      pop\n      jump\t// out\n        /* \"#utility.yul\":3484:3958   */\n    tag_47:\n        /* \"#utility.yul\":3552:3558   */\n      0x00\n        /* \"#utility.yul\":3560:3566   */\n      dup1\n        /* \"#utility.yul\":3609:3611   */\n      0x40\n        /* \"#utility.yul\":3597:3606   */\n      dup4\n        /* \"#utility.yul\":3588:3595   */\n      dup6\n        /* \"#utility.yul\":3584:3607   */\n      sub\n        /* \"#utility.yul\":3580:3612   */\n      slt\n        /* \"#utility.yul\":3577:3696   */\n      iszero\n      tag_276\n      jumpi\n        /* \"#utility.yul\":3615:3694   */\n      tag_277\n      tag_204\n      jump\t// in\n    tag_277:\n        /* \"#utility.yul\":3577:3696   */\n    tag_276:\n        /* \"#utility.yul\":3735:3736   */\n      0x00\n        /* \"#utility.yul\":3760:3813   */\n      tag_278\n        /* \"#utility.yul\":3805:3812   */\n      dup6\n        /* \"#utility.yul\":3796:3802   */\n      dup3\n        /* \"#utility.yul\":3785:3794   */\n      dup7\n        /* \"#utility.yul\":3781:3803   */\n      add\n        /* \"#utility.yul\":3760:3813   */\n      tag_210\n      jump\t// in\n    tag_278:\n        /* \"#utility.yul\":3750:3813   */\n      swap3\n      pop\n        /* \"#utility.yul\":3706:3823   */\n      pop\n        /* \"#utility.yul\":3862:3864   */\n      0x20\n        /* \"#utility.yul\":3888:3941   */\n      tag_279\n        /* \"#utility.yul\":3933:3940   */\n      dup6\n        /* \"#utility.yul\":3924:3930   */\n      dup3\n        /* \"#utility.yul\":3913:3922   */\n      dup7\n        /* \"#utility.yul\":3909:3931   */\n      add\n        /* \"#utility.yul\":3888:3941   */\n      tag_210\n      jump\t// in\n    tag_279:\n        /* \"#utility.yul\":3878:3941   */\n      swap2\n      pop\n        /* \"#utility.yul\":3833:3951   */\n      pop\n        /* \"#utility.yul\":3484:3958   */\n      swap3\n      pop\n      swap3\n      swap1\n      pop\n      jump\t// out\n        /* \"#utility.yul\":3964:4133   */\n    tag_212:\n        /* \"#utility.yul\":4048:4059   */\n      0x00\n        /* \"#utility.yul\":4082:4088   */\n      dup3\n        /* \"#utility.yul\":4077:4080   */\n      dup3\n        /* \"#utility.yul\":4070:4089   */\n      mstore\n        /* \"#utility.yul\":4122:4126   */\n      0x20\n        /* \"#utility.yul\":4117:4120   */\n      dup3\n        /* \"#utility.yul\":4113:4127   */\n      add\n        /* \"#utility.yul\":4098:4127   */\n      swap1\n      pop\n        /* \"#utility.yul\":3964:4133   */\n      swap3\n      swap2\n      pop\n      pop\n      jump\t// out\n        /* \"#utility.yul\":4139:4309   */\n    tag_213:\n        /* \"#utility.yul\":4279:4301   */\n      0x4e6f7420656e6f756768206c6971756964697479000000000000000000000000\n        /* \"#utility.yul\":4275:4276   */\n      0x00\n        /* \"#utility.yul\":4267:4273   */\n      dup3\n        /* \"#utility.yul\":4263:4277   */\n      add\n        /* \"#utility.yul\":4256:4302   */\n      mstore\n        /* \"#utility.yul\":4139:4309   */\n      pop\n      jump\t// out\n        /* \"#utility.yul\":4315:4681   */\n    tag_214:\n        /* \"#utility.yul\":4457:4460   */\n      0x00\n        /* \"#utility.yul\":4478:4545   */\n      tag_283\n        /* \"#utility.yul\":4542:4544   */\n      0x14\n        /* \"#utility.yul\":4537:4540   */\n      dup4\n        /* \"#utility.yul\":4478:4545   */\n      tag_212\n      jump\t// in\n    tag_283:\n        /* \"#utility.yul\":4471:4545   */\n      swap2\n      pop\n        /* \"#utility.yul\":4554:4647   */\n      tag_284\n        /* \"#utility.yul\":4643:4646   */\n      dup3\n        /* \"#utility.yul\":4554:4647   */\n      tag_213\n      jump\t// in\n    tag_284:\n        /* \"#utility.yul\":4672:4674   */\n      0x20\n        /* \"#utility.yul\":4667:4670   */\n      dup3\n        /* \"#utility.yul\":4663:4675   */\n      add\n        /* \"#utility.yul\":4656:4675   */\n      swap1\n      pop\n        /* \"#utility.yul\":4315:4681   */\n      swap2\n      swap1\n      pop\n      jump\t// out\n        /* \"#utility.yul\":4687:5106   */\n    tag_62:\n        /* \"#utility.yul\":4853:4857   */\n      0x00\n        /* \"#utility.yul\":4891:4893   */\n      0x20\n        /* \"#utility.yul\":4880:4889   */\n      dup3\n        /* \"#utility.yul\":4876:4894   */\n      add\n        /* \"#utility.yul\":4868:4894   */\n      swap1\n      pop\n        /* \"#utility.yul\":4940:4949   */\n      dup2\n        /* \"#utility.yul\":4934:4938   */\n      dup2\n        /* \"#utility.yul\":4930:4950   */\n      sub\n        /* \"#utility.yul\":4926:4927   */\n      0x00\n        /* \"#utility.yul\":4915:4924   */\n      dup4\n        /* \"#utility.yul\":4911:4928   */\n      add\n        /* \"#utility.yul\":4904:4951   */\n      mstore\n        /* \"#utility.yul\":4968:5099   */\n      tag_286\n        /* \"#utility.yul\":5094:5098   */\n      dup2\n        /* \"#utility.yul\":4968:5099   */\n      tag_214\n      jump\t// in\n    tag_286:\n        /* \"#utility.yul\":4960:5099   */\n      swap1\n      pop\n        /* \"#utility.yul\":4687:5106   */\n      swap2\n      swap1\n      pop\n      jump\t// out\n        /* \"#utility.yul\":5112:5283   */\n    tag_215:\n        /* \"#utility.yul\":5252:5275   */\n      0x496e76616c696420746f6b656e20616464726573730000000000000000000000\n        /* \"#utility.yul\":5248:5249   */\n      0x00\n        /* \"#utility.yul\":5240:5246   */\n      dup3\n        /* \"#utility.yul\":5236:5250   */\n      add\n        /* \"#utility.yul\":5229:5276   */\n      mstore\n        /* \"#utility.yul\":5112:5283   */\n      pop\n      jump\t// out\n        /* \"#utility.yul\":5289:5655   */\n    tag_216:\n        /* \"#utility.yul\":5431:5434   */\n      0x00\n        /* \"#utility.yul\":5452:5519   */\n      tag_289\n        /* \"#utility.yul\":5516:5518   */\n      0x15\n        /* \"#utility.yul\":5511:5514   */\n      dup4\n        /* \"#utility.yul\":5452:5519   */\n      tag_212\n      jump\t// in\n    tag_289:\n        /* \"#utility.yul\":5445:5519   */\n      swap2\n      pop\n        /* \"#utility.yul\":5528:5621   */\n      tag_290\n        /* \"#utility.yul\":5617:5620   */\n      dup3\n        /* \"#utility.yul\":5528:5621   */\n      tag_215\n      jump\t// in\n    tag_290:\n        /* \"#utility.yul\":5646:5648   */\n      0x20\n        /* \"#utility.yul\":5641:5644   */\n      dup3\n        /* \"#utility.yul\":5637:5649   */\n      add\n        /* \"#utility.yul\":5630:5649   */\n      swap1\n      pop\n        /* \"#utility.yul\":5289:5655   */\n      swap2\n      swap1\n      pop\n      jump\t// out\n        /* \"#utility.yul\":5661:6080   */\n    tag_67:\n        /* \"#utility.yul\":5827:5831   */\n      0x00\n        /* \"#utility.yul\":5865:5867   */\n      0x20\n        /* \"#utility.yul\":5854:5863   */\n      dup3\n        /* \"#utility.yul\":5850:5868   */\n      add\n        /* \"#utility.yul\":5842:5868   */\n      swap1\n      pop\n        /* \"#utility.yul\":5914:5923   */\n      dup2\n        /* \"#utility.yul\":5908:5912   */\n      dup2\n        /* \"#utility.yul\":5904:5924   */\n      sub\n        /* \"#utility.yul\":5900:5901   */\n      0x00\n        /* \"#utility.yul\":5889:5898   */\n      dup4\n        /* \"#utility.yul\":5885:5902   */\n      add\n        /* \"#utility.yul\":5878:5925   */\n      mstore\n        /* \"#utility.yul\":5942:6073   */\n      tag_292\n        /* \"#utility.yul\":6068:6072   */\n      dup2\n        /* \"#utility.yul\":5942:6073   */\n      tag_216\n      jump\t// in\n    tag_292:\n        /* \"#utility.yul\":5934:6073   */\n      swap1\n      pop\n        /* \"#utility.yul\":5661:6080   */\n      swap2\n      swap1\n      pop\n      jump\t// out\n        /* \"#utility.yul\":6086:6266   */\n    tag_217:\n        /* \"#utility.yul\":6134:6211   */\n      0x4e487b7100000000000000000000000000000000000000000000000000000000\n        /* \"#utility.yul\":6131:6132   */\n      0x00\n        /* \"#utility.yul\":6124:6212   */\n      mstore\n        /* \"#utility.yul\":6231:6235   */\n      0x11\n        /* \"#utility.yul\":6228:6229   */\n      0x04\n        /* \"#utility.yul\":6221:6236   */\n      mstore\n        /* \"#utility.yul\":6255:6259   */\n      0x24\n        /* \"#utility.yul\":6252:6253   */\n      0x00\n        /* \"#utility.yul\":6245:6260   */\n      revert\n        /* \"#utility.yul\":6272:6682   */\n    tag_70:\n        /* \"#utility.yul\":6312:6319   */\n      0x00\n        /* \"#utility.yul\":6335:6355   */\n      tag_295\n        /* \"#utility.yul\":6353:6354   */\n      dup3\n        /* \"#utility.yul\":6335:6355   */\n      tag_201\n      jump\t// in\n    tag_295:\n        /* \"#utility.yul\":6330:6355   */\n      swap2\n      pop\n        /* \"#utility.yul\":6369:6389   */\n      tag_296\n        /* \"#utility.yul\":6387:6388   */\n      dup4\n        /* \"#utility.yul\":6369:6389   */\n      tag_201\n      jump\t// in\n    tag_296:\n        /* \"#utility.yul\":6364:6389   */\n      swap3\n      pop\n        /* \"#utility.yul\":6424:6425   */\n      dup3\n        /* \"#utility.yul\":6421:6422   */\n      dup3\n        /* \"#utility.yul\":6417:6426   */\n      mul\n        /* \"#utility.yul\":6446:6476   */\n      tag_297\n        /* \"#utility.yul\":6464:6475   */\n      dup2\n        /* \"#utility.yul\":6446:6476   */\n      tag_201\n      jump\t// in\n    tag_297:\n        /* \"#utility.yul\":6435:6476   */\n      swap2\n      pop\n        /* \"#utility.yul\":6625:6626   */\n      dup3\n        /* \"#utility.yul\":6616:6623   */\n      dup3\n        /* \"#utility.yul\":6612:6627   */\n      div\n        /* \"#utility.yul\":6609:6610   */\n      dup5\n        /* \"#utility.yul\":6606:6628   */\n      eq\n        /* \"#utility.yul\":6586:6587   */\n      dup4\n        /* \"#utility.yul\":6579:6588   */\n      iszero\n        /* \"#utility.yul\":6559:6642   */\n      or\n        /* \"#utility.yul\":6536:6675   */\n      tag_298\n      jumpi\n        /* \"#utility.yul\":6655:6673   */\n      tag_299\n      tag_217\n      jump\t// in\n    tag_299:\n        /* \"#utility.yul\":6536:6675   */\n    tag_298:\n        /* \"#utility.yul\":6320:6682   */\n      pop\n        /* \"#utility.yul\":6272:6682   */\n      swap3\n      swap2\n      pop\n      pop\n      jump\t// out\n        /* \"#utility.yul\":6688:6868   */\n    tag_218:\n        /* \"#utility.yul\":6736:6813   */\n      0x4e487b7100000000000000000000000000000000000000000000000000000000\n        /* \"#utility.yul\":6733:6734   */\n      0x00\n        /* \"#utility.yul\":6726:6814   */\n      mstore\n        /* \"#utility.yul\":6833:6837   */\n      0x12\n        /* \"#utility.yul\":6830:6831   */\n      0x04\n        /* \"#utility.yul\":6823:6838   */\n      mstore\n        /* \"#utility.yul\":6857:6861   */\n      0x24\n        /* \"#utility.yul\":6854:6855   */\n      0x00\n        /* \"#utility.yul\":6847:6862   */\n      revert\n        /* \"#utility.yul\":6874:7059   */\n    tag_72:\n        /* \"#utility.yul\":6914:6915   */\n      0x00\n        /* \"#utility.yul\":6931:6951   */\n      tag_302\n        /* \"#utility.yul\":6949:6950   */\n      dup3\n        /* \"#utility.yul\":6931:6951   */\n      tag_201\n      jump\t// in\n    tag_302:\n        /* \"#utility.yul\":6926:6951   */\n      swap2\n      pop\n        /* \"#utility.yul\":6965:6985   */\n      tag_303\n        /* \"#utility.yul\":6983:6984   */\n      dup4\n        /* \"#utility.yul\":6965:6985   */\n      tag_201\n      jump\t// in\n    tag_303:\n        /* \"#utility.yul\":6960:6985   */\n      swap3\n      pop\n        /* \"#utility.yul\":7004:7005   */\n      dup3\n        /* \"#utility.yul\":6994:7029   */\n      tag_304\n      jumpi\n        /* \"#utility.yul\":7009:7027   */\n      tag_305\n      tag_218\n      jump\t// in\n    tag_305:\n        /* \"#utility.yul\":6994:7029   */\n    tag_304:\n        /* \"#utility.yul\":7051:7052   */\n      dup3\n        /* \"#utility.yul\":7048:7049   */\n      dup3\n        /* \"#utility.yul\":7044:7053   */\n      div\n        /* \"#utility.yul\":7039:7053   */\n      swap1\n      pop\n        /* \"#utility.yul\":6874:7059   */\n      swap3\n      swap2\n      pop\n      pop\n      jump\t// out\n        /* \"#utility.yul\":7065:7244   */\n    tag_219:\n        /* \"#utility.yul\":7205:7236   */\n      0x416d6f756e74206d7573742062652067726561746572207468616e2030000000\n        /* \"#utility.yul\":7201:7202   */\n      0x00\n        /* \"#utility.yul\":7193:7199   */\n      dup3\n        /* \"#utility.yul\":7189:7203   */\n      add\n        /* \"#utility.yul\":7182:7237   */\n      mstore\n        /* \"#utility.yul\":7065:7244   */\n      pop\n      jump\t// out\n        /* \"#utility.yul\":7250:7616   */\n    tag_220:\n        /* \"#utility.yul\":7392:7395   */\n      0x00\n        /* \"#utility.yul\":7413:7480   */\n      tag_308\n        /* \"#utility.yul\":7477:7479   */\n      0x1d\n        /* \"#utility.yul\":7472:7475   */\n      dup4\n        /* \"#utility.yul\":7413:7480   */\n      tag_212\n      jump\t// in\n    tag_308:\n        /* \"#utility.yul\":7406:7480   */\n      swap2\n      pop\n        /* \"#utility.yul\":7489:7582   */\n      tag_309\n        /* \"#utility.yul\":7578:7581   */\n      dup3\n        /* \"#utility.yul\":7489:7582   */\n      tag_219\n      jump\t// in\n    tag_309:\n        /* \"#utility.yul\":7607:7609   */\n      0x20\n        /* \"#utility.yul\":7602:7605   */\n      dup3\n        /* \"#utility.yul\":7598:7610   */\n      add\n        /* \"#utility.yul\":7591:7610   */\n      swap1\n      pop\n        /* \"#utility.yul\":7250:7616   */\n      swap2\n      swap1\n      pop\n      jump\t// out\n        /* \"#utility.yul\":7622:8041   */\n    tag_89:\n        /* \"#utility.yul\":7788:7792   */\n      0x00\n        /* \"#utility.yul\":7826:7828   */\n      0x20\n        /* \"#utility.yul\":7815:7824   */\n      dup3\n        /* \"#utility.yul\":7811:7829   */\n      add\n        /* \"#utility.yul\":7803:7829   */\n      swap1\n      pop\n        /* \"#utility.yul\":7875:7884   */\n      dup2\n        /* \"#utility.yul\":7869:7873   */\n      dup2\n        /* \"#utility.yul\":7865:7885   */\n      sub\n        /* \"#utility.yul\":7861:7862   */\n      0x00\n        /* \"#utility.yul\":7850:7859   */\n      dup4\n        /* \"#utility.yul\":7846:7863   */\n      add\n        /* \"#utility.yul\":7839:7886   */\n      mstore\n        /* \"#utility.yul\":7903:8034   */\n      tag_311\n        /* \"#utility.yul\":8029:8033   */\n      dup2\n        /* \"#utility.yul\":7903:8034   */\n      tag_220\n      jump\t// in\n    tag_311:\n        /* \"#utility.yul\":7895:8034   */\n      swap1\n      pop\n        /* \"#utility.yul\":7622:8041   */\n      swap2\n      swap1\n      pop\n      jump\t// out\n        /* \"#utility.yul\":8047:8238   */\n    tag_91:\n        /* \"#utility.yul\":8087:8090   */\n      0x00\n        /* \"#utility.yul\":8106:8126   */\n      tag_313\n        /* \"#utility.yul\":8124:8125   */\n      dup3\n        /* \"#utility.yul\":8106:8126   */\n      tag_201\n      jump\t// in\n    tag_313:\n        /* \"#utility.yul\":8101:8126   */\n      swap2\n      pop\n        /* \"#utility.yul\":8140:8160   */\n      tag_314\n        /* \"#utility.yul\":8158:8159   */\n      dup4\n        /* \"#utility.yul\":8140:8160   */\n      tag_201\n      jump\t// in\n    tag_314:\n        /* \"#utility.yul\":8135:8160   */\n      swap3\n      pop\n        /* \"#utility.yul\":8183:8184   */\n      dup3\n        /* \"#utility.yul\":8180:8181   */\n      dup3\n        /* \"#utility.yul\":8176:8185   */\n      add\n        /* \"#utility.yul\":8169:8185   */\n      swap1\n      pop\n        /* \"#utility.yul\":8204:8207   */\n      dup1\n        /* \"#utility.yul\":8201:8202   */\n      dup3\n        /* \"#utility.yul\":8198:8208   */\n      gt\n        /* \"#utility.yul\":8195:8231   */\n      iszero\n      tag_315\n      jumpi\n        /* \"#utility.yul\":8211:8229   */\n      tag_316\n      tag_217\n      jump\t// in\n    tag_316:\n        /* \"#utility.yul\":8195:8231   */\n    tag_315:\n        /* \"#utility.yul\":8047:8238   */\n      swap3\n      swap2\n      pop\n      pop\n      jump\t// out\n        /* \"#utility.yul\":8244:8438   */\n    tag_95:\n        /* \"#utility.yul\":8284:8288   */\n      0x00\n        /* \"#utility.yul\":8304:8324   */\n      tag_318\n        /* \"#utility.yul\":8322:8323   */\n      dup3\n        /* \"#utility.yul\":8304:8324   */\n      tag_201\n      jump\t// in\n    tag_318:\n        /* \"#utility.yul\":8299:8324   */\n      swap2\n      pop\n        /* \"#utility.yul\":8338:8358   */\n      tag_319\n        /* \"#utility.yul\":8356:8357   */\n      dup4\n        /* \"#utility.yul\":8338:8358   */\n      tag_201\n      jump\t// in\n    tag_319:\n        /* \"#utility.yul\":8333:8358   */\n      swap3\n      pop\n        /* \"#utility.yul\":8382:8383   */\n      dup3\n        /* \"#utility.yul\":8379:8380   */\n      dup3\n        /* \"#utility.yul\":8375:8384   */\n      sub\n        /* \"#utility.yul\":8367:8384   */\n      swap1\n      pop\n        /* \"#utility.yul\":8406:8407   */\n      dup2\n        /* \"#utility.yul\":8400:8404   */\n      dup2\n        /* \"#utility.yul\":8397:8408   */\n      gt\n        /* \"#utility.yul\":8394:8431   */\n      iszero\n      tag_320\n      jumpi\n        /* \"#utility.yul\":8411:8429   */\n      tag_321\n      tag_217\n      jump\t// in\n    tag_321:\n        /* \"#utility.yul\":8394:8431   */\n    tag_320:\n        /* \"#utility.yul\":8244:8438   */\n      swap3\n      swap2\n      pop\n      pop\n      jump\t// out\n        /* \"#utility.yul\":8444:8615   */\n    tag_221:\n        /* \"#utility.yul\":8584:8607   */\n      0x496e76616c6964206f757470757420616d6f756e740000000000000000000000\n        /* \"#utility.yul\":8580:8581   */\n      0x00\n        /* \"#utility.yul\":8572:8578   */\n      dup3\n        /* \"#utility.yul\":8568:8582   */\n      add\n        /* \"#utility.yul\":8561:8608   */\n      mstore\n        /* \"#utility.yul\":8444:8615   */\n      pop\n      jump\t// out\n        /* \"#utility.yul\":8621:8987   */\n    tag_222:\n        /* \"#utility.yul\":8763:8766   */\n      0x00\n        /* \"#utility.yul\":8784:8851   */\n      tag_324\n        /* \"#utility.yul\":8848:8850   */\n      0x15\n        /* \"#utility.yul\":8843:8846   */\n      dup4\n        /* \"#utility.yul\":8784:8851   */\n      tag_212\n      jump\t// in\n    tag_324:\n        /* \"#utility.yul\":8777:8851   */\n      swap2\n      pop\n        /* \"#utility.yul\":8860:8953   */\n      tag_325\n        /* \"#utility.yul\":8949:8952   */\n      dup3\n        /* \"#utility.yul\":8860:8953   */\n      tag_221\n      jump\t// in\n    tag_325:\n        /* \"#utility.yul\":8978:8980   */\n      0x20\n        /* \"#utility.yul\":8973:8976   */\n      dup3\n        /* \"#utility.yul\":8969:8981   */\n      add\n        /* \"#utility.yul\":8962:8981   */\n      swap1\n      pop\n        /* \"#utility.yul\":8621:8987   */\n      swap2\n      swap1\n      pop\n      jump\t// out\n        /* \"#utility.yul\":8993:9412   */\n    tag_99:\n        /* \"#utility.yul\":9159:9163   */\n      0x00\n        /* \"#utility.yul\":9197:9199   */\n      0x20\n        /* \"#utility.yul\":9186:9195   */\n      dup3\n        /* \"#utility.yul\":9182:9200   */\n      add\n        /* \"#utility.yul\":9174:9200   */\n      swap1\n      pop\n        /* \"#utility.yul\":9246:9255   */\n      dup2\n        /* \"#utility.yul\":9240:9244   */\n      dup2\n        /* \"#utility.yul\":9236:9256   */\n      sub\n        /* \"#utility.yul\":9232:9233   */\n      0x00\n        /* \"#utility.yul\":9221:9230   */\n      dup4\n        /* \"#utility.yul\":9217:9234   */\n      add\n        /* \"#utility.yul\":9210:9257   */\n      mstore\n        /* \"#utility.yul\":9274:9405   */\n      tag_327\n        /* \"#utility.yul\":9400:9404   */\n      dup2\n        /* \"#utility.yul\":9274:9405   */\n      tag_222\n      jump\t// in\n    tag_327:\n        /* \"#utility.yul\":9266:9405   */\n      swap1\n      pop\n        /* \"#utility.yul\":8993:9412   */\n      swap2\n      swap1\n      pop\n      jump\t// out\n        /* \"#utility.yul\":9418:9860   */\n    tag_101:\n        /* \"#utility.yul\":9567:9571   */\n      0x00\n        /* \"#utility.yul\":9605:9607   */\n      0x60\n        /* \"#utility.yul\":9594:9603   */\n      dup3\n        /* \"#utility.yul\":9590:9608   */\n      add\n        /* \"#utility.yul\":9582:9608   */\n      swap1\n      pop\n        /* \"#utility.yul\":9618:9689   */\n      tag_329\n        /* \"#utility.yul\":9686:9687   */\n      0x00\n        /* \"#utility.yul\":9675:9684   */\n      dup4\n        /* \"#utility.yul\":9671:9688   */\n      add\n        /* \"#utility.yul\":9662:9668   */\n      dup7\n        /* \"#utility.yul\":9618:9689   */\n      tag_211\n      jump\t// in\n    tag_329:\n        /* \"#utility.yul\":9699:9771   */\n      tag_330\n        /* \"#utility.yul\":9767:9769   */\n      0x20\n        /* \"#utility.yul\":9756:9765   */\n      dup4\n        /* \"#utility.yul\":9752:9770   */\n      add\n        /* \"#utility.yul\":9743:9749   */\n      dup6\n        /* \"#utility.yul\":9699:9771   */\n      tag_211\n      jump\t// in\n    tag_330:\n        /* \"#utility.yul\":9781:9853   */\n      tag_331\n        /* \"#utility.yul\":9849:9851   */\n      0x40\n        /* \"#utility.yul\":9838:9847   */\n      dup4\n        /* \"#utility.yul\":9834:9852   */\n      add\n        /* \"#utility.yul\":9825:9831   */\n      dup5\n        /* \"#utility.yul\":9781:9853   */\n      tag_202\n      jump\t// in\n    tag_331:\n        /* \"#utility.yul\":9418:9860   */\n      swap5\n      swap4\n      pop\n      pop\n      pop\n      pop\n      jump\t// out\n        /* \"#utility.yul\":9866:9956   */\n    tag_223:\n        /* \"#utility.yul\":9900:9907   */\n      0x00\n        /* \"#utility.yul\":9943:9948   */\n      dup2\n        /* \"#utility.yul\":9936:9949   */\n      iszero\n        /* \"#utility.yul\":9929:9950   */\n      iszero\n        /* \"#utility.yul\":9918:9950   */\n      swap1\n      pop\n        /* \"#utility.yul\":9866:9956   */\n      swap2\n      swap1\n      pop\n      jump\t// out\n        /* \"#utility.yul\":9962:10078   */\n    tag_224:\n        /* \"#utility.yul\":10032:10053   */\n      tag_334\n        /* \"#utility.yul\":10047:10052   */\n      dup2\n        /* \"#utility.yul\":10032:10053   */\n      tag_223\n      jump\t// in\n    tag_334:\n        /* \"#utility.yul\":10025:10030   */\n      dup2\n        /* \"#utility.yul\":10022:10054   */\n      eq\n        /* \"#utility.yul\":10012:10072   */\n      tag_335\n      jumpi\n        /* \"#utility.yul\":10068:10069   */\n      0x00\n        /* \"#utility.yul\":10065:10066   */\n      dup1\n        /* \"#utility.yul\":10058:10070   */\n      revert\n        /* \"#utility.yul\":10012:10072   */\n    tag_335:\n        /* \"#utility.yul\":9962:10078   */\n      pop\n      jump\t// out\n        /* \"#utility.yul\":10084:10221   */\n    tag_225:\n        /* \"#utility.yul\":10138:10143   */\n      0x00\n        /* \"#utility.yul\":10169:10175   */\n      dup2\n        /* \"#utility.yul\":10163:10176   */\n      mload\n        /* \"#utility.yul\":10154:10176   */\n      swap1\n      pop\n        /* \"#utility.yul\":10185:10215   */\n      tag_337\n        /* \"#utility.yul\":10209:10214   */\n      dup2\n        /* \"#utility.yul\":10185:10215   */\n      tag_224\n      jump\t// in\n    tag_337:\n        /* \"#utility.yul\":10084:10221   */\n      swap3\n      swap2\n      pop\n      pop\n      jump\t// out\n        /* \"#utility.yul\":10227:10572   */\n    tag_105:\n        /* \"#utility.yul\":10294:10300   */\n      0x00\n        /* \"#utility.yul\":10343:10345   */\n      0x20\n        /* \"#utility.yul\":10331:10340   */\n      dup3\n        /* \"#utility.yul\":10322:10329   */\n      dup5\n        /* \"#utility.yul\":10318:10341   */\n      sub\n        /* \"#utility.yul\":10314:10346   */\n      slt\n        /* \"#utility.yul\":10311:10430   */\n      iszero\n      tag_339\n      jumpi\n        /* \"#utility.yul\":10349:10428   */\n      tag_340\n      tag_204\n      jump\t// in\n    tag_340:\n        /* \"#utility.yul\":10311:10430   */\n    tag_339:\n        /* \"#utility.yul\":10469:10470   */\n      0x00\n        /* \"#utility.yul\":10494:10555   */\n      tag_341\n        /* \"#utility.yul\":10547:10554   */\n      dup5\n        /* \"#utility.yul\":10538:10544   */\n      dup3\n        /* \"#utility.yul\":10527:10536   */\n      dup6\n        /* \"#utility.yul\":10523:10545   */\n      add\n        /* \"#utility.yul\":10494:10555   */\n      tag_225\n      jump\t// in\n    tag_341:\n        /* \"#utility.yul\":10484:10555   */\n      swap2\n      pop\n        /* \"#utility.yul\":10440:10565   */\n      pop\n        /* \"#utility.yul\":10227:10572   */\n      swap3\n      swap2\n      pop\n      pop\n      jump\t// out\n        /* \"#utility.yul\":10578:10910   */\n    tag_107:\n        /* \"#utility.yul\":10699:10703   */\n      0x00\n        /* \"#utility.yul\":10737:10739   */\n      0x40\n        /* \"#utility.yul\":10726:10735   */\n      dup3\n        /* \"#utility.yul\":10722:10740   */\n      add\n        /* \"#utility.yul\":10714:10740   */\n      swap1\n      pop\n        /* \"#utility.yul\":10750:10821   */\n      tag_343\n        /* \"#utility.yul\":10818:10819   */\n      0x00\n        /* \"#utility.yul\":10807:10816   */\n      dup4\n        /* \"#utility.yul\":10803:10820   */\n      add\n        /* \"#utility.yul\":10794:10800   */\n      dup6\n        /* \"#utility.yul\":10750:10821   */\n      tag_211\n      jump\t// in\n    tag_343:\n        /* \"#utility.yul\":10831:10903   */\n      tag_344\n        /* \"#utility.yul\":10899:10901   */\n      0x20\n        /* \"#utility.yul\":10888:10897   */\n      dup4\n        /* \"#utility.yul\":10884:10902   */\n      add\n        /* \"#utility.yul\":10875:10881   */\n      dup5\n        /* \"#utility.yul\":10831:10903   */\n      tag_202\n      jump\t// in\n    tag_344:\n        /* \"#utility.yul\":10578:10910   */\n      swap4\n      swap3\n      pop\n      pop\n      pop\n      jump\t// out\n        /* \"#utility.yul\":10916:11248   */\n    tag_114:\n        /* \"#utility.yul\":11037:11041   */\n      0x00\n        /* \"#utility.yul\":11075:11077   */\n      0x40\n        /* \"#utility.yul\":11064:11073   */\n      dup3\n        /* \"#utility.yul\":11060:11078   */\n      add\n        /* \"#utility.yul\":11052:11078   */\n      swap1\n      pop\n        /* \"#utility.yul\":11088:11159   */\n      tag_346\n        /* \"#utility.yul\":11156:11157   */\n      0x00\n        /* \"#utility.yul\":11145:11154   */\n      dup4\n        /* \"#utility.yul\":11141:11158   */\n      add\n        /* \"#utility.yul\":11132:11138   */\n      dup6\n        /* \"#utility.yul\":11088:11159   */\n      tag_202\n      jump\t// in\n    tag_346:\n        /* \"#utility.yul\":11169:11241   */\n      tag_347\n        /* \"#utility.yul\":11237:11239   */\n      0x20\n        /* \"#utility.yul\":11226:11235   */\n      dup4\n        /* \"#utility.yul\":11222:11240   */\n      add\n        /* \"#utility.yul\":11213:11219   */\n      dup5\n        /* \"#utility.yul\":11169:11241   */\n      tag_202\n      jump\t// in\n    tag_347:\n        /* \"#utility.yul\":10916:11248   */\n      swap4\n      swap3\n      pop\n      pop\n      pop\n      jump\t// out\n        /* \"#utility.yul\":11254:11434   */\n    tag_226:\n        /* \"#utility.yul\":11394:11426   */\n      0x416d6f756e7473206d7573742062652067726561746572207468616e20300000\n        /* \"#utility.yul\":11390:11391   */\n      0x00\n        /* \"#utility.yul\":11382:11388   */\n      dup3\n        /* \"#utility.yul\":11378:11392   */\n      add\n        /* \"#utility.yul\":11371:11427   */\n      mstore\n        /* \"#utility.yul\":11254:11434   */\n      pop\n      jump\t// out\n        /* \"#utility.yul\":11440:11806   */\n    tag_227:\n        /* \"#utility.yul\":11582:11585   */\n      0x00\n        /* \"#utility.yul\":11603:11670   */\n      tag_350\n        /* \"#utility.yul\":11667:11669   */\n      0x1e\n        /* \"#utility.yul\":11662:11665   */\n      dup4\n        /* \"#utility.yul\":11603:11670   */\n      tag_212\n      jump\t// in\n    tag_350:\n        /* \"#utility.yul\":11596:11670   */\n      swap2\n      pop\n        /* \"#utility.yul\":11679:11772   */\n      tag_351\n        /* \"#utility.yul\":11768:11771   */\n      dup3\n        /* \"#utility.yul\":11679:11772   */\n      tag_226\n      jump\t// in\n    tag_351:\n        /* \"#utility.yul\":11797:11799   */\n      0x20\n        /* \"#utility.yul\":11792:11795   */\n      dup3\n        /* \"#utility.yul\":11788:11800   */\n      add\n        /* \"#utility.yul\":11781:11800   */\n      swap1\n      pop\n        /* \"#utility.yul\":11440:11806   */\n      swap2\n      swap1\n      pop\n      jump\t// out\n        /* \"#utility.yul\":11812:12231   */\n    tag_122:\n        /* \"#utility.yul\":11978:11982   */\n      0x00\n        /* \"#utility.yul\":12016:12018   */\n      0x20\n        /* \"#utility.yul\":12005:12014   */\n      dup3\n        /* \"#utility.yul\":12001:12019   */\n      add\n        /* \"#utility.yul\":11993:12019   */\n      swap1\n      pop\n        /* \"#utility.yul\":12065:12074   */\n      dup2\n        /* \"#utility.yul\":12059:12063   */\n      dup2\n        /* \"#utility.yul\":12055:12075   */\n      sub\n        /* \"#utility.yul\":12051:12052   */\n      0x00\n        /* \"#utility.yul\":12040:12049   */\n      dup4\n        /* \"#utility.yul\":12036:12053   */\n      add\n        /* \"#utility.yul\":12029:12076   */\n      mstore\n        /* \"#utility.yul\":12093:12224   */\n      tag_353\n        /* \"#utility.yul\":12219:12223   */\n      dup2\n        /* \"#utility.yul\":12093:12224   */\n      tag_227\n      jump\t// in\n    tag_353:\n        /* \"#utility.yul\":12085:12224   */\n      swap1\n      pop\n        /* \"#utility.yul\":11812:12231   */\n      swap2\n      swap1\n      pop\n      jump\t// out\n\n    auxdata: 0xa2646970667358221220246fe752f6090c6eff13f70b7286988dcce2fefa26a5aa6b23ec444b19c0b00f64736f6c63430008190033\n}\n",
				"bytecode": {
					"linkReferences": {},
					"object": "608060405234801561000f575f80fd5b5060405161199c38038061199c83398181016040528101906100319190610259565b805f73ffffffffffffffffffffffffffffffffffffffff168173ffffffffffffffffffffffffffffffffffffffff16036100a2575f6040517f1e4fbdf700000000000000000000000000000000000000000000000000000000815260040161009991906102b8565b60405180910390fd5b6100b18161013a60201b60201c565b508260015f6101000a81548173ffffffffffffffffffffffffffffffffffffffff021916908373ffffffffffffffffffffffffffffffffffffffff1602179055508160025f6101000a81548173ffffffffffffffffffffffffffffffffffffffff021916908373ffffffffffffffffffffffffffffffffffffffff1602179055505050506102d1565b5f805f9054906101000a900473ffffffffffffffffffffffffffffffffffffffff169050815f806101000a81548173ffffffffffffffffffffffffffffffffffffffff021916908373ffffffffffffffffffffffffffffffffffffffff1602179055508173ffffffffffffffffffffffffffffffffffffffff168173ffffffffffffffffffffffffffffffffffffffff167f8be0079c531659141344cd1fd0a4f28419497f9722a3daafe3b4186f6b6457e060405160405180910390a35050565b5f80fd5b5f73ffffffffffffffffffffffffffffffffffffffff82169050919050565b5f610228826101ff565b9050919050565b6102388161021e565b8114610242575f80fd5b50565b5f815190506102538161022f565b92915050565b5f805f606084860312156102705761026f6101fb565b5b5f61027d86828701610245565b935050602061028e86828701610245565b925050604061029f86828701610245565b9150509250925092565b6102b28161021e565b82525050565b5f6020820190506102cb5f8301846102a9565b92915050565b6116be806102de5f395ff3fe608060405234801561000f575f80fd5b50600436106100b2575f3560e01c80638014a7aa1161006f5780638014a7aa146101685780638da5cb5b146101845780639cd441da146101a25780639d7de6b3146101be578063e4f1f70a146101da578063f2fde38b146101f6576100b2565b80630fc63d10146100b657806321ecb58b146100d457806341976e09146100f25780635f64b55b146101225780636009c4a014610140578063715018a61461015e575b5f80fd5b6100be610212565b6040516100cb91906110ed565b60405180910390f35b6100dc610237565b6040516100e9919061111e565b60405180910390f35b61010c60048036038101906101079190611176565b61023d565b604051610119919061111e565b60405180910390f35b61012a61041e565b60405161013791906110ed565b60405180910390f35b610148610443565b604051610155919061111e565b60405180910390f35b610166610449565b005b610182600480360381019061017d91906111cb565b61045c565b005b61018c610741565b6040516101999190611205565b60405180910390f35b6101bc60048036038101906101b7919061121e565b610768565b005b6101d860048036038101906101d3919061121e565b610968565b005b6101f460048036038101906101ef91906111cb565b610bbb565b005b610210600480360381019061020b9190611176565b610ea0565b005b60015f9054906101000a900473ffffffffffffffffffffffffffffffffffffffff1681565b60035481565b5f8060035411801561025057505f600454115b61028f576040517f08c379a0000000000000000000000000000000000000000000000000000000008152600401610286906112b6565b60405180910390fd5b60015f9054906101000a900473ffffffffffffffffffffffffffffffffffffffff1673ffffffffffffffffffffffffffffffffffffffff168273ffffffffffffffffffffffffffffffffffffffff161480610336575060025f9054906101000a900473ffffffffffffffffffffffffffffffffffffffff1673ffffffffffffffffffffffffffffffffffffffff168273ffffffffffffffffffffffffffffffffffffffff16145b610375576040517f08c379a000000000000000000000000000000000000000000000000000000000815260040161036c9061131e565b60405180910390fd5b60015f9054906101000a900473ffffffffffffffffffffffffffffffffffffffff1673ffffffffffffffffffffffffffffffffffffffff168273ffffffffffffffffffffffffffffffffffffffff16036103f357600354670de0b6b3a76400006004546103e29190611369565b6103ec91906113d7565b9050610419565b600454670de0b6b3a764000060035461040c9190611369565b61041691906113d7565b90505b919050565b60025f9054906101000a900473ffffffffffffffffffffffffffffffffffffffff1681565b60045481565b610451610f24565b61045a5f610fab565b565b5f60035411801561046e57505f600454115b6104ad576040517f08c379a00000000000000000000000000000000000000000000000000000000081526004016104a4906112b6565b60405180910390fd5b5f81116104ef576040517f08c379a00000000000000000000000000000000000000000000000000000000081526004016104e690611451565b60405180910390fd5b5f816004546104fe919061146f565b90505f816004546003546105129190611369565b61051c91906113d7565b90505f8160035461052d91906114a2565b90505f8111801561054057506003548111155b61057f576040517f08c379a00000000000000000000000000000000000000000000000000000000081526004016105769061151f565b60405180910390fd5b60025f9054906101000a900473ffffffffffffffffffffffffffffffffffffffff1673ffffffffffffffffffffffffffffffffffffffff166323b872dd3330876040518463ffffffff1660e01b81526004016105dd9392919061153d565b6020604051808303815f875af11580156105f9573d5f803e3d5ffd5b505050506040513d601f19601f8201168201806040525081019061061d91906115a7565b5060015f9054906101000a900473ffffffffffffffffffffffffffffffffffffffff1673ffffffffffffffffffffffffffffffffffffffff1663a9059cbb33836040518363ffffffff1660e01b815260040161067a9291906115d2565b6020604051808303815f875af1158015610696573d5f803e3d5ffd5b505050506040513d601f19601f820116820180604052508101906106ba91906115a7565b508360045f8282546106cc919061146f565b925050819055508060035f8282546106e491906114a2565b925050819055503373ffffffffffffffffffffffffffffffffffffffff167fbb8ca5a7eaee5dfdf64c229b7ceb6cb3ec5b257008af3f94d86ef0771058f35385836040516107339291906115f9565b60405180910390a250505050565b5f805f9054906101000a900473ffffffffffffffffffffffffffffffffffffffff16905090565b610770610f24565b5f8211801561077e57505f81115b6107bd576040517f08c379a00000000000000000000000000000000000000000000000000000000081526004016107b49061166a565b60405180910390fd5b60015f9054906101000a900473ffffffffffffffffffffffffffffffffffffffff1673ffffffffffffffffffffffffffffffffffffffff166323b872dd3330856040518463ffffffff1660e01b815260040161081b9392919061153d565b6020604051808303815f875af1158015610837573d5f803e3d5ffd5b505050506040513d601f19601f8201168201806040525081019061085b91906115a7565b5060025f9054906101000a900473ffffffffffffffffffffffffffffffffffffffff1673ffffffffffffffffffffffffffffffffffffffff166323b872dd3330846040518463ffffffff1660e01b81526004016108ba9392919061153d565b6020604051808303815f875af11580156108d6573d5f803e3d5ffd5b505050506040513d601f19601f820116820180604052508101906108fa91906115a7565b508160035f82825461090c919061146f565b925050819055508060045f828254610924919061146f565b925050819055507f38f8a0c92f4c5b0b6877f878cb4c0c8d348a47b76d716c8e78f425043df9515b828260405161095c9291906115f9565b60405180910390a15050565b610970610f24565b5f60035411801561098257505f600454115b6109c1576040517f08c379a00000000000000000000000000000000000000000000000000000000081526004016109b8906112b6565b60405180910390fd5b60035482111580156109d557506004548111155b610a14576040517f08c379a0000000000000000000000000000000000000000000000000000000008152600401610a0b906112b6565b60405180910390fd5b8160035f828254610a2591906114a2565b925050819055508060045f828254610a3d91906114a2565b9250508190555060015f9054906101000a900473ffffffffffffffffffffffffffffffffffffffff1673ffffffffffffffffffffffffffffffffffffffff1663a9059cbb33846040518363ffffffff1660e01b8152600401610aa09291906115d2565b6020604051808303815f875af1158015610abc573d5f803e3d5ffd5b505050506040513d601f19601f82011682018060405250810190610ae091906115a7565b5060025f9054906101000a900473ffffffffffffffffffffffffffffffffffffffff1673ffffffffffffffffffffffffffffffffffffffff1663a9059cbb33836040518363ffffffff1660e01b8152600401610b3d9291906115d2565b6020604051808303815f875af1158015610b59573d5f803e3d5ffd5b505050506040513d601f19601f82011682018060405250810190610b7d91906115a7565b507f6f0f96292ae0038c04f9b6bab30f185d9ca02c471d0983f563f2a4f674aef1378282604051610baf9291906115f9565b60405180910390a15050565b5f600354118015610bcd57505f600454115b610c0c576040517f08c379a0000000000000000000000000000000000000000000000000000000008152600401610c03906112b6565b60405180910390fd5b5f8111610c4e576040517f08c379a0000000000000000000000000000000000000000000000000000000008152600401610c4590611451565b60405180910390fd5b5f81600354610c5d919061146f565b90505f81600454600354610c719190611369565b610c7b91906113d7565b90505f81600454610c8c91906114a2565b90505f81118015610c9f57506004548111155b610cde576040517f08c379a0000000000000000000000000000000000000000000000000000000008152600401610cd59061151f565b60405180910390fd5b60015f9054906101000a900473ffffffffffffffffffffffffffffffffffffffff1673ffffffffffffffffffffffffffffffffffffffff166323b872dd3330876040518463ffffffff1660e01b8152600401610d3c9392919061153d565b6020604051808303815f875af1158015610d58573d5f803e3d5ffd5b505050506040513d601f19601f82011682018060405250810190610d7c91906115a7565b5060025f9054906101000a900473ffffffffffffffffffffffffffffffffffffffff1673ffffffffffffffffffffffffffffffffffffffff1663a9059cbb33836040518363ffffffff1660e01b8152600401610dd99291906115d2565b6020604051808303815f875af1158015610df5573d5f803e3d5ffd5b505050506040513d601f19601f82011682018060405250810190610e1991906115a7565b508360035f828254610e2b919061146f565b925050819055508060045f828254610e4391906114a2565b925050819055503373ffffffffffffffffffffffffffffffffffffffff167fc2bf2a98e8d2db2c47884656b8fec299cb52d46679346297495fb3f8c21f233c8583604051610e929291906115f9565b60405180910390a250505050565b610ea8610f24565b5f73ffffffffffffffffffffffffffffffffffffffff168173ffffffffffffffffffffffffffffffffffffffff1603610f18575f6040517f1e4fbdf7000000000000000000000000000000000000000000000000000000008152600401610f0f9190611205565b60405180910390fd5b610f2181610fab565b50565b610f2c61106c565b73ffffffffffffffffffffffffffffffffffffffff16610f4a610741565b73ffffffffffffffffffffffffffffffffffffffff1614610fa957610f6d61106c565b6040517f118cdaa7000000000000000000000000000000000000000000000000000000008152600401610fa09190611205565b60405180910390fd5b565b5f805f9054906101000a900473ffffffffffffffffffffffffffffffffffffffff169050815f806101000a81548173ffffffffffffffffffffffffffffffffffffffff021916908373ffffffffffffffffffffffffffffffffffffffff1602179055508173ffffffffffffffffffffffffffffffffffffffff168173ffffffffffffffffffffffffffffffffffffffff167f8be0079c531659141344cd1fd0a4f28419497f9722a3daafe3b4186f6b6457e060405160405180910390a35050565b5f33905090565b5f73ffffffffffffffffffffffffffffffffffffffff82169050919050565b5f819050919050565b5f6110b56110b06110ab84611073565b611092565b611073565b9050919050565b5f6110c68261109b565b9050919050565b5f6110d7826110bc565b9050919050565b6110e7816110cd565b82525050565b5f6020820190506111005f8301846110de565b92915050565b5f819050919050565b61111881611106565b82525050565b5f6020820190506111315f83018461110f565b92915050565b5f80fd5b5f61114582611073565b9050919050565b6111558161113b565b811461115f575f80fd5b50565b5f813590506111708161114c565b92915050565b5f6020828403121561118b5761118a611137565b5b5f61119884828501611162565b91505092915050565b6111aa81611106565b81146111b4575f80fd5b50565b5f813590506111c5816111a1565b92915050565b5f602082840312156111e0576111df611137565b5b5f6111ed848285016111b7565b91505092915050565b6111ff8161113b565b82525050565b5f6020820190506112185f8301846111f6565b92915050565b5f806040838503121561123457611233611137565b5b5f611241858286016111b7565b9250506020611252858286016111b7565b9150509250929050565b5f82825260208201905092915050565b7f4e6f7420656e6f756768206c69717569646974790000000000000000000000005f82015250565b5f6112a060148361125c565b91506112ab8261126c565b602082019050919050565b5f6020820190508181035f8301526112cd81611294565b9050919050565b7f496e76616c696420746f6b656e206164647265737300000000000000000000005f82015250565b5f61130860158361125c565b9150611313826112d4565b602082019050919050565b5f6020820190508181035f830152611335816112fc565b9050919050565b7f4e487b71000000000000000000000000000000000000000000000000000000005f52601160045260245ffd5b5f61137382611106565b915061137e83611106565b925082820261138c81611106565b915082820484148315176113a3576113a261133c565b5b5092915050565b7f4e487b71000000000000000000000000000000000000000000000000000000005f52601260045260245ffd5b5f6113e182611106565b91506113ec83611106565b9250826113fc576113fb6113aa565b5b828204905092915050565b7f416d6f756e74206d7573742062652067726561746572207468616e20300000005f82015250565b5f61143b601d8361125c565b915061144682611407565b602082019050919050565b5f6020820190508181035f8301526114688161142f565b9050919050565b5f61147982611106565b915061148483611106565b925082820190508082111561149c5761149b61133c565b5b92915050565b5f6114ac82611106565b91506114b783611106565b92508282039050818111156114cf576114ce61133c565b5b92915050565b7f496e76616c6964206f757470757420616d6f756e7400000000000000000000005f82015250565b5f61150960158361125c565b9150611514826114d5565b602082019050919050565b5f6020820190508181035f830152611536816114fd565b9050919050565b5f6060820190506115505f8301866111f6565b61155d60208301856111f6565b61156a604083018461110f565b949350505050565b5f8115159050919050565b61158681611572565b8114611590575f80fd5b50565b5f815190506115a18161157d565b92915050565b5f602082840312156115bc576115bb611137565b5b5f6115c984828501611593565b91505092915050565b5f6040820190506115e55f8301856111f6565b6115f2602083018461110f565b9392505050565b5f60408201905061160c5f83018561110f565b611619602083018461110f565b9392505050565b7f416d6f756e7473206d7573742062652067726561746572207468616e203000005f82015250565b5f611654601e8361125c565b915061165f82611620565b602082019050919050565b5f6020820190508181035f83015261168181611648565b905091905056fea2646970667358221220246fe752f6090c6eff13f70b7286988dcce2fefa26a5aa6b23ec444b19c0b00f64736f6c63430008190033",
					"opcodes": "PUSH1 0x80 PUSH1 0x40 MSTORE CALLVALUE DUP1 ISZERO PUSH2 0xF JUMPI PUSH0 DUP1 REVERT JUMPDEST POP PUSH1 0x40 MLOAD PUSH2 0x199C CODESIZE SUB DUP1 PUSH2 0x199C DUP4 CODECOPY DUP2 DUP2 ADD PUSH1 0x40 MSTORE DUP2 ADD SWAP1 PUSH2 0x31 SWAP2 SWAP1 PUSH2 0x259 JUMP JUMPDEST DUP1 PUSH0 PUSH20 0xFFFFFFFFFFFFFFFFFFFFFFFFFFFFFFFFFFFFFFFF AND DUP2 PUSH20 0xFFFFFFFFFFFFFFFFFFFFFFFFFFFFFFFFFFFFFFFF AND SUB PUSH2 0xA2 JUMPI PUSH0 PUSH1 0x40 MLOAD PUSH32 0x1E4FBDF700000000000000000000000000000000000000000000000000000000 DUP2 MSTORE PUSH1 0x4 ADD PUSH2 0x99 SWAP2 SWAP1 PUSH2 0x2B8 JUMP JUMPDEST PUSH1 0x40 MLOAD DUP1 SWAP2 SUB SWAP1 REVERT JUMPDEST PUSH2 0xB1 DUP2 PUSH2 0x13A PUSH1 0x20 SHL PUSH1 0x20 SHR JUMP JUMPDEST POP DUP3 PUSH1 0x1 PUSH0 PUSH2 0x100 EXP DUP2 SLOAD DUP2 PUSH20 0xFFFFFFFFFFFFFFFFFFFFFFFFFFFFFFFFFFFFFFFF MUL NOT AND SWAP1 DUP4 PUSH20 0xFFFFFFFFFFFFFFFFFFFFFFFFFFFFFFFFFFFFFFFF AND MUL OR SWAP1 SSTORE POP DUP2 PUSH1 0x2 PUSH0 PUSH2 0x100 EXP DUP2 SLOAD DUP2 PUSH20 0xFFFFFFFFFFFFFFFFFFFFFFFFFFFFFFFFFFFFFFFF MUL NOT AND SWAP1 DUP4 PUSH20 0xFFFFFFFFFFFFFFFFFFFFFFFFFFFFFFFFFFFFFFFF AND MUL OR SWAP1 SSTORE POP POP POP POP PUSH2 0x2D1 JUMP JUMPDEST PUSH0 DUP1 PUSH0 SWAP1 SLOAD SWAP1 PUSH2 0x100 EXP SWAP1 DIV PUSH20 0xFFFFFFFFFFFFFFFFFFFFFFFFFFFFFFFFFFFFFFFF AND SWAP1 POP DUP2 PUSH0 DUP1 PUSH2 0x100 EXP DUP2 SLOAD DUP2 PUSH20 0xFFFFFFFFFFFFFFFFFFFFFFFFFFFFFFFFFFFFFFFF MUL NOT AND SWAP1 DUP4 PUSH20 0xFFFFFFFFFFFFFFFFFFFFFFFFFFFFFFFFFFFFFFFF AND MUL OR SWAP1 SSTORE POP DUP2 PUSH20 0xFFFFFFFFFFFFFFFFFFFFFFFFFFFFFFFFFFFFFFFF AND DUP2 PUSH20 0xFFFFFFFFFFFFFFFFFFFFFFFFFFFFFFFFFFFFFFFF AND PUSH32 0x8BE0079C531659141344CD1FD0A4F28419497F9722A3DAAFE3B4186F6B6457E0 PUSH1 0x40 MLOAD PUSH1 0x40 MLOAD DUP1 SWAP2 SUB SWAP1 LOG3 POP POP JUMP JUMPDEST PUSH0 DUP1 REVERT JUMPDEST PUSH0 PUSH20 0xFFFFFFFFFFFFFFFFFFFFFFFFFFFFFFFFFFFFFFFF DUP3 AND SWAP1 POP SWAP2 SWAP1 POP JUMP JUMPDEST PUSH0 PUSH2 0x228 DUP3 PUSH2 0x1FF JUMP JUMPDEST SWAP1 POP SWAP2 SWAP1 POP JUMP JUMPDEST PUSH2 0x238 DUP2 PUSH2 0x21E JUMP JUMPDEST DUP2 EQ PUSH2 0x242 JUMPI PUSH0 DUP1 REVERT JUMPDEST POP JUMP JUMPDEST PUSH0 DUP2 MLOAD SWAP1 POP PUSH2 0x253 DUP2 PUSH2 0x22F JUMP JUMPDEST SWAP3 SWAP2 POP POP JUMP JUMPDEST PUSH0 DUP1 PUSH0 PUSH1 0x60 DUP5 DUP7 SUB SLT ISZERO PUSH2 0x270 JUMPI PUSH2 0x26F PUSH2 0x1FB JUMP JUMPDEST JUMPDEST PUSH0 PUSH2 0x27D DUP7 DUP3 DUP8 ADD PUSH2 0x245 JUMP JUMPDEST SWAP4 POP POP PUSH1 0x20 PUSH2 0x28E DUP7 DUP3 DUP8 ADD PUSH2 0x245 JUMP JUMPDEST SWAP3 POP POP PUSH1 0x40 PUSH2 0x29F DUP7 DUP3 DUP8 ADD PUSH2 0x245 JUMP JUMPDEST SWAP2 POP POP SWAP3 POP SWAP3 POP SWAP3 JUMP JUMPDEST PUSH2 0x2B2 DUP2 PUSH2 0x21E JUMP JUMPDEST DUP3 MSTORE POP POP JUMP JUMPDEST PUSH0 PUSH1 0x20 DUP3 ADD SWAP1 POP PUSH2 0x2CB PUSH0 DUP4 ADD DUP5 PUSH2 0x2A9 JUMP JUMPDEST SWAP3 SWAP2 POP POP JUMP JUMPDEST PUSH2 0x16BE DUP1 PUSH2 0x2DE PUSH0 CODECOPY PUSH0 RETURN INVALID PUSH1 0x80 PUSH1 0x40 MSTORE CALLVALUE DUP1 ISZERO PUSH2 0xF JUMPI PUSH0 DUP1 REVERT JUMPDEST POP PUSH1 0x4 CALLDATASIZE LT PUSH2 0xB2 JUMPI PUSH0 CALLDATALOAD PUSH1 0xE0 SHR DUP1 PUSH4 0x8014A7AA GT PUSH2 0x6F JUMPI DUP1 PUSH4 0x8014A7AA EQ PUSH2 0x168 JUMPI DUP1 PUSH4 0x8DA5CB5B EQ PUSH2 0x184 JUMPI DUP1 PUSH4 0x9CD441DA EQ PUSH2 0x1A2 JUMPI DUP1 PUSH4 0x9D7DE6B3 EQ PUSH2 0x1BE JUMPI DUP1 PUSH4 0xE4F1F70A EQ PUSH2 0x1DA JUMPI DUP1 PUSH4 0xF2FDE38B EQ PUSH2 0x1F6 JUMPI PUSH2 0xB2 JUMP JUMPDEST DUP1 PUSH4 0xFC63D10 EQ PUSH2 0xB6 JUMPI DUP1 PUSH4 0x21ECB58B EQ PUSH2 0xD4 JUMPI DUP1 PUSH4 0x41976E09 EQ PUSH2 0xF2 JUMPI DUP1 PUSH4 0x5F64B55B EQ PUSH2 0x122 JUMPI DUP1 PUSH4 0x6009C4A0 EQ PUSH2 0x140 JUMPI DUP1 PUSH4 0x715018A6 EQ PUSH2 0x15E JUMPI JUMPDEST PUSH0 DUP1 REVERT JUMPDEST PUSH2 0xBE PUSH2 0x212 JUMP JUMPDEST PUSH1 0x40 MLOAD PUSH2 0xCB SWAP2 SWAP1 PUSH2 0x10ED JUMP JUMPDEST PUSH1 0x40 MLOAD DUP1 SWAP2 SUB SWAP1 RETURN JUMPDEST PUSH2 0xDC PUSH2 0x237 JUMP JUMPDEST PUSH1 0x40 MLOAD PUSH2 0xE9 SWAP2 SWAP1 PUSH2 0x111E JUMP JUMPDEST PUSH1 0x40 MLOAD DUP1 SWAP2 SUB SWAP1 RETURN JUMPDEST PUSH2 0x10C PUSH1 0x4 DUP1 CALLDATASIZE SUB DUP2 ADD SWAP1 PUSH2 0x107 SWAP2 SWAP1 PUSH2 0x1176 JUMP JUMPDEST PUSH2 0x23D JUMP JUMPDEST PUSH1 0x40 MLOAD PUSH2 0x119 SWAP2 SWAP1 PUSH2 0x111E JUMP JUMPDEST PUSH1 0x40 MLOAD DUP1 SWAP2 SUB SWAP1 RETURN JUMPDEST PUSH2 0x12A PUSH2 0x41E JUMP JUMPDEST PUSH1 0x40 MLOAD PUSH2 0x137 SWAP2 SWAP1 PUSH2 0x10ED JUMP JUMPDEST PUSH1 0x40 MLOAD DUP1 SWAP2 SUB SWAP1 RETURN JUMPDEST PUSH2 0x148 PUSH2 0x443 JUMP JUMPDEST PUSH1 0x40 MLOAD PUSH2 0x155 SWAP2 SWAP1 PUSH2 0x111E JUMP JUMPDEST PUSH1 0x40 MLOAD DUP1 SWAP2 SUB SWAP1 RETURN JUMPDEST PUSH2 0x166 PUSH2 0x449 JUMP JUMPDEST STOP JUMPDEST PUSH2 0x182 PUSH1 0x4 DUP1 CALLDATASIZE SUB DUP2 ADD SWAP1 PUSH2 0x17D SWAP2 SWAP1 PUSH2 0x11CB JUMP JUMPDEST PUSH2 0x45C JUMP JUMPDEST STOP JUMPDEST PUSH2 0x18C PUSH2 0x741 JUMP JUMPDEST PUSH1 0x40 MLOAD PUSH2 0x199 SWAP2 SWAP1 PUSH2 0x1205 JUMP JUMPDEST PUSH1 0x40 MLOAD DUP1 SWAP2 SUB SWAP1 RETURN JUMPDEST PUSH2 0x1BC PUSH1 0x4 DUP1 CALLDATASIZE SUB DUP2 ADD SWAP1 PUSH2 0x1B7 SWAP2 SWAP1 PUSH2 0x121E JUMP JUMPDEST PUSH2 0x768 JUMP JUMPDEST STOP JUMPDEST PUSH2 0x1D8 PUSH1 0x4 DUP1 CALLDATASIZE SUB DUP2 ADD SWAP1 PUSH2 0x1D3 SWAP2 SWAP1 PUSH2 0x121E JUMP JUMPDEST PUSH2 0x968 JUMP JUMPDEST STOP JUMPDEST PUSH2 0x1F4 PUSH1 0x4 DUP1 CALLDATASIZE SUB DUP2 ADD SWAP1 PUSH2 0x1EF SWAP2 SWAP1 PUSH2 0x11CB JUMP JUMPDEST PUSH2 0xBBB JUMP JUMPDEST STOP JUMPDEST PUSH2 0x210 PUSH1 0x4 DUP1 CALLDATASIZE SUB DUP2 ADD SWAP1 PUSH2 0x20B SWAP2 SWAP1 PUSH2 0x1176 JUMP JUMPDEST PUSH2 0xEA0 JUMP JUMPDEST STOP JUMPDEST PUSH1 0x1 PUSH0 SWAP1 SLOAD SWAP1 PUSH2 0x100 EXP SWAP1 DIV PUSH20 0xFFFFFFFFFFFFFFFFFFFFFFFFFFFFFFFFFFFFFFFF AND DUP2 JUMP JUMPDEST PUSH1 0x3 SLOAD DUP2 JUMP JUMPDEST PUSH0 DUP1 PUSH1 0x3 SLOAD GT DUP1 ISZERO PUSH2 0x250 JUMPI POP PUSH0 PUSH1 0x4 SLOAD GT JUMPDEST PUSH2 0x28F JUMPI PUSH1 0x40 MLOAD PUSH32 0x8C379A000000000000000000000000000000000000000000000000000000000 DUP2 MSTORE PUSH1 0x4 ADD PUSH2 0x286 SWAP1 PUSH2 0x12B6 JUMP JUMPDEST PUSH1 0x40 MLOAD DUP1 SWAP2 SUB SWAP1 REVERT JUMPDEST PUSH1 0x1 PUSH0 SWAP1 SLOAD SWAP1 PUSH2 0x100 EXP SWAP1 DIV PUSH20 0xFFFFFFFFFFFFFFFFFFFFFFFFFFFFFFFFFFFFFFFF AND PUSH20 0xFFFFFFFFFFFFFFFFFFFFFFFFFFFFFFFFFFFFFFFF AND DUP3 PUSH20 0xFFFFFFFFFFFFFFFFFFFFFFFFFFFFFFFFFFFFFFFF AND EQ DUP1 PUSH2 0x336 JUMPI POP PUSH1 0x2 PUSH0 SWAP1 SLOAD SWAP1 PUSH2 0x100 EXP SWAP1 DIV PUSH20 0xFFFFFFFFFFFFFFFFFFFFFFFFFFFFFFFFFFFFFFFF AND PUSH20 0xFFFFFFFFFFFFFFFFFFFFFFFFFFFFFFFFFFFFFFFF AND DUP3 PUSH20 0xFFFFFFFFFFFFFFFFFFFFFFFFFFFFFFFFFFFFFFFF AND EQ JUMPDEST PUSH2 0x375 JUMPI PUSH1 0x40 MLOAD PUSH32 0x8C379A000000000000000000000000000000000000000000000000000000000 DUP2 MSTORE PUSH1 0x4 ADD PUSH2 0x36C SWAP1 PUSH2 0x131E JUMP JUMPDEST PUSH1 0x40 MLOAD DUP1 SWAP2 SUB SWAP1 REVERT JUMPDEST PUSH1 0x1 PUSH0 SWAP1 SLOAD SWAP1 PUSH2 0x100 EXP SWAP1 DIV PUSH20 0xFFFFFFFFFFFFFFFFFFFFFFFFFFFFFFFFFFFFFFFF AND PUSH20 0xFFFFFFFFFFFFFFFFFFFFFFFFFFFFFFFFFFFFFFFF AND DUP3 PUSH20 0xFFFFFFFFFFFFFFFFFFFFFFFFFFFFFFFFFFFFFFFF AND SUB PUSH2 0x3F3 JUMPI PUSH1 0x3 SLOAD PUSH8 0xDE0B6B3A7640000 PUSH1 0x4 SLOAD PUSH2 0x3E2 SWAP2 SWAP1 PUSH2 0x1369 JUMP JUMPDEST PUSH2 0x3EC SWAP2 SWAP1 PUSH2 0x13D7 JUMP JUMPDEST SWAP1 POP PUSH2 0x419 JUMP JUMPDEST PUSH1 0x4 SLOAD PUSH8 0xDE0B6B3A7640000 PUSH1 0x3 SLOAD PUSH2 0x40C SWAP2 SWAP1 PUSH2 0x1369 JUMP JUMPDEST PUSH2 0x416 SWAP2 SWAP1 PUSH2 0x13D7 JUMP JUMPDEST SWAP1 POP JUMPDEST SWAP2 SWAP1 POP JUMP JUMPDEST PUSH1 0x2 PUSH0 SWAP1 SLOAD SWAP1 PUSH2 0x100 EXP SWAP1 DIV PUSH20 0xFFFFFFFFFFFFFFFFFFFFFFFFFFFFFFFFFFFFFFFF AND DUP2 JUMP JUMPDEST PUSH1 0x4 SLOAD DUP2 JUMP JUMPDEST PUSH2 0x451 PUSH2 0xF24 JUMP JUMPDEST PUSH2 0x45A PUSH0 PUSH2 0xFAB JUMP JUMPDEST JUMP JUMPDEST PUSH0 PUSH1 0x3 SLOAD GT DUP1 ISZERO PUSH2 0x46E JUMPI POP PUSH0 PUSH1 0x4 SLOAD GT JUMPDEST PUSH2 0x4AD JUMPI PUSH1 0x40 MLOAD PUSH32 0x8C379A000000000000000000000000000000000000000000000000000000000 DUP2 MSTORE PUSH1 0x4 ADD PUSH2 0x4A4 SWAP1 PUSH2 0x12B6 JUMP JUMPDEST PUSH1 0x40 MLOAD DUP1 SWAP2 SUB SWAP1 REVERT JUMPDEST PUSH0 DUP2 GT PUSH2 0x4EF JUMPI PUSH1 0x40 MLOAD PUSH32 0x8C379A000000000000000000000000000000000000000000000000000000000 DUP2 MSTORE PUSH1 0x4 ADD PUSH2 0x4E6 SWAP1 PUSH2 0x1451 JUMP JUMPDEST PUSH1 0x40 MLOAD DUP1 SWAP2 SUB SWAP1 REVERT JUMPDEST PUSH0 DUP2 PUSH1 0x4 SLOAD PUSH2 0x4FE SWAP2 SWAP1 PUSH2 0x146F JUMP JUMPDEST SWAP1 POP PUSH0 DUP2 PUSH1 0x4 SLOAD PUSH1 0x3 SLOAD PUSH2 0x512 SWAP2 SWAP1 PUSH2 0x1369 JUMP JUMPDEST PUSH2 0x51C SWAP2 SWAP1 PUSH2 0x13D7 JUMP JUMPDEST SWAP1 POP PUSH0 DUP2 PUSH1 0x3 SLOAD PUSH2 0x52D SWAP2 SWAP1 PUSH2 0x14A2 JUMP JUMPDEST SWAP1 POP PUSH0 DUP2 GT DUP1 ISZERO PUSH2 0x540 JUMPI POP PUSH1 0x3 SLOAD DUP2 GT ISZERO JUMPDEST PUSH2 0x57F JUMPI PUSH1 0x40 MLOAD PUSH32 0x8C379A000000000000000000000000000000000000000000000000000000000 DUP2 MSTORE PUSH1 0x4 ADD PUSH2 0x576 SWAP1 PUSH2 0x151F JUMP JUMPDEST PUSH1 0x40 MLOAD DUP1 SWAP2 SUB SWAP1 REVERT JUMPDEST PUSH1 0x2 PUSH0 SWAP1 SLOAD SWAP1 PUSH2 0x100 EXP SWAP1 DIV PUSH20 0xFFFFFFFFFFFFFFFFFFFFFFFFFFFFFFFFFFFFFFFF AND PUSH20 0xFFFFFFFFFFFFFFFFFFFFFFFFFFFFFFFFFFFFFFFF AND PUSH4 0x23B872DD CALLER ADDRESS DUP8 PUSH1 0x40 MLOAD DUP5 PUSH4 0xFFFFFFFF AND PUSH1 0xE0 SHL DUP2 MSTORE PUSH1 0x4 ADD PUSH2 0x5DD SWAP4 SWAP3 SWAP2 SWAP1 PUSH2 0x153D JUMP JUMPDEST PUSH1 0x20 PUSH1 0x40 MLOAD DUP1 DUP4 SUB DUP2 PUSH0 DUP8 GAS CALL ISZERO DUP1 ISZERO PUSH2 0x5F9 JUMPI RETURNDATASIZE PUSH0 DUP1 RETURNDATACOPY RETURNDATASIZE PUSH0 REVERT JUMPDEST POP POP POP POP PUSH1 0x40 MLOAD RETURNDATASIZE PUSH1 0x1F NOT PUSH1 0x1F DUP3 ADD AND DUP3 ADD DUP1 PUSH1 0x40 MSTORE POP DUP2 ADD SWAP1 PUSH2 0x61D SWAP2 SWAP1 PUSH2 0x15A7 JUMP JUMPDEST POP PUSH1 0x1 PUSH0 SWAP1 SLOAD SWAP1 PUSH2 0x100 EXP SWAP1 DIV PUSH20 0xFFFFFFFFFFFFFFFFFFFFFFFFFFFFFFFFFFFFFFFF AND PUSH20 0xFFFFFFFFFFFFFFFFFFFFFFFFFFFFFFFFFFFFFFFF AND PUSH4 0xA9059CBB CALLER DUP4 PUSH1 0x40 MLOAD DUP4 PUSH4 0xFFFFFFFF AND PUSH1 0xE0 SHL DUP2 MSTORE PUSH1 0x4 ADD PUSH2 0x67A SWAP3 SWAP2 SWAP1 PUSH2 0x15D2 JUMP JUMPDEST PUSH1 0x20 PUSH1 0x40 MLOAD DUP1 DUP4 SUB DUP2 PUSH0 DUP8 GAS CALL ISZERO DUP1 ISZERO PUSH2 0x696 JUMPI RETURNDATASIZE PUSH0 DUP1 RETURNDATACOPY RETURNDATASIZE PUSH0 REVERT JUMPDEST POP POP POP POP PUSH1 0x40 MLOAD RETURNDATASIZE PUSH1 0x1F NOT PUSH1 0x1F DUP3 ADD AND DUP3 ADD DUP1 PUSH1 0x40 MSTORE POP DUP2 ADD SWAP1 PUSH2 0x6BA SWAP2 SWAP1 PUSH2 0x15A7 JUMP JUMPDEST POP DUP4 PUSH1 0x4 PUSH0 DUP3 DUP3 SLOAD PUSH2 0x6CC SWAP2 SWAP1 PUSH2 0x146F JUMP JUMPDEST SWAP3 POP POP DUP2 SWAP1 SSTORE POP DUP1 PUSH1 0x3 PUSH0 DUP3 DUP3 SLOAD PUSH2 0x6E4 SWAP2 SWAP1 PUSH2 0x14A2 JUMP JUMPDEST SWAP3 POP POP DUP2 SWAP1 SSTORE POP CALLER PUSH20 0xFFFFFFFFFFFFFFFFFFFFFFFFFFFFFFFFFFFFFFFF AND PUSH32 0xBB8CA5A7EAEE5DFDF64C229B7CEB6CB3EC5B257008AF3F94D86EF0771058F353 DUP6 DUP4 PUSH1 0x40 MLOAD PUSH2 0x733 SWAP3 SWAP2 SWAP1 PUSH2 0x15F9 JUMP JUMPDEST PUSH1 0x40 MLOAD DUP1 SWAP2 SUB SWAP1 LOG2 POP POP POP POP JUMP JUMPDEST PUSH0 DUP1 PUSH0 SWAP1 SLOAD SWAP1 PUSH2 0x100 EXP SWAP1 DIV PUSH20 0xFFFFFFFFFFFFFFFFFFFFFFFFFFFFFFFFFFFFFFFF AND SWAP1 POP SWAP1 JUMP JUMPDEST PUSH2 0x770 PUSH2 0xF24 JUMP JUMPDEST PUSH0 DUP3 GT DUP1 ISZERO PUSH2 0x77E JUMPI POP PUSH0 DUP2 GT JUMPDEST PUSH2 0x7BD JUMPI PUSH1 0x40 MLOAD PUSH32 0x8C379A000000000000000000000000000000000000000000000000000000000 DUP2 MSTORE PUSH1 0x4 ADD PUSH2 0x7B4 SWAP1 PUSH2 0x166A JUMP JUMPDEST PUSH1 0x40 MLOAD DUP1 SWAP2 SUB SWAP1 REVERT JUMPDEST PUSH1 0x1 PUSH0 SWAP1 SLOAD SWAP1 PUSH2 0x100 EXP SWAP1 DIV PUSH20 0xFFFFFFFFFFFFFFFFFFFFFFFFFFFFFFFFFFFFFFFF AND PUSH20 0xFFFFFFFFFFFFFFFFFFFFFFFFFFFFFFFFFFFFFFFF AND PUSH4 0x23B872DD CALLER ADDRESS DUP6 PUSH1 0x40 MLOAD DUP5 PUSH4 0xFFFFFFFF AND PUSH1 0xE0 SHL DUP2 MSTORE PUSH1 0x4 ADD PUSH2 0x81B SWAP4 SWAP3 SWAP2 SWAP1 PUSH2 0x153D JUMP JUMPDEST PUSH1 0x20 PUSH1 0x40 MLOAD DUP1 DUP4 SUB DUP2 PUSH0 DUP8 GAS CALL ISZERO DUP1 ISZERO PUSH2 0x837 JUMPI RETURNDATASIZE PUSH0 DUP1 RETURNDATACOPY RETURNDATASIZE PUSH0 REVERT JUMPDEST POP POP POP POP PUSH1 0x40 MLOAD RETURNDATASIZE PUSH1 0x1F NOT PUSH1 0x1F DUP3 ADD AND DUP3 ADD DUP1 PUSH1 0x40 MSTORE POP DUP2 ADD SWAP1 PUSH2 0x85B SWAP2 SWAP1 PUSH2 0x15A7 JUMP JUMPDEST POP PUSH1 0x2 PUSH0 SWAP1 SLOAD SWAP1 PUSH2 0x100 EXP SWAP1 DIV PUSH20 0xFFFFFFFFFFFFFFFFFFFFFFFFFFFFFFFFFFFFFFFF AND PUSH20 0xFFFFFFFFFFFFFFFFFFFFFFFFFFFFFFFFFFFFFFFF AND PUSH4 0x23B872DD CALLER ADDRESS DUP5 PUSH1 0x40 MLOAD DUP5 PUSH4 0xFFFFFFFF AND PUSH1 0xE0 SHL DUP2 MSTORE PUSH1 0x4 ADD PUSH2 0x8BA SWAP4 SWAP3 SWAP2 SWAP1 PUSH2 0x153D JUMP JUMPDEST PUSH1 0x20 PUSH1 0x40 MLOAD DUP1 DUP4 SUB DUP2 PUSH0 DUP8 GAS CALL ISZERO DUP1 ISZERO PUSH2 0x8D6 JUMPI RETURNDATASIZE PUSH0 DUP1 RETURNDATACOPY RETURNDATASIZE PUSH0 REVERT JUMPDEST POP POP POP POP PUSH1 0x40 MLOAD RETURNDATASIZE PUSH1 0x1F NOT PUSH1 0x1F DUP3 ADD AND DUP3 ADD DUP1 PUSH1 0x40 MSTORE POP DUP2 ADD SWAP1 PUSH2 0x8FA SWAP2 SWAP1 PUSH2 0x15A7 JUMP JUMPDEST POP DUP2 PUSH1 0x3 PUSH0 DUP3 DUP3 SLOAD PUSH2 0x90C SWAP2 SWAP1 PUSH2 0x146F JUMP JUMPDEST SWAP3 POP POP DUP2 SWAP1 SSTORE POP DUP1 PUSH1 0x4 PUSH0 DUP3 DUP3 SLOAD PUSH2 0x924 SWAP2 SWAP1 PUSH2 0x146F JUMP JUMPDEST SWAP3 POP POP DUP2 SWAP1 SSTORE POP PUSH32 0x38F8A0C92F4C5B0B6877F878CB4C0C8D348A47B76D716C8E78F425043DF9515B DUP3 DUP3 PUSH1 0x40 MLOAD PUSH2 0x95C SWAP3 SWAP2 SWAP1 PUSH2 0x15F9 JUMP JUMPDEST PUSH1 0x40 MLOAD DUP1 SWAP2 SUB SWAP1 LOG1 POP POP JUMP JUMPDEST PUSH2 0x970 PUSH2 0xF24 JUMP JUMPDEST PUSH0 PUSH1 0x3 SLOAD GT DUP1 ISZERO PUSH2 0x982 JUMPI POP PUSH0 PUSH1 0x4 SLOAD GT JUMPDEST PUSH2 0x9C1 JUMPI PUSH1 0x40 MLOAD PUSH32 0x8C379A000000000000000000000000000000000000000000000000000000000 DUP2 MSTORE PUSH1 0x4 ADD PUSH2 0x9B8 SWAP1 PUSH2 0x12B6 JUMP JUMPDEST PUSH1 0x40 MLOAD DUP1 SWAP2 SUB SWAP1 REVERT JUMPDEST PUSH1 0x3 SLOAD DUP3 GT ISZERO DUP1 ISZERO PUSH2 0x9D5 JUMPI POP PUSH1 0x4 SLOAD DUP2 GT ISZERO JUMPDEST PUSH2 0xA14 JUMPI PUSH1 0x40 MLOAD PUSH32 0x8C379A000000000000000000000000000000000000000000000000000000000 DUP2 MSTORE PUSH1 0x4 ADD PUSH2 0xA0B SWAP1 PUSH2 0x12B6 JUMP JUMPDEST PUSH1 0x40 MLOAD DUP1 SWAP2 SUB SWAP1 REVERT JUMPDEST DUP2 PUSH1 0x3 PUSH0 DUP3 DUP3 SLOAD PUSH2 0xA25 SWAP2 SWAP1 PUSH2 0x14A2 JUMP JUMPDEST SWAP3 POP POP DUP2 SWAP1 SSTORE POP DUP1 PUSH1 0x4 PUSH0 DUP3 DUP3 SLOAD PUSH2 0xA3D SWAP2 SWAP1 PUSH2 0x14A2 JUMP JUMPDEST SWAP3 POP POP DUP2 SWAP1 SSTORE POP PUSH1 0x1 PUSH0 SWAP1 SLOAD SWAP1 PUSH2 0x100 EXP SWAP1 DIV PUSH20 0xFFFFFFFFFFFFFFFFFFFFFFFFFFFFFFFFFFFFFFFF AND PUSH20 0xFFFFFFFFFFFFFFFFFFFFFFFFFFFFFFFFFFFFFFFF AND PUSH4 0xA9059CBB CALLER DUP5 PUSH1 0x40 MLOAD DUP4 PUSH4 0xFFFFFFFF AND PUSH1 0xE0 SHL DUP2 MSTORE PUSH1 0x4 ADD PUSH2 0xAA0 SWAP3 SWAP2 SWAP1 PUSH2 0x15D2 JUMP JUMPDEST PUSH1 0x20 PUSH1 0x40 MLOAD DUP1 DUP4 SUB DUP2 PUSH0 DUP8 GAS CALL ISZERO DUP1 ISZERO PUSH2 0xABC JUMPI RETURNDATASIZE PUSH0 DUP1 RETURNDATACOPY RETURNDATASIZE PUSH0 REVERT JUMPDEST POP POP POP POP PUSH1 0x40 MLOAD RETURNDATASIZE PUSH1 0x1F NOT PUSH1 0x1F DUP3 ADD AND DUP3 ADD DUP1 PUSH1 0x40 MSTORE POP DUP2 ADD SWAP1 PUSH2 0xAE0 SWAP2 SWAP1 PUSH2 0x15A7 JUMP JUMPDEST POP PUSH1 0x2 PUSH0 SWAP1 SLOAD SWAP1 PUSH2 0x100 EXP SWAP1 DIV PUSH20 0xFFFFFFFFFFFFFFFFFFFFFFFFFFFFFFFFFFFFFFFF AND PUSH20 0xFFFFFFFFFFFFFFFFFFFFFFFFFFFFFFFFFFFFFFFF AND PUSH4 0xA9059CBB CALLER DUP4 PUSH1 0x40 MLOAD DUP4 PUSH4 0xFFFFFFFF AND PUSH1 0xE0 SHL DUP2 MSTORE PUSH1 0x4 ADD PUSH2 0xB3D SWAP3 SWAP2 SWAP1 PUSH2 0x15D2 JUMP JUMPDEST PUSH1 0x20 PUSH1 0x40 MLOAD DUP1 DUP4 SUB DUP2 PUSH0 DUP8 GAS CALL ISZERO DUP1 ISZERO PUSH2 0xB59 JUMPI RETURNDATASIZE PUSH0 DUP1 RETURNDATACOPY RETURNDATASIZE PUSH0 REVERT JUMPDEST POP POP POP POP PUSH1 0x40 MLOAD RETURNDATASIZE PUSH1 0x1F NOT PUSH1 0x1F DUP3 ADD AND DUP3 ADD DUP1 PUSH1 0x40 MSTORE POP DUP2 ADD SWAP1 PUSH2 0xB7D SWAP2 SWAP1 PUSH2 0x15A7 JUMP JUMPDEST POP PUSH32 0x6F0F96292AE0038C04F9B6BAB30F185D9CA02C471D0983F563F2A4F674AEF137 DUP3 DUP3 PUSH1 0x40 MLOAD PUSH2 0xBAF SWAP3 SWAP2 SWAP1 PUSH2 0x15F9 JUMP JUMPDEST PUSH1 0x40 MLOAD DUP1 SWAP2 SUB SWAP1 LOG1 POP POP JUMP JUMPDEST PUSH0 PUSH1 0x3 SLOAD GT DUP1 ISZERO PUSH2 0xBCD JUMPI POP PUSH0 PUSH1 0x4 SLOAD GT JUMPDEST PUSH2 0xC0C JUMPI PUSH1 0x40 MLOAD PUSH32 0x8C379A000000000000000000000000000000000000000000000000000000000 DUP2 MSTORE PUSH1 0x4 ADD PUSH2 0xC03 SWAP1 PUSH2 0x12B6 JUMP JUMPDEST PUSH1 0x40 MLOAD DUP1 SWAP2 SUB SWAP1 REVERT JUMPDEST PUSH0 DUP2 GT PUSH2 0xC4E JUMPI PUSH1 0x40 MLOAD PUSH32 0x8C379A000000000000000000000000000000000000000000000000000000000 DUP2 MSTORE PUSH1 0x4 ADD PUSH2 0xC45 SWAP1 PUSH2 0x1451 JUMP JUMPDEST PUSH1 0x40 MLOAD DUP1 SWAP2 SUB SWAP1 REVERT JUMPDEST PUSH0 DUP2 PUSH1 0x3 SLOAD PUSH2 0xC5D SWAP2 SWAP1 PUSH2 0x146F JUMP JUMPDEST SWAP1 POP PUSH0 DUP2 PUSH1 0x4 SLOAD PUSH1 0x3 SLOAD PUSH2 0xC71 SWAP2 SWAP1 PUSH2 0x1369 JUMP JUMPDEST PUSH2 0xC7B SWAP2 SWAP1 PUSH2 0x13D7 JUMP JUMPDEST SWAP1 POP PUSH0 DUP2 PUSH1 0x4 SLOAD PUSH2 0xC8C SWAP2 SWAP1 PUSH2 0x14A2 JUMP JUMPDEST SWAP1 POP PUSH0 DUP2 GT DUP1 ISZERO PUSH2 0xC9F JUMPI POP PUSH1 0x4 SLOAD DUP2 GT ISZERO JUMPDEST PUSH2 0xCDE JUMPI PUSH1 0x40 MLOAD PUSH32 0x8C379A000000000000000000000000000000000000000000000000000000000 DUP2 MSTORE PUSH1 0x4 ADD PUSH2 0xCD5 SWAP1 PUSH2 0x151F JUMP JUMPDEST PUSH1 0x40 MLOAD DUP1 SWAP2 SUB SWAP1 REVERT JUMPDEST PUSH1 0x1 PUSH0 SWAP1 SLOAD SWAP1 PUSH2 0x100 EXP SWAP1 DIV PUSH20 0xFFFFFFFFFFFFFFFFFFFFFFFFFFFFFFFFFFFFFFFF AND PUSH20 0xFFFFFFFFFFFFFFFFFFFFFFFFFFFFFFFFFFFFFFFF AND PUSH4 0x23B872DD CALLER ADDRESS DUP8 PUSH1 0x40 MLOAD DUP5 PUSH4 0xFFFFFFFF AND PUSH1 0xE0 SHL DUP2 MSTORE PUSH1 0x4 ADD PUSH2 0xD3C SWAP4 SWAP3 SWAP2 SWAP1 PUSH2 0x153D JUMP JUMPDEST PUSH1 0x20 PUSH1 0x40 MLOAD DUP1 DUP4 SUB DUP2 PUSH0 DUP8 GAS CALL ISZERO DUP1 ISZERO PUSH2 0xD58 JUMPI RETURNDATASIZE PUSH0 DUP1 RETURNDATACOPY RETURNDATASIZE PUSH0 REVERT JUMPDEST POP POP POP POP PUSH1 0x40 MLOAD RETURNDATASIZE PUSH1 0x1F NOT PUSH1 0x1F DUP3 ADD AND DUP3 ADD DUP1 PUSH1 0x40 MSTORE POP DUP2 ADD SWAP1 PUSH2 0xD7C SWAP2 SWAP1 PUSH2 0x15A7 JUMP JUMPDEST POP PUSH1 0x2 PUSH0 SWAP1 SLOAD SWAP1 PUSH2 0x100 EXP SWAP1 DIV PUSH20 0xFFFFFFFFFFFFFFFFFFFFFFFFFFFFFFFFFFFFFFFF AND PUSH20 0xFFFFFFFFFFFFFFFFFFFFFFFFFFFFFFFFFFFFFFFF AND PUSH4 0xA9059CBB CALLER DUP4 PUSH1 0x40 MLOAD DUP4 PUSH4 0xFFFFFFFF AND PUSH1 0xE0 SHL DUP2 MSTORE PUSH1 0x4 ADD PUSH2 0xDD9 SWAP3 SWAP2 SWAP1 PUSH2 0x15D2 JUMP JUMPDEST PUSH1 0x20 PUSH1 0x40 MLOAD DUP1 DUP4 SUB DUP2 PUSH0 DUP8 GAS CALL ISZERO DUP1 ISZERO PUSH2 0xDF5 JUMPI RETURNDATASIZE PUSH0 DUP1 RETURNDATACOPY RETURNDATASIZE PUSH0 REVERT JUMPDEST POP POP POP POP PUSH1 0x40 MLOAD RETURNDATASIZE PUSH1 0x1F NOT PUSH1 0x1F DUP3 ADD AND DUP3 ADD DUP1 PUSH1 0x40 MSTORE POP DUP2 ADD SWAP1 PUSH2 0xE19 SWAP2 SWAP1 PUSH2 0x15A7 JUMP JUMPDEST POP DUP4 PUSH1 0x3 PUSH0 DUP3 DUP3 SLOAD PUSH2 0xE2B SWAP2 SWAP1 PUSH2 0x146F JUMP JUMPDEST SWAP3 POP POP DUP2 SWAP1 SSTORE POP DUP1 PUSH1 0x4 PUSH0 DUP3 DUP3 SLOAD PUSH2 0xE43 SWAP2 SWAP1 PUSH2 0x14A2 JUMP JUMPDEST SWAP3 POP POP DUP2 SWAP1 SSTORE POP CALLER PUSH20 0xFFFFFFFFFFFFFFFFFFFFFFFFFFFFFFFFFFFFFFFF AND PUSH32 0xC2BF2A98E8D2DB2C47884656B8FEC299CB52D46679346297495FB3F8C21F233C DUP6 DUP4 PUSH1 0x40 MLOAD PUSH2 0xE92 SWAP3 SWAP2 SWAP1 PUSH2 0x15F9 JUMP JUMPDEST PUSH1 0x40 MLOAD DUP1 SWAP2 SUB SWAP1 LOG2 POP POP POP POP JUMP JUMPDEST PUSH2 0xEA8 PUSH2 0xF24 JUMP JUMPDEST PUSH0 PUSH20 0xFFFFFFFFFFFFFFFFFFFFFFFFFFFFFFFFFFFFFFFF AND DUP2 PUSH20 0xFFFFFFFFFFFFFFFFFFFFFFFFFFFFFFFFFFFFFFFF AND SUB PUSH2 0xF18 JUMPI PUSH0 PUSH1 0x40 MLOAD PUSH32 0x1E4FBDF700000000000000000000000000000000000000000000000000000000 DUP2 MSTORE PUSH1 0x4 ADD PUSH2 0xF0F SWAP2 SWAP1 PUSH2 0x1205 JUMP JUMPDEST PUSH1 0x40 MLOAD DUP1 SWAP2 SUB SWAP1 REVERT JUMPDEST PUSH2 0xF21 DUP2 PUSH2 0xFAB JUMP JUMPDEST POP JUMP JUMPDEST PUSH2 0xF2C PUSH2 0x106C JUMP JUMPDEST PUSH20 0xFFFFFFFFFFFFFFFFFFFFFFFFFFFFFFFFFFFFFFFF AND PUSH2 0xF4A PUSH2 0x741 JUMP JUMPDEST PUSH20 0xFFFFFFFFFFFFFFFFFFFFFFFFFFFFFFFFFFFFFFFF AND EQ PUSH2 0xFA9 JUMPI PUSH2 0xF6D PUSH2 0x106C JUMP JUMPDEST PUSH1 0x40 MLOAD PUSH32 0x118CDAA700000000000000000000000000000000000000000000000000000000 DUP2 MSTORE PUSH1 0x4 ADD PUSH2 0xFA0 SWAP2 SWAP1 PUSH2 0x1205 JUMP JUMPDEST PUSH1 0x40 MLOAD DUP1 SWAP2 SUB SWAP1 REVERT JUMPDEST JUMP JUMPDEST PUSH0 DUP1 PUSH0 SWAP1 SLOAD SWAP1 PUSH2 0x100 EXP SWAP1 DIV PUSH20 0xFFFFFFFFFFFFFFFFFFFFFFFFFFFFFFFFFFFFFFFF AND SWAP1 POP DUP2 PUSH0 DUP1 PUSH2 0x100 EXP DUP2 SLOAD DUP2 PUSH20 0xFFFFFFFFFFFFFFFFFFFFFFFFFFFFFFFFFFFFFFFF MUL NOT AND SWAP1 DUP4 PUSH20 0xFFFFFFFFFFFFFFFFFFFFFFFFFFFFFFFFFFFFFFFF AND MUL OR SWAP1 SSTORE POP DUP2 PUSH20 0xFFFFFFFFFFFFFFFFFFFFFFFFFFFFFFFFFFFFFFFF AND DUP2 PUSH20 0xFFFFFFFFFFFFFFFFFFFFFFFFFFFFFFFFFFFFFFFF AND PUSH32 0x8BE0079C531659141344CD1FD0A4F28419497F9722A3DAAFE3B4186F6B6457E0 PUSH1 0x40 MLOAD PUSH1 0x40 MLOAD DUP1 SWAP2 SUB SWAP1 LOG3 POP POP JUMP JUMPDEST PUSH0 CALLER SWAP1 POP SWAP1 JUMP JUMPDEST PUSH0 PUSH20 0xFFFFFFFFFFFFFFFFFFFFFFFFFFFFFFFFFFFFFFFF DUP3 AND SWAP1 POP SWAP2 SWAP1 POP JUMP JUMPDEST PUSH0 DUP2 SWAP1 POP SWAP2 SWAP1 POP JUMP JUMPDEST PUSH0 PUSH2 0x10B5 PUSH2 0x10B0 PUSH2 0x10AB DUP5 PUSH2 0x1073 JUMP JUMPDEST PUSH2 0x1092 JUMP JUMPDEST PUSH2 0x1073 JUMP JUMPDEST SWAP1 POP SWAP2 SWAP1 POP JUMP JUMPDEST PUSH0 PUSH2 0x10C6 DUP3 PUSH2 0x109B JUMP JUMPDEST SWAP1 POP SWAP2 SWAP1 POP JUMP JUMPDEST PUSH0 PUSH2 0x10D7 DUP3 PUSH2 0x10BC JUMP JUMPDEST SWAP1 POP SWAP2 SWAP1 POP JUMP JUMPDEST PUSH2 0x10E7 DUP2 PUSH2 0x10CD JUMP JUMPDEST DUP3 MSTORE POP POP JUMP JUMPDEST PUSH0 PUSH1 0x20 DUP3 ADD SWAP1 POP PUSH2 0x1100 PUSH0 DUP4 ADD DUP5 PUSH2 0x10DE JUMP JUMPDEST SWAP3 SWAP2 POP POP JUMP JUMPDEST PUSH0 DUP2 SWAP1 POP SWAP2 SWAP1 POP JUMP JUMPDEST PUSH2 0x1118 DUP2 PUSH2 0x1106 JUMP JUMPDEST DUP3 MSTORE POP POP JUMP JUMPDEST PUSH0 PUSH1 0x20 DUP3 ADD SWAP1 POP PUSH2 0x1131 PUSH0 DUP4 ADD DUP5 PUSH2 0x110F JUMP JUMPDEST SWAP3 SWAP2 POP POP JUMP JUMPDEST PUSH0 DUP1 REVERT JUMPDEST PUSH0 PUSH2 0x1145 DUP3 PUSH2 0x1073 JUMP JUMPDEST SWAP1 POP SWAP2 SWAP1 POP JUMP JUMPDEST PUSH2 0x1155 DUP2 PUSH2 0x113B JUMP JUMPDEST DUP2 EQ PUSH2 0x115F JUMPI PUSH0 DUP1 REVERT JUMPDEST POP JUMP JUMPDEST PUSH0 DUP2 CALLDATALOAD SWAP1 POP PUSH2 0x1170 DUP2 PUSH2 0x114C JUMP JUMPDEST SWAP3 SWAP2 POP POP JUMP JUMPDEST PUSH0 PUSH1 0x20 DUP3 DUP5 SUB SLT ISZERO PUSH2 0x118B JUMPI PUSH2 0x118A PUSH2 0x1137 JUMP JUMPDEST JUMPDEST PUSH0 PUSH2 0x1198 DUP5 DUP3 DUP6 ADD PUSH2 0x1162 JUMP JUMPDEST SWAP2 POP POP SWAP3 SWAP2 POP POP JUMP JUMPDEST PUSH2 0x11AA DUP2 PUSH2 0x1106 JUMP JUMPDEST DUP2 EQ PUSH2 0x11B4 JUMPI PUSH0 DUP1 REVERT JUMPDEST POP JUMP JUMPDEST PUSH0 DUP2 CALLDATALOAD SWAP1 POP PUSH2 0x11C5 DUP2 PUSH2 0x11A1 JUMP JUMPDEST SWAP3 SWAP2 POP POP JUMP JUMPDEST PUSH0 PUSH1 0x20 DUP3 DUP5 SUB SLT ISZERO PUSH2 0x11E0 JUMPI PUSH2 0x11DF PUSH2 0x1137 JUMP JUMPDEST JUMPDEST PUSH0 PUSH2 0x11ED DUP5 DUP3 DUP6 ADD PUSH2 0x11B7 JUMP JUMPDEST SWAP2 POP POP SWAP3 SWAP2 POP POP JUMP JUMPDEST PUSH2 0x11FF DUP2 PUSH2 0x113B JUMP JUMPDEST DUP3 MSTORE POP POP JUMP JUMPDEST PUSH0 PUSH1 0x20 DUP3 ADD SWAP1 POP PUSH2 0x1218 PUSH0 DUP4 ADD DUP5 PUSH2 0x11F6 JUMP JUMPDEST SWAP3 SWAP2 POP POP JUMP JUMPDEST PUSH0 DUP1 PUSH1 0x40 DUP4 DUP6 SUB SLT ISZERO PUSH2 0x1234 JUMPI PUSH2 0x1233 PUSH2 0x1137 JUMP JUMPDEST JUMPDEST PUSH0 PUSH2 0x1241 DUP6 DUP3 DUP7 ADD PUSH2 0x11B7 JUMP JUMPDEST SWAP3 POP POP PUSH1 0x20 PUSH2 0x1252 DUP6 DUP3 DUP7 ADD PUSH2 0x11B7 JUMP JUMPDEST SWAP2 POP POP SWAP3 POP SWAP3 SWAP1 POP JUMP JUMPDEST PUSH0 DUP3 DUP3 MSTORE PUSH1 0x20 DUP3 ADD SWAP1 POP SWAP3 SWAP2 POP POP JUMP JUMPDEST PUSH32 0x4E6F7420656E6F756768206C6971756964697479000000000000000000000000 PUSH0 DUP3 ADD MSTORE POP JUMP JUMPDEST PUSH0 PUSH2 0x12A0 PUSH1 0x14 DUP4 PUSH2 0x125C JUMP JUMPDEST SWAP2 POP PUSH2 0x12AB DUP3 PUSH2 0x126C JUMP JUMPDEST PUSH1 0x20 DUP3 ADD SWAP1 POP SWAP2 SWAP1 POP JUMP JUMPDEST PUSH0 PUSH1 0x20 DUP3 ADD SWAP1 POP DUP2 DUP2 SUB PUSH0 DUP4 ADD MSTORE PUSH2 0x12CD DUP2 PUSH2 0x1294 JUMP JUMPDEST SWAP1 POP SWAP2 SWAP1 POP JUMP JUMPDEST PUSH32 0x496E76616C696420746F6B656E20616464726573730000000000000000000000 PUSH0 DUP3 ADD MSTORE POP JUMP JUMPDEST PUSH0 PUSH2 0x1308 PUSH1 0x15 DUP4 PUSH2 0x125C JUMP JUMPDEST SWAP2 POP PUSH2 0x1313 DUP3 PUSH2 0x12D4 JUMP JUMPDEST PUSH1 0x20 DUP3 ADD SWAP1 POP SWAP2 SWAP1 POP JUMP JUMPDEST PUSH0 PUSH1 0x20 DUP3 ADD SWAP1 POP DUP2 DUP2 SUB PUSH0 DUP4 ADD MSTORE PUSH2 0x1335 DUP2 PUSH2 0x12FC JUMP JUMPDEST SWAP1 POP SWAP2 SWAP1 POP JUMP JUMPDEST PUSH32 0x4E487B7100000000000000000000000000000000000000000000000000000000 PUSH0 MSTORE PUSH1 0x11 PUSH1 0x4 MSTORE PUSH1 0x24 PUSH0 REVERT JUMPDEST PUSH0 PUSH2 0x1373 DUP3 PUSH2 0x1106 JUMP JUMPDEST SWAP2 POP PUSH2 0x137E DUP4 PUSH2 0x1106 JUMP JUMPDEST SWAP3 POP DUP3 DUP3 MUL PUSH2 0x138C DUP2 PUSH2 0x1106 JUMP JUMPDEST SWAP2 POP DUP3 DUP3 DIV DUP5 EQ DUP4 ISZERO OR PUSH2 0x13A3 JUMPI PUSH2 0x13A2 PUSH2 0x133C JUMP JUMPDEST JUMPDEST POP SWAP3 SWAP2 POP POP JUMP JUMPDEST PUSH32 0x4E487B7100000000000000000000000000000000000000000000000000000000 PUSH0 MSTORE PUSH1 0x12 PUSH1 0x4 MSTORE PUSH1 0x24 PUSH0 REVERT JUMPDEST PUSH0 PUSH2 0x13E1 DUP3 PUSH2 0x1106 JUMP JUMPDEST SWAP2 POP PUSH2 0x13EC DUP4 PUSH2 0x1106 JUMP JUMPDEST SWAP3 POP DUP3 PUSH2 0x13FC JUMPI PUSH2 0x13FB PUSH2 0x13AA JUMP JUMPDEST JUMPDEST DUP3 DUP3 DIV SWAP1 POP SWAP3 SWAP2 POP POP JUMP JUMPDEST PUSH32 0x416D6F756E74206D7573742062652067726561746572207468616E2030000000 PUSH0 DUP3 ADD MSTORE POP JUMP JUMPDEST PUSH0 PUSH2 0x143B PUSH1 0x1D DUP4 PUSH2 0x125C JUMP JUMPDEST SWAP2 POP PUSH2 0x1446 DUP3 PUSH2 0x1407 JUMP JUMPDEST PUSH1 0x20 DUP3 ADD SWAP1 POP SWAP2 SWAP1 POP JUMP JUMPDEST PUSH0 PUSH1 0x20 DUP3 ADD SWAP1 POP DUP2 DUP2 SUB PUSH0 DUP4 ADD MSTORE PUSH2 0x1468 DUP2 PUSH2 0x142F JUMP JUMPDEST SWAP1 POP SWAP2 SWAP1 POP JUMP JUMPDEST PUSH0 PUSH2 0x1479 DUP3 PUSH2 0x1106 JUMP JUMPDEST SWAP2 POP PUSH2 0x1484 DUP4 PUSH2 0x1106 JUMP JUMPDEST SWAP3 POP DUP3 DUP3 ADD SWAP1 POP DUP1 DUP3 GT ISZERO PUSH2 0x149C JUMPI PUSH2 0x149B PUSH2 0x133C JUMP JUMPDEST JUMPDEST SWAP3 SWAP2 POP POP JUMP JUMPDEST PUSH0 PUSH2 0x14AC DUP3 PUSH2 0x1106 JUMP JUMPDEST SWAP2 POP PUSH2 0x14B7 DUP4 PUSH2 0x1106 JUMP JUMPDEST SWAP3 POP DUP3 DUP3 SUB SWAP1 POP DUP2 DUP2 GT ISZERO PUSH2 0x14CF JUMPI PUSH2 0x14CE PUSH2 0x133C JUMP JUMPDEST JUMPDEST SWAP3 SWAP2 POP POP JUMP JUMPDEST PUSH32 0x496E76616C6964206F757470757420616D6F756E740000000000000000000000 PUSH0 DUP3 ADD MSTORE POP JUMP JUMPDEST PUSH0 PUSH2 0x1509 PUSH1 0x15 DUP4 PUSH2 0x125C JUMP JUMPDEST SWAP2 POP PUSH2 0x1514 DUP3 PUSH2 0x14D5 JUMP JUMPDEST PUSH1 0x20 DUP3 ADD SWAP1 POP SWAP2 SWAP1 POP JUMP JUMPDEST PUSH0 PUSH1 0x20 DUP3 ADD SWAP1 POP DUP2 DUP2 SUB PUSH0 DUP4 ADD MSTORE PUSH2 0x1536 DUP2 PUSH2 0x14FD JUMP JUMPDEST SWAP1 POP SWAP2 SWAP1 POP JUMP JUMPDEST PUSH0 PUSH1 0x60 DUP3 ADD SWAP1 POP PUSH2 0x1550 PUSH0 DUP4 ADD DUP7 PUSH2 0x11F6 JUMP JUMPDEST PUSH2 0x155D PUSH1 0x20 DUP4 ADD DUP6 PUSH2 0x11F6 JUMP JUMPDEST PUSH2 0x156A PUSH1 0x40 DUP4 ADD DUP5 PUSH2 0x110F JUMP JUMPDEST SWAP5 SWAP4 POP POP POP POP JUMP JUMPDEST PUSH0 DUP2 ISZERO ISZERO SWAP1 POP SWAP2 SWAP1 POP JUMP JUMPDEST PUSH2 0x1586 DUP2 PUSH2 0x1572 JUMP JUMPDEST DUP2 EQ PUSH2 0x1590 JUMPI PUSH0 DUP1 REVERT JUMPDEST POP JUMP JUMPDEST PUSH0 DUP2 MLOAD SWAP1 POP PUSH2 0x15A1 DUP2 PUSH2 0x157D JUMP JUMPDEST SWAP3 SWAP2 POP POP JUMP JUMPDEST PUSH0 PUSH1 0x20 DUP3 DUP5 SUB SLT ISZERO PUSH2 0x15BC JUMPI PUSH2 0x15BB PUSH2 0x1137 JUMP JUMPDEST JUMPDEST PUSH0 PUSH2 0x15C9 DUP5 DUP3 DUP6 ADD PUSH2 0x1593 JUMP JUMPDEST SWAP2 POP POP SWAP3 SWAP2 POP POP JUMP JUMPDEST PUSH0 PUSH1 0x40 DUP3 ADD SWAP1 POP PUSH2 0x15E5 PUSH0 DUP4 ADD DUP6 PUSH2 0x11F6 JUMP JUMPDEST PUSH2 0x15F2 PUSH1 0x20 DUP4 ADD DUP5 PUSH2 0x110F JUMP JUMPDEST SWAP4 SWAP3 POP POP POP JUMP JUMPDEST PUSH0 PUSH1 0x40 DUP3 ADD SWAP1 POP PUSH2 0x160C PUSH0 DUP4 ADD DUP6 PUSH2 0x110F JUMP JUMPDEST PUSH2 0x1619 PUSH1 0x20 DUP4 ADD DUP5 PUSH2 0x110F JUMP JUMPDEST SWAP4 SWAP3 POP POP POP JUMP JUMPDEST PUSH32 0x416D6F756E7473206D7573742062652067726561746572207468616E20300000 PUSH0 DUP3 ADD MSTORE POP JUMP JUMPDEST PUSH0 PUSH2 0x1654 PUSH1 0x1E DUP4 PUSH2 0x125C JUMP JUMPDEST SWAP2 POP PUSH2 0x165F DUP3 PUSH2 0x1620 JUMP JUMPDEST PUSH1 0x20 DUP3 ADD SWAP1 POP SWAP2 SWAP1 POP JUMP JUMPDEST PUSH0 PUSH1 0x20 DUP3 ADD SWAP1 POP DUP2 DUP2 SUB PUSH0 DUP4 ADD MSTORE PUSH2 0x1681 DUP2 PUSH2 0x1648 JUMP JUMPDEST SWAP1 POP SWAP2 SWAP1 POP JUMP INVALID LOG2 PUSH5 0x6970667358 0x22 SLT KECCAK256 0x24 PUSH16 0xE752F6090C6EFF13F70B7286988DCCE2 INVALID STATICCALL 0x26 0xA5 0xAA PUSH12 0x23EC444B19C0B00F64736F6C PUSH4 0x43000819 STOP CALLER "
				},
				"gasEstimates": {
					"creation": {
						"codeDepositCost": "1164400",
						"executionCost": "infinite",
						"totalCost": "infinite"
					},
					"external": {
						"addLiquidity(uint256,uint256)": "infinite",
						"balanceofA()": "2448",
						"balanceofB()": "2514",
						"getPrice(address)": "infinite",
						"owner()": "2537",
						"removeLiquidity(uint256,uint256)": "infinite",
						"renounceOwnership()": "infinite",
						"swapAforB(uint256)": "infinite",
						"swapBforA(uint256)": "infinite",
						"tokenA()": "infinite",
						"tokenB()": "infinite",
						"transferOwnership(address)": "infinite"
					}
				},
				"methodIdentifiers": {
					"addLiquidity(uint256,uint256)": "9cd441da",
					"balanceofA()": "21ecb58b",
					"balanceofB()": "6009c4a0",
					"getPrice(address)": "41976e09",
					"owner()": "8da5cb5b",
					"removeLiquidity(uint256,uint256)": "9d7de6b3",
					"renounceOwnership()": "715018a6",
					"swapAforB(uint256)": "e4f1f70a",
					"swapBforA(uint256)": "8014a7aa",
					"tokenA()": "0fc63d10",
					"tokenB()": "5f64b55b",
					"transferOwnership(address)": "f2fde38b"
				}
			},
			"storageLayout": {
				"storage": [
					{
						"astId": 8,
						"contract": "ETHKIPU/simpleDEX/Dex_v2.sol:SimpleDEX",
						"label": "_owner",
						"offset": 0,
						"slot": "0",
						"type": "t_address"
					},
					{
						"astId": 264,
						"contract": "ETHKIPU/simpleDEX/Dex_v2.sol:SimpleDEX",
						"label": "tokenA",
						"offset": 0,
						"slot": "1",
						"type": "t_contract(IERC20)225"
					},
					{
						"astId": 267,
						"contract": "ETHKIPU/simpleDEX/Dex_v2.sol:SimpleDEX",
						"label": "tokenB",
						"offset": 0,
						"slot": "2",
						"type": "t_contract(IERC20)225"
					},
					{
						"astId": 269,
						"contract": "ETHKIPU/simpleDEX/Dex_v2.sol:SimpleDEX",
						"label": "balanceofA",
						"offset": 0,
						"slot": "3",
						"type": "t_uint256"
					},
					{
						"astId": 271,
						"contract": "ETHKIPU/simpleDEX/Dex_v2.sol:SimpleDEX",
						"label": "balanceofB",
						"offset": 0,
						"slot": "4",
						"type": "t_uint256"
					}
				],
				"types": {
					"t_address": {
						"encoding": "inplace",
						"label": "address",
						"numberOfBytes": "20"
					},
					"t_contract(IERC20)225": {
						"encoding": "inplace",
						"label": "contract IERC20",
						"numberOfBytes": "20"
					},
					"t_uint256": {
						"encoding": "inplace",
						"label": "uint256",
						"numberOfBytes": "32"
					}
				}
			},
			"userdoc": {
				"kind": "user",
				"methods": {},
				"version": 1
			}
		}
	}
}