{
	"ETHKIPU/caller1.sol": {
		"callee": {
			"abi": [
				{
					"stateMutability": "nonpayable",
					"type": "fallback"
				},
				{
					"inputs": [
						{
							"internalType": "address",
							"name": "_addr",
							"type": "address"
						}
					],
					"name": "changeContract",
					"outputs": [],
					"stateMutability": "nonpayable",
					"type": "function"
				},
				{
					"inputs": [],
					"name": "contrato",
					"outputs": [
						{
							"internalType": "address",
							"name": "",
							"type": "address"
						}
					],
					"stateMutability": "view",
					"type": "function"
				},
				{
					"inputs": [],
					"name": "valorGuardado",
					"outputs": [
						{
							"internalType": "bytes",
							"name": "",
							"type": "bytes"
						}
					],
					"stateMutability": "view",
					"type": "function"
				},
				{
					"stateMutability": "payable",
					"type": "receive"
				}
			],
			"devdoc": {
				"kind": "dev",
				"methods": {},
				"version": 1
			},
			"evm": {
				"assembly": "    /* \"ETHKIPU/caller1.sol\":68:715  contract callee {... */\n  mstore(0x40, 0x80)\n  callvalue\n  dup1\n  iszero\n  tag_1\n  jumpi\n  0x00\n  dup1\n  revert\ntag_1:\n  pop\n  dataSize(sub_0)\n  dup1\n  dataOffset(sub_0)\n  0x00\n  codecopy\n  0x00\n  return\nstop\n\nsub_0: assembly {\n        /* \"ETHKIPU/caller1.sol\":68:715  contract callee {... */\n      mstore(0x40, 0x80)\n      jumpi(tag_1, lt(calldatasize, 0x04))\n      shr(0xe0, calldataload(0x00))\n      dup1\n      0x3d71c3af\n      eq\n      tag_3\n      jumpi\n      dup1\n      0x8d7aea19\n      eq\n      tag_4\n      jumpi\n      dup1\n      0xe1a01e67\n      eq\n      tag_5\n      jumpi\n      jump(tag_2)\n    tag_1:\n      jumpi(tag_2, calldatasize)\n      stop\n    tag_2:\n      callvalue\n      dup1\n      iszero\n      tag_8\n      jumpi\n      0x00\n      dup1\n      revert\n    tag_8:\n      pop\n        /* \"ETHKIPU/caller1.sol\":371:381  bool error */\n      0x00\n        /* \"ETHKIPU/caller1.sol\":382:400  bytes memory valor */\n      dup1\n        /* \"ETHKIPU/caller1.sol\":402:410  contrato */\n      0x00\n      dup1\n      sload\n      swap1\n      0x0100\n      exp\n      swap1\n      div\n      0xffffffffffffffffffffffffffffffffffffffff\n      and\n        /* \"ETHKIPU/caller1.sol\":402:415  contrato.call */\n      0xffffffffffffffffffffffffffffffffffffffff\n      and\n        /* \"ETHKIPU/caller1.sol\":416:424  msg.data */\n      0x00\n      calldatasize\n        /* \"ETHKIPU/caller1.sol\":402:425  contrato.call(msg.data) */\n      mload(0x40)\n      tag_11\n      swap3\n      swap2\n      swap1\n      tag_12\n      jump\t// in\n    tag_11:\n      0x00\n      mload(0x40)\n      dup1\n      dup4\n      sub\n      dup2\n      0x00\n      dup7\n      gas\n      call\n      swap2\n      pop\n      pop\n      returndatasize\n      dup1\n      0x00\n      dup2\n      eq\n      tag_15\n      jumpi\n      mload(0x40)\n      swap2\n      pop\n      and(add(returndatasize, 0x3f), not(0x1f))\n      dup3\n      add\n      0x40\n      mstore\n      returndatasize\n      dup3\n      mstore\n      returndatasize\n      0x00\n      0x20\n      dup5\n      add\n      returndatacopy\n      jump(tag_14)\n    tag_15:\n      0x60\n      swap2\n      pop\n    tag_14:\n      pop\n        /* \"ETHKIPU/caller1.sol\":370:425  (bool error,bytes memory valor)=contrato.call(msg.data) */\n      swap2\n      pop\n      swap2\n      pop\n        /* \"ETHKIPU/caller1.sol\":522:527  false */\n      0x00\n        /* \"ETHKIPU/caller1.sol\":515:527  error==false */\n      iszero\n      iszero\n        /* \"ETHKIPU/caller1.sol\":515:520  error */\n      dup3\n        /* \"ETHKIPU/caller1.sol\":515:527  error==false */\n      iszero\n      iszero\n      sub\n        /* \"ETHKIPU/caller1.sol\":512:566  if(error==false) revert(\"no pude llamar a la funcion\") */\n      tag_16\n      jumpi\n        /* \"ETHKIPU/caller1.sol\":529:566  revert(\"no pude llamar a la funcion\") */\n      mload(0x40)\n      0x08c379a000000000000000000000000000000000000000000000000000000000\n      dup2\n      mstore\n      0x04\n      add\n      tag_17\n      swap1\n      tag_18\n      jump\t// in\n    tag_17:\n      mload(0x40)\n      dup1\n      swap2\n      sub\n      swap1\n      revert\n        /* \"ETHKIPU/caller1.sol\":512:566  if(error==false) revert(\"no pude llamar a la funcion\") */\n    tag_16:\n        /* \"ETHKIPU/caller1.sol\":591:596  valor */\n      dup1\n        /* \"ETHKIPU/caller1.sol\":577:590  valorGuardado */\n      0x01\n        /* \"ETHKIPU/caller1.sol\":577:596  valorGuardado=valor */\n      swap1\n      dup2\n      tag_19\n      swap2\n      swap1\n      tag_20\n      jump\t// in\n    tag_19:\n      stop\n        /* \"ETHKIPU/caller1.sol\":156:237  function changeContract(address _addr) external {... */\n    tag_3:\n      callvalue\n      dup1\n      iszero\n      tag_21\n      jumpi\n      0x00\n      dup1\n      revert\n    tag_21:\n      pop\n      tag_22\n      0x04\n      dup1\n      calldatasize\n      sub\n      dup2\n      add\n      swap1\n      tag_23\n      swap2\n      swap1\n      tag_24\n      jump\t// in\n    tag_23:\n      tag_25\n      jump\t// in\n    tag_22:\n      stop\n        /* \"ETHKIPU/caller1.sol\":121:147  bytes public valorGuardado */\n    tag_4:\n      callvalue\n      dup1\n      iszero\n      tag_26\n      jumpi\n      0x00\n      dup1\n      revert\n    tag_26:\n      pop\n      tag_27\n      tag_28\n      jump\t// in\n    tag_27:\n      mload(0x40)\n      tag_29\n      swap2\n      swap1\n      tag_30\n      jump\t// in\n    tag_29:\n      mload(0x40)\n      dup1\n      swap2\n      sub\n      swap1\n      return\n        /* \"ETHKIPU/caller1.sol\":91:114  address public contrato */\n    tag_5:\n      callvalue\n      dup1\n      iszero\n      tag_31\n      jumpi\n      0x00\n      dup1\n      revert\n    tag_31:\n      pop\n      tag_32\n      tag_33\n      jump\t// in\n    tag_32:\n      mload(0x40)\n      tag_34\n      swap2\n      swap1\n      tag_35\n      jump\t// in\n    tag_34:\n      mload(0x40)\n      dup1\n      swap2\n      sub\n      swap1\n      return\n        /* \"ETHKIPU/caller1.sol\":156:237  function changeContract(address _addr) external {... */\n    tag_25:\n        /* \"ETHKIPU/caller1.sol\":224:229  _addr */\n      dup1\n        /* \"ETHKIPU/caller1.sol\":215:223  contrato */\n      0x00\n      dup1\n        /* \"ETHKIPU/caller1.sol\":215:229  contrato=_addr */\n      0x0100\n      exp\n      dup2\n      sload\n      dup2\n      0xffffffffffffffffffffffffffffffffffffffff\n      mul\n      not\n      and\n      swap1\n      dup4\n      0xffffffffffffffffffffffffffffffffffffffff\n      and\n      mul\n      or\n      swap1\n      sstore\n      pop\n        /* \"ETHKIPU/caller1.sol\":156:237  function changeContract(address _addr) external {... */\n      pop\n      jump\t// out\n        /* \"ETHKIPU/caller1.sol\":121:147  bytes public valorGuardado */\n    tag_28:\n      0x01\n      dup1\n      sload\n      tag_37\n      swap1\n      tag_38\n      jump\t// in\n    tag_37:\n      dup1\n      0x1f\n      add\n      0x20\n      dup1\n      swap2\n      div\n      mul\n      0x20\n      add\n      mload(0x40)\n      swap1\n      dup2\n      add\n      0x40\n      mstore\n      dup1\n      swap3\n      swap2\n      swap1\n      dup2\n      dup2\n      mstore\n      0x20\n      add\n      dup3\n      dup1\n      sload\n      tag_39\n      swap1\n      tag_38\n      jump\t// in\n    tag_39:\n      dup1\n      iszero\n      tag_40\n      jumpi\n      dup1\n      0x1f\n      lt\n      tag_41\n      jumpi\n      0x0100\n      dup1\n      dup4\n      sload\n      div\n      mul\n      dup4\n      mstore\n      swap2\n      0x20\n      add\n      swap2\n      jump(tag_40)\n    tag_41:\n      dup3\n      add\n      swap2\n      swap1\n      0x00\n      mstore\n      keccak256(0x00, 0x20)\n      swap1\n    tag_42:\n      dup2\n      sload\n      dup2\n      mstore\n      swap1\n      0x01\n      add\n      swap1\n      0x20\n      add\n      dup1\n      dup4\n      gt\n      tag_42\n      jumpi\n      dup3\n      swap1\n      sub\n      0x1f\n      and\n      dup3\n      add\n      swap2\n    tag_40:\n      pop\n      pop\n      pop\n      pop\n      pop\n      dup2\n      jump\t// out\n        /* \"ETHKIPU/caller1.sol\":91:114  address public contrato */\n    tag_33:\n      0x00\n      dup1\n      sload\n      swap1\n      0x0100\n      exp\n      swap1\n      div\n      0xffffffffffffffffffffffffffffffffffffffff\n      and\n      dup2\n      jump\t// out\n        /* \"#utility.yul\":7:154   */\n    tag_43:\n        /* \"#utility.yul\":108:119   */\n      0x00\n        /* \"#utility.yul\":145:148   */\n      dup2\n        /* \"#utility.yul\":130:148   */\n      swap1\n      pop\n        /* \"#utility.yul\":7:154   */\n      swap3\n      swap2\n      pop\n      pop\n      jump\t// out\n        /* \"#utility.yul\":160:308   */\n    tag_44:\n        /* \"#utility.yul\":258:264   */\n      dup3\n        /* \"#utility.yul\":253:256   */\n      dup2\n        /* \"#utility.yul\":248:251   */\n      dup4\n        /* \"#utility.yul\":235:265   */\n      calldatacopy\n        /* \"#utility.yul\":299:300   */\n      0x00\n        /* \"#utility.yul\":290:296   */\n      dup4\n        /* \"#utility.yul\":285:288   */\n      dup4\n        /* \"#utility.yul\":281:297   */\n      add\n        /* \"#utility.yul\":274:301   */\n      mstore\n        /* \"#utility.yul\":160:308   */\n      pop\n      pop\n      pop\n      jump\t// out\n        /* \"#utility.yul\":336:663   */\n    tag_45:\n        /* \"#utility.yul\":450:453   */\n      0x00\n        /* \"#utility.yul\":471:559   */\n      tag_84\n        /* \"#utility.yul\":552:558   */\n      dup4\n        /* \"#utility.yul\":547:550   */\n      dup6\n        /* \"#utility.yul\":471:559   */\n      tag_43\n      jump\t// in\n    tag_84:\n        /* \"#utility.yul\":464:559   */\n      swap4\n      pop\n        /* \"#utility.yul\":569:625   */\n      tag_85\n        /* \"#utility.yul\":618:624   */\n      dup4\n        /* \"#utility.yul\":613:616   */\n      dup6\n        /* \"#utility.yul\":606:611   */\n      dup5\n        /* \"#utility.yul\":569:625   */\n      tag_44\n      jump\t// in\n    tag_85:\n        /* \"#utility.yul\":650:656   */\n      dup3\n        /* \"#utility.yul\":645:648   */\n      dup5\n        /* \"#utility.yul\":641:657   */\n      add\n        /* \"#utility.yul\":634:657   */\n      swap1\n      pop\n        /* \"#utility.yul\":336:663   */\n      swap4\n      swap3\n      pop\n      pop\n      pop\n      jump\t// out\n        /* \"#utility.yul\":669:960   */\n    tag_12:\n        /* \"#utility.yul\":809:812   */\n      0x00\n        /* \"#utility.yul\":831:934   */\n      tag_87\n        /* \"#utility.yul\":930:933   */\n      dup3\n        /* \"#utility.yul\":921:927   */\n      dup5\n        /* \"#utility.yul\":913:919   */\n      dup7\n        /* \"#utility.yul\":831:934   */\n      tag_45\n      jump\t// in\n    tag_87:\n        /* \"#utility.yul\":824:934   */\n      swap2\n      pop\n        /* \"#utility.yul\":951:954   */\n      dup2\n        /* \"#utility.yul\":944:954   */\n      swap1\n      pop\n        /* \"#utility.yul\":669:960   */\n      swap4\n      swap3\n      pop\n      pop\n      pop\n      jump\t// out\n        /* \"#utility.yul\":966:1135   */\n    tag_46:\n        /* \"#utility.yul\":1050:1061   */\n      0x00\n        /* \"#utility.yul\":1084:1090   */\n      dup3\n        /* \"#utility.yul\":1079:1082   */\n      dup3\n        /* \"#utility.yul\":1072:1091   */\n      mstore\n        /* \"#utility.yul\":1124:1128   */\n      0x20\n        /* \"#utility.yul\":1119:1122   */\n      dup3\n        /* \"#utility.yul\":1115:1129   */\n      add\n        /* \"#utility.yul\":1100:1129   */\n      swap1\n      pop\n        /* \"#utility.yul\":966:1135   */\n      swap3\n      swap2\n      pop\n      pop\n      jump\t// out\n        /* \"#utility.yul\":1141:1318   */\n    tag_47:\n        /* \"#utility.yul\":1281:1310   */\n      0x6e6f2070756465206c6c616d61722061206c612066756e63696f6e0000000000\n        /* \"#utility.yul\":1277:1278   */\n      0x00\n        /* \"#utility.yul\":1269:1275   */\n      dup3\n        /* \"#utility.yul\":1265:1279   */\n      add\n        /* \"#utility.yul\":1258:1311   */\n      mstore\n        /* \"#utility.yul\":1141:1318   */\n      pop\n      jump\t// out\n        /* \"#utility.yul\":1324:1690   */\n    tag_48:\n        /* \"#utility.yul\":1466:1469   */\n      0x00\n        /* \"#utility.yul\":1487:1554   */\n      tag_91\n        /* \"#utility.yul\":1551:1553   */\n      0x1b\n        /* \"#utility.yul\":1546:1549   */\n      dup4\n        /* \"#utility.yul\":1487:1554   */\n      tag_46\n      jump\t// in\n    tag_91:\n        /* \"#utility.yul\":1480:1554   */\n      swap2\n      pop\n        /* \"#utility.yul\":1563:1656   */\n      tag_92\n        /* \"#utility.yul\":1652:1655   */\n      dup3\n        /* \"#utility.yul\":1563:1656   */\n      tag_47\n      jump\t// in\n    tag_92:\n        /* \"#utility.yul\":1681:1683   */\n      0x20\n        /* \"#utility.yul\":1676:1679   */\n      dup3\n        /* \"#utility.yul\":1672:1684   */\n      add\n        /* \"#utility.yul\":1665:1684   */\n      swap1\n      pop\n        /* \"#utility.yul\":1324:1690   */\n      swap2\n      swap1\n      pop\n      jump\t// out\n        /* \"#utility.yul\":1696:2115   */\n    tag_18:\n        /* \"#utility.yul\":1862:1866   */\n      0x00\n        /* \"#utility.yul\":1900:1902   */\n      0x20\n        /* \"#utility.yul\":1889:1898   */\n      dup3\n        /* \"#utility.yul\":1885:1903   */\n      add\n        /* \"#utility.yul\":1877:1903   */\n      swap1\n      pop\n        /* \"#utility.yul\":1949:1958   */\n      dup2\n        /* \"#utility.yul\":1943:1947   */\n      dup2\n        /* \"#utility.yul\":1939:1959   */\n      sub\n        /* \"#utility.yul\":1935:1936   */\n      0x00\n        /* \"#utility.yul\":1924:1933   */\n      dup4\n        /* \"#utility.yul\":1920:1937   */\n      add\n        /* \"#utility.yul\":1913:1960   */\n      mstore\n        /* \"#utility.yul\":1977:2108   */\n      tag_94\n        /* \"#utility.yul\":2103:2107   */\n      dup2\n        /* \"#utility.yul\":1977:2108   */\n      tag_48\n      jump\t// in\n    tag_94:\n        /* \"#utility.yul\":1969:2108   */\n      swap1\n      pop\n        /* \"#utility.yul\":1696:2115   */\n      swap2\n      swap1\n      pop\n      jump\t// out\n        /* \"#utility.yul\":2121:2219   */\n    tag_49:\n        /* \"#utility.yul\":2172:2178   */\n      0x00\n        /* \"#utility.yul\":2206:2211   */\n      dup2\n        /* \"#utility.yul\":2200:2212   */\n      mload\n        /* \"#utility.yul\":2190:2212   */\n      swap1\n      pop\n        /* \"#utility.yul\":2121:2219   */\n      swap2\n      swap1\n      pop\n      jump\t// out\n        /* \"#utility.yul\":2225:2405   */\n    tag_50:\n        /* \"#utility.yul\":2273:2350   */\n      0x4e487b7100000000000000000000000000000000000000000000000000000000\n        /* \"#utility.yul\":2270:2271   */\n      0x00\n        /* \"#utility.yul\":2263:2351   */\n      mstore\n        /* \"#utility.yul\":2370:2374   */\n      0x41\n        /* \"#utility.yul\":2367:2368   */\n      0x04\n        /* \"#utility.yul\":2360:2375   */\n      mstore\n        /* \"#utility.yul\":2394:2398   */\n      0x24\n        /* \"#utility.yul\":2391:2392   */\n      0x00\n        /* \"#utility.yul\":2384:2399   */\n      revert\n        /* \"#utility.yul\":2411:2591   */\n    tag_51:\n        /* \"#utility.yul\":2459:2536   */\n      0x4e487b7100000000000000000000000000000000000000000000000000000000\n        /* \"#utility.yul\":2456:2457   */\n      0x00\n        /* \"#utility.yul\":2449:2537   */\n      mstore\n        /* \"#utility.yul\":2556:2560   */\n      0x22\n        /* \"#utility.yul\":2553:2554   */\n      0x04\n        /* \"#utility.yul\":2546:2561   */\n      mstore\n        /* \"#utility.yul\":2580:2584   */\n      0x24\n        /* \"#utility.yul\":2577:2578   */\n      0x00\n        /* \"#utility.yul\":2570:2585   */\n      revert\n        /* \"#utility.yul\":2597:2917   */\n    tag_38:\n        /* \"#utility.yul\":2641:2647   */\n      0x00\n        /* \"#utility.yul\":2678:2679   */\n      0x02\n        /* \"#utility.yul\":2672:2676   */\n      dup3\n        /* \"#utility.yul\":2668:2680   */\n      div\n        /* \"#utility.yul\":2658:2680   */\n      swap1\n      pop\n        /* \"#utility.yul\":2725:2726   */\n      0x01\n        /* \"#utility.yul\":2719:2723   */\n      dup3\n        /* \"#utility.yul\":2715:2727   */\n      and\n        /* \"#utility.yul\":2746:2764   */\n      dup1\n        /* \"#utility.yul\":2736:2817   */\n      tag_99\n      jumpi\n        /* \"#utility.yul\":2802:2806   */\n      0x7f\n        /* \"#utility.yul\":2794:2800   */\n      dup3\n        /* \"#utility.yul\":2790:2807   */\n      and\n        /* \"#utility.yul\":2780:2807   */\n      swap2\n      pop\n        /* \"#utility.yul\":2736:2817   */\n    tag_99:\n        /* \"#utility.yul\":2864:2866   */\n      0x20\n        /* \"#utility.yul\":2856:2862   */\n      dup3\n        /* \"#utility.yul\":2853:2867   */\n      lt\n        /* \"#utility.yul\":2833:2851   */\n      dup2\n        /* \"#utility.yul\":2830:2868   */\n      sub\n        /* \"#utility.yul\":2827:2911   */\n      tag_100\n      jumpi\n        /* \"#utility.yul\":2883:2901   */\n      tag_101\n      tag_51\n      jump\t// in\n    tag_101:\n        /* \"#utility.yul\":2827:2911   */\n    tag_100:\n        /* \"#utility.yul\":2648:2917   */\n      pop\n        /* \"#utility.yul\":2597:2917   */\n      swap2\n      swap1\n      pop\n      jump\t// out\n        /* \"#utility.yul\":2923:3063   */\n    tag_52:\n        /* \"#utility.yul\":2971:2975   */\n      0x00\n        /* \"#utility.yul\":2994:2997   */\n      dup2\n        /* \"#utility.yul\":2986:2997   */\n      swap1\n      pop\n        /* \"#utility.yul\":3017:3020   */\n      dup2\n        /* \"#utility.yul\":3014:3015   */\n      0x00\n        /* \"#utility.yul\":3007:3021   */\n      mstore\n        /* \"#utility.yul\":3051:3055   */\n      0x20\n        /* \"#utility.yul\":3048:3049   */\n      0x00\n        /* \"#utility.yul\":3038:3056   */\n      keccak256\n        /* \"#utility.yul\":3030:3056   */\n      swap1\n      pop\n        /* \"#utility.yul\":2923:3063   */\n      swap2\n      swap1\n      pop\n      jump\t// out\n        /* \"#utility.yul\":3069:3162   */\n    tag_53:\n        /* \"#utility.yul\":3106:3112   */\n      0x00\n        /* \"#utility.yul\":3153:3155   */\n      0x20\n        /* \"#utility.yul\":3148:3150   */\n      0x1f\n        /* \"#utility.yul\":3141:3146   */\n      dup4\n        /* \"#utility.yul\":3137:3151   */\n      add\n        /* \"#utility.yul\":3133:3156   */\n      div\n        /* \"#utility.yul\":3123:3156   */\n      swap1\n      pop\n        /* \"#utility.yul\":3069:3162   */\n      swap2\n      swap1\n      pop\n      jump\t// out\n        /* \"#utility.yul\":3168:3275   */\n    tag_54:\n        /* \"#utility.yul\":3212:3220   */\n      0x00\n        /* \"#utility.yul\":3262:3267   */\n      dup3\n        /* \"#utility.yul\":3256:3260   */\n      dup3\n        /* \"#utility.yul\":3252:3268   */\n      shl\n        /* \"#utility.yul\":3231:3268   */\n      swap1\n      pop\n        /* \"#utility.yul\":3168:3275   */\n      swap3\n      swap2\n      pop\n      pop\n      jump\t// out\n        /* \"#utility.yul\":3281:3674   */\n    tag_55:\n        /* \"#utility.yul\":3350:3356   */\n      0x00\n        /* \"#utility.yul\":3400:3401   */\n      0x08\n        /* \"#utility.yul\":3388:3398   */\n      dup4\n        /* \"#utility.yul\":3384:3402   */\n      mul\n        /* \"#utility.yul\":3423:3520   */\n      tag_106\n        /* \"#utility.yul\":3453:3519   */\n      0xffffffffffffffffffffffffffffffffffffffffffffffffffffffffffffffff\n        /* \"#utility.yul\":3442:3451   */\n      dup3\n        /* \"#utility.yul\":3423:3520   */\n      tag_54\n      jump\t// in\n    tag_106:\n        /* \"#utility.yul\":3541:3580   */\n      tag_107\n        /* \"#utility.yul\":3571:3579   */\n      dup7\n        /* \"#utility.yul\":3560:3569   */\n      dup4\n        /* \"#utility.yul\":3541:3580   */\n      tag_54\n      jump\t// in\n    tag_107:\n        /* \"#utility.yul\":3529:3580   */\n      swap6\n      pop\n        /* \"#utility.yul\":3613:3617   */\n      dup1\n        /* \"#utility.yul\":3609:3618   */\n      not\n        /* \"#utility.yul\":3602:3607   */\n      dup5\n        /* \"#utility.yul\":3598:3619   */\n      and\n        /* \"#utility.yul\":3589:3619   */\n      swap4\n      pop\n        /* \"#utility.yul\":3662:3666   */\n      dup1\n        /* \"#utility.yul\":3652:3660   */\n      dup7\n        /* \"#utility.yul\":3648:3667   */\n      and\n        /* \"#utility.yul\":3641:3646   */\n      dup5\n        /* \"#utility.yul\":3638:3668   */\n      or\n        /* \"#utility.yul\":3628:3668   */\n      swap3\n      pop\n        /* \"#utility.yul\":3357:3674   */\n      pop\n      pop\n        /* \"#utility.yul\":3281:3674   */\n      swap4\n      swap3\n      pop\n      pop\n      pop\n      jump\t// out\n        /* \"#utility.yul\":3680:3757   */\n    tag_56:\n        /* \"#utility.yul\":3717:3724   */\n      0x00\n        /* \"#utility.yul\":3746:3751   */\n      dup2\n        /* \"#utility.yul\":3735:3751   */\n      swap1\n      pop\n        /* \"#utility.yul\":3680:3757   */\n      swap2\n      swap1\n      pop\n      jump\t// out\n        /* \"#utility.yul\":3763:3823   */\n    tag_57:\n        /* \"#utility.yul\":3791:3794   */\n      0x00\n        /* \"#utility.yul\":3812:3817   */\n      dup2\n        /* \"#utility.yul\":3805:3817   */\n      swap1\n      pop\n        /* \"#utility.yul\":3763:3823   */\n      swap2\n      swap1\n      pop\n      jump\t// out\n        /* \"#utility.yul\":3829:3971   */\n    tag_58:\n        /* \"#utility.yul\":3879:3888   */\n      0x00\n        /* \"#utility.yul\":3912:3965   */\n      tag_111\n        /* \"#utility.yul\":3930:3964   */\n      tag_112\n        /* \"#utility.yul\":3939:3963   */\n      tag_113\n        /* \"#utility.yul\":3957:3962   */\n      dup5\n        /* \"#utility.yul\":3939:3963   */\n      tag_56\n      jump\t// in\n    tag_113:\n        /* \"#utility.yul\":3930:3964   */\n      tag_57\n      jump\t// in\n    tag_112:\n        /* \"#utility.yul\":3912:3965   */\n      tag_56\n      jump\t// in\n    tag_111:\n        /* \"#utility.yul\":3899:3965   */\n      swap1\n      pop\n        /* \"#utility.yul\":3829:3971   */\n      swap2\n      swap1\n      pop\n      jump\t// out\n        /* \"#utility.yul\":3977:4052   */\n    tag_59:\n        /* \"#utility.yul\":4020:4023   */\n      0x00\n        /* \"#utility.yul\":4041:4046   */\n      dup2\n        /* \"#utility.yul\":4034:4046   */\n      swap1\n      pop\n        /* \"#utility.yul\":3977:4052   */\n      swap2\n      swap1\n      pop\n      jump\t// out\n        /* \"#utility.yul\":4058:4327   */\n    tag_60:\n        /* \"#utility.yul\":4168:4207   */\n      tag_116\n        /* \"#utility.yul\":4199:4206   */\n      dup4\n        /* \"#utility.yul\":4168:4207   */\n      tag_58\n      jump\t// in\n    tag_116:\n        /* \"#utility.yul\":4229:4320   */\n      tag_117\n        /* \"#utility.yul\":4278:4319   */\n      tag_118\n        /* \"#utility.yul\":4302:4318   */\n      dup3\n        /* \"#utility.yul\":4278:4319   */\n      tag_59\n      jump\t// in\n    tag_118:\n        /* \"#utility.yul\":4270:4276   */\n      dup5\n        /* \"#utility.yul\":4263:4267   */\n      dup5\n        /* \"#utility.yul\":4257:4268   */\n      sload\n        /* \"#utility.yul\":4229:4320   */\n      tag_55\n      jump\t// in\n    tag_117:\n        /* \"#utility.yul\":4223:4227   */\n      dup3\n        /* \"#utility.yul\":4216:4321   */\n      sstore\n        /* \"#utility.yul\":4134:4327   */\n      pop\n        /* \"#utility.yul\":4058:4327   */\n      pop\n      pop\n      pop\n      jump\t// out\n        /* \"#utility.yul\":4333:4406   */\n    tag_61:\n        /* \"#utility.yul\":4378:4381   */\n      0x00\n        /* \"#utility.yul\":4333:4406   */\n      swap1\n      jump\t// out\n        /* \"#utility.yul\":4412:4601   */\n    tag_62:\n        /* \"#utility.yul\":4489:4521   */\n      tag_121\n      tag_61\n      jump\t// in\n    tag_121:\n        /* \"#utility.yul\":4530:4595   */\n      tag_122\n        /* \"#utility.yul\":4588:4594   */\n      dup2\n        /* \"#utility.yul\":4580:4586   */\n      dup5\n        /* \"#utility.yul\":4574:4578   */\n      dup5\n        /* \"#utility.yul\":4530:4595   */\n      tag_60\n      jump\t// in\n    tag_122:\n        /* \"#utility.yul\":4465:4601   */\n      pop\n        /* \"#utility.yul\":4412:4601   */\n      pop\n      pop\n      jump\t// out\n        /* \"#utility.yul\":4607:4793   */\n    tag_63:\n        /* \"#utility.yul\":4667:4787   */\n    tag_124:\n        /* \"#utility.yul\":4684:4687   */\n      dup2\n        /* \"#utility.yul\":4677:4682   */\n      dup2\n        /* \"#utility.yul\":4674:4688   */\n      lt\n        /* \"#utility.yul\":4667:4787   */\n      iszero\n      tag_126\n      jumpi\n        /* \"#utility.yul\":4738:4777   */\n      tag_127\n        /* \"#utility.yul\":4775:4776   */\n      0x00\n        /* \"#utility.yul\":4768:4773   */\n      dup3\n        /* \"#utility.yul\":4738:4777   */\n      tag_62\n      jump\t// in\n    tag_127:\n        /* \"#utility.yul\":4711:4712   */\n      0x01\n        /* \"#utility.yul\":4704:4709   */\n      dup2\n        /* \"#utility.yul\":4700:4713   */\n      add\n        /* \"#utility.yul\":4691:4713   */\n      swap1\n      pop\n        /* \"#utility.yul\":4667:4787   */\n      jump(tag_124)\n    tag_126:\n        /* \"#utility.yul\":4607:4793   */\n      pop\n      pop\n      jump\t// out\n        /* \"#utility.yul\":4799:5340   */\n    tag_64:\n        /* \"#utility.yul\":4899:4901   */\n      0x1f\n        /* \"#utility.yul\":4894:4897   */\n      dup3\n        /* \"#utility.yul\":4891:4902   */\n      gt\n        /* \"#utility.yul\":4888:5333   */\n      iszero\n      tag_129\n      jumpi\n        /* \"#utility.yul\":4933:4970   */\n      tag_130\n        /* \"#utility.yul\":4964:4969   */\n      dup2\n        /* \"#utility.yul\":4933:4970   */\n      tag_52\n      jump\t// in\n    tag_130:\n        /* \"#utility.yul\":5016:5045   */\n      tag_131\n        /* \"#utility.yul\":5034:5044   */\n      dup5\n        /* \"#utility.yul\":5016:5045   */\n      tag_53\n      jump\t// in\n    tag_131:\n        /* \"#utility.yul\":5006:5014   */\n      dup2\n        /* \"#utility.yul\":5002:5046   */\n      add\n        /* \"#utility.yul\":5199:5201   */\n      0x20\n        /* \"#utility.yul\":5187:5197   */\n      dup6\n        /* \"#utility.yul\":5184:5202   */\n      lt\n        /* \"#utility.yul\":5181:5230   */\n      iszero\n      tag_132\n      jumpi\n        /* \"#utility.yul\":5220:5228   */\n      dup2\n        /* \"#utility.yul\":5205:5228   */\n      swap1\n      pop\n        /* \"#utility.yul\":5181:5230   */\n    tag_132:\n        /* \"#utility.yul\":5243:5323   */\n      tag_133\n        /* \"#utility.yul\":5299:5321   */\n      tag_134\n        /* \"#utility.yul\":5317:5320   */\n      dup6\n        /* \"#utility.yul\":5299:5321   */\n      tag_53\n      jump\t// in\n    tag_134:\n        /* \"#utility.yul\":5289:5297   */\n      dup4\n        /* \"#utility.yul\":5285:5322   */\n      add\n        /* \"#utility.yul\":5272:5283   */\n      dup3\n        /* \"#utility.yul\":5243:5323   */\n      tag_63\n      jump\t// in\n    tag_133:\n        /* \"#utility.yul\":4903:5333   */\n      pop\n      pop\n        /* \"#utility.yul\":4888:5333   */\n    tag_129:\n        /* \"#utility.yul\":4799:5340   */\n      pop\n      pop\n      pop\n      jump\t// out\n        /* \"#utility.yul\":5346:5463   */\n    tag_65:\n        /* \"#utility.yul\":5400:5408   */\n      0x00\n        /* \"#utility.yul\":5450:5455   */\n      dup3\n        /* \"#utility.yul\":5444:5448   */\n      dup3\n        /* \"#utility.yul\":5440:5456   */\n      shr\n        /* \"#utility.yul\":5419:5456   */\n      swap1\n      pop\n        /* \"#utility.yul\":5346:5463   */\n      swap3\n      swap2\n      pop\n      pop\n      jump\t// out\n        /* \"#utility.yul\":5469:5638   */\n    tag_66:\n        /* \"#utility.yul\":5513:5519   */\n      0x00\n        /* \"#utility.yul\":5546:5597   */\n      tag_137\n        /* \"#utility.yul\":5594:5595   */\n      0x00\n        /* \"#utility.yul\":5590:5596   */\n      not\n        /* \"#utility.yul\":5582:5587   */\n      dup5\n        /* \"#utility.yul\":5579:5580   */\n      0x08\n        /* \"#utility.yul\":5575:5588   */\n      mul\n        /* \"#utility.yul\":5546:5597   */\n      tag_65\n      jump\t// in\n    tag_137:\n        /* \"#utility.yul\":5542:5598   */\n      not\n        /* \"#utility.yul\":5627:5631   */\n      dup1\n        /* \"#utility.yul\":5621:5625   */\n      dup4\n        /* \"#utility.yul\":5617:5632   */\n      and\n        /* \"#utility.yul\":5607:5632   */\n      swap2\n      pop\n        /* \"#utility.yul\":5520:5638   */\n      pop\n        /* \"#utility.yul\":5469:5638   */\n      swap3\n      swap2\n      pop\n      pop\n      jump\t// out\n        /* \"#utility.yul\":5643:5938   */\n    tag_67:\n        /* \"#utility.yul\":5719:5723   */\n      0x00\n        /* \"#utility.yul\":5865:5894   */\n      tag_139\n        /* \"#utility.yul\":5890:5893   */\n      dup4\n        /* \"#utility.yul\":5884:5888   */\n      dup4\n        /* \"#utility.yul\":5865:5894   */\n      tag_66\n      jump\t// in\n    tag_139:\n        /* \"#utility.yul\":5857:5894   */\n      swap2\n      pop\n        /* \"#utility.yul\":5927:5930   */\n      dup3\n        /* \"#utility.yul\":5924:5925   */\n      0x02\n        /* \"#utility.yul\":5920:5931   */\n      mul\n        /* \"#utility.yul\":5914:5918   */\n      dup3\n        /* \"#utility.yul\":5911:5932   */\n      or\n        /* \"#utility.yul\":5903:5932   */\n      swap1\n      pop\n        /* \"#utility.yul\":5643:5938   */\n      swap3\n      swap2\n      pop\n      pop\n      jump\t// out\n        /* \"#utility.yul\":5943:7333   */\n    tag_20:\n        /* \"#utility.yul\":6058:6094   */\n      tag_141\n        /* \"#utility.yul\":6090:6093   */\n      dup3\n        /* \"#utility.yul\":6058:6094   */\n      tag_49\n      jump\t// in\n    tag_141:\n        /* \"#utility.yul\":6159:6177   */\n      0xffffffffffffffff\n        /* \"#utility.yul\":6151:6157   */\n      dup2\n        /* \"#utility.yul\":6148:6178   */\n      gt\n        /* \"#utility.yul\":6145:6201   */\n      iszero\n      tag_142\n      jumpi\n        /* \"#utility.yul\":6181:6199   */\n      tag_143\n      tag_50\n      jump\t// in\n    tag_143:\n        /* \"#utility.yul\":6145:6201   */\n    tag_142:\n        /* \"#utility.yul\":6225:6263   */\n      tag_144\n        /* \"#utility.yul\":6257:6261   */\n      dup3\n        /* \"#utility.yul\":6251:6262   */\n      sload\n        /* \"#utility.yul\":6225:6263   */\n      tag_38\n      jump\t// in\n    tag_144:\n        /* \"#utility.yul\":6310:6376   */\n      tag_145\n        /* \"#utility.yul\":6369:6375   */\n      dup3\n        /* \"#utility.yul\":6361:6367   */\n      dup3\n        /* \"#utility.yul\":6355:6359   */\n      dup6\n        /* \"#utility.yul\":6310:6376   */\n      tag_64\n      jump\t// in\n    tag_145:\n        /* \"#utility.yul\":6403:6404   */\n      0x00\n        /* \"#utility.yul\":6427:6431   */\n      0x20\n        /* \"#utility.yul\":6414:6431   */\n      swap1\n      pop\n        /* \"#utility.yul\":6459:6461   */\n      0x1f\n        /* \"#utility.yul\":6451:6457   */\n      dup4\n        /* \"#utility.yul\":6448:6462   */\n      gt\n        /* \"#utility.yul\":6476:6477   */\n      0x01\n        /* \"#utility.yul\":6471:7088   */\n      dup2\n      eq\n      tag_147\n      jumpi\n        /* \"#utility.yul\":7132:7133   */\n      0x00\n        /* \"#utility.yul\":7149:7155   */\n      dup5\n        /* \"#utility.yul\":7146:7223   */\n      iszero\n      tag_148\n      jumpi\n        /* \"#utility.yul\":7198:7207   */\n      dup3\n        /* \"#utility.yul\":7193:7196   */\n      dup8\n        /* \"#utility.yul\":7189:7208   */\n      add\n        /* \"#utility.yul\":7183:7209   */\n      mload\n        /* \"#utility.yul\":7174:7209   */\n      swap1\n      pop\n        /* \"#utility.yul\":7146:7223   */\n    tag_148:\n        /* \"#utility.yul\":7249:7316   */\n      tag_149\n        /* \"#utility.yul\":7309:7315   */\n      dup6\n        /* \"#utility.yul\":7302:7307   */\n      dup3\n        /* \"#utility.yul\":7249:7316   */\n      tag_67\n      jump\t// in\n    tag_149:\n        /* \"#utility.yul\":7243:7247   */\n      dup7\n        /* \"#utility.yul\":7236:7317   */\n      sstore\n        /* \"#utility.yul\":7105:7327   */\n      pop\n        /* \"#utility.yul\":6441:7327   */\n      jump(tag_146)\n        /* \"#utility.yul\":6471:7088   */\n    tag_147:\n        /* \"#utility.yul\":6523:6527   */\n      0x1f\n        /* \"#utility.yul\":6519:6528   */\n      not\n        /* \"#utility.yul\":6511:6517   */\n      dup5\n        /* \"#utility.yul\":6507:6529   */\n      and\n        /* \"#utility.yul\":6557:6593   */\n      tag_150\n        /* \"#utility.yul\":6588:6592   */\n      dup7\n        /* \"#utility.yul\":6557:6593   */\n      tag_52\n      jump\t// in\n    tag_150:\n        /* \"#utility.yul\":6615:6616   */\n      0x00\n        /* \"#utility.yul\":6629:6837   */\n    tag_151:\n        /* \"#utility.yul\":6643:6650   */\n      dup3\n        /* \"#utility.yul\":6640:6641   */\n      dup2\n        /* \"#utility.yul\":6637:6651   */\n      lt\n        /* \"#utility.yul\":6629:6837   */\n      iszero\n      tag_153\n      jumpi\n        /* \"#utility.yul\":6722:6731   */\n      dup5\n        /* \"#utility.yul\":6717:6720   */\n      dup10\n        /* \"#utility.yul\":6713:6732   */\n      add\n        /* \"#utility.yul\":6707:6733   */\n      mload\n        /* \"#utility.yul\":6699:6705   */\n      dup3\n        /* \"#utility.yul\":6692:6734   */\n      sstore\n        /* \"#utility.yul\":6773:6774   */\n      0x01\n        /* \"#utility.yul\":6765:6771   */\n      dup3\n        /* \"#utility.yul\":6761:6775   */\n      add\n        /* \"#utility.yul\":6751:6775   */\n      swap2\n      pop\n        /* \"#utility.yul\":6820:6822   */\n      0x20\n        /* \"#utility.yul\":6809:6818   */\n      dup6\n        /* \"#utility.yul\":6805:6823   */\n      add\n        /* \"#utility.yul\":6792:6823   */\n      swap5\n      pop\n        /* \"#utility.yul\":6666:6670   */\n      0x20\n        /* \"#utility.yul\":6663:6664   */\n      dup2\n        /* \"#utility.yul\":6659:6671   */\n      add\n        /* \"#utility.yul\":6654:6671   */\n      swap1\n      pop\n        /* \"#utility.yul\":6629:6837   */\n      jump(tag_151)\n    tag_153:\n        /* \"#utility.yul\":6865:6871   */\n      dup7\n        /* \"#utility.yul\":6856:6863   */\n      dup4\n        /* \"#utility.yul\":6853:6872   */\n      lt\n        /* \"#utility.yul\":6850:7029   */\n      iszero\n      tag_154\n      jumpi\n        /* \"#utility.yul\":6923:6932   */\n      dup5\n        /* \"#utility.yul\":6918:6921   */\n      dup10\n        /* \"#utility.yul\":6914:6933   */\n      add\n        /* \"#utility.yul\":6908:6934   */\n      mload\n        /* \"#utility.yul\":6966:7014   */\n      tag_155\n        /* \"#utility.yul\":7008:7012   */\n      0x1f\n        /* \"#utility.yul\":7000:7006   */\n      dup10\n        /* \"#utility.yul\":6996:7013   */\n      and\n        /* \"#utility.yul\":6985:6994   */\n      dup3\n        /* \"#utility.yul\":6966:7014   */\n      tag_66\n      jump\t// in\n    tag_155:\n        /* \"#utility.yul\":6958:6964   */\n      dup4\n        /* \"#utility.yul\":6951:7015   */\n      sstore\n        /* \"#utility.yul\":6873:7029   */\n      pop\n        /* \"#utility.yul\":6850:7029   */\n    tag_154:\n        /* \"#utility.yul\":7075:7076   */\n      0x01\n        /* \"#utility.yul\":7071:7072   */\n      0x02\n        /* \"#utility.yul\":7063:7069   */\n      dup9\n        /* \"#utility.yul\":7059:7073   */\n      mul\n        /* \"#utility.yul\":7055:7077   */\n      add\n        /* \"#utility.yul\":7049:7053   */\n      dup9\n        /* \"#utility.yul\":7042:7078   */\n      sstore\n        /* \"#utility.yul\":6478:7088   */\n      pop\n      pop\n      pop\n        /* \"#utility.yul\":6441:7327   */\n    tag_146:\n      pop\n        /* \"#utility.yul\":6033:7333   */\n      pop\n      pop\n      pop\n        /* \"#utility.yul\":5943:7333   */\n      pop\n      pop\n      jump\t// out\n        /* \"#utility.yul\":7420:7537   */\n    tag_69:\n        /* \"#utility.yul\":7529:7530   */\n      0x00\n        /* \"#utility.yul\":7526:7527   */\n      dup1\n        /* \"#utility.yul\":7519:7531   */\n      revert\n        /* \"#utility.yul\":7666:7792   */\n    tag_71:\n        /* \"#utility.yul\":7703:7710   */\n      0x00\n        /* \"#utility.yul\":7743:7785   */\n      0xffffffffffffffffffffffffffffffffffffffff\n        /* \"#utility.yul\":7736:7741   */\n      dup3\n        /* \"#utility.yul\":7732:7786   */\n      and\n        /* \"#utility.yul\":7721:7786   */\n      swap1\n      pop\n        /* \"#utility.yul\":7666:7792   */\n      swap2\n      swap1\n      pop\n      jump\t// out\n        /* \"#utility.yul\":7798:7894   */\n    tag_72:\n        /* \"#utility.yul\":7835:7842   */\n      0x00\n        /* \"#utility.yul\":7864:7888   */\n      tag_161\n        /* \"#utility.yul\":7882:7887   */\n      dup3\n        /* \"#utility.yul\":7864:7888   */\n      tag_71\n      jump\t// in\n    tag_161:\n        /* \"#utility.yul\":7853:7888   */\n      swap1\n      pop\n        /* \"#utility.yul\":7798:7894   */\n      swap2\n      swap1\n      pop\n      jump\t// out\n        /* \"#utility.yul\":7900:8022   */\n    tag_73:\n        /* \"#utility.yul\":7973:7997   */\n      tag_163\n        /* \"#utility.yul\":7991:7996   */\n      dup2\n        /* \"#utility.yul\":7973:7997   */\n      tag_72\n      jump\t// in\n    tag_163:\n        /* \"#utility.yul\":7966:7971   */\n      dup2\n        /* \"#utility.yul\":7963:7998   */\n      eq\n        /* \"#utility.yul\":7953:8016   */\n      tag_164\n      jumpi\n        /* \"#utility.yul\":8012:8013   */\n      0x00\n        /* \"#utility.yul\":8009:8010   */\n      dup1\n        /* \"#utility.yul\":8002:8014   */\n      revert\n        /* \"#utility.yul\":7953:8016   */\n    tag_164:\n        /* \"#utility.yul\":7900:8022   */\n      pop\n      jump\t// out\n        /* \"#utility.yul\":8028:8167   */\n    tag_74:\n        /* \"#utility.yul\":8074:8079   */\n      0x00\n        /* \"#utility.yul\":8112:8118   */\n      dup2\n        /* \"#utility.yul\":8099:8119   */\n      calldataload\n        /* \"#utility.yul\":8090:8119   */\n      swap1\n      pop\n        /* \"#utility.yul\":8128:8161   */\n      tag_166\n        /* \"#utility.yul\":8155:8160   */\n      dup2\n        /* \"#utility.yul\":8128:8161   */\n      tag_73\n      jump\t// in\n    tag_166:\n        /* \"#utility.yul\":8028:8167   */\n      swap3\n      swap2\n      pop\n      pop\n      jump\t// out\n        /* \"#utility.yul\":8173:8502   */\n    tag_24:\n        /* \"#utility.yul\":8232:8238   */\n      0x00\n        /* \"#utility.yul\":8281:8283   */\n      0x20\n        /* \"#utility.yul\":8269:8278   */\n      dup3\n        /* \"#utility.yul\":8260:8267   */\n      dup5\n        /* \"#utility.yul\":8256:8279   */\n      sub\n        /* \"#utility.yul\":8252:8284   */\n      slt\n        /* \"#utility.yul\":8249:8368   */\n      iszero\n      tag_168\n      jumpi\n        /* \"#utility.yul\":8287:8366   */\n      tag_169\n      tag_69\n      jump\t// in\n    tag_169:\n        /* \"#utility.yul\":8249:8368   */\n    tag_168:\n        /* \"#utility.yul\":8407:8408   */\n      0x00\n        /* \"#utility.yul\":8432:8485   */\n      tag_170\n        /* \"#utility.yul\":8477:8484   */\n      dup5\n        /* \"#utility.yul\":8468:8474   */\n      dup3\n        /* \"#utility.yul\":8457:8466   */\n      dup6\n        /* \"#utility.yul\":8453:8475   */\n      add\n        /* \"#utility.yul\":8432:8485   */\n      tag_74\n      jump\t// in\n    tag_170:\n        /* \"#utility.yul\":8422:8485   */\n      swap2\n      pop\n        /* \"#utility.yul\":8378:8495   */\n      pop\n        /* \"#utility.yul\":8173:8502   */\n      swap3\n      swap2\n      pop\n      pop\n      jump\t// out\n        /* \"#utility.yul\":8508:8676   */\n    tag_75:\n        /* \"#utility.yul\":8591:8602   */\n      0x00\n        /* \"#utility.yul\":8625:8631   */\n      dup3\n        /* \"#utility.yul\":8620:8623   */\n      dup3\n        /* \"#utility.yul\":8613:8632   */\n      mstore\n        /* \"#utility.yul\":8665:8669   */\n      0x20\n        /* \"#utility.yul\":8660:8663   */\n      dup3\n        /* \"#utility.yul\":8656:8670   */\n      add\n        /* \"#utility.yul\":8641:8670   */\n      swap1\n      pop\n        /* \"#utility.yul\":8508:8676   */\n      swap3\n      swap2\n      pop\n      pop\n      jump\t// out\n        /* \"#utility.yul\":8682:8821   */\n    tag_76:\n        /* \"#utility.yul\":8771:8777   */\n      dup3\n        /* \"#utility.yul\":8766:8769   */\n      dup2\n        /* \"#utility.yul\":8761:8764   */\n      dup4\n        /* \"#utility.yul\":8755:8778   */\n      mcopy\n        /* \"#utility.yul\":8812:8813   */\n      0x00\n        /* \"#utility.yul\":8803:8809   */\n      dup4\n        /* \"#utility.yul\":8798:8801   */\n      dup4\n        /* \"#utility.yul\":8794:8810   */\n      add\n        /* \"#utility.yul\":8787:8814   */\n      mstore\n        /* \"#utility.yul\":8682:8821   */\n      pop\n      pop\n      pop\n      jump\t// out\n        /* \"#utility.yul\":8827:8929   */\n    tag_77:\n        /* \"#utility.yul\":8868:8874   */\n      0x00\n        /* \"#utility.yul\":8919:8921   */\n      0x1f\n        /* \"#utility.yul\":8915:8922   */\n      not\n        /* \"#utility.yul\":8910:8912   */\n      0x1f\n        /* \"#utility.yul\":8903:8908   */\n      dup4\n        /* \"#utility.yul\":8899:8913   */\n      add\n        /* \"#utility.yul\":8895:8923   */\n      and\n        /* \"#utility.yul\":8885:8923   */\n      swap1\n      pop\n        /* \"#utility.yul\":8827:8929   */\n      swap2\n      swap1\n      pop\n      jump\t// out\n        /* \"#utility.yul\":8935:9308   */\n    tag_78:\n        /* \"#utility.yul\":9021:9024   */\n      0x00\n        /* \"#utility.yul\":9049:9087   */\n      tag_175\n        /* \"#utility.yul\":9081:9086   */\n      dup3\n        /* \"#utility.yul\":9049:9087   */\n      tag_49\n      jump\t// in\n    tag_175:\n        /* \"#utility.yul\":9103:9173   */\n      tag_176\n        /* \"#utility.yul\":9166:9172   */\n      dup2\n        /* \"#utility.yul\":9161:9164   */\n      dup6\n        /* \"#utility.yul\":9103:9173   */\n      tag_75\n      jump\t// in\n    tag_176:\n        /* \"#utility.yul\":9096:9173   */\n      swap4\n      pop\n        /* \"#utility.yul\":9182:9247   */\n      tag_177\n        /* \"#utility.yul\":9240:9246   */\n      dup2\n        /* \"#utility.yul\":9235:9238   */\n      dup6\n        /* \"#utility.yul\":9228:9232   */\n      0x20\n        /* \"#utility.yul\":9221:9226   */\n      dup7\n        /* \"#utility.yul\":9217:9233   */\n      add\n        /* \"#utility.yul\":9182:9247   */\n      tag_76\n      jump\t// in\n    tag_177:\n        /* \"#utility.yul\":9272:9301   */\n      tag_178\n        /* \"#utility.yul\":9294:9300   */\n      dup2\n        /* \"#utility.yul\":9272:9301   */\n      tag_77\n      jump\t// in\n    tag_178:\n        /* \"#utility.yul\":9267:9270   */\n      dup5\n        /* \"#utility.yul\":9263:9302   */\n      add\n        /* \"#utility.yul\":9256:9302   */\n      swap2\n      pop\n        /* \"#utility.yul\":9025:9308   */\n      pop\n        /* \"#utility.yul\":8935:9308   */\n      swap3\n      swap2\n      pop\n      pop\n      jump\t// out\n        /* \"#utility.yul\":9314:9623   */\n    tag_30:\n        /* \"#utility.yul\":9425:9429   */\n      0x00\n        /* \"#utility.yul\":9463:9465   */\n      0x20\n        /* \"#utility.yul\":9452:9461   */\n      dup3\n        /* \"#utility.yul\":9448:9466   */\n      add\n        /* \"#utility.yul\":9440:9466   */\n      swap1\n      pop\n        /* \"#utility.yul\":9512:9521   */\n      dup2\n        /* \"#utility.yul\":9506:9510   */\n      dup2\n        /* \"#utility.yul\":9502:9522   */\n      sub\n        /* \"#utility.yul\":9498:9499   */\n      0x00\n        /* \"#utility.yul\":9487:9496   */\n      dup4\n        /* \"#utility.yul\":9483:9500   */\n      add\n        /* \"#utility.yul\":9476:9523   */\n      mstore\n        /* \"#utility.yul\":9540:9616   */\n      tag_180\n        /* \"#utility.yul\":9611:9615   */\n      dup2\n        /* \"#utility.yul\":9602:9608   */\n      dup5\n        /* \"#utility.yul\":9540:9616   */\n      tag_78\n      jump\t// in\n    tag_180:\n        /* \"#utility.yul\":9532:9616   */\n      swap1\n      pop\n        /* \"#utility.yul\":9314:9623   */\n      swap3\n      swap2\n      pop\n      pop\n      jump\t// out\n        /* \"#utility.yul\":9629:9747   */\n    tag_79:\n        /* \"#utility.yul\":9716:9740   */\n      tag_182\n        /* \"#utility.yul\":9734:9739   */\n      dup2\n        /* \"#utility.yul\":9716:9740   */\n      tag_72\n      jump\t// in\n    tag_182:\n        /* \"#utility.yul\":9711:9714   */\n      dup3\n        /* \"#utility.yul\":9704:9741   */\n      mstore\n        /* \"#utility.yul\":9629:9747   */\n      pop\n      pop\n      jump\t// out\n        /* \"#utility.yul\":9753:9975   */\n    tag_35:\n        /* \"#utility.yul\":9846:9850   */\n      0x00\n        /* \"#utility.yul\":9884:9886   */\n      0x20\n        /* \"#utility.yul\":9873:9882   */\n      dup3\n        /* \"#utility.yul\":9869:9887   */\n      add\n        /* \"#utility.yul\":9861:9887   */\n      swap1\n      pop\n        /* \"#utility.yul\":9897:9968   */\n      tag_184\n        /* \"#utility.yul\":9965:9966   */\n      0x00\n        /* \"#utility.yul\":9954:9963   */\n      dup4\n        /* \"#utility.yul\":9950:9967   */\n      add\n        /* \"#utility.yul\":9941:9947   */\n      dup5\n        /* \"#utility.yul\":9897:9968   */\n      tag_79\n      jump\t// in\n    tag_184:\n        /* \"#utility.yul\":9753:9975   */\n      swap3\n      swap2\n      pop\n      pop\n      jump\t// out\n\n    auxdata: 0xa2646970667358221220c5a2f00c10919c992fe5a87e24464d375d470cf986b26f782f8efff657cdf22564736f6c634300081a0033\n}\n",
				"bytecode": {
					"linkReferences": {},
					"object": "6080604052348015600e575f80fd5b506107db8061001c5f395ff3fe608060405260043610610037575f3560e01c80633d71c3af1461012c5780638d7aea1914610154578063e1a01e671461017e5761003e565b3661003e57005b348015610049575f80fd5b505f805f8054906101000a900473ffffffffffffffffffffffffffffffffffffffff1673ffffffffffffffffffffffffffffffffffffffff165f366040516100929291906102d5565b5f604051808303815f865af19150503d805f81146100cb576040519150601f19603f3d011682016040523d82523d5f602084013e6100d0565b606091505b50915091505f15158215150361011b576040517f08c379a000000000000000000000000000000000000000000000000000000000815260040161011290610347565b60405180910390fd5b806001908161012a919061059f565b005b348015610137575f80fd5b50610152600480360381019061014d91906106cc565b6101a8565b005b34801561015f575f80fd5b506101686101ea565b604051610175919061075d565b60405180910390f35b348015610189575f80fd5b50610192610276565b60405161019f919061078c565b60405180910390f35b805f806101000a81548173ffffffffffffffffffffffffffffffffffffffff021916908373ffffffffffffffffffffffffffffffffffffffff16021790555050565b600180546101f7906103c9565b80601f0160208091040260200160405190810160405280929190818152602001828054610223906103c9565b801561026e5780601f106102455761010080835404028352916020019161026e565b820191905f5260205f20905b81548152906001019060200180831161025157829003601f168201915b505050505081565b5f8054906101000a900473ffffffffffffffffffffffffffffffffffffffff1681565b5f81905092915050565b828183375f83830152505050565b5f6102bc8385610299565b93506102c98385846102a3565b82840190509392505050565b5f6102e18284866102b1565b91508190509392505050565b5f82825260208201905092915050565b7f6e6f2070756465206c6c616d61722061206c612066756e63696f6e00000000005f82015250565b5f610331601b836102ed565b915061033c826102fd565b602082019050919050565b5f6020820190508181035f83015261035e81610325565b9050919050565b5f81519050919050565b7f4e487b71000000000000000000000000000000000000000000000000000000005f52604160045260245ffd5b7f4e487b71000000000000000000000000000000000000000000000000000000005f52602260045260245ffd5b5f60028204905060018216806103e057607f821691505b6020821081036103f3576103f261039c565b5b50919050565b5f819050815f5260205f209050919050565b5f6020601f8301049050919050565b5f82821b905092915050565b5f600883026104557fffffffffffffffffffffffffffffffffffffffffffffffffffffffffffffffff8261041a565b61045f868361041a565b95508019841693508086168417925050509392505050565b5f819050919050565b5f819050919050565b5f6104a361049e61049984610477565b610480565b610477565b9050919050565b5f819050919050565b6104bc83610489565b6104d06104c8826104aa565b848454610426565b825550505050565b5f90565b6104e46104d8565b6104ef8184846104b3565b505050565b5b81811015610512576105075f826104dc565b6001810190506104f5565b5050565b601f82111561055757610528816103f9565b6105318461040b565b81016020851015610540578190505b61055461054c8561040b565b8301826104f4565b50505b505050565b5f82821c905092915050565b5f6105775f198460080261055c565b1980831691505092915050565b5f61058f8383610568565b9150826002028217905092915050565b6105a882610365565b67ffffffffffffffff8111156105c1576105c061036f565b5b6105cb82546103c9565b6105d6828285610516565b5f60209050601f831160018114610607575f84156105f5578287015190505b6105ff8582610584565b865550610666565b601f198416610615866103f9565b5f5b8281101561063c57848901518255600182019150602085019450602081019050610617565b868310156106595784890151610655601f891682610568565b8355505b6001600288020188555050505b505050505050565b5f80fd5b5f73ffffffffffffffffffffffffffffffffffffffff82169050919050565b5f61069b82610672565b9050919050565b6106ab81610691565b81146106b5575f80fd5b50565b5f813590506106c6816106a2565b92915050565b5f602082840312156106e1576106e061066e565b5b5f6106ee848285016106b8565b91505092915050565b5f82825260208201905092915050565b8281835e5f83830152505050565b5f601f19601f8301169050919050565b5f61072f82610365565b61073981856106f7565b9350610749818560208601610707565b61075281610715565b840191505092915050565b5f6020820190508181035f8301526107758184610725565b905092915050565b61078681610691565b82525050565b5f60208201905061079f5f83018461077d565b9291505056fea2646970667358221220c5a2f00c10919c992fe5a87e24464d375d470cf986b26f782f8efff657cdf22564736f6c634300081a0033",
					"opcodes": "PUSH1 0x80 PUSH1 0x40 MSTORE CALLVALUE DUP1 ISZERO PUSH1 0xE JUMPI PUSH0 DUP1 REVERT JUMPDEST POP PUSH2 0x7DB DUP1 PUSH2 0x1C PUSH0 CODECOPY PUSH0 RETURN INVALID PUSH1 0x80 PUSH1 0x40 MSTORE PUSH1 0x4 CALLDATASIZE LT PUSH2 0x37 JUMPI PUSH0 CALLDATALOAD PUSH1 0xE0 SHR DUP1 PUSH4 0x3D71C3AF EQ PUSH2 0x12C JUMPI DUP1 PUSH4 0x8D7AEA19 EQ PUSH2 0x154 JUMPI DUP1 PUSH4 0xE1A01E67 EQ PUSH2 0x17E JUMPI PUSH2 0x3E JUMP JUMPDEST CALLDATASIZE PUSH2 0x3E JUMPI STOP JUMPDEST CALLVALUE DUP1 ISZERO PUSH2 0x49 JUMPI PUSH0 DUP1 REVERT JUMPDEST POP PUSH0 DUP1 PUSH0 DUP1 SLOAD SWAP1 PUSH2 0x100 EXP SWAP1 DIV PUSH20 0xFFFFFFFFFFFFFFFFFFFFFFFFFFFFFFFFFFFFFFFF AND PUSH20 0xFFFFFFFFFFFFFFFFFFFFFFFFFFFFFFFFFFFFFFFF AND PUSH0 CALLDATASIZE PUSH1 0x40 MLOAD PUSH2 0x92 SWAP3 SWAP2 SWAP1 PUSH2 0x2D5 JUMP JUMPDEST PUSH0 PUSH1 0x40 MLOAD DUP1 DUP4 SUB DUP2 PUSH0 DUP7 GAS CALL SWAP2 POP POP RETURNDATASIZE DUP1 PUSH0 DUP2 EQ PUSH2 0xCB JUMPI PUSH1 0x40 MLOAD SWAP2 POP PUSH1 0x1F NOT PUSH1 0x3F RETURNDATASIZE ADD AND DUP3 ADD PUSH1 0x40 MSTORE RETURNDATASIZE DUP3 MSTORE RETURNDATASIZE PUSH0 PUSH1 0x20 DUP5 ADD RETURNDATACOPY PUSH2 0xD0 JUMP JUMPDEST PUSH1 0x60 SWAP2 POP JUMPDEST POP SWAP2 POP SWAP2 POP PUSH0 ISZERO ISZERO DUP3 ISZERO ISZERO SUB PUSH2 0x11B JUMPI PUSH1 0x40 MLOAD PUSH32 0x8C379A000000000000000000000000000000000000000000000000000000000 DUP2 MSTORE PUSH1 0x4 ADD PUSH2 0x112 SWAP1 PUSH2 0x347 JUMP JUMPDEST PUSH1 0x40 MLOAD DUP1 SWAP2 SUB SWAP1 REVERT JUMPDEST DUP1 PUSH1 0x1 SWAP1 DUP2 PUSH2 0x12A SWAP2 SWAP1 PUSH2 0x59F JUMP JUMPDEST STOP JUMPDEST CALLVALUE DUP1 ISZERO PUSH2 0x137 JUMPI PUSH0 DUP1 REVERT JUMPDEST POP PUSH2 0x152 PUSH1 0x4 DUP1 CALLDATASIZE SUB DUP2 ADD SWAP1 PUSH2 0x14D SWAP2 SWAP1 PUSH2 0x6CC JUMP JUMPDEST PUSH2 0x1A8 JUMP JUMPDEST STOP JUMPDEST CALLVALUE DUP1 ISZERO PUSH2 0x15F JUMPI PUSH0 DUP1 REVERT JUMPDEST POP PUSH2 0x168 PUSH2 0x1EA JUMP JUMPDEST PUSH1 0x40 MLOAD PUSH2 0x175 SWAP2 SWAP1 PUSH2 0x75D JUMP JUMPDEST PUSH1 0x40 MLOAD DUP1 SWAP2 SUB SWAP1 RETURN JUMPDEST CALLVALUE DUP1 ISZERO PUSH2 0x189 JUMPI PUSH0 DUP1 REVERT JUMPDEST POP PUSH2 0x192 PUSH2 0x276 JUMP JUMPDEST PUSH1 0x40 MLOAD PUSH2 0x19F SWAP2 SWAP1 PUSH2 0x78C JUMP JUMPDEST PUSH1 0x40 MLOAD DUP1 SWAP2 SUB SWAP1 RETURN JUMPDEST DUP1 PUSH0 DUP1 PUSH2 0x100 EXP DUP2 SLOAD DUP2 PUSH20 0xFFFFFFFFFFFFFFFFFFFFFFFFFFFFFFFFFFFFFFFF MUL NOT AND SWAP1 DUP4 PUSH20 0xFFFFFFFFFFFFFFFFFFFFFFFFFFFFFFFFFFFFFFFF AND MUL OR SWAP1 SSTORE POP POP JUMP JUMPDEST PUSH1 0x1 DUP1 SLOAD PUSH2 0x1F7 SWAP1 PUSH2 0x3C9 JUMP JUMPDEST DUP1 PUSH1 0x1F ADD PUSH1 0x20 DUP1 SWAP2 DIV MUL PUSH1 0x20 ADD PUSH1 0x40 MLOAD SWAP1 DUP2 ADD PUSH1 0x40 MSTORE DUP1 SWAP3 SWAP2 SWAP1 DUP2 DUP2 MSTORE PUSH1 0x20 ADD DUP3 DUP1 SLOAD PUSH2 0x223 SWAP1 PUSH2 0x3C9 JUMP JUMPDEST DUP1 ISZERO PUSH2 0x26E JUMPI DUP1 PUSH1 0x1F LT PUSH2 0x245 JUMPI PUSH2 0x100 DUP1 DUP4 SLOAD DIV MUL DUP4 MSTORE SWAP2 PUSH1 0x20 ADD SWAP2 PUSH2 0x26E JUMP JUMPDEST DUP3 ADD SWAP2 SWAP1 PUSH0 MSTORE PUSH1 0x20 PUSH0 KECCAK256 SWAP1 JUMPDEST DUP2 SLOAD DUP2 MSTORE SWAP1 PUSH1 0x1 ADD SWAP1 PUSH1 0x20 ADD DUP1 DUP4 GT PUSH2 0x251 JUMPI DUP3 SWAP1 SUB PUSH1 0x1F AND DUP3 ADD SWAP2 JUMPDEST POP POP POP POP POP DUP2 JUMP JUMPDEST PUSH0 DUP1 SLOAD SWAP1 PUSH2 0x100 EXP SWAP1 DIV PUSH20 0xFFFFFFFFFFFFFFFFFFFFFFFFFFFFFFFFFFFFFFFF AND DUP2 JUMP JUMPDEST PUSH0 DUP2 SWAP1 POP SWAP3 SWAP2 POP POP JUMP JUMPDEST DUP3 DUP2 DUP4 CALLDATACOPY PUSH0 DUP4 DUP4 ADD MSTORE POP POP POP JUMP JUMPDEST PUSH0 PUSH2 0x2BC DUP4 DUP6 PUSH2 0x299 JUMP JUMPDEST SWAP4 POP PUSH2 0x2C9 DUP4 DUP6 DUP5 PUSH2 0x2A3 JUMP JUMPDEST DUP3 DUP5 ADD SWAP1 POP SWAP4 SWAP3 POP POP POP JUMP JUMPDEST PUSH0 PUSH2 0x2E1 DUP3 DUP5 DUP7 PUSH2 0x2B1 JUMP JUMPDEST SWAP2 POP DUP2 SWAP1 POP SWAP4 SWAP3 POP POP POP JUMP JUMPDEST PUSH0 DUP3 DUP3 MSTORE PUSH1 0x20 DUP3 ADD SWAP1 POP SWAP3 SWAP2 POP POP JUMP JUMPDEST PUSH32 0x6E6F2070756465206C6C616D61722061206C612066756E63696F6E0000000000 PUSH0 DUP3 ADD MSTORE POP JUMP JUMPDEST PUSH0 PUSH2 0x331 PUSH1 0x1B DUP4 PUSH2 0x2ED JUMP JUMPDEST SWAP2 POP PUSH2 0x33C DUP3 PUSH2 0x2FD JUMP JUMPDEST PUSH1 0x20 DUP3 ADD SWAP1 POP SWAP2 SWAP1 POP JUMP JUMPDEST PUSH0 PUSH1 0x20 DUP3 ADD SWAP1 POP DUP2 DUP2 SUB PUSH0 DUP4 ADD MSTORE PUSH2 0x35E DUP2 PUSH2 0x325 JUMP JUMPDEST SWAP1 POP SWAP2 SWAP1 POP JUMP JUMPDEST PUSH0 DUP2 MLOAD SWAP1 POP SWAP2 SWAP1 POP JUMP JUMPDEST PUSH32 0x4E487B7100000000000000000000000000000000000000000000000000000000 PUSH0 MSTORE PUSH1 0x41 PUSH1 0x4 MSTORE PUSH1 0x24 PUSH0 REVERT JUMPDEST PUSH32 0x4E487B7100000000000000000000000000000000000000000000000000000000 PUSH0 MSTORE PUSH1 0x22 PUSH1 0x4 MSTORE PUSH1 0x24 PUSH0 REVERT JUMPDEST PUSH0 PUSH1 0x2 DUP3 DIV SWAP1 POP PUSH1 0x1 DUP3 AND DUP1 PUSH2 0x3E0 JUMPI PUSH1 0x7F DUP3 AND SWAP2 POP JUMPDEST PUSH1 0x20 DUP3 LT DUP2 SUB PUSH2 0x3F3 JUMPI PUSH2 0x3F2 PUSH2 0x39C JUMP JUMPDEST JUMPDEST POP SWAP2 SWAP1 POP JUMP JUMPDEST PUSH0 DUP2 SWAP1 POP DUP2 PUSH0 MSTORE PUSH1 0x20 PUSH0 KECCAK256 SWAP1 POP SWAP2 SWAP1 POP JUMP JUMPDEST PUSH0 PUSH1 0x20 PUSH1 0x1F DUP4 ADD DIV SWAP1 POP SWAP2 SWAP1 POP JUMP JUMPDEST PUSH0 DUP3 DUP3 SHL SWAP1 POP SWAP3 SWAP2 POP POP JUMP JUMPDEST PUSH0 PUSH1 0x8 DUP4 MUL PUSH2 0x455 PUSH32 0xFFFFFFFFFFFFFFFFFFFFFFFFFFFFFFFFFFFFFFFFFFFFFFFFFFFFFFFFFFFFFFFF DUP3 PUSH2 0x41A JUMP JUMPDEST PUSH2 0x45F DUP7 DUP4 PUSH2 0x41A JUMP JUMPDEST SWAP6 POP DUP1 NOT DUP5 AND SWAP4 POP DUP1 DUP7 AND DUP5 OR SWAP3 POP POP POP SWAP4 SWAP3 POP POP POP JUMP JUMPDEST PUSH0 DUP2 SWAP1 POP SWAP2 SWAP1 POP JUMP JUMPDEST PUSH0 DUP2 SWAP1 POP SWAP2 SWAP1 POP JUMP JUMPDEST PUSH0 PUSH2 0x4A3 PUSH2 0x49E PUSH2 0x499 DUP5 PUSH2 0x477 JUMP JUMPDEST PUSH2 0x480 JUMP JUMPDEST PUSH2 0x477 JUMP JUMPDEST SWAP1 POP SWAP2 SWAP1 POP JUMP JUMPDEST PUSH0 DUP2 SWAP1 POP SWAP2 SWAP1 POP JUMP JUMPDEST PUSH2 0x4BC DUP4 PUSH2 0x489 JUMP JUMPDEST PUSH2 0x4D0 PUSH2 0x4C8 DUP3 PUSH2 0x4AA JUMP JUMPDEST DUP5 DUP5 SLOAD PUSH2 0x426 JUMP JUMPDEST DUP3 SSTORE POP POP POP POP JUMP JUMPDEST PUSH0 SWAP1 JUMP JUMPDEST PUSH2 0x4E4 PUSH2 0x4D8 JUMP JUMPDEST PUSH2 0x4EF DUP2 DUP5 DUP5 PUSH2 0x4B3 JUMP JUMPDEST POP POP POP JUMP JUMPDEST JUMPDEST DUP2 DUP2 LT ISZERO PUSH2 0x512 JUMPI PUSH2 0x507 PUSH0 DUP3 PUSH2 0x4DC JUMP JUMPDEST PUSH1 0x1 DUP2 ADD SWAP1 POP PUSH2 0x4F5 JUMP JUMPDEST POP POP JUMP JUMPDEST PUSH1 0x1F DUP3 GT ISZERO PUSH2 0x557 JUMPI PUSH2 0x528 DUP2 PUSH2 0x3F9 JUMP JUMPDEST PUSH2 0x531 DUP5 PUSH2 0x40B JUMP JUMPDEST DUP2 ADD PUSH1 0x20 DUP6 LT ISZERO PUSH2 0x540 JUMPI DUP2 SWAP1 POP JUMPDEST PUSH2 0x554 PUSH2 0x54C DUP6 PUSH2 0x40B JUMP JUMPDEST DUP4 ADD DUP3 PUSH2 0x4F4 JUMP JUMPDEST POP POP JUMPDEST POP POP POP JUMP JUMPDEST PUSH0 DUP3 DUP3 SHR SWAP1 POP SWAP3 SWAP2 POP POP JUMP JUMPDEST PUSH0 PUSH2 0x577 PUSH0 NOT DUP5 PUSH1 0x8 MUL PUSH2 0x55C JUMP JUMPDEST NOT DUP1 DUP4 AND SWAP2 POP POP SWAP3 SWAP2 POP POP JUMP JUMPDEST PUSH0 PUSH2 0x58F DUP4 DUP4 PUSH2 0x568 JUMP JUMPDEST SWAP2 POP DUP3 PUSH1 0x2 MUL DUP3 OR SWAP1 POP SWAP3 SWAP2 POP POP JUMP JUMPDEST PUSH2 0x5A8 DUP3 PUSH2 0x365 JUMP JUMPDEST PUSH8 0xFFFFFFFFFFFFFFFF DUP2 GT ISZERO PUSH2 0x5C1 JUMPI PUSH2 0x5C0 PUSH2 0x36F JUMP JUMPDEST JUMPDEST PUSH2 0x5CB DUP3 SLOAD PUSH2 0x3C9 JUMP JUMPDEST PUSH2 0x5D6 DUP3 DUP3 DUP6 PUSH2 0x516 JUMP JUMPDEST PUSH0 PUSH1 0x20 SWAP1 POP PUSH1 0x1F DUP4 GT PUSH1 0x1 DUP2 EQ PUSH2 0x607 JUMPI PUSH0 DUP5 ISZERO PUSH2 0x5F5 JUMPI DUP3 DUP8 ADD MLOAD SWAP1 POP JUMPDEST PUSH2 0x5FF DUP6 DUP3 PUSH2 0x584 JUMP JUMPDEST DUP7 SSTORE POP PUSH2 0x666 JUMP JUMPDEST PUSH1 0x1F NOT DUP5 AND PUSH2 0x615 DUP7 PUSH2 0x3F9 JUMP JUMPDEST PUSH0 JUMPDEST DUP3 DUP2 LT ISZERO PUSH2 0x63C JUMPI DUP5 DUP10 ADD MLOAD DUP3 SSTORE PUSH1 0x1 DUP3 ADD SWAP2 POP PUSH1 0x20 DUP6 ADD SWAP5 POP PUSH1 0x20 DUP2 ADD SWAP1 POP PUSH2 0x617 JUMP JUMPDEST DUP7 DUP4 LT ISZERO PUSH2 0x659 JUMPI DUP5 DUP10 ADD MLOAD PUSH2 0x655 PUSH1 0x1F DUP10 AND DUP3 PUSH2 0x568 JUMP JUMPDEST DUP4 SSTORE POP JUMPDEST PUSH1 0x1 PUSH1 0x2 DUP9 MUL ADD DUP9 SSTORE POP POP POP JUMPDEST POP POP POP POP POP POP JUMP JUMPDEST PUSH0 DUP1 REVERT JUMPDEST PUSH0 PUSH20 0xFFFFFFFFFFFFFFFFFFFFFFFFFFFFFFFFFFFFFFFF DUP3 AND SWAP1 POP SWAP2 SWAP1 POP JUMP JUMPDEST PUSH0 PUSH2 0x69B DUP3 PUSH2 0x672 JUMP JUMPDEST SWAP1 POP SWAP2 SWAP1 POP JUMP JUMPDEST PUSH2 0x6AB DUP2 PUSH2 0x691 JUMP JUMPDEST DUP2 EQ PUSH2 0x6B5 JUMPI PUSH0 DUP1 REVERT JUMPDEST POP JUMP JUMPDEST PUSH0 DUP2 CALLDATALOAD SWAP1 POP PUSH2 0x6C6 DUP2 PUSH2 0x6A2 JUMP JUMPDEST SWAP3 SWAP2 POP POP JUMP JUMPDEST PUSH0 PUSH1 0x20 DUP3 DUP5 SUB SLT ISZERO PUSH2 0x6E1 JUMPI PUSH2 0x6E0 PUSH2 0x66E JUMP JUMPDEST JUMPDEST PUSH0 PUSH2 0x6EE DUP5 DUP3 DUP6 ADD PUSH2 0x6B8 JUMP JUMPDEST SWAP2 POP POP SWAP3 SWAP2 POP POP JUMP JUMPDEST PUSH0 DUP3 DUP3 MSTORE PUSH1 0x20 DUP3 ADD SWAP1 POP SWAP3 SWAP2 POP POP JUMP JUMPDEST DUP3 DUP2 DUP4 MCOPY PUSH0 DUP4 DUP4 ADD MSTORE POP POP POP JUMP JUMPDEST PUSH0 PUSH1 0x1F NOT PUSH1 0x1F DUP4 ADD AND SWAP1 POP SWAP2 SWAP1 POP JUMP JUMPDEST PUSH0 PUSH2 0x72F DUP3 PUSH2 0x365 JUMP JUMPDEST PUSH2 0x739 DUP2 DUP6 PUSH2 0x6F7 JUMP JUMPDEST SWAP4 POP PUSH2 0x749 DUP2 DUP6 PUSH1 0x20 DUP7 ADD PUSH2 0x707 JUMP JUMPDEST PUSH2 0x752 DUP2 PUSH2 0x715 JUMP JUMPDEST DUP5 ADD SWAP2 POP POP SWAP3 SWAP2 POP POP JUMP JUMPDEST PUSH0 PUSH1 0x20 DUP3 ADD SWAP1 POP DUP2 DUP2 SUB PUSH0 DUP4 ADD MSTORE PUSH2 0x775 DUP2 DUP5 PUSH2 0x725 JUMP JUMPDEST SWAP1 POP SWAP3 SWAP2 POP POP JUMP JUMPDEST PUSH2 0x786 DUP2 PUSH2 0x691 JUMP JUMPDEST DUP3 MSTORE POP POP JUMP JUMPDEST PUSH0 PUSH1 0x20 DUP3 ADD SWAP1 POP PUSH2 0x79F PUSH0 DUP4 ADD DUP5 PUSH2 0x77D JUMP JUMPDEST SWAP3 SWAP2 POP POP JUMP INVALID LOG2 PUSH5 0x6970667358 0x22 SLT KECCAK256 0xC5 LOG2 CREATE 0xC LT SWAP2 SWAP13 SWAP10 0x2F 0xE5 0xA8 PUSH31 0x24464D375D470CF986B26F782F8EFFF657CDF22564736F6C634300081A0033 "
				},
				"gasEstimates": {
					"creation": {
						"codeDepositCost": "402200",
						"executionCost": "434",
						"totalCost": "402634"
					},
					"external": {
						"": "infinite",
						"changeContract(address)": "24693",
						"contrato()": "2527",
						"valorGuardado()": "infinite"
					}
				},
				"methodIdentifiers": {
					"changeContract(address)": "3d71c3af",
					"contrato()": "e1a01e67",
					"valorGuardado()": "8d7aea19"
				}
			},
			"storageLayout": {
				"storage": [
					{
						"astId": 3,
						"contract": "ETHKIPU/caller1.sol:callee",
						"label": "contrato",
						"offset": 0,
						"slot": "0",
						"type": "t_address"
					},
					{
						"astId": 5,
						"contract": "ETHKIPU/caller1.sol:callee",
						"label": "valorGuardado",
						"offset": 0,
						"slot": "1",
						"type": "t_bytes_storage"
					}
				],
				"types": {
					"t_address": {
						"encoding": "inplace",
						"label": "address",
						"numberOfBytes": "20"
					},
					"t_bytes_storage": {
						"encoding": "bytes",
						"label": "bytes",
						"numberOfBytes": "32"
					}
				}
			},
			"userdoc": {
				"kind": "user",
				"methods": {},
				"version": 1
			}
		}
	}
}