{
	"ETHKIPU/SubastaModulo2.sol": {
		"SubastaFinal": {
			"abi": [
				{
					"inputs": [],
					"stateMutability": "nonpayable",
					"type": "constructor"
				},
				{
					"anonymous": false,
					"inputs": [
						{
							"indexed": false,
							"internalType": "address",
							"name": "ofertante",
							"type": "address"
						},
						{
							"indexed": false,
							"internalType": "uint256",
							"name": "monto",
							"type": "uint256"
						}
					],
					"name": "NuevaOferta",
					"type": "event"
				},
				{
					"anonymous": false,
					"inputs": [
						{
							"indexed": false,
							"internalType": "address",
							"name": "ganador",
							"type": "address"
						},
						{
							"indexed": false,
							"internalType": "uint256",
							"name": "montoGanador",
							"type": "uint256"
						}
					],
					"name": "SubastaFinalizada",
					"type": "event"
				},
				{
					"inputs": [
						{
							"internalType": "address",
							"name": "",
							"type": "address"
						}
					],
					"name": "depositos",
					"outputs": [
						{
							"internalType": "uint256",
							"name": "",
							"type": "uint256"
						}
					],
					"stateMutability": "view",
					"type": "function"
				},
				{
					"inputs": [],
					"name": "devolverDepositos",
					"outputs": [],
					"stateMutability": "nonpayable",
					"type": "function"
				},
				{
					"inputs": [],
					"name": "extensionTiempo",
					"outputs": [
						{
							"internalType": "uint256",
							"name": "",
							"type": "uint256"
						}
					],
					"stateMutability": "view",
					"type": "function"
				},
				{
					"inputs": [],
					"name": "finTiempo",
					"outputs": [
						{
							"internalType": "uint256",
							"name": "",
							"type": "uint256"
						}
					],
					"stateMutability": "view",
					"type": "function"
				},
				{
					"inputs": [],
					"name": "finalizada",
					"outputs": [
						{
							"internalType": "bool",
							"name": "",
							"type": "bool"
						}
					],
					"stateMutability": "view",
					"type": "function"
				},
				{
					"inputs": [],
					"name": "finalizarSubasta",
					"outputs": [],
					"stateMutability": "nonpayable",
					"type": "function"
				},
				{
					"inputs": [],
					"name": "inicioTiempo",
					"outputs": [
						{
							"internalType": "uint256",
							"name": "",
							"type": "uint256"
						}
					],
					"stateMutability": "view",
					"type": "function"
				},
				{
					"inputs": [],
					"name": "mejorOferta",
					"outputs": [
						{
							"internalType": "uint256",
							"name": "",
							"type": "uint256"
						}
					],
					"stateMutability": "view",
					"type": "function"
				},
				{
					"inputs": [],
					"name": "mejorOfertante",
					"outputs": [
						{
							"internalType": "address",
							"name": "",
							"type": "address"
						}
					],
					"stateMutability": "view",
					"type": "function"
				},
				{
					"inputs": [],
					"name": "mostrarGanador",
					"outputs": [
						{
							"internalType": "address",
							"name": "",
							"type": "address"
						},
						{
							"internalType": "uint256",
							"name": "",
							"type": "uint256"
						}
					],
					"stateMutability": "view",
					"type": "function"
				},
				{
					"inputs": [],
					"name": "mostrarOfertas",
					"outputs": [
						{
							"components": [
								{
									"internalType": "address",
									"name": "ofertante",
									"type": "address"
								},
								{
									"internalType": "uint256",
									"name": "monto",
									"type": "uint256"
								}
							],
							"internalType": "struct SubastaFinal.Oferta[]",
							"name": "",
							"type": "tuple[]"
						}
					],
					"stateMutability": "view",
					"type": "function"
				},
				{
					"inputs": [],
					"name": "ofertaMinima",
					"outputs": [
						{
							"internalType": "uint256",
							"name": "",
							"type": "uint256"
						}
					],
					"stateMutability": "view",
					"type": "function"
				},
				{
					"inputs": [],
					"name": "ofertar",
					"outputs": [],
					"stateMutability": "payable",
					"type": "function"
				},
				{
					"inputs": [
						{
							"internalType": "uint256",
							"name": "",
							"type": "uint256"
						}
					],
					"name": "ofertas",
					"outputs": [
						{
							"internalType": "address",
							"name": "ofertante",
							"type": "address"
						},
						{
							"internalType": "uint256",
							"name": "monto",
							"type": "uint256"
						}
					],
					"stateMutability": "view",
					"type": "function"
				},
				{
					"inputs": [],
					"name": "porcentajeComision",
					"outputs": [
						{
							"internalType": "uint256",
							"name": "",
							"type": "uint256"
						}
					],
					"stateMutability": "view",
					"type": "function"
				},
				{
					"inputs": [],
					"name": "porcentajeIncrementoMinimo",
					"outputs": [
						{
							"internalType": "uint256",
							"name": "",
							"type": "uint256"
						}
					],
					"stateMutability": "view",
					"type": "function"
				},
				{
					"inputs": [],
					"name": "previofinTiempo",
					"outputs": [
						{
							"internalType": "uint256",
							"name": "",
							"type": "uint256"
						}
					],
					"stateMutability": "view",
					"type": "function"
				},
				{
					"inputs": [
						{
							"internalType": "uint256",
							"name": "monto",
							"type": "uint256"
						}
					],
					"name": "reembolsoParcial",
					"outputs": [],
					"stateMutability": "nonpayable",
					"type": "function"
				},
				{
					"inputs": [],
					"name": "subastador",
					"outputs": [
						{
							"internalType": "address",
							"name": "",
							"type": "address"
						}
					],
					"stateMutability": "view",
					"type": "function"
				},
				{
					"inputs": [
						{
							"internalType": "address",
							"name": "",
							"type": "address"
						}
					],
					"name": "ultimaOferta",
					"outputs": [
						{
							"internalType": "uint256",
							"name": "",
							"type": "uint256"
						}
					],
					"stateMutability": "view",
					"type": "function"
				}
			],
			"devdoc": {
				"kind": "dev",
				"methods": {},
				"version": 1
			},
			"evm": {
				"assembly": "    /* \"ETHKIPU/SubastaModulo2.sol\":67:5720  contract SubastaFinal {... */\n  mstore(0x40, 0x80)\n    /* \"ETHKIPU/SubastaModulo2.sol\":279:289  1730894400 */\n  0x672b5a40\n    /* \"ETHKIPU/SubastaModulo2.sol\":249:289  uint256 public inicioTiempo = 1730894400 */\n  0x03\n  sstore\n    /* \"ETHKIPU/SubastaModulo2.sol\":444:460  7 * 24 * 60 * 60 */\n  0x093a80\n    /* \"ETHKIPU/SubastaModulo2.sol\":428:440  inicioTiempo */\n  sload(0x03)\n    /* \"ETHKIPU/SubastaModulo2.sol\":428:461  inicioTiempo + (7 * 24 * 60 * 60) */\n  tag_1\n  swap2\n  swap1\n  tag_2\n  jump\t// in\ntag_1:\n    /* \"ETHKIPU/SubastaModulo2.sol\":401:461  uint256 public finTiempo = inicioTiempo + (7 * 24 * 60 * 60) */\n  0x04\n  sstore\n    /* \"ETHKIPU/SubastaModulo2.sol\":625:636  0.005 ether */\n  0x11c37937e08000\n    /* \"ETHKIPU/SubastaModulo2.sol\":595:636  uint256 public ofertaMinima = 0.005 ether */\n  0x05\n  sstore\n    /* \"ETHKIPU/SubastaModulo2.sol\":676:683  10 * 60 */\n  0x0258\n    /* \"ETHKIPU/SubastaModulo2.sol\":643:683  uint256 public extensionTiempo = 10 * 60 */\n  0x06\n  sstore\n    /* \"ETHKIPU/SubastaModulo2.sol\":752:759  10 * 60 */\n  0x0258\n    /* \"ETHKIPU/SubastaModulo2.sol\":719:759  uint256 public previofinTiempo = 10 * 60 */\n  0x07\n  sstore\n    /* \"ETHKIPU/SubastaModulo2.sol\":873:874  5 */\n  0x05\n    /* \"ETHKIPU/SubastaModulo2.sol\":829:874  uint256 public porcentajeIncrementoMinimo = 5 */\n  0x08\n  sstore\n    /* \"ETHKIPU/SubastaModulo2.sol\":917:918  2 */\n  0x02\n    /* \"ETHKIPU/SubastaModulo2.sol\":881:918  uint256 public porcentajeComision = 2 */\n  0x09\n  sstore\n    /* \"ETHKIPU/SubastaModulo2.sol\":950:955  false */\n  0x00\n    /* \"ETHKIPU/SubastaModulo2.sol\":925:955  bool public finalizada = false */\n  0x0a\n  exp(0x0100, 0x00)\n  dup2\n  sload\n  dup2\n  0xff\n  mul\n  not\n  and\n  swap1\n  dup4\n  iszero\n  iszero\n  mul\n  or\n  swap1\n  sstore\n  pop\n    /* \"ETHKIPU/SubastaModulo2.sol\":2533:2589  constructor() {... */\n  callvalue\n  dup1\n  iszero\n  tag_3\n  jumpi\n  0x00\n  dup1\n  revert\ntag_3:\n  pop\n    /* \"ETHKIPU/SubastaModulo2.sol\":2571:2581  msg.sender */\n  caller\n    /* \"ETHKIPU/SubastaModulo2.sol\":2558:2568  subastador */\n  0x00\n  dup1\n    /* \"ETHKIPU/SubastaModulo2.sol\":2558:2581  subastador = msg.sender */\n  0x0100\n  exp\n  dup2\n  sload\n  dup2\n  0xffffffffffffffffffffffffffffffffffffffff\n  mul\n  not\n  and\n  swap1\n  dup4\n  0xffffffffffffffffffffffffffffffffffffffff\n  and\n  mul\n  or\n  swap1\n  sstore\n  pop\n    /* \"ETHKIPU/SubastaModulo2.sol\":67:5720  contract SubastaFinal {... */\n  jump(tag_6)\n    /* \"#utility.yul\":7:84   */\ntag_7:\n    /* \"#utility.yul\":44:51   */\n  0x00\n    /* \"#utility.yul\":73:78   */\n  dup2\n    /* \"#utility.yul\":62:78   */\n  swap1\n  pop\n    /* \"#utility.yul\":7:84   */\n  swap2\n  swap1\n  pop\n  jump\t// out\n    /* \"#utility.yul\":90:270   */\ntag_8:\n    /* \"#utility.yul\":138:215   */\n  0x4e487b7100000000000000000000000000000000000000000000000000000000\n    /* \"#utility.yul\":135:136   */\n  0x00\n    /* \"#utility.yul\":128:216   */\n  mstore\n    /* \"#utility.yul\":235:239   */\n  0x11\n    /* \"#utility.yul\":232:233   */\n  0x04\n    /* \"#utility.yul\":225:240   */\n  mstore\n    /* \"#utility.yul\":259:263   */\n  0x24\n    /* \"#utility.yul\":256:257   */\n  0x00\n    /* \"#utility.yul\":249:264   */\n  revert\n    /* \"#utility.yul\":276:467   */\ntag_2:\n    /* \"#utility.yul\":316:319   */\n  0x00\n    /* \"#utility.yul\":335:355   */\n  tag_13\n    /* \"#utility.yul\":353:354   */\n  dup3\n    /* \"#utility.yul\":335:355   */\n  tag_7\n  jump\t// in\ntag_13:\n    /* \"#utility.yul\":330:355   */\n  swap2\n  pop\n    /* \"#utility.yul\":369:389   */\n  tag_14\n    /* \"#utility.yul\":387:388   */\n  dup4\n    /* \"#utility.yul\":369:389   */\n  tag_7\n  jump\t// in\ntag_14:\n    /* \"#utility.yul\":364:389   */\n  swap3\n  pop\n    /* \"#utility.yul\":412:413   */\n  dup3\n    /* \"#utility.yul\":409:410   */\n  dup3\n    /* \"#utility.yul\":405:414   */\n  add\n    /* \"#utility.yul\":398:414   */\n  swap1\n  pop\n    /* \"#utility.yul\":433:436   */\n  dup1\n    /* \"#utility.yul\":430:431   */\n  dup3\n    /* \"#utility.yul\":427:437   */\n  gt\n    /* \"#utility.yul\":424:460   */\n  iszero\n  tag_15\n  jumpi\n    /* \"#utility.yul\":440:458   */\n  tag_16\n  tag_8\n  jump\t// in\ntag_16:\n    /* \"#utility.yul\":424:460   */\ntag_15:\n    /* \"#utility.yul\":276:467   */\n  swap3\n  swap2\n  pop\n  pop\n  jump\t// out\n    /* \"ETHKIPU/SubastaModulo2.sol\":67:5720  contract SubastaFinal {... */\ntag_6:\n  dataSize(sub_0)\n  dup1\n  dataOffset(sub_0)\n  0x00\n  codecopy\n  0x00\n  return\nstop\n\nsub_0: assembly {\n        /* \"ETHKIPU/SubastaModulo2.sol\":67:5720  contract SubastaFinal {... */\n      mstore(0x40, 0x80)\n      jumpi(tag_1, lt(calldatasize, 0x04))\n      shr(0xe0, calldataload(0x00))\n      dup1\n      0x723a978d\n      gt\n      tag_22\n      jumpi\n      dup1\n      0xe0107077\n      gt\n      tag_23\n      jumpi\n      dup1\n      0xe0107077\n      eq\n      tag_17\n      jumpi\n      dup1\n      0xf292b25d\n      eq\n      tag_18\n      jumpi\n      dup1\n      0xf4442c65\n      eq\n      tag_19\n      jumpi\n      dup1\n      0xfbc08016\n      eq\n      tag_20\n      jumpi\n      dup1\n      0xffbfc189\n      eq\n      tag_21\n      jumpi\n      jump(tag_1)\n    tag_23:\n      dup1\n      0x723a978d\n      eq\n      tag_12\n      jumpi\n      dup1\n      0x753dcaeb\n      eq\n      tag_13\n      jumpi\n      dup1\n      0xacfc9f98\n      eq\n      tag_14\n      jumpi\n      dup1\n      0xb04f21fc\n      eq\n      tag_15\n      jumpi\n      dup1\n      0xc442a99f\n      eq\n      tag_16\n      jumpi\n      jump(tag_1)\n    tag_22:\n      dup1\n      0x56afff7c\n      gt\n      tag_24\n      jumpi\n      dup1\n      0x56afff7c\n      eq\n      tag_7\n      jumpi\n      dup1\n      0x6401f67f\n      eq\n      tag_8\n      jumpi\n      dup1\n      0x664e62b9\n      eq\n      tag_9\n      jumpi\n      dup1\n      0x69ecf131\n      eq\n      tag_10\n      jumpi\n      dup1\n      0x6b595fbb\n      eq\n      tag_11\n      jumpi\n      jump(tag_1)\n    tag_24:\n      dup1\n      0x0851eac2\n      eq\n      tag_2\n      jumpi\n      dup1\n      0x1c33274f\n      eq\n      tag_3\n      jumpi\n      dup1\n      0x3dfa138d\n      eq\n      tag_4\n      jumpi\n      dup1\n      0x3ec059d7\n      eq\n      tag_5\n      jumpi\n      dup1\n      0x5298a3c4\n      eq\n      tag_6\n      jumpi\n    tag_1:\n      0x00\n      dup1\n      revert\n        /* \"ETHKIPU/SubastaModulo2.sol\":4189:4540  function finalizarSubasta() external soloSubastador subastaActiva {... */\n    tag_2:\n      callvalue\n      dup1\n      iszero\n      tag_25\n      jumpi\n      0x00\n      dup1\n      revert\n    tag_25:\n      pop\n      tag_26\n      tag_27\n      jump\t// in\n    tag_26:\n      stop\n        /* \"ETHKIPU/SubastaModulo2.sol\":1297:1344  mapping(address => uint256) public ultimaOferta */\n    tag_3:\n      callvalue\n      dup1\n      iszero\n      tag_28\n      jumpi\n      0x00\n      dup1\n      revert\n    tag_28:\n      pop\n      tag_29\n      0x04\n      dup1\n      calldatasize\n      sub\n      dup2\n      add\n      swap1\n      tag_30\n      swap2\n      swap1\n      tag_31\n      jump\t// in\n    tag_30:\n      tag_32\n      jump\t// in\n    tag_29:\n      mload(0x40)\n      tag_33\n      swap2\n      swap1\n      tag_34\n      jump\t// in\n    tag_33:\n      mload(0x40)\n      dup1\n      swap2\n      sub\n      swap1\n      return\n        /* \"ETHKIPU/SubastaModulo2.sol\":126:151  address public subastador */\n    tag_4:\n      callvalue\n      dup1\n      iszero\n      tag_35\n      jumpi\n      0x00\n      dup1\n      revert\n    tag_35:\n      pop\n      tag_36\n      tag_37\n      jump\t// in\n    tag_36:\n      mload(0x40)\n      tag_38\n      swap2\n      swap1\n      tag_39\n      jump\t// in\n    tag_38:\n      mload(0x40)\n      dup1\n      swap2\n      sub\n      swap1\n      return\n        /* \"ETHKIPU/SubastaModulo2.sol\":2627:3785  function ofertar() external payable subastaHaIniciado subastaActiva {... */\n    tag_5:\n      tag_40\n      tag_41\n      jump\t// in\n    tag_40:\n      stop\n        /* \"ETHKIPU/SubastaModulo2.sol\":4652:5118  function devolverDepositos() external subastaFinalizada {... */\n    tag_6:\n      callvalue\n      dup1\n      iszero\n      tag_42\n      jumpi\n      0x00\n      dup1\n      revert\n    tag_42:\n      pop\n      tag_43\n      tag_44\n      jump\t// in\n    tag_43:\n      stop\n        /* \"ETHKIPU/SubastaModulo2.sol\":1109:1132  Oferta[] public ofertas */\n    tag_7:\n      callvalue\n      dup1\n      iszero\n      tag_45\n      jumpi\n      0x00\n      dup1\n      revert\n    tag_45:\n      pop\n      tag_46\n      0x04\n      dup1\n      calldatasize\n      sub\n      dup2\n      add\n      swap1\n      tag_47\n      swap2\n      swap1\n      tag_48\n      jump\t// in\n    tag_47:\n      tag_49\n      jump\t// in\n    tag_46:\n      mload(0x40)\n      tag_50\n      swap3\n      swap2\n      swap1\n      tag_51\n      jump\t// in\n    tag_50:\n      mload(0x40)\n      dup1\n      swap2\n      sub\n      swap1\n      return\n        /* \"ETHKIPU/SubastaModulo2.sol\":401:461  uint256 public finTiempo = inicioTiempo + (7 * 24 * 60 * 60) */\n    tag_8:\n      callvalue\n      dup1\n      iszero\n      tag_52\n      jumpi\n      0x00\n      dup1\n      revert\n    tag_52:\n      pop\n      tag_53\n      tag_54\n      jump\t// in\n    tag_53:\n      mload(0x40)\n      tag_55\n      swap2\n      swap1\n      tag_34\n      jump\t// in\n    tag_55:\n      mload(0x40)\n      dup1\n      swap2\n      sub\n      swap1\n      return\n        /* \"ETHKIPU/SubastaModulo2.sol\":1180:1224  mapping(address => uint256) public depositos */\n    tag_9:\n      callvalue\n      dup1\n      iszero\n      tag_56\n      jumpi\n      0x00\n      dup1\n      revert\n    tag_56:\n      pop\n      tag_57\n      0x04\n      dup1\n      calldatasize\n      sub\n      dup2\n      add\n      swap1\n      tag_58\n      swap2\n      swap1\n      tag_31\n      jump\t// in\n    tag_58:\n      tag_59\n      jump\t// in\n    tag_57:\n      mload(0x40)\n      tag_60\n      swap2\n      swap1\n      tag_34\n      jump\t// in\n    tag_60:\n      mload(0x40)\n      dup1\n      swap2\n      sub\n      swap1\n      return\n        /* \"ETHKIPU/SubastaModulo2.sol\":5203:5717  function reembolsoParcial(uint256 monto) external subastaActiva {... */\n    tag_10:\n      callvalue\n      dup1\n      iszero\n      tag_61\n      jumpi\n      0x00\n      dup1\n      revert\n    tag_61:\n      pop\n      tag_62\n      0x04\n      dup1\n      calldatasize\n      sub\n      dup2\n      add\n      swap1\n      tag_63\n      swap2\n      swap1\n      tag_48\n      jump\t// in\n    tag_63:\n      tag_64\n      jump\t// in\n    tag_62:\n      stop\n        /* \"ETHKIPU/SubastaModulo2.sol\":829:874  uint256 public porcentajeIncrementoMinimo = 5 */\n    tag_11:\n      callvalue\n      dup1\n      iszero\n      tag_65\n      jumpi\n      0x00\n      dup1\n      revert\n    tag_65:\n      pop\n      tag_66\n      tag_67\n      jump\t// in\n    tag_66:\n      mload(0x40)\n      tag_68\n      swap2\n      swap1\n      tag_34\n      jump\t// in\n    tag_68:\n      mload(0x40)\n      dup1\n      swap2\n      sub\n      swap1\n      return\n        /* \"ETHKIPU/SubastaModulo2.sol\":249:289  uint256 public inicioTiempo = 1730894400 */\n    tag_12:\n      callvalue\n      dup1\n      iszero\n      tag_69\n      jumpi\n      0x00\n      dup1\n      revert\n    tag_69:\n      pop\n      tag_70\n      tag_71\n      jump\t// in\n    tag_70:\n      mload(0x40)\n      tag_72\n      swap2\n      swap1\n      tag_34\n      jump\t// in\n    tag_72:\n      mload(0x40)\n      dup1\n      swap2\n      sub\n      swap1\n      return\n        /* \"ETHKIPU/SubastaModulo2.sol\":3817:3957  function mostrarGanador() external view subastaFinalizada returns (address, uint256) {... */\n    tag_13:\n      callvalue\n      dup1\n      iszero\n      tag_73\n      jumpi\n      0x00\n      dup1\n      revert\n    tag_73:\n      pop\n      tag_74\n      tag_75\n      jump\t// in\n    tag_74:\n      mload(0x40)\n      tag_76\n      swap3\n      swap2\n      swap1\n      tag_51\n      jump\t// in\n    tag_76:\n      mload(0x40)\n      dup1\n      swap2\n      sub\n      swap1\n      return\n        /* \"ETHKIPU/SubastaModulo2.sol\":216:242  uint256 public mejorOferta */\n    tag_14:\n      callvalue\n      dup1\n      iszero\n      tag_77\n      jumpi\n      0x00\n      dup1\n      revert\n    tag_77:\n      pop\n      tag_78\n      tag_79\n      jump\t// in\n    tag_78:\n      mload(0x40)\n      tag_80\n      swap2\n      swap1\n      tag_34\n      jump\t// in\n    tag_80:\n      mload(0x40)\n      dup1\n      swap2\n      sub\n      swap1\n      return\n        /* \"ETHKIPU/SubastaModulo2.sol\":719:759  uint256 public previofinTiempo = 10 * 60 */\n    tag_15:\n      callvalue\n      dup1\n      iszero\n      tag_81\n      jumpi\n      0x00\n      dup1\n      revert\n    tag_81:\n      pop\n      tag_82\n      tag_83\n      jump\t// in\n    tag_82:\n      mload(0x40)\n      tag_84\n      swap2\n      swap1\n      tag_34\n      jump\t// in\n    tag_84:\n      mload(0x40)\n      dup1\n      swap2\n      sub\n      swap1\n      return\n        /* \"ETHKIPU/SubastaModulo2.sol\":3999:4155  function mostrarOfertas() external view returns (Oferta[] memory) {... */\n    tag_16:\n      callvalue\n      dup1\n      iszero\n      tag_85\n      jumpi\n      0x00\n      dup1\n      revert\n    tag_85:\n      pop\n      tag_86\n      tag_87\n      jump\t// in\n    tag_86:\n      mload(0x40)\n      tag_88\n      swap2\n      swap1\n      tag_89\n      jump\t// in\n    tag_88:\n      mload(0x40)\n      dup1\n      swap2\n      sub\n      swap1\n      return\n        /* \"ETHKIPU/SubastaModulo2.sol\":595:636  uint256 public ofertaMinima = 0.005 ether */\n    tag_17:\n      callvalue\n      dup1\n      iszero\n      tag_90\n      jumpi\n      0x00\n      dup1\n      revert\n    tag_90:\n      pop\n      tag_91\n      tag_92\n      jump\t// in\n    tag_91:\n      mload(0x40)\n      tag_93\n      swap2\n      swap1\n      tag_34\n      jump\t// in\n    tag_93:\n      mload(0x40)\n      dup1\n      swap2\n      sub\n      swap1\n      return\n        /* \"ETHKIPU/SubastaModulo2.sol\":643:683  uint256 public extensionTiempo = 10 * 60 */\n    tag_18:\n      callvalue\n      dup1\n      iszero\n      tag_94\n      jumpi\n      0x00\n      dup1\n      revert\n    tag_94:\n      pop\n      tag_95\n      tag_96\n      jump\t// in\n    tag_95:\n      mload(0x40)\n      tag_97\n      swap2\n      swap1\n      tag_34\n      jump\t// in\n    tag_97:\n      mload(0x40)\n      dup1\n      swap2\n      sub\n      swap1\n      return\n        /* \"ETHKIPU/SubastaModulo2.sol\":180:209  address public mejorOfertante */\n    tag_19:\n      callvalue\n      dup1\n      iszero\n      tag_98\n      jumpi\n      0x00\n      dup1\n      revert\n    tag_98:\n      pop\n      tag_99\n      tag_100\n      jump\t// in\n    tag_99:\n      mload(0x40)\n      tag_101\n      swap2\n      swap1\n      tag_39\n      jump\t// in\n    tag_101:\n      mload(0x40)\n      dup1\n      swap2\n      sub\n      swap1\n      return\n        /* \"ETHKIPU/SubastaModulo2.sol\":881:918  uint256 public porcentajeComision = 2 */\n    tag_20:\n      callvalue\n      dup1\n      iszero\n      tag_102\n      jumpi\n      0x00\n      dup1\n      revert\n    tag_102:\n      pop\n      tag_103\n      tag_104\n      jump\t// in\n    tag_103:\n      mload(0x40)\n      tag_105\n      swap2\n      swap1\n      tag_34\n      jump\t// in\n    tag_105:\n      mload(0x40)\n      dup1\n      swap2\n      sub\n      swap1\n      return\n        /* \"ETHKIPU/SubastaModulo2.sol\":925:955  bool public finalizada = false */\n    tag_21:\n      callvalue\n      dup1\n      iszero\n      tag_106\n      jumpi\n      0x00\n      dup1\n      revert\n    tag_106:\n      pop\n      tag_107\n      tag_108\n      jump\t// in\n    tag_107:\n      mload(0x40)\n      tag_109\n      swap2\n      swap1\n      tag_110\n      jump\t// in\n    tag_109:\n      mload(0x40)\n      dup1\n      swap2\n      sub\n      swap1\n      return\n        /* \"ETHKIPU/SubastaModulo2.sol\":4189:4540  function finalizarSubasta() external soloSubastador subastaActiva {... */\n    tag_27:\n        /* \"ETHKIPU/SubastaModulo2.sol\":1649:1659  subastador */\n      0x00\n      dup1\n      sload\n      swap1\n      0x0100\n      exp\n      swap1\n      div\n      0xffffffffffffffffffffffffffffffffffffffff\n      and\n        /* \"ETHKIPU/SubastaModulo2.sol\":1635:1659  msg.sender == subastador */\n      0xffffffffffffffffffffffffffffffffffffffff\n      and\n        /* \"ETHKIPU/SubastaModulo2.sol\":1635:1645  msg.sender */\n      caller\n        /* \"ETHKIPU/SubastaModulo2.sol\":1635:1659  msg.sender == subastador */\n      0xffffffffffffffffffffffffffffffffffffffff\n      and\n      eq\n        /* \"ETHKIPU/SubastaModulo2.sol\":1627:1710  require(msg.sender == subastador, \"Solo el subastador puede ejecutar esta funcion\") */\n      tag_112\n      jumpi\n      mload(0x40)\n      0x08c379a000000000000000000000000000000000000000000000000000000000\n      dup2\n      mstore\n      0x04\n      add\n      tag_113\n      swap1\n      tag_114\n      jump\t// in\n    tag_113:\n      mload(0x40)\n      dup1\n      swap2\n      sub\n      swap1\n      revert\n    tag_112:\n        /* \"ETHKIPU/SubastaModulo2.sol\":2102:2114  inicioTiempo */\n      sload(0x03)\n        /* \"ETHKIPU/SubastaModulo2.sol\":2083:2098  block.timestamp */\n      timestamp\n        /* \"ETHKIPU/SubastaModulo2.sol\":2083:2114  block.timestamp >= inicioTiempo */\n      lt\n      iszero\n        /* \"ETHKIPU/SubastaModulo2.sol\":2083:2145  block.timestamp >= inicioTiempo && block.timestamp < finTiempo */\n      dup1\n      iszero\n      tag_116\n      jumpi\n      pop\n        /* \"ETHKIPU/SubastaModulo2.sol\":2136:2145  finTiempo */\n      sload(0x04)\n        /* \"ETHKIPU/SubastaModulo2.sol\":2118:2133  block.timestamp */\n      timestamp\n        /* \"ETHKIPU/SubastaModulo2.sol\":2118:2145  block.timestamp < finTiempo */\n      lt\n        /* \"ETHKIPU/SubastaModulo2.sol\":2083:2145  block.timestamp >= inicioTiempo && block.timestamp < finTiempo */\n    tag_116:\n        /* \"ETHKIPU/SubastaModulo2.sol\":2075:2175  require(block.timestamp >= inicioTiempo && block.timestamp < finTiempo, \"La subasta no esta activa\") */\n      tag_117\n      jumpi\n      mload(0x40)\n      0x08c379a000000000000000000000000000000000000000000000000000000000\n      dup2\n      mstore\n      0x04\n      add\n      tag_118\n      swap1\n      tag_119\n      jump\t// in\n    tag_118:\n      mload(0x40)\n      dup1\n      swap2\n      sub\n      swap1\n      revert\n    tag_117:\n        /* \"ETHKIPU/SubastaModulo2.sol\":4293:4302  finTiempo */\n      sload(0x04)\n        /* \"ETHKIPU/SubastaModulo2.sol\":4274:4289  block.timestamp */\n      timestamp\n        /* \"ETHKIPU/SubastaModulo2.sol\":4274:4302  block.timestamp >= finTiempo */\n      lt\n      iszero\n        /* \"ETHKIPU/SubastaModulo2.sol\":4266:4335  require(block.timestamp >= finTiempo, \"La subasta aun esta en curso\") */\n      tag_121\n      jumpi\n      mload(0x40)\n      0x08c379a000000000000000000000000000000000000000000000000000000000\n      dup2\n      mstore\n      0x04\n      add\n      tag_122\n      swap1\n      tag_123\n      jump\t// in\n    tag_122:\n      mload(0x40)\n      dup1\n      swap2\n      sub\n      swap1\n      revert\n    tag_121:\n        /* \"ETHKIPU/SubastaModulo2.sol\":4359:4363  true */\n      0x01\n        /* \"ETHKIPU/SubastaModulo2.sol\":4346:4356  finalizada */\n      0x0a\n      0x00\n        /* \"ETHKIPU/SubastaModulo2.sol\":4346:4363  finalizada = true */\n      0x0100\n      exp\n      dup2\n      sload\n      dup2\n      0xff\n      mul\n      not\n      and\n      swap1\n      dup4\n      iszero\n      iszero\n      mul\n      or\n      swap1\n      sstore\n      pop\n        /* \"ETHKIPU/SubastaModulo2.sol\":4379:4425  SubastaFinalizada(mejorOfertante, mejorOferta) */\n      0xa3a65b403bdae88eb037f4ecc1d619f436fc3ef6bcbbee3787757164e82883f2\n        /* \"ETHKIPU/SubastaModulo2.sol\":4397:4411  mejorOfertante */\n      0x01\n      0x00\n      swap1\n      sload\n      swap1\n      0x0100\n      exp\n      swap1\n      div\n      0xffffffffffffffffffffffffffffffffffffffff\n      and\n        /* \"ETHKIPU/SubastaModulo2.sol\":4413:4424  mejorOferta */\n      sload(0x02)\n        /* \"ETHKIPU/SubastaModulo2.sol\":4379:4425  SubastaFinalizada(mejorOfertante, mejorOferta) */\n      mload(0x40)\n      tag_124\n      swap3\n      swap2\n      swap1\n      tag_51\n      jump\t// in\n    tag_124:\n      mload(0x40)\n      dup1\n      swap2\n      sub\n      swap1\n      log1\n        /* \"ETHKIPU/SubastaModulo2.sol\":4499:4509  subastador */\n      0x00\n      dup1\n      sload\n      swap1\n      0x0100\n      exp\n      swap1\n      div\n      0xffffffffffffffffffffffffffffffffffffffff\n      and\n        /* \"ETHKIPU/SubastaModulo2.sol\":4491:4519  payable(subastador).transfer */\n      0xffffffffffffffffffffffffffffffffffffffff\n      and\n        /* \"ETHKIPU/SubastaModulo2.sol\":4491:4532  payable(subastador).transfer(mejorOferta) */\n      0x08fc\n        /* \"ETHKIPU/SubastaModulo2.sol\":4520:4531  mejorOferta */\n      sload(0x02)\n        /* \"ETHKIPU/SubastaModulo2.sol\":4491:4532  payable(subastador).transfer(mejorOferta) */\n      swap1\n      dup2\n      iszero\n      mul\n      swap1\n      mload(0x40)\n      0x00\n      mload(0x40)\n      dup1\n      dup4\n      sub\n      dup2\n      dup6\n      dup9\n      dup9\n      call\n      swap4\n      pop\n      pop\n      pop\n      pop\n      iszero\n      dup1\n      iszero\n      tag_126\n      jumpi\n      returndatasize\n      0x00\n      dup1\n      returndatacopy\n      revert(0x00, returndatasize)\n    tag_126:\n      pop\n        /* \"ETHKIPU/SubastaModulo2.sol\":4189:4540  function finalizarSubasta() external soloSubastador subastaActiva {... */\n      jump\t// out\n        /* \"ETHKIPU/SubastaModulo2.sol\":1297:1344  mapping(address => uint256) public ultimaOferta */\n    tag_32:\n      mstore(0x20, 0x0d)\n      dup1\n      0x00\n      mstore\n      keccak256(0x00, 0x40)\n      0x00\n      swap2\n      pop\n      swap1\n      pop\n      sload\n      dup2\n      jump\t// out\n        /* \"ETHKIPU/SubastaModulo2.sol\":126:151  address public subastador */\n    tag_37:\n      0x00\n      dup1\n      sload\n      swap1\n      0x0100\n      exp\n      swap1\n      div\n      0xffffffffffffffffffffffffffffffffffffffff\n      and\n      dup2\n      jump\t// out\n        /* \"ETHKIPU/SubastaModulo2.sol\":2627:3785  function ofertar() external payable subastaHaIniciado subastaActiva {... */\n    tag_41:\n        /* \"ETHKIPU/SubastaModulo2.sol\":1882:1894  inicioTiempo */\n      sload(0x03)\n        /* \"ETHKIPU/SubastaModulo2.sol\":1863:1878  block.timestamp */\n      timestamp\n        /* \"ETHKIPU/SubastaModulo2.sol\":1863:1894  block.timestamp >= inicioTiempo */\n      lt\n      iszero\n        /* \"ETHKIPU/SubastaModulo2.sol\":1855:1928  require(block.timestamp >= inicioTiempo, \"La subasta aun no ha iniciado\") */\n      tag_128\n      jumpi\n      mload(0x40)\n      0x08c379a000000000000000000000000000000000000000000000000000000000\n      dup2\n      mstore\n      0x04\n      add\n      tag_129\n      swap1\n      tag_130\n      jump\t// in\n    tag_129:\n      mload(0x40)\n      dup1\n      swap2\n      sub\n      swap1\n      revert\n    tag_128:\n        /* \"ETHKIPU/SubastaModulo2.sol\":2102:2114  inicioTiempo */\n      sload(0x03)\n        /* \"ETHKIPU/SubastaModulo2.sol\":2083:2098  block.timestamp */\n      timestamp\n        /* \"ETHKIPU/SubastaModulo2.sol\":2083:2114  block.timestamp >= inicioTiempo */\n      lt\n      iszero\n        /* \"ETHKIPU/SubastaModulo2.sol\":2083:2145  block.timestamp >= inicioTiempo && block.timestamp < finTiempo */\n      dup1\n      iszero\n      tag_132\n      jumpi\n      pop\n        /* \"ETHKIPU/SubastaModulo2.sol\":2136:2145  finTiempo */\n      sload(0x04)\n        /* \"ETHKIPU/SubastaModulo2.sol\":2118:2133  block.timestamp */\n      timestamp\n        /* \"ETHKIPU/SubastaModulo2.sol\":2118:2145  block.timestamp < finTiempo */\n      lt\n        /* \"ETHKIPU/SubastaModulo2.sol\":2083:2145  block.timestamp >= inicioTiempo && block.timestamp < finTiempo */\n    tag_132:\n        /* \"ETHKIPU/SubastaModulo2.sol\":2075:2175  require(block.timestamp >= inicioTiempo && block.timestamp < finTiempo, \"La subasta no esta activa\") */\n      tag_133\n      jumpi\n      mload(0x40)\n      0x08c379a000000000000000000000000000000000000000000000000000000000\n      dup2\n      mstore\n      0x04\n      add\n      tag_134\n      swap1\n      tag_119\n      jump\t// in\n    tag_134:\n      mload(0x40)\n      dup1\n      swap2\n      sub\n      swap1\n      revert\n    tag_133:\n        /* \"ETHKIPU/SubastaModulo2.sol\":2706:2721  uint256 _oferta */\n      0x00\n        /* \"ETHKIPU/SubastaModulo2.sol\":2724:2733  msg.value */\n      callvalue\n        /* \"ETHKIPU/SubastaModulo2.sol\":2706:2733  uint256 _oferta = msg.value */\n      swap1\n      pop\n        /* \"ETHKIPU/SubastaModulo2.sol\":2745:2763  address _ofertante */\n      0x00\n        /* \"ETHKIPU/SubastaModulo2.sol\":2766:2776  msg.sender */\n      caller\n        /* \"ETHKIPU/SubastaModulo2.sol\":2745:2776  address _ofertante = msg.sender */\n      swap1\n      pop\n        /* \"ETHKIPU/SubastaModulo2.sol\":2806:2818  ofertaMinima */\n      sload(0x05)\n        /* \"ETHKIPU/SubastaModulo2.sol\":2795:2802  _oferta */\n      dup3\n        /* \"ETHKIPU/SubastaModulo2.sol\":2795:2818  _oferta >= ofertaMinima */\n      lt\n      iszero\n        /* \"ETHKIPU/SubastaModulo2.sol\":2787:2873  require(_oferta >= ofertaMinima, \"La oferta debe ser al menos el minimo de 0.005 ETH\") */\n      tag_136\n      jumpi\n      mload(0x40)\n      0x08c379a000000000000000000000000000000000000000000000000000000000\n      dup2\n      mstore\n      0x04\n      add\n      tag_137\n      swap1\n      tag_138\n      jump\t// in\n    tag_137:\n      mload(0x40)\n      dup1\n      swap2\n      sub\n      swap1\n      revert\n    tag_136:\n        /* \"ETHKIPU/SubastaModulo2.sol\":2961:2964  100 */\n      0x64\n        /* \"ETHKIPU/SubastaModulo2.sol\":2932:2958  porcentajeIncrementoMinimo */\n      sload(0x08)\n        /* \"ETHKIPU/SubastaModulo2.sol\":2918:2929  mejorOferta */\n      sload(0x02)\n        /* \"ETHKIPU/SubastaModulo2.sol\":2918:2958  mejorOferta * porcentajeIncrementoMinimo */\n      tag_139\n      swap2\n      swap1\n      tag_140\n      jump\t// in\n    tag_139:\n        /* \"ETHKIPU/SubastaModulo2.sol\":2918:2964  mejorOferta * porcentajeIncrementoMinimo / 100 */\n      tag_141\n      swap2\n      swap1\n      tag_142\n      jump\t// in\n    tag_141:\n        /* \"ETHKIPU/SubastaModulo2.sol\":2903:2914  mejorOferta */\n      sload(0x02)\n        /* \"ETHKIPU/SubastaModulo2.sol\":2903:2965  mejorOferta + (mejorOferta * porcentajeIncrementoMinimo / 100) */\n      tag_143\n      swap2\n      swap1\n      tag_144\n      jump\t// in\n    tag_143:\n        /* \"ETHKIPU/SubastaModulo2.sol\":2892:2899  _oferta */\n      dup3\n        /* \"ETHKIPU/SubastaModulo2.sol\":2892:2965  _oferta >= mejorOferta + (mejorOferta * porcentajeIncrementoMinimo / 100) */\n      lt\n      iszero\n        /* \"ETHKIPU/SubastaModulo2.sol\":2884:3036  require(_oferta >= mejorOferta + (mejorOferta * porcentajeIncrementoMinimo / 100), \"La oferta debe ser al menos un 5% mayor que la mejor oferta actual\") */\n      tag_145\n      jumpi\n      mload(0x40)\n      0x08c379a000000000000000000000000000000000000000000000000000000000\n      dup2\n      mstore\n      0x04\n      add\n      tag_146\n      swap1\n      tag_147\n      jump\t// in\n    tag_146:\n      mload(0x40)\n      dup1\n      swap2\n      sub\n      swap1\n      revert\n    tag_145:\n        /* \"ETHKIPU/SubastaModulo2.sol\":3171:3172  0 */\n      0x00\n        /* \"ETHKIPU/SubastaModulo2.sol\":3145:3173  mejorOfertante != address(0) */\n      0xffffffffffffffffffffffffffffffffffffffff\n      and\n        /* \"ETHKIPU/SubastaModulo2.sol\":3145:3159  mejorOfertante */\n      0x01\n      0x00\n      swap1\n      sload\n      swap1\n      0x0100\n      exp\n      swap1\n      div\n      0xffffffffffffffffffffffffffffffffffffffff\n      and\n        /* \"ETHKIPU/SubastaModulo2.sol\":3145:3173  mejorOfertante != address(0) */\n      0xffffffffffffffffffffffffffffffffffffffff\n      and\n      eq\n        /* \"ETHKIPU/SubastaModulo2.sol\":3141:3242  if (mejorOfertante != address(0)) {... */\n      tag_148\n      jumpi\n        /* \"ETHKIPU/SubastaModulo2.sol\":3219:3230  mejorOferta */\n      sload(0x02)\n        /* \"ETHKIPU/SubastaModulo2.sol\":3190:3199  depositos */\n      0x0c\n        /* \"ETHKIPU/SubastaModulo2.sol\":3190:3215  depositos[mejorOfertante] */\n      0x00\n        /* \"ETHKIPU/SubastaModulo2.sol\":3200:3214  mejorOfertante */\n      0x01\n      0x00\n      swap1\n      sload\n      swap1\n      0x0100\n      exp\n      swap1\n      div\n      0xffffffffffffffffffffffffffffffffffffffff\n      and\n        /* \"ETHKIPU/SubastaModulo2.sol\":3190:3215  depositos[mejorOfertante] */\n      0xffffffffffffffffffffffffffffffffffffffff\n      and\n      0xffffffffffffffffffffffffffffffffffffffff\n      and\n      dup2\n      mstore\n      0x20\n      add\n      swap1\n      dup2\n      mstore\n      0x20\n      add\n      0x00\n      keccak256\n      0x00\n        /* \"ETHKIPU/SubastaModulo2.sol\":3190:3230  depositos[mejorOfertante] += mejorOferta */\n      dup3\n      dup3\n      sload\n      tag_149\n      swap2\n      swap1\n      tag_144\n      jump\t// in\n    tag_149:\n      swap3\n      pop\n      pop\n      dup2\n      swap1\n      sstore\n      pop\n        /* \"ETHKIPU/SubastaModulo2.sol\":3141:3242  if (mejorOfertante != address(0)) {... */\n    tag_148:\n        /* \"ETHKIPU/SubastaModulo2.sol\":3319:3329  _ofertante */\n      dup1\n        /* \"ETHKIPU/SubastaModulo2.sol\":3302:3316  mejorOfertante */\n      0x01\n      0x00\n        /* \"ETHKIPU/SubastaModulo2.sol\":3302:3329  mejorOfertante = _ofertante */\n      0x0100\n      exp\n      dup2\n      sload\n      dup2\n      0xffffffffffffffffffffffffffffffffffffffff\n      mul\n      not\n      and\n      swap1\n      dup4\n      0xffffffffffffffffffffffffffffffffffffffff\n      and\n      mul\n      or\n      swap1\n      sstore\n      pop\n        /* \"ETHKIPU/SubastaModulo2.sol\":3354:3361  _oferta */\n      dup2\n        /* \"ETHKIPU/SubastaModulo2.sol\":3340:3351  mejorOferta */\n      0x02\n        /* \"ETHKIPU/SubastaModulo2.sol\":3340:3361  mejorOferta = _oferta */\n      dup2\n      swap1\n      sstore\n      pop\n        /* \"ETHKIPU/SubastaModulo2.sol\":3372:3379  ofertas */\n      0x0b\n        /* \"ETHKIPU/SubastaModulo2.sol\":3385:3412  Oferta(_ofertante, _oferta) */\n      mload(0x40)\n      dup1\n      0x40\n      add\n      0x40\n      mstore\n      dup1\n        /* \"ETHKIPU/SubastaModulo2.sol\":3392:3402  _ofertante */\n      dup4\n        /* \"ETHKIPU/SubastaModulo2.sol\":3385:3412  Oferta(_ofertante, _oferta) */\n      0xffffffffffffffffffffffffffffffffffffffff\n      and\n      dup2\n      mstore\n      0x20\n      add\n        /* \"ETHKIPU/SubastaModulo2.sol\":3404:3411  _oferta */\n      dup5\n        /* \"ETHKIPU/SubastaModulo2.sol\":3385:3412  Oferta(_ofertante, _oferta) */\n      dup2\n      mstore\n      pop\n        /* \"ETHKIPU/SubastaModulo2.sol\":3372:3413  ofertas.push(Oferta(_ofertante, _oferta)) */\n      swap1\n      dup1\n      0x01\n      dup2\n      sload\n      add\n      dup1\n      dup3\n      sstore\n      dup1\n      swap2\n      pop\n      pop\n      0x01\n      swap1\n      sub\n      swap1\n      0x00\n      mstore\n      keccak256(0x00, 0x20)\n      swap1\n      0x02\n      mul\n      add\n      0x00\n      swap1\n      swap2\n      swap1\n      swap2\n      swap1\n      swap2\n      pop\n      0x00\n      dup3\n      add\n      mload\n      dup2\n      0x00\n      add\n      exp(0x0100, 0x00)\n      dup2\n      sload\n      dup2\n      0xffffffffffffffffffffffffffffffffffffffff\n      mul\n      not\n      and\n      swap1\n      dup4\n      0xffffffffffffffffffffffffffffffffffffffff\n      and\n      mul\n      or\n      swap1\n      sstore\n      pop\n      0x20\n      dup3\n      add\n      mload\n      dup2\n      0x01\n      add\n      sstore\n      pop\n      pop\n        /* \"ETHKIPU/SubastaModulo2.sol\":3451:3458  _oferta */\n      dup2\n        /* \"ETHKIPU/SubastaModulo2.sol\":3426:3435  depositos */\n      0x0c\n        /* \"ETHKIPU/SubastaModulo2.sol\":3426:3447  depositos[_ofertante] */\n      0x00\n        /* \"ETHKIPU/SubastaModulo2.sol\":3436:3446  _ofertante */\n      dup4\n        /* \"ETHKIPU/SubastaModulo2.sol\":3426:3447  depositos[_ofertante] */\n      0xffffffffffffffffffffffffffffffffffffffff\n      and\n      0xffffffffffffffffffffffffffffffffffffffff\n      and\n      dup2\n      mstore\n      0x20\n      add\n      swap1\n      dup2\n      mstore\n      0x20\n      add\n      0x00\n      keccak256\n      0x00\n        /* \"ETHKIPU/SubastaModulo2.sol\":3426:3458  depositos[_ofertante] += _oferta */\n      dup3\n      dup3\n      sload\n      tag_151\n      swap2\n      swap1\n      tag_144\n      jump\t// in\n    tag_151:\n      swap3\n      pop\n      pop\n      dup2\n      swap1\n      sstore\n      pop\n        /* \"ETHKIPU/SubastaModulo2.sol\":3496:3503  _oferta */\n      dup2\n        /* \"ETHKIPU/SubastaModulo2.sol\":3469:3481  ultimaOferta */\n      0x0d\n        /* \"ETHKIPU/SubastaModulo2.sol\":3469:3493  ultimaOferta[_ofertante] */\n      0x00\n        /* \"ETHKIPU/SubastaModulo2.sol\":3482:3492  _ofertante */\n      dup4\n        /* \"ETHKIPU/SubastaModulo2.sol\":3469:3493  ultimaOferta[_ofertante] */\n      0xffffffffffffffffffffffffffffffffffffffff\n      and\n      0xffffffffffffffffffffffffffffffffffffffff\n      and\n      dup2\n      mstore\n      0x20\n      add\n      swap1\n      dup2\n      mstore\n      0x20\n      add\n      0x00\n      keccak256\n        /* \"ETHKIPU/SubastaModulo2.sol\":3469:3503  ultimaOferta[_ofertante] = _oferta */\n      dup2\n      swap1\n      sstore\n      pop\n        /* \"ETHKIPU/SubastaModulo2.sol\":3565:3597  NuevaOferta(_ofertante, _oferta) */\n      0x155d469211f46e4d9ae974606f0878f9aacc6198ba30a1e6b9c8cf5627352fb5\n        /* \"ETHKIPU/SubastaModulo2.sol\":3577:3587  _ofertante */\n      dup2\n        /* \"ETHKIPU/SubastaModulo2.sol\":3589:3596  _oferta */\n      dup4\n        /* \"ETHKIPU/SubastaModulo2.sol\":3565:3597  NuevaOferta(_ofertante, _oferta) */\n      mload(0x40)\n      tag_152\n      swap3\n      swap2\n      swap1\n      tag_51\n      jump\t// in\n    tag_152:\n      mload(0x40)\n      dup1\n      swap2\n      sub\n      swap1\n      log1\n        /* \"ETHKIPU/SubastaModulo2.sol\":3706:3721  previofinTiempo */\n      sload(0x07)\n        /* \"ETHKIPU/SubastaModulo2.sol\":3694:3703  finTiempo */\n      sload(0x04)\n        /* \"ETHKIPU/SubastaModulo2.sol\":3694:3721  finTiempo - previofinTiempo */\n      tag_153\n      swap2\n      swap1\n      tag_154\n      jump\t// in\n    tag_153:\n        /* \"ETHKIPU/SubastaModulo2.sol\":3676:3691  block.timestamp */\n      timestamp\n        /* \"ETHKIPU/SubastaModulo2.sol\":3676:3721  block.timestamp > finTiempo - previofinTiempo */\n      gt\n        /* \"ETHKIPU/SubastaModulo2.sol\":3672:3778  if (block.timestamp > finTiempo - previofinTiempo) {... */\n      iszero\n      tag_155\n      jumpi\n        /* \"ETHKIPU/SubastaModulo2.sol\":3751:3766  extensionTiempo */\n      sload(0x06)\n        /* \"ETHKIPU/SubastaModulo2.sol\":3738:3747  finTiempo */\n      0x04\n      0x00\n        /* \"ETHKIPU/SubastaModulo2.sol\":3738:3766  finTiempo += extensionTiempo */\n      dup3\n      dup3\n      sload\n      tag_156\n      swap2\n      swap1\n      tag_144\n      jump\t// in\n    tag_156:\n      swap3\n      pop\n      pop\n      dup2\n      swap1\n      sstore\n      pop\n        /* \"ETHKIPU/SubastaModulo2.sol\":3672:3778  if (block.timestamp > finTiempo - previofinTiempo) {... */\n    tag_155:\n        /* \"ETHKIPU/SubastaModulo2.sol\":2695:3785  {... */\n      pop\n      pop\n        /* \"ETHKIPU/SubastaModulo2.sol\":2627:3785  function ofertar() external payable subastaHaIniciado subastaActiva {... */\n      jump\t// out\n        /* \"ETHKIPU/SubastaModulo2.sol\":4652:5118  function devolverDepositos() external subastaFinalizada {... */\n    tag_44:\n        /* \"ETHKIPU/SubastaModulo2.sol\":2354:2364  finalizada */\n      0x0a\n      0x00\n      swap1\n      sload\n      swap1\n      0x0100\n      exp\n      swap1\n      div\n      0xff\n      and\n        /* \"ETHKIPU/SubastaModulo2.sol\":2346:2400  require(finalizada, \"La subasta aun no ha finalizado\") */\n      tag_158\n      jumpi\n      mload(0x40)\n      0x08c379a000000000000000000000000000000000000000000000000000000000\n      dup2\n      mstore\n      0x04\n      add\n      tag_159\n      swap1\n      tag_160\n      jump\t// in\n    tag_159:\n      mload(0x40)\n      dup1\n      swap2\n      sub\n      swap1\n      revert\n    tag_158:\n        /* \"ETHKIPU/SubastaModulo2.sol\":4719:4734  address _sender */\n      0x00\n        /* \"ETHKIPU/SubastaModulo2.sol\":4737:4747  msg.sender */\n      caller\n        /* \"ETHKIPU/SubastaModulo2.sol\":4719:4747  address _sender = msg.sender */\n      swap1\n      pop\n        /* \"ETHKIPU/SubastaModulo2.sol\":4758:4774  uint256 deposito */\n      0x00\n        /* \"ETHKIPU/SubastaModulo2.sol\":4777:4786  depositos */\n      0x0c\n        /* \"ETHKIPU/SubastaModulo2.sol\":4777:4795  depositos[_sender] */\n      0x00\n        /* \"ETHKIPU/SubastaModulo2.sol\":4787:4794  _sender */\n      dup4\n        /* \"ETHKIPU/SubastaModulo2.sol\":4777:4795  depositos[_sender] */\n      0xffffffffffffffffffffffffffffffffffffffff\n      and\n      0xffffffffffffffffffffffffffffffffffffffff\n      and\n      dup2\n      mstore\n      0x20\n      add\n      swap1\n      dup2\n      mstore\n      0x20\n      add\n      0x00\n      keccak256\n      sload\n        /* \"ETHKIPU/SubastaModulo2.sol\":4758:4795  uint256 deposito = depositos[_sender] */\n      swap1\n      pop\n        /* \"ETHKIPU/SubastaModulo2.sol\":4825:4826  0 */\n      0x00\n        /* \"ETHKIPU/SubastaModulo2.sol\":4814:4822  deposito */\n      dup2\n        /* \"ETHKIPU/SubastaModulo2.sol\":4814:4826  deposito > 0 */\n      gt\n        /* \"ETHKIPU/SubastaModulo2.sol\":4806:4863  require(deposito > 0, \"No tienes deposito para reclamar\") */\n      tag_162\n      jumpi\n      mload(0x40)\n      0x08c379a000000000000000000000000000000000000000000000000000000000\n      dup2\n      mstore\n      0x04\n      add\n      tag_163\n      swap1\n      tag_164\n      jump\t// in\n    tag_163:\n      mload(0x40)\n      dup1\n      swap2\n      sub\n      swap1\n      revert\n    tag_162:\n        /* \"ETHKIPU/SubastaModulo2.sol\":4884:4901  uint256 reembolso */\n      0x00\n        /* \"ETHKIPU/SubastaModulo2.sol\":4944:4947  100 */\n      0x64\n        /* \"ETHKIPU/SubastaModulo2.sol\":4922:4940  porcentajeComision */\n      sload(0x09)\n        /* \"ETHKIPU/SubastaModulo2.sol\":4916:4919  100 */\n      0x64\n        /* \"ETHKIPU/SubastaModulo2.sol\":4916:4940  100 - porcentajeComision */\n      tag_165\n      swap2\n      swap1\n      tag_154\n      jump\t// in\n    tag_165:\n        /* \"ETHKIPU/SubastaModulo2.sol\":4904:4912  deposito */\n      dup4\n        /* \"ETHKIPU/SubastaModulo2.sol\":4904:4941  deposito * (100 - porcentajeComision) */\n      tag_166\n      swap2\n      swap1\n      tag_140\n      jump\t// in\n    tag_166:\n        /* \"ETHKIPU/SubastaModulo2.sol\":4904:4947  deposito * (100 - porcentajeComision) / 100 */\n      tag_167\n      swap2\n      swap1\n      tag_142\n      jump\t// in\n    tag_167:\n        /* \"ETHKIPU/SubastaModulo2.sol\":4884:4947  uint256 reembolso = deposito * (100 - porcentajeComision) / 100 */\n      swap1\n      pop\n        /* \"ETHKIPU/SubastaModulo2.sol\":5006:5013  _sender */\n      dup3\n        /* \"ETHKIPU/SubastaModulo2.sol\":4998:5023  payable(_sender).transfer */\n      0xffffffffffffffffffffffffffffffffffffffff\n      and\n        /* \"ETHKIPU/SubastaModulo2.sol\":4998:5034  payable(_sender).transfer(reembolso) */\n      0x08fc\n        /* \"ETHKIPU/SubastaModulo2.sol\":5024:5033  reembolso */\n      dup3\n        /* \"ETHKIPU/SubastaModulo2.sol\":4998:5034  payable(_sender).transfer(reembolso) */\n      swap1\n      dup2\n      iszero\n      mul\n      swap1\n      mload(0x40)\n      0x00\n      mload(0x40)\n      dup1\n      dup4\n      sub\n      dup2\n      dup6\n      dup9\n      dup9\n      call\n      swap4\n      pop\n      pop\n      pop\n      pop\n      iszero\n      dup1\n      iszero\n      tag_169\n      jumpi\n      returndatasize\n      0x00\n      dup1\n      returndatacopy\n      revert(0x00, returndatasize)\n    tag_169:\n      pop\n        /* \"ETHKIPU/SubastaModulo2.sol\":5066:5067  0 */\n      0x00\n        /* \"ETHKIPU/SubastaModulo2.sol\":5045:5054  depositos */\n      0x0c\n        /* \"ETHKIPU/SubastaModulo2.sol\":5045:5063  depositos[_sender] */\n      0x00\n        /* \"ETHKIPU/SubastaModulo2.sol\":5055:5062  _sender */\n      dup6\n        /* \"ETHKIPU/SubastaModulo2.sol\":5045:5063  depositos[_sender] */\n      0xffffffffffffffffffffffffffffffffffffffff\n      and\n      0xffffffffffffffffffffffffffffffffffffffff\n      and\n      dup2\n      mstore\n      0x20\n      add\n      swap1\n      dup2\n      mstore\n      0x20\n      add\n      0x00\n      keccak256\n        /* \"ETHKIPU/SubastaModulo2.sol\":5045:5067  depositos[_sender] = 0 */\n      dup2\n      swap1\n      sstore\n      pop\n        /* \"ETHKIPU/SubastaModulo2.sol\":4708:5118  {... */\n      pop\n      pop\n      pop\n        /* \"ETHKIPU/SubastaModulo2.sol\":4652:5118  function devolverDepositos() external subastaFinalizada {... */\n      jump\t// out\n        /* \"ETHKIPU/SubastaModulo2.sol\":1109:1132  Oferta[] public ofertas */\n    tag_49:\n      0x0b\n      dup2\n      dup2\n      sload\n      dup2\n      lt\n      tag_170\n      jumpi\n      0x00\n      dup1\n      revert\n    tag_170:\n      swap1\n      0x00\n      mstore\n      keccak256(0x00, 0x20)\n      swap1\n      0x02\n      mul\n      add\n      0x00\n      swap2\n      pop\n      swap1\n      pop\n      dup1\n      0x00\n      add\n      0x00\n      swap1\n      sload\n      swap1\n      0x0100\n      exp\n      swap1\n      div\n      0xffffffffffffffffffffffffffffffffffffffff\n      and\n      swap1\n      dup1\n      0x01\n      add\n      sload\n      swap1\n      pop\n      dup3\n      jump\t// out\n        /* \"ETHKIPU/SubastaModulo2.sol\":401:461  uint256 public finTiempo = inicioTiempo + (7 * 24 * 60 * 60) */\n    tag_54:\n      sload(0x04)\n      dup2\n      jump\t// out\n        /* \"ETHKIPU/SubastaModulo2.sol\":1180:1224  mapping(address => uint256) public depositos */\n    tag_59:\n      mstore(0x20, 0x0c)\n      dup1\n      0x00\n      mstore\n      keccak256(0x00, 0x40)\n      0x00\n      swap2\n      pop\n      swap1\n      pop\n      sload\n      dup2\n      jump\t// out\n        /* \"ETHKIPU/SubastaModulo2.sol\":5203:5717  function reembolsoParcial(uint256 monto) external subastaActiva {... */\n    tag_64:\n        /* \"ETHKIPU/SubastaModulo2.sol\":2102:2114  inicioTiempo */\n      sload(0x03)\n        /* \"ETHKIPU/SubastaModulo2.sol\":2083:2098  block.timestamp */\n      timestamp\n        /* \"ETHKIPU/SubastaModulo2.sol\":2083:2114  block.timestamp >= inicioTiempo */\n      lt\n      iszero\n        /* \"ETHKIPU/SubastaModulo2.sol\":2083:2145  block.timestamp >= inicioTiempo && block.timestamp < finTiempo */\n      dup1\n      iszero\n      tag_173\n      jumpi\n      pop\n        /* \"ETHKIPU/SubastaModulo2.sol\":2136:2145  finTiempo */\n      sload(0x04)\n        /* \"ETHKIPU/SubastaModulo2.sol\":2118:2133  block.timestamp */\n      timestamp\n        /* \"ETHKIPU/SubastaModulo2.sol\":2118:2145  block.timestamp < finTiempo */\n      lt\n        /* \"ETHKIPU/SubastaModulo2.sol\":2083:2145  block.timestamp >= inicioTiempo && block.timestamp < finTiempo */\n    tag_173:\n        /* \"ETHKIPU/SubastaModulo2.sol\":2075:2175  require(block.timestamp >= inicioTiempo && block.timestamp < finTiempo, \"La subasta no esta activa\") */\n      tag_174\n      jumpi\n      mload(0x40)\n      0x08c379a000000000000000000000000000000000000000000000000000000000\n      dup2\n      mstore\n      0x04\n      add\n      tag_175\n      swap1\n      tag_119\n      jump\t// in\n    tag_175:\n      mload(0x40)\n      dup1\n      swap2\n      sub\n      swap1\n      revert\n    tag_174:\n        /* \"ETHKIPU/SubastaModulo2.sol\":5278:5293  address _sender */\n      0x00\n        /* \"ETHKIPU/SubastaModulo2.sol\":5296:5306  msg.sender */\n      caller\n        /* \"ETHKIPU/SubastaModulo2.sol\":5278:5306  address _sender = msg.sender */\n      swap1\n      pop\n        /* \"ETHKIPU/SubastaModulo2.sol\":5317:5343  uint256 depositoDisponible */\n      0x00\n        /* \"ETHKIPU/SubastaModulo2.sol\":5367:5379  ultimaOferta */\n      0x0d\n        /* \"ETHKIPU/SubastaModulo2.sol\":5367:5388  ultimaOferta[_sender] */\n      0x00\n        /* \"ETHKIPU/SubastaModulo2.sol\":5380:5387  _sender */\n      dup4\n        /* \"ETHKIPU/SubastaModulo2.sol\":5367:5388  ultimaOferta[_sender] */\n      0xffffffffffffffffffffffffffffffffffffffff\n      and\n      0xffffffffffffffffffffffffffffffffffffffff\n      and\n      dup2\n      mstore\n      0x20\n      add\n      swap1\n      dup2\n      mstore\n      0x20\n      add\n      0x00\n      keccak256\n      sload\n        /* \"ETHKIPU/SubastaModulo2.sol\":5346:5355  depositos */\n      0x0c\n        /* \"ETHKIPU/SubastaModulo2.sol\":5346:5364  depositos[_sender] */\n      0x00\n        /* \"ETHKIPU/SubastaModulo2.sol\":5356:5363  _sender */\n      dup5\n        /* \"ETHKIPU/SubastaModulo2.sol\":5346:5364  depositos[_sender] */\n      0xffffffffffffffffffffffffffffffffffffffff\n      and\n      0xffffffffffffffffffffffffffffffffffffffff\n      and\n      dup2\n      mstore\n      0x20\n      add\n      swap1\n      dup2\n      mstore\n      0x20\n      add\n      0x00\n      keccak256\n      sload\n        /* \"ETHKIPU/SubastaModulo2.sol\":5346:5388  depositos[_sender] - ultimaOferta[_sender] */\n      tag_177\n      swap2\n      swap1\n      tag_154\n      jump\t// in\n    tag_177:\n        /* \"ETHKIPU/SubastaModulo2.sol\":5317:5388  uint256 depositoDisponible = depositos[_sender] - ultimaOferta[_sender] */\n      swap1\n      pop\n        /* \"ETHKIPU/SubastaModulo2.sol\":5489:5507  depositoDisponible */\n      dup1\n        /* \"ETHKIPU/SubastaModulo2.sol\":5480:5485  monto */\n      dup4\n        /* \"ETHKIPU/SubastaModulo2.sol\":5480:5507  monto <= depositoDisponible */\n      gt\n      iszero\n        /* \"ETHKIPU/SubastaModulo2.sol\":5472:5577  require(monto <= depositoDisponible, \"Monto mayor al deposito disponible por encima de tu ultima oferta\") */\n      tag_178\n      jumpi\n      mload(0x40)\n      0x08c379a000000000000000000000000000000000000000000000000000000000\n      dup2\n      mstore\n      0x04\n      add\n      tag_179\n      swap1\n      tag_180\n      jump\t// in\n    tag_179:\n      mload(0x40)\n      dup1\n      swap2\n      sub\n      swap1\n      revert\n    tag_178:\n        /* \"ETHKIPU/SubastaModulo2.sol\":5612:5617  monto */\n      dup3\n        /* \"ETHKIPU/SubastaModulo2.sol\":5590:5599  depositos */\n      0x0c\n        /* \"ETHKIPU/SubastaModulo2.sol\":5590:5608  depositos[_sender] */\n      0x00\n        /* \"ETHKIPU/SubastaModulo2.sol\":5600:5607  _sender */\n      dup5\n        /* \"ETHKIPU/SubastaModulo2.sol\":5590:5608  depositos[_sender] */\n      0xffffffffffffffffffffffffffffffffffffffff\n      and\n      0xffffffffffffffffffffffffffffffffffffffff\n      and\n      dup2\n      mstore\n      0x20\n      add\n      swap1\n      dup2\n      mstore\n      0x20\n      add\n      0x00\n      keccak256\n      0x00\n        /* \"ETHKIPU/SubastaModulo2.sol\":5590:5617  depositos[_sender] -= monto */\n      dup3\n      dup3\n      sload\n      tag_181\n      swap2\n      swap1\n      tag_154\n      jump\t// in\n    tag_181:\n      swap3\n      pop\n      pop\n      dup2\n      swap1\n      sstore\n      pop\n        /* \"ETHKIPU/SubastaModulo2.sol\":5685:5692  _sender */\n      dup2\n        /* \"ETHKIPU/SubastaModulo2.sol\":5677:5702  payable(_sender).transfer */\n      0xffffffffffffffffffffffffffffffffffffffff\n      and\n        /* \"ETHKIPU/SubastaModulo2.sol\":5677:5709  payable(_sender).transfer(monto) */\n      0x08fc\n        /* \"ETHKIPU/SubastaModulo2.sol\":5703:5708  monto */\n      dup5\n        /* \"ETHKIPU/SubastaModulo2.sol\":5677:5709  payable(_sender).transfer(monto) */\n      swap1\n      dup2\n      iszero\n      mul\n      swap1\n      mload(0x40)\n      0x00\n      mload(0x40)\n      dup1\n      dup4\n      sub\n      dup2\n      dup6\n      dup9\n      dup9\n      call\n      swap4\n      pop\n      pop\n      pop\n      pop\n      iszero\n      dup1\n      iszero\n      tag_183\n      jumpi\n      returndatasize\n      0x00\n      dup1\n      returndatacopy\n      revert(0x00, returndatasize)\n    tag_183:\n      pop\n        /* \"ETHKIPU/SubastaModulo2.sol\":5267:5717  {... */\n      pop\n      pop\n        /* \"ETHKIPU/SubastaModulo2.sol\":5203:5717  function reembolsoParcial(uint256 monto) external subastaActiva {... */\n      pop\n      jump\t// out\n        /* \"ETHKIPU/SubastaModulo2.sol\":829:874  uint256 public porcentajeIncrementoMinimo = 5 */\n    tag_67:\n      sload(0x08)\n      dup2\n      jump\t// out\n        /* \"ETHKIPU/SubastaModulo2.sol\":249:289  uint256 public inicioTiempo = 1730894400 */\n    tag_71:\n      sload(0x03)\n      dup2\n      jump\t// out\n        /* \"ETHKIPU/SubastaModulo2.sol\":3817:3957  function mostrarGanador() external view subastaFinalizada returns (address, uint256) {... */\n    tag_75:\n        /* \"ETHKIPU/SubastaModulo2.sol\":3884:3891  address */\n      0x00\n        /* \"ETHKIPU/SubastaModulo2.sol\":3893:3900  uint256 */\n      dup1\n        /* \"ETHKIPU/SubastaModulo2.sol\":2354:2364  finalizada */\n      0x0a\n      0x00\n      swap1\n      sload\n      swap1\n      0x0100\n      exp\n      swap1\n      div\n      0xff\n      and\n        /* \"ETHKIPU/SubastaModulo2.sol\":2346:2400  require(finalizada, \"La subasta aun no ha finalizado\") */\n      tag_185\n      jumpi\n      mload(0x40)\n      0x08c379a000000000000000000000000000000000000000000000000000000000\n      dup2\n      mstore\n      0x04\n      add\n      tag_186\n      swap1\n      tag_160\n      jump\t// in\n    tag_186:\n      mload(0x40)\n      dup1\n      swap2\n      sub\n      swap1\n      revert\n    tag_185:\n        /* \"ETHKIPU/SubastaModulo2.sol\":3921:3935  mejorOfertante */\n      0x01\n      0x00\n      swap1\n      sload\n      swap1\n      0x0100\n      exp\n      swap1\n      div\n      0xffffffffffffffffffffffffffffffffffffffff\n      and\n        /* \"ETHKIPU/SubastaModulo2.sol\":3937:3948  mejorOferta */\n      sload(0x02)\n        /* \"ETHKIPU/SubastaModulo2.sol\":3913:3949  return (mejorOfertante, mejorOferta) */\n      swap2\n      pop\n      swap2\n      pop\n        /* \"ETHKIPU/SubastaModulo2.sol\":3817:3957  function mostrarGanador() external view subastaFinalizada returns (address, uint256) {... */\n      swap1\n      swap2\n      jump\t// out\n        /* \"ETHKIPU/SubastaModulo2.sol\":216:242  uint256 public mejorOferta */\n    tag_79:\n      sload(0x02)\n      dup2\n      jump\t// out\n        /* \"ETHKIPU/SubastaModulo2.sol\":719:759  uint256 public previofinTiempo = 10 * 60 */\n    tag_83:\n      sload(0x07)\n      dup2\n      jump\t// out\n        /* \"ETHKIPU/SubastaModulo2.sol\":3999:4155  function mostrarOfertas() external view returns (Oferta[] memory) {... */\n    tag_87:\n        /* \"ETHKIPU/SubastaModulo2.sol\":4048:4063  Oferta[] memory */\n      0x60\n        /* \"ETHKIPU/SubastaModulo2.sol\":4083:4090  ofertas */\n      0x0b\n        /* \"ETHKIPU/SubastaModulo2.sol\":4076:4090  return ofertas */\n      dup1\n      sload\n      dup1\n      0x20\n      mul\n      0x20\n      add\n      mload(0x40)\n      swap1\n      dup2\n      add\n      0x40\n      mstore\n      dup1\n      swap3\n      swap2\n      swap1\n      dup2\n      dup2\n      mstore\n      0x20\n      add\n      0x00\n      swap1\n    tag_189:\n      dup3\n      dup3\n      lt\n      iszero\n      tag_190\n      jumpi\n      dup4\n      dup3\n      swap1\n      0x00\n      mstore\n      keccak256(0x00, 0x20)\n      swap1\n      0x02\n      mul\n      add\n      mload(0x40)\n      dup1\n      0x40\n      add\n      0x40\n      mstore\n      swap1\n      dup2\n      0x00\n      dup3\n      add\n      0x00\n      swap1\n      sload\n      swap1\n      0x0100\n      exp\n      swap1\n      div\n      0xffffffffffffffffffffffffffffffffffffffff\n      and\n      0xffffffffffffffffffffffffffffffffffffffff\n      and\n      0xffffffffffffffffffffffffffffffffffffffff\n      and\n      dup2\n      mstore\n      0x20\n      add\n      0x01\n      dup3\n      add\n      sload\n      dup2\n      mstore\n      pop\n      pop\n      dup2\n      mstore\n      0x20\n      add\n      swap1\n      0x01\n      add\n      swap1\n      jump(tag_189)\n    tag_190:\n      pop\n      pop\n      pop\n      pop\n      swap1\n      pop\n        /* \"ETHKIPU/SubastaModulo2.sol\":3999:4155  function mostrarOfertas() external view returns (Oferta[] memory) {... */\n      swap1\n      jump\t// out\n        /* \"ETHKIPU/SubastaModulo2.sol\":595:636  uint256 public ofertaMinima = 0.005 ether */\n    tag_92:\n      sload(0x05)\n      dup2\n      jump\t// out\n        /* \"ETHKIPU/SubastaModulo2.sol\":643:683  uint256 public extensionTiempo = 10 * 60 */\n    tag_96:\n      sload(0x06)\n      dup2\n      jump\t// out\n        /* \"ETHKIPU/SubastaModulo2.sol\":180:209  address public mejorOfertante */\n    tag_100:\n      0x01\n      0x00\n      swap1\n      sload\n      swap1\n      0x0100\n      exp\n      swap1\n      div\n      0xffffffffffffffffffffffffffffffffffffffff\n      and\n      dup2\n      jump\t// out\n        /* \"ETHKIPU/SubastaModulo2.sol\":881:918  uint256 public porcentajeComision = 2 */\n    tag_104:\n      sload(0x09)\n      dup2\n      jump\t// out\n        /* \"ETHKIPU/SubastaModulo2.sol\":925:955  bool public finalizada = false */\n    tag_108:\n      0x0a\n      0x00\n      swap1\n      sload\n      swap1\n      0x0100\n      exp\n      swap1\n      div\n      0xff\n      and\n      dup2\n      jump\t// out\n        /* \"#utility.yul\":88:205   */\n    tag_193:\n        /* \"#utility.yul\":197:198   */\n      0x00\n        /* \"#utility.yul\":194:195   */\n      dup1\n        /* \"#utility.yul\":187:199   */\n      revert\n        /* \"#utility.yul\":334:460   */\n    tag_195:\n        /* \"#utility.yul\":371:378   */\n      0x00\n        /* \"#utility.yul\":411:453   */\n      0xffffffffffffffffffffffffffffffffffffffff\n        /* \"#utility.yul\":404:409   */\n      dup3\n        /* \"#utility.yul\":400:454   */\n      and\n        /* \"#utility.yul\":389:454   */\n      swap1\n      pop\n        /* \"#utility.yul\":334:460   */\n      swap2\n      swap1\n      pop\n      jump\t// out\n        /* \"#utility.yul\":466:562   */\n    tag_196:\n        /* \"#utility.yul\":503:510   */\n      0x00\n        /* \"#utility.yul\":532:556   */\n      tag_242\n        /* \"#utility.yul\":550:555   */\n      dup3\n        /* \"#utility.yul\":532:556   */\n      tag_195\n      jump\t// in\n    tag_242:\n        /* \"#utility.yul\":521:556   */\n      swap1\n      pop\n        /* \"#utility.yul\":466:562   */\n      swap2\n      swap1\n      pop\n      jump\t// out\n        /* \"#utility.yul\":568:690   */\n    tag_197:\n        /* \"#utility.yul\":641:665   */\n      tag_244\n        /* \"#utility.yul\":659:664   */\n      dup2\n        /* \"#utility.yul\":641:665   */\n      tag_196\n      jump\t// in\n    tag_244:\n        /* \"#utility.yul\":634:639   */\n      dup2\n        /* \"#utility.yul\":631:666   */\n      eq\n        /* \"#utility.yul\":621:684   */\n      tag_245\n      jumpi\n        /* \"#utility.yul\":680:681   */\n      0x00\n        /* \"#utility.yul\":677:678   */\n      dup1\n        /* \"#utility.yul\":670:682   */\n      revert\n        /* \"#utility.yul\":621:684   */\n    tag_245:\n        /* \"#utility.yul\":568:690   */\n      pop\n      jump\t// out\n        /* \"#utility.yul\":696:835   */\n    tag_198:\n        /* \"#utility.yul\":742:747   */\n      0x00\n        /* \"#utility.yul\":780:786   */\n      dup2\n        /* \"#utility.yul\":767:787   */\n      calldataload\n        /* \"#utility.yul\":758:787   */\n      swap1\n      pop\n        /* \"#utility.yul\":796:829   */\n      tag_247\n        /* \"#utility.yul\":823:828   */\n      dup2\n        /* \"#utility.yul\":796:829   */\n      tag_197\n      jump\t// in\n    tag_247:\n        /* \"#utility.yul\":696:835   */\n      swap3\n      swap2\n      pop\n      pop\n      jump\t// out\n        /* \"#utility.yul\":841:1170   */\n    tag_31:\n        /* \"#utility.yul\":900:906   */\n      0x00\n        /* \"#utility.yul\":949:951   */\n      0x20\n        /* \"#utility.yul\":937:946   */\n      dup3\n        /* \"#utility.yul\":928:935   */\n      dup5\n        /* \"#utility.yul\":924:947   */\n      sub\n        /* \"#utility.yul\":920:952   */\n      slt\n        /* \"#utility.yul\":917:1036   */\n      iszero\n      tag_249\n      jumpi\n        /* \"#utility.yul\":955:1034   */\n      tag_250\n      tag_193\n      jump\t// in\n    tag_250:\n        /* \"#utility.yul\":917:1036   */\n    tag_249:\n        /* \"#utility.yul\":1075:1076   */\n      0x00\n        /* \"#utility.yul\":1100:1153   */\n      tag_251\n        /* \"#utility.yul\":1145:1152   */\n      dup5\n        /* \"#utility.yul\":1136:1142   */\n      dup3\n        /* \"#utility.yul\":1125:1134   */\n      dup6\n        /* \"#utility.yul\":1121:1143   */\n      add\n        /* \"#utility.yul\":1100:1153   */\n      tag_198\n      jump\t// in\n    tag_251:\n        /* \"#utility.yul\":1090:1153   */\n      swap2\n      pop\n        /* \"#utility.yul\":1046:1163   */\n      pop\n        /* \"#utility.yul\":841:1170   */\n      swap3\n      swap2\n      pop\n      pop\n      jump\t// out\n        /* \"#utility.yul\":1176:1253   */\n    tag_199:\n        /* \"#utility.yul\":1213:1220   */\n      0x00\n        /* \"#utility.yul\":1242:1247   */\n      dup2\n        /* \"#utility.yul\":1231:1247   */\n      swap1\n      pop\n        /* \"#utility.yul\":1176:1253   */\n      swap2\n      swap1\n      pop\n      jump\t// out\n        /* \"#utility.yul\":1259:1377   */\n    tag_200:\n        /* \"#utility.yul\":1346:1370   */\n      tag_254\n        /* \"#utility.yul\":1364:1369   */\n      dup2\n        /* \"#utility.yul\":1346:1370   */\n      tag_199\n      jump\t// in\n    tag_254:\n        /* \"#utility.yul\":1341:1344   */\n      dup3\n        /* \"#utility.yul\":1334:1371   */\n      mstore\n        /* \"#utility.yul\":1259:1377   */\n      pop\n      pop\n      jump\t// out\n        /* \"#utility.yul\":1383:1605   */\n    tag_34:\n        /* \"#utility.yul\":1476:1480   */\n      0x00\n        /* \"#utility.yul\":1514:1516   */\n      0x20\n        /* \"#utility.yul\":1503:1512   */\n      dup3\n        /* \"#utility.yul\":1499:1517   */\n      add\n        /* \"#utility.yul\":1491:1517   */\n      swap1\n      pop\n        /* \"#utility.yul\":1527:1598   */\n      tag_256\n        /* \"#utility.yul\":1595:1596   */\n      0x00\n        /* \"#utility.yul\":1584:1593   */\n      dup4\n        /* \"#utility.yul\":1580:1597   */\n      add\n        /* \"#utility.yul\":1571:1577   */\n      dup5\n        /* \"#utility.yul\":1527:1598   */\n      tag_200\n      jump\t// in\n    tag_256:\n        /* \"#utility.yul\":1383:1605   */\n      swap3\n      swap2\n      pop\n      pop\n      jump\t// out\n        /* \"#utility.yul\":1611:1729   */\n    tag_201:\n        /* \"#utility.yul\":1698:1722   */\n      tag_258\n        /* \"#utility.yul\":1716:1721   */\n      dup2\n        /* \"#utility.yul\":1698:1722   */\n      tag_196\n      jump\t// in\n    tag_258:\n        /* \"#utility.yul\":1693:1696   */\n      dup3\n        /* \"#utility.yul\":1686:1723   */\n      mstore\n        /* \"#utility.yul\":1611:1729   */\n      pop\n      pop\n      jump\t// out\n        /* \"#utility.yul\":1735:1957   */\n    tag_39:\n        /* \"#utility.yul\":1828:1832   */\n      0x00\n        /* \"#utility.yul\":1866:1868   */\n      0x20\n        /* \"#utility.yul\":1855:1864   */\n      dup3\n        /* \"#utility.yul\":1851:1869   */\n      add\n        /* \"#utility.yul\":1843:1869   */\n      swap1\n      pop\n        /* \"#utility.yul\":1879:1950   */\n      tag_260\n        /* \"#utility.yul\":1947:1948   */\n      0x00\n        /* \"#utility.yul\":1936:1945   */\n      dup4\n        /* \"#utility.yul\":1932:1949   */\n      add\n        /* \"#utility.yul\":1923:1929   */\n      dup5\n        /* \"#utility.yul\":1879:1950   */\n      tag_201\n      jump\t// in\n    tag_260:\n        /* \"#utility.yul\":1735:1957   */\n      swap3\n      swap2\n      pop\n      pop\n      jump\t// out\n        /* \"#utility.yul\":1963:2085   */\n    tag_202:\n        /* \"#utility.yul\":2036:2060   */\n      tag_262\n        /* \"#utility.yul\":2054:2059   */\n      dup2\n        /* \"#utility.yul\":2036:2060   */\n      tag_199\n      jump\t// in\n    tag_262:\n        /* \"#utility.yul\":2029:2034   */\n      dup2\n        /* \"#utility.yul\":2026:2061   */\n      eq\n        /* \"#utility.yul\":2016:2079   */\n      tag_263\n      jumpi\n        /* \"#utility.yul\":2075:2076   */\n      0x00\n        /* \"#utility.yul\":2072:2073   */\n      dup1\n        /* \"#utility.yul\":2065:2077   */\n      revert\n        /* \"#utility.yul\":2016:2079   */\n    tag_263:\n        /* \"#utility.yul\":1963:2085   */\n      pop\n      jump\t// out\n        /* \"#utility.yul\":2091:2230   */\n    tag_203:\n        /* \"#utility.yul\":2137:2142   */\n      0x00\n        /* \"#utility.yul\":2175:2181   */\n      dup2\n        /* \"#utility.yul\":2162:2182   */\n      calldataload\n        /* \"#utility.yul\":2153:2182   */\n      swap1\n      pop\n        /* \"#utility.yul\":2191:2224   */\n      tag_265\n        /* \"#utility.yul\":2218:2223   */\n      dup2\n        /* \"#utility.yul\":2191:2224   */\n      tag_202\n      jump\t// in\n    tag_265:\n        /* \"#utility.yul\":2091:2230   */\n      swap3\n      swap2\n      pop\n      pop\n      jump\t// out\n        /* \"#utility.yul\":2236:2565   */\n    tag_48:\n        /* \"#utility.yul\":2295:2301   */\n      0x00\n        /* \"#utility.yul\":2344:2346   */\n      0x20\n        /* \"#utility.yul\":2332:2341   */\n      dup3\n        /* \"#utility.yul\":2323:2330   */\n      dup5\n        /* \"#utility.yul\":2319:2342   */\n      sub\n        /* \"#utility.yul\":2315:2347   */\n      slt\n        /* \"#utility.yul\":2312:2431   */\n      iszero\n      tag_267\n      jumpi\n        /* \"#utility.yul\":2350:2429   */\n      tag_268\n      tag_193\n      jump\t// in\n    tag_268:\n        /* \"#utility.yul\":2312:2431   */\n    tag_267:\n        /* \"#utility.yul\":2470:2471   */\n      0x00\n        /* \"#utility.yul\":2495:2548   */\n      tag_269\n        /* \"#utility.yul\":2540:2547   */\n      dup5\n        /* \"#utility.yul\":2531:2537   */\n      dup3\n        /* \"#utility.yul\":2520:2529   */\n      dup6\n        /* \"#utility.yul\":2516:2538   */\n      add\n        /* \"#utility.yul\":2495:2548   */\n      tag_203\n      jump\t// in\n    tag_269:\n        /* \"#utility.yul\":2485:2548   */\n      swap2\n      pop\n        /* \"#utility.yul\":2441:2558   */\n      pop\n        /* \"#utility.yul\":2236:2565   */\n      swap3\n      swap2\n      pop\n      pop\n      jump\t// out\n        /* \"#utility.yul\":2571:2903   */\n    tag_51:\n        /* \"#utility.yul\":2692:2696   */\n      0x00\n        /* \"#utility.yul\":2730:2732   */\n      0x40\n        /* \"#utility.yul\":2719:2728   */\n      dup3\n        /* \"#utility.yul\":2715:2733   */\n      add\n        /* \"#utility.yul\":2707:2733   */\n      swap1\n      pop\n        /* \"#utility.yul\":2743:2814   */\n      tag_271\n        /* \"#utility.yul\":2811:2812   */\n      0x00\n        /* \"#utility.yul\":2800:2809   */\n      dup4\n        /* \"#utility.yul\":2796:2813   */\n      add\n        /* \"#utility.yul\":2787:2793   */\n      dup6\n        /* \"#utility.yul\":2743:2814   */\n      tag_201\n      jump\t// in\n    tag_271:\n        /* \"#utility.yul\":2824:2896   */\n      tag_272\n        /* \"#utility.yul\":2892:2894   */\n      0x20\n        /* \"#utility.yul\":2881:2890   */\n      dup4\n        /* \"#utility.yul\":2877:2895   */\n      add\n        /* \"#utility.yul\":2868:2874   */\n      dup5\n        /* \"#utility.yul\":2824:2896   */\n      tag_200\n      jump\t// in\n    tag_272:\n        /* \"#utility.yul\":2571:2903   */\n      swap4\n      swap3\n      pop\n      pop\n      pop\n      jump\t// out\n        /* \"#utility.yul\":2909:3045   */\n    tag_204:\n        /* \"#utility.yul\":2998:3004   */\n      0x00\n        /* \"#utility.yul\":3032:3037   */\n      dup2\n        /* \"#utility.yul\":3026:3038   */\n      mload\n        /* \"#utility.yul\":3016:3038   */\n      swap1\n      pop\n        /* \"#utility.yul\":2909:3045   */\n      swap2\n      swap1\n      pop\n      jump\t// out\n        /* \"#utility.yul\":3051:3257   */\n    tag_205:\n        /* \"#utility.yul\":3172:3183   */\n      0x00\n        /* \"#utility.yul\":3206:3212   */\n      dup3\n        /* \"#utility.yul\":3201:3204   */\n      dup3\n        /* \"#utility.yul\":3194:3213   */\n      mstore\n        /* \"#utility.yul\":3246:3250   */\n      0x20\n        /* \"#utility.yul\":3241:3244   */\n      dup3\n        /* \"#utility.yul\":3237:3251   */\n      add\n        /* \"#utility.yul\":3222:3251   */\n      swap1\n      pop\n        /* \"#utility.yul\":3051:3257   */\n      swap3\n      swap2\n      pop\n      pop\n      jump\t// out\n        /* \"#utility.yul\":3263:3417   */\n    tag_206:\n        /* \"#utility.yul\":3352:3356   */\n      0x00\n        /* \"#utility.yul\":3375:3378   */\n      dup2\n        /* \"#utility.yul\":3367:3378   */\n      swap1\n      pop\n        /* \"#utility.yul\":3405:3409   */\n      0x20\n        /* \"#utility.yul\":3400:3403   */\n      dup3\n        /* \"#utility.yul\":3396:3410   */\n      add\n        /* \"#utility.yul\":3388:3410   */\n      swap1\n      pop\n        /* \"#utility.yul\":3263:3417   */\n      swap2\n      swap1\n      pop\n      jump\t// out\n        /* \"#utility.yul\":3423:3531   */\n    tag_207:\n        /* \"#utility.yul\":3500:3524   */\n      tag_277\n        /* \"#utility.yul\":3518:3523   */\n      dup2\n        /* \"#utility.yul\":3500:3524   */\n      tag_196\n      jump\t// in\n    tag_277:\n        /* \"#utility.yul\":3495:3498   */\n      dup3\n        /* \"#utility.yul\":3488:3525   */\n      mstore\n        /* \"#utility.yul\":3423:3531   */\n      pop\n      pop\n      jump\t// out\n        /* \"#utility.yul\":3537:3645   */\n    tag_208:\n        /* \"#utility.yul\":3614:3638   */\n      tag_279\n        /* \"#utility.yul\":3632:3637   */\n      dup2\n        /* \"#utility.yul\":3614:3638   */\n      tag_199\n      jump\t// in\n    tag_279:\n        /* \"#utility.yul\":3609:3612   */\n      dup3\n        /* \"#utility.yul\":3602:3639   */\n      mstore\n        /* \"#utility.yul\":3537:3645   */\n      pop\n      pop\n      jump\t// out\n        /* \"#utility.yul\":3715:4212   */\n    tag_209:\n        /* \"#utility.yul\":3846:3850   */\n      0x40\n        /* \"#utility.yul\":3841:3844   */\n      dup3\n        /* \"#utility.yul\":3837:3851   */\n      add\n        /* \"#utility.yul\":3938:3942   */\n      0x00\n        /* \"#utility.yul\":3931:3936   */\n      dup3\n        /* \"#utility.yul\":3927:3943   */\n      add\n        /* \"#utility.yul\":3921:3944   */\n      mload\n        /* \"#utility.yul\":3957:4020   */\n      tag_281\n        /* \"#utility.yul\":4014:4018   */\n      0x00\n        /* \"#utility.yul\":4009:4012   */\n      dup6\n        /* \"#utility.yul\":4005:4019   */\n      add\n        /* \"#utility.yul\":3991:4003   */\n      dup3\n        /* \"#utility.yul\":3957:4020   */\n      tag_207\n      jump\t// in\n    tag_281:\n        /* \"#utility.yul\":3861:4030   */\n      pop\n        /* \"#utility.yul\":4113:4117   */\n      0x20\n        /* \"#utility.yul\":4106:4111   */\n      dup3\n        /* \"#utility.yul\":4102:4118   */\n      add\n        /* \"#utility.yul\":4096:4119   */\n      mload\n        /* \"#utility.yul\":4132:4195   */\n      tag_282\n        /* \"#utility.yul\":4189:4193   */\n      0x20\n        /* \"#utility.yul\":4184:4187   */\n      dup6\n        /* \"#utility.yul\":4180:4194   */\n      add\n        /* \"#utility.yul\":4166:4178   */\n      dup3\n        /* \"#utility.yul\":4132:4195   */\n      tag_208\n      jump\t// in\n    tag_282:\n        /* \"#utility.yul\":4040:4205   */\n      pop\n        /* \"#utility.yul\":3815:4212   */\n      pop\n        /* \"#utility.yul\":3715:4212   */\n      pop\n      pop\n      jump\t// out\n        /* \"#utility.yul\":4218:4485   */\n    tag_210:\n        /* \"#utility.yul\":4331:4341   */\n      0x00\n        /* \"#utility.yul\":4352:4442   */\n      tag_284\n        /* \"#utility.yul\":4438:4441   */\n      dup4\n        /* \"#utility.yul\":4430:4436   */\n      dup4\n        /* \"#utility.yul\":4352:4442   */\n      tag_209\n      jump\t// in\n    tag_284:\n        /* \"#utility.yul\":4474:4478   */\n      0x40\n        /* \"#utility.yul\":4469:4472   */\n      dup4\n        /* \"#utility.yul\":4465:4479   */\n      add\n        /* \"#utility.yul\":4451:4479   */\n      swap1\n      pop\n        /* \"#utility.yul\":4218:4485   */\n      swap3\n      swap2\n      pop\n      pop\n      jump\t// out\n        /* \"#utility.yul\":4491:4626   */\n    tag_211:\n        /* \"#utility.yul\":4583:4587   */\n      0x00\n        /* \"#utility.yul\":4615:4619   */\n      0x20\n        /* \"#utility.yul\":4610:4613   */\n      dup3\n        /* \"#utility.yul\":4606:4620   */\n      add\n        /* \"#utility.yul\":4598:4620   */\n      swap1\n      pop\n        /* \"#utility.yul\":4491:4626   */\n      swap2\n      swap1\n      pop\n      jump\t// out\n        /* \"#utility.yul\":4700:5608   */\n    tag_212:\n        /* \"#utility.yul\":4863:4866   */\n      0x00\n        /* \"#utility.yul\":4892:4968   */\n      tag_287\n        /* \"#utility.yul\":4962:4967   */\n      dup3\n        /* \"#utility.yul\":4892:4968   */\n      tag_204\n      jump\t// in\n    tag_287:\n        /* \"#utility.yul\":4984:5092   */\n      tag_288\n        /* \"#utility.yul\":5085:5091   */\n      dup2\n        /* \"#utility.yul\":5080:5083   */\n      dup6\n        /* \"#utility.yul\":4984:5092   */\n      tag_205\n      jump\t// in\n    tag_288:\n        /* \"#utility.yul\":4977:5092   */\n      swap4\n      pop\n        /* \"#utility.yul\":5116:5194   */\n      tag_289\n        /* \"#utility.yul\":5188:5193   */\n      dup4\n        /* \"#utility.yul\":5116:5194   */\n      tag_206\n      jump\t// in\n    tag_289:\n        /* \"#utility.yul\":5217:5224   */\n      dup1\n        /* \"#utility.yul\":5248:5249   */\n      0x00\n        /* \"#utility.yul\":5233:5583   */\n    tag_290:\n        /* \"#utility.yul\":5258:5264   */\n      dup4\n        /* \"#utility.yul\":5255:5256   */\n      dup2\n        /* \"#utility.yul\":5252:5265   */\n      lt\n        /* \"#utility.yul\":5233:5583   */\n      iszero\n      tag_292\n      jumpi\n        /* \"#utility.yul\":5334:5340   */\n      dup2\n        /* \"#utility.yul\":5328:5341   */\n      mload\n        /* \"#utility.yul\":5361:5468   */\n      tag_293\n        /* \"#utility.yul\":5464:5467   */\n      dup9\n        /* \"#utility.yul\":5449:5462   */\n      dup3\n        /* \"#utility.yul\":5361:5468   */\n      tag_210\n      jump\t// in\n    tag_293:\n        /* \"#utility.yul\":5354:5468   */\n      swap8\n      pop\n        /* \"#utility.yul\":5491:5573   */\n      tag_294\n        /* \"#utility.yul\":5566:5572   */\n      dup4\n        /* \"#utility.yul\":5491:5573   */\n      tag_211\n      jump\t// in\n    tag_294:\n        /* \"#utility.yul\":5481:5573   */\n      swap3\n      pop\n        /* \"#utility.yul\":5293:5583   */\n      pop\n        /* \"#utility.yul\":5280:5281   */\n      0x01\n        /* \"#utility.yul\":5277:5278   */\n      dup2\n        /* \"#utility.yul\":5273:5282   */\n      add\n        /* \"#utility.yul\":5268:5282   */\n      swap1\n      pop\n        /* \"#utility.yul\":5233:5583   */\n      jump(tag_290)\n    tag_292:\n        /* \"#utility.yul\":5237:5251   */\n      pop\n        /* \"#utility.yul\":5599:5602   */\n      dup6\n        /* \"#utility.yul\":5592:5602   */\n      swap4\n      pop\n        /* \"#utility.yul\":4868:5608   */\n      pop\n      pop\n      pop\n        /* \"#utility.yul\":4700:5608   */\n      swap3\n      swap2\n      pop\n      pop\n      jump\t// out\n        /* \"#utility.yul\":5614:6075   */\n    tag_89:\n        /* \"#utility.yul\":5801:5805   */\n      0x00\n        /* \"#utility.yul\":5839:5841   */\n      0x20\n        /* \"#utility.yul\":5828:5837   */\n      dup3\n        /* \"#utility.yul\":5824:5842   */\n      add\n        /* \"#utility.yul\":5816:5842   */\n      swap1\n      pop\n        /* \"#utility.yul\":5888:5897   */\n      dup2\n        /* \"#utility.yul\":5882:5886   */\n      dup2\n        /* \"#utility.yul\":5878:5898   */\n      sub\n        /* \"#utility.yul\":5874:5875   */\n      0x00\n        /* \"#utility.yul\":5863:5872   */\n      dup4\n        /* \"#utility.yul\":5859:5876   */\n      add\n        /* \"#utility.yul\":5852:5899   */\n      mstore\n        /* \"#utility.yul\":5916:6068   */\n      tag_296\n        /* \"#utility.yul\":6063:6067   */\n      dup2\n        /* \"#utility.yul\":6054:6060   */\n      dup5\n        /* \"#utility.yul\":5916:6068   */\n      tag_212\n      jump\t// in\n    tag_296:\n        /* \"#utility.yul\":5908:6068   */\n      swap1\n      pop\n        /* \"#utility.yul\":5614:6075   */\n      swap3\n      swap2\n      pop\n      pop\n      jump\t// out\n        /* \"#utility.yul\":6081:6171   */\n    tag_213:\n        /* \"#utility.yul\":6115:6122   */\n      0x00\n        /* \"#utility.yul\":6158:6163   */\n      dup2\n        /* \"#utility.yul\":6151:6164   */\n      iszero\n        /* \"#utility.yul\":6144:6165   */\n      iszero\n        /* \"#utility.yul\":6133:6165   */\n      swap1\n      pop\n        /* \"#utility.yul\":6081:6171   */\n      swap2\n      swap1\n      pop\n      jump\t// out\n        /* \"#utility.yul\":6177:6286   */\n    tag_214:\n        /* \"#utility.yul\":6258:6279   */\n      tag_299\n        /* \"#utility.yul\":6273:6278   */\n      dup2\n        /* \"#utility.yul\":6258:6279   */\n      tag_213\n      jump\t// in\n    tag_299:\n        /* \"#utility.yul\":6253:6256   */\n      dup3\n        /* \"#utility.yul\":6246:6280   */\n      mstore\n        /* \"#utility.yul\":6177:6286   */\n      pop\n      pop\n      jump\t// out\n        /* \"#utility.yul\":6292:6502   */\n    tag_110:\n        /* \"#utility.yul\":6379:6383   */\n      0x00\n        /* \"#utility.yul\":6417:6419   */\n      0x20\n        /* \"#utility.yul\":6406:6415   */\n      dup3\n        /* \"#utility.yul\":6402:6420   */\n      add\n        /* \"#utility.yul\":6394:6420   */\n      swap1\n      pop\n        /* \"#utility.yul\":6430:6495   */\n      tag_301\n        /* \"#utility.yul\":6492:6493   */\n      0x00\n        /* \"#utility.yul\":6481:6490   */\n      dup4\n        /* \"#utility.yul\":6477:6494   */\n      add\n        /* \"#utility.yul\":6468:6474   */\n      dup5\n        /* \"#utility.yul\":6430:6495   */\n      tag_214\n      jump\t// in\n    tag_301:\n        /* \"#utility.yul\":6292:6502   */\n      swap3\n      swap2\n      pop\n      pop\n      jump\t// out\n        /* \"#utility.yul\":6508:6677   */\n    tag_215:\n        /* \"#utility.yul\":6592:6603   */\n      0x00\n        /* \"#utility.yul\":6626:6632   */\n      dup3\n        /* \"#utility.yul\":6621:6624   */\n      dup3\n        /* \"#utility.yul\":6614:6633   */\n      mstore\n        /* \"#utility.yul\":6666:6670   */\n      0x20\n        /* \"#utility.yul\":6661:6664   */\n      dup3\n        /* \"#utility.yul\":6657:6671   */\n      add\n        /* \"#utility.yul\":6642:6671   */\n      swap1\n      pop\n        /* \"#utility.yul\":6508:6677   */\n      swap3\n      swap2\n      pop\n      pop\n      jump\t// out\n        /* \"#utility.yul\":6683:6916   */\n    tag_216:\n        /* \"#utility.yul\":6823:6857   */\n      0x536f6c6f20656c2073756261737461646f7220707565646520656a6563757461\n        /* \"#utility.yul\":6819:6820   */\n      0x00\n        /* \"#utility.yul\":6811:6817   */\n      dup3\n        /* \"#utility.yul\":6807:6821   */\n      add\n        /* \"#utility.yul\":6800:6858   */\n      mstore\n        /* \"#utility.yul\":6892:6908   */\n      0x7220657374612066756e63696f6e000000000000000000000000000000000000\n        /* \"#utility.yul\":6887:6889   */\n      0x20\n        /* \"#utility.yul\":6879:6885   */\n      dup3\n        /* \"#utility.yul\":6875:6890   */\n      add\n        /* \"#utility.yul\":6868:6909   */\n      mstore\n        /* \"#utility.yul\":6683:6916   */\n      pop\n      jump\t// out\n        /* \"#utility.yul\":6922:7288   */\n    tag_217:\n        /* \"#utility.yul\":7064:7067   */\n      0x00\n        /* \"#utility.yul\":7085:7152   */\n      tag_305\n        /* \"#utility.yul\":7149:7151   */\n      0x2e\n        /* \"#utility.yul\":7144:7147   */\n      dup4\n        /* \"#utility.yul\":7085:7152   */\n      tag_215\n      jump\t// in\n    tag_305:\n        /* \"#utility.yul\":7078:7152   */\n      swap2\n      pop\n        /* \"#utility.yul\":7161:7254   */\n      tag_306\n        /* \"#utility.yul\":7250:7253   */\n      dup3\n        /* \"#utility.yul\":7161:7254   */\n      tag_216\n      jump\t// in\n    tag_306:\n        /* \"#utility.yul\":7279:7281   */\n      0x40\n        /* \"#utility.yul\":7274:7277   */\n      dup3\n        /* \"#utility.yul\":7270:7282   */\n      add\n        /* \"#utility.yul\":7263:7282   */\n      swap1\n      pop\n        /* \"#utility.yul\":6922:7288   */\n      swap2\n      swap1\n      pop\n      jump\t// out\n        /* \"#utility.yul\":7294:7713   */\n    tag_114:\n        /* \"#utility.yul\":7460:7464   */\n      0x00\n        /* \"#utility.yul\":7498:7500   */\n      0x20\n        /* \"#utility.yul\":7487:7496   */\n      dup3\n        /* \"#utility.yul\":7483:7501   */\n      add\n        /* \"#utility.yul\":7475:7501   */\n      swap1\n      pop\n        /* \"#utility.yul\":7547:7556   */\n      dup2\n        /* \"#utility.yul\":7541:7545   */\n      dup2\n        /* \"#utility.yul\":7537:7557   */\n      sub\n        /* \"#utility.yul\":7533:7534   */\n      0x00\n        /* \"#utility.yul\":7522:7531   */\n      dup4\n        /* \"#utility.yul\":7518:7535   */\n      add\n        /* \"#utility.yul\":7511:7558   */\n      mstore\n        /* \"#utility.yul\":7575:7706   */\n      tag_308\n        /* \"#utility.yul\":7701:7705   */\n      dup2\n        /* \"#utility.yul\":7575:7706   */\n      tag_217\n      jump\t// in\n    tag_308:\n        /* \"#utility.yul\":7567:7706   */\n      swap1\n      pop\n        /* \"#utility.yul\":7294:7713   */\n      swap2\n      swap1\n      pop\n      jump\t// out\n        /* \"#utility.yul\":7719:7894   */\n    tag_218:\n        /* \"#utility.yul\":7859:7886   */\n      0x4c612073756261737461206e6f20657374612061637469766100000000000000\n        /* \"#utility.yul\":7855:7856   */\n      0x00\n        /* \"#utility.yul\":7847:7853   */\n      dup3\n        /* \"#utility.yul\":7843:7857   */\n      add\n        /* \"#utility.yul\":7836:7887   */\n      mstore\n        /* \"#utility.yul\":7719:7894   */\n      pop\n      jump\t// out\n        /* \"#utility.yul\":7900:8266   */\n    tag_219:\n        /* \"#utility.yul\":8042:8045   */\n      0x00\n        /* \"#utility.yul\":8063:8130   */\n      tag_311\n        /* \"#utility.yul\":8127:8129   */\n      0x19\n        /* \"#utility.yul\":8122:8125   */\n      dup4\n        /* \"#utility.yul\":8063:8130   */\n      tag_215\n      jump\t// in\n    tag_311:\n        /* \"#utility.yul\":8056:8130   */\n      swap2\n      pop\n        /* \"#utility.yul\":8139:8232   */\n      tag_312\n        /* \"#utility.yul\":8228:8231   */\n      dup3\n        /* \"#utility.yul\":8139:8232   */\n      tag_218\n      jump\t// in\n    tag_312:\n        /* \"#utility.yul\":8257:8259   */\n      0x20\n        /* \"#utility.yul\":8252:8255   */\n      dup3\n        /* \"#utility.yul\":8248:8260   */\n      add\n        /* \"#utility.yul\":8241:8260   */\n      swap1\n      pop\n        /* \"#utility.yul\":7900:8266   */\n      swap2\n      swap1\n      pop\n      jump\t// out\n        /* \"#utility.yul\":8272:8691   */\n    tag_119:\n        /* \"#utility.yul\":8438:8442   */\n      0x00\n        /* \"#utility.yul\":8476:8478   */\n      0x20\n        /* \"#utility.yul\":8465:8474   */\n      dup3\n        /* \"#utility.yul\":8461:8479   */\n      add\n        /* \"#utility.yul\":8453:8479   */\n      swap1\n      pop\n        /* \"#utility.yul\":8525:8534   */\n      dup2\n        /* \"#utility.yul\":8519:8523   */\n      dup2\n        /* \"#utility.yul\":8515:8535   */\n      sub\n        /* \"#utility.yul\":8511:8512   */\n      0x00\n        /* \"#utility.yul\":8500:8509   */\n      dup4\n        /* \"#utility.yul\":8496:8513   */\n      add\n        /* \"#utility.yul\":8489:8536   */\n      mstore\n        /* \"#utility.yul\":8553:8684   */\n      tag_314\n        /* \"#utility.yul\":8679:8683   */\n      dup2\n        /* \"#utility.yul\":8553:8684   */\n      tag_219\n      jump\t// in\n    tag_314:\n        /* \"#utility.yul\":8545:8684   */\n      swap1\n      pop\n        /* \"#utility.yul\":8272:8691   */\n      swap2\n      swap1\n      pop\n      jump\t// out\n        /* \"#utility.yul\":8697:8875   */\n    tag_220:\n        /* \"#utility.yul\":8837:8867   */\n      0x4c6120737562617374612061756e206573746120656e20637572736f00000000\n        /* \"#utility.yul\":8833:8834   */\n      0x00\n        /* \"#utility.yul\":8825:8831   */\n      dup3\n        /* \"#utility.yul\":8821:8835   */\n      add\n        /* \"#utility.yul\":8814:8868   */\n      mstore\n        /* \"#utility.yul\":8697:8875   */\n      pop\n      jump\t// out\n        /* \"#utility.yul\":8881:9247   */\n    tag_221:\n        /* \"#utility.yul\":9023:9026   */\n      0x00\n        /* \"#utility.yul\":9044:9111   */\n      tag_317\n        /* \"#utility.yul\":9108:9110   */\n      0x1c\n        /* \"#utility.yul\":9103:9106   */\n      dup4\n        /* \"#utility.yul\":9044:9111   */\n      tag_215\n      jump\t// in\n    tag_317:\n        /* \"#utility.yul\":9037:9111   */\n      swap2\n      pop\n        /* \"#utility.yul\":9120:9213   */\n      tag_318\n        /* \"#utility.yul\":9209:9212   */\n      dup3\n        /* \"#utility.yul\":9120:9213   */\n      tag_220\n      jump\t// in\n    tag_318:\n        /* \"#utility.yul\":9238:9240   */\n      0x20\n        /* \"#utility.yul\":9233:9236   */\n      dup3\n        /* \"#utility.yul\":9229:9241   */\n      add\n        /* \"#utility.yul\":9222:9241   */\n      swap1\n      pop\n        /* \"#utility.yul\":8881:9247   */\n      swap2\n      swap1\n      pop\n      jump\t// out\n        /* \"#utility.yul\":9253:9672   */\n    tag_123:\n        /* \"#utility.yul\":9419:9423   */\n      0x00\n        /* \"#utility.yul\":9457:9459   */\n      0x20\n        /* \"#utility.yul\":9446:9455   */\n      dup3\n        /* \"#utility.yul\":9442:9460   */\n      add\n        /* \"#utility.yul\":9434:9460   */\n      swap1\n      pop\n        /* \"#utility.yul\":9506:9515   */\n      dup2\n        /* \"#utility.yul\":9500:9504   */\n      dup2\n        /* \"#utility.yul\":9496:9516   */\n      sub\n        /* \"#utility.yul\":9492:9493   */\n      0x00\n        /* \"#utility.yul\":9481:9490   */\n      dup4\n        /* \"#utility.yul\":9477:9494   */\n      add\n        /* \"#utility.yul\":9470:9517   */\n      mstore\n        /* \"#utility.yul\":9534:9665   */\n      tag_320\n        /* \"#utility.yul\":9660:9664   */\n      dup2\n        /* \"#utility.yul\":9534:9665   */\n      tag_221\n      jump\t// in\n    tag_320:\n        /* \"#utility.yul\":9526:9665   */\n      swap1\n      pop\n        /* \"#utility.yul\":9253:9672   */\n      swap2\n      swap1\n      pop\n      jump\t// out\n        /* \"#utility.yul\":9678:9857   */\n    tag_222:\n        /* \"#utility.yul\":9818:9849   */\n      0x4c6120737562617374612061756e206e6f20686120696e69636961646f000000\n        /* \"#utility.yul\":9814:9815   */\n      0x00\n        /* \"#utility.yul\":9806:9812   */\n      dup3\n        /* \"#utility.yul\":9802:9816   */\n      add\n        /* \"#utility.yul\":9795:9850   */\n      mstore\n        /* \"#utility.yul\":9678:9857   */\n      pop\n      jump\t// out\n        /* \"#utility.yul\":9863:10229   */\n    tag_223:\n        /* \"#utility.yul\":10005:10008   */\n      0x00\n        /* \"#utility.yul\":10026:10093   */\n      tag_323\n        /* \"#utility.yul\":10090:10092   */\n      0x1d\n        /* \"#utility.yul\":10085:10088   */\n      dup4\n        /* \"#utility.yul\":10026:10093   */\n      tag_215\n      jump\t// in\n    tag_323:\n        /* \"#utility.yul\":10019:10093   */\n      swap2\n      pop\n        /* \"#utility.yul\":10102:10195   */\n      tag_324\n        /* \"#utility.yul\":10191:10194   */\n      dup3\n        /* \"#utility.yul\":10102:10195   */\n      tag_222\n      jump\t// in\n    tag_324:\n        /* \"#utility.yul\":10220:10222   */\n      0x20\n        /* \"#utility.yul\":10215:10218   */\n      dup3\n        /* \"#utility.yul\":10211:10223   */\n      add\n        /* \"#utility.yul\":10204:10223   */\n      swap1\n      pop\n        /* \"#utility.yul\":9863:10229   */\n      swap2\n      swap1\n      pop\n      jump\t// out\n        /* \"#utility.yul\":10235:10654   */\n    tag_130:\n        /* \"#utility.yul\":10401:10405   */\n      0x00\n        /* \"#utility.yul\":10439:10441   */\n      0x20\n        /* \"#utility.yul\":10428:10437   */\n      dup3\n        /* \"#utility.yul\":10424:10442   */\n      add\n        /* \"#utility.yul\":10416:10442   */\n      swap1\n      pop\n        /* \"#utility.yul\":10488:10497   */\n      dup2\n        /* \"#utility.yul\":10482:10486   */\n      dup2\n        /* \"#utility.yul\":10478:10498   */\n      sub\n        /* \"#utility.yul\":10474:10475   */\n      0x00\n        /* \"#utility.yul\":10463:10472   */\n      dup4\n        /* \"#utility.yul\":10459:10476   */\n      add\n        /* \"#utility.yul\":10452:10499   */\n      mstore\n        /* \"#utility.yul\":10516:10647   */\n      tag_326\n        /* \"#utility.yul\":10642:10646   */\n      dup2\n        /* \"#utility.yul\":10516:10647   */\n      tag_223\n      jump\t// in\n    tag_326:\n        /* \"#utility.yul\":10508:10647   */\n      swap1\n      pop\n        /* \"#utility.yul\":10235:10654   */\n      swap2\n      swap1\n      pop\n      jump\t// out\n        /* \"#utility.yul\":10660:10897   */\n    tag_224:\n        /* \"#utility.yul\":10800:10834   */\n      0x4c61206f666572746120646562652073657220616c206d656e6f7320656c206d\n        /* \"#utility.yul\":10796:10797   */\n      0x00\n        /* \"#utility.yul\":10788:10794   */\n      dup3\n        /* \"#utility.yul\":10784:10798   */\n      add\n        /* \"#utility.yul\":10777:10835   */\n      mstore\n        /* \"#utility.yul\":10869:10889   */\n      0x696e696d6f20646520302e303035204554480000000000000000000000000000\n        /* \"#utility.yul\":10864:10866   */\n      0x20\n        /* \"#utility.yul\":10856:10862   */\n      dup3\n        /* \"#utility.yul\":10852:10867   */\n      add\n        /* \"#utility.yul\":10845:10890   */\n      mstore\n        /* \"#utility.yul\":10660:10897   */\n      pop\n      jump\t// out\n        /* \"#utility.yul\":10903:11269   */\n    tag_225:\n        /* \"#utility.yul\":11045:11048   */\n      0x00\n        /* \"#utility.yul\":11066:11133   */\n      tag_329\n        /* \"#utility.yul\":11130:11132   */\n      0x32\n        /* \"#utility.yul\":11125:11128   */\n      dup4\n        /* \"#utility.yul\":11066:11133   */\n      tag_215\n      jump\t// in\n    tag_329:\n        /* \"#utility.yul\":11059:11133   */\n      swap2\n      pop\n        /* \"#utility.yul\":11142:11235   */\n      tag_330\n        /* \"#utility.yul\":11231:11234   */\n      dup3\n        /* \"#utility.yul\":11142:11235   */\n      tag_224\n      jump\t// in\n    tag_330:\n        /* \"#utility.yul\":11260:11262   */\n      0x40\n        /* \"#utility.yul\":11255:11258   */\n      dup3\n        /* \"#utility.yul\":11251:11263   */\n      add\n        /* \"#utility.yul\":11244:11263   */\n      swap1\n      pop\n        /* \"#utility.yul\":10903:11269   */\n      swap2\n      swap1\n      pop\n      jump\t// out\n        /* \"#utility.yul\":11275:11694   */\n    tag_138:\n        /* \"#utility.yul\":11441:11445   */\n      0x00\n        /* \"#utility.yul\":11479:11481   */\n      0x20\n        /* \"#utility.yul\":11468:11477   */\n      dup3\n        /* \"#utility.yul\":11464:11482   */\n      add\n        /* \"#utility.yul\":11456:11482   */\n      swap1\n      pop\n        /* \"#utility.yul\":11528:11537   */\n      dup2\n        /* \"#utility.yul\":11522:11526   */\n      dup2\n        /* \"#utility.yul\":11518:11538   */\n      sub\n        /* \"#utility.yul\":11514:11515   */\n      0x00\n        /* \"#utility.yul\":11503:11512   */\n      dup4\n        /* \"#utility.yul\":11499:11516   */\n      add\n        /* \"#utility.yul\":11492:11539   */\n      mstore\n        /* \"#utility.yul\":11556:11687   */\n      tag_332\n        /* \"#utility.yul\":11682:11686   */\n      dup2\n        /* \"#utility.yul\":11556:11687   */\n      tag_225\n      jump\t// in\n    tag_332:\n        /* \"#utility.yul\":11548:11687   */\n      swap1\n      pop\n        /* \"#utility.yul\":11275:11694   */\n      swap2\n      swap1\n      pop\n      jump\t// out\n        /* \"#utility.yul\":11700:11880   */\n    tag_226:\n        /* \"#utility.yul\":11748:11825   */\n      0x4e487b7100000000000000000000000000000000000000000000000000000000\n        /* \"#utility.yul\":11745:11746   */\n      0x00\n        /* \"#utility.yul\":11738:11826   */\n      mstore\n        /* \"#utility.yul\":11845:11849   */\n      0x11\n        /* \"#utility.yul\":11842:11843   */\n      0x04\n        /* \"#utility.yul\":11835:11850   */\n      mstore\n        /* \"#utility.yul\":11869:11873   */\n      0x24\n        /* \"#utility.yul\":11866:11867   */\n      0x00\n        /* \"#utility.yul\":11859:11874   */\n      revert\n        /* \"#utility.yul\":11886:12296   */\n    tag_140:\n        /* \"#utility.yul\":11926:11933   */\n      0x00\n        /* \"#utility.yul\":11949:11969   */\n      tag_335\n        /* \"#utility.yul\":11967:11968   */\n      dup3\n        /* \"#utility.yul\":11949:11969   */\n      tag_199\n      jump\t// in\n    tag_335:\n        /* \"#utility.yul\":11944:11969   */\n      swap2\n      pop\n        /* \"#utility.yul\":11983:12003   */\n      tag_336\n        /* \"#utility.yul\":12001:12002   */\n      dup4\n        /* \"#utility.yul\":11983:12003   */\n      tag_199\n      jump\t// in\n    tag_336:\n        /* \"#utility.yul\":11978:12003   */\n      swap3\n      pop\n        /* \"#utility.yul\":12038:12039   */\n      dup3\n        /* \"#utility.yul\":12035:12036   */\n      dup3\n        /* \"#utility.yul\":12031:12040   */\n      mul\n        /* \"#utility.yul\":12060:12090   */\n      tag_337\n        /* \"#utility.yul\":12078:12089   */\n      dup2\n        /* \"#utility.yul\":12060:12090   */\n      tag_199\n      jump\t// in\n    tag_337:\n        /* \"#utility.yul\":12049:12090   */\n      swap2\n      pop\n        /* \"#utility.yul\":12239:12240   */\n      dup3\n        /* \"#utility.yul\":12230:12237   */\n      dup3\n        /* \"#utility.yul\":12226:12241   */\n      div\n        /* \"#utility.yul\":12223:12224   */\n      dup5\n        /* \"#utility.yul\":12220:12242   */\n      eq\n        /* \"#utility.yul\":12200:12201   */\n      dup4\n        /* \"#utility.yul\":12193:12202   */\n      iszero\n        /* \"#utility.yul\":12173:12256   */\n      or\n        /* \"#utility.yul\":12150:12289   */\n      tag_338\n      jumpi\n        /* \"#utility.yul\":12269:12287   */\n      tag_339\n      tag_226\n      jump\t// in\n    tag_339:\n        /* \"#utility.yul\":12150:12289   */\n    tag_338:\n        /* \"#utility.yul\":11934:12296   */\n      pop\n        /* \"#utility.yul\":11886:12296   */\n      swap3\n      swap2\n      pop\n      pop\n      jump\t// out\n        /* \"#utility.yul\":12302:12482   */\n    tag_227:\n        /* \"#utility.yul\":12350:12427   */\n      0x4e487b7100000000000000000000000000000000000000000000000000000000\n        /* \"#utility.yul\":12347:12348   */\n      0x00\n        /* \"#utility.yul\":12340:12428   */\n      mstore\n        /* \"#utility.yul\":12447:12451   */\n      0x12\n        /* \"#utility.yul\":12444:12445   */\n      0x04\n        /* \"#utility.yul\":12437:12452   */\n      mstore\n        /* \"#utility.yul\":12471:12475   */\n      0x24\n        /* \"#utility.yul\":12468:12469   */\n      0x00\n        /* \"#utility.yul\":12461:12476   */\n      revert\n        /* \"#utility.yul\":12488:12673   */\n    tag_142:\n        /* \"#utility.yul\":12528:12529   */\n      0x00\n        /* \"#utility.yul\":12545:12565   */\n      tag_342\n        /* \"#utility.yul\":12563:12564   */\n      dup3\n        /* \"#utility.yul\":12545:12565   */\n      tag_199\n      jump\t// in\n    tag_342:\n        /* \"#utility.yul\":12540:12565   */\n      swap2\n      pop\n        /* \"#utility.yul\":12579:12599   */\n      tag_343\n        /* \"#utility.yul\":12597:12598   */\n      dup4\n        /* \"#utility.yul\":12579:12599   */\n      tag_199\n      jump\t// in\n    tag_343:\n        /* \"#utility.yul\":12574:12599   */\n      swap3\n      pop\n        /* \"#utility.yul\":12618:12619   */\n      dup3\n        /* \"#utility.yul\":12608:12643   */\n      tag_344\n      jumpi\n        /* \"#utility.yul\":12623:12641   */\n      tag_345\n      tag_227\n      jump\t// in\n    tag_345:\n        /* \"#utility.yul\":12608:12643   */\n    tag_344:\n        /* \"#utility.yul\":12665:12666   */\n      dup3\n        /* \"#utility.yul\":12662:12663   */\n      dup3\n        /* \"#utility.yul\":12658:12667   */\n      div\n        /* \"#utility.yul\":12653:12667   */\n      swap1\n      pop\n        /* \"#utility.yul\":12488:12673   */\n      swap3\n      swap2\n      pop\n      pop\n      jump\t// out\n        /* \"#utility.yul\":12679:12870   */\n    tag_144:\n        /* \"#utility.yul\":12719:12722   */\n      0x00\n        /* \"#utility.yul\":12738:12758   */\n      tag_347\n        /* \"#utility.yul\":12756:12757   */\n      dup3\n        /* \"#utility.yul\":12738:12758   */\n      tag_199\n      jump\t// in\n    tag_347:\n        /* \"#utility.yul\":12733:12758   */\n      swap2\n      pop\n        /* \"#utility.yul\":12772:12792   */\n      tag_348\n        /* \"#utility.yul\":12790:12791   */\n      dup4\n        /* \"#utility.yul\":12772:12792   */\n      tag_199\n      jump\t// in\n    tag_348:\n        /* \"#utility.yul\":12767:12792   */\n      swap3\n      pop\n        /* \"#utility.yul\":12815:12816   */\n      dup3\n        /* \"#utility.yul\":12812:12813   */\n      dup3\n        /* \"#utility.yul\":12808:12817   */\n      add\n        /* \"#utility.yul\":12801:12817   */\n      swap1\n      pop\n        /* \"#utility.yul\":12836:12839   */\n      dup1\n        /* \"#utility.yul\":12833:12834   */\n      dup3\n        /* \"#utility.yul\":12830:12840   */\n      gt\n        /* \"#utility.yul\":12827:12863   */\n      iszero\n      tag_349\n      jumpi\n        /* \"#utility.yul\":12843:12861   */\n      tag_350\n      tag_226\n      jump\t// in\n    tag_350:\n        /* \"#utility.yul\":12827:12863   */\n    tag_349:\n        /* \"#utility.yul\":12679:12870   */\n      swap3\n      swap2\n      pop\n      pop\n      jump\t// out\n        /* \"#utility.yul\":12876:13166   */\n    tag_228:\n        /* \"#utility.yul\":13016:13050   */\n      0x4c61206f666572746120646562652073657220616c206d656e6f7320756e2035\n        /* \"#utility.yul\":13012:13013   */\n      0x00\n        /* \"#utility.yul\":13004:13010   */\n      dup3\n        /* \"#utility.yul\":13000:13014   */\n      add\n        /* \"#utility.yul\":12993:13051   */\n      mstore\n        /* \"#utility.yul\":13085:13119   */\n      0x25206d61796f7220717565206c61206d656a6f72206f66657274612061637475\n        /* \"#utility.yul\":13080:13082   */\n      0x20\n        /* \"#utility.yul\":13072:13078   */\n      dup3\n        /* \"#utility.yul\":13068:13083   */\n      add\n        /* \"#utility.yul\":13061:13120   */\n      mstore\n        /* \"#utility.yul\":13154:13158   */\n      0x616c000000000000000000000000000000000000000000000000000000000000\n        /* \"#utility.yul\":13149:13151   */\n      0x40\n        /* \"#utility.yul\":13141:13147   */\n      dup3\n        /* \"#utility.yul\":13137:13152   */\n      add\n        /* \"#utility.yul\":13130:13159   */\n      mstore\n        /* \"#utility.yul\":12876:13166   */\n      pop\n      jump\t// out\n        /* \"#utility.yul\":13172:13538   */\n    tag_229:\n        /* \"#utility.yul\":13314:13317   */\n      0x00\n        /* \"#utility.yul\":13335:13402   */\n      tag_353\n        /* \"#utility.yul\":13399:13401   */\n      0x42\n        /* \"#utility.yul\":13394:13397   */\n      dup4\n        /* \"#utility.yul\":13335:13402   */\n      tag_215\n      jump\t// in\n    tag_353:\n        /* \"#utility.yul\":13328:13402   */\n      swap2\n      pop\n        /* \"#utility.yul\":13411:13504   */\n      tag_354\n        /* \"#utility.yul\":13500:13503   */\n      dup3\n        /* \"#utility.yul\":13411:13504   */\n      tag_228\n      jump\t// in\n    tag_354:\n        /* \"#utility.yul\":13529:13531   */\n      0x60\n        /* \"#utility.yul\":13524:13527   */\n      dup3\n        /* \"#utility.yul\":13520:13532   */\n      add\n        /* \"#utility.yul\":13513:13532   */\n      swap1\n      pop\n        /* \"#utility.yul\":13172:13538   */\n      swap2\n      swap1\n      pop\n      jump\t// out\n        /* \"#utility.yul\":13544:13963   */\n    tag_147:\n        /* \"#utility.yul\":13710:13714   */\n      0x00\n        /* \"#utility.yul\":13748:13750   */\n      0x20\n        /* \"#utility.yul\":13737:13746   */\n      dup3\n        /* \"#utility.yul\":13733:13751   */\n      add\n        /* \"#utility.yul\":13725:13751   */\n      swap1\n      pop\n        /* \"#utility.yul\":13797:13806   */\n      dup2\n        /* \"#utility.yul\":13791:13795   */\n      dup2\n        /* \"#utility.yul\":13787:13807   */\n      sub\n        /* \"#utility.yul\":13783:13784   */\n      0x00\n        /* \"#utility.yul\":13772:13781   */\n      dup4\n        /* \"#utility.yul\":13768:13785   */\n      add\n        /* \"#utility.yul\":13761:13808   */\n      mstore\n        /* \"#utility.yul\":13825:13956   */\n      tag_356\n        /* \"#utility.yul\":13951:13955   */\n      dup2\n        /* \"#utility.yul\":13825:13956   */\n      tag_229\n      jump\t// in\n    tag_356:\n        /* \"#utility.yul\":13817:13956   */\n      swap1\n      pop\n        /* \"#utility.yul\":13544:13963   */\n      swap2\n      swap1\n      pop\n      jump\t// out\n        /* \"#utility.yul\":13969:14163   */\n    tag_154:\n        /* \"#utility.yul\":14009:14013   */\n      0x00\n        /* \"#utility.yul\":14029:14049   */\n      tag_358\n        /* \"#utility.yul\":14047:14048   */\n      dup3\n        /* \"#utility.yul\":14029:14049   */\n      tag_199\n      jump\t// in\n    tag_358:\n        /* \"#utility.yul\":14024:14049   */\n      swap2\n      pop\n        /* \"#utility.yul\":14063:14083   */\n      tag_359\n        /* \"#utility.yul\":14081:14082   */\n      dup4\n        /* \"#utility.yul\":14063:14083   */\n      tag_199\n      jump\t// in\n    tag_359:\n        /* \"#utility.yul\":14058:14083   */\n      swap3\n      pop\n        /* \"#utility.yul\":14107:14108   */\n      dup3\n        /* \"#utility.yul\":14104:14105   */\n      dup3\n        /* \"#utility.yul\":14100:14109   */\n      sub\n        /* \"#utility.yul\":14092:14109   */\n      swap1\n      pop\n        /* \"#utility.yul\":14131:14132   */\n      dup2\n        /* \"#utility.yul\":14125:14129   */\n      dup2\n        /* \"#utility.yul\":14122:14133   */\n      gt\n        /* \"#utility.yul\":14119:14156   */\n      iszero\n      tag_360\n      jumpi\n        /* \"#utility.yul\":14136:14154   */\n      tag_361\n      tag_226\n      jump\t// in\n    tag_361:\n        /* \"#utility.yul\":14119:14156   */\n    tag_360:\n        /* \"#utility.yul\":13969:14163   */\n      swap3\n      swap2\n      pop\n      pop\n      jump\t// out\n        /* \"#utility.yul\":14169:14350   */\n    tag_230:\n        /* \"#utility.yul\":14309:14342   */\n      0x4c6120737562617374612061756e206e6f2068612066696e616c697a61646f00\n        /* \"#utility.yul\":14305:14306   */\n      0x00\n        /* \"#utility.yul\":14297:14303   */\n      dup3\n        /* \"#utility.yul\":14293:14307   */\n      add\n        /* \"#utility.yul\":14286:14343   */\n      mstore\n        /* \"#utility.yul\":14169:14350   */\n      pop\n      jump\t// out\n        /* \"#utility.yul\":14356:14722   */\n    tag_231:\n        /* \"#utility.yul\":14498:14501   */\n      0x00\n        /* \"#utility.yul\":14519:14586   */\n      tag_364\n        /* \"#utility.yul\":14583:14585   */\n      0x1f\n        /* \"#utility.yul\":14578:14581   */\n      dup4\n        /* \"#utility.yul\":14519:14586   */\n      tag_215\n      jump\t// in\n    tag_364:\n        /* \"#utility.yul\":14512:14586   */\n      swap2\n      pop\n        /* \"#utility.yul\":14595:14688   */\n      tag_365\n        /* \"#utility.yul\":14684:14687   */\n      dup3\n        /* \"#utility.yul\":14595:14688   */\n      tag_230\n      jump\t// in\n    tag_365:\n        /* \"#utility.yul\":14713:14715   */\n      0x20\n        /* \"#utility.yul\":14708:14711   */\n      dup3\n        /* \"#utility.yul\":14704:14716   */\n      add\n        /* \"#utility.yul\":14697:14716   */\n      swap1\n      pop\n        /* \"#utility.yul\":14356:14722   */\n      swap2\n      swap1\n      pop\n      jump\t// out\n        /* \"#utility.yul\":14728:15147   */\n    tag_160:\n        /* \"#utility.yul\":14894:14898   */\n      0x00\n        /* \"#utility.yul\":14932:14934   */\n      0x20\n        /* \"#utility.yul\":14921:14930   */\n      dup3\n        /* \"#utility.yul\":14917:14935   */\n      add\n        /* \"#utility.yul\":14909:14935   */\n      swap1\n      pop\n        /* \"#utility.yul\":14981:14990   */\n      dup2\n        /* \"#utility.yul\":14975:14979   */\n      dup2\n        /* \"#utility.yul\":14971:14991   */\n      sub\n        /* \"#utility.yul\":14967:14968   */\n      0x00\n        /* \"#utility.yul\":14956:14965   */\n      dup4\n        /* \"#utility.yul\":14952:14969   */\n      add\n        /* \"#utility.yul\":14945:14992   */\n      mstore\n        /* \"#utility.yul\":15009:15140   */\n      tag_367\n        /* \"#utility.yul\":15135:15139   */\n      dup2\n        /* \"#utility.yul\":15009:15140   */\n      tag_231\n      jump\t// in\n    tag_367:\n        /* \"#utility.yul\":15001:15140   */\n      swap1\n      pop\n        /* \"#utility.yul\":14728:15147   */\n      swap2\n      swap1\n      pop\n      jump\t// out\n        /* \"#utility.yul\":15153:15335   */\n    tag_232:\n        /* \"#utility.yul\":15293:15327   */\n      0x4e6f207469656e6573206465706f7369746f2070617261207265636c616d6172\n        /* \"#utility.yul\":15289:15290   */\n      0x00\n        /* \"#utility.yul\":15281:15287   */\n      dup3\n        /* \"#utility.yul\":15277:15291   */\n      add\n        /* \"#utility.yul\":15270:15328   */\n      mstore\n        /* \"#utility.yul\":15153:15335   */\n      pop\n      jump\t// out\n        /* \"#utility.yul\":15341:15707   */\n    tag_233:\n        /* \"#utility.yul\":15483:15486   */\n      0x00\n        /* \"#utility.yul\":15504:15571   */\n      tag_370\n        /* \"#utility.yul\":15568:15570   */\n      0x20\n        /* \"#utility.yul\":15563:15566   */\n      dup4\n        /* \"#utility.yul\":15504:15571   */\n      tag_215\n      jump\t// in\n    tag_370:\n        /* \"#utility.yul\":15497:15571   */\n      swap2\n      pop\n        /* \"#utility.yul\":15580:15673   */\n      tag_371\n        /* \"#utility.yul\":15669:15672   */\n      dup3\n        /* \"#utility.yul\":15580:15673   */\n      tag_232\n      jump\t// in\n    tag_371:\n        /* \"#utility.yul\":15698:15700   */\n      0x20\n        /* \"#utility.yul\":15693:15696   */\n      dup3\n        /* \"#utility.yul\":15689:15701   */\n      add\n        /* \"#utility.yul\":15682:15701   */\n      swap1\n      pop\n        /* \"#utility.yul\":15341:15707   */\n      swap2\n      swap1\n      pop\n      jump\t// out\n        /* \"#utility.yul\":15713:16132   */\n    tag_164:\n        /* \"#utility.yul\":15879:15883   */\n      0x00\n        /* \"#utility.yul\":15917:15919   */\n      0x20\n        /* \"#utility.yul\":15906:15915   */\n      dup3\n        /* \"#utility.yul\":15902:15920   */\n      add\n        /* \"#utility.yul\":15894:15920   */\n      swap1\n      pop\n        /* \"#utility.yul\":15966:15975   */\n      dup2\n        /* \"#utility.yul\":15960:15964   */\n      dup2\n        /* \"#utility.yul\":15956:15976   */\n      sub\n        /* \"#utility.yul\":15952:15953   */\n      0x00\n        /* \"#utility.yul\":15941:15950   */\n      dup4\n        /* \"#utility.yul\":15937:15954   */\n      add\n        /* \"#utility.yul\":15930:15977   */\n      mstore\n        /* \"#utility.yul\":15994:16125   */\n      tag_373\n        /* \"#utility.yul\":16120:16124   */\n      dup2\n        /* \"#utility.yul\":15994:16125   */\n      tag_233\n      jump\t// in\n    tag_373:\n        /* \"#utility.yul\":15986:16125   */\n      swap1\n      pop\n        /* \"#utility.yul\":15713:16132   */\n      swap2\n      swap1\n      pop\n      jump\t// out\n        /* \"#utility.yul\":16138:16427   */\n    tag_234:\n        /* \"#utility.yul\":16278:16312   */\n      0x4d6f6e746f206d61796f7220616c206465706f7369746f20646973706f6e6962\n        /* \"#utility.yul\":16274:16275   */\n      0x00\n        /* \"#utility.yul\":16266:16272   */\n      dup3\n        /* \"#utility.yul\":16262:16276   */\n      add\n        /* \"#utility.yul\":16255:16313   */\n      mstore\n        /* \"#utility.yul\":16347:16381   */\n      0x6c6520706f7220656e63696d6120646520747520756c74696d61206f66657274\n        /* \"#utility.yul\":16342:16344   */\n      0x20\n        /* \"#utility.yul\":16334:16340   */\n      dup3\n        /* \"#utility.yul\":16330:16345   */\n      add\n        /* \"#utility.yul\":16323:16382   */\n      mstore\n        /* \"#utility.yul\":16416:16419   */\n      0x6100000000000000000000000000000000000000000000000000000000000000\n        /* \"#utility.yul\":16411:16413   */\n      0x40\n        /* \"#utility.yul\":16403:16409   */\n      dup3\n        /* \"#utility.yul\":16399:16414   */\n      add\n        /* \"#utility.yul\":16392:16420   */\n      mstore\n        /* \"#utility.yul\":16138:16427   */\n      pop\n      jump\t// out\n        /* \"#utility.yul\":16433:16799   */\n    tag_235:\n        /* \"#utility.yul\":16575:16578   */\n      0x00\n        /* \"#utility.yul\":16596:16663   */\n      tag_376\n        /* \"#utility.yul\":16660:16662   */\n      0x41\n        /* \"#utility.yul\":16655:16658   */\n      dup4\n        /* \"#utility.yul\":16596:16663   */\n      tag_215\n      jump\t// in\n    tag_376:\n        /* \"#utility.yul\":16589:16663   */\n      swap2\n      pop\n        /* \"#utility.yul\":16672:16765   */\n      tag_377\n        /* \"#utility.yul\":16761:16764   */\n      dup3\n        /* \"#utility.yul\":16672:16765   */\n      tag_234\n      jump\t// in\n    tag_377:\n        /* \"#utility.yul\":16790:16792   */\n      0x60\n        /* \"#utility.yul\":16785:16788   */\n      dup3\n        /* \"#utility.yul\":16781:16793   */\n      add\n        /* \"#utility.yul\":16774:16793   */\n      swap1\n      pop\n        /* \"#utility.yul\":16433:16799   */\n      swap2\n      swap1\n      pop\n      jump\t// out\n        /* \"#utility.yul\":16805:17224   */\n    tag_180:\n        /* \"#utility.yul\":16971:16975   */\n      0x00\n        /* \"#utility.yul\":17009:17011   */\n      0x20\n        /* \"#utility.yul\":16998:17007   */\n      dup3\n        /* \"#utility.yul\":16994:17012   */\n      add\n        /* \"#utility.yul\":16986:17012   */\n      swap1\n      pop\n        /* \"#utility.yul\":17058:17067   */\n      dup2\n        /* \"#utility.yul\":17052:17056   */\n      dup2\n        /* \"#utility.yul\":17048:17068   */\n      sub\n        /* \"#utility.yul\":17044:17045   */\n      0x00\n        /* \"#utility.yul\":17033:17042   */\n      dup4\n        /* \"#utility.yul\":17029:17046   */\n      add\n        /* \"#utility.yul\":17022:17069   */\n      mstore\n        /* \"#utility.yul\":17086:17217   */\n      tag_379\n        /* \"#utility.yul\":17212:17216   */\n      dup2\n        /* \"#utility.yul\":17086:17217   */\n      tag_235\n      jump\t// in\n    tag_379:\n        /* \"#utility.yul\":17078:17217   */\n      swap1\n      pop\n        /* \"#utility.yul\":16805:17224   */\n      swap2\n      swap1\n      pop\n      jump\t// out\n\n    auxdata: 0xa2646970667358221220f3d079f6d17d709e024f0b456b25df141a1a990937a3da01472b721e72277fee64736f6c63430008190033\n}\n",
				"bytecode": {
					"linkReferences": {},
					"object": "608060405263672b5a4060035562093a8060035461001d91906100e0565b6004556611c37937e08000600555610258600655610258600755600560085560026009555f600a5f6101000a81548160ff021916908315150217905550348015610065575f80fd5b50335f806101000a81548173ffffffffffffffffffffffffffffffffffffffff021916908373ffffffffffffffffffffffffffffffffffffffff160217905550610113565b5f819050919050565b7f4e487b71000000000000000000000000000000000000000000000000000000005f52601160045260245ffd5b5f6100ea826100aa565b91506100f5836100aa565b925082820190508082111561010d5761010c6100b3565b5b92915050565b611888806101205f395ff3fe60806040526004361061011e575f3560e01c8063723a978d1161009f578063e010707711610063578063e010707714610386578063f292b25d146103b0578063f4442c65146103da578063fbc0801614610404578063ffbfc1891461042e5761011e565b8063723a978d146102b3578063753dcaeb146102dd578063acfc9f9814610308578063b04f21fc14610332578063c442a99f1461035c5761011e565b806356afff7c116100e657806356afff7c146101be5780636401f67f146101fb578063664e62b91461022557806369ecf131146102615780636b595fbb146102895761011e565b80630851eac2146101225780631c33274f146101385780633dfa138d146101745780633ec059d71461019e5780635298a3c4146101a8575b5f80fd5b34801561012d575f80fd5b50610136610458565b005b348015610143575f80fd5b5061015e6004803603810190610159919061103f565b610659565b60405161016b9190611082565b60405180910390f35b34801561017f575f80fd5b5061018861066e565b60405161019591906110aa565b60405180910390f35b6101a6610691565b005b3480156101b3575f80fd5b506101bc610a99565b005b3480156101c9575f80fd5b506101e460048036038101906101df91906110ed565b610c22565b6040516101f2929190611118565b60405180910390f35b348015610206575f80fd5b5061020f610c70565b60405161021c9190611082565b60405180910390f35b348015610230575f80fd5b5061024b6004803603810190610246919061103f565b610c76565b6040516102589190611082565b60405180910390f35b34801561026c575f80fd5b50610287600480360381019061028291906110ed565b610c8b565b005b348015610294575f80fd5b5061029d610e49565b6040516102aa9190611082565b60405180910390f35b3480156102be575f80fd5b506102c7610e4f565b6040516102d49190611082565b60405180910390f35b3480156102e8575f80fd5b506102f1610e55565b6040516102ff929190611118565b60405180910390f35b348015610313575f80fd5b5061031c610ed2565b6040516103299190611082565b60405180910390f35b34801561033d575f80fd5b50610346610ed8565b6040516103539190611082565b60405180910390f35b348015610367575f80fd5b50610370610ede565b60405161037d9190611232565b60405180910390f35b348015610391575f80fd5b5061039a610f98565b6040516103a79190611082565b60405180910390f35b3480156103bb575f80fd5b506103c4610f9e565b6040516103d19190611082565b60405180910390f35b3480156103e5575f80fd5b506103ee610fa4565b6040516103fb91906110aa565b60405180910390f35b34801561040f575f80fd5b50610418610fc9565b6040516104259190611082565b60405180910390f35b348015610439575f80fd5b50610442610fcf565b60405161044f919061126c565b60405180910390f35b5f8054906101000a900473ffffffffffffffffffffffffffffffffffffffff1673ffffffffffffffffffffffffffffffffffffffff163373ffffffffffffffffffffffffffffffffffffffff16146104e5576040517f08c379a00000000000000000000000000000000000000000000000000000000081526004016104dc90611305565b60405180910390fd5b60035442101580156104f8575060045442105b610537576040517f08c379a000000000000000000000000000000000000000000000000000000000815260040161052e9061136d565b60405180910390fd5b60045442101561057c576040517f08c379a0000000000000000000000000000000000000000000000000000000008152600401610573906113d5565b60405180910390fd5b6001600a5f6101000a81548160ff0219169083151502179055507fa3a65b403bdae88eb037f4ecc1d619f436fc3ef6bcbbee3787757164e82883f260015f9054906101000a900473ffffffffffffffffffffffffffffffffffffffff166002546040516105ea929190611118565b60405180910390a15f8054906101000a900473ffffffffffffffffffffffffffffffffffffffff1673ffffffffffffffffffffffffffffffffffffffff166108fc60025490811502906040515f60405180830381858888f19350505050158015610656573d5f803e3d5ffd5b50565b600d602052805f5260405f205f915090505481565b5f8054906101000a900473ffffffffffffffffffffffffffffffffffffffff1681565b6003544210156106d6576040517f08c379a00000000000000000000000000000000000000000000000000000000081526004016106cd9061143d565b60405180910390fd5b60035442101580156106e9575060045442105b610728576040517f08c379a000000000000000000000000000000000000000000000000000000000815260040161071f9061136d565b60405180910390fd5b5f3490505f339050600554821015610775576040517f08c379a000000000000000000000000000000000000000000000000000000000815260040161076c906114cb565b60405180910390fd5b60646008546002546107879190611516565b6107919190611584565b60025461079e91906115b4565b8210156107e0576040517f08c379a00000000000000000000000000000000000000000000000000000000081526004016107d79061167d565b60405180910390fd5b5f73ffffffffffffffffffffffffffffffffffffffff1660015f9054906101000a900473ffffffffffffffffffffffffffffffffffffffff1673ffffffffffffffffffffffffffffffffffffffff16146108ab57600254600c5f60015f9054906101000a900473ffffffffffffffffffffffffffffffffffffffff1673ffffffffffffffffffffffffffffffffffffffff1673ffffffffffffffffffffffffffffffffffffffff1681526020019081526020015f205f8282546108a391906115b4565b925050819055505b8060015f6101000a81548173ffffffffffffffffffffffffffffffffffffffff021916908373ffffffffffffffffffffffffffffffffffffffff16021790555081600281905550600b60405180604001604052808373ffffffffffffffffffffffffffffffffffffffff16815260200184815250908060018154018082558091505060019003905f5260205f2090600202015f909190919091505f820151815f015f6101000a81548173ffffffffffffffffffffffffffffffffffffffff021916908373ffffffffffffffffffffffffffffffffffffffff16021790555060208201518160010155505081600c5f8373ffffffffffffffffffffffffffffffffffffffff1673ffffffffffffffffffffffffffffffffffffffff1681526020019081526020015f205f8282546109e191906115b4565b9250508190555081600d5f8373ffffffffffffffffffffffffffffffffffffffff1673ffffffffffffffffffffffffffffffffffffffff1681526020019081526020015f20819055507f155d469211f46e4d9ae974606f0878f9aacc6198ba30a1e6b9c8cf5627352fb58183604051610a5b929190611118565b60405180910390a1600754600454610a73919061169b565b421115610a955760065460045f828254610a8d91906115b4565b925050819055505b5050565b600a5f9054906101000a900460ff16610ae7576040517f08c379a0000000000000000000000000000000000000000000000000000000008152600401610ade90611718565b60405180910390fd5b5f3390505f600c5f8373ffffffffffffffffffffffffffffffffffffffff1673ffffffffffffffffffffffffffffffffffffffff1681526020019081526020015f205490505f8111610b6e576040517f08c379a0000000000000000000000000000000000000000000000000000000008152600401610b6590611780565b60405180910390fd5b5f60646009546064610b80919061169b565b83610b8b9190611516565b610b959190611584565b90508273ffffffffffffffffffffffffffffffffffffffff166108fc8290811502906040515f60405180830381858888f19350505050158015610bda573d5f803e3d5ffd5b505f600c5f8573ffffffffffffffffffffffffffffffffffffffff1673ffffffffffffffffffffffffffffffffffffffff1681526020019081526020015f2081905550505050565b600b8181548110610c31575f80fd5b905f5260205f2090600202015f91509050805f015f9054906101000a900473ffffffffffffffffffffffffffffffffffffffff16908060010154905082565b60045481565b600c602052805f5260405f205f915090505481565b6003544210158015610c9e575060045442105b610cdd576040517f08c379a0000000000000000000000000000000000000000000000000000000008152600401610cd49061136d565b60405180910390fd5b5f3390505f600d5f8373ffffffffffffffffffffffffffffffffffffffff1673ffffffffffffffffffffffffffffffffffffffff1681526020019081526020015f2054600c5f8473ffffffffffffffffffffffffffffffffffffffff1673ffffffffffffffffffffffffffffffffffffffff1681526020019081526020015f2054610d68919061169b565b905080831115610dad576040517f08c379a0000000000000000000000000000000000000000000000000000000008152600401610da490611834565b60405180910390fd5b82600c5f8473ffffffffffffffffffffffffffffffffffffffff1673ffffffffffffffffffffffffffffffffffffffff1681526020019081526020015f205f828254610df9919061169b565b925050819055508173ffffffffffffffffffffffffffffffffffffffff166108fc8490811502906040515f60405180830381858888f19350505050158015610e43573d5f803e3d5ffd5b50505050565b60085481565b60035481565b5f80600a5f9054906101000a900460ff16610ea5576040517f08c379a0000000000000000000000000000000000000000000000000000000008152600401610e9c90611718565b60405180910390fd5b60015f9054906101000a900473ffffffffffffffffffffffffffffffffffffffff16600254915091509091565b60025481565b60075481565b6060600b805480602002602001604051908101604052809291908181526020015f905b82821015610f8f578382905f5260205f2090600202016040518060400160405290815f82015f9054906101000a900473ffffffffffffffffffffffffffffffffffffffff1673ffffffffffffffffffffffffffffffffffffffff1673ffffffffffffffffffffffffffffffffffffffff16815260200160018201548152505081526020019060010190610f01565b50505050905090565b60055481565b60065481565b60015f9054906101000a900473ffffffffffffffffffffffffffffffffffffffff1681565b60095481565b600a5f9054906101000a900460ff1681565b5f80fd5b5f73ffffffffffffffffffffffffffffffffffffffff82169050919050565b5f61100e82610fe5565b9050919050565b61101e81611004565b8114611028575f80fd5b50565b5f8135905061103981611015565b92915050565b5f6020828403121561105457611053610fe1565b5b5f6110618482850161102b565b91505092915050565b5f819050919050565b61107c8161106a565b82525050565b5f6020820190506110955f830184611073565b92915050565b6110a481611004565b82525050565b5f6020820190506110bd5f83018461109b565b92915050565b6110cc8161106a565b81146110d6575f80fd5b50565b5f813590506110e7816110c3565b92915050565b5f6020828403121561110257611101610fe1565b5b5f61110f848285016110d9565b91505092915050565b5f60408201905061112b5f83018561109b565b6111386020830184611073565b9392505050565b5f81519050919050565b5f82825260208201905092915050565b5f819050602082019050919050565b61117181611004565b82525050565b6111808161106a565b82525050565b604082015f82015161119a5f850182611168565b5060208201516111ad6020850182611177565b50505050565b5f6111be8383611186565b60408301905092915050565b5f602082019050919050565b5f6111e08261113f565b6111ea8185611149565b93506111f583611159565b805f5b8381101561122557815161120c88826111b3565b9750611217836111ca565b9250506001810190506111f8565b5085935050505092915050565b5f6020820190508181035f83015261124a81846111d6565b905092915050565b5f8115159050919050565b61126681611252565b82525050565b5f60208201905061127f5f83018461125d565b92915050565b5f82825260208201905092915050565b7f536f6c6f20656c2073756261737461646f7220707565646520656a65637574615f8201527f7220657374612066756e63696f6e000000000000000000000000000000000000602082015250565b5f6112ef602e83611285565b91506112fa82611295565b604082019050919050565b5f6020820190508181035f83015261131c816112e3565b9050919050565b7f4c612073756261737461206e6f206573746120616374697661000000000000005f82015250565b5f611357601983611285565b915061136282611323565b602082019050919050565b5f6020820190508181035f8301526113848161134b565b9050919050565b7f4c6120737562617374612061756e206573746120656e20637572736f000000005f82015250565b5f6113bf601c83611285565b91506113ca8261138b565b602082019050919050565b5f6020820190508181035f8301526113ec816113b3565b9050919050565b7f4c6120737562617374612061756e206e6f20686120696e69636961646f0000005f82015250565b5f611427601d83611285565b9150611432826113f3565b602082019050919050565b5f6020820190508181035f8301526114548161141b565b9050919050565b7f4c61206f666572746120646562652073657220616c206d656e6f7320656c206d5f8201527f696e696d6f20646520302e303035204554480000000000000000000000000000602082015250565b5f6114b5603283611285565b91506114c08261145b565b604082019050919050565b5f6020820190508181035f8301526114e2816114a9565b9050919050565b7f4e487b71000000000000000000000000000000000000000000000000000000005f52601160045260245ffd5b5f6115208261106a565b915061152b8361106a565b92508282026115398161106a565b915082820484148315176115505761154f6114e9565b5b5092915050565b7f4e487b71000000000000000000000000000000000000000000000000000000005f52601260045260245ffd5b5f61158e8261106a565b91506115998361106a565b9250826115a9576115a8611557565b5b828204905092915050565b5f6115be8261106a565b91506115c98361106a565b92508282019050808211156115e1576115e06114e9565b5b92915050565b7f4c61206f666572746120646562652073657220616c206d656e6f7320756e20355f8201527f25206d61796f7220717565206c61206d656a6f72206f6665727461206163747560208201527f616c000000000000000000000000000000000000000000000000000000000000604082015250565b5f611667604283611285565b9150611672826115e7565b606082019050919050565b5f6020820190508181035f8301526116948161165b565b9050919050565b5f6116a58261106a565b91506116b08361106a565b92508282039050818111156116c8576116c76114e9565b5b92915050565b7f4c6120737562617374612061756e206e6f2068612066696e616c697a61646f005f82015250565b5f611702601f83611285565b915061170d826116ce565b602082019050919050565b5f6020820190508181035f83015261172f816116f6565b9050919050565b7f4e6f207469656e6573206465706f7369746f2070617261207265636c616d61725f82015250565b5f61176a602083611285565b915061177582611736565b602082019050919050565b5f6020820190508181035f8301526117978161175e565b9050919050565b7f4d6f6e746f206d61796f7220616c206465706f7369746f20646973706f6e69625f8201527f6c6520706f7220656e63696d6120646520747520756c74696d61206f6665727460208201527f6100000000000000000000000000000000000000000000000000000000000000604082015250565b5f61181e604183611285565b91506118298261179e565b606082019050919050565b5f6020820190508181035f83015261184b81611812565b905091905056fea2646970667358221220f3d079f6d17d709e024f0b456b25df141a1a990937a3da01472b721e72277fee64736f6c63430008190033",
					"opcodes": "PUSH1 0x80 PUSH1 0x40 MSTORE PUSH4 0x672B5A40 PUSH1 0x3 SSTORE PUSH3 0x93A80 PUSH1 0x3 SLOAD PUSH2 0x1D SWAP2 SWAP1 PUSH2 0xE0 JUMP JUMPDEST PUSH1 0x4 SSTORE PUSH7 0x11C37937E08000 PUSH1 0x5 SSTORE PUSH2 0x258 PUSH1 0x6 SSTORE PUSH2 0x258 PUSH1 0x7 SSTORE PUSH1 0x5 PUSH1 0x8 SSTORE PUSH1 0x2 PUSH1 0x9 SSTORE PUSH0 PUSH1 0xA PUSH0 PUSH2 0x100 EXP DUP2 SLOAD DUP2 PUSH1 0xFF MUL NOT AND SWAP1 DUP4 ISZERO ISZERO MUL OR SWAP1 SSTORE POP CALLVALUE DUP1 ISZERO PUSH2 0x65 JUMPI PUSH0 DUP1 REVERT JUMPDEST POP CALLER PUSH0 DUP1 PUSH2 0x100 EXP DUP2 SLOAD DUP2 PUSH20 0xFFFFFFFFFFFFFFFFFFFFFFFFFFFFFFFFFFFFFFFF MUL NOT AND SWAP1 DUP4 PUSH20 0xFFFFFFFFFFFFFFFFFFFFFFFFFFFFFFFFFFFFFFFF AND MUL OR SWAP1 SSTORE POP PUSH2 0x113 JUMP JUMPDEST PUSH0 DUP2 SWAP1 POP SWAP2 SWAP1 POP JUMP JUMPDEST PUSH32 0x4E487B7100000000000000000000000000000000000000000000000000000000 PUSH0 MSTORE PUSH1 0x11 PUSH1 0x4 MSTORE PUSH1 0x24 PUSH0 REVERT JUMPDEST PUSH0 PUSH2 0xEA DUP3 PUSH2 0xAA JUMP JUMPDEST SWAP2 POP PUSH2 0xF5 DUP4 PUSH2 0xAA JUMP JUMPDEST SWAP3 POP DUP3 DUP3 ADD SWAP1 POP DUP1 DUP3 GT ISZERO PUSH2 0x10D JUMPI PUSH2 0x10C PUSH2 0xB3 JUMP JUMPDEST JUMPDEST SWAP3 SWAP2 POP POP JUMP JUMPDEST PUSH2 0x1888 DUP1 PUSH2 0x120 PUSH0 CODECOPY PUSH0 RETURN INVALID PUSH1 0x80 PUSH1 0x40 MSTORE PUSH1 0x4 CALLDATASIZE LT PUSH2 0x11E JUMPI PUSH0 CALLDATALOAD PUSH1 0xE0 SHR DUP1 PUSH4 0x723A978D GT PUSH2 0x9F JUMPI DUP1 PUSH4 0xE0107077 GT PUSH2 0x63 JUMPI DUP1 PUSH4 0xE0107077 EQ PUSH2 0x386 JUMPI DUP1 PUSH4 0xF292B25D EQ PUSH2 0x3B0 JUMPI DUP1 PUSH4 0xF4442C65 EQ PUSH2 0x3DA JUMPI DUP1 PUSH4 0xFBC08016 EQ PUSH2 0x404 JUMPI DUP1 PUSH4 0xFFBFC189 EQ PUSH2 0x42E JUMPI PUSH2 0x11E JUMP JUMPDEST DUP1 PUSH4 0x723A978D EQ PUSH2 0x2B3 JUMPI DUP1 PUSH4 0x753DCAEB EQ PUSH2 0x2DD JUMPI DUP1 PUSH4 0xACFC9F98 EQ PUSH2 0x308 JUMPI DUP1 PUSH4 0xB04F21FC EQ PUSH2 0x332 JUMPI DUP1 PUSH4 0xC442A99F EQ PUSH2 0x35C JUMPI PUSH2 0x11E JUMP JUMPDEST DUP1 PUSH4 0x56AFFF7C GT PUSH2 0xE6 JUMPI DUP1 PUSH4 0x56AFFF7C EQ PUSH2 0x1BE JUMPI DUP1 PUSH4 0x6401F67F EQ PUSH2 0x1FB JUMPI DUP1 PUSH4 0x664E62B9 EQ PUSH2 0x225 JUMPI DUP1 PUSH4 0x69ECF131 EQ PUSH2 0x261 JUMPI DUP1 PUSH4 0x6B595FBB EQ PUSH2 0x289 JUMPI PUSH2 0x11E JUMP JUMPDEST DUP1 PUSH4 0x851EAC2 EQ PUSH2 0x122 JUMPI DUP1 PUSH4 0x1C33274F EQ PUSH2 0x138 JUMPI DUP1 PUSH4 0x3DFA138D EQ PUSH2 0x174 JUMPI DUP1 PUSH4 0x3EC059D7 EQ PUSH2 0x19E JUMPI DUP1 PUSH4 0x5298A3C4 EQ PUSH2 0x1A8 JUMPI JUMPDEST PUSH0 DUP1 REVERT JUMPDEST CALLVALUE DUP1 ISZERO PUSH2 0x12D JUMPI PUSH0 DUP1 REVERT JUMPDEST POP PUSH2 0x136 PUSH2 0x458 JUMP JUMPDEST STOP JUMPDEST CALLVALUE DUP1 ISZERO PUSH2 0x143 JUMPI PUSH0 DUP1 REVERT JUMPDEST POP PUSH2 0x15E PUSH1 0x4 DUP1 CALLDATASIZE SUB DUP2 ADD SWAP1 PUSH2 0x159 SWAP2 SWAP1 PUSH2 0x103F JUMP JUMPDEST PUSH2 0x659 JUMP JUMPDEST PUSH1 0x40 MLOAD PUSH2 0x16B SWAP2 SWAP1 PUSH2 0x1082 JUMP JUMPDEST PUSH1 0x40 MLOAD DUP1 SWAP2 SUB SWAP1 RETURN JUMPDEST CALLVALUE DUP1 ISZERO PUSH2 0x17F JUMPI PUSH0 DUP1 REVERT JUMPDEST POP PUSH2 0x188 PUSH2 0x66E JUMP JUMPDEST PUSH1 0x40 MLOAD PUSH2 0x195 SWAP2 SWAP1 PUSH2 0x10AA JUMP JUMPDEST PUSH1 0x40 MLOAD DUP1 SWAP2 SUB SWAP1 RETURN JUMPDEST PUSH2 0x1A6 PUSH2 0x691 JUMP JUMPDEST STOP JUMPDEST CALLVALUE DUP1 ISZERO PUSH2 0x1B3 JUMPI PUSH0 DUP1 REVERT JUMPDEST POP PUSH2 0x1BC PUSH2 0xA99 JUMP JUMPDEST STOP JUMPDEST CALLVALUE DUP1 ISZERO PUSH2 0x1C9 JUMPI PUSH0 DUP1 REVERT JUMPDEST POP PUSH2 0x1E4 PUSH1 0x4 DUP1 CALLDATASIZE SUB DUP2 ADD SWAP1 PUSH2 0x1DF SWAP2 SWAP1 PUSH2 0x10ED JUMP JUMPDEST PUSH2 0xC22 JUMP JUMPDEST PUSH1 0x40 MLOAD PUSH2 0x1F2 SWAP3 SWAP2 SWAP1 PUSH2 0x1118 JUMP JUMPDEST PUSH1 0x40 MLOAD DUP1 SWAP2 SUB SWAP1 RETURN JUMPDEST CALLVALUE DUP1 ISZERO PUSH2 0x206 JUMPI PUSH0 DUP1 REVERT JUMPDEST POP PUSH2 0x20F PUSH2 0xC70 JUMP JUMPDEST PUSH1 0x40 MLOAD PUSH2 0x21C SWAP2 SWAP1 PUSH2 0x1082 JUMP JUMPDEST PUSH1 0x40 MLOAD DUP1 SWAP2 SUB SWAP1 RETURN JUMPDEST CALLVALUE DUP1 ISZERO PUSH2 0x230 JUMPI PUSH0 DUP1 REVERT JUMPDEST POP PUSH2 0x24B PUSH1 0x4 DUP1 CALLDATASIZE SUB DUP2 ADD SWAP1 PUSH2 0x246 SWAP2 SWAP1 PUSH2 0x103F JUMP JUMPDEST PUSH2 0xC76 JUMP JUMPDEST PUSH1 0x40 MLOAD PUSH2 0x258 SWAP2 SWAP1 PUSH2 0x1082 JUMP JUMPDEST PUSH1 0x40 MLOAD DUP1 SWAP2 SUB SWAP1 RETURN JUMPDEST CALLVALUE DUP1 ISZERO PUSH2 0x26C JUMPI PUSH0 DUP1 REVERT JUMPDEST POP PUSH2 0x287 PUSH1 0x4 DUP1 CALLDATASIZE SUB DUP2 ADD SWAP1 PUSH2 0x282 SWAP2 SWAP1 PUSH2 0x10ED JUMP JUMPDEST PUSH2 0xC8B JUMP JUMPDEST STOP JUMPDEST CALLVALUE DUP1 ISZERO PUSH2 0x294 JUMPI PUSH0 DUP1 REVERT JUMPDEST POP PUSH2 0x29D PUSH2 0xE49 JUMP JUMPDEST PUSH1 0x40 MLOAD PUSH2 0x2AA SWAP2 SWAP1 PUSH2 0x1082 JUMP JUMPDEST PUSH1 0x40 MLOAD DUP1 SWAP2 SUB SWAP1 RETURN JUMPDEST CALLVALUE DUP1 ISZERO PUSH2 0x2BE JUMPI PUSH0 DUP1 REVERT JUMPDEST POP PUSH2 0x2C7 PUSH2 0xE4F JUMP JUMPDEST PUSH1 0x40 MLOAD PUSH2 0x2D4 SWAP2 SWAP1 PUSH2 0x1082 JUMP JUMPDEST PUSH1 0x40 MLOAD DUP1 SWAP2 SUB SWAP1 RETURN JUMPDEST CALLVALUE DUP1 ISZERO PUSH2 0x2E8 JUMPI PUSH0 DUP1 REVERT JUMPDEST POP PUSH2 0x2F1 PUSH2 0xE55 JUMP JUMPDEST PUSH1 0x40 MLOAD PUSH2 0x2FF SWAP3 SWAP2 SWAP1 PUSH2 0x1118 JUMP JUMPDEST PUSH1 0x40 MLOAD DUP1 SWAP2 SUB SWAP1 RETURN JUMPDEST CALLVALUE DUP1 ISZERO PUSH2 0x313 JUMPI PUSH0 DUP1 REVERT JUMPDEST POP PUSH2 0x31C PUSH2 0xED2 JUMP JUMPDEST PUSH1 0x40 MLOAD PUSH2 0x329 SWAP2 SWAP1 PUSH2 0x1082 JUMP JUMPDEST PUSH1 0x40 MLOAD DUP1 SWAP2 SUB SWAP1 RETURN JUMPDEST CALLVALUE DUP1 ISZERO PUSH2 0x33D JUMPI PUSH0 DUP1 REVERT JUMPDEST POP PUSH2 0x346 PUSH2 0xED8 JUMP JUMPDEST PUSH1 0x40 MLOAD PUSH2 0x353 SWAP2 SWAP1 PUSH2 0x1082 JUMP JUMPDEST PUSH1 0x40 MLOAD DUP1 SWAP2 SUB SWAP1 RETURN JUMPDEST CALLVALUE DUP1 ISZERO PUSH2 0x367 JUMPI PUSH0 DUP1 REVERT JUMPDEST POP PUSH2 0x370 PUSH2 0xEDE JUMP JUMPDEST PUSH1 0x40 MLOAD PUSH2 0x37D SWAP2 SWAP1 PUSH2 0x1232 JUMP JUMPDEST PUSH1 0x40 MLOAD DUP1 SWAP2 SUB SWAP1 RETURN JUMPDEST CALLVALUE DUP1 ISZERO PUSH2 0x391 JUMPI PUSH0 DUP1 REVERT JUMPDEST POP PUSH2 0x39A PUSH2 0xF98 JUMP JUMPDEST PUSH1 0x40 MLOAD PUSH2 0x3A7 SWAP2 SWAP1 PUSH2 0x1082 JUMP JUMPDEST PUSH1 0x40 MLOAD DUP1 SWAP2 SUB SWAP1 RETURN JUMPDEST CALLVALUE DUP1 ISZERO PUSH2 0x3BB JUMPI PUSH0 DUP1 REVERT JUMPDEST POP PUSH2 0x3C4 PUSH2 0xF9E JUMP JUMPDEST PUSH1 0x40 MLOAD PUSH2 0x3D1 SWAP2 SWAP1 PUSH2 0x1082 JUMP JUMPDEST PUSH1 0x40 MLOAD DUP1 SWAP2 SUB SWAP1 RETURN JUMPDEST CALLVALUE DUP1 ISZERO PUSH2 0x3E5 JUMPI PUSH0 DUP1 REVERT JUMPDEST POP PUSH2 0x3EE PUSH2 0xFA4 JUMP JUMPDEST PUSH1 0x40 MLOAD PUSH2 0x3FB SWAP2 SWAP1 PUSH2 0x10AA JUMP JUMPDEST PUSH1 0x40 MLOAD DUP1 SWAP2 SUB SWAP1 RETURN JUMPDEST CALLVALUE DUP1 ISZERO PUSH2 0x40F JUMPI PUSH0 DUP1 REVERT JUMPDEST POP PUSH2 0x418 PUSH2 0xFC9 JUMP JUMPDEST PUSH1 0x40 MLOAD PUSH2 0x425 SWAP2 SWAP1 PUSH2 0x1082 JUMP JUMPDEST PUSH1 0x40 MLOAD DUP1 SWAP2 SUB SWAP1 RETURN JUMPDEST CALLVALUE DUP1 ISZERO PUSH2 0x439 JUMPI PUSH0 DUP1 REVERT JUMPDEST POP PUSH2 0x442 PUSH2 0xFCF JUMP JUMPDEST PUSH1 0x40 MLOAD PUSH2 0x44F SWAP2 SWAP1 PUSH2 0x126C JUMP JUMPDEST PUSH1 0x40 MLOAD DUP1 SWAP2 SUB SWAP1 RETURN JUMPDEST PUSH0 DUP1 SLOAD SWAP1 PUSH2 0x100 EXP SWAP1 DIV PUSH20 0xFFFFFFFFFFFFFFFFFFFFFFFFFFFFFFFFFFFFFFFF AND PUSH20 0xFFFFFFFFFFFFFFFFFFFFFFFFFFFFFFFFFFFFFFFF AND CALLER PUSH20 0xFFFFFFFFFFFFFFFFFFFFFFFFFFFFFFFFFFFFFFFF AND EQ PUSH2 0x4E5 JUMPI PUSH1 0x40 MLOAD PUSH32 0x8C379A000000000000000000000000000000000000000000000000000000000 DUP2 MSTORE PUSH1 0x4 ADD PUSH2 0x4DC SWAP1 PUSH2 0x1305 JUMP JUMPDEST PUSH1 0x40 MLOAD DUP1 SWAP2 SUB SWAP1 REVERT JUMPDEST PUSH1 0x3 SLOAD TIMESTAMP LT ISZERO DUP1 ISZERO PUSH2 0x4F8 JUMPI POP PUSH1 0x4 SLOAD TIMESTAMP LT JUMPDEST PUSH2 0x537 JUMPI PUSH1 0x40 MLOAD PUSH32 0x8C379A000000000000000000000000000000000000000000000000000000000 DUP2 MSTORE PUSH1 0x4 ADD PUSH2 0x52E SWAP1 PUSH2 0x136D JUMP JUMPDEST PUSH1 0x40 MLOAD DUP1 SWAP2 SUB SWAP1 REVERT JUMPDEST PUSH1 0x4 SLOAD TIMESTAMP LT ISZERO PUSH2 0x57C JUMPI PUSH1 0x40 MLOAD PUSH32 0x8C379A000000000000000000000000000000000000000000000000000000000 DUP2 MSTORE PUSH1 0x4 ADD PUSH2 0x573 SWAP1 PUSH2 0x13D5 JUMP JUMPDEST PUSH1 0x40 MLOAD DUP1 SWAP2 SUB SWAP1 REVERT JUMPDEST PUSH1 0x1 PUSH1 0xA PUSH0 PUSH2 0x100 EXP DUP2 SLOAD DUP2 PUSH1 0xFF MUL NOT AND SWAP1 DUP4 ISZERO ISZERO MUL OR SWAP1 SSTORE POP PUSH32 0xA3A65B403BDAE88EB037F4ECC1D619F436FC3EF6BCBBEE3787757164E82883F2 PUSH1 0x1 PUSH0 SWAP1 SLOAD SWAP1 PUSH2 0x100 EXP SWAP1 DIV PUSH20 0xFFFFFFFFFFFFFFFFFFFFFFFFFFFFFFFFFFFFFFFF AND PUSH1 0x2 SLOAD PUSH1 0x40 MLOAD PUSH2 0x5EA SWAP3 SWAP2 SWAP1 PUSH2 0x1118 JUMP JUMPDEST PUSH1 0x40 MLOAD DUP1 SWAP2 SUB SWAP1 LOG1 PUSH0 DUP1 SLOAD SWAP1 PUSH2 0x100 EXP SWAP1 DIV PUSH20 0xFFFFFFFFFFFFFFFFFFFFFFFFFFFFFFFFFFFFFFFF AND PUSH20 0xFFFFFFFFFFFFFFFFFFFFFFFFFFFFFFFFFFFFFFFF AND PUSH2 0x8FC PUSH1 0x2 SLOAD SWAP1 DUP2 ISZERO MUL SWAP1 PUSH1 0x40 MLOAD PUSH0 PUSH1 0x40 MLOAD DUP1 DUP4 SUB DUP2 DUP6 DUP9 DUP9 CALL SWAP4 POP POP POP POP ISZERO DUP1 ISZERO PUSH2 0x656 JUMPI RETURNDATASIZE PUSH0 DUP1 RETURNDATACOPY RETURNDATASIZE PUSH0 REVERT JUMPDEST POP JUMP JUMPDEST PUSH1 0xD PUSH1 0x20 MSTORE DUP1 PUSH0 MSTORE PUSH1 0x40 PUSH0 KECCAK256 PUSH0 SWAP2 POP SWAP1 POP SLOAD DUP2 JUMP JUMPDEST PUSH0 DUP1 SLOAD SWAP1 PUSH2 0x100 EXP SWAP1 DIV PUSH20 0xFFFFFFFFFFFFFFFFFFFFFFFFFFFFFFFFFFFFFFFF AND DUP2 JUMP JUMPDEST PUSH1 0x3 SLOAD TIMESTAMP LT ISZERO PUSH2 0x6D6 JUMPI PUSH1 0x40 MLOAD PUSH32 0x8C379A000000000000000000000000000000000000000000000000000000000 DUP2 MSTORE PUSH1 0x4 ADD PUSH2 0x6CD SWAP1 PUSH2 0x143D JUMP JUMPDEST PUSH1 0x40 MLOAD DUP1 SWAP2 SUB SWAP1 REVERT JUMPDEST PUSH1 0x3 SLOAD TIMESTAMP LT ISZERO DUP1 ISZERO PUSH2 0x6E9 JUMPI POP PUSH1 0x4 SLOAD TIMESTAMP LT JUMPDEST PUSH2 0x728 JUMPI PUSH1 0x40 MLOAD PUSH32 0x8C379A000000000000000000000000000000000000000000000000000000000 DUP2 MSTORE PUSH1 0x4 ADD PUSH2 0x71F SWAP1 PUSH2 0x136D JUMP JUMPDEST PUSH1 0x40 MLOAD DUP1 SWAP2 SUB SWAP1 REVERT JUMPDEST PUSH0 CALLVALUE SWAP1 POP PUSH0 CALLER SWAP1 POP PUSH1 0x5 SLOAD DUP3 LT ISZERO PUSH2 0x775 JUMPI PUSH1 0x40 MLOAD PUSH32 0x8C379A000000000000000000000000000000000000000000000000000000000 DUP2 MSTORE PUSH1 0x4 ADD PUSH2 0x76C SWAP1 PUSH2 0x14CB JUMP JUMPDEST PUSH1 0x40 MLOAD DUP1 SWAP2 SUB SWAP1 REVERT JUMPDEST PUSH1 0x64 PUSH1 0x8 SLOAD PUSH1 0x2 SLOAD PUSH2 0x787 SWAP2 SWAP1 PUSH2 0x1516 JUMP JUMPDEST PUSH2 0x791 SWAP2 SWAP1 PUSH2 0x1584 JUMP JUMPDEST PUSH1 0x2 SLOAD PUSH2 0x79E SWAP2 SWAP1 PUSH2 0x15B4 JUMP JUMPDEST DUP3 LT ISZERO PUSH2 0x7E0 JUMPI PUSH1 0x40 MLOAD PUSH32 0x8C379A000000000000000000000000000000000000000000000000000000000 DUP2 MSTORE PUSH1 0x4 ADD PUSH2 0x7D7 SWAP1 PUSH2 0x167D JUMP JUMPDEST PUSH1 0x40 MLOAD DUP1 SWAP2 SUB SWAP1 REVERT JUMPDEST PUSH0 PUSH20 0xFFFFFFFFFFFFFFFFFFFFFFFFFFFFFFFFFFFFFFFF AND PUSH1 0x1 PUSH0 SWAP1 SLOAD SWAP1 PUSH2 0x100 EXP SWAP1 DIV PUSH20 0xFFFFFFFFFFFFFFFFFFFFFFFFFFFFFFFFFFFFFFFF AND PUSH20 0xFFFFFFFFFFFFFFFFFFFFFFFFFFFFFFFFFFFFFFFF AND EQ PUSH2 0x8AB JUMPI PUSH1 0x2 SLOAD PUSH1 0xC PUSH0 PUSH1 0x1 PUSH0 SWAP1 SLOAD SWAP1 PUSH2 0x100 EXP SWAP1 DIV PUSH20 0xFFFFFFFFFFFFFFFFFFFFFFFFFFFFFFFFFFFFFFFF AND PUSH20 0xFFFFFFFFFFFFFFFFFFFFFFFFFFFFFFFFFFFFFFFF AND PUSH20 0xFFFFFFFFFFFFFFFFFFFFFFFFFFFFFFFFFFFFFFFF AND DUP2 MSTORE PUSH1 0x20 ADD SWAP1 DUP2 MSTORE PUSH1 0x20 ADD PUSH0 KECCAK256 PUSH0 DUP3 DUP3 SLOAD PUSH2 0x8A3 SWAP2 SWAP1 PUSH2 0x15B4 JUMP JUMPDEST SWAP3 POP POP DUP2 SWAP1 SSTORE POP JUMPDEST DUP1 PUSH1 0x1 PUSH0 PUSH2 0x100 EXP DUP2 SLOAD DUP2 PUSH20 0xFFFFFFFFFFFFFFFFFFFFFFFFFFFFFFFFFFFFFFFF MUL NOT AND SWAP1 DUP4 PUSH20 0xFFFFFFFFFFFFFFFFFFFFFFFFFFFFFFFFFFFFFFFF AND MUL OR SWAP1 SSTORE POP DUP2 PUSH1 0x2 DUP2 SWAP1 SSTORE POP PUSH1 0xB PUSH1 0x40 MLOAD DUP1 PUSH1 0x40 ADD PUSH1 0x40 MSTORE DUP1 DUP4 PUSH20 0xFFFFFFFFFFFFFFFFFFFFFFFFFFFFFFFFFFFFFFFF AND DUP2 MSTORE PUSH1 0x20 ADD DUP5 DUP2 MSTORE POP SWAP1 DUP1 PUSH1 0x1 DUP2 SLOAD ADD DUP1 DUP3 SSTORE DUP1 SWAP2 POP POP PUSH1 0x1 SWAP1 SUB SWAP1 PUSH0 MSTORE PUSH1 0x20 PUSH0 KECCAK256 SWAP1 PUSH1 0x2 MUL ADD PUSH0 SWAP1 SWAP2 SWAP1 SWAP2 SWAP1 SWAP2 POP PUSH0 DUP3 ADD MLOAD DUP2 PUSH0 ADD PUSH0 PUSH2 0x100 EXP DUP2 SLOAD DUP2 PUSH20 0xFFFFFFFFFFFFFFFFFFFFFFFFFFFFFFFFFFFFFFFF MUL NOT AND SWAP1 DUP4 PUSH20 0xFFFFFFFFFFFFFFFFFFFFFFFFFFFFFFFFFFFFFFFF AND MUL OR SWAP1 SSTORE POP PUSH1 0x20 DUP3 ADD MLOAD DUP2 PUSH1 0x1 ADD SSTORE POP POP DUP2 PUSH1 0xC PUSH0 DUP4 PUSH20 0xFFFFFFFFFFFFFFFFFFFFFFFFFFFFFFFFFFFFFFFF AND PUSH20 0xFFFFFFFFFFFFFFFFFFFFFFFFFFFFFFFFFFFFFFFF AND DUP2 MSTORE PUSH1 0x20 ADD SWAP1 DUP2 MSTORE PUSH1 0x20 ADD PUSH0 KECCAK256 PUSH0 DUP3 DUP3 SLOAD PUSH2 0x9E1 SWAP2 SWAP1 PUSH2 0x15B4 JUMP JUMPDEST SWAP3 POP POP DUP2 SWAP1 SSTORE POP DUP2 PUSH1 0xD PUSH0 DUP4 PUSH20 0xFFFFFFFFFFFFFFFFFFFFFFFFFFFFFFFFFFFFFFFF AND PUSH20 0xFFFFFFFFFFFFFFFFFFFFFFFFFFFFFFFFFFFFFFFF AND DUP2 MSTORE PUSH1 0x20 ADD SWAP1 DUP2 MSTORE PUSH1 0x20 ADD PUSH0 KECCAK256 DUP2 SWAP1 SSTORE POP PUSH32 0x155D469211F46E4D9AE974606F0878F9AACC6198BA30A1E6B9C8CF5627352FB5 DUP2 DUP4 PUSH1 0x40 MLOAD PUSH2 0xA5B SWAP3 SWAP2 SWAP1 PUSH2 0x1118 JUMP JUMPDEST PUSH1 0x40 MLOAD DUP1 SWAP2 SUB SWAP1 LOG1 PUSH1 0x7 SLOAD PUSH1 0x4 SLOAD PUSH2 0xA73 SWAP2 SWAP1 PUSH2 0x169B JUMP JUMPDEST TIMESTAMP GT ISZERO PUSH2 0xA95 JUMPI PUSH1 0x6 SLOAD PUSH1 0x4 PUSH0 DUP3 DUP3 SLOAD PUSH2 0xA8D SWAP2 SWAP1 PUSH2 0x15B4 JUMP JUMPDEST SWAP3 POP POP DUP2 SWAP1 SSTORE POP JUMPDEST POP POP JUMP JUMPDEST PUSH1 0xA PUSH0 SWAP1 SLOAD SWAP1 PUSH2 0x100 EXP SWAP1 DIV PUSH1 0xFF AND PUSH2 0xAE7 JUMPI PUSH1 0x40 MLOAD PUSH32 0x8C379A000000000000000000000000000000000000000000000000000000000 DUP2 MSTORE PUSH1 0x4 ADD PUSH2 0xADE SWAP1 PUSH2 0x1718 JUMP JUMPDEST PUSH1 0x40 MLOAD DUP1 SWAP2 SUB SWAP1 REVERT JUMPDEST PUSH0 CALLER SWAP1 POP PUSH0 PUSH1 0xC PUSH0 DUP4 PUSH20 0xFFFFFFFFFFFFFFFFFFFFFFFFFFFFFFFFFFFFFFFF AND PUSH20 0xFFFFFFFFFFFFFFFFFFFFFFFFFFFFFFFFFFFFFFFF AND DUP2 MSTORE PUSH1 0x20 ADD SWAP1 DUP2 MSTORE PUSH1 0x20 ADD PUSH0 KECCAK256 SLOAD SWAP1 POP PUSH0 DUP2 GT PUSH2 0xB6E JUMPI PUSH1 0x40 MLOAD PUSH32 0x8C379A000000000000000000000000000000000000000000000000000000000 DUP2 MSTORE PUSH1 0x4 ADD PUSH2 0xB65 SWAP1 PUSH2 0x1780 JUMP JUMPDEST PUSH1 0x40 MLOAD DUP1 SWAP2 SUB SWAP1 REVERT JUMPDEST PUSH0 PUSH1 0x64 PUSH1 0x9 SLOAD PUSH1 0x64 PUSH2 0xB80 SWAP2 SWAP1 PUSH2 0x169B JUMP JUMPDEST DUP4 PUSH2 0xB8B SWAP2 SWAP1 PUSH2 0x1516 JUMP JUMPDEST PUSH2 0xB95 SWAP2 SWAP1 PUSH2 0x1584 JUMP JUMPDEST SWAP1 POP DUP3 PUSH20 0xFFFFFFFFFFFFFFFFFFFFFFFFFFFFFFFFFFFFFFFF AND PUSH2 0x8FC DUP3 SWAP1 DUP2 ISZERO MUL SWAP1 PUSH1 0x40 MLOAD PUSH0 PUSH1 0x40 MLOAD DUP1 DUP4 SUB DUP2 DUP6 DUP9 DUP9 CALL SWAP4 POP POP POP POP ISZERO DUP1 ISZERO PUSH2 0xBDA JUMPI RETURNDATASIZE PUSH0 DUP1 RETURNDATACOPY RETURNDATASIZE PUSH0 REVERT JUMPDEST POP PUSH0 PUSH1 0xC PUSH0 DUP6 PUSH20 0xFFFFFFFFFFFFFFFFFFFFFFFFFFFFFFFFFFFFFFFF AND PUSH20 0xFFFFFFFFFFFFFFFFFFFFFFFFFFFFFFFFFFFFFFFF AND DUP2 MSTORE PUSH1 0x20 ADD SWAP1 DUP2 MSTORE PUSH1 0x20 ADD PUSH0 KECCAK256 DUP2 SWAP1 SSTORE POP POP POP POP JUMP JUMPDEST PUSH1 0xB DUP2 DUP2 SLOAD DUP2 LT PUSH2 0xC31 JUMPI PUSH0 DUP1 REVERT JUMPDEST SWAP1 PUSH0 MSTORE PUSH1 0x20 PUSH0 KECCAK256 SWAP1 PUSH1 0x2 MUL ADD PUSH0 SWAP2 POP SWAP1 POP DUP1 PUSH0 ADD PUSH0 SWAP1 SLOAD SWAP1 PUSH2 0x100 EXP SWAP1 DIV PUSH20 0xFFFFFFFFFFFFFFFFFFFFFFFFFFFFFFFFFFFFFFFF AND SWAP1 DUP1 PUSH1 0x1 ADD SLOAD SWAP1 POP DUP3 JUMP JUMPDEST PUSH1 0x4 SLOAD DUP2 JUMP JUMPDEST PUSH1 0xC PUSH1 0x20 MSTORE DUP1 PUSH0 MSTORE PUSH1 0x40 PUSH0 KECCAK256 PUSH0 SWAP2 POP SWAP1 POP SLOAD DUP2 JUMP JUMPDEST PUSH1 0x3 SLOAD TIMESTAMP LT ISZERO DUP1 ISZERO PUSH2 0xC9E JUMPI POP PUSH1 0x4 SLOAD TIMESTAMP LT JUMPDEST PUSH2 0xCDD JUMPI PUSH1 0x40 MLOAD PUSH32 0x8C379A000000000000000000000000000000000000000000000000000000000 DUP2 MSTORE PUSH1 0x4 ADD PUSH2 0xCD4 SWAP1 PUSH2 0x136D JUMP JUMPDEST PUSH1 0x40 MLOAD DUP1 SWAP2 SUB SWAP1 REVERT JUMPDEST PUSH0 CALLER SWAP1 POP PUSH0 PUSH1 0xD PUSH0 DUP4 PUSH20 0xFFFFFFFFFFFFFFFFFFFFFFFFFFFFFFFFFFFFFFFF AND PUSH20 0xFFFFFFFFFFFFFFFFFFFFFFFFFFFFFFFFFFFFFFFF AND DUP2 MSTORE PUSH1 0x20 ADD SWAP1 DUP2 MSTORE PUSH1 0x20 ADD PUSH0 KECCAK256 SLOAD PUSH1 0xC PUSH0 DUP5 PUSH20 0xFFFFFFFFFFFFFFFFFFFFFFFFFFFFFFFFFFFFFFFF AND PUSH20 0xFFFFFFFFFFFFFFFFFFFFFFFFFFFFFFFFFFFFFFFF AND DUP2 MSTORE PUSH1 0x20 ADD SWAP1 DUP2 MSTORE PUSH1 0x20 ADD PUSH0 KECCAK256 SLOAD PUSH2 0xD68 SWAP2 SWAP1 PUSH2 0x169B JUMP JUMPDEST SWAP1 POP DUP1 DUP4 GT ISZERO PUSH2 0xDAD JUMPI PUSH1 0x40 MLOAD PUSH32 0x8C379A000000000000000000000000000000000000000000000000000000000 DUP2 MSTORE PUSH1 0x4 ADD PUSH2 0xDA4 SWAP1 PUSH2 0x1834 JUMP JUMPDEST PUSH1 0x40 MLOAD DUP1 SWAP2 SUB SWAP1 REVERT JUMPDEST DUP3 PUSH1 0xC PUSH0 DUP5 PUSH20 0xFFFFFFFFFFFFFFFFFFFFFFFFFFFFFFFFFFFFFFFF AND PUSH20 0xFFFFFFFFFFFFFFFFFFFFFFFFFFFFFFFFFFFFFFFF AND DUP2 MSTORE PUSH1 0x20 ADD SWAP1 DUP2 MSTORE PUSH1 0x20 ADD PUSH0 KECCAK256 PUSH0 DUP3 DUP3 SLOAD PUSH2 0xDF9 SWAP2 SWAP1 PUSH2 0x169B JUMP JUMPDEST SWAP3 POP POP DUP2 SWAP1 SSTORE POP DUP2 PUSH20 0xFFFFFFFFFFFFFFFFFFFFFFFFFFFFFFFFFFFFFFFF AND PUSH2 0x8FC DUP5 SWAP1 DUP2 ISZERO MUL SWAP1 PUSH1 0x40 MLOAD PUSH0 PUSH1 0x40 MLOAD DUP1 DUP4 SUB DUP2 DUP6 DUP9 DUP9 CALL SWAP4 POP POP POP POP ISZERO DUP1 ISZERO PUSH2 0xE43 JUMPI RETURNDATASIZE PUSH0 DUP1 RETURNDATACOPY RETURNDATASIZE PUSH0 REVERT JUMPDEST POP POP POP POP JUMP JUMPDEST PUSH1 0x8 SLOAD DUP2 JUMP JUMPDEST PUSH1 0x3 SLOAD DUP2 JUMP JUMPDEST PUSH0 DUP1 PUSH1 0xA PUSH0 SWAP1 SLOAD SWAP1 PUSH2 0x100 EXP SWAP1 DIV PUSH1 0xFF AND PUSH2 0xEA5 JUMPI PUSH1 0x40 MLOAD PUSH32 0x8C379A000000000000000000000000000000000000000000000000000000000 DUP2 MSTORE PUSH1 0x4 ADD PUSH2 0xE9C SWAP1 PUSH2 0x1718 JUMP JUMPDEST PUSH1 0x40 MLOAD DUP1 SWAP2 SUB SWAP1 REVERT JUMPDEST PUSH1 0x1 PUSH0 SWAP1 SLOAD SWAP1 PUSH2 0x100 EXP SWAP1 DIV PUSH20 0xFFFFFFFFFFFFFFFFFFFFFFFFFFFFFFFFFFFFFFFF AND PUSH1 0x2 SLOAD SWAP2 POP SWAP2 POP SWAP1 SWAP2 JUMP JUMPDEST PUSH1 0x2 SLOAD DUP2 JUMP JUMPDEST PUSH1 0x7 SLOAD DUP2 JUMP JUMPDEST PUSH1 0x60 PUSH1 0xB DUP1 SLOAD DUP1 PUSH1 0x20 MUL PUSH1 0x20 ADD PUSH1 0x40 MLOAD SWAP1 DUP2 ADD PUSH1 0x40 MSTORE DUP1 SWAP3 SWAP2 SWAP1 DUP2 DUP2 MSTORE PUSH1 0x20 ADD PUSH0 SWAP1 JUMPDEST DUP3 DUP3 LT ISZERO PUSH2 0xF8F JUMPI DUP4 DUP3 SWAP1 PUSH0 MSTORE PUSH1 0x20 PUSH0 KECCAK256 SWAP1 PUSH1 0x2 MUL ADD PUSH1 0x40 MLOAD DUP1 PUSH1 0x40 ADD PUSH1 0x40 MSTORE SWAP1 DUP2 PUSH0 DUP3 ADD PUSH0 SWAP1 SLOAD SWAP1 PUSH2 0x100 EXP SWAP1 DIV PUSH20 0xFFFFFFFFFFFFFFFFFFFFFFFFFFFFFFFFFFFFFFFF AND PUSH20 0xFFFFFFFFFFFFFFFFFFFFFFFFFFFFFFFFFFFFFFFF AND PUSH20 0xFFFFFFFFFFFFFFFFFFFFFFFFFFFFFFFFFFFFFFFF AND DUP2 MSTORE PUSH1 0x20 ADD PUSH1 0x1 DUP3 ADD SLOAD DUP2 MSTORE POP POP DUP2 MSTORE PUSH1 0x20 ADD SWAP1 PUSH1 0x1 ADD SWAP1 PUSH2 0xF01 JUMP JUMPDEST POP POP POP POP SWAP1 POP SWAP1 JUMP JUMPDEST PUSH1 0x5 SLOAD DUP2 JUMP JUMPDEST PUSH1 0x6 SLOAD DUP2 JUMP JUMPDEST PUSH1 0x1 PUSH0 SWAP1 SLOAD SWAP1 PUSH2 0x100 EXP SWAP1 DIV PUSH20 0xFFFFFFFFFFFFFFFFFFFFFFFFFFFFFFFFFFFFFFFF AND DUP2 JUMP JUMPDEST PUSH1 0x9 SLOAD DUP2 JUMP JUMPDEST PUSH1 0xA PUSH0 SWAP1 SLOAD SWAP1 PUSH2 0x100 EXP SWAP1 DIV PUSH1 0xFF AND DUP2 JUMP JUMPDEST PUSH0 DUP1 REVERT JUMPDEST PUSH0 PUSH20 0xFFFFFFFFFFFFFFFFFFFFFFFFFFFFFFFFFFFFFFFF DUP3 AND SWAP1 POP SWAP2 SWAP1 POP JUMP JUMPDEST PUSH0 PUSH2 0x100E DUP3 PUSH2 0xFE5 JUMP JUMPDEST SWAP1 POP SWAP2 SWAP1 POP JUMP JUMPDEST PUSH2 0x101E DUP2 PUSH2 0x1004 JUMP JUMPDEST DUP2 EQ PUSH2 0x1028 JUMPI PUSH0 DUP1 REVERT JUMPDEST POP JUMP JUMPDEST PUSH0 DUP2 CALLDATALOAD SWAP1 POP PUSH2 0x1039 DUP2 PUSH2 0x1015 JUMP JUMPDEST SWAP3 SWAP2 POP POP JUMP JUMPDEST PUSH0 PUSH1 0x20 DUP3 DUP5 SUB SLT ISZERO PUSH2 0x1054 JUMPI PUSH2 0x1053 PUSH2 0xFE1 JUMP JUMPDEST JUMPDEST PUSH0 PUSH2 0x1061 DUP5 DUP3 DUP6 ADD PUSH2 0x102B JUMP JUMPDEST SWAP2 POP POP SWAP3 SWAP2 POP POP JUMP JUMPDEST PUSH0 DUP2 SWAP1 POP SWAP2 SWAP1 POP JUMP JUMPDEST PUSH2 0x107C DUP2 PUSH2 0x106A JUMP JUMPDEST DUP3 MSTORE POP POP JUMP JUMPDEST PUSH0 PUSH1 0x20 DUP3 ADD SWAP1 POP PUSH2 0x1095 PUSH0 DUP4 ADD DUP5 PUSH2 0x1073 JUMP JUMPDEST SWAP3 SWAP2 POP POP JUMP JUMPDEST PUSH2 0x10A4 DUP2 PUSH2 0x1004 JUMP JUMPDEST DUP3 MSTORE POP POP JUMP JUMPDEST PUSH0 PUSH1 0x20 DUP3 ADD SWAP1 POP PUSH2 0x10BD PUSH0 DUP4 ADD DUP5 PUSH2 0x109B JUMP JUMPDEST SWAP3 SWAP2 POP POP JUMP JUMPDEST PUSH2 0x10CC DUP2 PUSH2 0x106A JUMP JUMPDEST DUP2 EQ PUSH2 0x10D6 JUMPI PUSH0 DUP1 REVERT JUMPDEST POP JUMP JUMPDEST PUSH0 DUP2 CALLDATALOAD SWAP1 POP PUSH2 0x10E7 DUP2 PUSH2 0x10C3 JUMP JUMPDEST SWAP3 SWAP2 POP POP JUMP JUMPDEST PUSH0 PUSH1 0x20 DUP3 DUP5 SUB SLT ISZERO PUSH2 0x1102 JUMPI PUSH2 0x1101 PUSH2 0xFE1 JUMP JUMPDEST JUMPDEST PUSH0 PUSH2 0x110F DUP5 DUP3 DUP6 ADD PUSH2 0x10D9 JUMP JUMPDEST SWAP2 POP POP SWAP3 SWAP2 POP POP JUMP JUMPDEST PUSH0 PUSH1 0x40 DUP3 ADD SWAP1 POP PUSH2 0x112B PUSH0 DUP4 ADD DUP6 PUSH2 0x109B JUMP JUMPDEST PUSH2 0x1138 PUSH1 0x20 DUP4 ADD DUP5 PUSH2 0x1073 JUMP JUMPDEST SWAP4 SWAP3 POP POP POP JUMP JUMPDEST PUSH0 DUP2 MLOAD SWAP1 POP SWAP2 SWAP1 POP JUMP JUMPDEST PUSH0 DUP3 DUP3 MSTORE PUSH1 0x20 DUP3 ADD SWAP1 POP SWAP3 SWAP2 POP POP JUMP JUMPDEST PUSH0 DUP2 SWAP1 POP PUSH1 0x20 DUP3 ADD SWAP1 POP SWAP2 SWAP1 POP JUMP JUMPDEST PUSH2 0x1171 DUP2 PUSH2 0x1004 JUMP JUMPDEST DUP3 MSTORE POP POP JUMP JUMPDEST PUSH2 0x1180 DUP2 PUSH2 0x106A JUMP JUMPDEST DUP3 MSTORE POP POP JUMP JUMPDEST PUSH1 0x40 DUP3 ADD PUSH0 DUP3 ADD MLOAD PUSH2 0x119A PUSH0 DUP6 ADD DUP3 PUSH2 0x1168 JUMP JUMPDEST POP PUSH1 0x20 DUP3 ADD MLOAD PUSH2 0x11AD PUSH1 0x20 DUP6 ADD DUP3 PUSH2 0x1177 JUMP JUMPDEST POP POP POP POP JUMP JUMPDEST PUSH0 PUSH2 0x11BE DUP4 DUP4 PUSH2 0x1186 JUMP JUMPDEST PUSH1 0x40 DUP4 ADD SWAP1 POP SWAP3 SWAP2 POP POP JUMP JUMPDEST PUSH0 PUSH1 0x20 DUP3 ADD SWAP1 POP SWAP2 SWAP1 POP JUMP JUMPDEST PUSH0 PUSH2 0x11E0 DUP3 PUSH2 0x113F JUMP JUMPDEST PUSH2 0x11EA DUP2 DUP6 PUSH2 0x1149 JUMP JUMPDEST SWAP4 POP PUSH2 0x11F5 DUP4 PUSH2 0x1159 JUMP JUMPDEST DUP1 PUSH0 JUMPDEST DUP4 DUP2 LT ISZERO PUSH2 0x1225 JUMPI DUP2 MLOAD PUSH2 0x120C DUP9 DUP3 PUSH2 0x11B3 JUMP JUMPDEST SWAP8 POP PUSH2 0x1217 DUP4 PUSH2 0x11CA JUMP JUMPDEST SWAP3 POP POP PUSH1 0x1 DUP2 ADD SWAP1 POP PUSH2 0x11F8 JUMP JUMPDEST POP DUP6 SWAP4 POP POP POP POP SWAP3 SWAP2 POP POP JUMP JUMPDEST PUSH0 PUSH1 0x20 DUP3 ADD SWAP1 POP DUP2 DUP2 SUB PUSH0 DUP4 ADD MSTORE PUSH2 0x124A DUP2 DUP5 PUSH2 0x11D6 JUMP JUMPDEST SWAP1 POP SWAP3 SWAP2 POP POP JUMP JUMPDEST PUSH0 DUP2 ISZERO ISZERO SWAP1 POP SWAP2 SWAP1 POP JUMP JUMPDEST PUSH2 0x1266 DUP2 PUSH2 0x1252 JUMP JUMPDEST DUP3 MSTORE POP POP JUMP JUMPDEST PUSH0 PUSH1 0x20 DUP3 ADD SWAP1 POP PUSH2 0x127F PUSH0 DUP4 ADD DUP5 PUSH2 0x125D JUMP JUMPDEST SWAP3 SWAP2 POP POP JUMP JUMPDEST PUSH0 DUP3 DUP3 MSTORE PUSH1 0x20 DUP3 ADD SWAP1 POP SWAP3 SWAP2 POP POP JUMP JUMPDEST PUSH32 0x536F6C6F20656C2073756261737461646F7220707565646520656A6563757461 PUSH0 DUP3 ADD MSTORE PUSH32 0x7220657374612066756E63696F6E000000000000000000000000000000000000 PUSH1 0x20 DUP3 ADD MSTORE POP JUMP JUMPDEST PUSH0 PUSH2 0x12EF PUSH1 0x2E DUP4 PUSH2 0x1285 JUMP JUMPDEST SWAP2 POP PUSH2 0x12FA DUP3 PUSH2 0x1295 JUMP JUMPDEST PUSH1 0x40 DUP3 ADD SWAP1 POP SWAP2 SWAP1 POP JUMP JUMPDEST PUSH0 PUSH1 0x20 DUP3 ADD SWAP1 POP DUP2 DUP2 SUB PUSH0 DUP4 ADD MSTORE PUSH2 0x131C DUP2 PUSH2 0x12E3 JUMP JUMPDEST SWAP1 POP SWAP2 SWAP1 POP JUMP JUMPDEST PUSH32 0x4C612073756261737461206E6F20657374612061637469766100000000000000 PUSH0 DUP3 ADD MSTORE POP JUMP JUMPDEST PUSH0 PUSH2 0x1357 PUSH1 0x19 DUP4 PUSH2 0x1285 JUMP JUMPDEST SWAP2 POP PUSH2 0x1362 DUP3 PUSH2 0x1323 JUMP JUMPDEST PUSH1 0x20 DUP3 ADD SWAP1 POP SWAP2 SWAP1 POP JUMP JUMPDEST PUSH0 PUSH1 0x20 DUP3 ADD SWAP1 POP DUP2 DUP2 SUB PUSH0 DUP4 ADD MSTORE PUSH2 0x1384 DUP2 PUSH2 0x134B JUMP JUMPDEST SWAP1 POP SWAP2 SWAP1 POP JUMP JUMPDEST PUSH32 0x4C6120737562617374612061756E206573746120656E20637572736F00000000 PUSH0 DUP3 ADD MSTORE POP JUMP JUMPDEST PUSH0 PUSH2 0x13BF PUSH1 0x1C DUP4 PUSH2 0x1285 JUMP JUMPDEST SWAP2 POP PUSH2 0x13CA DUP3 PUSH2 0x138B JUMP JUMPDEST PUSH1 0x20 DUP3 ADD SWAP1 POP SWAP2 SWAP1 POP JUMP JUMPDEST PUSH0 PUSH1 0x20 DUP3 ADD SWAP1 POP DUP2 DUP2 SUB PUSH0 DUP4 ADD MSTORE PUSH2 0x13EC DUP2 PUSH2 0x13B3 JUMP JUMPDEST SWAP1 POP SWAP2 SWAP1 POP JUMP JUMPDEST PUSH32 0x4C6120737562617374612061756E206E6F20686120696E69636961646F000000 PUSH0 DUP3 ADD MSTORE POP JUMP JUMPDEST PUSH0 PUSH2 0x1427 PUSH1 0x1D DUP4 PUSH2 0x1285 JUMP JUMPDEST SWAP2 POP PUSH2 0x1432 DUP3 PUSH2 0x13F3 JUMP JUMPDEST PUSH1 0x20 DUP3 ADD SWAP1 POP SWAP2 SWAP1 POP JUMP JUMPDEST PUSH0 PUSH1 0x20 DUP3 ADD SWAP1 POP DUP2 DUP2 SUB PUSH0 DUP4 ADD MSTORE PUSH2 0x1454 DUP2 PUSH2 0x141B JUMP JUMPDEST SWAP1 POP SWAP2 SWAP1 POP JUMP JUMPDEST PUSH32 0x4C61206F666572746120646562652073657220616C206D656E6F7320656C206D PUSH0 DUP3 ADD MSTORE PUSH32 0x696E696D6F20646520302E303035204554480000000000000000000000000000 PUSH1 0x20 DUP3 ADD MSTORE POP JUMP JUMPDEST PUSH0 PUSH2 0x14B5 PUSH1 0x32 DUP4 PUSH2 0x1285 JUMP JUMPDEST SWAP2 POP PUSH2 0x14C0 DUP3 PUSH2 0x145B JUMP JUMPDEST PUSH1 0x40 DUP3 ADD SWAP1 POP SWAP2 SWAP1 POP JUMP JUMPDEST PUSH0 PUSH1 0x20 DUP3 ADD SWAP1 POP DUP2 DUP2 SUB PUSH0 DUP4 ADD MSTORE PUSH2 0x14E2 DUP2 PUSH2 0x14A9 JUMP JUMPDEST SWAP1 POP SWAP2 SWAP1 POP JUMP JUMPDEST PUSH32 0x4E487B7100000000000000000000000000000000000000000000000000000000 PUSH0 MSTORE PUSH1 0x11 PUSH1 0x4 MSTORE PUSH1 0x24 PUSH0 REVERT JUMPDEST PUSH0 PUSH2 0x1520 DUP3 PUSH2 0x106A JUMP JUMPDEST SWAP2 POP PUSH2 0x152B DUP4 PUSH2 0x106A JUMP JUMPDEST SWAP3 POP DUP3 DUP3 MUL PUSH2 0x1539 DUP2 PUSH2 0x106A JUMP JUMPDEST SWAP2 POP DUP3 DUP3 DIV DUP5 EQ DUP4 ISZERO OR PUSH2 0x1550 JUMPI PUSH2 0x154F PUSH2 0x14E9 JUMP JUMPDEST JUMPDEST POP SWAP3 SWAP2 POP POP JUMP JUMPDEST PUSH32 0x4E487B7100000000000000000000000000000000000000000000000000000000 PUSH0 MSTORE PUSH1 0x12 PUSH1 0x4 MSTORE PUSH1 0x24 PUSH0 REVERT JUMPDEST PUSH0 PUSH2 0x158E DUP3 PUSH2 0x106A JUMP JUMPDEST SWAP2 POP PUSH2 0x1599 DUP4 PUSH2 0x106A JUMP JUMPDEST SWAP3 POP DUP3 PUSH2 0x15A9 JUMPI PUSH2 0x15A8 PUSH2 0x1557 JUMP JUMPDEST JUMPDEST DUP3 DUP3 DIV SWAP1 POP SWAP3 SWAP2 POP POP JUMP JUMPDEST PUSH0 PUSH2 0x15BE DUP3 PUSH2 0x106A JUMP JUMPDEST SWAP2 POP PUSH2 0x15C9 DUP4 PUSH2 0x106A JUMP JUMPDEST SWAP3 POP DUP3 DUP3 ADD SWAP1 POP DUP1 DUP3 GT ISZERO PUSH2 0x15E1 JUMPI PUSH2 0x15E0 PUSH2 0x14E9 JUMP JUMPDEST JUMPDEST SWAP3 SWAP2 POP POP JUMP JUMPDEST PUSH32 0x4C61206F666572746120646562652073657220616C206D656E6F7320756E2035 PUSH0 DUP3 ADD MSTORE PUSH32 0x25206D61796F7220717565206C61206D656A6F72206F66657274612061637475 PUSH1 0x20 DUP3 ADD MSTORE PUSH32 0x616C000000000000000000000000000000000000000000000000000000000000 PUSH1 0x40 DUP3 ADD MSTORE POP JUMP JUMPDEST PUSH0 PUSH2 0x1667 PUSH1 0x42 DUP4 PUSH2 0x1285 JUMP JUMPDEST SWAP2 POP PUSH2 0x1672 DUP3 PUSH2 0x15E7 JUMP JUMPDEST PUSH1 0x60 DUP3 ADD SWAP1 POP SWAP2 SWAP1 POP JUMP JUMPDEST PUSH0 PUSH1 0x20 DUP3 ADD SWAP1 POP DUP2 DUP2 SUB PUSH0 DUP4 ADD MSTORE PUSH2 0x1694 DUP2 PUSH2 0x165B JUMP JUMPDEST SWAP1 POP SWAP2 SWAP1 POP JUMP JUMPDEST PUSH0 PUSH2 0x16A5 DUP3 PUSH2 0x106A JUMP JUMPDEST SWAP2 POP PUSH2 0x16B0 DUP4 PUSH2 0x106A JUMP JUMPDEST SWAP3 POP DUP3 DUP3 SUB SWAP1 POP DUP2 DUP2 GT ISZERO PUSH2 0x16C8 JUMPI PUSH2 0x16C7 PUSH2 0x14E9 JUMP JUMPDEST JUMPDEST SWAP3 SWAP2 POP POP JUMP JUMPDEST PUSH32 0x4C6120737562617374612061756E206E6F2068612066696E616C697A61646F00 PUSH0 DUP3 ADD MSTORE POP JUMP JUMPDEST PUSH0 PUSH2 0x1702 PUSH1 0x1F DUP4 PUSH2 0x1285 JUMP JUMPDEST SWAP2 POP PUSH2 0x170D DUP3 PUSH2 0x16CE JUMP JUMPDEST PUSH1 0x20 DUP3 ADD SWAP1 POP SWAP2 SWAP1 POP JUMP JUMPDEST PUSH0 PUSH1 0x20 DUP3 ADD SWAP1 POP DUP2 DUP2 SUB PUSH0 DUP4 ADD MSTORE PUSH2 0x172F DUP2 PUSH2 0x16F6 JUMP JUMPDEST SWAP1 POP SWAP2 SWAP1 POP JUMP JUMPDEST PUSH32 0x4E6F207469656E6573206465706F7369746F2070617261207265636C616D6172 PUSH0 DUP3 ADD MSTORE POP JUMP JUMPDEST PUSH0 PUSH2 0x176A PUSH1 0x20 DUP4 PUSH2 0x1285 JUMP JUMPDEST SWAP2 POP PUSH2 0x1775 DUP3 PUSH2 0x1736 JUMP JUMPDEST PUSH1 0x20 DUP3 ADD SWAP1 POP SWAP2 SWAP1 POP JUMP JUMPDEST PUSH0 PUSH1 0x20 DUP3 ADD SWAP1 POP DUP2 DUP2 SUB PUSH0 DUP4 ADD MSTORE PUSH2 0x1797 DUP2 PUSH2 0x175E JUMP JUMPDEST SWAP1 POP SWAP2 SWAP1 POP JUMP JUMPDEST PUSH32 0x4D6F6E746F206D61796F7220616C206465706F7369746F20646973706F6E6962 PUSH0 DUP3 ADD MSTORE PUSH32 0x6C6520706F7220656E63696D6120646520747520756C74696D61206F66657274 PUSH1 0x20 DUP3 ADD MSTORE PUSH32 0x6100000000000000000000000000000000000000000000000000000000000000 PUSH1 0x40 DUP3 ADD MSTORE POP JUMP JUMPDEST PUSH0 PUSH2 0x181E PUSH1 0x41 DUP4 PUSH2 0x1285 JUMP JUMPDEST SWAP2 POP PUSH2 0x1829 DUP3 PUSH2 0x179E JUMP JUMPDEST PUSH1 0x60 DUP3 ADD SWAP1 POP SWAP2 SWAP1 POP JUMP JUMPDEST PUSH0 PUSH1 0x20 DUP3 ADD SWAP1 POP DUP2 DUP2 SUB PUSH0 DUP4 ADD MSTORE PUSH2 0x184B DUP2 PUSH2 0x1812 JUMP JUMPDEST SWAP1 POP SWAP2 SWAP1 POP JUMP INVALID LOG2 PUSH5 0x6970667358 0x22 SLT KECCAK256 RETURN 0xD0 PUSH26 0xF6D17D709E024F0B456B25DF141A1A990937A3DA01472B721E72 0x27 PUSH32 0xEE64736F6C634300081900330000000000000000000000000000000000000000 "
				},
				"gasEstimates": {
					"creation": {
						"codeDepositCost": "1256000",
						"executionCost": "infinite",
						"totalCost": "infinite"
					},
					"external": {
						"depositos(address)": "2869",
						"devolverDepositos()": "infinite",
						"extensionTiempo()": "2469",
						"finTiempo()": "2470",
						"finalizada()": "2576",
						"finalizarSubasta()": "infinite",
						"inicioTiempo()": "2448",
						"mejorOferta()": "2492",
						"mejorOfertante()": "2574",
						"mostrarGanador()": "6925",
						"mostrarOfertas()": "infinite",
						"ofertaMinima()": "2447",
						"ofertar()": "infinite",
						"ofertas(uint256)": "infinite",
						"porcentajeComision()": "2513",
						"porcentajeIncrementoMinimo()": "2536",
						"previofinTiempo()": "2514",
						"reembolsoParcial(uint256)": "infinite",
						"subastador()": "2573",
						"ultimaOferta(address)": "2848"
					}
				},
				"methodIdentifiers": {
					"depositos(address)": "664e62b9",
					"devolverDepositos()": "5298a3c4",
					"extensionTiempo()": "f292b25d",
					"finTiempo()": "6401f67f",
					"finalizada()": "ffbfc189",
					"finalizarSubasta()": "0851eac2",
					"inicioTiempo()": "723a978d",
					"mejorOferta()": "acfc9f98",
					"mejorOfertante()": "f4442c65",
					"mostrarGanador()": "753dcaeb",
					"mostrarOfertas()": "c442a99f",
					"ofertaMinima()": "e0107077",
					"ofertar()": "3ec059d7",
					"ofertas(uint256)": "56afff7c",
					"porcentajeComision()": "fbc08016",
					"porcentajeIncrementoMinimo()": "6b595fbb",
					"previofinTiempo()": "b04f21fc",
					"reembolsoParcial(uint256)": "69ecf131",
					"subastador()": "3dfa138d",
					"ultimaOferta(address)": "1c33274f"
				}
			},
			"storageLayout": {
				"storage": [
					{
						"astId": 3,
						"contract": "ETHKIPU/SubastaModulo2.sol:SubastaFinal",
						"label": "subastador",
						"offset": 0,
						"slot": "0",
						"type": "t_address"
					},
					{
						"astId": 5,
						"contract": "ETHKIPU/SubastaModulo2.sol:SubastaFinal",
						"label": "mejorOfertante",
						"offset": 0,
						"slot": "1",
						"type": "t_address"
					},
					{
						"astId": 7,
						"contract": "ETHKIPU/SubastaModulo2.sol:SubastaFinal",
						"label": "mejorOferta",
						"offset": 0,
						"slot": "2",
						"type": "t_uint256"
					},
					{
						"astId": 10,
						"contract": "ETHKIPU/SubastaModulo2.sol:SubastaFinal",
						"label": "inicioTiempo",
						"offset": 0,
						"slot": "3",
						"type": "t_uint256"
					},
					{
						"astId": 22,
						"contract": "ETHKIPU/SubastaModulo2.sol:SubastaFinal",
						"label": "finTiempo",
						"offset": 0,
						"slot": "4",
						"type": "t_uint256"
					},
					{
						"astId": 25,
						"contract": "ETHKIPU/SubastaModulo2.sol:SubastaFinal",
						"label": "ofertaMinima",
						"offset": 0,
						"slot": "5",
						"type": "t_uint256"
					},
					{
						"astId": 30,
						"contract": "ETHKIPU/SubastaModulo2.sol:SubastaFinal",
						"label": "extensionTiempo",
						"offset": 0,
						"slot": "6",
						"type": "t_uint256"
					},
					{
						"astId": 35,
						"contract": "ETHKIPU/SubastaModulo2.sol:SubastaFinal",
						"label": "previofinTiempo",
						"offset": 0,
						"slot": "7",
						"type": "t_uint256"
					},
					{
						"astId": 38,
						"contract": "ETHKIPU/SubastaModulo2.sol:SubastaFinal",
						"label": "porcentajeIncrementoMinimo",
						"offset": 0,
						"slot": "8",
						"type": "t_uint256"
					},
					{
						"astId": 41,
						"contract": "ETHKIPU/SubastaModulo2.sol:SubastaFinal",
						"label": "porcentajeComision",
						"offset": 0,
						"slot": "9",
						"type": "t_uint256"
					},
					{
						"astId": 44,
						"contract": "ETHKIPU/SubastaModulo2.sol:SubastaFinal",
						"label": "finalizada",
						"offset": 0,
						"slot": "10",
						"type": "t_bool"
					},
					{
						"astId": 53,
						"contract": "ETHKIPU/SubastaModulo2.sol:SubastaFinal",
						"label": "ofertas",
						"offset": 0,
						"slot": "11",
						"type": "t_array(t_struct(Oferta)49_storage)dyn_storage"
					},
					{
						"astId": 57,
						"contract": "ETHKIPU/SubastaModulo2.sol:SubastaFinal",
						"label": "depositos",
						"offset": 0,
						"slot": "12",
						"type": "t_mapping(t_address,t_uint256)"
					},
					{
						"astId": 61,
						"contract": "ETHKIPU/SubastaModulo2.sol:SubastaFinal",
						"label": "ultimaOferta",
						"offset": 0,
						"slot": "13",
						"type": "t_mapping(t_address,t_uint256)"
					}
				],
				"types": {
					"t_address": {
						"encoding": "inplace",
						"label": "address",
						"numberOfBytes": "20"
					},
					"t_array(t_struct(Oferta)49_storage)dyn_storage": {
						"base": "t_struct(Oferta)49_storage",
						"encoding": "dynamic_array",
						"label": "struct SubastaFinal.Oferta[]",
						"numberOfBytes": "32"
					},
					"t_bool": {
						"encoding": "inplace",
						"label": "bool",
						"numberOfBytes": "1"
					},
					"t_mapping(t_address,t_uint256)": {
						"encoding": "mapping",
						"key": "t_address",
						"label": "mapping(address => uint256)",
						"numberOfBytes": "32",
						"value": "t_uint256"
					},
					"t_struct(Oferta)49_storage": {
						"encoding": "inplace",
						"label": "struct SubastaFinal.Oferta",
						"members": [
							{
								"astId": 46,
								"contract": "ETHKIPU/SubastaModulo2.sol:SubastaFinal",
								"label": "ofertante",
								"offset": 0,
								"slot": "0",
								"type": "t_address"
							},
							{
								"astId": 48,
								"contract": "ETHKIPU/SubastaModulo2.sol:SubastaFinal",
								"label": "monto",
								"offset": 0,
								"slot": "1",
								"type": "t_uint256"
							}
						],
						"numberOfBytes": "64"
					},
					"t_uint256": {
						"encoding": "inplace",
						"label": "uint256",
						"numberOfBytes": "32"
					}
				}
			},
			"userdoc": {
				"kind": "user",
				"methods": {},
				"version": 1
			}
		}
	}
}