{
	"ETHKIPU/SubastaModulo2.sol": {
		"SubastaFinal": {
			"abi": [
				{
					"inputs": [],
					"stateMutability": "nonpayable",
					"type": "constructor"
				},
				{
					"anonymous": false,
					"inputs": [
						{
							"indexed": false,
							"internalType": "address",
							"name": "ofertante",
							"type": "address"
						},
						{
							"indexed": false,
							"internalType": "uint256",
							"name": "monto",
							"type": "uint256"
						}
					],
					"name": "NuevaOferta",
					"type": "event"
				},
				{
					"anonymous": false,
					"inputs": [
						{
							"indexed": false,
							"internalType": "address",
							"name": "ganador",
							"type": "address"
						},
						{
							"indexed": false,
							"internalType": "uint256",
							"name": "montoGanador",
							"type": "uint256"
						}
					],
					"name": "SubastaFinalizada",
					"type": "event"
				},
				{
					"inputs": [
						{
							"internalType": "address",
							"name": "",
							"type": "address"
						}
					],
					"name": "depositos",
					"outputs": [
						{
							"internalType": "uint256",
							"name": "",
							"type": "uint256"
						}
					],
					"stateMutability": "view",
					"type": "function"
				},
				{
					"inputs": [],
					"name": "devolverDepositos",
					"outputs": [],
					"stateMutability": "nonpayable",
					"type": "function"
				},
				{
					"inputs": [],
					"name": "extensionTiempo",
					"outputs": [
						{
							"internalType": "uint256",
							"name": "",
							"type": "uint256"
						}
					],
					"stateMutability": "view",
					"type": "function"
				},
				{
					"inputs": [],
					"name": "finTiempo",
					"outputs": [
						{
							"internalType": "uint256",
							"name": "",
							"type": "uint256"
						}
					],
					"stateMutability": "view",
					"type": "function"
				},
				{
					"inputs": [],
					"name": "finalizada",
					"outputs": [
						{
							"internalType": "bool",
							"name": "",
							"type": "bool"
						}
					],
					"stateMutability": "view",
					"type": "function"
				},
				{
					"inputs": [],
					"name": "finalizarSubasta",
					"outputs": [],
					"stateMutability": "nonpayable",
					"type": "function"
				},
				{
					"inputs": [],
					"name": "inicioTiempo",
					"outputs": [
						{
							"internalType": "uint256",
							"name": "",
							"type": "uint256"
						}
					],
					"stateMutability": "view",
					"type": "function"
				},
				{
					"inputs": [],
					"name": "mejorOferta",
					"outputs": [
						{
							"internalType": "uint256",
							"name": "",
							"type": "uint256"
						}
					],
					"stateMutability": "view",
					"type": "function"
				},
				{
					"inputs": [],
					"name": "mejorOfertante",
					"outputs": [
						{
							"internalType": "address",
							"name": "",
							"type": "address"
						}
					],
					"stateMutability": "view",
					"type": "function"
				},
				{
					"inputs": [],
					"name": "mostrarGanador",
					"outputs": [
						{
							"internalType": "address",
							"name": "",
							"type": "address"
						},
						{
							"internalType": "uint256",
							"name": "",
							"type": "uint256"
						}
					],
					"stateMutability": "view",
					"type": "function"
				},
				{
					"inputs": [],
					"name": "mostrarOfertas",
					"outputs": [
						{
							"components": [
								{
									"internalType": "address",
									"name": "ofertante",
									"type": "address"
								},
								{
									"internalType": "uint256",
									"name": "monto",
									"type": "uint256"
								}
							],
							"internalType": "struct SubastaFinal.Oferta[]",
							"name": "",
							"type": "tuple[]"
						}
					],
					"stateMutability": "view",
					"type": "function"
				},
				{
					"inputs": [],
					"name": "ofertaMinima",
					"outputs": [
						{
							"internalType": "uint256",
							"name": "",
							"type": "uint256"
						}
					],
					"stateMutability": "view",
					"type": "function"
				},
				{
					"inputs": [
						{
							"internalType": "uint256",
							"name": "_oferta",
							"type": "uint256"
						}
					],
					"name": "ofertar",
					"outputs": [],
					"stateMutability": "payable",
					"type": "function"
				},
				{
					"inputs": [
						{
							"internalType": "uint256",
							"name": "",
							"type": "uint256"
						}
					],
					"name": "ofertas",
					"outputs": [
						{
							"internalType": "address",
							"name": "ofertante",
							"type": "address"
						},
						{
							"internalType": "uint256",
							"name": "monto",
							"type": "uint256"
						}
					],
					"stateMutability": "view",
					"type": "function"
				},
				{
					"inputs": [],
					"name": "porcentajeComision",
					"outputs": [
						{
							"internalType": "uint256",
							"name": "",
							"type": "uint256"
						}
					],
					"stateMutability": "view",
					"type": "function"
				},
				{
					"inputs": [],
					"name": "porcentajeIncrementoMinimo",
					"outputs": [
						{
							"internalType": "uint256",
							"name": "",
							"type": "uint256"
						}
					],
					"stateMutability": "view",
					"type": "function"
				},
				{
					"inputs": [],
					"name": "previofinTiempo",
					"outputs": [
						{
							"internalType": "uint256",
							"name": "",
							"type": "uint256"
						}
					],
					"stateMutability": "view",
					"type": "function"
				},
				{
					"inputs": [
						{
							"internalType": "uint256",
							"name": "monto",
							"type": "uint256"
						}
					],
					"name": "reembolsoParcial",
					"outputs": [],
					"stateMutability": "nonpayable",
					"type": "function"
				},
				{
					"inputs": [],
					"name": "subastador",
					"outputs": [
						{
							"internalType": "address",
							"name": "",
							"type": "address"
						}
					],
					"stateMutability": "view",
					"type": "function"
				},
				{
					"inputs": [
						{
							"internalType": "address",
							"name": "",
							"type": "address"
						}
					],
					"name": "ultimaOferta",
					"outputs": [
						{
							"internalType": "uint256",
							"name": "",
							"type": "uint256"
						}
					],
					"stateMutability": "view",
					"type": "function"
				}
			],
			"devdoc": {
				"kind": "dev",
				"methods": {},
				"version": 1
			},
			"evm": {
				"assembly": "    /* \"ETHKIPU/SubastaModulo2.sol\":67:5768  contract SubastaFinal {... */\n  mstore(0x40, 0x80)\n    /* \"ETHKIPU/SubastaModulo2.sol\":279:289  1730894400 */\n  0x672b5a40\n    /* \"ETHKIPU/SubastaModulo2.sol\":249:289  uint256 public inicioTiempo = 1730894400 */\n  0x03\n  sstore\n    /* \"ETHKIPU/SubastaModulo2.sol\":444:460  7 * 24 * 60 * 60 */\n  0x093a80\n    /* \"ETHKIPU/SubastaModulo2.sol\":428:440  inicioTiempo */\n  sload(0x03)\n    /* \"ETHKIPU/SubastaModulo2.sol\":428:461  inicioTiempo + (7 * 24 * 60 * 60) */\n  tag_1\n  swap2\n  swap1\n  tag_2\n  jump\t// in\ntag_1:\n    /* \"ETHKIPU/SubastaModulo2.sol\":401:461  uint256 public finTiempo = inicioTiempo + (7 * 24 * 60 * 60) */\n  0x04\n  sstore\n    /* \"ETHKIPU/SubastaModulo2.sol\":625:641  5000000000000000 */\n  0x11c37937e08000\n    /* \"ETHKIPU/SubastaModulo2.sol\":595:641  uint256 public ofertaMinima = 5000000000000000 */\n  0x05\n  sstore\n    /* \"ETHKIPU/SubastaModulo2.sol\":730:737  10 * 60 */\n  0x0258\n    /* \"ETHKIPU/SubastaModulo2.sol\":697:737  uint256 public extensionTiempo = 10 * 60 */\n  0x06\n  sstore\n    /* \"ETHKIPU/SubastaModulo2.sol\":806:813  10 * 60 */\n  0x0258\n    /* \"ETHKIPU/SubastaModulo2.sol\":773:813  uint256 public previofinTiempo = 10 * 60 */\n  0x07\n  sstore\n    /* \"ETHKIPU/SubastaModulo2.sol\":927:928  5 */\n  0x05\n    /* \"ETHKIPU/SubastaModulo2.sol\":883:928  uint256 public porcentajeIncrementoMinimo = 5 */\n  0x08\n  sstore\n    /* \"ETHKIPU/SubastaModulo2.sol\":971:972  2 */\n  0x02\n    /* \"ETHKIPU/SubastaModulo2.sol\":935:972  uint256 public porcentajeComision = 2 */\n  0x09\n  sstore\n    /* \"ETHKIPU/SubastaModulo2.sol\":1004:1009  false */\n  0x00\n    /* \"ETHKIPU/SubastaModulo2.sol\":979:1009  bool public finalizada = false */\n  0x0a\n  exp(0x0100, 0x00)\n  dup2\n  sload\n  dup2\n  0xff\n  mul\n  not\n  and\n  swap1\n  dup4\n  iszero\n  iszero\n  mul\n  or\n  swap1\n  sstore\n  pop\n    /* \"ETHKIPU/SubastaModulo2.sol\":2587:2643  constructor() {... */\n  callvalue\n  dup1\n  iszero\n  tag_3\n  jumpi\n  0x00\n  dup1\n  revert\ntag_3:\n  pop\n    /* \"ETHKIPU/SubastaModulo2.sol\":2625:2635  msg.sender */\n  caller\n    /* \"ETHKIPU/SubastaModulo2.sol\":2612:2622  subastador */\n  0x00\n  dup1\n    /* \"ETHKIPU/SubastaModulo2.sol\":2612:2635  subastador = msg.sender */\n  0x0100\n  exp\n  dup2\n  sload\n  dup2\n  0xffffffffffffffffffffffffffffffffffffffff\n  mul\n  not\n  and\n  swap1\n  dup4\n  0xffffffffffffffffffffffffffffffffffffffff\n  and\n  mul\n  or\n  swap1\n  sstore\n  pop\n    /* \"ETHKIPU/SubastaModulo2.sol\":67:5768  contract SubastaFinal {... */\n  jump(tag_6)\n    /* \"#utility.yul\":7:84   */\ntag_7:\n    /* \"#utility.yul\":44:51   */\n  0x00\n    /* \"#utility.yul\":73:78   */\n  dup2\n    /* \"#utility.yul\":62:78   */\n  swap1\n  pop\n    /* \"#utility.yul\":7:84   */\n  swap2\n  swap1\n  pop\n  jump\t// out\n    /* \"#utility.yul\":90:270   */\ntag_8:\n    /* \"#utility.yul\":138:215   */\n  0x4e487b7100000000000000000000000000000000000000000000000000000000\n    /* \"#utility.yul\":135:136   */\n  0x00\n    /* \"#utility.yul\":128:216   */\n  mstore\n    /* \"#utility.yul\":235:239   */\n  0x11\n    /* \"#utility.yul\":232:233   */\n  0x04\n    /* \"#utility.yul\":225:240   */\n  mstore\n    /* \"#utility.yul\":259:263   */\n  0x24\n    /* \"#utility.yul\":256:257   */\n  0x00\n    /* \"#utility.yul\":249:264   */\n  revert\n    /* \"#utility.yul\":276:467   */\ntag_2:\n    /* \"#utility.yul\":316:319   */\n  0x00\n    /* \"#utility.yul\":335:355   */\n  tag_13\n    /* \"#utility.yul\":353:354   */\n  dup3\n    /* \"#utility.yul\":335:355   */\n  tag_7\n  jump\t// in\ntag_13:\n    /* \"#utility.yul\":330:355   */\n  swap2\n  pop\n    /* \"#utility.yul\":369:389   */\n  tag_14\n    /* \"#utility.yul\":387:388   */\n  dup4\n    /* \"#utility.yul\":369:389   */\n  tag_7\n  jump\t// in\ntag_14:\n    /* \"#utility.yul\":364:389   */\n  swap3\n  pop\n    /* \"#utility.yul\":412:413   */\n  dup3\n    /* \"#utility.yul\":409:410   */\n  dup3\n    /* \"#utility.yul\":405:414   */\n  add\n    /* \"#utility.yul\":398:414   */\n  swap1\n  pop\n    /* \"#utility.yul\":433:436   */\n  dup1\n    /* \"#utility.yul\":430:431   */\n  dup3\n    /* \"#utility.yul\":427:437   */\n  gt\n    /* \"#utility.yul\":424:460   */\n  iszero\n  tag_15\n  jumpi\n    /* \"#utility.yul\":440:458   */\n  tag_16\n  tag_8\n  jump\t// in\ntag_16:\n    /* \"#utility.yul\":424:460   */\ntag_15:\n    /* \"#utility.yul\":276:467   */\n  swap3\n  swap2\n  pop\n  pop\n  jump\t// out\n    /* \"ETHKIPU/SubastaModulo2.sol\":67:5768  contract SubastaFinal {... */\ntag_6:\n  dataSize(sub_0)\n  dup1\n  dataOffset(sub_0)\n  0x00\n  codecopy\n  0x00\n  return\nstop\n\nsub_0: assembly {\n        /* \"ETHKIPU/SubastaModulo2.sol\":67:5768  contract SubastaFinal {... */\n      mstore(0x40, 0x80)\n      jumpi(tag_1, lt(calldatasize, 0x04))\n      shr(0xe0, calldataload(0x00))\n      dup1\n      0x723a978d\n      gt\n      tag_22\n      jumpi\n      dup1\n      0xe0107077\n      gt\n      tag_23\n      jumpi\n      dup1\n      0xe0107077\n      eq\n      tag_17\n      jumpi\n      dup1\n      0xf292b25d\n      eq\n      tag_18\n      jumpi\n      dup1\n      0xf4442c65\n      eq\n      tag_19\n      jumpi\n      dup1\n      0xfbc08016\n      eq\n      tag_20\n      jumpi\n      dup1\n      0xffbfc189\n      eq\n      tag_21\n      jumpi\n      jump(tag_1)\n    tag_23:\n      dup1\n      0x723a978d\n      eq\n      tag_12\n      jumpi\n      dup1\n      0x753dcaeb\n      eq\n      tag_13\n      jumpi\n      dup1\n      0xacfc9f98\n      eq\n      tag_14\n      jumpi\n      dup1\n      0xb04f21fc\n      eq\n      tag_15\n      jumpi\n      dup1\n      0xc442a99f\n      eq\n      tag_16\n      jumpi\n      jump(tag_1)\n    tag_22:\n      dup1\n      0x56afff7c\n      gt\n      tag_24\n      jumpi\n      dup1\n      0x56afff7c\n      eq\n      tag_7\n      jumpi\n      dup1\n      0x6401f67f\n      eq\n      tag_8\n      jumpi\n      dup1\n      0x664e62b9\n      eq\n      tag_9\n      jumpi\n      dup1\n      0x69ecf131\n      eq\n      tag_10\n      jumpi\n      dup1\n      0x6b595fbb\n      eq\n      tag_11\n      jumpi\n      jump(tag_1)\n    tag_24:\n      dup1\n      0x0851eac2\n      eq\n      tag_2\n      jumpi\n      dup1\n      0x1c33274f\n      eq\n      tag_3\n      jumpi\n      dup1\n      0x3c5044c1\n      eq\n      tag_4\n      jumpi\n      dup1\n      0x3dfa138d\n      eq\n      tag_5\n      jumpi\n      dup1\n      0x5298a3c4\n      eq\n      tag_6\n      jumpi\n    tag_1:\n      0x00\n      dup1\n      revert\n        /* \"ETHKIPU/SubastaModulo2.sol\":4237:4588  function finalizarSubasta() external soloSubastador subastaActiva {... */\n    tag_2:\n      callvalue\n      dup1\n      iszero\n      tag_25\n      jumpi\n      0x00\n      dup1\n      revert\n    tag_25:\n      pop\n      tag_26\n      tag_27\n      jump\t// in\n    tag_26:\n      stop\n        /* \"ETHKIPU/SubastaModulo2.sol\":1351:1398  mapping(address => uint256) public ultimaOferta */\n    tag_3:\n      callvalue\n      dup1\n      iszero\n      tag_28\n      jumpi\n      0x00\n      dup1\n      revert\n    tag_28:\n      pop\n      tag_29\n      0x04\n      dup1\n      calldatasize\n      sub\n      dup2\n      add\n      swap1\n      tag_30\n      swap2\n      swap1\n      tag_31\n      jump\t// in\n    tag_30:\n      tag_32\n      jump\t// in\n    tag_29:\n      mload(0x40)\n      tag_33\n      swap2\n      swap1\n      tag_34\n      jump\t// in\n    tag_33:\n      mload(0x40)\n      dup1\n      swap2\n      sub\n      swap1\n      return\n        /* \"ETHKIPU/SubastaModulo2.sol\":2681:3833  function ofertar(uint256 _oferta) external payable subastaHaIniciado subastaActiva {... */\n    tag_4:\n      tag_35\n      0x04\n      dup1\n      calldatasize\n      sub\n      dup2\n      add\n      swap1\n      tag_36\n      swap2\n      swap1\n      tag_37\n      jump\t// in\n    tag_36:\n      tag_38\n      jump\t// in\n    tag_35:\n      stop\n        /* \"ETHKIPU/SubastaModulo2.sol\":126:151  address public subastador */\n    tag_5:\n      callvalue\n      dup1\n      iszero\n      tag_39\n      jumpi\n      0x00\n      dup1\n      revert\n    tag_39:\n      pop\n      tag_40\n      tag_41\n      jump\t// in\n    tag_40:\n      mload(0x40)\n      tag_42\n      swap2\n      swap1\n      tag_43\n      jump\t// in\n    tag_42:\n      mload(0x40)\n      dup1\n      swap2\n      sub\n      swap1\n      return\n        /* \"ETHKIPU/SubastaModulo2.sol\":4700:5166  function devolverDepositos() external subastaFinalizada {... */\n    tag_6:\n      callvalue\n      dup1\n      iszero\n      tag_44\n      jumpi\n      0x00\n      dup1\n      revert\n    tag_44:\n      pop\n      tag_45\n      tag_46\n      jump\t// in\n    tag_45:\n      stop\n        /* \"ETHKIPU/SubastaModulo2.sol\":1163:1186  Oferta[] public ofertas */\n    tag_7:\n      callvalue\n      dup1\n      iszero\n      tag_47\n      jumpi\n      0x00\n      dup1\n      revert\n    tag_47:\n      pop\n      tag_48\n      0x04\n      dup1\n      calldatasize\n      sub\n      dup2\n      add\n      swap1\n      tag_49\n      swap2\n      swap1\n      tag_37\n      jump\t// in\n    tag_49:\n      tag_50\n      jump\t// in\n    tag_48:\n      mload(0x40)\n      tag_51\n      swap3\n      swap2\n      swap1\n      tag_52\n      jump\t// in\n    tag_51:\n      mload(0x40)\n      dup1\n      swap2\n      sub\n      swap1\n      return\n        /* \"ETHKIPU/SubastaModulo2.sol\":401:461  uint256 public finTiempo = inicioTiempo + (7 * 24 * 60 * 60) */\n    tag_8:\n      callvalue\n      dup1\n      iszero\n      tag_53\n      jumpi\n      0x00\n      dup1\n      revert\n    tag_53:\n      pop\n      tag_54\n      tag_55\n      jump\t// in\n    tag_54:\n      mload(0x40)\n      tag_56\n      swap2\n      swap1\n      tag_34\n      jump\t// in\n    tag_56:\n      mload(0x40)\n      dup1\n      swap2\n      sub\n      swap1\n      return\n        /* \"ETHKIPU/SubastaModulo2.sol\":1234:1278  mapping(address => uint256) public depositos */\n    tag_9:\n      callvalue\n      dup1\n      iszero\n      tag_57\n      jumpi\n      0x00\n      dup1\n      revert\n    tag_57:\n      pop\n      tag_58\n      0x04\n      dup1\n      calldatasize\n      sub\n      dup2\n      add\n      swap1\n      tag_59\n      swap2\n      swap1\n      tag_31\n      jump\t// in\n    tag_59:\n      tag_60\n      jump\t// in\n    tag_58:\n      mload(0x40)\n      tag_61\n      swap2\n      swap1\n      tag_34\n      jump\t// in\n    tag_61:\n      mload(0x40)\n      dup1\n      swap2\n      sub\n      swap1\n      return\n        /* \"ETHKIPU/SubastaModulo2.sol\":5251:5765  function reembolsoParcial(uint256 monto) external subastaActiva {... */\n    tag_10:\n      callvalue\n      dup1\n      iszero\n      tag_62\n      jumpi\n      0x00\n      dup1\n      revert\n    tag_62:\n      pop\n      tag_63\n      0x04\n      dup1\n      calldatasize\n      sub\n      dup2\n      add\n      swap1\n      tag_64\n      swap2\n      swap1\n      tag_37\n      jump\t// in\n    tag_64:\n      tag_65\n      jump\t// in\n    tag_63:\n      stop\n        /* \"ETHKIPU/SubastaModulo2.sol\":883:928  uint256 public porcentajeIncrementoMinimo = 5 */\n    tag_11:\n      callvalue\n      dup1\n      iszero\n      tag_66\n      jumpi\n      0x00\n      dup1\n      revert\n    tag_66:\n      pop\n      tag_67\n      tag_68\n      jump\t// in\n    tag_67:\n      mload(0x40)\n      tag_69\n      swap2\n      swap1\n      tag_34\n      jump\t// in\n    tag_69:\n      mload(0x40)\n      dup1\n      swap2\n      sub\n      swap1\n      return\n        /* \"ETHKIPU/SubastaModulo2.sol\":249:289  uint256 public inicioTiempo = 1730894400 */\n    tag_12:\n      callvalue\n      dup1\n      iszero\n      tag_70\n      jumpi\n      0x00\n      dup1\n      revert\n    tag_70:\n      pop\n      tag_71\n      tag_72\n      jump\t// in\n    tag_71:\n      mload(0x40)\n      tag_73\n      swap2\n      swap1\n      tag_34\n      jump\t// in\n    tag_73:\n      mload(0x40)\n      dup1\n      swap2\n      sub\n      swap1\n      return\n        /* \"ETHKIPU/SubastaModulo2.sol\":3865:4005  function mostrarGanador() external view subastaFinalizada returns (address, uint256) {... */\n    tag_13:\n      callvalue\n      dup1\n      iszero\n      tag_74\n      jumpi\n      0x00\n      dup1\n      revert\n    tag_74:\n      pop\n      tag_75\n      tag_76\n      jump\t// in\n    tag_75:\n      mload(0x40)\n      tag_77\n      swap3\n      swap2\n      swap1\n      tag_52\n      jump\t// in\n    tag_77:\n      mload(0x40)\n      dup1\n      swap2\n      sub\n      swap1\n      return\n        /* \"ETHKIPU/SubastaModulo2.sol\":216:242  uint256 public mejorOferta */\n    tag_14:\n      callvalue\n      dup1\n      iszero\n      tag_78\n      jumpi\n      0x00\n      dup1\n      revert\n    tag_78:\n      pop\n      tag_79\n      tag_80\n      jump\t// in\n    tag_79:\n      mload(0x40)\n      tag_81\n      swap2\n      swap1\n      tag_34\n      jump\t// in\n    tag_81:\n      mload(0x40)\n      dup1\n      swap2\n      sub\n      swap1\n      return\n        /* \"ETHKIPU/SubastaModulo2.sol\":773:813  uint256 public previofinTiempo = 10 * 60 */\n    tag_15:\n      callvalue\n      dup1\n      iszero\n      tag_82\n      jumpi\n      0x00\n      dup1\n      revert\n    tag_82:\n      pop\n      tag_83\n      tag_84\n      jump\t// in\n    tag_83:\n      mload(0x40)\n      tag_85\n      swap2\n      swap1\n      tag_34\n      jump\t// in\n    tag_85:\n      mload(0x40)\n      dup1\n      swap2\n      sub\n      swap1\n      return\n        /* \"ETHKIPU/SubastaModulo2.sol\":4047:4203  function mostrarOfertas() external view returns (Oferta[] memory) {... */\n    tag_16:\n      callvalue\n      dup1\n      iszero\n      tag_86\n      jumpi\n      0x00\n      dup1\n      revert\n    tag_86:\n      pop\n      tag_87\n      tag_88\n      jump\t// in\n    tag_87:\n      mload(0x40)\n      tag_89\n      swap2\n      swap1\n      tag_90\n      jump\t// in\n    tag_89:\n      mload(0x40)\n      dup1\n      swap2\n      sub\n      swap1\n      return\n        /* \"ETHKIPU/SubastaModulo2.sol\":595:641  uint256 public ofertaMinima = 5000000000000000 */\n    tag_17:\n      callvalue\n      dup1\n      iszero\n      tag_91\n      jumpi\n      0x00\n      dup1\n      revert\n    tag_91:\n      pop\n      tag_92\n      tag_93\n      jump\t// in\n    tag_92:\n      mload(0x40)\n      tag_94\n      swap2\n      swap1\n      tag_34\n      jump\t// in\n    tag_94:\n      mload(0x40)\n      dup1\n      swap2\n      sub\n      swap1\n      return\n        /* \"ETHKIPU/SubastaModulo2.sol\":697:737  uint256 public extensionTiempo = 10 * 60 */\n    tag_18:\n      callvalue\n      dup1\n      iszero\n      tag_95\n      jumpi\n      0x00\n      dup1\n      revert\n    tag_95:\n      pop\n      tag_96\n      tag_97\n      jump\t// in\n    tag_96:\n      mload(0x40)\n      tag_98\n      swap2\n      swap1\n      tag_34\n      jump\t// in\n    tag_98:\n      mload(0x40)\n      dup1\n      swap2\n      sub\n      swap1\n      return\n        /* \"ETHKIPU/SubastaModulo2.sol\":180:209  address public mejorOfertante */\n    tag_19:\n      callvalue\n      dup1\n      iszero\n      tag_99\n      jumpi\n      0x00\n      dup1\n      revert\n    tag_99:\n      pop\n      tag_100\n      tag_101\n      jump\t// in\n    tag_100:\n      mload(0x40)\n      tag_102\n      swap2\n      swap1\n      tag_43\n      jump\t// in\n    tag_102:\n      mload(0x40)\n      dup1\n      swap2\n      sub\n      swap1\n      return\n        /* \"ETHKIPU/SubastaModulo2.sol\":935:972  uint256 public porcentajeComision = 2 */\n    tag_20:\n      callvalue\n      dup1\n      iszero\n      tag_103\n      jumpi\n      0x00\n      dup1\n      revert\n    tag_103:\n      pop\n      tag_104\n      tag_105\n      jump\t// in\n    tag_104:\n      mload(0x40)\n      tag_106\n      swap2\n      swap1\n      tag_34\n      jump\t// in\n    tag_106:\n      mload(0x40)\n      dup1\n      swap2\n      sub\n      swap1\n      return\n        /* \"ETHKIPU/SubastaModulo2.sol\":979:1009  bool public finalizada = false */\n    tag_21:\n      callvalue\n      dup1\n      iszero\n      tag_107\n      jumpi\n      0x00\n      dup1\n      revert\n    tag_107:\n      pop\n      tag_108\n      tag_109\n      jump\t// in\n    tag_108:\n      mload(0x40)\n      tag_110\n      swap2\n      swap1\n      tag_111\n      jump\t// in\n    tag_110:\n      mload(0x40)\n      dup1\n      swap2\n      sub\n      swap1\n      return\n        /* \"ETHKIPU/SubastaModulo2.sol\":4237:4588  function finalizarSubasta() external soloSubastador subastaActiva {... */\n    tag_27:\n        /* \"ETHKIPU/SubastaModulo2.sol\":1703:1713  subastador */\n      0x00\n      dup1\n      sload\n      swap1\n      0x0100\n      exp\n      swap1\n      div\n      0xffffffffffffffffffffffffffffffffffffffff\n      and\n        /* \"ETHKIPU/SubastaModulo2.sol\":1689:1713  msg.sender == subastador */\n      0xffffffffffffffffffffffffffffffffffffffff\n      and\n        /* \"ETHKIPU/SubastaModulo2.sol\":1689:1699  msg.sender */\n      caller\n        /* \"ETHKIPU/SubastaModulo2.sol\":1689:1713  msg.sender == subastador */\n      0xffffffffffffffffffffffffffffffffffffffff\n      and\n      eq\n        /* \"ETHKIPU/SubastaModulo2.sol\":1681:1764  require(msg.sender == subastador, \"Solo el subastador puede ejecutar esta funcion\") */\n      tag_113\n      jumpi\n      mload(0x40)\n      0x08c379a000000000000000000000000000000000000000000000000000000000\n      dup2\n      mstore\n      0x04\n      add\n      tag_114\n      swap1\n      tag_115\n      jump\t// in\n    tag_114:\n      mload(0x40)\n      dup1\n      swap2\n      sub\n      swap1\n      revert\n    tag_113:\n        /* \"ETHKIPU/SubastaModulo2.sol\":2156:2168  inicioTiempo */\n      sload(0x03)\n        /* \"ETHKIPU/SubastaModulo2.sol\":2137:2152  block.timestamp */\n      timestamp\n        /* \"ETHKIPU/SubastaModulo2.sol\":2137:2168  block.timestamp >= inicioTiempo */\n      lt\n      iszero\n        /* \"ETHKIPU/SubastaModulo2.sol\":2137:2199  block.timestamp >= inicioTiempo && block.timestamp < finTiempo */\n      dup1\n      iszero\n      tag_117\n      jumpi\n      pop\n        /* \"ETHKIPU/SubastaModulo2.sol\":2190:2199  finTiempo */\n      sload(0x04)\n        /* \"ETHKIPU/SubastaModulo2.sol\":2172:2187  block.timestamp */\n      timestamp\n        /* \"ETHKIPU/SubastaModulo2.sol\":2172:2199  block.timestamp < finTiempo */\n      lt\n        /* \"ETHKIPU/SubastaModulo2.sol\":2137:2199  block.timestamp >= inicioTiempo && block.timestamp < finTiempo */\n    tag_117:\n        /* \"ETHKIPU/SubastaModulo2.sol\":2129:2229  require(block.timestamp >= inicioTiempo && block.timestamp < finTiempo, \"La subasta no esta activa\") */\n      tag_118\n      jumpi\n      mload(0x40)\n      0x08c379a000000000000000000000000000000000000000000000000000000000\n      dup2\n      mstore\n      0x04\n      add\n      tag_119\n      swap1\n      tag_120\n      jump\t// in\n    tag_119:\n      mload(0x40)\n      dup1\n      swap2\n      sub\n      swap1\n      revert\n    tag_118:\n        /* \"ETHKIPU/SubastaModulo2.sol\":4341:4350  finTiempo */\n      sload(0x04)\n        /* \"ETHKIPU/SubastaModulo2.sol\":4322:4337  block.timestamp */\n      timestamp\n        /* \"ETHKIPU/SubastaModulo2.sol\":4322:4350  block.timestamp >= finTiempo */\n      lt\n      iszero\n        /* \"ETHKIPU/SubastaModulo2.sol\":4314:4383  require(block.timestamp >= finTiempo, \"La subasta aun esta en curso\") */\n      tag_122\n      jumpi\n      mload(0x40)\n      0x08c379a000000000000000000000000000000000000000000000000000000000\n      dup2\n      mstore\n      0x04\n      add\n      tag_123\n      swap1\n      tag_124\n      jump\t// in\n    tag_123:\n      mload(0x40)\n      dup1\n      swap2\n      sub\n      swap1\n      revert\n    tag_122:\n        /* \"ETHKIPU/SubastaModulo2.sol\":4407:4411  true */\n      0x01\n        /* \"ETHKIPU/SubastaModulo2.sol\":4394:4404  finalizada */\n      0x0a\n      0x00\n        /* \"ETHKIPU/SubastaModulo2.sol\":4394:4411  finalizada = true */\n      0x0100\n      exp\n      dup2\n      sload\n      dup2\n      0xff\n      mul\n      not\n      and\n      swap1\n      dup4\n      iszero\n      iszero\n      mul\n      or\n      swap1\n      sstore\n      pop\n        /* \"ETHKIPU/SubastaModulo2.sol\":4427:4473  SubastaFinalizada(mejorOfertante, mejorOferta) */\n      0xa3a65b403bdae88eb037f4ecc1d619f436fc3ef6bcbbee3787757164e82883f2\n        /* \"ETHKIPU/SubastaModulo2.sol\":4445:4459  mejorOfertante */\n      0x01\n      0x00\n      swap1\n      sload\n      swap1\n      0x0100\n      exp\n      swap1\n      div\n      0xffffffffffffffffffffffffffffffffffffffff\n      and\n        /* \"ETHKIPU/SubastaModulo2.sol\":4461:4472  mejorOferta */\n      sload(0x02)\n        /* \"ETHKIPU/SubastaModulo2.sol\":4427:4473  SubastaFinalizada(mejorOfertante, mejorOferta) */\n      mload(0x40)\n      tag_125\n      swap3\n      swap2\n      swap1\n      tag_52\n      jump\t// in\n    tag_125:\n      mload(0x40)\n      dup1\n      swap2\n      sub\n      swap1\n      log1\n        /* \"ETHKIPU/SubastaModulo2.sol\":4547:4557  subastador */\n      0x00\n      dup1\n      sload\n      swap1\n      0x0100\n      exp\n      swap1\n      div\n      0xffffffffffffffffffffffffffffffffffffffff\n      and\n        /* \"ETHKIPU/SubastaModulo2.sol\":4539:4567  payable(subastador).transfer */\n      0xffffffffffffffffffffffffffffffffffffffff\n      and\n        /* \"ETHKIPU/SubastaModulo2.sol\":4539:4580  payable(subastador).transfer(mejorOferta) */\n      0x08fc\n        /* \"ETHKIPU/SubastaModulo2.sol\":4568:4579  mejorOferta */\n      sload(0x02)\n        /* \"ETHKIPU/SubastaModulo2.sol\":4539:4580  payable(subastador).transfer(mejorOferta) */\n      swap1\n      dup2\n      iszero\n      mul\n      swap1\n      mload(0x40)\n      0x00\n      mload(0x40)\n      dup1\n      dup4\n      sub\n      dup2\n      dup6\n      dup9\n      dup9\n      call\n      swap4\n      pop\n      pop\n      pop\n      pop\n      iszero\n      dup1\n      iszero\n      tag_127\n      jumpi\n      returndatasize\n      0x00\n      dup1\n      returndatacopy\n      revert(0x00, returndatasize)\n    tag_127:\n      pop\n        /* \"ETHKIPU/SubastaModulo2.sol\":4237:4588  function finalizarSubasta() external soloSubastador subastaActiva {... */\n      jump\t// out\n        /* \"ETHKIPU/SubastaModulo2.sol\":1351:1398  mapping(address => uint256) public ultimaOferta */\n    tag_32:\n      mstore(0x20, 0x0d)\n      dup1\n      0x00\n      mstore\n      keccak256(0x00, 0x40)\n      0x00\n      swap2\n      pop\n      swap1\n      pop\n      sload\n      dup2\n      jump\t// out\n        /* \"ETHKIPU/SubastaModulo2.sol\":2681:3833  function ofertar(uint256 _oferta) external payable subastaHaIniciado subastaActiva {... */\n    tag_38:\n        /* \"ETHKIPU/SubastaModulo2.sol\":1936:1948  inicioTiempo */\n      sload(0x03)\n        /* \"ETHKIPU/SubastaModulo2.sol\":1917:1932  block.timestamp */\n      timestamp\n        /* \"ETHKIPU/SubastaModulo2.sol\":1917:1948  block.timestamp >= inicioTiempo */\n      lt\n      iszero\n        /* \"ETHKIPU/SubastaModulo2.sol\":1909:1982  require(block.timestamp >= inicioTiempo, \"La subasta aun no ha iniciado\") */\n      tag_129\n      jumpi\n      mload(0x40)\n      0x08c379a000000000000000000000000000000000000000000000000000000000\n      dup2\n      mstore\n      0x04\n      add\n      tag_130\n      swap1\n      tag_131\n      jump\t// in\n    tag_130:\n      mload(0x40)\n      dup1\n      swap2\n      sub\n      swap1\n      revert\n    tag_129:\n        /* \"ETHKIPU/SubastaModulo2.sol\":2156:2168  inicioTiempo */\n      sload(0x03)\n        /* \"ETHKIPU/SubastaModulo2.sol\":2137:2152  block.timestamp */\n      timestamp\n        /* \"ETHKIPU/SubastaModulo2.sol\":2137:2168  block.timestamp >= inicioTiempo */\n      lt\n      iszero\n        /* \"ETHKIPU/SubastaModulo2.sol\":2137:2199  block.timestamp >= inicioTiempo && block.timestamp < finTiempo */\n      dup1\n      iszero\n      tag_133\n      jumpi\n      pop\n        /* \"ETHKIPU/SubastaModulo2.sol\":2190:2199  finTiempo */\n      sload(0x04)\n        /* \"ETHKIPU/SubastaModulo2.sol\":2172:2187  block.timestamp */\n      timestamp\n        /* \"ETHKIPU/SubastaModulo2.sol\":2172:2199  block.timestamp < finTiempo */\n      lt\n        /* \"ETHKIPU/SubastaModulo2.sol\":2137:2199  block.timestamp >= inicioTiempo && block.timestamp < finTiempo */\n    tag_133:\n        /* \"ETHKIPU/SubastaModulo2.sol\":2129:2229  require(block.timestamp >= inicioTiempo && block.timestamp < finTiempo, \"La subasta no esta activa\") */\n      tag_134\n      jumpi\n      mload(0x40)\n      0x08c379a000000000000000000000000000000000000000000000000000000000\n      dup2\n      mstore\n      0x04\n      add\n      tag_135\n      swap1\n      tag_120\n      jump\t// in\n    tag_135:\n      mload(0x40)\n      dup1\n      swap2\n      sub\n      swap1\n      revert\n    tag_134:\n        /* \"ETHKIPU/SubastaModulo2.sol\":2775:2793  address _ofertante */\n      0x00\n        /* \"ETHKIPU/SubastaModulo2.sol\":2796:2806  msg.sender */\n      caller\n        /* \"ETHKIPU/SubastaModulo2.sol\":2775:2806  address _ofertante = msg.sender */\n      swap1\n      pop\n        /* \"ETHKIPU/SubastaModulo2.sol\":2836:2848  ofertaMinima */\n      sload(0x05)\n        /* \"ETHKIPU/SubastaModulo2.sol\":2825:2832  _oferta */\n      dup3\n        /* \"ETHKIPU/SubastaModulo2.sol\":2825:2848  _oferta >= ofertaMinima */\n      lt\n      iszero\n        /* \"ETHKIPU/SubastaModulo2.sol\":2817:2903  require(_oferta >= ofertaMinima, \"La oferta debe ser al menos el minimo de 0.005 ETH\") */\n      tag_137\n      jumpi\n      mload(0x40)\n      0x08c379a000000000000000000000000000000000000000000000000000000000\n      dup2\n      mstore\n      0x04\n      add\n      tag_138\n      swap1\n      tag_139\n      jump\t// in\n    tag_138:\n      mload(0x40)\n      dup1\n      swap2\n      sub\n      swap1\n      revert\n    tag_137:\n        /* \"ETHKIPU/SubastaModulo2.sol\":2991:2994  100 */\n      0x64\n        /* \"ETHKIPU/SubastaModulo2.sol\":2962:2988  porcentajeIncrementoMinimo */\n      sload(0x08)\n        /* \"ETHKIPU/SubastaModulo2.sol\":2948:2959  mejorOferta */\n      sload(0x02)\n        /* \"ETHKIPU/SubastaModulo2.sol\":2948:2988  mejorOferta * porcentajeIncrementoMinimo */\n      tag_140\n      swap2\n      swap1\n      tag_141\n      jump\t// in\n    tag_140:\n        /* \"ETHKIPU/SubastaModulo2.sol\":2948:2994  mejorOferta * porcentajeIncrementoMinimo / 100 */\n      tag_142\n      swap2\n      swap1\n      tag_143\n      jump\t// in\n    tag_142:\n        /* \"ETHKIPU/SubastaModulo2.sol\":2933:2944  mejorOferta */\n      sload(0x02)\n        /* \"ETHKIPU/SubastaModulo2.sol\":2933:2995  mejorOferta + (mejorOferta * porcentajeIncrementoMinimo / 100) */\n      tag_144\n      swap2\n      swap1\n      tag_145\n      jump\t// in\n    tag_144:\n        /* \"ETHKIPU/SubastaModulo2.sol\":2922:2929  _oferta */\n      dup3\n        /* \"ETHKIPU/SubastaModulo2.sol\":2922:2995  _oferta >= mejorOferta + (mejorOferta * porcentajeIncrementoMinimo / 100) */\n      lt\n      iszero\n        /* \"ETHKIPU/SubastaModulo2.sol\":2914:3066  require(_oferta >= mejorOferta + (mejorOferta * porcentajeIncrementoMinimo / 100), \"La oferta debe ser al menos un 5% mayor que la mejor oferta actual\") */\n      tag_146\n      jumpi\n      mload(0x40)\n      0x08c379a000000000000000000000000000000000000000000000000000000000\n      dup2\n      mstore\n      0x04\n      add\n      tag_147\n      swap1\n      tag_148\n      jump\t// in\n    tag_147:\n      mload(0x40)\n      dup1\n      swap2\n      sub\n      swap1\n      revert\n    tag_146:\n        /* \"ETHKIPU/SubastaModulo2.sol\":3201:3202  0 */\n      0x00\n        /* \"ETHKIPU/SubastaModulo2.sol\":3175:3203  mejorOfertante != address(0) */\n      0xffffffffffffffffffffffffffffffffffffffff\n      and\n        /* \"ETHKIPU/SubastaModulo2.sol\":3175:3189  mejorOfertante */\n      0x01\n      0x00\n      swap1\n      sload\n      swap1\n      0x0100\n      exp\n      swap1\n      div\n      0xffffffffffffffffffffffffffffffffffffffff\n      and\n        /* \"ETHKIPU/SubastaModulo2.sol\":3175:3203  mejorOfertante != address(0) */\n      0xffffffffffffffffffffffffffffffffffffffff\n      and\n      eq\n        /* \"ETHKIPU/SubastaModulo2.sol\":3171:3272  if (mejorOfertante != address(0)) {... */\n      tag_149\n      jumpi\n        /* \"ETHKIPU/SubastaModulo2.sol\":3249:3260  mejorOferta */\n      sload(0x02)\n        /* \"ETHKIPU/SubastaModulo2.sol\":3220:3229  depositos */\n      0x0c\n        /* \"ETHKIPU/SubastaModulo2.sol\":3220:3245  depositos[mejorOfertante] */\n      0x00\n        /* \"ETHKIPU/SubastaModulo2.sol\":3230:3244  mejorOfertante */\n      0x01\n      0x00\n      swap1\n      sload\n      swap1\n      0x0100\n      exp\n      swap1\n      div\n      0xffffffffffffffffffffffffffffffffffffffff\n      and\n        /* \"ETHKIPU/SubastaModulo2.sol\":3220:3245  depositos[mejorOfertante] */\n      0xffffffffffffffffffffffffffffffffffffffff\n      and\n      0xffffffffffffffffffffffffffffffffffffffff\n      and\n      dup2\n      mstore\n      0x20\n      add\n      swap1\n      dup2\n      mstore\n      0x20\n      add\n      0x00\n      keccak256\n      0x00\n        /* \"ETHKIPU/SubastaModulo2.sol\":3220:3260  depositos[mejorOfertante] += mejorOferta */\n      dup3\n      dup3\n      sload\n      tag_150\n      swap2\n      swap1\n      tag_145\n      jump\t// in\n    tag_150:\n      swap3\n      pop\n      pop\n      dup2\n      swap1\n      sstore\n      pop\n        /* \"ETHKIPU/SubastaModulo2.sol\":3171:3272  if (mejorOfertante != address(0)) {... */\n    tag_149:\n        /* \"ETHKIPU/SubastaModulo2.sol\":3349:3359  _ofertante */\n      dup1\n        /* \"ETHKIPU/SubastaModulo2.sol\":3332:3346  mejorOfertante */\n      0x01\n      0x00\n        /* \"ETHKIPU/SubastaModulo2.sol\":3332:3359  mejorOfertante = _ofertante */\n      0x0100\n      exp\n      dup2\n      sload\n      dup2\n      0xffffffffffffffffffffffffffffffffffffffff\n      mul\n      not\n      and\n      swap1\n      dup4\n      0xffffffffffffffffffffffffffffffffffffffff\n      and\n      mul\n      or\n      swap1\n      sstore\n      pop\n        /* \"ETHKIPU/SubastaModulo2.sol\":3384:3391  _oferta */\n      dup2\n        /* \"ETHKIPU/SubastaModulo2.sol\":3370:3381  mejorOferta */\n      0x02\n        /* \"ETHKIPU/SubastaModulo2.sol\":3370:3391  mejorOferta = _oferta */\n      dup2\n      swap1\n      sstore\n      pop\n        /* \"ETHKIPU/SubastaModulo2.sol\":3402:3409  ofertas */\n      0x0b\n        /* \"ETHKIPU/SubastaModulo2.sol\":3415:3442  Oferta(_ofertante, _oferta) */\n      mload(0x40)\n      dup1\n      0x40\n      add\n      0x40\n      mstore\n      dup1\n        /* \"ETHKIPU/SubastaModulo2.sol\":3422:3432  _ofertante */\n      dup4\n        /* \"ETHKIPU/SubastaModulo2.sol\":3415:3442  Oferta(_ofertante, _oferta) */\n      0xffffffffffffffffffffffffffffffffffffffff\n      and\n      dup2\n      mstore\n      0x20\n      add\n        /* \"ETHKIPU/SubastaModulo2.sol\":3434:3441  _oferta */\n      dup5\n        /* \"ETHKIPU/SubastaModulo2.sol\":3415:3442  Oferta(_ofertante, _oferta) */\n      dup2\n      mstore\n      pop\n        /* \"ETHKIPU/SubastaModulo2.sol\":3402:3443  ofertas.push(Oferta(_ofertante, _oferta)) */\n      swap1\n      dup1\n      0x01\n      dup2\n      sload\n      add\n      dup1\n      dup3\n      sstore\n      dup1\n      swap2\n      pop\n      pop\n      0x01\n      swap1\n      sub\n      swap1\n      0x00\n      mstore\n      keccak256(0x00, 0x20)\n      swap1\n      0x02\n      mul\n      add\n      0x00\n      swap1\n      swap2\n      swap1\n      swap2\n      swap1\n      swap2\n      pop\n      0x00\n      dup3\n      add\n      mload\n      dup2\n      0x00\n      add\n      exp(0x0100, 0x00)\n      dup2\n      sload\n      dup2\n      0xffffffffffffffffffffffffffffffffffffffff\n      mul\n      not\n      and\n      swap1\n      dup4\n      0xffffffffffffffffffffffffffffffffffffffff\n      and\n      mul\n      or\n      swap1\n      sstore\n      pop\n      0x20\n      dup3\n      add\n      mload\n      dup2\n      0x01\n      add\n      sstore\n      pop\n      pop\n        /* \"ETHKIPU/SubastaModulo2.sol\":3481:3488  _oferta */\n      dup2\n        /* \"ETHKIPU/SubastaModulo2.sol\":3456:3465  depositos */\n      0x0c\n        /* \"ETHKIPU/SubastaModulo2.sol\":3456:3477  depositos[_ofertante] */\n      0x00\n        /* \"ETHKIPU/SubastaModulo2.sol\":3466:3476  _ofertante */\n      dup4\n        /* \"ETHKIPU/SubastaModulo2.sol\":3456:3477  depositos[_ofertante] */\n      0xffffffffffffffffffffffffffffffffffffffff\n      and\n      0xffffffffffffffffffffffffffffffffffffffff\n      and\n      dup2\n      mstore\n      0x20\n      add\n      swap1\n      dup2\n      mstore\n      0x20\n      add\n      0x00\n      keccak256\n      0x00\n        /* \"ETHKIPU/SubastaModulo2.sol\":3456:3488  depositos[_ofertante] += _oferta */\n      dup3\n      dup3\n      sload\n      tag_152\n      swap2\n      swap1\n      tag_145\n      jump\t// in\n    tag_152:\n      swap3\n      pop\n      pop\n      dup2\n      swap1\n      sstore\n      pop\n        /* \"ETHKIPU/SubastaModulo2.sol\":3526:3533  _oferta */\n      dup2\n        /* \"ETHKIPU/SubastaModulo2.sol\":3499:3511  ultimaOferta */\n      0x0d\n        /* \"ETHKIPU/SubastaModulo2.sol\":3499:3523  ultimaOferta[_ofertante] */\n      0x00\n        /* \"ETHKIPU/SubastaModulo2.sol\":3512:3522  _ofertante */\n      dup4\n        /* \"ETHKIPU/SubastaModulo2.sol\":3499:3523  ultimaOferta[_ofertante] */\n      0xffffffffffffffffffffffffffffffffffffffff\n      and\n      0xffffffffffffffffffffffffffffffffffffffff\n      and\n      dup2\n      mstore\n      0x20\n      add\n      swap1\n      dup2\n      mstore\n      0x20\n      add\n      0x00\n      keccak256\n        /* \"ETHKIPU/SubastaModulo2.sol\":3499:3533  ultimaOferta[_ofertante] = _oferta */\n      dup2\n      swap1\n      sstore\n      pop\n        /* \"ETHKIPU/SubastaModulo2.sol\":3595:3627  NuevaOferta(_ofertante, _oferta) */\n      0x155d469211f46e4d9ae974606f0878f9aacc6198ba30a1e6b9c8cf5627352fb5\n        /* \"ETHKIPU/SubastaModulo2.sol\":3607:3617  _ofertante */\n      dup2\n        /* \"ETHKIPU/SubastaModulo2.sol\":3619:3626  _oferta */\n      dup4\n        /* \"ETHKIPU/SubastaModulo2.sol\":3595:3627  NuevaOferta(_ofertante, _oferta) */\n      mload(0x40)\n      tag_153\n      swap3\n      swap2\n      swap1\n      tag_52\n      jump\t// in\n    tag_153:\n      mload(0x40)\n      dup1\n      swap2\n      sub\n      swap1\n      log1\n        /* \"ETHKIPU/SubastaModulo2.sol\":3754:3769  previofinTiempo */\n      sload(0x07)\n        /* \"ETHKIPU/SubastaModulo2.sol\":3742:3751  finTiempo */\n      sload(0x04)\n        /* \"ETHKIPU/SubastaModulo2.sol\":3742:3769  finTiempo - previofinTiempo */\n      tag_154\n      swap2\n      swap1\n      tag_155\n      jump\t// in\n    tag_154:\n        /* \"ETHKIPU/SubastaModulo2.sol\":3724:3739  block.timestamp */\n      timestamp\n        /* \"ETHKIPU/SubastaModulo2.sol\":3724:3769  block.timestamp > finTiempo - previofinTiempo */\n      gt\n        /* \"ETHKIPU/SubastaModulo2.sol\":3720:3826  if (block.timestamp > finTiempo - previofinTiempo) {... */\n      iszero\n      tag_156\n      jumpi\n        /* \"ETHKIPU/SubastaModulo2.sol\":3799:3814  extensionTiempo */\n      sload(0x06)\n        /* \"ETHKIPU/SubastaModulo2.sol\":3786:3795  finTiempo */\n      0x04\n      0x00\n        /* \"ETHKIPU/SubastaModulo2.sol\":3786:3814  finTiempo += extensionTiempo */\n      dup3\n      dup3\n      sload\n      tag_157\n      swap2\n      swap1\n      tag_145\n      jump\t// in\n    tag_157:\n      swap3\n      pop\n      pop\n      dup2\n      swap1\n      sstore\n      pop\n        /* \"ETHKIPU/SubastaModulo2.sol\":3720:3826  if (block.timestamp > finTiempo - previofinTiempo) {... */\n    tag_156:\n        /* \"ETHKIPU/SubastaModulo2.sol\":2764:3833  {... */\n      pop\n        /* \"ETHKIPU/SubastaModulo2.sol\":2681:3833  function ofertar(uint256 _oferta) external payable subastaHaIniciado subastaActiva {... */\n      pop\n      jump\t// out\n        /* \"ETHKIPU/SubastaModulo2.sol\":126:151  address public subastador */\n    tag_41:\n      0x00\n      dup1\n      sload\n      swap1\n      0x0100\n      exp\n      swap1\n      div\n      0xffffffffffffffffffffffffffffffffffffffff\n      and\n      dup2\n      jump\t// out\n        /* \"ETHKIPU/SubastaModulo2.sol\":4700:5166  function devolverDepositos() external subastaFinalizada {... */\n    tag_46:\n        /* \"ETHKIPU/SubastaModulo2.sol\":2408:2418  finalizada */\n      0x0a\n      0x00\n      swap1\n      sload\n      swap1\n      0x0100\n      exp\n      swap1\n      div\n      0xff\n      and\n        /* \"ETHKIPU/SubastaModulo2.sol\":2400:2454  require(finalizada, \"La subasta aun no ha finalizado\") */\n      tag_159\n      jumpi\n      mload(0x40)\n      0x08c379a000000000000000000000000000000000000000000000000000000000\n      dup2\n      mstore\n      0x04\n      add\n      tag_160\n      swap1\n      tag_161\n      jump\t// in\n    tag_160:\n      mload(0x40)\n      dup1\n      swap2\n      sub\n      swap1\n      revert\n    tag_159:\n        /* \"ETHKIPU/SubastaModulo2.sol\":4767:4782  address _sender */\n      0x00\n        /* \"ETHKIPU/SubastaModulo2.sol\":4785:4795  msg.sender */\n      caller\n        /* \"ETHKIPU/SubastaModulo2.sol\":4767:4795  address _sender = msg.sender */\n      swap1\n      pop\n        /* \"ETHKIPU/SubastaModulo2.sol\":4806:4822  uint256 deposito */\n      0x00\n        /* \"ETHKIPU/SubastaModulo2.sol\":4825:4834  depositos */\n      0x0c\n        /* \"ETHKIPU/SubastaModulo2.sol\":4825:4843  depositos[_sender] */\n      0x00\n        /* \"ETHKIPU/SubastaModulo2.sol\":4835:4842  _sender */\n      dup4\n        /* \"ETHKIPU/SubastaModulo2.sol\":4825:4843  depositos[_sender] */\n      0xffffffffffffffffffffffffffffffffffffffff\n      and\n      0xffffffffffffffffffffffffffffffffffffffff\n      and\n      dup2\n      mstore\n      0x20\n      add\n      swap1\n      dup2\n      mstore\n      0x20\n      add\n      0x00\n      keccak256\n      sload\n        /* \"ETHKIPU/SubastaModulo2.sol\":4806:4843  uint256 deposito = depositos[_sender] */\n      swap1\n      pop\n        /* \"ETHKIPU/SubastaModulo2.sol\":4873:4874  0 */\n      0x00\n        /* \"ETHKIPU/SubastaModulo2.sol\":4862:4870  deposito */\n      dup2\n        /* \"ETHKIPU/SubastaModulo2.sol\":4862:4874  deposito > 0 */\n      gt\n        /* \"ETHKIPU/SubastaModulo2.sol\":4854:4911  require(deposito > 0, \"No tienes deposito para reclamar\") */\n      tag_163\n      jumpi\n      mload(0x40)\n      0x08c379a000000000000000000000000000000000000000000000000000000000\n      dup2\n      mstore\n      0x04\n      add\n      tag_164\n      swap1\n      tag_165\n      jump\t// in\n    tag_164:\n      mload(0x40)\n      dup1\n      swap2\n      sub\n      swap1\n      revert\n    tag_163:\n        /* \"ETHKIPU/SubastaModulo2.sol\":4932:4949  uint256 reembolso */\n      0x00\n        /* \"ETHKIPU/SubastaModulo2.sol\":4992:4995  100 */\n      0x64\n        /* \"ETHKIPU/SubastaModulo2.sol\":4970:4988  porcentajeComision */\n      sload(0x09)\n        /* \"ETHKIPU/SubastaModulo2.sol\":4964:4967  100 */\n      0x64\n        /* \"ETHKIPU/SubastaModulo2.sol\":4964:4988  100 - porcentajeComision */\n      tag_166\n      swap2\n      swap1\n      tag_155\n      jump\t// in\n    tag_166:\n        /* \"ETHKIPU/SubastaModulo2.sol\":4952:4960  deposito */\n      dup4\n        /* \"ETHKIPU/SubastaModulo2.sol\":4952:4989  deposito * (100 - porcentajeComision) */\n      tag_167\n      swap2\n      swap1\n      tag_141\n      jump\t// in\n    tag_167:\n        /* \"ETHKIPU/SubastaModulo2.sol\":4952:4995  deposito * (100 - porcentajeComision) / 100 */\n      tag_168\n      swap2\n      swap1\n      tag_143\n      jump\t// in\n    tag_168:\n        /* \"ETHKIPU/SubastaModulo2.sol\":4932:4995  uint256 reembolso = deposito * (100 - porcentajeComision) / 100 */\n      swap1\n      pop\n        /* \"ETHKIPU/SubastaModulo2.sol\":5054:5061  _sender */\n      dup3\n        /* \"ETHKIPU/SubastaModulo2.sol\":5046:5071  payable(_sender).transfer */\n      0xffffffffffffffffffffffffffffffffffffffff\n      and\n        /* \"ETHKIPU/SubastaModulo2.sol\":5046:5082  payable(_sender).transfer(reembolso) */\n      0x08fc\n        /* \"ETHKIPU/SubastaModulo2.sol\":5072:5081  reembolso */\n      dup3\n        /* \"ETHKIPU/SubastaModulo2.sol\":5046:5082  payable(_sender).transfer(reembolso) */\n      swap1\n      dup2\n      iszero\n      mul\n      swap1\n      mload(0x40)\n      0x00\n      mload(0x40)\n      dup1\n      dup4\n      sub\n      dup2\n      dup6\n      dup9\n      dup9\n      call\n      swap4\n      pop\n      pop\n      pop\n      pop\n      iszero\n      dup1\n      iszero\n      tag_170\n      jumpi\n      returndatasize\n      0x00\n      dup1\n      returndatacopy\n      revert(0x00, returndatasize)\n    tag_170:\n      pop\n        /* \"ETHKIPU/SubastaModulo2.sol\":5114:5115  0 */\n      0x00\n        /* \"ETHKIPU/SubastaModulo2.sol\":5093:5102  depositos */\n      0x0c\n        /* \"ETHKIPU/SubastaModulo2.sol\":5093:5111  depositos[_sender] */\n      0x00\n        /* \"ETHKIPU/SubastaModulo2.sol\":5103:5110  _sender */\n      dup6\n        /* \"ETHKIPU/SubastaModulo2.sol\":5093:5111  depositos[_sender] */\n      0xffffffffffffffffffffffffffffffffffffffff\n      and\n      0xffffffffffffffffffffffffffffffffffffffff\n      and\n      dup2\n      mstore\n      0x20\n      add\n      swap1\n      dup2\n      mstore\n      0x20\n      add\n      0x00\n      keccak256\n        /* \"ETHKIPU/SubastaModulo2.sol\":5093:5115  depositos[_sender] = 0 */\n      dup2\n      swap1\n      sstore\n      pop\n        /* \"ETHKIPU/SubastaModulo2.sol\":4756:5166  {... */\n      pop\n      pop\n      pop\n        /* \"ETHKIPU/SubastaModulo2.sol\":4700:5166  function devolverDepositos() external subastaFinalizada {... */\n      jump\t// out\n        /* \"ETHKIPU/SubastaModulo2.sol\":1163:1186  Oferta[] public ofertas */\n    tag_50:\n      0x0b\n      dup2\n      dup2\n      sload\n      dup2\n      lt\n      tag_171\n      jumpi\n      0x00\n      dup1\n      revert\n    tag_171:\n      swap1\n      0x00\n      mstore\n      keccak256(0x00, 0x20)\n      swap1\n      0x02\n      mul\n      add\n      0x00\n      swap2\n      pop\n      swap1\n      pop\n      dup1\n      0x00\n      add\n      0x00\n      swap1\n      sload\n      swap1\n      0x0100\n      exp\n      swap1\n      div\n      0xffffffffffffffffffffffffffffffffffffffff\n      and\n      swap1\n      dup1\n      0x01\n      add\n      sload\n      swap1\n      pop\n      dup3\n      jump\t// out\n        /* \"ETHKIPU/SubastaModulo2.sol\":401:461  uint256 public finTiempo = inicioTiempo + (7 * 24 * 60 * 60) */\n    tag_55:\n      sload(0x04)\n      dup2\n      jump\t// out\n        /* \"ETHKIPU/SubastaModulo2.sol\":1234:1278  mapping(address => uint256) public depositos */\n    tag_60:\n      mstore(0x20, 0x0c)\n      dup1\n      0x00\n      mstore\n      keccak256(0x00, 0x40)\n      0x00\n      swap2\n      pop\n      swap1\n      pop\n      sload\n      dup2\n      jump\t// out\n        /* \"ETHKIPU/SubastaModulo2.sol\":5251:5765  function reembolsoParcial(uint256 monto) external subastaActiva {... */\n    tag_65:\n        /* \"ETHKIPU/SubastaModulo2.sol\":2156:2168  inicioTiempo */\n      sload(0x03)\n        /* \"ETHKIPU/SubastaModulo2.sol\":2137:2152  block.timestamp */\n      timestamp\n        /* \"ETHKIPU/SubastaModulo2.sol\":2137:2168  block.timestamp >= inicioTiempo */\n      lt\n      iszero\n        /* \"ETHKIPU/SubastaModulo2.sol\":2137:2199  block.timestamp >= inicioTiempo && block.timestamp < finTiempo */\n      dup1\n      iszero\n      tag_174\n      jumpi\n      pop\n        /* \"ETHKIPU/SubastaModulo2.sol\":2190:2199  finTiempo */\n      sload(0x04)\n        /* \"ETHKIPU/SubastaModulo2.sol\":2172:2187  block.timestamp */\n      timestamp\n        /* \"ETHKIPU/SubastaModulo2.sol\":2172:2199  block.timestamp < finTiempo */\n      lt\n        /* \"ETHKIPU/SubastaModulo2.sol\":2137:2199  block.timestamp >= inicioTiempo && block.timestamp < finTiempo */\n    tag_174:\n        /* \"ETHKIPU/SubastaModulo2.sol\":2129:2229  require(block.timestamp >= inicioTiempo && block.timestamp < finTiempo, \"La subasta no esta activa\") */\n      tag_175\n      jumpi\n      mload(0x40)\n      0x08c379a000000000000000000000000000000000000000000000000000000000\n      dup2\n      mstore\n      0x04\n      add\n      tag_176\n      swap1\n      tag_120\n      jump\t// in\n    tag_176:\n      mload(0x40)\n      dup1\n      swap2\n      sub\n      swap1\n      revert\n    tag_175:\n        /* \"ETHKIPU/SubastaModulo2.sol\":5326:5341  address _sender */\n      0x00\n        /* \"ETHKIPU/SubastaModulo2.sol\":5344:5354  msg.sender */\n      caller\n        /* \"ETHKIPU/SubastaModulo2.sol\":5326:5354  address _sender = msg.sender */\n      swap1\n      pop\n        /* \"ETHKIPU/SubastaModulo2.sol\":5365:5391  uint256 depositoDisponible */\n      0x00\n        /* \"ETHKIPU/SubastaModulo2.sol\":5415:5427  ultimaOferta */\n      0x0d\n        /* \"ETHKIPU/SubastaModulo2.sol\":5415:5436  ultimaOferta[_sender] */\n      0x00\n        /* \"ETHKIPU/SubastaModulo2.sol\":5428:5435  _sender */\n      dup4\n        /* \"ETHKIPU/SubastaModulo2.sol\":5415:5436  ultimaOferta[_sender] */\n      0xffffffffffffffffffffffffffffffffffffffff\n      and\n      0xffffffffffffffffffffffffffffffffffffffff\n      and\n      dup2\n      mstore\n      0x20\n      add\n      swap1\n      dup2\n      mstore\n      0x20\n      add\n      0x00\n      keccak256\n      sload\n        /* \"ETHKIPU/SubastaModulo2.sol\":5394:5403  depositos */\n      0x0c\n        /* \"ETHKIPU/SubastaModulo2.sol\":5394:5412  depositos[_sender] */\n      0x00\n        /* \"ETHKIPU/SubastaModulo2.sol\":5404:5411  _sender */\n      dup5\n        /* \"ETHKIPU/SubastaModulo2.sol\":5394:5412  depositos[_sender] */\n      0xffffffffffffffffffffffffffffffffffffffff\n      and\n      0xffffffffffffffffffffffffffffffffffffffff\n      and\n      dup2\n      mstore\n      0x20\n      add\n      swap1\n      dup2\n      mstore\n      0x20\n      add\n      0x00\n      keccak256\n      sload\n        /* \"ETHKIPU/SubastaModulo2.sol\":5394:5436  depositos[_sender] - ultimaOferta[_sender] */\n      tag_178\n      swap2\n      swap1\n      tag_155\n      jump\t// in\n    tag_178:\n        /* \"ETHKIPU/SubastaModulo2.sol\":5365:5436  uint256 depositoDisponible = depositos[_sender] - ultimaOferta[_sender] */\n      swap1\n      pop\n        /* \"ETHKIPU/SubastaModulo2.sol\":5537:5555  depositoDisponible */\n      dup1\n        /* \"ETHKIPU/SubastaModulo2.sol\":5528:5533  monto */\n      dup4\n        /* \"ETHKIPU/SubastaModulo2.sol\":5528:5555  monto <= depositoDisponible */\n      gt\n      iszero\n        /* \"ETHKIPU/SubastaModulo2.sol\":5520:5625  require(monto <= depositoDisponible, \"Monto mayor al deposito disponible por encima de tu ultima oferta\") */\n      tag_179\n      jumpi\n      mload(0x40)\n      0x08c379a000000000000000000000000000000000000000000000000000000000\n      dup2\n      mstore\n      0x04\n      add\n      tag_180\n      swap1\n      tag_181\n      jump\t// in\n    tag_180:\n      mload(0x40)\n      dup1\n      swap2\n      sub\n      swap1\n      revert\n    tag_179:\n        /* \"ETHKIPU/SubastaModulo2.sol\":5660:5665  monto */\n      dup3\n        /* \"ETHKIPU/SubastaModulo2.sol\":5638:5647  depositos */\n      0x0c\n        /* \"ETHKIPU/SubastaModulo2.sol\":5638:5656  depositos[_sender] */\n      0x00\n        /* \"ETHKIPU/SubastaModulo2.sol\":5648:5655  _sender */\n      dup5\n        /* \"ETHKIPU/SubastaModulo2.sol\":5638:5656  depositos[_sender] */\n      0xffffffffffffffffffffffffffffffffffffffff\n      and\n      0xffffffffffffffffffffffffffffffffffffffff\n      and\n      dup2\n      mstore\n      0x20\n      add\n      swap1\n      dup2\n      mstore\n      0x20\n      add\n      0x00\n      keccak256\n      0x00\n        /* \"ETHKIPU/SubastaModulo2.sol\":5638:5665  depositos[_sender] -= monto */\n      dup3\n      dup3\n      sload\n      tag_182\n      swap2\n      swap1\n      tag_155\n      jump\t// in\n    tag_182:\n      swap3\n      pop\n      pop\n      dup2\n      swap1\n      sstore\n      pop\n        /* \"ETHKIPU/SubastaModulo2.sol\":5733:5740  _sender */\n      dup2\n        /* \"ETHKIPU/SubastaModulo2.sol\":5725:5750  payable(_sender).transfer */\n      0xffffffffffffffffffffffffffffffffffffffff\n      and\n        /* \"ETHKIPU/SubastaModulo2.sol\":5725:5757  payable(_sender).transfer(monto) */\n      0x08fc\n        /* \"ETHKIPU/SubastaModulo2.sol\":5751:5756  monto */\n      dup5\n        /* \"ETHKIPU/SubastaModulo2.sol\":5725:5757  payable(_sender).transfer(monto) */\n      swap1\n      dup2\n      iszero\n      mul\n      swap1\n      mload(0x40)\n      0x00\n      mload(0x40)\n      dup1\n      dup4\n      sub\n      dup2\n      dup6\n      dup9\n      dup9\n      call\n      swap4\n      pop\n      pop\n      pop\n      pop\n      iszero\n      dup1\n      iszero\n      tag_184\n      jumpi\n      returndatasize\n      0x00\n      dup1\n      returndatacopy\n      revert(0x00, returndatasize)\n    tag_184:\n      pop\n        /* \"ETHKIPU/SubastaModulo2.sol\":5315:5765  {... */\n      pop\n      pop\n        /* \"ETHKIPU/SubastaModulo2.sol\":5251:5765  function reembolsoParcial(uint256 monto) external subastaActiva {... */\n      pop\n      jump\t// out\n        /* \"ETHKIPU/SubastaModulo2.sol\":883:928  uint256 public porcentajeIncrementoMinimo = 5 */\n    tag_68:\n      sload(0x08)\n      dup2\n      jump\t// out\n        /* \"ETHKIPU/SubastaModulo2.sol\":249:289  uint256 public inicioTiempo = 1730894400 */\n    tag_72:\n      sload(0x03)\n      dup2\n      jump\t// out\n        /* \"ETHKIPU/SubastaModulo2.sol\":3865:4005  function mostrarGanador() external view subastaFinalizada returns (address, uint256) {... */\n    tag_76:\n        /* \"ETHKIPU/SubastaModulo2.sol\":3932:3939  address */\n      0x00\n        /* \"ETHKIPU/SubastaModulo2.sol\":3941:3948  uint256 */\n      dup1\n        /* \"ETHKIPU/SubastaModulo2.sol\":2408:2418  finalizada */\n      0x0a\n      0x00\n      swap1\n      sload\n      swap1\n      0x0100\n      exp\n      swap1\n      div\n      0xff\n      and\n        /* \"ETHKIPU/SubastaModulo2.sol\":2400:2454  require(finalizada, \"La subasta aun no ha finalizado\") */\n      tag_186\n      jumpi\n      mload(0x40)\n      0x08c379a000000000000000000000000000000000000000000000000000000000\n      dup2\n      mstore\n      0x04\n      add\n      tag_187\n      swap1\n      tag_161\n      jump\t// in\n    tag_187:\n      mload(0x40)\n      dup1\n      swap2\n      sub\n      swap1\n      revert\n    tag_186:\n        /* \"ETHKIPU/SubastaModulo2.sol\":3969:3983  mejorOfertante */\n      0x01\n      0x00\n      swap1\n      sload\n      swap1\n      0x0100\n      exp\n      swap1\n      div\n      0xffffffffffffffffffffffffffffffffffffffff\n      and\n        /* \"ETHKIPU/SubastaModulo2.sol\":3985:3996  mejorOferta */\n      sload(0x02)\n        /* \"ETHKIPU/SubastaModulo2.sol\":3961:3997  return (mejorOfertante, mejorOferta) */\n      swap2\n      pop\n      swap2\n      pop\n        /* \"ETHKIPU/SubastaModulo2.sol\":3865:4005  function mostrarGanador() external view subastaFinalizada returns (address, uint256) {... */\n      swap1\n      swap2\n      jump\t// out\n        /* \"ETHKIPU/SubastaModulo2.sol\":216:242  uint256 public mejorOferta */\n    tag_80:\n      sload(0x02)\n      dup2\n      jump\t// out\n        /* \"ETHKIPU/SubastaModulo2.sol\":773:813  uint256 public previofinTiempo = 10 * 60 */\n    tag_84:\n      sload(0x07)\n      dup2\n      jump\t// out\n        /* \"ETHKIPU/SubastaModulo2.sol\":4047:4203  function mostrarOfertas() external view returns (Oferta[] memory) {... */\n    tag_88:\n        /* \"ETHKIPU/SubastaModulo2.sol\":4096:4111  Oferta[] memory */\n      0x60\n        /* \"ETHKIPU/SubastaModulo2.sol\":4131:4138  ofertas */\n      0x0b\n        /* \"ETHKIPU/SubastaModulo2.sol\":4124:4138  return ofertas */\n      dup1\n      sload\n      dup1\n      0x20\n      mul\n      0x20\n      add\n      mload(0x40)\n      swap1\n      dup2\n      add\n      0x40\n      mstore\n      dup1\n      swap3\n      swap2\n      swap1\n      dup2\n      dup2\n      mstore\n      0x20\n      add\n      0x00\n      swap1\n    tag_190:\n      dup3\n      dup3\n      lt\n      iszero\n      tag_191\n      jumpi\n      dup4\n      dup3\n      swap1\n      0x00\n      mstore\n      keccak256(0x00, 0x20)\n      swap1\n      0x02\n      mul\n      add\n      mload(0x40)\n      dup1\n      0x40\n      add\n      0x40\n      mstore\n      swap1\n      dup2\n      0x00\n      dup3\n      add\n      0x00\n      swap1\n      sload\n      swap1\n      0x0100\n      exp\n      swap1\n      div\n      0xffffffffffffffffffffffffffffffffffffffff\n      and\n      0xffffffffffffffffffffffffffffffffffffffff\n      and\n      0xffffffffffffffffffffffffffffffffffffffff\n      and\n      dup2\n      mstore\n      0x20\n      add\n      0x01\n      dup3\n      add\n      sload\n      dup2\n      mstore\n      pop\n      pop\n      dup2\n      mstore\n      0x20\n      add\n      swap1\n      0x01\n      add\n      swap1\n      jump(tag_190)\n    tag_191:\n      pop\n      pop\n      pop\n      pop\n      swap1\n      pop\n        /* \"ETHKIPU/SubastaModulo2.sol\":4047:4203  function mostrarOfertas() external view returns (Oferta[] memory) {... */\n      swap1\n      jump\t// out\n        /* \"ETHKIPU/SubastaModulo2.sol\":595:641  uint256 public ofertaMinima = 5000000000000000 */\n    tag_93:\n      sload(0x05)\n      dup2\n      jump\t// out\n        /* \"ETHKIPU/SubastaModulo2.sol\":697:737  uint256 public extensionTiempo = 10 * 60 */\n    tag_97:\n      sload(0x06)\n      dup2\n      jump\t// out\n        /* \"ETHKIPU/SubastaModulo2.sol\":180:209  address public mejorOfertante */\n    tag_101:\n      0x01\n      0x00\n      swap1\n      sload\n      swap1\n      0x0100\n      exp\n      swap1\n      div\n      0xffffffffffffffffffffffffffffffffffffffff\n      and\n      dup2\n      jump\t// out\n        /* \"ETHKIPU/SubastaModulo2.sol\":935:972  uint256 public porcentajeComision = 2 */\n    tag_105:\n      sload(0x09)\n      dup2\n      jump\t// out\n        /* \"ETHKIPU/SubastaModulo2.sol\":979:1009  bool public finalizada = false */\n    tag_109:\n      0x0a\n      0x00\n      swap1\n      sload\n      swap1\n      0x0100\n      exp\n      swap1\n      div\n      0xff\n      and\n      dup2\n      jump\t// out\n        /* \"#utility.yul\":88:205   */\n    tag_194:\n        /* \"#utility.yul\":197:198   */\n      0x00\n        /* \"#utility.yul\":194:195   */\n      dup1\n        /* \"#utility.yul\":187:199   */\n      revert\n        /* \"#utility.yul\":334:460   */\n    tag_196:\n        /* \"#utility.yul\":371:378   */\n      0x00\n        /* \"#utility.yul\":411:453   */\n      0xffffffffffffffffffffffffffffffffffffffff\n        /* \"#utility.yul\":404:409   */\n      dup3\n        /* \"#utility.yul\":400:454   */\n      and\n        /* \"#utility.yul\":389:454   */\n      swap1\n      pop\n        /* \"#utility.yul\":334:460   */\n      swap2\n      swap1\n      pop\n      jump\t// out\n        /* \"#utility.yul\":466:562   */\n    tag_197:\n        /* \"#utility.yul\":503:510   */\n      0x00\n        /* \"#utility.yul\":532:556   */\n      tag_243\n        /* \"#utility.yul\":550:555   */\n      dup3\n        /* \"#utility.yul\":532:556   */\n      tag_196\n      jump\t// in\n    tag_243:\n        /* \"#utility.yul\":521:556   */\n      swap1\n      pop\n        /* \"#utility.yul\":466:562   */\n      swap2\n      swap1\n      pop\n      jump\t// out\n        /* \"#utility.yul\":568:690   */\n    tag_198:\n        /* \"#utility.yul\":641:665   */\n      tag_245\n        /* \"#utility.yul\":659:664   */\n      dup2\n        /* \"#utility.yul\":641:665   */\n      tag_197\n      jump\t// in\n    tag_245:\n        /* \"#utility.yul\":634:639   */\n      dup2\n        /* \"#utility.yul\":631:666   */\n      eq\n        /* \"#utility.yul\":621:684   */\n      tag_246\n      jumpi\n        /* \"#utility.yul\":680:681   */\n      0x00\n        /* \"#utility.yul\":677:678   */\n      dup1\n        /* \"#utility.yul\":670:682   */\n      revert\n        /* \"#utility.yul\":621:684   */\n    tag_246:\n        /* \"#utility.yul\":568:690   */\n      pop\n      jump\t// out\n        /* \"#utility.yul\":696:835   */\n    tag_199:\n        /* \"#utility.yul\":742:747   */\n      0x00\n        /* \"#utility.yul\":780:786   */\n      dup2\n        /* \"#utility.yul\":767:787   */\n      calldataload\n        /* \"#utility.yul\":758:787   */\n      swap1\n      pop\n        /* \"#utility.yul\":796:829   */\n      tag_248\n        /* \"#utility.yul\":823:828   */\n      dup2\n        /* \"#utility.yul\":796:829   */\n      tag_198\n      jump\t// in\n    tag_248:\n        /* \"#utility.yul\":696:835   */\n      swap3\n      swap2\n      pop\n      pop\n      jump\t// out\n        /* \"#utility.yul\":841:1170   */\n    tag_31:\n        /* \"#utility.yul\":900:906   */\n      0x00\n        /* \"#utility.yul\":949:951   */\n      0x20\n        /* \"#utility.yul\":937:946   */\n      dup3\n        /* \"#utility.yul\":928:935   */\n      dup5\n        /* \"#utility.yul\":924:947   */\n      sub\n        /* \"#utility.yul\":920:952   */\n      slt\n        /* \"#utility.yul\":917:1036   */\n      iszero\n      tag_250\n      jumpi\n        /* \"#utility.yul\":955:1034   */\n      tag_251\n      tag_194\n      jump\t// in\n    tag_251:\n        /* \"#utility.yul\":917:1036   */\n    tag_250:\n        /* \"#utility.yul\":1075:1076   */\n      0x00\n        /* \"#utility.yul\":1100:1153   */\n      tag_252\n        /* \"#utility.yul\":1145:1152   */\n      dup5\n        /* \"#utility.yul\":1136:1142   */\n      dup3\n        /* \"#utility.yul\":1125:1134   */\n      dup6\n        /* \"#utility.yul\":1121:1143   */\n      add\n        /* \"#utility.yul\":1100:1153   */\n      tag_199\n      jump\t// in\n    tag_252:\n        /* \"#utility.yul\":1090:1153   */\n      swap2\n      pop\n        /* \"#utility.yul\":1046:1163   */\n      pop\n        /* \"#utility.yul\":841:1170   */\n      swap3\n      swap2\n      pop\n      pop\n      jump\t// out\n        /* \"#utility.yul\":1176:1253   */\n    tag_200:\n        /* \"#utility.yul\":1213:1220   */\n      0x00\n        /* \"#utility.yul\":1242:1247   */\n      dup2\n        /* \"#utility.yul\":1231:1247   */\n      swap1\n      pop\n        /* \"#utility.yul\":1176:1253   */\n      swap2\n      swap1\n      pop\n      jump\t// out\n        /* \"#utility.yul\":1259:1377   */\n    tag_201:\n        /* \"#utility.yul\":1346:1370   */\n      tag_255\n        /* \"#utility.yul\":1364:1369   */\n      dup2\n        /* \"#utility.yul\":1346:1370   */\n      tag_200\n      jump\t// in\n    tag_255:\n        /* \"#utility.yul\":1341:1344   */\n      dup3\n        /* \"#utility.yul\":1334:1371   */\n      mstore\n        /* \"#utility.yul\":1259:1377   */\n      pop\n      pop\n      jump\t// out\n        /* \"#utility.yul\":1383:1605   */\n    tag_34:\n        /* \"#utility.yul\":1476:1480   */\n      0x00\n        /* \"#utility.yul\":1514:1516   */\n      0x20\n        /* \"#utility.yul\":1503:1512   */\n      dup3\n        /* \"#utility.yul\":1499:1517   */\n      add\n        /* \"#utility.yul\":1491:1517   */\n      swap1\n      pop\n        /* \"#utility.yul\":1527:1598   */\n      tag_257\n        /* \"#utility.yul\":1595:1596   */\n      0x00\n        /* \"#utility.yul\":1584:1593   */\n      dup4\n        /* \"#utility.yul\":1580:1597   */\n      add\n        /* \"#utility.yul\":1571:1577   */\n      dup5\n        /* \"#utility.yul\":1527:1598   */\n      tag_201\n      jump\t// in\n    tag_257:\n        /* \"#utility.yul\":1383:1605   */\n      swap3\n      swap2\n      pop\n      pop\n      jump\t// out\n        /* \"#utility.yul\":1611:1733   */\n    tag_202:\n        /* \"#utility.yul\":1684:1708   */\n      tag_259\n        /* \"#utility.yul\":1702:1707   */\n      dup2\n        /* \"#utility.yul\":1684:1708   */\n      tag_200\n      jump\t// in\n    tag_259:\n        /* \"#utility.yul\":1677:1682   */\n      dup2\n        /* \"#utility.yul\":1674:1709   */\n      eq\n        /* \"#utility.yul\":1664:1727   */\n      tag_260\n      jumpi\n        /* \"#utility.yul\":1723:1724   */\n      0x00\n        /* \"#utility.yul\":1720:1721   */\n      dup1\n        /* \"#utility.yul\":1713:1725   */\n      revert\n        /* \"#utility.yul\":1664:1727   */\n    tag_260:\n        /* \"#utility.yul\":1611:1733   */\n      pop\n      jump\t// out\n        /* \"#utility.yul\":1739:1878   */\n    tag_203:\n        /* \"#utility.yul\":1785:1790   */\n      0x00\n        /* \"#utility.yul\":1823:1829   */\n      dup2\n        /* \"#utility.yul\":1810:1830   */\n      calldataload\n        /* \"#utility.yul\":1801:1830   */\n      swap1\n      pop\n        /* \"#utility.yul\":1839:1872   */\n      tag_262\n        /* \"#utility.yul\":1866:1871   */\n      dup2\n        /* \"#utility.yul\":1839:1872   */\n      tag_202\n      jump\t// in\n    tag_262:\n        /* \"#utility.yul\":1739:1878   */\n      swap3\n      swap2\n      pop\n      pop\n      jump\t// out\n        /* \"#utility.yul\":1884:2213   */\n    tag_37:\n        /* \"#utility.yul\":1943:1949   */\n      0x00\n        /* \"#utility.yul\":1992:1994   */\n      0x20\n        /* \"#utility.yul\":1980:1989   */\n      dup3\n        /* \"#utility.yul\":1971:1978   */\n      dup5\n        /* \"#utility.yul\":1967:1990   */\n      sub\n        /* \"#utility.yul\":1963:1995   */\n      slt\n        /* \"#utility.yul\":1960:2079   */\n      iszero\n      tag_264\n      jumpi\n        /* \"#utility.yul\":1998:2077   */\n      tag_265\n      tag_194\n      jump\t// in\n    tag_265:\n        /* \"#utility.yul\":1960:2079   */\n    tag_264:\n        /* \"#utility.yul\":2118:2119   */\n      0x00\n        /* \"#utility.yul\":2143:2196   */\n      tag_266\n        /* \"#utility.yul\":2188:2195   */\n      dup5\n        /* \"#utility.yul\":2179:2185   */\n      dup3\n        /* \"#utility.yul\":2168:2177   */\n      dup6\n        /* \"#utility.yul\":2164:2186   */\n      add\n        /* \"#utility.yul\":2143:2196   */\n      tag_203\n      jump\t// in\n    tag_266:\n        /* \"#utility.yul\":2133:2196   */\n      swap2\n      pop\n        /* \"#utility.yul\":2089:2206   */\n      pop\n        /* \"#utility.yul\":1884:2213   */\n      swap3\n      swap2\n      pop\n      pop\n      jump\t// out\n        /* \"#utility.yul\":2219:2337   */\n    tag_204:\n        /* \"#utility.yul\":2306:2330   */\n      tag_268\n        /* \"#utility.yul\":2324:2329   */\n      dup2\n        /* \"#utility.yul\":2306:2330   */\n      tag_197\n      jump\t// in\n    tag_268:\n        /* \"#utility.yul\":2301:2304   */\n      dup3\n        /* \"#utility.yul\":2294:2331   */\n      mstore\n        /* \"#utility.yul\":2219:2337   */\n      pop\n      pop\n      jump\t// out\n        /* \"#utility.yul\":2343:2565   */\n    tag_43:\n        /* \"#utility.yul\":2436:2440   */\n      0x00\n        /* \"#utility.yul\":2474:2476   */\n      0x20\n        /* \"#utility.yul\":2463:2472   */\n      dup3\n        /* \"#utility.yul\":2459:2477   */\n      add\n        /* \"#utility.yul\":2451:2477   */\n      swap1\n      pop\n        /* \"#utility.yul\":2487:2558   */\n      tag_270\n        /* \"#utility.yul\":2555:2556   */\n      0x00\n        /* \"#utility.yul\":2544:2553   */\n      dup4\n        /* \"#utility.yul\":2540:2557   */\n      add\n        /* \"#utility.yul\":2531:2537   */\n      dup5\n        /* \"#utility.yul\":2487:2558   */\n      tag_204\n      jump\t// in\n    tag_270:\n        /* \"#utility.yul\":2343:2565   */\n      swap3\n      swap2\n      pop\n      pop\n      jump\t// out\n        /* \"#utility.yul\":2571:2903   */\n    tag_52:\n        /* \"#utility.yul\":2692:2696   */\n      0x00\n        /* \"#utility.yul\":2730:2732   */\n      0x40\n        /* \"#utility.yul\":2719:2728   */\n      dup3\n        /* \"#utility.yul\":2715:2733   */\n      add\n        /* \"#utility.yul\":2707:2733   */\n      swap1\n      pop\n        /* \"#utility.yul\":2743:2814   */\n      tag_272\n        /* \"#utility.yul\":2811:2812   */\n      0x00\n        /* \"#utility.yul\":2800:2809   */\n      dup4\n        /* \"#utility.yul\":2796:2813   */\n      add\n        /* \"#utility.yul\":2787:2793   */\n      dup6\n        /* \"#utility.yul\":2743:2814   */\n      tag_204\n      jump\t// in\n    tag_272:\n        /* \"#utility.yul\":2824:2896   */\n      tag_273\n        /* \"#utility.yul\":2892:2894   */\n      0x20\n        /* \"#utility.yul\":2881:2890   */\n      dup4\n        /* \"#utility.yul\":2877:2895   */\n      add\n        /* \"#utility.yul\":2868:2874   */\n      dup5\n        /* \"#utility.yul\":2824:2896   */\n      tag_201\n      jump\t// in\n    tag_273:\n        /* \"#utility.yul\":2571:2903   */\n      swap4\n      swap3\n      pop\n      pop\n      pop\n      jump\t// out\n        /* \"#utility.yul\":2909:3045   */\n    tag_205:\n        /* \"#utility.yul\":2998:3004   */\n      0x00\n        /* \"#utility.yul\":3032:3037   */\n      dup2\n        /* \"#utility.yul\":3026:3038   */\n      mload\n        /* \"#utility.yul\":3016:3038   */\n      swap1\n      pop\n        /* \"#utility.yul\":2909:3045   */\n      swap2\n      swap1\n      pop\n      jump\t// out\n        /* \"#utility.yul\":3051:3257   */\n    tag_206:\n        /* \"#utility.yul\":3172:3183   */\n      0x00\n        /* \"#utility.yul\":3206:3212   */\n      dup3\n        /* \"#utility.yul\":3201:3204   */\n      dup3\n        /* \"#utility.yul\":3194:3213   */\n      mstore\n        /* \"#utility.yul\":3246:3250   */\n      0x20\n        /* \"#utility.yul\":3241:3244   */\n      dup3\n        /* \"#utility.yul\":3237:3251   */\n      add\n        /* \"#utility.yul\":3222:3251   */\n      swap1\n      pop\n        /* \"#utility.yul\":3051:3257   */\n      swap3\n      swap2\n      pop\n      pop\n      jump\t// out\n        /* \"#utility.yul\":3263:3417   */\n    tag_207:\n        /* \"#utility.yul\":3352:3356   */\n      0x00\n        /* \"#utility.yul\":3375:3378   */\n      dup2\n        /* \"#utility.yul\":3367:3378   */\n      swap1\n      pop\n        /* \"#utility.yul\":3405:3409   */\n      0x20\n        /* \"#utility.yul\":3400:3403   */\n      dup3\n        /* \"#utility.yul\":3396:3410   */\n      add\n        /* \"#utility.yul\":3388:3410   */\n      swap1\n      pop\n        /* \"#utility.yul\":3263:3417   */\n      swap2\n      swap1\n      pop\n      jump\t// out\n        /* \"#utility.yul\":3423:3531   */\n    tag_208:\n        /* \"#utility.yul\":3500:3524   */\n      tag_278\n        /* \"#utility.yul\":3518:3523   */\n      dup2\n        /* \"#utility.yul\":3500:3524   */\n      tag_197\n      jump\t// in\n    tag_278:\n        /* \"#utility.yul\":3495:3498   */\n      dup3\n        /* \"#utility.yul\":3488:3525   */\n      mstore\n        /* \"#utility.yul\":3423:3531   */\n      pop\n      pop\n      jump\t// out\n        /* \"#utility.yul\":3537:3645   */\n    tag_209:\n        /* \"#utility.yul\":3614:3638   */\n      tag_280\n        /* \"#utility.yul\":3632:3637   */\n      dup2\n        /* \"#utility.yul\":3614:3638   */\n      tag_200\n      jump\t// in\n    tag_280:\n        /* \"#utility.yul\":3609:3612   */\n      dup3\n        /* \"#utility.yul\":3602:3639   */\n      mstore\n        /* \"#utility.yul\":3537:3645   */\n      pop\n      pop\n      jump\t// out\n        /* \"#utility.yul\":3715:4212   */\n    tag_210:\n        /* \"#utility.yul\":3846:3850   */\n      0x40\n        /* \"#utility.yul\":3841:3844   */\n      dup3\n        /* \"#utility.yul\":3837:3851   */\n      add\n        /* \"#utility.yul\":3938:3942   */\n      0x00\n        /* \"#utility.yul\":3931:3936   */\n      dup3\n        /* \"#utility.yul\":3927:3943   */\n      add\n        /* \"#utility.yul\":3921:3944   */\n      mload\n        /* \"#utility.yul\":3957:4020   */\n      tag_282\n        /* \"#utility.yul\":4014:4018   */\n      0x00\n        /* \"#utility.yul\":4009:4012   */\n      dup6\n        /* \"#utility.yul\":4005:4019   */\n      add\n        /* \"#utility.yul\":3991:4003   */\n      dup3\n        /* \"#utility.yul\":3957:4020   */\n      tag_208\n      jump\t// in\n    tag_282:\n        /* \"#utility.yul\":3861:4030   */\n      pop\n        /* \"#utility.yul\":4113:4117   */\n      0x20\n        /* \"#utility.yul\":4106:4111   */\n      dup3\n        /* \"#utility.yul\":4102:4118   */\n      add\n        /* \"#utility.yul\":4096:4119   */\n      mload\n        /* \"#utility.yul\":4132:4195   */\n      tag_283\n        /* \"#utility.yul\":4189:4193   */\n      0x20\n        /* \"#utility.yul\":4184:4187   */\n      dup6\n        /* \"#utility.yul\":4180:4194   */\n      add\n        /* \"#utility.yul\":4166:4178   */\n      dup3\n        /* \"#utility.yul\":4132:4195   */\n      tag_209\n      jump\t// in\n    tag_283:\n        /* \"#utility.yul\":4040:4205   */\n      pop\n        /* \"#utility.yul\":3815:4212   */\n      pop\n        /* \"#utility.yul\":3715:4212   */\n      pop\n      pop\n      jump\t// out\n        /* \"#utility.yul\":4218:4485   */\n    tag_211:\n        /* \"#utility.yul\":4331:4341   */\n      0x00\n        /* \"#utility.yul\":4352:4442   */\n      tag_285\n        /* \"#utility.yul\":4438:4441   */\n      dup4\n        /* \"#utility.yul\":4430:4436   */\n      dup4\n        /* \"#utility.yul\":4352:4442   */\n      tag_210\n      jump\t// in\n    tag_285:\n        /* \"#utility.yul\":4474:4478   */\n      0x40\n        /* \"#utility.yul\":4469:4472   */\n      dup4\n        /* \"#utility.yul\":4465:4479   */\n      add\n        /* \"#utility.yul\":4451:4479   */\n      swap1\n      pop\n        /* \"#utility.yul\":4218:4485   */\n      swap3\n      swap2\n      pop\n      pop\n      jump\t// out\n        /* \"#utility.yul\":4491:4626   */\n    tag_212:\n        /* \"#utility.yul\":4583:4587   */\n      0x00\n        /* \"#utility.yul\":4615:4619   */\n      0x20\n        /* \"#utility.yul\":4610:4613   */\n      dup3\n        /* \"#utility.yul\":4606:4620   */\n      add\n        /* \"#utility.yul\":4598:4620   */\n      swap1\n      pop\n        /* \"#utility.yul\":4491:4626   */\n      swap2\n      swap1\n      pop\n      jump\t// out\n        /* \"#utility.yul\":4700:5608   */\n    tag_213:\n        /* \"#utility.yul\":4863:4866   */\n      0x00\n        /* \"#utility.yul\":4892:4968   */\n      tag_288\n        /* \"#utility.yul\":4962:4967   */\n      dup3\n        /* \"#utility.yul\":4892:4968   */\n      tag_205\n      jump\t// in\n    tag_288:\n        /* \"#utility.yul\":4984:5092   */\n      tag_289\n        /* \"#utility.yul\":5085:5091   */\n      dup2\n        /* \"#utility.yul\":5080:5083   */\n      dup6\n        /* \"#utility.yul\":4984:5092   */\n      tag_206\n      jump\t// in\n    tag_289:\n        /* \"#utility.yul\":4977:5092   */\n      swap4\n      pop\n        /* \"#utility.yul\":5116:5194   */\n      tag_290\n        /* \"#utility.yul\":5188:5193   */\n      dup4\n        /* \"#utility.yul\":5116:5194   */\n      tag_207\n      jump\t// in\n    tag_290:\n        /* \"#utility.yul\":5217:5224   */\n      dup1\n        /* \"#utility.yul\":5248:5249   */\n      0x00\n        /* \"#utility.yul\":5233:5583   */\n    tag_291:\n        /* \"#utility.yul\":5258:5264   */\n      dup4\n        /* \"#utility.yul\":5255:5256   */\n      dup2\n        /* \"#utility.yul\":5252:5265   */\n      lt\n        /* \"#utility.yul\":5233:5583   */\n      iszero\n      tag_293\n      jumpi\n        /* \"#utility.yul\":5334:5340   */\n      dup2\n        /* \"#utility.yul\":5328:5341   */\n      mload\n        /* \"#utility.yul\":5361:5468   */\n      tag_294\n        /* \"#utility.yul\":5464:5467   */\n      dup9\n        /* \"#utility.yul\":5449:5462   */\n      dup3\n        /* \"#utility.yul\":5361:5468   */\n      tag_211\n      jump\t// in\n    tag_294:\n        /* \"#utility.yul\":5354:5468   */\n      swap8\n      pop\n        /* \"#utility.yul\":5491:5573   */\n      tag_295\n        /* \"#utility.yul\":5566:5572   */\n      dup4\n        /* \"#utility.yul\":5491:5573   */\n      tag_212\n      jump\t// in\n    tag_295:\n        /* \"#utility.yul\":5481:5573   */\n      swap3\n      pop\n        /* \"#utility.yul\":5293:5583   */\n      pop\n        /* \"#utility.yul\":5280:5281   */\n      0x01\n        /* \"#utility.yul\":5277:5278   */\n      dup2\n        /* \"#utility.yul\":5273:5282   */\n      add\n        /* \"#utility.yul\":5268:5282   */\n      swap1\n      pop\n        /* \"#utility.yul\":5233:5583   */\n      jump(tag_291)\n    tag_293:\n        /* \"#utility.yul\":5237:5251   */\n      pop\n        /* \"#utility.yul\":5599:5602   */\n      dup6\n        /* \"#utility.yul\":5592:5602   */\n      swap4\n      pop\n        /* \"#utility.yul\":4868:5608   */\n      pop\n      pop\n      pop\n        /* \"#utility.yul\":4700:5608   */\n      swap3\n      swap2\n      pop\n      pop\n      jump\t// out\n        /* \"#utility.yul\":5614:6075   */\n    tag_90:\n        /* \"#utility.yul\":5801:5805   */\n      0x00\n        /* \"#utility.yul\":5839:5841   */\n      0x20\n        /* \"#utility.yul\":5828:5837   */\n      dup3\n        /* \"#utility.yul\":5824:5842   */\n      add\n        /* \"#utility.yul\":5816:5842   */\n      swap1\n      pop\n        /* \"#utility.yul\":5888:5897   */\n      dup2\n        /* \"#utility.yul\":5882:5886   */\n      dup2\n        /* \"#utility.yul\":5878:5898   */\n      sub\n        /* \"#utility.yul\":5874:5875   */\n      0x00\n        /* \"#utility.yul\":5863:5872   */\n      dup4\n        /* \"#utility.yul\":5859:5876   */\n      add\n        /* \"#utility.yul\":5852:5899   */\n      mstore\n        /* \"#utility.yul\":5916:6068   */\n      tag_297\n        /* \"#utility.yul\":6063:6067   */\n      dup2\n        /* \"#utility.yul\":6054:6060   */\n      dup5\n        /* \"#utility.yul\":5916:6068   */\n      tag_213\n      jump\t// in\n    tag_297:\n        /* \"#utility.yul\":5908:6068   */\n      swap1\n      pop\n        /* \"#utility.yul\":5614:6075   */\n      swap3\n      swap2\n      pop\n      pop\n      jump\t// out\n        /* \"#utility.yul\":6081:6171   */\n    tag_214:\n        /* \"#utility.yul\":6115:6122   */\n      0x00\n        /* \"#utility.yul\":6158:6163   */\n      dup2\n        /* \"#utility.yul\":6151:6164   */\n      iszero\n        /* \"#utility.yul\":6144:6165   */\n      iszero\n        /* \"#utility.yul\":6133:6165   */\n      swap1\n      pop\n        /* \"#utility.yul\":6081:6171   */\n      swap2\n      swap1\n      pop\n      jump\t// out\n        /* \"#utility.yul\":6177:6286   */\n    tag_215:\n        /* \"#utility.yul\":6258:6279   */\n      tag_300\n        /* \"#utility.yul\":6273:6278   */\n      dup2\n        /* \"#utility.yul\":6258:6279   */\n      tag_214\n      jump\t// in\n    tag_300:\n        /* \"#utility.yul\":6253:6256   */\n      dup3\n        /* \"#utility.yul\":6246:6280   */\n      mstore\n        /* \"#utility.yul\":6177:6286   */\n      pop\n      pop\n      jump\t// out\n        /* \"#utility.yul\":6292:6502   */\n    tag_111:\n        /* \"#utility.yul\":6379:6383   */\n      0x00\n        /* \"#utility.yul\":6417:6419   */\n      0x20\n        /* \"#utility.yul\":6406:6415   */\n      dup3\n        /* \"#utility.yul\":6402:6420   */\n      add\n        /* \"#utility.yul\":6394:6420   */\n      swap1\n      pop\n        /* \"#utility.yul\":6430:6495   */\n      tag_302\n        /* \"#utility.yul\":6492:6493   */\n      0x00\n        /* \"#utility.yul\":6481:6490   */\n      dup4\n        /* \"#utility.yul\":6477:6494   */\n      add\n        /* \"#utility.yul\":6468:6474   */\n      dup5\n        /* \"#utility.yul\":6430:6495   */\n      tag_215\n      jump\t// in\n    tag_302:\n        /* \"#utility.yul\":6292:6502   */\n      swap3\n      swap2\n      pop\n      pop\n      jump\t// out\n        /* \"#utility.yul\":6508:6677   */\n    tag_216:\n        /* \"#utility.yul\":6592:6603   */\n      0x00\n        /* \"#utility.yul\":6626:6632   */\n      dup3\n        /* \"#utility.yul\":6621:6624   */\n      dup3\n        /* \"#utility.yul\":6614:6633   */\n      mstore\n        /* \"#utility.yul\":6666:6670   */\n      0x20\n        /* \"#utility.yul\":6661:6664   */\n      dup3\n        /* \"#utility.yul\":6657:6671   */\n      add\n        /* \"#utility.yul\":6642:6671   */\n      swap1\n      pop\n        /* \"#utility.yul\":6508:6677   */\n      swap3\n      swap2\n      pop\n      pop\n      jump\t// out\n        /* \"#utility.yul\":6683:6916   */\n    tag_217:\n        /* \"#utility.yul\":6823:6857   */\n      0x536f6c6f20656c2073756261737461646f7220707565646520656a6563757461\n        /* \"#utility.yul\":6819:6820   */\n      0x00\n        /* \"#utility.yul\":6811:6817   */\n      dup3\n        /* \"#utility.yul\":6807:6821   */\n      add\n        /* \"#utility.yul\":6800:6858   */\n      mstore\n        /* \"#utility.yul\":6892:6908   */\n      0x7220657374612066756e63696f6e000000000000000000000000000000000000\n        /* \"#utility.yul\":6887:6889   */\n      0x20\n        /* \"#utility.yul\":6879:6885   */\n      dup3\n        /* \"#utility.yul\":6875:6890   */\n      add\n        /* \"#utility.yul\":6868:6909   */\n      mstore\n        /* \"#utility.yul\":6683:6916   */\n      pop\n      jump\t// out\n        /* \"#utility.yul\":6922:7288   */\n    tag_218:\n        /* \"#utility.yul\":7064:7067   */\n      0x00\n        /* \"#utility.yul\":7085:7152   */\n      tag_306\n        /* \"#utility.yul\":7149:7151   */\n      0x2e\n        /* \"#utility.yul\":7144:7147   */\n      dup4\n        /* \"#utility.yul\":7085:7152   */\n      tag_216\n      jump\t// in\n    tag_306:\n        /* \"#utility.yul\":7078:7152   */\n      swap2\n      pop\n        /* \"#utility.yul\":7161:7254   */\n      tag_307\n        /* \"#utility.yul\":7250:7253   */\n      dup3\n        /* \"#utility.yul\":7161:7254   */\n      tag_217\n      jump\t// in\n    tag_307:\n        /* \"#utility.yul\":7279:7281   */\n      0x40\n        /* \"#utility.yul\":7274:7277   */\n      dup3\n        /* \"#utility.yul\":7270:7282   */\n      add\n        /* \"#utility.yul\":7263:7282   */\n      swap1\n      pop\n        /* \"#utility.yul\":6922:7288   */\n      swap2\n      swap1\n      pop\n      jump\t// out\n        /* \"#utility.yul\":7294:7713   */\n    tag_115:\n        /* \"#utility.yul\":7460:7464   */\n      0x00\n        /* \"#utility.yul\":7498:7500   */\n      0x20\n        /* \"#utility.yul\":7487:7496   */\n      dup3\n        /* \"#utility.yul\":7483:7501   */\n      add\n        /* \"#utility.yul\":7475:7501   */\n      swap1\n      pop\n        /* \"#utility.yul\":7547:7556   */\n      dup2\n        /* \"#utility.yul\":7541:7545   */\n      dup2\n        /* \"#utility.yul\":7537:7557   */\n      sub\n        /* \"#utility.yul\":7533:7534   */\n      0x00\n        /* \"#utility.yul\":7522:7531   */\n      dup4\n        /* \"#utility.yul\":7518:7535   */\n      add\n        /* \"#utility.yul\":7511:7558   */\n      mstore\n        /* \"#utility.yul\":7575:7706   */\n      tag_309\n        /* \"#utility.yul\":7701:7705   */\n      dup2\n        /* \"#utility.yul\":7575:7706   */\n      tag_218\n      jump\t// in\n    tag_309:\n        /* \"#utility.yul\":7567:7706   */\n      swap1\n      pop\n        /* \"#utility.yul\":7294:7713   */\n      swap2\n      swap1\n      pop\n      jump\t// out\n        /* \"#utility.yul\":7719:7894   */\n    tag_219:\n        /* \"#utility.yul\":7859:7886   */\n      0x4c612073756261737461206e6f20657374612061637469766100000000000000\n        /* \"#utility.yul\":7855:7856   */\n      0x00\n        /* \"#utility.yul\":7847:7853   */\n      dup3\n        /* \"#utility.yul\":7843:7857   */\n      add\n        /* \"#utility.yul\":7836:7887   */\n      mstore\n        /* \"#utility.yul\":7719:7894   */\n      pop\n      jump\t// out\n        /* \"#utility.yul\":7900:8266   */\n    tag_220:\n        /* \"#utility.yul\":8042:8045   */\n      0x00\n        /* \"#utility.yul\":8063:8130   */\n      tag_312\n        /* \"#utility.yul\":8127:8129   */\n      0x19\n        /* \"#utility.yul\":8122:8125   */\n      dup4\n        /* \"#utility.yul\":8063:8130   */\n      tag_216\n      jump\t// in\n    tag_312:\n        /* \"#utility.yul\":8056:8130   */\n      swap2\n      pop\n        /* \"#utility.yul\":8139:8232   */\n      tag_313\n        /* \"#utility.yul\":8228:8231   */\n      dup3\n        /* \"#utility.yul\":8139:8232   */\n      tag_219\n      jump\t// in\n    tag_313:\n        /* \"#utility.yul\":8257:8259   */\n      0x20\n        /* \"#utility.yul\":8252:8255   */\n      dup3\n        /* \"#utility.yul\":8248:8260   */\n      add\n        /* \"#utility.yul\":8241:8260   */\n      swap1\n      pop\n        /* \"#utility.yul\":7900:8266   */\n      swap2\n      swap1\n      pop\n      jump\t// out\n        /* \"#utility.yul\":8272:8691   */\n    tag_120:\n        /* \"#utility.yul\":8438:8442   */\n      0x00\n        /* \"#utility.yul\":8476:8478   */\n      0x20\n        /* \"#utility.yul\":8465:8474   */\n      dup3\n        /* \"#utility.yul\":8461:8479   */\n      add\n        /* \"#utility.yul\":8453:8479   */\n      swap1\n      pop\n        /* \"#utility.yul\":8525:8534   */\n      dup2\n        /* \"#utility.yul\":8519:8523   */\n      dup2\n        /* \"#utility.yul\":8515:8535   */\n      sub\n        /* \"#utility.yul\":8511:8512   */\n      0x00\n        /* \"#utility.yul\":8500:8509   */\n      dup4\n        /* \"#utility.yul\":8496:8513   */\n      add\n        /* \"#utility.yul\":8489:8536   */\n      mstore\n        /* \"#utility.yul\":8553:8684   */\n      tag_315\n        /* \"#utility.yul\":8679:8683   */\n      dup2\n        /* \"#utility.yul\":8553:8684   */\n      tag_220\n      jump\t// in\n    tag_315:\n        /* \"#utility.yul\":8545:8684   */\n      swap1\n      pop\n        /* \"#utility.yul\":8272:8691   */\n      swap2\n      swap1\n      pop\n      jump\t// out\n        /* \"#utility.yul\":8697:8875   */\n    tag_221:\n        /* \"#utility.yul\":8837:8867   */\n      0x4c6120737562617374612061756e206573746120656e20637572736f00000000\n        /* \"#utility.yul\":8833:8834   */\n      0x00\n        /* \"#utility.yul\":8825:8831   */\n      dup3\n        /* \"#utility.yul\":8821:8835   */\n      add\n        /* \"#utility.yul\":8814:8868   */\n      mstore\n        /* \"#utility.yul\":8697:8875   */\n      pop\n      jump\t// out\n        /* \"#utility.yul\":8881:9247   */\n    tag_222:\n        /* \"#utility.yul\":9023:9026   */\n      0x00\n        /* \"#utility.yul\":9044:9111   */\n      tag_318\n        /* \"#utility.yul\":9108:9110   */\n      0x1c\n        /* \"#utility.yul\":9103:9106   */\n      dup4\n        /* \"#utility.yul\":9044:9111   */\n      tag_216\n      jump\t// in\n    tag_318:\n        /* \"#utility.yul\":9037:9111   */\n      swap2\n      pop\n        /* \"#utility.yul\":9120:9213   */\n      tag_319\n        /* \"#utility.yul\":9209:9212   */\n      dup3\n        /* \"#utility.yul\":9120:9213   */\n      tag_221\n      jump\t// in\n    tag_319:\n        /* \"#utility.yul\":9238:9240   */\n      0x20\n        /* \"#utility.yul\":9233:9236   */\n      dup3\n        /* \"#utility.yul\":9229:9241   */\n      add\n        /* \"#utility.yul\":9222:9241   */\n      swap1\n      pop\n        /* \"#utility.yul\":8881:9247   */\n      swap2\n      swap1\n      pop\n      jump\t// out\n        /* \"#utility.yul\":9253:9672   */\n    tag_124:\n        /* \"#utility.yul\":9419:9423   */\n      0x00\n        /* \"#utility.yul\":9457:9459   */\n      0x20\n        /* \"#utility.yul\":9446:9455   */\n      dup3\n        /* \"#utility.yul\":9442:9460   */\n      add\n        /* \"#utility.yul\":9434:9460   */\n      swap1\n      pop\n        /* \"#utility.yul\":9506:9515   */\n      dup2\n        /* \"#utility.yul\":9500:9504   */\n      dup2\n        /* \"#utility.yul\":9496:9516   */\n      sub\n        /* \"#utility.yul\":9492:9493   */\n      0x00\n        /* \"#utility.yul\":9481:9490   */\n      dup4\n        /* \"#utility.yul\":9477:9494   */\n      add\n        /* \"#utility.yul\":9470:9517   */\n      mstore\n        /* \"#utility.yul\":9534:9665   */\n      tag_321\n        /* \"#utility.yul\":9660:9664   */\n      dup2\n        /* \"#utility.yul\":9534:9665   */\n      tag_222\n      jump\t// in\n    tag_321:\n        /* \"#utility.yul\":9526:9665   */\n      swap1\n      pop\n        /* \"#utility.yul\":9253:9672   */\n      swap2\n      swap1\n      pop\n      jump\t// out\n        /* \"#utility.yul\":9678:9857   */\n    tag_223:\n        /* \"#utility.yul\":9818:9849   */\n      0x4c6120737562617374612061756e206e6f20686120696e69636961646f000000\n        /* \"#utility.yul\":9814:9815   */\n      0x00\n        /* \"#utility.yul\":9806:9812   */\n      dup3\n        /* \"#utility.yul\":9802:9816   */\n      add\n        /* \"#utility.yul\":9795:9850   */\n      mstore\n        /* \"#utility.yul\":9678:9857   */\n      pop\n      jump\t// out\n        /* \"#utility.yul\":9863:10229   */\n    tag_224:\n        /* \"#utility.yul\":10005:10008   */\n      0x00\n        /* \"#utility.yul\":10026:10093   */\n      tag_324\n        /* \"#utility.yul\":10090:10092   */\n      0x1d\n        /* \"#utility.yul\":10085:10088   */\n      dup4\n        /* \"#utility.yul\":10026:10093   */\n      tag_216\n      jump\t// in\n    tag_324:\n        /* \"#utility.yul\":10019:10093   */\n      swap2\n      pop\n        /* \"#utility.yul\":10102:10195   */\n      tag_325\n        /* \"#utility.yul\":10191:10194   */\n      dup3\n        /* \"#utility.yul\":10102:10195   */\n      tag_223\n      jump\t// in\n    tag_325:\n        /* \"#utility.yul\":10220:10222   */\n      0x20\n        /* \"#utility.yul\":10215:10218   */\n      dup3\n        /* \"#utility.yul\":10211:10223   */\n      add\n        /* \"#utility.yul\":10204:10223   */\n      swap1\n      pop\n        /* \"#utility.yul\":9863:10229   */\n      swap2\n      swap1\n      pop\n      jump\t// out\n        /* \"#utility.yul\":10235:10654   */\n    tag_131:\n        /* \"#utility.yul\":10401:10405   */\n      0x00\n        /* \"#utility.yul\":10439:10441   */\n      0x20\n        /* \"#utility.yul\":10428:10437   */\n      dup3\n        /* \"#utility.yul\":10424:10442   */\n      add\n        /* \"#utility.yul\":10416:10442   */\n      swap1\n      pop\n        /* \"#utility.yul\":10488:10497   */\n      dup2\n        /* \"#utility.yul\":10482:10486   */\n      dup2\n        /* \"#utility.yul\":10478:10498   */\n      sub\n        /* \"#utility.yul\":10474:10475   */\n      0x00\n        /* \"#utility.yul\":10463:10472   */\n      dup4\n        /* \"#utility.yul\":10459:10476   */\n      add\n        /* \"#utility.yul\":10452:10499   */\n      mstore\n        /* \"#utility.yul\":10516:10647   */\n      tag_327\n        /* \"#utility.yul\":10642:10646   */\n      dup2\n        /* \"#utility.yul\":10516:10647   */\n      tag_224\n      jump\t// in\n    tag_327:\n        /* \"#utility.yul\":10508:10647   */\n      swap1\n      pop\n        /* \"#utility.yul\":10235:10654   */\n      swap2\n      swap1\n      pop\n      jump\t// out\n        /* \"#utility.yul\":10660:10897   */\n    tag_225:\n        /* \"#utility.yul\":10800:10834   */\n      0x4c61206f666572746120646562652073657220616c206d656e6f7320656c206d\n        /* \"#utility.yul\":10796:10797   */\n      0x00\n        /* \"#utility.yul\":10788:10794   */\n      dup3\n        /* \"#utility.yul\":10784:10798   */\n      add\n        /* \"#utility.yul\":10777:10835   */\n      mstore\n        /* \"#utility.yul\":10869:10889   */\n      0x696e696d6f20646520302e303035204554480000000000000000000000000000\n        /* \"#utility.yul\":10864:10866   */\n      0x20\n        /* \"#utility.yul\":10856:10862   */\n      dup3\n        /* \"#utility.yul\":10852:10867   */\n      add\n        /* \"#utility.yul\":10845:10890   */\n      mstore\n        /* \"#utility.yul\":10660:10897   */\n      pop\n      jump\t// out\n        /* \"#utility.yul\":10903:11269   */\n    tag_226:\n        /* \"#utility.yul\":11045:11048   */\n      0x00\n        /* \"#utility.yul\":11066:11133   */\n      tag_330\n        /* \"#utility.yul\":11130:11132   */\n      0x32\n        /* \"#utility.yul\":11125:11128   */\n      dup4\n        /* \"#utility.yul\":11066:11133   */\n      tag_216\n      jump\t// in\n    tag_330:\n        /* \"#utility.yul\":11059:11133   */\n      swap2\n      pop\n        /* \"#utility.yul\":11142:11235   */\n      tag_331\n        /* \"#utility.yul\":11231:11234   */\n      dup3\n        /* \"#utility.yul\":11142:11235   */\n      tag_225\n      jump\t// in\n    tag_331:\n        /* \"#utility.yul\":11260:11262   */\n      0x40\n        /* \"#utility.yul\":11255:11258   */\n      dup3\n        /* \"#utility.yul\":11251:11263   */\n      add\n        /* \"#utility.yul\":11244:11263   */\n      swap1\n      pop\n        /* \"#utility.yul\":10903:11269   */\n      swap2\n      swap1\n      pop\n      jump\t// out\n        /* \"#utility.yul\":11275:11694   */\n    tag_139:\n        /* \"#utility.yul\":11441:11445   */\n      0x00\n        /* \"#utility.yul\":11479:11481   */\n      0x20\n        /* \"#utility.yul\":11468:11477   */\n      dup3\n        /* \"#utility.yul\":11464:11482   */\n      add\n        /* \"#utility.yul\":11456:11482   */\n      swap1\n      pop\n        /* \"#utility.yul\":11528:11537   */\n      dup2\n        /* \"#utility.yul\":11522:11526   */\n      dup2\n        /* \"#utility.yul\":11518:11538   */\n      sub\n        /* \"#utility.yul\":11514:11515   */\n      0x00\n        /* \"#utility.yul\":11503:11512   */\n      dup4\n        /* \"#utility.yul\":11499:11516   */\n      add\n        /* \"#utility.yul\":11492:11539   */\n      mstore\n        /* \"#utility.yul\":11556:11687   */\n      tag_333\n        /* \"#utility.yul\":11682:11686   */\n      dup2\n        /* \"#utility.yul\":11556:11687   */\n      tag_226\n      jump\t// in\n    tag_333:\n        /* \"#utility.yul\":11548:11687   */\n      swap1\n      pop\n        /* \"#utility.yul\":11275:11694   */\n      swap2\n      swap1\n      pop\n      jump\t// out\n        /* \"#utility.yul\":11700:11880   */\n    tag_227:\n        /* \"#utility.yul\":11748:11825   */\n      0x4e487b7100000000000000000000000000000000000000000000000000000000\n        /* \"#utility.yul\":11745:11746   */\n      0x00\n        /* \"#utility.yul\":11738:11826   */\n      mstore\n        /* \"#utility.yul\":11845:11849   */\n      0x11\n        /* \"#utility.yul\":11842:11843   */\n      0x04\n        /* \"#utility.yul\":11835:11850   */\n      mstore\n        /* \"#utility.yul\":11869:11873   */\n      0x24\n        /* \"#utility.yul\":11866:11867   */\n      0x00\n        /* \"#utility.yul\":11859:11874   */\n      revert\n        /* \"#utility.yul\":11886:12296   */\n    tag_141:\n        /* \"#utility.yul\":11926:11933   */\n      0x00\n        /* \"#utility.yul\":11949:11969   */\n      tag_336\n        /* \"#utility.yul\":11967:11968   */\n      dup3\n        /* \"#utility.yul\":11949:11969   */\n      tag_200\n      jump\t// in\n    tag_336:\n        /* \"#utility.yul\":11944:11969   */\n      swap2\n      pop\n        /* \"#utility.yul\":11983:12003   */\n      tag_337\n        /* \"#utility.yul\":12001:12002   */\n      dup4\n        /* \"#utility.yul\":11983:12003   */\n      tag_200\n      jump\t// in\n    tag_337:\n        /* \"#utility.yul\":11978:12003   */\n      swap3\n      pop\n        /* \"#utility.yul\":12038:12039   */\n      dup3\n        /* \"#utility.yul\":12035:12036   */\n      dup3\n        /* \"#utility.yul\":12031:12040   */\n      mul\n        /* \"#utility.yul\":12060:12090   */\n      tag_338\n        /* \"#utility.yul\":12078:12089   */\n      dup2\n        /* \"#utility.yul\":12060:12090   */\n      tag_200\n      jump\t// in\n    tag_338:\n        /* \"#utility.yul\":12049:12090   */\n      swap2\n      pop\n        /* \"#utility.yul\":12239:12240   */\n      dup3\n        /* \"#utility.yul\":12230:12237   */\n      dup3\n        /* \"#utility.yul\":12226:12241   */\n      div\n        /* \"#utility.yul\":12223:12224   */\n      dup5\n        /* \"#utility.yul\":12220:12242   */\n      eq\n        /* \"#utility.yul\":12200:12201   */\n      dup4\n        /* \"#utility.yul\":12193:12202   */\n      iszero\n        /* \"#utility.yul\":12173:12256   */\n      or\n        /* \"#utility.yul\":12150:12289   */\n      tag_339\n      jumpi\n        /* \"#utility.yul\":12269:12287   */\n      tag_340\n      tag_227\n      jump\t// in\n    tag_340:\n        /* \"#utility.yul\":12150:12289   */\n    tag_339:\n        /* \"#utility.yul\":11934:12296   */\n      pop\n        /* \"#utility.yul\":11886:12296   */\n      swap3\n      swap2\n      pop\n      pop\n      jump\t// out\n        /* \"#utility.yul\":12302:12482   */\n    tag_228:\n        /* \"#utility.yul\":12350:12427   */\n      0x4e487b7100000000000000000000000000000000000000000000000000000000\n        /* \"#utility.yul\":12347:12348   */\n      0x00\n        /* \"#utility.yul\":12340:12428   */\n      mstore\n        /* \"#utility.yul\":12447:12451   */\n      0x12\n        /* \"#utility.yul\":12444:12445   */\n      0x04\n        /* \"#utility.yul\":12437:12452   */\n      mstore\n        /* \"#utility.yul\":12471:12475   */\n      0x24\n        /* \"#utility.yul\":12468:12469   */\n      0x00\n        /* \"#utility.yul\":12461:12476   */\n      revert\n        /* \"#utility.yul\":12488:12673   */\n    tag_143:\n        /* \"#utility.yul\":12528:12529   */\n      0x00\n        /* \"#utility.yul\":12545:12565   */\n      tag_343\n        /* \"#utility.yul\":12563:12564   */\n      dup3\n        /* \"#utility.yul\":12545:12565   */\n      tag_200\n      jump\t// in\n    tag_343:\n        /* \"#utility.yul\":12540:12565   */\n      swap2\n      pop\n        /* \"#utility.yul\":12579:12599   */\n      tag_344\n        /* \"#utility.yul\":12597:12598   */\n      dup4\n        /* \"#utility.yul\":12579:12599   */\n      tag_200\n      jump\t// in\n    tag_344:\n        /* \"#utility.yul\":12574:12599   */\n      swap3\n      pop\n        /* \"#utility.yul\":12618:12619   */\n      dup3\n        /* \"#utility.yul\":12608:12643   */\n      tag_345\n      jumpi\n        /* \"#utility.yul\":12623:12641   */\n      tag_346\n      tag_228\n      jump\t// in\n    tag_346:\n        /* \"#utility.yul\":12608:12643   */\n    tag_345:\n        /* \"#utility.yul\":12665:12666   */\n      dup3\n        /* \"#utility.yul\":12662:12663   */\n      dup3\n        /* \"#utility.yul\":12658:12667   */\n      div\n        /* \"#utility.yul\":12653:12667   */\n      swap1\n      pop\n        /* \"#utility.yul\":12488:12673   */\n      swap3\n      swap2\n      pop\n      pop\n      jump\t// out\n        /* \"#utility.yul\":12679:12870   */\n    tag_145:\n        /* \"#utility.yul\":12719:12722   */\n      0x00\n        /* \"#utility.yul\":12738:12758   */\n      tag_348\n        /* \"#utility.yul\":12756:12757   */\n      dup3\n        /* \"#utility.yul\":12738:12758   */\n      tag_200\n      jump\t// in\n    tag_348:\n        /* \"#utility.yul\":12733:12758   */\n      swap2\n      pop\n        /* \"#utility.yul\":12772:12792   */\n      tag_349\n        /* \"#utility.yul\":12790:12791   */\n      dup4\n        /* \"#utility.yul\":12772:12792   */\n      tag_200\n      jump\t// in\n    tag_349:\n        /* \"#utility.yul\":12767:12792   */\n      swap3\n      pop\n        /* \"#utility.yul\":12815:12816   */\n      dup3\n        /* \"#utility.yul\":12812:12813   */\n      dup3\n        /* \"#utility.yul\":12808:12817   */\n      add\n        /* \"#utility.yul\":12801:12817   */\n      swap1\n      pop\n        /* \"#utility.yul\":12836:12839   */\n      dup1\n        /* \"#utility.yul\":12833:12834   */\n      dup3\n        /* \"#utility.yul\":12830:12840   */\n      gt\n        /* \"#utility.yul\":12827:12863   */\n      iszero\n      tag_350\n      jumpi\n        /* \"#utility.yul\":12843:12861   */\n      tag_351\n      tag_227\n      jump\t// in\n    tag_351:\n        /* \"#utility.yul\":12827:12863   */\n    tag_350:\n        /* \"#utility.yul\":12679:12870   */\n      swap3\n      swap2\n      pop\n      pop\n      jump\t// out\n        /* \"#utility.yul\":12876:13166   */\n    tag_229:\n        /* \"#utility.yul\":13016:13050   */\n      0x4c61206f666572746120646562652073657220616c206d656e6f7320756e2035\n        /* \"#utility.yul\":13012:13013   */\n      0x00\n        /* \"#utility.yul\":13004:13010   */\n      dup3\n        /* \"#utility.yul\":13000:13014   */\n      add\n        /* \"#utility.yul\":12993:13051   */\n      mstore\n        /* \"#utility.yul\":13085:13119   */\n      0x25206d61796f7220717565206c61206d656a6f72206f66657274612061637475\n        /* \"#utility.yul\":13080:13082   */\n      0x20\n        /* \"#utility.yul\":13072:13078   */\n      dup3\n        /* \"#utility.yul\":13068:13083   */\n      add\n        /* \"#utility.yul\":13061:13120   */\n      mstore\n        /* \"#utility.yul\":13154:13158   */\n      0x616c000000000000000000000000000000000000000000000000000000000000\n        /* \"#utility.yul\":13149:13151   */\n      0x40\n        /* \"#utility.yul\":13141:13147   */\n      dup3\n        /* \"#utility.yul\":13137:13152   */\n      add\n        /* \"#utility.yul\":13130:13159   */\n      mstore\n        /* \"#utility.yul\":12876:13166   */\n      pop\n      jump\t// out\n        /* \"#utility.yul\":13172:13538   */\n    tag_230:\n        /* \"#utility.yul\":13314:13317   */\n      0x00\n        /* \"#utility.yul\":13335:13402   */\n      tag_354\n        /* \"#utility.yul\":13399:13401   */\n      0x42\n        /* \"#utility.yul\":13394:13397   */\n      dup4\n        /* \"#utility.yul\":13335:13402   */\n      tag_216\n      jump\t// in\n    tag_354:\n        /* \"#utility.yul\":13328:13402   */\n      swap2\n      pop\n        /* \"#utility.yul\":13411:13504   */\n      tag_355\n        /* \"#utility.yul\":13500:13503   */\n      dup3\n        /* \"#utility.yul\":13411:13504   */\n      tag_229\n      jump\t// in\n    tag_355:\n        /* \"#utility.yul\":13529:13531   */\n      0x60\n        /* \"#utility.yul\":13524:13527   */\n      dup3\n        /* \"#utility.yul\":13520:13532   */\n      add\n        /* \"#utility.yul\":13513:13532   */\n      swap1\n      pop\n        /* \"#utility.yul\":13172:13538   */\n      swap2\n      swap1\n      pop\n      jump\t// out\n        /* \"#utility.yul\":13544:13963   */\n    tag_148:\n        /* \"#utility.yul\":13710:13714   */\n      0x00\n        /* \"#utility.yul\":13748:13750   */\n      0x20\n        /* \"#utility.yul\":13737:13746   */\n      dup3\n        /* \"#utility.yul\":13733:13751   */\n      add\n        /* \"#utility.yul\":13725:13751   */\n      swap1\n      pop\n        /* \"#utility.yul\":13797:13806   */\n      dup2\n        /* \"#utility.yul\":13791:13795   */\n      dup2\n        /* \"#utility.yul\":13787:13807   */\n      sub\n        /* \"#utility.yul\":13783:13784   */\n      0x00\n        /* \"#utility.yul\":13772:13781   */\n      dup4\n        /* \"#utility.yul\":13768:13785   */\n      add\n        /* \"#utility.yul\":13761:13808   */\n      mstore\n        /* \"#utility.yul\":13825:13956   */\n      tag_357\n        /* \"#utility.yul\":13951:13955   */\n      dup2\n        /* \"#utility.yul\":13825:13956   */\n      tag_230\n      jump\t// in\n    tag_357:\n        /* \"#utility.yul\":13817:13956   */\n      swap1\n      pop\n        /* \"#utility.yul\":13544:13963   */\n      swap2\n      swap1\n      pop\n      jump\t// out\n        /* \"#utility.yul\":13969:14163   */\n    tag_155:\n        /* \"#utility.yul\":14009:14013   */\n      0x00\n        /* \"#utility.yul\":14029:14049   */\n      tag_359\n        /* \"#utility.yul\":14047:14048   */\n      dup3\n        /* \"#utility.yul\":14029:14049   */\n      tag_200\n      jump\t// in\n    tag_359:\n        /* \"#utility.yul\":14024:14049   */\n      swap2\n      pop\n        /* \"#utility.yul\":14063:14083   */\n      tag_360\n        /* \"#utility.yul\":14081:14082   */\n      dup4\n        /* \"#utility.yul\":14063:14083   */\n      tag_200\n      jump\t// in\n    tag_360:\n        /* \"#utility.yul\":14058:14083   */\n      swap3\n      pop\n        /* \"#utility.yul\":14107:14108   */\n      dup3\n        /* \"#utility.yul\":14104:14105   */\n      dup3\n        /* \"#utility.yul\":14100:14109   */\n      sub\n        /* \"#utility.yul\":14092:14109   */\n      swap1\n      pop\n        /* \"#utility.yul\":14131:14132   */\n      dup2\n        /* \"#utility.yul\":14125:14129   */\n      dup2\n        /* \"#utility.yul\":14122:14133   */\n      gt\n        /* \"#utility.yul\":14119:14156   */\n      iszero\n      tag_361\n      jumpi\n        /* \"#utility.yul\":14136:14154   */\n      tag_362\n      tag_227\n      jump\t// in\n    tag_362:\n        /* \"#utility.yul\":14119:14156   */\n    tag_361:\n        /* \"#utility.yul\":13969:14163   */\n      swap3\n      swap2\n      pop\n      pop\n      jump\t// out\n        /* \"#utility.yul\":14169:14350   */\n    tag_231:\n        /* \"#utility.yul\":14309:14342   */\n      0x4c6120737562617374612061756e206e6f2068612066696e616c697a61646f00\n        /* \"#utility.yul\":14305:14306   */\n      0x00\n        /* \"#utility.yul\":14297:14303   */\n      dup3\n        /* \"#utility.yul\":14293:14307   */\n      add\n        /* \"#utility.yul\":14286:14343   */\n      mstore\n        /* \"#utility.yul\":14169:14350   */\n      pop\n      jump\t// out\n        /* \"#utility.yul\":14356:14722   */\n    tag_232:\n        /* \"#utility.yul\":14498:14501   */\n      0x00\n        /* \"#utility.yul\":14519:14586   */\n      tag_365\n        /* \"#utility.yul\":14583:14585   */\n      0x1f\n        /* \"#utility.yul\":14578:14581   */\n      dup4\n        /* \"#utility.yul\":14519:14586   */\n      tag_216\n      jump\t// in\n    tag_365:\n        /* \"#utility.yul\":14512:14586   */\n      swap2\n      pop\n        /* \"#utility.yul\":14595:14688   */\n      tag_366\n        /* \"#utility.yul\":14684:14687   */\n      dup3\n        /* \"#utility.yul\":14595:14688   */\n      tag_231\n      jump\t// in\n    tag_366:\n        /* \"#utility.yul\":14713:14715   */\n      0x20\n        /* \"#utility.yul\":14708:14711   */\n      dup3\n        /* \"#utility.yul\":14704:14716   */\n      add\n        /* \"#utility.yul\":14697:14716   */\n      swap1\n      pop\n        /* \"#utility.yul\":14356:14722   */\n      swap2\n      swap1\n      pop\n      jump\t// out\n        /* \"#utility.yul\":14728:15147   */\n    tag_161:\n        /* \"#utility.yul\":14894:14898   */\n      0x00\n        /* \"#utility.yul\":14932:14934   */\n      0x20\n        /* \"#utility.yul\":14921:14930   */\n      dup3\n        /* \"#utility.yul\":14917:14935   */\n      add\n        /* \"#utility.yul\":14909:14935   */\n      swap1\n      pop\n        /* \"#utility.yul\":14981:14990   */\n      dup2\n        /* \"#utility.yul\":14975:14979   */\n      dup2\n        /* \"#utility.yul\":14971:14991   */\n      sub\n        /* \"#utility.yul\":14967:14968   */\n      0x00\n        /* \"#utility.yul\":14956:14965   */\n      dup4\n        /* \"#utility.yul\":14952:14969   */\n      add\n        /* \"#utility.yul\":14945:14992   */\n      mstore\n        /* \"#utility.yul\":15009:15140   */\n      tag_368\n        /* \"#utility.yul\":15135:15139   */\n      dup2\n        /* \"#utility.yul\":15009:15140   */\n      tag_232\n      jump\t// in\n    tag_368:\n        /* \"#utility.yul\":15001:15140   */\n      swap1\n      pop\n        /* \"#utility.yul\":14728:15147   */\n      swap2\n      swap1\n      pop\n      jump\t// out\n        /* \"#utility.yul\":15153:15335   */\n    tag_233:\n        /* \"#utility.yul\":15293:15327   */\n      0x4e6f207469656e6573206465706f7369746f2070617261207265636c616d6172\n        /* \"#utility.yul\":15289:15290   */\n      0x00\n        /* \"#utility.yul\":15281:15287   */\n      dup3\n        /* \"#utility.yul\":15277:15291   */\n      add\n        /* \"#utility.yul\":15270:15328   */\n      mstore\n        /* \"#utility.yul\":15153:15335   */\n      pop\n      jump\t// out\n        /* \"#utility.yul\":15341:15707   */\n    tag_234:\n        /* \"#utility.yul\":15483:15486   */\n      0x00\n        /* \"#utility.yul\":15504:15571   */\n      tag_371\n        /* \"#utility.yul\":15568:15570   */\n      0x20\n        /* \"#utility.yul\":15563:15566   */\n      dup4\n        /* \"#utility.yul\":15504:15571   */\n      tag_216\n      jump\t// in\n    tag_371:\n        /* \"#utility.yul\":15497:15571   */\n      swap2\n      pop\n        /* \"#utility.yul\":15580:15673   */\n      tag_372\n        /* \"#utility.yul\":15669:15672   */\n      dup3\n        /* \"#utility.yul\":15580:15673   */\n      tag_233\n      jump\t// in\n    tag_372:\n        /* \"#utility.yul\":15698:15700   */\n      0x20\n        /* \"#utility.yul\":15693:15696   */\n      dup3\n        /* \"#utility.yul\":15689:15701   */\n      add\n        /* \"#utility.yul\":15682:15701   */\n      swap1\n      pop\n        /* \"#utility.yul\":15341:15707   */\n      swap2\n      swap1\n      pop\n      jump\t// out\n        /* \"#utility.yul\":15713:16132   */\n    tag_165:\n        /* \"#utility.yul\":15879:15883   */\n      0x00\n        /* \"#utility.yul\":15917:15919   */\n      0x20\n        /* \"#utility.yul\":15906:15915   */\n      dup3\n        /* \"#utility.yul\":15902:15920   */\n      add\n        /* \"#utility.yul\":15894:15920   */\n      swap1\n      pop\n        /* \"#utility.yul\":15966:15975   */\n      dup2\n        /* \"#utility.yul\":15960:15964   */\n      dup2\n        /* \"#utility.yul\":15956:15976   */\n      sub\n        /* \"#utility.yul\":15952:15953   */\n      0x00\n        /* \"#utility.yul\":15941:15950   */\n      dup4\n        /* \"#utility.yul\":15937:15954   */\n      add\n        /* \"#utility.yul\":15930:15977   */\n      mstore\n        /* \"#utility.yul\":15994:16125   */\n      tag_374\n        /* \"#utility.yul\":16120:16124   */\n      dup2\n        /* \"#utility.yul\":15994:16125   */\n      tag_234\n      jump\t// in\n    tag_374:\n        /* \"#utility.yul\":15986:16125   */\n      swap1\n      pop\n        /* \"#utility.yul\":15713:16132   */\n      swap2\n      swap1\n      pop\n      jump\t// out\n        /* \"#utility.yul\":16138:16427   */\n    tag_235:\n        /* \"#utility.yul\":16278:16312   */\n      0x4d6f6e746f206d61796f7220616c206465706f7369746f20646973706f6e6962\n        /* \"#utility.yul\":16274:16275   */\n      0x00\n        /* \"#utility.yul\":16266:16272   */\n      dup3\n        /* \"#utility.yul\":16262:16276   */\n      add\n        /* \"#utility.yul\":16255:16313   */\n      mstore\n        /* \"#utility.yul\":16347:16381   */\n      0x6c6520706f7220656e63696d6120646520747520756c74696d61206f66657274\n        /* \"#utility.yul\":16342:16344   */\n      0x20\n        /* \"#utility.yul\":16334:16340   */\n      dup3\n        /* \"#utility.yul\":16330:16345   */\n      add\n        /* \"#utility.yul\":16323:16382   */\n      mstore\n        /* \"#utility.yul\":16416:16419   */\n      0x6100000000000000000000000000000000000000000000000000000000000000\n        /* \"#utility.yul\":16411:16413   */\n      0x40\n        /* \"#utility.yul\":16403:16409   */\n      dup3\n        /* \"#utility.yul\":16399:16414   */\n      add\n        /* \"#utility.yul\":16392:16420   */\n      mstore\n        /* \"#utility.yul\":16138:16427   */\n      pop\n      jump\t// out\n        /* \"#utility.yul\":16433:16799   */\n    tag_236:\n        /* \"#utility.yul\":16575:16578   */\n      0x00\n        /* \"#utility.yul\":16596:16663   */\n      tag_377\n        /* \"#utility.yul\":16660:16662   */\n      0x41\n        /* \"#utility.yul\":16655:16658   */\n      dup4\n        /* \"#utility.yul\":16596:16663   */\n      tag_216\n      jump\t// in\n    tag_377:\n        /* \"#utility.yul\":16589:16663   */\n      swap2\n      pop\n        /* \"#utility.yul\":16672:16765   */\n      tag_378\n        /* \"#utility.yul\":16761:16764   */\n      dup3\n        /* \"#utility.yul\":16672:16765   */\n      tag_235\n      jump\t// in\n    tag_378:\n        /* \"#utility.yul\":16790:16792   */\n      0x60\n        /* \"#utility.yul\":16785:16788   */\n      dup3\n        /* \"#utility.yul\":16781:16793   */\n      add\n        /* \"#utility.yul\":16774:16793   */\n      swap1\n      pop\n        /* \"#utility.yul\":16433:16799   */\n      swap2\n      swap1\n      pop\n      jump\t// out\n        /* \"#utility.yul\":16805:17224   */\n    tag_181:\n        /* \"#utility.yul\":16971:16975   */\n      0x00\n        /* \"#utility.yul\":17009:17011   */\n      0x20\n        /* \"#utility.yul\":16998:17007   */\n      dup3\n        /* \"#utility.yul\":16994:17012   */\n      add\n        /* \"#utility.yul\":16986:17012   */\n      swap1\n      pop\n        /* \"#utility.yul\":17058:17067   */\n      dup2\n        /* \"#utility.yul\":17052:17056   */\n      dup2\n        /* \"#utility.yul\":17048:17068   */\n      sub\n        /* \"#utility.yul\":17044:17045   */\n      0x00\n        /* \"#utility.yul\":17033:17042   */\n      dup4\n        /* \"#utility.yul\":17029:17046   */\n      add\n        /* \"#utility.yul\":17022:17069   */\n      mstore\n        /* \"#utility.yul\":17086:17217   */\n      tag_380\n        /* \"#utility.yul\":17212:17216   */\n      dup2\n        /* \"#utility.yul\":17086:17217   */\n      tag_236\n      jump\t// in\n    tag_380:\n        /* \"#utility.yul\":17078:17217   */\n      swap1\n      pop\n        /* \"#utility.yul\":16805:17224   */\n      swap2\n      swap1\n      pop\n      jump\t// out\n\n    auxdata: 0xa2646970667358221220a8aeb51b4471567bff9748f286f410dc3ce19315b6fd19f8493ef7a3236fe16064736f6c63430008190033\n}\n",
				"bytecode": {
					"linkReferences": {},
					"object": "608060405263672b5a4060035562093a8060035461001d91906100e0565b6004556611c37937e08000600555610258600655610258600755600560085560026009555f600a5f6101000a81548160ff021916908315150217905550348015610065575f80fd5b50335f806101000a81548173ffffffffffffffffffffffffffffffffffffffff021916908373ffffffffffffffffffffffffffffffffffffffff160217905550610113565b5f819050919050565b7f4e487b71000000000000000000000000000000000000000000000000000000005f52601160045260245ffd5b5f6100ea826100aa565b91506100f5836100aa565b925082820190508082111561010d5761010c6100b3565b5b92915050565b611896806101205f395ff3fe60806040526004361061011e575f3560e01c8063723a978d1161009f578063e010707711610063578063e010707714610398578063f292b25d146103c2578063f4442c65146103ec578063fbc0801614610416578063ffbfc189146104405761011e565b8063723a978d146102c5578063753dcaeb146102ef578063acfc9f981461031a578063b04f21fc14610344578063c442a99f1461036e5761011e565b806356afff7c116100e657806356afff7c146101d05780636401f67f1461020d578063664e62b91461023757806369ecf131146102735780636b595fbb1461029b5761011e565b80630851eac2146101225780631c33274f146101385780633c5044c1146101745780633dfa138d146101905780635298a3c4146101ba575b5f80fd5b34801561012d575f80fd5b5061013661046a565b005b348015610143575f80fd5b5061015e6004803603810190610159919061104d565b61066b565b60405161016b9190611090565b60405180910390f35b61018e600480360381019061018991906110d3565b610680565b005b34801561019b575f80fd5b506101a4610a84565b6040516101b1919061110d565b60405180910390f35b3480156101c5575f80fd5b506101ce610aa7565b005b3480156101db575f80fd5b506101f660048036038101906101f191906110d3565b610c30565b604051610204929190611126565b60405180910390f35b348015610218575f80fd5b50610221610c7e565b60405161022e9190611090565b60405180910390f35b348015610242575f80fd5b5061025d6004803603810190610258919061104d565b610c84565b60405161026a9190611090565b60405180910390f35b34801561027e575f80fd5b50610299600480360381019061029491906110d3565b610c99565b005b3480156102a6575f80fd5b506102af610e57565b6040516102bc9190611090565b60405180910390f35b3480156102d0575f80fd5b506102d9610e5d565b6040516102e69190611090565b60405180910390f35b3480156102fa575f80fd5b50610303610e63565b604051610311929190611126565b60405180910390f35b348015610325575f80fd5b5061032e610ee0565b60405161033b9190611090565b60405180910390f35b34801561034f575f80fd5b50610358610ee6565b6040516103659190611090565b60405180910390f35b348015610379575f80fd5b50610382610eec565b60405161038f9190611240565b60405180910390f35b3480156103a3575f80fd5b506103ac610fa6565b6040516103b99190611090565b60405180910390f35b3480156103cd575f80fd5b506103d6610fac565b6040516103e39190611090565b60405180910390f35b3480156103f7575f80fd5b50610400610fb2565b60405161040d919061110d565b60405180910390f35b348015610421575f80fd5b5061042a610fd7565b6040516104379190611090565b60405180910390f35b34801561044b575f80fd5b50610454610fdd565b604051610461919061127a565b60405180910390f35b5f8054906101000a900473ffffffffffffffffffffffffffffffffffffffff1673ffffffffffffffffffffffffffffffffffffffff163373ffffffffffffffffffffffffffffffffffffffff16146104f7576040517f08c379a00000000000000000000000000000000000000000000000000000000081526004016104ee90611313565b60405180910390fd5b600354421015801561050a575060045442105b610549576040517f08c379a00000000000000000000000000000000000000000000000000000000081526004016105409061137b565b60405180910390fd5b60045442101561058e576040517f08c379a0000000000000000000000000000000000000000000000000000000008152600401610585906113e3565b60405180910390fd5b6001600a5f6101000a81548160ff0219169083151502179055507fa3a65b403bdae88eb037f4ecc1d619f436fc3ef6bcbbee3787757164e82883f260015f9054906101000a900473ffffffffffffffffffffffffffffffffffffffff166002546040516105fc929190611126565b60405180910390a15f8054906101000a900473ffffffffffffffffffffffffffffffffffffffff1673ffffffffffffffffffffffffffffffffffffffff166108fc60025490811502906040515f60405180830381858888f19350505050158015610668573d5f803e3d5ffd5b50565b600d602052805f5260405f205f915090505481565b6003544210156106c5576040517f08c379a00000000000000000000000000000000000000000000000000000000081526004016106bc9061144b565b60405180910390fd5b60035442101580156106d8575060045442105b610717576040517f08c379a000000000000000000000000000000000000000000000000000000000815260040161070e9061137b565b60405180910390fd5b5f339050600554821015610760576040517f08c379a0000000000000000000000000000000000000000000000000000000008152600401610757906114d9565b60405180910390fd5b60646008546002546107729190611524565b61077c9190611592565b60025461078991906115c2565b8210156107cb576040517f08c379a00000000000000000000000000000000000000000000000000000000081526004016107c29061168b565b60405180910390fd5b5f73ffffffffffffffffffffffffffffffffffffffff1660015f9054906101000a900473ffffffffffffffffffffffffffffffffffffffff1673ffffffffffffffffffffffffffffffffffffffff161461089657600254600c5f60015f9054906101000a900473ffffffffffffffffffffffffffffffffffffffff1673ffffffffffffffffffffffffffffffffffffffff1673ffffffffffffffffffffffffffffffffffffffff1681526020019081526020015f205f82825461088e91906115c2565b925050819055505b8060015f6101000a81548173ffffffffffffffffffffffffffffffffffffffff021916908373ffffffffffffffffffffffffffffffffffffffff16021790555081600281905550600b60405180604001604052808373ffffffffffffffffffffffffffffffffffffffff16815260200184815250908060018154018082558091505060019003905f5260205f2090600202015f909190919091505f820151815f015f6101000a81548173ffffffffffffffffffffffffffffffffffffffff021916908373ffffffffffffffffffffffffffffffffffffffff16021790555060208201518160010155505081600c5f8373ffffffffffffffffffffffffffffffffffffffff1673ffffffffffffffffffffffffffffffffffffffff1681526020019081526020015f205f8282546109cc91906115c2565b9250508190555081600d5f8373ffffffffffffffffffffffffffffffffffffffff1673ffffffffffffffffffffffffffffffffffffffff1681526020019081526020015f20819055507f155d469211f46e4d9ae974606f0878f9aacc6198ba30a1e6b9c8cf5627352fb58183604051610a46929190611126565b60405180910390a1600754600454610a5e91906116a9565b421115610a805760065460045f828254610a7891906115c2565b925050819055505b5050565b5f8054906101000a900473ffffffffffffffffffffffffffffffffffffffff1681565b600a5f9054906101000a900460ff16610af5576040517f08c379a0000000000000000000000000000000000000000000000000000000008152600401610aec90611726565b60405180910390fd5b5f3390505f600c5f8373ffffffffffffffffffffffffffffffffffffffff1673ffffffffffffffffffffffffffffffffffffffff1681526020019081526020015f205490505f8111610b7c576040517f08c379a0000000000000000000000000000000000000000000000000000000008152600401610b739061178e565b60405180910390fd5b5f60646009546064610b8e91906116a9565b83610b999190611524565b610ba39190611592565b90508273ffffffffffffffffffffffffffffffffffffffff166108fc8290811502906040515f60405180830381858888f19350505050158015610be8573d5f803e3d5ffd5b505f600c5f8573ffffffffffffffffffffffffffffffffffffffff1673ffffffffffffffffffffffffffffffffffffffff1681526020019081526020015f2081905550505050565b600b8181548110610c3f575f80fd5b905f5260205f2090600202015f91509050805f015f9054906101000a900473ffffffffffffffffffffffffffffffffffffffff16908060010154905082565b60045481565b600c602052805f5260405f205f915090505481565b6003544210158015610cac575060045442105b610ceb576040517f08c379a0000000000000000000000000000000000000000000000000000000008152600401610ce29061137b565b60405180910390fd5b5f3390505f600d5f8373ffffffffffffffffffffffffffffffffffffffff1673ffffffffffffffffffffffffffffffffffffffff1681526020019081526020015f2054600c5f8473ffffffffffffffffffffffffffffffffffffffff1673ffffffffffffffffffffffffffffffffffffffff1681526020019081526020015f2054610d7691906116a9565b905080831115610dbb576040517f08c379a0000000000000000000000000000000000000000000000000000000008152600401610db290611842565b60405180910390fd5b82600c5f8473ffffffffffffffffffffffffffffffffffffffff1673ffffffffffffffffffffffffffffffffffffffff1681526020019081526020015f205f828254610e0791906116a9565b925050819055508173ffffffffffffffffffffffffffffffffffffffff166108fc8490811502906040515f60405180830381858888f19350505050158015610e51573d5f803e3d5ffd5b50505050565b60085481565b60035481565b5f80600a5f9054906101000a900460ff16610eb3576040517f08c379a0000000000000000000000000000000000000000000000000000000008152600401610eaa90611726565b60405180910390fd5b60015f9054906101000a900473ffffffffffffffffffffffffffffffffffffffff16600254915091509091565b60025481565b60075481565b6060600b805480602002602001604051908101604052809291908181526020015f905b82821015610f9d578382905f5260205f2090600202016040518060400160405290815f82015f9054906101000a900473ffffffffffffffffffffffffffffffffffffffff1673ffffffffffffffffffffffffffffffffffffffff1673ffffffffffffffffffffffffffffffffffffffff16815260200160018201548152505081526020019060010190610f0f565b50505050905090565b60055481565b60065481565b60015f9054906101000a900473ffffffffffffffffffffffffffffffffffffffff1681565b60095481565b600a5f9054906101000a900460ff1681565b5f80fd5b5f73ffffffffffffffffffffffffffffffffffffffff82169050919050565b5f61101c82610ff3565b9050919050565b61102c81611012565b8114611036575f80fd5b50565b5f8135905061104781611023565b92915050565b5f6020828403121561106257611061610fef565b5b5f61106f84828501611039565b91505092915050565b5f819050919050565b61108a81611078565b82525050565b5f6020820190506110a35f830184611081565b92915050565b6110b281611078565b81146110bc575f80fd5b50565b5f813590506110cd816110a9565b92915050565b5f602082840312156110e8576110e7610fef565b5b5f6110f5848285016110bf565b91505092915050565b61110781611012565b82525050565b5f6020820190506111205f8301846110fe565b92915050565b5f6040820190506111395f8301856110fe565b6111466020830184611081565b9392505050565b5f81519050919050565b5f82825260208201905092915050565b5f819050602082019050919050565b61117f81611012565b82525050565b61118e81611078565b82525050565b604082015f8201516111a85f850182611176565b5060208201516111bb6020850182611185565b50505050565b5f6111cc8383611194565b60408301905092915050565b5f602082019050919050565b5f6111ee8261114d565b6111f88185611157565b935061120383611167565b805f5b8381101561123357815161121a88826111c1565b9750611225836111d8565b925050600181019050611206565b5085935050505092915050565b5f6020820190508181035f83015261125881846111e4565b905092915050565b5f8115159050919050565b61127481611260565b82525050565b5f60208201905061128d5f83018461126b565b92915050565b5f82825260208201905092915050565b7f536f6c6f20656c2073756261737461646f7220707565646520656a65637574615f8201527f7220657374612066756e63696f6e000000000000000000000000000000000000602082015250565b5f6112fd602e83611293565b9150611308826112a3565b604082019050919050565b5f6020820190508181035f83015261132a816112f1565b9050919050565b7f4c612073756261737461206e6f206573746120616374697661000000000000005f82015250565b5f611365601983611293565b915061137082611331565b602082019050919050565b5f6020820190508181035f83015261139281611359565b9050919050565b7f4c6120737562617374612061756e206573746120656e20637572736f000000005f82015250565b5f6113cd601c83611293565b91506113d882611399565b602082019050919050565b5f6020820190508181035f8301526113fa816113c1565b9050919050565b7f4c6120737562617374612061756e206e6f20686120696e69636961646f0000005f82015250565b5f611435601d83611293565b915061144082611401565b602082019050919050565b5f6020820190508181035f83015261146281611429565b9050919050565b7f4c61206f666572746120646562652073657220616c206d656e6f7320656c206d5f8201527f696e696d6f20646520302e303035204554480000000000000000000000000000602082015250565b5f6114c3603283611293565b91506114ce82611469565b604082019050919050565b5f6020820190508181035f8301526114f0816114b7565b9050919050565b7f4e487b71000000000000000000000000000000000000000000000000000000005f52601160045260245ffd5b5f61152e82611078565b915061153983611078565b925082820261154781611078565b9150828204841483151761155e5761155d6114f7565b5b5092915050565b7f4e487b71000000000000000000000000000000000000000000000000000000005f52601260045260245ffd5b5f61159c82611078565b91506115a783611078565b9250826115b7576115b6611565565b5b828204905092915050565b5f6115cc82611078565b91506115d783611078565b92508282019050808211156115ef576115ee6114f7565b5b92915050565b7f4c61206f666572746120646562652073657220616c206d656e6f7320756e20355f8201527f25206d61796f7220717565206c61206d656a6f72206f6665727461206163747560208201527f616c000000000000000000000000000000000000000000000000000000000000604082015250565b5f611675604283611293565b9150611680826115f5565b606082019050919050565b5f6020820190508181035f8301526116a281611669565b9050919050565b5f6116b382611078565b91506116be83611078565b92508282039050818111156116d6576116d56114f7565b5b92915050565b7f4c6120737562617374612061756e206e6f2068612066696e616c697a61646f005f82015250565b5f611710601f83611293565b915061171b826116dc565b602082019050919050565b5f6020820190508181035f83015261173d81611704565b9050919050565b7f4e6f207469656e6573206465706f7369746f2070617261207265636c616d61725f82015250565b5f611778602083611293565b915061178382611744565b602082019050919050565b5f6020820190508181035f8301526117a58161176c565b9050919050565b7f4d6f6e746f206d61796f7220616c206465706f7369746f20646973706f6e69625f8201527f6c6520706f7220656e63696d6120646520747520756c74696d61206f6665727460208201527f6100000000000000000000000000000000000000000000000000000000000000604082015250565b5f61182c604183611293565b9150611837826117ac565b606082019050919050565b5f6020820190508181035f83015261185981611820565b905091905056fea2646970667358221220a8aeb51b4471567bff9748f286f410dc3ce19315b6fd19f8493ef7a3236fe16064736f6c63430008190033",
					"opcodes": "PUSH1 0x80 PUSH1 0x40 MSTORE PUSH4 0x672B5A40 PUSH1 0x3 SSTORE PUSH3 0x93A80 PUSH1 0x3 SLOAD PUSH2 0x1D SWAP2 SWAP1 PUSH2 0xE0 JUMP JUMPDEST PUSH1 0x4 SSTORE PUSH7 0x11C37937E08000 PUSH1 0x5 SSTORE PUSH2 0x258 PUSH1 0x6 SSTORE PUSH2 0x258 PUSH1 0x7 SSTORE PUSH1 0x5 PUSH1 0x8 SSTORE PUSH1 0x2 PUSH1 0x9 SSTORE PUSH0 PUSH1 0xA PUSH0 PUSH2 0x100 EXP DUP2 SLOAD DUP2 PUSH1 0xFF MUL NOT AND SWAP1 DUP4 ISZERO ISZERO MUL OR SWAP1 SSTORE POP CALLVALUE DUP1 ISZERO PUSH2 0x65 JUMPI PUSH0 DUP1 REVERT JUMPDEST POP CALLER PUSH0 DUP1 PUSH2 0x100 EXP DUP2 SLOAD DUP2 PUSH20 0xFFFFFFFFFFFFFFFFFFFFFFFFFFFFFFFFFFFFFFFF MUL NOT AND SWAP1 DUP4 PUSH20 0xFFFFFFFFFFFFFFFFFFFFFFFFFFFFFFFFFFFFFFFF AND MUL OR SWAP1 SSTORE POP PUSH2 0x113 JUMP JUMPDEST PUSH0 DUP2 SWAP1 POP SWAP2 SWAP1 POP JUMP JUMPDEST PUSH32 0x4E487B7100000000000000000000000000000000000000000000000000000000 PUSH0 MSTORE PUSH1 0x11 PUSH1 0x4 MSTORE PUSH1 0x24 PUSH0 REVERT JUMPDEST PUSH0 PUSH2 0xEA DUP3 PUSH2 0xAA JUMP JUMPDEST SWAP2 POP PUSH2 0xF5 DUP4 PUSH2 0xAA JUMP JUMPDEST SWAP3 POP DUP3 DUP3 ADD SWAP1 POP DUP1 DUP3 GT ISZERO PUSH2 0x10D JUMPI PUSH2 0x10C PUSH2 0xB3 JUMP JUMPDEST JUMPDEST SWAP3 SWAP2 POP POP JUMP JUMPDEST PUSH2 0x1896 DUP1 PUSH2 0x120 PUSH0 CODECOPY PUSH0 RETURN INVALID PUSH1 0x80 PUSH1 0x40 MSTORE PUSH1 0x4 CALLDATASIZE LT PUSH2 0x11E JUMPI PUSH0 CALLDATALOAD PUSH1 0xE0 SHR DUP1 PUSH4 0x723A978D GT PUSH2 0x9F JUMPI DUP1 PUSH4 0xE0107077 GT PUSH2 0x63 JUMPI DUP1 PUSH4 0xE0107077 EQ PUSH2 0x398 JUMPI DUP1 PUSH4 0xF292B25D EQ PUSH2 0x3C2 JUMPI DUP1 PUSH4 0xF4442C65 EQ PUSH2 0x3EC JUMPI DUP1 PUSH4 0xFBC08016 EQ PUSH2 0x416 JUMPI DUP1 PUSH4 0xFFBFC189 EQ PUSH2 0x440 JUMPI PUSH2 0x11E JUMP JUMPDEST DUP1 PUSH4 0x723A978D EQ PUSH2 0x2C5 JUMPI DUP1 PUSH4 0x753DCAEB EQ PUSH2 0x2EF JUMPI DUP1 PUSH4 0xACFC9F98 EQ PUSH2 0x31A JUMPI DUP1 PUSH4 0xB04F21FC EQ PUSH2 0x344 JUMPI DUP1 PUSH4 0xC442A99F EQ PUSH2 0x36E JUMPI PUSH2 0x11E JUMP JUMPDEST DUP1 PUSH4 0x56AFFF7C GT PUSH2 0xE6 JUMPI DUP1 PUSH4 0x56AFFF7C EQ PUSH2 0x1D0 JUMPI DUP1 PUSH4 0x6401F67F EQ PUSH2 0x20D JUMPI DUP1 PUSH4 0x664E62B9 EQ PUSH2 0x237 JUMPI DUP1 PUSH4 0x69ECF131 EQ PUSH2 0x273 JUMPI DUP1 PUSH4 0x6B595FBB EQ PUSH2 0x29B JUMPI PUSH2 0x11E JUMP JUMPDEST DUP1 PUSH4 0x851EAC2 EQ PUSH2 0x122 JUMPI DUP1 PUSH4 0x1C33274F EQ PUSH2 0x138 JUMPI DUP1 PUSH4 0x3C5044C1 EQ PUSH2 0x174 JUMPI DUP1 PUSH4 0x3DFA138D EQ PUSH2 0x190 JUMPI DUP1 PUSH4 0x5298A3C4 EQ PUSH2 0x1BA JUMPI JUMPDEST PUSH0 DUP1 REVERT JUMPDEST CALLVALUE DUP1 ISZERO PUSH2 0x12D JUMPI PUSH0 DUP1 REVERT JUMPDEST POP PUSH2 0x136 PUSH2 0x46A JUMP JUMPDEST STOP JUMPDEST CALLVALUE DUP1 ISZERO PUSH2 0x143 JUMPI PUSH0 DUP1 REVERT JUMPDEST POP PUSH2 0x15E PUSH1 0x4 DUP1 CALLDATASIZE SUB DUP2 ADD SWAP1 PUSH2 0x159 SWAP2 SWAP1 PUSH2 0x104D JUMP JUMPDEST PUSH2 0x66B JUMP JUMPDEST PUSH1 0x40 MLOAD PUSH2 0x16B SWAP2 SWAP1 PUSH2 0x1090 JUMP JUMPDEST PUSH1 0x40 MLOAD DUP1 SWAP2 SUB SWAP1 RETURN JUMPDEST PUSH2 0x18E PUSH1 0x4 DUP1 CALLDATASIZE SUB DUP2 ADD SWAP1 PUSH2 0x189 SWAP2 SWAP1 PUSH2 0x10D3 JUMP JUMPDEST PUSH2 0x680 JUMP JUMPDEST STOP JUMPDEST CALLVALUE DUP1 ISZERO PUSH2 0x19B JUMPI PUSH0 DUP1 REVERT JUMPDEST POP PUSH2 0x1A4 PUSH2 0xA84 JUMP JUMPDEST PUSH1 0x40 MLOAD PUSH2 0x1B1 SWAP2 SWAP1 PUSH2 0x110D JUMP JUMPDEST PUSH1 0x40 MLOAD DUP1 SWAP2 SUB SWAP1 RETURN JUMPDEST CALLVALUE DUP1 ISZERO PUSH2 0x1C5 JUMPI PUSH0 DUP1 REVERT JUMPDEST POP PUSH2 0x1CE PUSH2 0xAA7 JUMP JUMPDEST STOP JUMPDEST CALLVALUE DUP1 ISZERO PUSH2 0x1DB JUMPI PUSH0 DUP1 REVERT JUMPDEST POP PUSH2 0x1F6 PUSH1 0x4 DUP1 CALLDATASIZE SUB DUP2 ADD SWAP1 PUSH2 0x1F1 SWAP2 SWAP1 PUSH2 0x10D3 JUMP JUMPDEST PUSH2 0xC30 JUMP JUMPDEST PUSH1 0x40 MLOAD PUSH2 0x204 SWAP3 SWAP2 SWAP1 PUSH2 0x1126 JUMP JUMPDEST PUSH1 0x40 MLOAD DUP1 SWAP2 SUB SWAP1 RETURN JUMPDEST CALLVALUE DUP1 ISZERO PUSH2 0x218 JUMPI PUSH0 DUP1 REVERT JUMPDEST POP PUSH2 0x221 PUSH2 0xC7E JUMP JUMPDEST PUSH1 0x40 MLOAD PUSH2 0x22E SWAP2 SWAP1 PUSH2 0x1090 JUMP JUMPDEST PUSH1 0x40 MLOAD DUP1 SWAP2 SUB SWAP1 RETURN JUMPDEST CALLVALUE DUP1 ISZERO PUSH2 0x242 JUMPI PUSH0 DUP1 REVERT JUMPDEST POP PUSH2 0x25D PUSH1 0x4 DUP1 CALLDATASIZE SUB DUP2 ADD SWAP1 PUSH2 0x258 SWAP2 SWAP1 PUSH2 0x104D JUMP JUMPDEST PUSH2 0xC84 JUMP JUMPDEST PUSH1 0x40 MLOAD PUSH2 0x26A SWAP2 SWAP1 PUSH2 0x1090 JUMP JUMPDEST PUSH1 0x40 MLOAD DUP1 SWAP2 SUB SWAP1 RETURN JUMPDEST CALLVALUE DUP1 ISZERO PUSH2 0x27E JUMPI PUSH0 DUP1 REVERT JUMPDEST POP PUSH2 0x299 PUSH1 0x4 DUP1 CALLDATASIZE SUB DUP2 ADD SWAP1 PUSH2 0x294 SWAP2 SWAP1 PUSH2 0x10D3 JUMP JUMPDEST PUSH2 0xC99 JUMP JUMPDEST STOP JUMPDEST CALLVALUE DUP1 ISZERO PUSH2 0x2A6 JUMPI PUSH0 DUP1 REVERT JUMPDEST POP PUSH2 0x2AF PUSH2 0xE57 JUMP JUMPDEST PUSH1 0x40 MLOAD PUSH2 0x2BC SWAP2 SWAP1 PUSH2 0x1090 JUMP JUMPDEST PUSH1 0x40 MLOAD DUP1 SWAP2 SUB SWAP1 RETURN JUMPDEST CALLVALUE DUP1 ISZERO PUSH2 0x2D0 JUMPI PUSH0 DUP1 REVERT JUMPDEST POP PUSH2 0x2D9 PUSH2 0xE5D JUMP JUMPDEST PUSH1 0x40 MLOAD PUSH2 0x2E6 SWAP2 SWAP1 PUSH2 0x1090 JUMP JUMPDEST PUSH1 0x40 MLOAD DUP1 SWAP2 SUB SWAP1 RETURN JUMPDEST CALLVALUE DUP1 ISZERO PUSH2 0x2FA JUMPI PUSH0 DUP1 REVERT JUMPDEST POP PUSH2 0x303 PUSH2 0xE63 JUMP JUMPDEST PUSH1 0x40 MLOAD PUSH2 0x311 SWAP3 SWAP2 SWAP1 PUSH2 0x1126 JUMP JUMPDEST PUSH1 0x40 MLOAD DUP1 SWAP2 SUB SWAP1 RETURN JUMPDEST CALLVALUE DUP1 ISZERO PUSH2 0x325 JUMPI PUSH0 DUP1 REVERT JUMPDEST POP PUSH2 0x32E PUSH2 0xEE0 JUMP JUMPDEST PUSH1 0x40 MLOAD PUSH2 0x33B SWAP2 SWAP1 PUSH2 0x1090 JUMP JUMPDEST PUSH1 0x40 MLOAD DUP1 SWAP2 SUB SWAP1 RETURN JUMPDEST CALLVALUE DUP1 ISZERO PUSH2 0x34F JUMPI PUSH0 DUP1 REVERT JUMPDEST POP PUSH2 0x358 PUSH2 0xEE6 JUMP JUMPDEST PUSH1 0x40 MLOAD PUSH2 0x365 SWAP2 SWAP1 PUSH2 0x1090 JUMP JUMPDEST PUSH1 0x40 MLOAD DUP1 SWAP2 SUB SWAP1 RETURN JUMPDEST CALLVALUE DUP1 ISZERO PUSH2 0x379 JUMPI PUSH0 DUP1 REVERT JUMPDEST POP PUSH2 0x382 PUSH2 0xEEC JUMP JUMPDEST PUSH1 0x40 MLOAD PUSH2 0x38F SWAP2 SWAP1 PUSH2 0x1240 JUMP JUMPDEST PUSH1 0x40 MLOAD DUP1 SWAP2 SUB SWAP1 RETURN JUMPDEST CALLVALUE DUP1 ISZERO PUSH2 0x3A3 JUMPI PUSH0 DUP1 REVERT JUMPDEST POP PUSH2 0x3AC PUSH2 0xFA6 JUMP JUMPDEST PUSH1 0x40 MLOAD PUSH2 0x3B9 SWAP2 SWAP1 PUSH2 0x1090 JUMP JUMPDEST PUSH1 0x40 MLOAD DUP1 SWAP2 SUB SWAP1 RETURN JUMPDEST CALLVALUE DUP1 ISZERO PUSH2 0x3CD JUMPI PUSH0 DUP1 REVERT JUMPDEST POP PUSH2 0x3D6 PUSH2 0xFAC JUMP JUMPDEST PUSH1 0x40 MLOAD PUSH2 0x3E3 SWAP2 SWAP1 PUSH2 0x1090 JUMP JUMPDEST PUSH1 0x40 MLOAD DUP1 SWAP2 SUB SWAP1 RETURN JUMPDEST CALLVALUE DUP1 ISZERO PUSH2 0x3F7 JUMPI PUSH0 DUP1 REVERT JUMPDEST POP PUSH2 0x400 PUSH2 0xFB2 JUMP JUMPDEST PUSH1 0x40 MLOAD PUSH2 0x40D SWAP2 SWAP1 PUSH2 0x110D JUMP JUMPDEST PUSH1 0x40 MLOAD DUP1 SWAP2 SUB SWAP1 RETURN JUMPDEST CALLVALUE DUP1 ISZERO PUSH2 0x421 JUMPI PUSH0 DUP1 REVERT JUMPDEST POP PUSH2 0x42A PUSH2 0xFD7 JUMP JUMPDEST PUSH1 0x40 MLOAD PUSH2 0x437 SWAP2 SWAP1 PUSH2 0x1090 JUMP JUMPDEST PUSH1 0x40 MLOAD DUP1 SWAP2 SUB SWAP1 RETURN JUMPDEST CALLVALUE DUP1 ISZERO PUSH2 0x44B JUMPI PUSH0 DUP1 REVERT JUMPDEST POP PUSH2 0x454 PUSH2 0xFDD JUMP JUMPDEST PUSH1 0x40 MLOAD PUSH2 0x461 SWAP2 SWAP1 PUSH2 0x127A JUMP JUMPDEST PUSH1 0x40 MLOAD DUP1 SWAP2 SUB SWAP1 RETURN JUMPDEST PUSH0 DUP1 SLOAD SWAP1 PUSH2 0x100 EXP SWAP1 DIV PUSH20 0xFFFFFFFFFFFFFFFFFFFFFFFFFFFFFFFFFFFFFFFF AND PUSH20 0xFFFFFFFFFFFFFFFFFFFFFFFFFFFFFFFFFFFFFFFF AND CALLER PUSH20 0xFFFFFFFFFFFFFFFFFFFFFFFFFFFFFFFFFFFFFFFF AND EQ PUSH2 0x4F7 JUMPI PUSH1 0x40 MLOAD PUSH32 0x8C379A000000000000000000000000000000000000000000000000000000000 DUP2 MSTORE PUSH1 0x4 ADD PUSH2 0x4EE SWAP1 PUSH2 0x1313 JUMP JUMPDEST PUSH1 0x40 MLOAD DUP1 SWAP2 SUB SWAP1 REVERT JUMPDEST PUSH1 0x3 SLOAD TIMESTAMP LT ISZERO DUP1 ISZERO PUSH2 0x50A JUMPI POP PUSH1 0x4 SLOAD TIMESTAMP LT JUMPDEST PUSH2 0x549 JUMPI PUSH1 0x40 MLOAD PUSH32 0x8C379A000000000000000000000000000000000000000000000000000000000 DUP2 MSTORE PUSH1 0x4 ADD PUSH2 0x540 SWAP1 PUSH2 0x137B JUMP JUMPDEST PUSH1 0x40 MLOAD DUP1 SWAP2 SUB SWAP1 REVERT JUMPDEST PUSH1 0x4 SLOAD TIMESTAMP LT ISZERO PUSH2 0x58E JUMPI PUSH1 0x40 MLOAD PUSH32 0x8C379A000000000000000000000000000000000000000000000000000000000 DUP2 MSTORE PUSH1 0x4 ADD PUSH2 0x585 SWAP1 PUSH2 0x13E3 JUMP JUMPDEST PUSH1 0x40 MLOAD DUP1 SWAP2 SUB SWAP1 REVERT JUMPDEST PUSH1 0x1 PUSH1 0xA PUSH0 PUSH2 0x100 EXP DUP2 SLOAD DUP2 PUSH1 0xFF MUL NOT AND SWAP1 DUP4 ISZERO ISZERO MUL OR SWAP1 SSTORE POP PUSH32 0xA3A65B403BDAE88EB037F4ECC1D619F436FC3EF6BCBBEE3787757164E82883F2 PUSH1 0x1 PUSH0 SWAP1 SLOAD SWAP1 PUSH2 0x100 EXP SWAP1 DIV PUSH20 0xFFFFFFFFFFFFFFFFFFFFFFFFFFFFFFFFFFFFFFFF AND PUSH1 0x2 SLOAD PUSH1 0x40 MLOAD PUSH2 0x5FC SWAP3 SWAP2 SWAP1 PUSH2 0x1126 JUMP JUMPDEST PUSH1 0x40 MLOAD DUP1 SWAP2 SUB SWAP1 LOG1 PUSH0 DUP1 SLOAD SWAP1 PUSH2 0x100 EXP SWAP1 DIV PUSH20 0xFFFFFFFFFFFFFFFFFFFFFFFFFFFFFFFFFFFFFFFF AND PUSH20 0xFFFFFFFFFFFFFFFFFFFFFFFFFFFFFFFFFFFFFFFF AND PUSH2 0x8FC PUSH1 0x2 SLOAD SWAP1 DUP2 ISZERO MUL SWAP1 PUSH1 0x40 MLOAD PUSH0 PUSH1 0x40 MLOAD DUP1 DUP4 SUB DUP2 DUP6 DUP9 DUP9 CALL SWAP4 POP POP POP POP ISZERO DUP1 ISZERO PUSH2 0x668 JUMPI RETURNDATASIZE PUSH0 DUP1 RETURNDATACOPY RETURNDATASIZE PUSH0 REVERT JUMPDEST POP JUMP JUMPDEST PUSH1 0xD PUSH1 0x20 MSTORE DUP1 PUSH0 MSTORE PUSH1 0x40 PUSH0 KECCAK256 PUSH0 SWAP2 POP SWAP1 POP SLOAD DUP2 JUMP JUMPDEST PUSH1 0x3 SLOAD TIMESTAMP LT ISZERO PUSH2 0x6C5 JUMPI PUSH1 0x40 MLOAD PUSH32 0x8C379A000000000000000000000000000000000000000000000000000000000 DUP2 MSTORE PUSH1 0x4 ADD PUSH2 0x6BC SWAP1 PUSH2 0x144B JUMP JUMPDEST PUSH1 0x40 MLOAD DUP1 SWAP2 SUB SWAP1 REVERT JUMPDEST PUSH1 0x3 SLOAD TIMESTAMP LT ISZERO DUP1 ISZERO PUSH2 0x6D8 JUMPI POP PUSH1 0x4 SLOAD TIMESTAMP LT JUMPDEST PUSH2 0x717 JUMPI PUSH1 0x40 MLOAD PUSH32 0x8C379A000000000000000000000000000000000000000000000000000000000 DUP2 MSTORE PUSH1 0x4 ADD PUSH2 0x70E SWAP1 PUSH2 0x137B JUMP JUMPDEST PUSH1 0x40 MLOAD DUP1 SWAP2 SUB SWAP1 REVERT JUMPDEST PUSH0 CALLER SWAP1 POP PUSH1 0x5 SLOAD DUP3 LT ISZERO PUSH2 0x760 JUMPI PUSH1 0x40 MLOAD PUSH32 0x8C379A000000000000000000000000000000000000000000000000000000000 DUP2 MSTORE PUSH1 0x4 ADD PUSH2 0x757 SWAP1 PUSH2 0x14D9 JUMP JUMPDEST PUSH1 0x40 MLOAD DUP1 SWAP2 SUB SWAP1 REVERT JUMPDEST PUSH1 0x64 PUSH1 0x8 SLOAD PUSH1 0x2 SLOAD PUSH2 0x772 SWAP2 SWAP1 PUSH2 0x1524 JUMP JUMPDEST PUSH2 0x77C SWAP2 SWAP1 PUSH2 0x1592 JUMP JUMPDEST PUSH1 0x2 SLOAD PUSH2 0x789 SWAP2 SWAP1 PUSH2 0x15C2 JUMP JUMPDEST DUP3 LT ISZERO PUSH2 0x7CB JUMPI PUSH1 0x40 MLOAD PUSH32 0x8C379A000000000000000000000000000000000000000000000000000000000 DUP2 MSTORE PUSH1 0x4 ADD PUSH2 0x7C2 SWAP1 PUSH2 0x168B JUMP JUMPDEST PUSH1 0x40 MLOAD DUP1 SWAP2 SUB SWAP1 REVERT JUMPDEST PUSH0 PUSH20 0xFFFFFFFFFFFFFFFFFFFFFFFFFFFFFFFFFFFFFFFF AND PUSH1 0x1 PUSH0 SWAP1 SLOAD SWAP1 PUSH2 0x100 EXP SWAP1 DIV PUSH20 0xFFFFFFFFFFFFFFFFFFFFFFFFFFFFFFFFFFFFFFFF AND PUSH20 0xFFFFFFFFFFFFFFFFFFFFFFFFFFFFFFFFFFFFFFFF AND EQ PUSH2 0x896 JUMPI PUSH1 0x2 SLOAD PUSH1 0xC PUSH0 PUSH1 0x1 PUSH0 SWAP1 SLOAD SWAP1 PUSH2 0x100 EXP SWAP1 DIV PUSH20 0xFFFFFFFFFFFFFFFFFFFFFFFFFFFFFFFFFFFFFFFF AND PUSH20 0xFFFFFFFFFFFFFFFFFFFFFFFFFFFFFFFFFFFFFFFF AND PUSH20 0xFFFFFFFFFFFFFFFFFFFFFFFFFFFFFFFFFFFFFFFF AND DUP2 MSTORE PUSH1 0x20 ADD SWAP1 DUP2 MSTORE PUSH1 0x20 ADD PUSH0 KECCAK256 PUSH0 DUP3 DUP3 SLOAD PUSH2 0x88E SWAP2 SWAP1 PUSH2 0x15C2 JUMP JUMPDEST SWAP3 POP POP DUP2 SWAP1 SSTORE POP JUMPDEST DUP1 PUSH1 0x1 PUSH0 PUSH2 0x100 EXP DUP2 SLOAD DUP2 PUSH20 0xFFFFFFFFFFFFFFFFFFFFFFFFFFFFFFFFFFFFFFFF MUL NOT AND SWAP1 DUP4 PUSH20 0xFFFFFFFFFFFFFFFFFFFFFFFFFFFFFFFFFFFFFFFF AND MUL OR SWAP1 SSTORE POP DUP2 PUSH1 0x2 DUP2 SWAP1 SSTORE POP PUSH1 0xB PUSH1 0x40 MLOAD DUP1 PUSH1 0x40 ADD PUSH1 0x40 MSTORE DUP1 DUP4 PUSH20 0xFFFFFFFFFFFFFFFFFFFFFFFFFFFFFFFFFFFFFFFF AND DUP2 MSTORE PUSH1 0x20 ADD DUP5 DUP2 MSTORE POP SWAP1 DUP1 PUSH1 0x1 DUP2 SLOAD ADD DUP1 DUP3 SSTORE DUP1 SWAP2 POP POP PUSH1 0x1 SWAP1 SUB SWAP1 PUSH0 MSTORE PUSH1 0x20 PUSH0 KECCAK256 SWAP1 PUSH1 0x2 MUL ADD PUSH0 SWAP1 SWAP2 SWAP1 SWAP2 SWAP1 SWAP2 POP PUSH0 DUP3 ADD MLOAD DUP2 PUSH0 ADD PUSH0 PUSH2 0x100 EXP DUP2 SLOAD DUP2 PUSH20 0xFFFFFFFFFFFFFFFFFFFFFFFFFFFFFFFFFFFFFFFF MUL NOT AND SWAP1 DUP4 PUSH20 0xFFFFFFFFFFFFFFFFFFFFFFFFFFFFFFFFFFFFFFFF AND MUL OR SWAP1 SSTORE POP PUSH1 0x20 DUP3 ADD MLOAD DUP2 PUSH1 0x1 ADD SSTORE POP POP DUP2 PUSH1 0xC PUSH0 DUP4 PUSH20 0xFFFFFFFFFFFFFFFFFFFFFFFFFFFFFFFFFFFFFFFF AND PUSH20 0xFFFFFFFFFFFFFFFFFFFFFFFFFFFFFFFFFFFFFFFF AND DUP2 MSTORE PUSH1 0x20 ADD SWAP1 DUP2 MSTORE PUSH1 0x20 ADD PUSH0 KECCAK256 PUSH0 DUP3 DUP3 SLOAD PUSH2 0x9CC SWAP2 SWAP1 PUSH2 0x15C2 JUMP JUMPDEST SWAP3 POP POP DUP2 SWAP1 SSTORE POP DUP2 PUSH1 0xD PUSH0 DUP4 PUSH20 0xFFFFFFFFFFFFFFFFFFFFFFFFFFFFFFFFFFFFFFFF AND PUSH20 0xFFFFFFFFFFFFFFFFFFFFFFFFFFFFFFFFFFFFFFFF AND DUP2 MSTORE PUSH1 0x20 ADD SWAP1 DUP2 MSTORE PUSH1 0x20 ADD PUSH0 KECCAK256 DUP2 SWAP1 SSTORE POP PUSH32 0x155D469211F46E4D9AE974606F0878F9AACC6198BA30A1E6B9C8CF5627352FB5 DUP2 DUP4 PUSH1 0x40 MLOAD PUSH2 0xA46 SWAP3 SWAP2 SWAP1 PUSH2 0x1126 JUMP JUMPDEST PUSH1 0x40 MLOAD DUP1 SWAP2 SUB SWAP1 LOG1 PUSH1 0x7 SLOAD PUSH1 0x4 SLOAD PUSH2 0xA5E SWAP2 SWAP1 PUSH2 0x16A9 JUMP JUMPDEST TIMESTAMP GT ISZERO PUSH2 0xA80 JUMPI PUSH1 0x6 SLOAD PUSH1 0x4 PUSH0 DUP3 DUP3 SLOAD PUSH2 0xA78 SWAP2 SWAP1 PUSH2 0x15C2 JUMP JUMPDEST SWAP3 POP POP DUP2 SWAP1 SSTORE POP JUMPDEST POP POP JUMP JUMPDEST PUSH0 DUP1 SLOAD SWAP1 PUSH2 0x100 EXP SWAP1 DIV PUSH20 0xFFFFFFFFFFFFFFFFFFFFFFFFFFFFFFFFFFFFFFFF AND DUP2 JUMP JUMPDEST PUSH1 0xA PUSH0 SWAP1 SLOAD SWAP1 PUSH2 0x100 EXP SWAP1 DIV PUSH1 0xFF AND PUSH2 0xAF5 JUMPI PUSH1 0x40 MLOAD PUSH32 0x8C379A000000000000000000000000000000000000000000000000000000000 DUP2 MSTORE PUSH1 0x4 ADD PUSH2 0xAEC SWAP1 PUSH2 0x1726 JUMP JUMPDEST PUSH1 0x40 MLOAD DUP1 SWAP2 SUB SWAP1 REVERT JUMPDEST PUSH0 CALLER SWAP1 POP PUSH0 PUSH1 0xC PUSH0 DUP4 PUSH20 0xFFFFFFFFFFFFFFFFFFFFFFFFFFFFFFFFFFFFFFFF AND PUSH20 0xFFFFFFFFFFFFFFFFFFFFFFFFFFFFFFFFFFFFFFFF AND DUP2 MSTORE PUSH1 0x20 ADD SWAP1 DUP2 MSTORE PUSH1 0x20 ADD PUSH0 KECCAK256 SLOAD SWAP1 POP PUSH0 DUP2 GT PUSH2 0xB7C JUMPI PUSH1 0x40 MLOAD PUSH32 0x8C379A000000000000000000000000000000000000000000000000000000000 DUP2 MSTORE PUSH1 0x4 ADD PUSH2 0xB73 SWAP1 PUSH2 0x178E JUMP JUMPDEST PUSH1 0x40 MLOAD DUP1 SWAP2 SUB SWAP1 REVERT JUMPDEST PUSH0 PUSH1 0x64 PUSH1 0x9 SLOAD PUSH1 0x64 PUSH2 0xB8E SWAP2 SWAP1 PUSH2 0x16A9 JUMP JUMPDEST DUP4 PUSH2 0xB99 SWAP2 SWAP1 PUSH2 0x1524 JUMP JUMPDEST PUSH2 0xBA3 SWAP2 SWAP1 PUSH2 0x1592 JUMP JUMPDEST SWAP1 POP DUP3 PUSH20 0xFFFFFFFFFFFFFFFFFFFFFFFFFFFFFFFFFFFFFFFF AND PUSH2 0x8FC DUP3 SWAP1 DUP2 ISZERO MUL SWAP1 PUSH1 0x40 MLOAD PUSH0 PUSH1 0x40 MLOAD DUP1 DUP4 SUB DUP2 DUP6 DUP9 DUP9 CALL SWAP4 POP POP POP POP ISZERO DUP1 ISZERO PUSH2 0xBE8 JUMPI RETURNDATASIZE PUSH0 DUP1 RETURNDATACOPY RETURNDATASIZE PUSH0 REVERT JUMPDEST POP PUSH0 PUSH1 0xC PUSH0 DUP6 PUSH20 0xFFFFFFFFFFFFFFFFFFFFFFFFFFFFFFFFFFFFFFFF AND PUSH20 0xFFFFFFFFFFFFFFFFFFFFFFFFFFFFFFFFFFFFFFFF AND DUP2 MSTORE PUSH1 0x20 ADD SWAP1 DUP2 MSTORE PUSH1 0x20 ADD PUSH0 KECCAK256 DUP2 SWAP1 SSTORE POP POP POP POP JUMP JUMPDEST PUSH1 0xB DUP2 DUP2 SLOAD DUP2 LT PUSH2 0xC3F JUMPI PUSH0 DUP1 REVERT JUMPDEST SWAP1 PUSH0 MSTORE PUSH1 0x20 PUSH0 KECCAK256 SWAP1 PUSH1 0x2 MUL ADD PUSH0 SWAP2 POP SWAP1 POP DUP1 PUSH0 ADD PUSH0 SWAP1 SLOAD SWAP1 PUSH2 0x100 EXP SWAP1 DIV PUSH20 0xFFFFFFFFFFFFFFFFFFFFFFFFFFFFFFFFFFFFFFFF AND SWAP1 DUP1 PUSH1 0x1 ADD SLOAD SWAP1 POP DUP3 JUMP JUMPDEST PUSH1 0x4 SLOAD DUP2 JUMP JUMPDEST PUSH1 0xC PUSH1 0x20 MSTORE DUP1 PUSH0 MSTORE PUSH1 0x40 PUSH0 KECCAK256 PUSH0 SWAP2 POP SWAP1 POP SLOAD DUP2 JUMP JUMPDEST PUSH1 0x3 SLOAD TIMESTAMP LT ISZERO DUP1 ISZERO PUSH2 0xCAC JUMPI POP PUSH1 0x4 SLOAD TIMESTAMP LT JUMPDEST PUSH2 0xCEB JUMPI PUSH1 0x40 MLOAD PUSH32 0x8C379A000000000000000000000000000000000000000000000000000000000 DUP2 MSTORE PUSH1 0x4 ADD PUSH2 0xCE2 SWAP1 PUSH2 0x137B JUMP JUMPDEST PUSH1 0x40 MLOAD DUP1 SWAP2 SUB SWAP1 REVERT JUMPDEST PUSH0 CALLER SWAP1 POP PUSH0 PUSH1 0xD PUSH0 DUP4 PUSH20 0xFFFFFFFFFFFFFFFFFFFFFFFFFFFFFFFFFFFFFFFF AND PUSH20 0xFFFFFFFFFFFFFFFFFFFFFFFFFFFFFFFFFFFFFFFF AND DUP2 MSTORE PUSH1 0x20 ADD SWAP1 DUP2 MSTORE PUSH1 0x20 ADD PUSH0 KECCAK256 SLOAD PUSH1 0xC PUSH0 DUP5 PUSH20 0xFFFFFFFFFFFFFFFFFFFFFFFFFFFFFFFFFFFFFFFF AND PUSH20 0xFFFFFFFFFFFFFFFFFFFFFFFFFFFFFFFFFFFFFFFF AND DUP2 MSTORE PUSH1 0x20 ADD SWAP1 DUP2 MSTORE PUSH1 0x20 ADD PUSH0 KECCAK256 SLOAD PUSH2 0xD76 SWAP2 SWAP1 PUSH2 0x16A9 JUMP JUMPDEST SWAP1 POP DUP1 DUP4 GT ISZERO PUSH2 0xDBB JUMPI PUSH1 0x40 MLOAD PUSH32 0x8C379A000000000000000000000000000000000000000000000000000000000 DUP2 MSTORE PUSH1 0x4 ADD PUSH2 0xDB2 SWAP1 PUSH2 0x1842 JUMP JUMPDEST PUSH1 0x40 MLOAD DUP1 SWAP2 SUB SWAP1 REVERT JUMPDEST DUP3 PUSH1 0xC PUSH0 DUP5 PUSH20 0xFFFFFFFFFFFFFFFFFFFFFFFFFFFFFFFFFFFFFFFF AND PUSH20 0xFFFFFFFFFFFFFFFFFFFFFFFFFFFFFFFFFFFFFFFF AND DUP2 MSTORE PUSH1 0x20 ADD SWAP1 DUP2 MSTORE PUSH1 0x20 ADD PUSH0 KECCAK256 PUSH0 DUP3 DUP3 SLOAD PUSH2 0xE07 SWAP2 SWAP1 PUSH2 0x16A9 JUMP JUMPDEST SWAP3 POP POP DUP2 SWAP1 SSTORE POP DUP2 PUSH20 0xFFFFFFFFFFFFFFFFFFFFFFFFFFFFFFFFFFFFFFFF AND PUSH2 0x8FC DUP5 SWAP1 DUP2 ISZERO MUL SWAP1 PUSH1 0x40 MLOAD PUSH0 PUSH1 0x40 MLOAD DUP1 DUP4 SUB DUP2 DUP6 DUP9 DUP9 CALL SWAP4 POP POP POP POP ISZERO DUP1 ISZERO PUSH2 0xE51 JUMPI RETURNDATASIZE PUSH0 DUP1 RETURNDATACOPY RETURNDATASIZE PUSH0 REVERT JUMPDEST POP POP POP POP JUMP JUMPDEST PUSH1 0x8 SLOAD DUP2 JUMP JUMPDEST PUSH1 0x3 SLOAD DUP2 JUMP JUMPDEST PUSH0 DUP1 PUSH1 0xA PUSH0 SWAP1 SLOAD SWAP1 PUSH2 0x100 EXP SWAP1 DIV PUSH1 0xFF AND PUSH2 0xEB3 JUMPI PUSH1 0x40 MLOAD PUSH32 0x8C379A000000000000000000000000000000000000000000000000000000000 DUP2 MSTORE PUSH1 0x4 ADD PUSH2 0xEAA SWAP1 PUSH2 0x1726 JUMP JUMPDEST PUSH1 0x40 MLOAD DUP1 SWAP2 SUB SWAP1 REVERT JUMPDEST PUSH1 0x1 PUSH0 SWAP1 SLOAD SWAP1 PUSH2 0x100 EXP SWAP1 DIV PUSH20 0xFFFFFFFFFFFFFFFFFFFFFFFFFFFFFFFFFFFFFFFF AND PUSH1 0x2 SLOAD SWAP2 POP SWAP2 POP SWAP1 SWAP2 JUMP JUMPDEST PUSH1 0x2 SLOAD DUP2 JUMP JUMPDEST PUSH1 0x7 SLOAD DUP2 JUMP JUMPDEST PUSH1 0x60 PUSH1 0xB DUP1 SLOAD DUP1 PUSH1 0x20 MUL PUSH1 0x20 ADD PUSH1 0x40 MLOAD SWAP1 DUP2 ADD PUSH1 0x40 MSTORE DUP1 SWAP3 SWAP2 SWAP1 DUP2 DUP2 MSTORE PUSH1 0x20 ADD PUSH0 SWAP1 JUMPDEST DUP3 DUP3 LT ISZERO PUSH2 0xF9D JUMPI DUP4 DUP3 SWAP1 PUSH0 MSTORE PUSH1 0x20 PUSH0 KECCAK256 SWAP1 PUSH1 0x2 MUL ADD PUSH1 0x40 MLOAD DUP1 PUSH1 0x40 ADD PUSH1 0x40 MSTORE SWAP1 DUP2 PUSH0 DUP3 ADD PUSH0 SWAP1 SLOAD SWAP1 PUSH2 0x100 EXP SWAP1 DIV PUSH20 0xFFFFFFFFFFFFFFFFFFFFFFFFFFFFFFFFFFFFFFFF AND PUSH20 0xFFFFFFFFFFFFFFFFFFFFFFFFFFFFFFFFFFFFFFFF AND PUSH20 0xFFFFFFFFFFFFFFFFFFFFFFFFFFFFFFFFFFFFFFFF AND DUP2 MSTORE PUSH1 0x20 ADD PUSH1 0x1 DUP3 ADD SLOAD DUP2 MSTORE POP POP DUP2 MSTORE PUSH1 0x20 ADD SWAP1 PUSH1 0x1 ADD SWAP1 PUSH2 0xF0F JUMP JUMPDEST POP POP POP POP SWAP1 POP SWAP1 JUMP JUMPDEST PUSH1 0x5 SLOAD DUP2 JUMP JUMPDEST PUSH1 0x6 SLOAD DUP2 JUMP JUMPDEST PUSH1 0x1 PUSH0 SWAP1 SLOAD SWAP1 PUSH2 0x100 EXP SWAP1 DIV PUSH20 0xFFFFFFFFFFFFFFFFFFFFFFFFFFFFFFFFFFFFFFFF AND DUP2 JUMP JUMPDEST PUSH1 0x9 SLOAD DUP2 JUMP JUMPDEST PUSH1 0xA PUSH0 SWAP1 SLOAD SWAP1 PUSH2 0x100 EXP SWAP1 DIV PUSH1 0xFF AND DUP2 JUMP JUMPDEST PUSH0 DUP1 REVERT JUMPDEST PUSH0 PUSH20 0xFFFFFFFFFFFFFFFFFFFFFFFFFFFFFFFFFFFFFFFF DUP3 AND SWAP1 POP SWAP2 SWAP1 POP JUMP JUMPDEST PUSH0 PUSH2 0x101C DUP3 PUSH2 0xFF3 JUMP JUMPDEST SWAP1 POP SWAP2 SWAP1 POP JUMP JUMPDEST PUSH2 0x102C DUP2 PUSH2 0x1012 JUMP JUMPDEST DUP2 EQ PUSH2 0x1036 JUMPI PUSH0 DUP1 REVERT JUMPDEST POP JUMP JUMPDEST PUSH0 DUP2 CALLDATALOAD SWAP1 POP PUSH2 0x1047 DUP2 PUSH2 0x1023 JUMP JUMPDEST SWAP3 SWAP2 POP POP JUMP JUMPDEST PUSH0 PUSH1 0x20 DUP3 DUP5 SUB SLT ISZERO PUSH2 0x1062 JUMPI PUSH2 0x1061 PUSH2 0xFEF JUMP JUMPDEST JUMPDEST PUSH0 PUSH2 0x106F DUP5 DUP3 DUP6 ADD PUSH2 0x1039 JUMP JUMPDEST SWAP2 POP POP SWAP3 SWAP2 POP POP JUMP JUMPDEST PUSH0 DUP2 SWAP1 POP SWAP2 SWAP1 POP JUMP JUMPDEST PUSH2 0x108A DUP2 PUSH2 0x1078 JUMP JUMPDEST DUP3 MSTORE POP POP JUMP JUMPDEST PUSH0 PUSH1 0x20 DUP3 ADD SWAP1 POP PUSH2 0x10A3 PUSH0 DUP4 ADD DUP5 PUSH2 0x1081 JUMP JUMPDEST SWAP3 SWAP2 POP POP JUMP JUMPDEST PUSH2 0x10B2 DUP2 PUSH2 0x1078 JUMP JUMPDEST DUP2 EQ PUSH2 0x10BC JUMPI PUSH0 DUP1 REVERT JUMPDEST POP JUMP JUMPDEST PUSH0 DUP2 CALLDATALOAD SWAP1 POP PUSH2 0x10CD DUP2 PUSH2 0x10A9 JUMP JUMPDEST SWAP3 SWAP2 POP POP JUMP JUMPDEST PUSH0 PUSH1 0x20 DUP3 DUP5 SUB SLT ISZERO PUSH2 0x10E8 JUMPI PUSH2 0x10E7 PUSH2 0xFEF JUMP JUMPDEST JUMPDEST PUSH0 PUSH2 0x10F5 DUP5 DUP3 DUP6 ADD PUSH2 0x10BF JUMP JUMPDEST SWAP2 POP POP SWAP3 SWAP2 POP POP JUMP JUMPDEST PUSH2 0x1107 DUP2 PUSH2 0x1012 JUMP JUMPDEST DUP3 MSTORE POP POP JUMP JUMPDEST PUSH0 PUSH1 0x20 DUP3 ADD SWAP1 POP PUSH2 0x1120 PUSH0 DUP4 ADD DUP5 PUSH2 0x10FE JUMP JUMPDEST SWAP3 SWAP2 POP POP JUMP JUMPDEST PUSH0 PUSH1 0x40 DUP3 ADD SWAP1 POP PUSH2 0x1139 PUSH0 DUP4 ADD DUP6 PUSH2 0x10FE JUMP JUMPDEST PUSH2 0x1146 PUSH1 0x20 DUP4 ADD DUP5 PUSH2 0x1081 JUMP JUMPDEST SWAP4 SWAP3 POP POP POP JUMP JUMPDEST PUSH0 DUP2 MLOAD SWAP1 POP SWAP2 SWAP1 POP JUMP JUMPDEST PUSH0 DUP3 DUP3 MSTORE PUSH1 0x20 DUP3 ADD SWAP1 POP SWAP3 SWAP2 POP POP JUMP JUMPDEST PUSH0 DUP2 SWAP1 POP PUSH1 0x20 DUP3 ADD SWAP1 POP SWAP2 SWAP1 POP JUMP JUMPDEST PUSH2 0x117F DUP2 PUSH2 0x1012 JUMP JUMPDEST DUP3 MSTORE POP POP JUMP JUMPDEST PUSH2 0x118E DUP2 PUSH2 0x1078 JUMP JUMPDEST DUP3 MSTORE POP POP JUMP JUMPDEST PUSH1 0x40 DUP3 ADD PUSH0 DUP3 ADD MLOAD PUSH2 0x11A8 PUSH0 DUP6 ADD DUP3 PUSH2 0x1176 JUMP JUMPDEST POP PUSH1 0x20 DUP3 ADD MLOAD PUSH2 0x11BB PUSH1 0x20 DUP6 ADD DUP3 PUSH2 0x1185 JUMP JUMPDEST POP POP POP POP JUMP JUMPDEST PUSH0 PUSH2 0x11CC DUP4 DUP4 PUSH2 0x1194 JUMP JUMPDEST PUSH1 0x40 DUP4 ADD SWAP1 POP SWAP3 SWAP2 POP POP JUMP JUMPDEST PUSH0 PUSH1 0x20 DUP3 ADD SWAP1 POP SWAP2 SWAP1 POP JUMP JUMPDEST PUSH0 PUSH2 0x11EE DUP3 PUSH2 0x114D JUMP JUMPDEST PUSH2 0x11F8 DUP2 DUP6 PUSH2 0x1157 JUMP JUMPDEST SWAP4 POP PUSH2 0x1203 DUP4 PUSH2 0x1167 JUMP JUMPDEST DUP1 PUSH0 JUMPDEST DUP4 DUP2 LT ISZERO PUSH2 0x1233 JUMPI DUP2 MLOAD PUSH2 0x121A DUP9 DUP3 PUSH2 0x11C1 JUMP JUMPDEST SWAP8 POP PUSH2 0x1225 DUP4 PUSH2 0x11D8 JUMP JUMPDEST SWAP3 POP POP PUSH1 0x1 DUP2 ADD SWAP1 POP PUSH2 0x1206 JUMP JUMPDEST POP DUP6 SWAP4 POP POP POP POP SWAP3 SWAP2 POP POP JUMP JUMPDEST PUSH0 PUSH1 0x20 DUP3 ADD SWAP1 POP DUP2 DUP2 SUB PUSH0 DUP4 ADD MSTORE PUSH2 0x1258 DUP2 DUP5 PUSH2 0x11E4 JUMP JUMPDEST SWAP1 POP SWAP3 SWAP2 POP POP JUMP JUMPDEST PUSH0 DUP2 ISZERO ISZERO SWAP1 POP SWAP2 SWAP1 POP JUMP JUMPDEST PUSH2 0x1274 DUP2 PUSH2 0x1260 JUMP JUMPDEST DUP3 MSTORE POP POP JUMP JUMPDEST PUSH0 PUSH1 0x20 DUP3 ADD SWAP1 POP PUSH2 0x128D PUSH0 DUP4 ADD DUP5 PUSH2 0x126B JUMP JUMPDEST SWAP3 SWAP2 POP POP JUMP JUMPDEST PUSH0 DUP3 DUP3 MSTORE PUSH1 0x20 DUP3 ADD SWAP1 POP SWAP3 SWAP2 POP POP JUMP JUMPDEST PUSH32 0x536F6C6F20656C2073756261737461646F7220707565646520656A6563757461 PUSH0 DUP3 ADD MSTORE PUSH32 0x7220657374612066756E63696F6E000000000000000000000000000000000000 PUSH1 0x20 DUP3 ADD MSTORE POP JUMP JUMPDEST PUSH0 PUSH2 0x12FD PUSH1 0x2E DUP4 PUSH2 0x1293 JUMP JUMPDEST SWAP2 POP PUSH2 0x1308 DUP3 PUSH2 0x12A3 JUMP JUMPDEST PUSH1 0x40 DUP3 ADD SWAP1 POP SWAP2 SWAP1 POP JUMP JUMPDEST PUSH0 PUSH1 0x20 DUP3 ADD SWAP1 POP DUP2 DUP2 SUB PUSH0 DUP4 ADD MSTORE PUSH2 0x132A DUP2 PUSH2 0x12F1 JUMP JUMPDEST SWAP1 POP SWAP2 SWAP1 POP JUMP JUMPDEST PUSH32 0x4C612073756261737461206E6F20657374612061637469766100000000000000 PUSH0 DUP3 ADD MSTORE POP JUMP JUMPDEST PUSH0 PUSH2 0x1365 PUSH1 0x19 DUP4 PUSH2 0x1293 JUMP JUMPDEST SWAP2 POP PUSH2 0x1370 DUP3 PUSH2 0x1331 JUMP JUMPDEST PUSH1 0x20 DUP3 ADD SWAP1 POP SWAP2 SWAP1 POP JUMP JUMPDEST PUSH0 PUSH1 0x20 DUP3 ADD SWAP1 POP DUP2 DUP2 SUB PUSH0 DUP4 ADD MSTORE PUSH2 0x1392 DUP2 PUSH2 0x1359 JUMP JUMPDEST SWAP1 POP SWAP2 SWAP1 POP JUMP JUMPDEST PUSH32 0x4C6120737562617374612061756E206573746120656E20637572736F00000000 PUSH0 DUP3 ADD MSTORE POP JUMP JUMPDEST PUSH0 PUSH2 0x13CD PUSH1 0x1C DUP4 PUSH2 0x1293 JUMP JUMPDEST SWAP2 POP PUSH2 0x13D8 DUP3 PUSH2 0x1399 JUMP JUMPDEST PUSH1 0x20 DUP3 ADD SWAP1 POP SWAP2 SWAP1 POP JUMP JUMPDEST PUSH0 PUSH1 0x20 DUP3 ADD SWAP1 POP DUP2 DUP2 SUB PUSH0 DUP4 ADD MSTORE PUSH2 0x13FA DUP2 PUSH2 0x13C1 JUMP JUMPDEST SWAP1 POP SWAP2 SWAP1 POP JUMP JUMPDEST PUSH32 0x4C6120737562617374612061756E206E6F20686120696E69636961646F000000 PUSH0 DUP3 ADD MSTORE POP JUMP JUMPDEST PUSH0 PUSH2 0x1435 PUSH1 0x1D DUP4 PUSH2 0x1293 JUMP JUMPDEST SWAP2 POP PUSH2 0x1440 DUP3 PUSH2 0x1401 JUMP JUMPDEST PUSH1 0x20 DUP3 ADD SWAP1 POP SWAP2 SWAP1 POP JUMP JUMPDEST PUSH0 PUSH1 0x20 DUP3 ADD SWAP1 POP DUP2 DUP2 SUB PUSH0 DUP4 ADD MSTORE PUSH2 0x1462 DUP2 PUSH2 0x1429 JUMP JUMPDEST SWAP1 POP SWAP2 SWAP1 POP JUMP JUMPDEST PUSH32 0x4C61206F666572746120646562652073657220616C206D656E6F7320656C206D PUSH0 DUP3 ADD MSTORE PUSH32 0x696E696D6F20646520302E303035204554480000000000000000000000000000 PUSH1 0x20 DUP3 ADD MSTORE POP JUMP JUMPDEST PUSH0 PUSH2 0x14C3 PUSH1 0x32 DUP4 PUSH2 0x1293 JUMP JUMPDEST SWAP2 POP PUSH2 0x14CE DUP3 PUSH2 0x1469 JUMP JUMPDEST PUSH1 0x40 DUP3 ADD SWAP1 POP SWAP2 SWAP1 POP JUMP JUMPDEST PUSH0 PUSH1 0x20 DUP3 ADD SWAP1 POP DUP2 DUP2 SUB PUSH0 DUP4 ADD MSTORE PUSH2 0x14F0 DUP2 PUSH2 0x14B7 JUMP JUMPDEST SWAP1 POP SWAP2 SWAP1 POP JUMP JUMPDEST PUSH32 0x4E487B7100000000000000000000000000000000000000000000000000000000 PUSH0 MSTORE PUSH1 0x11 PUSH1 0x4 MSTORE PUSH1 0x24 PUSH0 REVERT JUMPDEST PUSH0 PUSH2 0x152E DUP3 PUSH2 0x1078 JUMP JUMPDEST SWAP2 POP PUSH2 0x1539 DUP4 PUSH2 0x1078 JUMP JUMPDEST SWAP3 POP DUP3 DUP3 MUL PUSH2 0x1547 DUP2 PUSH2 0x1078 JUMP JUMPDEST SWAP2 POP DUP3 DUP3 DIV DUP5 EQ DUP4 ISZERO OR PUSH2 0x155E JUMPI PUSH2 0x155D PUSH2 0x14F7 JUMP JUMPDEST JUMPDEST POP SWAP3 SWAP2 POP POP JUMP JUMPDEST PUSH32 0x4E487B7100000000000000000000000000000000000000000000000000000000 PUSH0 MSTORE PUSH1 0x12 PUSH1 0x4 MSTORE PUSH1 0x24 PUSH0 REVERT JUMPDEST PUSH0 PUSH2 0x159C DUP3 PUSH2 0x1078 JUMP JUMPDEST SWAP2 POP PUSH2 0x15A7 DUP4 PUSH2 0x1078 JUMP JUMPDEST SWAP3 POP DUP3 PUSH2 0x15B7 JUMPI PUSH2 0x15B6 PUSH2 0x1565 JUMP JUMPDEST JUMPDEST DUP3 DUP3 DIV SWAP1 POP SWAP3 SWAP2 POP POP JUMP JUMPDEST PUSH0 PUSH2 0x15CC DUP3 PUSH2 0x1078 JUMP JUMPDEST SWAP2 POP PUSH2 0x15D7 DUP4 PUSH2 0x1078 JUMP JUMPDEST SWAP3 POP DUP3 DUP3 ADD SWAP1 POP DUP1 DUP3 GT ISZERO PUSH2 0x15EF JUMPI PUSH2 0x15EE PUSH2 0x14F7 JUMP JUMPDEST JUMPDEST SWAP3 SWAP2 POP POP JUMP JUMPDEST PUSH32 0x4C61206F666572746120646562652073657220616C206D656E6F7320756E2035 PUSH0 DUP3 ADD MSTORE PUSH32 0x25206D61796F7220717565206C61206D656A6F72206F66657274612061637475 PUSH1 0x20 DUP3 ADD MSTORE PUSH32 0x616C000000000000000000000000000000000000000000000000000000000000 PUSH1 0x40 DUP3 ADD MSTORE POP JUMP JUMPDEST PUSH0 PUSH2 0x1675 PUSH1 0x42 DUP4 PUSH2 0x1293 JUMP JUMPDEST SWAP2 POP PUSH2 0x1680 DUP3 PUSH2 0x15F5 JUMP JUMPDEST PUSH1 0x60 DUP3 ADD SWAP1 POP SWAP2 SWAP1 POP JUMP JUMPDEST PUSH0 PUSH1 0x20 DUP3 ADD SWAP1 POP DUP2 DUP2 SUB PUSH0 DUP4 ADD MSTORE PUSH2 0x16A2 DUP2 PUSH2 0x1669 JUMP JUMPDEST SWAP1 POP SWAP2 SWAP1 POP JUMP JUMPDEST PUSH0 PUSH2 0x16B3 DUP3 PUSH2 0x1078 JUMP JUMPDEST SWAP2 POP PUSH2 0x16BE DUP4 PUSH2 0x1078 JUMP JUMPDEST SWAP3 POP DUP3 DUP3 SUB SWAP1 POP DUP2 DUP2 GT ISZERO PUSH2 0x16D6 JUMPI PUSH2 0x16D5 PUSH2 0x14F7 JUMP JUMPDEST JUMPDEST SWAP3 SWAP2 POP POP JUMP JUMPDEST PUSH32 0x4C6120737562617374612061756E206E6F2068612066696E616C697A61646F00 PUSH0 DUP3 ADD MSTORE POP JUMP JUMPDEST PUSH0 PUSH2 0x1710 PUSH1 0x1F DUP4 PUSH2 0x1293 JUMP JUMPDEST SWAP2 POP PUSH2 0x171B DUP3 PUSH2 0x16DC JUMP JUMPDEST PUSH1 0x20 DUP3 ADD SWAP1 POP SWAP2 SWAP1 POP JUMP JUMPDEST PUSH0 PUSH1 0x20 DUP3 ADD SWAP1 POP DUP2 DUP2 SUB PUSH0 DUP4 ADD MSTORE PUSH2 0x173D DUP2 PUSH2 0x1704 JUMP JUMPDEST SWAP1 POP SWAP2 SWAP1 POP JUMP JUMPDEST PUSH32 0x4E6F207469656E6573206465706F7369746F2070617261207265636C616D6172 PUSH0 DUP3 ADD MSTORE POP JUMP JUMPDEST PUSH0 PUSH2 0x1778 PUSH1 0x20 DUP4 PUSH2 0x1293 JUMP JUMPDEST SWAP2 POP PUSH2 0x1783 DUP3 PUSH2 0x1744 JUMP JUMPDEST PUSH1 0x20 DUP3 ADD SWAP1 POP SWAP2 SWAP1 POP JUMP JUMPDEST PUSH0 PUSH1 0x20 DUP3 ADD SWAP1 POP DUP2 DUP2 SUB PUSH0 DUP4 ADD MSTORE PUSH2 0x17A5 DUP2 PUSH2 0x176C JUMP JUMPDEST SWAP1 POP SWAP2 SWAP1 POP JUMP JUMPDEST PUSH32 0x4D6F6E746F206D61796F7220616C206465706F7369746F20646973706F6E6962 PUSH0 DUP3 ADD MSTORE PUSH32 0x6C6520706F7220656E63696D6120646520747520756C74696D61206F66657274 PUSH1 0x20 DUP3 ADD MSTORE PUSH32 0x6100000000000000000000000000000000000000000000000000000000000000 PUSH1 0x40 DUP3 ADD MSTORE POP JUMP JUMPDEST PUSH0 PUSH2 0x182C PUSH1 0x41 DUP4 PUSH2 0x1293 JUMP JUMPDEST SWAP2 POP PUSH2 0x1837 DUP3 PUSH2 0x17AC JUMP JUMPDEST PUSH1 0x60 DUP3 ADD SWAP1 POP SWAP2 SWAP1 POP JUMP JUMPDEST PUSH0 PUSH1 0x20 DUP3 ADD SWAP1 POP DUP2 DUP2 SUB PUSH0 DUP4 ADD MSTORE PUSH2 0x1859 DUP2 PUSH2 0x1820 JUMP JUMPDEST SWAP1 POP SWAP2 SWAP1 POP JUMP INVALID LOG2 PUSH5 0x6970667358 0x22 SLT KECCAK256 0xA8 0xAE 0xB5 SHL PREVRANDAO PUSH18 0x567BFF9748F286F410DC3CE19315B6FD19F8 BLOBHASH RETURNDATACOPY 0xF7 LOG3 0x23 PUSH16 0xE16064736F6C63430008190033000000 "
				},
				"gasEstimates": {
					"creation": {
						"codeDepositCost": "1258800",
						"executionCost": "infinite",
						"totalCost": "infinite"
					},
					"external": {
						"depositos(address)": "2869",
						"devolverDepositos()": "infinite",
						"extensionTiempo()": "2469",
						"finTiempo()": "2470",
						"finalizada()": "2576",
						"finalizarSubasta()": "infinite",
						"inicioTiempo()": "2448",
						"mejorOferta()": "2492",
						"mejorOfertante()": "2574",
						"mostrarGanador()": "6925",
						"mostrarOfertas()": "infinite",
						"ofertaMinima()": "2447",
						"ofertar(uint256)": "infinite",
						"ofertas(uint256)": "infinite",
						"porcentajeComision()": "2513",
						"porcentajeIncrementoMinimo()": "2536",
						"previofinTiempo()": "2514",
						"reembolsoParcial(uint256)": "infinite",
						"subastador()": "2595",
						"ultimaOferta(address)": "2848"
					}
				},
				"methodIdentifiers": {
					"depositos(address)": "664e62b9",
					"devolverDepositos()": "5298a3c4",
					"extensionTiempo()": "f292b25d",
					"finTiempo()": "6401f67f",
					"finalizada()": "ffbfc189",
					"finalizarSubasta()": "0851eac2",
					"inicioTiempo()": "723a978d",
					"mejorOferta()": "acfc9f98",
					"mejorOfertante()": "f4442c65",
					"mostrarGanador()": "753dcaeb",
					"mostrarOfertas()": "c442a99f",
					"ofertaMinima()": "e0107077",
					"ofertar(uint256)": "3c5044c1",
					"ofertas(uint256)": "56afff7c",
					"porcentajeComision()": "fbc08016",
					"porcentajeIncrementoMinimo()": "6b595fbb",
					"previofinTiempo()": "b04f21fc",
					"reembolsoParcial(uint256)": "69ecf131",
					"subastador()": "3dfa138d",
					"ultimaOferta(address)": "1c33274f"
				}
			},
			"storageLayout": {
				"storage": [
					{
						"astId": 3,
						"contract": "ETHKIPU/SubastaModulo2.sol:SubastaFinal",
						"label": "subastador",
						"offset": 0,
						"slot": "0",
						"type": "t_address"
					},
					{
						"astId": 5,
						"contract": "ETHKIPU/SubastaModulo2.sol:SubastaFinal",
						"label": "mejorOfertante",
						"offset": 0,
						"slot": "1",
						"type": "t_address"
					},
					{
						"astId": 7,
						"contract": "ETHKIPU/SubastaModulo2.sol:SubastaFinal",
						"label": "mejorOferta",
						"offset": 0,
						"slot": "2",
						"type": "t_uint256"
					},
					{
						"astId": 10,
						"contract": "ETHKIPU/SubastaModulo2.sol:SubastaFinal",
						"label": "inicioTiempo",
						"offset": 0,
						"slot": "3",
						"type": "t_uint256"
					},
					{
						"astId": 22,
						"contract": "ETHKIPU/SubastaModulo2.sol:SubastaFinal",
						"label": "finTiempo",
						"offset": 0,
						"slot": "4",
						"type": "t_uint256"
					},
					{
						"astId": 25,
						"contract": "ETHKIPU/SubastaModulo2.sol:SubastaFinal",
						"label": "ofertaMinima",
						"offset": 0,
						"slot": "5",
						"type": "t_uint256"
					},
					{
						"astId": 30,
						"contract": "ETHKIPU/SubastaModulo2.sol:SubastaFinal",
						"label": "extensionTiempo",
						"offset": 0,
						"slot": "6",
						"type": "t_uint256"
					},
					{
						"astId": 35,
						"contract": "ETHKIPU/SubastaModulo2.sol:SubastaFinal",
						"label": "previofinTiempo",
						"offset": 0,
						"slot": "7",
						"type": "t_uint256"
					},
					{
						"astId": 38,
						"contract": "ETHKIPU/SubastaModulo2.sol:SubastaFinal",
						"label": "porcentajeIncrementoMinimo",
						"offset": 0,
						"slot": "8",
						"type": "t_uint256"
					},
					{
						"astId": 41,
						"contract": "ETHKIPU/SubastaModulo2.sol:SubastaFinal",
						"label": "porcentajeComision",
						"offset": 0,
						"slot": "9",
						"type": "t_uint256"
					},
					{
						"astId": 44,
						"contract": "ETHKIPU/SubastaModulo2.sol:SubastaFinal",
						"label": "finalizada",
						"offset": 0,
						"slot": "10",
						"type": "t_bool"
					},
					{
						"astId": 53,
						"contract": "ETHKIPU/SubastaModulo2.sol:SubastaFinal",
						"label": "ofertas",
						"offset": 0,
						"slot": "11",
						"type": "t_array(t_struct(Oferta)49_storage)dyn_storage"
					},
					{
						"astId": 57,
						"contract": "ETHKIPU/SubastaModulo2.sol:SubastaFinal",
						"label": "depositos",
						"offset": 0,
						"slot": "12",
						"type": "t_mapping(t_address,t_uint256)"
					},
					{
						"astId": 61,
						"contract": "ETHKIPU/SubastaModulo2.sol:SubastaFinal",
						"label": "ultimaOferta",
						"offset": 0,
						"slot": "13",
						"type": "t_mapping(t_address,t_uint256)"
					}
				],
				"types": {
					"t_address": {
						"encoding": "inplace",
						"label": "address",
						"numberOfBytes": "20"
					},
					"t_array(t_struct(Oferta)49_storage)dyn_storage": {
						"base": "t_struct(Oferta)49_storage",
						"encoding": "dynamic_array",
						"label": "struct SubastaFinal.Oferta[]",
						"numberOfBytes": "32"
					},
					"t_bool": {
						"encoding": "inplace",
						"label": "bool",
						"numberOfBytes": "1"
					},
					"t_mapping(t_address,t_uint256)": {
						"encoding": "mapping",
						"key": "t_address",
						"label": "mapping(address => uint256)",
						"numberOfBytes": "32",
						"value": "t_uint256"
					},
					"t_struct(Oferta)49_storage": {
						"encoding": "inplace",
						"label": "struct SubastaFinal.Oferta",
						"members": [
							{
								"astId": 46,
								"contract": "ETHKIPU/SubastaModulo2.sol:SubastaFinal",
								"label": "ofertante",
								"offset": 0,
								"slot": "0",
								"type": "t_address"
							},
							{
								"astId": 48,
								"contract": "ETHKIPU/SubastaModulo2.sol:SubastaFinal",
								"label": "monto",
								"offset": 0,
								"slot": "1",
								"type": "t_uint256"
							}
						],
						"numberOfBytes": "64"
					},
					"t_uint256": {
						"encoding": "inplace",
						"label": "uint256",
						"numberOfBytes": "32"
					}
				}
			},
			"userdoc": {
				"kind": "user",
				"methods": {},
				"version": 1
			}
		}
	}
}