{
	"ETHKIPU/Bid.sol": {
		"BidSC": {
			"abi": [
				{
					"inputs": [
						{
							"internalType": "uint256",
							"name": "_durationInSeconds",
							"type": "uint256"
						}
					],
					"stateMutability": "nonpayable",
					"type": "constructor"
				},
				{
					"inputs": [],
					"name": "makeBid",
					"outputs": [],
					"stateMutability": "payable",
					"type": "function"
				}
			],
			"devdoc": {
				"kind": "dev",
				"methods": {},
				"version": 1
			},
			"evm": {
				"assembly": "    /* \"ETHKIPU/Bid.sol\":74:618  contract BidSC {... */\n  mstore(0x40, 0x80)\n    /* \"ETHKIPU/Bid.sol\":175:289  constructor (uint256 _durationInSeconds) {... */\n  callvalue\n  dup1\n  iszero\n  tag_1\n  jumpi\n  0x00\n  dup1\n  revert\ntag_1:\n  pop\n  mload(0x40)\n  sub(codesize, bytecodeSize)\n  dup1\n  bytecodeSize\n  dup4\n  codecopy\n  dup2\n  dup2\n  add\n  0x40\n  mstore\n  dup2\n  add\n  swap1\n  tag_2\n  swap2\n  swap1\n  tag_3\n  jump\t// in\ntag_2:\n    /* \"ETHKIPU/Bid.sol\":263:281  _durationInSeconds */\n  dup1\n    /* \"ETHKIPU/Bid.sol\":245:260  block.timestamp */\n  timestamp\n    /* \"ETHKIPU/Bid.sol\":245:281  block.timestamp + _durationInSeconds */\n  tag_6\n  swap2\n  swap1\n  tag_7\n  jump\t// in\ntag_6:\n    /* \"ETHKIPU/Bid.sol\":227:242  finishTimestamp */\n  0x00\n    /* \"ETHKIPU/Bid.sol\":227:281  finishTimestamp = block.timestamp + _durationInSeconds */\n  dup2\n  swap1\n  sstore\n  pop\n    /* \"ETHKIPU/Bid.sol\":175:289  constructor (uint256 _durationInSeconds) {... */\n  pop\n    /* \"ETHKIPU/Bid.sol\":74:618  contract BidSC {... */\n  jump(tag_8)\n    /* \"#utility.yul\":88:205   */\ntag_10:\n    /* \"#utility.yul\":197:198   */\n  0x00\n    /* \"#utility.yul\":194:195   */\n  dup1\n    /* \"#utility.yul\":187:199   */\n  revert\n    /* \"#utility.yul\":334:411   */\ntag_12:\n    /* \"#utility.yul\":371:378   */\n  0x00\n    /* \"#utility.yul\":400:405   */\n  dup2\n    /* \"#utility.yul\":389:405   */\n  swap1\n  pop\n    /* \"#utility.yul\":334:411   */\n  swap2\n  swap1\n  pop\n  jump\t// out\n    /* \"#utility.yul\":417:539   */\ntag_13:\n    /* \"#utility.yul\":490:514   */\n  tag_22\n    /* \"#utility.yul\":508:513   */\n  dup2\n    /* \"#utility.yul\":490:514   */\n  tag_12\n  jump\t// in\ntag_22:\n    /* \"#utility.yul\":483:488   */\n  dup2\n    /* \"#utility.yul\":480:515   */\n  eq\n    /* \"#utility.yul\":470:533   */\n  tag_23\n  jumpi\n    /* \"#utility.yul\":529:530   */\n  0x00\n    /* \"#utility.yul\":526:527   */\n  dup1\n    /* \"#utility.yul\":519:531   */\n  revert\n    /* \"#utility.yul\":470:533   */\ntag_23:\n    /* \"#utility.yul\":417:539   */\n  pop\n  jump\t// out\n    /* \"#utility.yul\":545:688   */\ntag_14:\n    /* \"#utility.yul\":602:607   */\n  0x00\n    /* \"#utility.yul\":633:639   */\n  dup2\n    /* \"#utility.yul\":627:640   */\n  mload\n    /* \"#utility.yul\":618:640   */\n  swap1\n  pop\n    /* \"#utility.yul\":649:682   */\n  tag_25\n    /* \"#utility.yul\":676:681   */\n  dup2\n    /* \"#utility.yul\":649:682   */\n  tag_13\n  jump\t// in\ntag_25:\n    /* \"#utility.yul\":545:688   */\n  swap3\n  swap2\n  pop\n  pop\n  jump\t// out\n    /* \"#utility.yul\":694:1045   */\ntag_3:\n    /* \"#utility.yul\":764:770   */\n  0x00\n    /* \"#utility.yul\":813:815   */\n  0x20\n    /* \"#utility.yul\":801:810   */\n  dup3\n    /* \"#utility.yul\":792:799   */\n  dup5\n    /* \"#utility.yul\":788:811   */\n  sub\n    /* \"#utility.yul\":784:816   */\n  slt\n    /* \"#utility.yul\":781:900   */\n  iszero\n  tag_27\n  jumpi\n    /* \"#utility.yul\":819:898   */\n  tag_28\n  tag_10\n  jump\t// in\ntag_28:\n    /* \"#utility.yul\":781:900   */\ntag_27:\n    /* \"#utility.yul\":939:940   */\n  0x00\n    /* \"#utility.yul\":964:1028   */\n  tag_29\n    /* \"#utility.yul\":1020:1027   */\n  dup5\n    /* \"#utility.yul\":1011:1017   */\n  dup3\n    /* \"#utility.yul\":1000:1009   */\n  dup6\n    /* \"#utility.yul\":996:1018   */\n  add\n    /* \"#utility.yul\":964:1028   */\n  tag_14\n  jump\t// in\ntag_29:\n    /* \"#utility.yul\":954:1028   */\n  swap2\n  pop\n    /* \"#utility.yul\":910:1038   */\n  pop\n    /* \"#utility.yul\":694:1045   */\n  swap3\n  swap2\n  pop\n  pop\n  jump\t// out\n    /* \"#utility.yul\":1051:1231   */\ntag_15:\n    /* \"#utility.yul\":1099:1176   */\n  0x4e487b7100000000000000000000000000000000000000000000000000000000\n    /* \"#utility.yul\":1096:1097   */\n  0x00\n    /* \"#utility.yul\":1089:1177   */\n  mstore\n    /* \"#utility.yul\":1196:1200   */\n  0x11\n    /* \"#utility.yul\":1193:1194   */\n  0x04\n    /* \"#utility.yul\":1186:1201   */\n  mstore\n    /* \"#utility.yul\":1220:1224   */\n  0x24\n    /* \"#utility.yul\":1217:1218   */\n  0x00\n    /* \"#utility.yul\":1210:1225   */\n  revert\n    /* \"#utility.yul\":1237:1428   */\ntag_7:\n    /* \"#utility.yul\":1277:1280   */\n  0x00\n    /* \"#utility.yul\":1296:1316   */\n  tag_32\n    /* \"#utility.yul\":1314:1315   */\n  dup3\n    /* \"#utility.yul\":1296:1316   */\n  tag_12\n  jump\t// in\ntag_32:\n    /* \"#utility.yul\":1291:1316   */\n  swap2\n  pop\n    /* \"#utility.yul\":1330:1350   */\n  tag_33\n    /* \"#utility.yul\":1348:1349   */\n  dup4\n    /* \"#utility.yul\":1330:1350   */\n  tag_12\n  jump\t// in\ntag_33:\n    /* \"#utility.yul\":1325:1350   */\n  swap3\n  pop\n    /* \"#utility.yul\":1373:1374   */\n  dup3\n    /* \"#utility.yul\":1370:1371   */\n  dup3\n    /* \"#utility.yul\":1366:1375   */\n  add\n    /* \"#utility.yul\":1359:1375   */\n  swap1\n  pop\n    /* \"#utility.yul\":1394:1397   */\n  dup1\n    /* \"#utility.yul\":1391:1392   */\n  dup3\n    /* \"#utility.yul\":1388:1398   */\n  gt\n    /* \"#utility.yul\":1385:1421   */\n  iszero\n  tag_34\n  jumpi\n    /* \"#utility.yul\":1401:1419   */\n  tag_35\n  tag_15\n  jump\t// in\ntag_35:\n    /* \"#utility.yul\":1385:1421   */\ntag_34:\n    /* \"#utility.yul\":1237:1428   */\n  swap3\n  swap2\n  pop\n  pop\n  jump\t// out\n    /* \"ETHKIPU/Bid.sol\":74:618  contract BidSC {... */\ntag_8:\n  dataSize(sub_0)\n  dup1\n  dataOffset(sub_0)\n  0x00\n  codecopy\n  0x00\n  return\nstop\n\nsub_0: assembly {\n        /* \"ETHKIPU/Bid.sol\":74:618  contract BidSC {... */\n      mstore(0x40, 0x80)\n      jumpi(tag_1, lt(calldatasize, 0x04))\n      shr(0xe0, calldataload(0x00))\n      dup1\n      0xf30e3658\n      eq\n      tag_2\n      jumpi\n    tag_1:\n      0x00\n      dup1\n      revert\n        /* \"ETHKIPU/Bid.sol\":297:609  function makeBid() external payable{... */\n    tag_2:\n      tag_3\n      tag_4\n      jump\t// in\n    tag_3:\n      stop\n    tag_4:\n        /* \"ETHKIPU/Bid.sol\":369:384  finishTimestamp */\n      sload(0x00)\n        /* \"ETHKIPU/Bid.sol\":351:366  block.timestamp */\n      timestamp\n        /* \"ETHKIPU/Bid.sol\":351:384  block.timestamp < finishTimestamp */\n      lt\n        /* \"ETHKIPU/Bid.sol\":343:405  require(block.timestamp < finishTimestamp, \"The BID finished\") */\n      tag_6\n      jumpi\n      mload(0x40)\n      0x08c379a000000000000000000000000000000000000000000000000000000000\n      dup2\n      mstore\n      0x04\n      add\n      tag_7\n      swap1\n      tag_8\n      jump\t// in\n    tag_7:\n      mload(0x40)\n      dup1\n      swap2\n      sub\n      swap1\n      revert\n    tag_6:\n        /* \"ETHKIPU/Bid.sol\":434:440  maxBid */\n      sload(0x01)\n        /* \"ETHKIPU/Bid.sol\":422:431  msg.value */\n      callvalue\n        /* \"ETHKIPU/Bid.sol\":422:440  msg.value > maxBid */\n      gt\n        /* \"ETHKIPU/Bid.sol\":418:602  if (msg.value > maxBid) {... */\n      iszero\n      tag_9\n      jumpi\n        /* \"ETHKIPU/Bid.sol\":466:475  msg.value */\n      callvalue\n        /* \"ETHKIPU/Bid.sol\":457:463  maxBid */\n      0x01\n        /* \"ETHKIPU/Bid.sol\":457:475  maxBid = msg.value */\n      dup2\n      swap1\n      sstore\n      pop\n        /* \"ETHKIPU/Bid.sol\":502:512  msg.sender */\n      caller\n        /* \"ETHKIPU/Bid.sol\":490:499  maxBidder */\n      0x02\n      0x00\n        /* \"ETHKIPU/Bid.sol\":490:512  maxBidder = msg.sender */\n      0x0100\n      exp\n      dup2\n      sload\n      dup2\n      0xffffffffffffffffffffffffffffffffffffffff\n      mul\n      not\n      and\n      swap1\n      dup4\n      0xffffffffffffffffffffffffffffffffffffffff\n      and\n      mul\n      or\n      swap1\n      sstore\n      pop\n        /* \"ETHKIPU/Bid.sol\":418:602  if (msg.value > maxBid) {... */\n      jump(tag_10)\n    tag_9:\n        /* \"ETHKIPU/Bid.sol\":558:590  revert (\"The BID is not enough\") */\n      mload(0x40)\n      0x08c379a000000000000000000000000000000000000000000000000000000000\n      dup2\n      mstore\n      0x04\n      add\n      tag_11\n      swap1\n      tag_12\n      jump\t// in\n    tag_11:\n      mload(0x40)\n      dup1\n      swap2\n      sub\n      swap1\n      revert\n        /* \"ETHKIPU/Bid.sol\":418:602  if (msg.value > maxBid) {... */\n    tag_10:\n        /* \"ETHKIPU/Bid.sol\":297:609  function makeBid() external payable{... */\n      jump\t// out\n        /* \"#utility.yul\":7:176   */\n    tag_13:\n        /* \"#utility.yul\":91:102   */\n      0x00\n        /* \"#utility.yul\":125:131   */\n      dup3\n        /* \"#utility.yul\":120:123   */\n      dup3\n        /* \"#utility.yul\":113:132   */\n      mstore\n        /* \"#utility.yul\":165:169   */\n      0x20\n        /* \"#utility.yul\":160:163   */\n      dup3\n        /* \"#utility.yul\":156:170   */\n      add\n        /* \"#utility.yul\":141:170   */\n      swap1\n      pop\n        /* \"#utility.yul\":7:176   */\n      swap3\n      swap2\n      pop\n      pop\n      jump\t// out\n        /* \"#utility.yul\":182:348   */\n    tag_14:\n        /* \"#utility.yul\":322:340   */\n      0x546865204249442066696e697368656400000000000000000000000000000000\n        /* \"#utility.yul\":318:319   */\n      0x00\n        /* \"#utility.yul\":310:316   */\n      dup3\n        /* \"#utility.yul\":306:320   */\n      add\n        /* \"#utility.yul\":299:341   */\n      mstore\n        /* \"#utility.yul\":182:348   */\n      pop\n      jump\t// out\n        /* \"#utility.yul\":354:720   */\n    tag_15:\n        /* \"#utility.yul\":496:499   */\n      0x00\n        /* \"#utility.yul\":517:584   */\n      tag_22\n        /* \"#utility.yul\":581:583   */\n      0x10\n        /* \"#utility.yul\":576:579   */\n      dup4\n        /* \"#utility.yul\":517:584   */\n      tag_13\n      jump\t// in\n    tag_22:\n        /* \"#utility.yul\":510:584   */\n      swap2\n      pop\n        /* \"#utility.yul\":593:686   */\n      tag_23\n        /* \"#utility.yul\":682:685   */\n      dup3\n        /* \"#utility.yul\":593:686   */\n      tag_14\n      jump\t// in\n    tag_23:\n        /* \"#utility.yul\":711:713   */\n      0x20\n        /* \"#utility.yul\":706:709   */\n      dup3\n        /* \"#utility.yul\":702:714   */\n      add\n        /* \"#utility.yul\":695:714   */\n      swap1\n      pop\n        /* \"#utility.yul\":354:720   */\n      swap2\n      swap1\n      pop\n      jump\t// out\n        /* \"#utility.yul\":726:1145   */\n    tag_8:\n        /* \"#utility.yul\":892:896   */\n      0x00\n        /* \"#utility.yul\":930:932   */\n      0x20\n        /* \"#utility.yul\":919:928   */\n      dup3\n        /* \"#utility.yul\":915:933   */\n      add\n        /* \"#utility.yul\":907:933   */\n      swap1\n      pop\n        /* \"#utility.yul\":979:988   */\n      dup2\n        /* \"#utility.yul\":973:977   */\n      dup2\n        /* \"#utility.yul\":969:989   */\n      sub\n        /* \"#utility.yul\":965:966   */\n      0x00\n        /* \"#utility.yul\":954:963   */\n      dup4\n        /* \"#utility.yul\":950:967   */\n      add\n        /* \"#utility.yul\":943:990   */\n      mstore\n        /* \"#utility.yul\":1007:1138   */\n      tag_25\n        /* \"#utility.yul\":1133:1137   */\n      dup2\n        /* \"#utility.yul\":1007:1138   */\n      tag_15\n      jump\t// in\n    tag_25:\n        /* \"#utility.yul\":999:1138   */\n      swap1\n      pop\n        /* \"#utility.yul\":726:1145   */\n      swap2\n      swap1\n      pop\n      jump\t// out\n        /* \"#utility.yul\":1151:1322   */\n    tag_16:\n        /* \"#utility.yul\":1291:1314   */\n      0x54686520424944206973206e6f7420656e6f7567680000000000000000000000\n        /* \"#utility.yul\":1287:1288   */\n      0x00\n        /* \"#utility.yul\":1279:1285   */\n      dup3\n        /* \"#utility.yul\":1275:1289   */\n      add\n        /* \"#utility.yul\":1268:1315   */\n      mstore\n        /* \"#utility.yul\":1151:1322   */\n      pop\n      jump\t// out\n        /* \"#utility.yul\":1328:1694   */\n    tag_17:\n        /* \"#utility.yul\":1470:1473   */\n      0x00\n        /* \"#utility.yul\":1491:1558   */\n      tag_28\n        /* \"#utility.yul\":1555:1557   */\n      0x15\n        /* \"#utility.yul\":1550:1553   */\n      dup4\n        /* \"#utility.yul\":1491:1558   */\n      tag_13\n      jump\t// in\n    tag_28:\n        /* \"#utility.yul\":1484:1558   */\n      swap2\n      pop\n        /* \"#utility.yul\":1567:1660   */\n      tag_29\n        /* \"#utility.yul\":1656:1659   */\n      dup3\n        /* \"#utility.yul\":1567:1660   */\n      tag_16\n      jump\t// in\n    tag_29:\n        /* \"#utility.yul\":1685:1687   */\n      0x20\n        /* \"#utility.yul\":1680:1683   */\n      dup3\n        /* \"#utility.yul\":1676:1688   */\n      add\n        /* \"#utility.yul\":1669:1688   */\n      swap1\n      pop\n        /* \"#utility.yul\":1328:1694   */\n      swap2\n      swap1\n      pop\n      jump\t// out\n        /* \"#utility.yul\":1700:2119   */\n    tag_12:\n        /* \"#utility.yul\":1866:1870   */\n      0x00\n        /* \"#utility.yul\":1904:1906   */\n      0x20\n        /* \"#utility.yul\":1893:1902   */\n      dup3\n        /* \"#utility.yul\":1889:1907   */\n      add\n        /* \"#utility.yul\":1881:1907   */\n      swap1\n      pop\n        /* \"#utility.yul\":1953:1962   */\n      dup2\n        /* \"#utility.yul\":1947:1951   */\n      dup2\n        /* \"#utility.yul\":1943:1963   */\n      sub\n        /* \"#utility.yul\":1939:1940   */\n      0x00\n        /* \"#utility.yul\":1928:1937   */\n      dup4\n        /* \"#utility.yul\":1924:1941   */\n      add\n        /* \"#utility.yul\":1917:1964   */\n      mstore\n        /* \"#utility.yul\":1981:2112   */\n      tag_31\n        /* \"#utility.yul\":2107:2111   */\n      dup2\n        /* \"#utility.yul\":1981:2112   */\n      tag_17\n      jump\t// in\n    tag_31:\n        /* \"#utility.yul\":1973:2112   */\n      swap1\n      pop\n        /* \"#utility.yul\":1700:2119   */\n      swap2\n      swap1\n      pop\n      jump\t// out\n\n    auxdata: 0xa2646970667358221220896d04e944516d9e14fb4b0eab70fd75db7e80b9756c31834cd7c9f89da3276664736f6c63430008190033\n}\n",
				"bytecode": {
					"linkReferences": {},
					"object": "608060405234801561000f575f80fd5b5060405161032e38038061032e8339818101604052810190610031919061007f565b804261003d91906100d7565b5f819055505061010a565b5f80fd5b5f819050919050565b61005e8161004c565b8114610068575f80fd5b50565b5f8151905061007981610055565b92915050565b5f6020828403121561009457610093610048565b5b5f6100a18482850161006b565b91505092915050565b7f4e487b71000000000000000000000000000000000000000000000000000000005f52601160045260245ffd5b5f6100e18261004c565b91506100ec8361004c565b9250828201905080821115610104576101036100aa565b5b92915050565b610217806101175f395ff3fe60806040526004361061001d575f3560e01c8063f30e365814610021575b5f80fd5b61002961002b565b005b5f54421061006e576040517f08c379a00000000000000000000000000000000000000000000000000000000081526004016100659061015b565b60405180910390fd5b6001543411156100c457346001819055503360025f6101000a81548173ffffffffffffffffffffffffffffffffffffffff021916908373ffffffffffffffffffffffffffffffffffffffff1602179055506100ff565b6040517f08c379a00000000000000000000000000000000000000000000000000000000081526004016100f6906101c3565b60405180910390fd5b565b5f82825260208201905092915050565b7f546865204249442066696e6973686564000000000000000000000000000000005f82015250565b5f610145601083610101565b915061015082610111565b602082019050919050565b5f6020820190508181035f83015261017281610139565b9050919050565b7f54686520424944206973206e6f7420656e6f75676800000000000000000000005f82015250565b5f6101ad601583610101565b91506101b882610179565b602082019050919050565b5f6020820190508181035f8301526101da816101a1565b905091905056fea2646970667358221220896d04e944516d9e14fb4b0eab70fd75db7e80b9756c31834cd7c9f89da3276664736f6c63430008190033",
					"opcodes": "PUSH1 0x80 PUSH1 0x40 MSTORE CALLVALUE DUP1 ISZERO PUSH2 0xF JUMPI PUSH0 DUP1 REVERT JUMPDEST POP PUSH1 0x40 MLOAD PUSH2 0x32E CODESIZE SUB DUP1 PUSH2 0x32E DUP4 CODECOPY DUP2 DUP2 ADD PUSH1 0x40 MSTORE DUP2 ADD SWAP1 PUSH2 0x31 SWAP2 SWAP1 PUSH2 0x7F JUMP JUMPDEST DUP1 TIMESTAMP PUSH2 0x3D SWAP2 SWAP1 PUSH2 0xD7 JUMP JUMPDEST PUSH0 DUP2 SWAP1 SSTORE POP POP PUSH2 0x10A JUMP JUMPDEST PUSH0 DUP1 REVERT JUMPDEST PUSH0 DUP2 SWAP1 POP SWAP2 SWAP1 POP JUMP JUMPDEST PUSH2 0x5E DUP2 PUSH2 0x4C JUMP JUMPDEST DUP2 EQ PUSH2 0x68 JUMPI PUSH0 DUP1 REVERT JUMPDEST POP JUMP JUMPDEST PUSH0 DUP2 MLOAD SWAP1 POP PUSH2 0x79 DUP2 PUSH2 0x55 JUMP JUMPDEST SWAP3 SWAP2 POP POP JUMP JUMPDEST PUSH0 PUSH1 0x20 DUP3 DUP5 SUB SLT ISZERO PUSH2 0x94 JUMPI PUSH2 0x93 PUSH2 0x48 JUMP JUMPDEST JUMPDEST PUSH0 PUSH2 0xA1 DUP5 DUP3 DUP6 ADD PUSH2 0x6B JUMP JUMPDEST SWAP2 POP POP SWAP3 SWAP2 POP POP JUMP JUMPDEST PUSH32 0x4E487B7100000000000000000000000000000000000000000000000000000000 PUSH0 MSTORE PUSH1 0x11 PUSH1 0x4 MSTORE PUSH1 0x24 PUSH0 REVERT JUMPDEST PUSH0 PUSH2 0xE1 DUP3 PUSH2 0x4C JUMP JUMPDEST SWAP2 POP PUSH2 0xEC DUP4 PUSH2 0x4C JUMP JUMPDEST SWAP3 POP DUP3 DUP3 ADD SWAP1 POP DUP1 DUP3 GT ISZERO PUSH2 0x104 JUMPI PUSH2 0x103 PUSH2 0xAA JUMP JUMPDEST JUMPDEST SWAP3 SWAP2 POP POP JUMP JUMPDEST PUSH2 0x217 DUP1 PUSH2 0x117 PUSH0 CODECOPY PUSH0 RETURN INVALID PUSH1 0x80 PUSH1 0x40 MSTORE PUSH1 0x4 CALLDATASIZE LT PUSH2 0x1D JUMPI PUSH0 CALLDATALOAD PUSH1 0xE0 SHR DUP1 PUSH4 0xF30E3658 EQ PUSH2 0x21 JUMPI JUMPDEST PUSH0 DUP1 REVERT JUMPDEST PUSH2 0x29 PUSH2 0x2B JUMP JUMPDEST STOP JUMPDEST PUSH0 SLOAD TIMESTAMP LT PUSH2 0x6E JUMPI PUSH1 0x40 MLOAD PUSH32 0x8C379A000000000000000000000000000000000000000000000000000000000 DUP2 MSTORE PUSH1 0x4 ADD PUSH2 0x65 SWAP1 PUSH2 0x15B JUMP JUMPDEST PUSH1 0x40 MLOAD DUP1 SWAP2 SUB SWAP1 REVERT JUMPDEST PUSH1 0x1 SLOAD CALLVALUE GT ISZERO PUSH2 0xC4 JUMPI CALLVALUE PUSH1 0x1 DUP2 SWAP1 SSTORE POP CALLER PUSH1 0x2 PUSH0 PUSH2 0x100 EXP DUP2 SLOAD DUP2 PUSH20 0xFFFFFFFFFFFFFFFFFFFFFFFFFFFFFFFFFFFFFFFF MUL NOT AND SWAP1 DUP4 PUSH20 0xFFFFFFFFFFFFFFFFFFFFFFFFFFFFFFFFFFFFFFFF AND MUL OR SWAP1 SSTORE POP PUSH2 0xFF JUMP JUMPDEST PUSH1 0x40 MLOAD PUSH32 0x8C379A000000000000000000000000000000000000000000000000000000000 DUP2 MSTORE PUSH1 0x4 ADD PUSH2 0xF6 SWAP1 PUSH2 0x1C3 JUMP JUMPDEST PUSH1 0x40 MLOAD DUP1 SWAP2 SUB SWAP1 REVERT JUMPDEST JUMP JUMPDEST PUSH0 DUP3 DUP3 MSTORE PUSH1 0x20 DUP3 ADD SWAP1 POP SWAP3 SWAP2 POP POP JUMP JUMPDEST PUSH32 0x546865204249442066696E697368656400000000000000000000000000000000 PUSH0 DUP3 ADD MSTORE POP JUMP JUMPDEST PUSH0 PUSH2 0x145 PUSH1 0x10 DUP4 PUSH2 0x101 JUMP JUMPDEST SWAP2 POP PUSH2 0x150 DUP3 PUSH2 0x111 JUMP JUMPDEST PUSH1 0x20 DUP3 ADD SWAP1 POP SWAP2 SWAP1 POP JUMP JUMPDEST PUSH0 PUSH1 0x20 DUP3 ADD SWAP1 POP DUP2 DUP2 SUB PUSH0 DUP4 ADD MSTORE PUSH2 0x172 DUP2 PUSH2 0x139 JUMP JUMPDEST SWAP1 POP SWAP2 SWAP1 POP JUMP JUMPDEST PUSH32 0x54686520424944206973206E6F7420656E6F7567680000000000000000000000 PUSH0 DUP3 ADD MSTORE POP JUMP JUMPDEST PUSH0 PUSH2 0x1AD PUSH1 0x15 DUP4 PUSH2 0x101 JUMP JUMPDEST SWAP2 POP PUSH2 0x1B8 DUP3 PUSH2 0x179 JUMP JUMPDEST PUSH1 0x20 DUP3 ADD SWAP1 POP SWAP2 SWAP1 POP JUMP JUMPDEST PUSH0 PUSH1 0x20 DUP3 ADD SWAP1 POP DUP2 DUP2 SUB PUSH0 DUP4 ADD MSTORE PUSH2 0x1DA DUP2 PUSH2 0x1A1 JUMP JUMPDEST SWAP1 POP SWAP2 SWAP1 POP JUMP INVALID LOG2 PUSH5 0x6970667358 0x22 SLT KECCAK256 DUP10 PUSH14 0x4E944516D9E14FB4B0EAB70FD75 0xDB PUSH31 0x80B9756C31834CD7C9F89DA3276664736F6C63430008190033000000000000 "
				},
				"gasEstimates": {
					"creation": {
						"codeDepositCost": "107000",
						"executionCost": "infinite",
						"totalCost": "infinite"
					},
					"external": {
						"makeBid()": "50732"
					}
				},
				"methodIdentifiers": {
					"makeBid()": "f30e3658"
				}
			},
			"storageLayout": {
				"storage": [
					{
						"astId": 3,
						"contract": "ETHKIPU/Bid.sol:BidSC",
						"label": "finishTimestamp",
						"offset": 0,
						"slot": "0",
						"type": "t_uint256"
					},
					{
						"astId": 5,
						"contract": "ETHKIPU/Bid.sol:BidSC",
						"label": "maxBid",
						"offset": 0,
						"slot": "1",
						"type": "t_uint256"
					},
					{
						"astId": 7,
						"contract": "ETHKIPU/Bid.sol:BidSC",
						"label": "maxBidder",
						"offset": 0,
						"slot": "2",
						"type": "t_address"
					}
				],
				"types": {
					"t_address": {
						"encoding": "inplace",
						"label": "address",
						"numberOfBytes": "20"
					},
					"t_uint256": {
						"encoding": "inplace",
						"label": "uint256",
						"numberOfBytes": "32"
					}
				}
			},
			"userdoc": {
				"kind": "user",
				"methods": {},
				"version": 1
			}
		}
	}
}