{
	"ETHKIPU/Storage1.sol": {
		"Storage1": {
			"abi": [
				{
					"inputs": [],
					"name": "getVar1",
					"outputs": [
						{
							"internalType": "uint256",
							"name": "",
							"type": "uint256"
						}
					],
					"stateMutability": "view",
					"type": "function"
				},
				{
					"inputs": [
						{
							"internalType": "uint256",
							"name": "_var1",
							"type": "uint256"
						}
					],
					"name": "setThisVar1",
					"outputs": [],
					"stateMutability": "nonpayable",
					"type": "function"
				},
				{
					"inputs": [
						{
							"internalType": "uint256",
							"name": "_var1",
							"type": "uint256"
						}
					],
					"name": "setVar1",
					"outputs": [],
					"stateMutability": "nonpayable",
					"type": "function"
				}
			],
			"devdoc": {
				"kind": "dev",
				"methods": {},
				"version": 1
			},
			"evm": {
				"assembly": "    /* \"ETHKIPU/Storage1.sol\":110:443  contract Storage1 {... */\n  mstore(0x40, 0x80)\n  callvalue\n  dup1\n  iszero\n  tag_1\n  jumpi\n  0x00\n  dup1\n  revert\ntag_1:\n  pop\n  dataSize(sub_0)\n  dup1\n  dataOffset(sub_0)\n  0x00\n  codecopy\n  0x00\n  return\nstop\n\nsub_0: assembly {\n        /* \"ETHKIPU/Storage1.sol\":110:443  contract Storage1 {... */\n      mstore(0x40, 0x80)\n      callvalue\n      dup1\n      iszero\n      tag_1\n      jumpi\n      0x00\n      dup1\n      revert\n    tag_1:\n      pop\n      jumpi(tag_2, lt(calldatasize, 0x04))\n      shr(0xe0, calldataload(0x00))\n      dup1\n      0x3e375eeb\n      eq\n      tag_3\n      jumpi\n      dup1\n      0xc2211f48\n      eq\n      tag_4\n      jumpi\n      dup1\n      0xfeeffdfc\n      eq\n      tag_5\n      jumpi\n    tag_2:\n      0x00\n      dup1\n      revert\n        /* \"ETHKIPU/Storage1.sol\":242:322  function getVar1() external view returns(uint256) {... */\n    tag_3:\n      tag_6\n      tag_7\n      jump\t// in\n    tag_6:\n      mload(0x40)\n      tag_8\n      swap2\n      swap1\n      tag_9\n      jump\t// in\n    tag_8:\n      mload(0x40)\n      dup1\n      swap2\n      sub\n      swap1\n      return\n        /* \"ETHKIPU/Storage1.sol\":159:232  function setVar1(uint256 _var1) external  {... */\n    tag_4:\n      tag_10\n      0x04\n      dup1\n      calldatasize\n      sub\n      dup2\n      add\n      swap1\n      tag_11\n      swap2\n      swap1\n      tag_12\n      jump\t// in\n    tag_11:\n      tag_13\n      jump\t// in\n    tag_10:\n      stop\n        /* \"ETHKIPU/Storage1.sol\":330:438  function setThisVar1(uint256 _var1) external {... */\n    tag_5:\n      tag_14\n      0x04\n      dup1\n      calldatasize\n      sub\n      dup2\n      add\n      swap1\n      tag_15\n      swap2\n      swap1\n      tag_12\n      jump\t// in\n    tag_15:\n      tag_16\n      jump\t// in\n    tag_14:\n      stop\n        /* \"ETHKIPU/Storage1.sol\":242:322  function getVar1() external view returns(uint256) {... */\n    tag_7:\n        /* \"ETHKIPU/Storage1.sol\":283:290  uint256 */\n      0x00\n        /* \"ETHKIPU/Storage1.sol\":310:314  var1 */\n      dup1\n      sload\n        /* \"ETHKIPU/Storage1.sol\":303:314  return var1 */\n      swap1\n      pop\n        /* \"ETHKIPU/Storage1.sol\":242:322  function getVar1() external view returns(uint256) {... */\n      swap1\n      jump\t// out\n        /* \"ETHKIPU/Storage1.sol\":159:232  function setVar1(uint256 _var1) external  {... */\n    tag_13:\n        /* \"ETHKIPU/Storage1.sol\":219:224  _var1 */\n      dup1\n        /* \"ETHKIPU/Storage1.sol\":212:216  var1 */\n      0x00\n        /* \"ETHKIPU/Storage1.sol\":212:224  var1 = _var1 */\n      dup2\n      swap1\n      sstore\n      pop\n        /* \"ETHKIPU/Storage1.sol\":159:232  function setVar1(uint256 _var1) external  {... */\n      pop\n      jump\t// out\n        /* \"ETHKIPU/Storage1.sol\":330:438  function setThisVar1(uint256 _var1) external {... */\n    tag_16:\n        /* \"ETHKIPU/Storage1.sol\":411:415  this */\n      address\n        /* \"ETHKIPU/Storage1.sol\":411:423  this.setVar1 */\n      0xffffffffffffffffffffffffffffffffffffffff\n      and\n      0xc2211f48\n        /* \"ETHKIPU/Storage1.sol\":424:429  _var1 */\n      dup3\n        /* \"ETHKIPU/Storage1.sol\":411:430  this.setVar1(_var1) */\n      mload(0x40)\n      dup3\n      0xffffffff\n      and\n      0xe0\n      shl\n      dup2\n      mstore\n      0x04\n      add\n      tag_20\n      swap2\n      swap1\n      tag_9\n      jump\t// in\n    tag_20:\n      0x00\n      mload(0x40)\n      dup1\n      dup4\n      sub\n      dup2\n      0x00\n      dup8\n      dup1\n      extcodesize\n      iszero\n      dup1\n      iszero\n      tag_21\n      jumpi\n      0x00\n      dup1\n      revert\n    tag_21:\n      pop\n      gas\n      call\n      iszero\n      dup1\n      iszero\n      tag_23\n      jumpi\n      returndatasize\n      0x00\n      dup1\n      returndatacopy\n      revert(0x00, returndatasize)\n    tag_23:\n      pop\n      pop\n      pop\n      pop\n        /* \"ETHKIPU/Storage1.sol\":330:438  function setThisVar1(uint256 _var1) external {... */\n      pop\n      jump\t// out\n        /* \"#utility.yul\":7:84   */\n    tag_24:\n        /* \"#utility.yul\":44:51   */\n      0x00\n        /* \"#utility.yul\":73:78   */\n      dup2\n        /* \"#utility.yul\":62:78   */\n      swap1\n      pop\n        /* \"#utility.yul\":7:84   */\n      swap2\n      swap1\n      pop\n      jump\t// out\n        /* \"#utility.yul\":90:208   */\n    tag_25:\n        /* \"#utility.yul\":177:201   */\n      tag_34\n        /* \"#utility.yul\":195:200   */\n      dup2\n        /* \"#utility.yul\":177:201   */\n      tag_24\n      jump\t// in\n    tag_34:\n        /* \"#utility.yul\":172:175   */\n      dup3\n        /* \"#utility.yul\":165:202   */\n      mstore\n        /* \"#utility.yul\":90:208   */\n      pop\n      pop\n      jump\t// out\n        /* \"#utility.yul\":214:436   */\n    tag_9:\n        /* \"#utility.yul\":307:311   */\n      0x00\n        /* \"#utility.yul\":345:347   */\n      0x20\n        /* \"#utility.yul\":334:343   */\n      dup3\n        /* \"#utility.yul\":330:348   */\n      add\n        /* \"#utility.yul\":322:348   */\n      swap1\n      pop\n        /* \"#utility.yul\":358:429   */\n      tag_36\n        /* \"#utility.yul\":426:427   */\n      0x00\n        /* \"#utility.yul\":415:424   */\n      dup4\n        /* \"#utility.yul\":411:428   */\n      add\n        /* \"#utility.yul\":402:408   */\n      dup5\n        /* \"#utility.yul\":358:429   */\n      tag_25\n      jump\t// in\n    tag_36:\n        /* \"#utility.yul\":214:436   */\n      swap3\n      swap2\n      pop\n      pop\n      jump\t// out\n        /* \"#utility.yul\":523:640   */\n    tag_27:\n        /* \"#utility.yul\":632:633   */\n      0x00\n        /* \"#utility.yul\":629:630   */\n      dup1\n        /* \"#utility.yul\":622:634   */\n      revert\n        /* \"#utility.yul\":769:891   */\n    tag_29:\n        /* \"#utility.yul\":842:866   */\n      tag_41\n        /* \"#utility.yul\":860:865   */\n      dup2\n        /* \"#utility.yul\":842:866   */\n      tag_24\n      jump\t// in\n    tag_41:\n        /* \"#utility.yul\":835:840   */\n      dup2\n        /* \"#utility.yul\":832:867   */\n      eq\n        /* \"#utility.yul\":822:885   */\n      tag_42\n      jumpi\n        /* \"#utility.yul\":881:882   */\n      0x00\n        /* \"#utility.yul\":878:879   */\n      dup1\n        /* \"#utility.yul\":871:883   */\n      revert\n        /* \"#utility.yul\":822:885   */\n    tag_42:\n        /* \"#utility.yul\":769:891   */\n      pop\n      jump\t// out\n        /* \"#utility.yul\":897:1036   */\n    tag_30:\n        /* \"#utility.yul\":943:948   */\n      0x00\n        /* \"#utility.yul\":981:987   */\n      dup2\n        /* \"#utility.yul\":968:988   */\n      calldataload\n        /* \"#utility.yul\":959:988   */\n      swap1\n      pop\n        /* \"#utility.yul\":997:1030   */\n      tag_44\n        /* \"#utility.yul\":1024:1029   */\n      dup2\n        /* \"#utility.yul\":997:1030   */\n      tag_29\n      jump\t// in\n    tag_44:\n        /* \"#utility.yul\":897:1036   */\n      swap3\n      swap2\n      pop\n      pop\n      jump\t// out\n        /* \"#utility.yul\":1042:1371   */\n    tag_12:\n        /* \"#utility.yul\":1101:1107   */\n      0x00\n        /* \"#utility.yul\":1150:1152   */\n      0x20\n        /* \"#utility.yul\":1138:1147   */\n      dup3\n        /* \"#utility.yul\":1129:1136   */\n      dup5\n        /* \"#utility.yul\":1125:1148   */\n      sub\n        /* \"#utility.yul\":1121:1153   */\n      slt\n        /* \"#utility.yul\":1118:1237   */\n      iszero\n      tag_46\n      jumpi\n        /* \"#utility.yul\":1156:1235   */\n      tag_47\n      tag_27\n      jump\t// in\n    tag_47:\n        /* \"#utility.yul\":1118:1237   */\n    tag_46:\n        /* \"#utility.yul\":1276:1277   */\n      0x00\n        /* \"#utility.yul\":1301:1354   */\n      tag_48\n        /* \"#utility.yul\":1346:1353   */\n      dup5\n        /* \"#utility.yul\":1337:1343   */\n      dup3\n        /* \"#utility.yul\":1326:1335   */\n      dup6\n        /* \"#utility.yul\":1322:1344   */\n      add\n        /* \"#utility.yul\":1301:1354   */\n      tag_30\n      jump\t// in\n    tag_48:\n        /* \"#utility.yul\":1291:1354   */\n      swap2\n      pop\n        /* \"#utility.yul\":1247:1364   */\n      pop\n        /* \"#utility.yul\":1042:1371   */\n      swap3\n      swap2\n      pop\n      pop\n      jump\t// out\n\n    auxdata: 0xa2646970667358221220e0327128793c69b7c3a25524e5a562e1e7ba3227b00ad8ae3293521d693adf9864736f6c634300081a0033\n}\n",
				"bytecode": {
					"linkReferences": {},
					"object": "6080604052348015600e575f80fd5b506101d38061001c5f395ff3fe608060405234801561000f575f80fd5b506004361061003f575f3560e01c80633e375eeb14610043578063c2211f4814610061578063feeffdfc1461007d575b5f80fd5b61004b610099565b604051610058919061012b565b60405180910390f35b61007b60048036038101906100769190610172565b6100a1565b005b61009760048036038101906100929190610172565b6100aa565b005b5f8054905090565b805f8190555050565b3073ffffffffffffffffffffffffffffffffffffffff1663c2211f48826040518263ffffffff1660e01b81526004016100e3919061012b565b5f604051808303815f87803b1580156100fa575f80fd5b505af115801561010c573d5f803e3d5ffd5b5050505050565b5f819050919050565b61012581610113565b82525050565b5f60208201905061013e5f83018461011c565b92915050565b5f80fd5b61015181610113565b811461015b575f80fd5b50565b5f8135905061016c81610148565b92915050565b5f6020828403121561018757610186610144565b5b5f6101948482850161015e565b9150509291505056fea2646970667358221220e0327128793c69b7c3a25524e5a562e1e7ba3227b00ad8ae3293521d693adf9864736f6c634300081a0033",
					"opcodes": "PUSH1 0x80 PUSH1 0x40 MSTORE CALLVALUE DUP1 ISZERO PUSH1 0xE JUMPI PUSH0 DUP1 REVERT JUMPDEST POP PUSH2 0x1D3 DUP1 PUSH2 0x1C PUSH0 CODECOPY PUSH0 RETURN INVALID PUSH1 0x80 PUSH1 0x40 MSTORE CALLVALUE DUP1 ISZERO PUSH2 0xF JUMPI PUSH0 DUP1 REVERT JUMPDEST POP PUSH1 0x4 CALLDATASIZE LT PUSH2 0x3F JUMPI PUSH0 CALLDATALOAD PUSH1 0xE0 SHR DUP1 PUSH4 0x3E375EEB EQ PUSH2 0x43 JUMPI DUP1 PUSH4 0xC2211F48 EQ PUSH2 0x61 JUMPI DUP1 PUSH4 0xFEEFFDFC EQ PUSH2 0x7D JUMPI JUMPDEST PUSH0 DUP1 REVERT JUMPDEST PUSH2 0x4B PUSH2 0x99 JUMP JUMPDEST PUSH1 0x40 MLOAD PUSH2 0x58 SWAP2 SWAP1 PUSH2 0x12B JUMP JUMPDEST PUSH1 0x40 MLOAD DUP1 SWAP2 SUB SWAP1 RETURN JUMPDEST PUSH2 0x7B PUSH1 0x4 DUP1 CALLDATASIZE SUB DUP2 ADD SWAP1 PUSH2 0x76 SWAP2 SWAP1 PUSH2 0x172 JUMP JUMPDEST PUSH2 0xA1 JUMP JUMPDEST STOP JUMPDEST PUSH2 0x97 PUSH1 0x4 DUP1 CALLDATASIZE SUB DUP2 ADD SWAP1 PUSH2 0x92 SWAP2 SWAP1 PUSH2 0x172 JUMP JUMPDEST PUSH2 0xAA JUMP JUMPDEST STOP JUMPDEST PUSH0 DUP1 SLOAD SWAP1 POP SWAP1 JUMP JUMPDEST DUP1 PUSH0 DUP2 SWAP1 SSTORE POP POP JUMP JUMPDEST ADDRESS PUSH20 0xFFFFFFFFFFFFFFFFFFFFFFFFFFFFFFFFFFFFFFFF AND PUSH4 0xC2211F48 DUP3 PUSH1 0x40 MLOAD DUP3 PUSH4 0xFFFFFFFF AND PUSH1 0xE0 SHL DUP2 MSTORE PUSH1 0x4 ADD PUSH2 0xE3 SWAP2 SWAP1 PUSH2 0x12B JUMP JUMPDEST PUSH0 PUSH1 0x40 MLOAD DUP1 DUP4 SUB DUP2 PUSH0 DUP8 DUP1 EXTCODESIZE ISZERO DUP1 ISZERO PUSH2 0xFA JUMPI PUSH0 DUP1 REVERT JUMPDEST POP GAS CALL ISZERO DUP1 ISZERO PUSH2 0x10C JUMPI RETURNDATASIZE PUSH0 DUP1 RETURNDATACOPY RETURNDATASIZE PUSH0 REVERT JUMPDEST POP POP POP POP POP JUMP JUMPDEST PUSH0 DUP2 SWAP1 POP SWAP2 SWAP1 POP JUMP JUMPDEST PUSH2 0x125 DUP2 PUSH2 0x113 JUMP JUMPDEST DUP3 MSTORE POP POP JUMP JUMPDEST PUSH0 PUSH1 0x20 DUP3 ADD SWAP1 POP PUSH2 0x13E PUSH0 DUP4 ADD DUP5 PUSH2 0x11C JUMP JUMPDEST SWAP3 SWAP2 POP POP JUMP JUMPDEST PUSH0 DUP1 REVERT JUMPDEST PUSH2 0x151 DUP2 PUSH2 0x113 JUMP JUMPDEST DUP2 EQ PUSH2 0x15B JUMPI PUSH0 DUP1 REVERT JUMPDEST POP JUMP JUMPDEST PUSH0 DUP2 CALLDATALOAD SWAP1 POP PUSH2 0x16C DUP2 PUSH2 0x148 JUMP JUMPDEST SWAP3 SWAP2 POP POP JUMP JUMPDEST PUSH0 PUSH1 0x20 DUP3 DUP5 SUB SLT ISZERO PUSH2 0x187 JUMPI PUSH2 0x186 PUSH2 0x144 JUMP JUMPDEST JUMPDEST PUSH0 PUSH2 0x194 DUP5 DUP3 DUP6 ADD PUSH2 0x15E JUMP JUMPDEST SWAP2 POP POP SWAP3 SWAP2 POP POP JUMP INVALID LOG2 PUSH5 0x6970667358 0x22 SLT KECCAK256 0xE0 ORIGIN PUSH18 0x28793C69B7C3A25524E5A562E1E7BA3227B0 EXP 0xD8 0xAE ORIGIN SWAP4 MSTORE SAR PUSH10 0x3ADF9864736F6C634300 ADDMOD BYTE STOP CALLER "
				},
				"gasEstimates": {
					"creation": {
						"codeDepositCost": "93400",
						"executionCost": "139",
						"totalCost": "93539"
					},
					"external": {
						"getVar1()": "2410",
						"setThisVar1(uint256)": "infinite",
						"setVar1(uint256)": "22514"
					}
				},
				"methodIdentifiers": {
					"getVar1()": "3e375eeb",
					"setThisVar1(uint256)": "feeffdfc",
					"setVar1(uint256)": "c2211f48"
				}
			},
			"storageLayout": {
				"storage": [
					{
						"astId": 3,
						"contract": "ETHKIPU/Storage1.sol:Storage1",
						"label": "var1",
						"offset": 0,
						"slot": "0",
						"type": "t_uint256"
					}
				],
				"types": {
					"t_uint256": {
						"encoding": "inplace",
						"label": "uint256",
						"numberOfBytes": "32"
					}
				}
			},
			"userdoc": {
				"kind": "user",
				"methods": {},
				"version": 1
			}
		}
	}
}