{
	"data": {
		"bytecode": {
			"linkReferences": {},
			"object": "6080604052348015600e575f80fd5b506107f98061001c5f395ff3fe608060405234801561000f575f80fd5b5060043610610034575f3560e01c80634bdd828014610038578063bd83840514610059575b5f80fd5b610040610075565b60405161005094939291906102f6565b60405180910390f35b610073600480360381019061006e9190610484565b6101c5565b005b60605f60605f8060015f9054906101000a900473ffffffffffffffffffffffffffffffffffffffff1660026003548380546100af90610527565b80601f01602080910402602001604051908101604052809291908181526020018280546100db90610527565b80156101265780601f106100fd57610100808354040283529160200191610126565b820191905f5260205f20905b81548152906001019060200180831161010957829003601f168201915b5050505050935081805461013990610527565b80601f016020809104026020016040519081016040528092919081815260200182805461016590610527565b80156101b05780601f10610187576101008083540402835291602001916101b0565b820191905f5260205f20905b81548152906001019060200180831161019357829003601f168201915b50505050509150935093509350935090919293565b815f90816101d391906106f4565b503360015f6101000a81548173ffffffffffffffffffffffffffffffffffffffff021916908373ffffffffffffffffffffffffffffffffffffffff160217905550806002908161022391906106f4565b50426003819055505050565b5f81519050919050565b5f82825260208201905092915050565b8281835e5f83830152505050565b5f601f19601f8301169050919050565b5f6102718261022f565b61027b8185610239565b935061028b818560208601610249565b61029481610257565b840191505092915050565b5f73ffffffffffffffffffffffffffffffffffffffff82169050919050565b5f6102c88261029f565b9050919050565b6102d8816102be565b82525050565b5f819050919050565b6102f0816102de565b82525050565b5f6080820190508181035f83015261030e8187610267565b905061031d60208301866102cf565b818103604083015261032f8185610267565b905061033e60608301846102e7565b95945050505050565b5f604051905090565b5f80fd5b5f80fd5b5f80fd5b5f80fd5b7f4e487b71000000000000000000000000000000000000000000000000000000005f52604160045260245ffd5b61039682610257565b810181811067ffffffffffffffff821117156103b5576103b4610360565b5b80604052505050565b5f6103c7610347565b90506103d3828261038d565b919050565b5f67ffffffffffffffff8211156103f2576103f1610360565b5b6103fb82610257565b9050602081019050919050565b828183375f83830152505050565b5f610428610423846103d8565b6103be565b9050828152602081018484840111156104445761044361035c565b5b61044f848285610408565b509392505050565b5f82601f83011261046b5761046a610358565b5b813561047b848260208601610416565b91505092915050565b5f806040838503121561049a57610499610350565b5b5f83013567ffffffffffffffff8111156104b7576104b6610354565b5b6104c385828601610457565b925050602083013567ffffffffffffffff8111156104e4576104e3610354565b5b6104f085828601610457565b9150509250929050565b7f4e487b71000000000000000000000000000000000000000000000000000000005f52602260045260245ffd5b5f600282049050600182168061053e57607f821691505b602082108103610551576105506104fa565b5b50919050565b5f819050815f5260205f209050919050565b5f6020601f8301049050919050565b5f82821b905092915050565b5f600883026105b37fffffffffffffffffffffffffffffffffffffffffffffffffffffffffffffffff82610578565b6105bd8683610578565b95508019841693508086168417925050509392505050565b5f819050919050565b5f6105f86105f36105ee846102de565b6105d5565b6102de565b9050919050565b5f819050919050565b610611836105de565b61062561061d826105ff565b848454610584565b825550505050565b5f90565b61063961062d565b610644818484610608565b505050565b5b818110156106675761065c5f82610631565b60018101905061064a565b5050565b601f8211156106ac5761067d81610557565b61068684610569565b81016020851015610695578190505b6106a96106a185610569565b830182610649565b50505b505050565b5f82821c905092915050565b5f6106cc5f19846008026106b1565b1980831691505092915050565b5f6106e483836106bd565b9150826002028217905092915050565b6106fd8261022f565b67ffffffffffffffff81111561071657610715610360565b5b6107208254610527565b61072b82828561066b565b5f60209050601f83116001811461075c575f841561074a578287015190505b61075485826106d9565b8655506107bb565b601f19841661076a86610557565b5f5b828110156107915784890151825560018201915060208501945060208101905061076c565b868310156107ae57848901516107aa601f8916826106bd565b8355505b6001600288020188555050505b50505050505056fea2646970667358221220a6a4dc2769e41fd7b552b1d54e412e47bd28b4d985ac6f099d29ef768328530964736f6c634300081a0033",
			"opcodes": "PUSH1 0x80 PUSH1 0x40 MSTORE CALLVALUE DUP1 ISZERO PUSH1 0xE JUMPI PUSH0 DUP1 REVERT JUMPDEST POP PUSH2 0x7F9 DUP1 PUSH2 0x1C PUSH0 CODECOPY PUSH0 RETURN INVALID PUSH1 0x80 PUSH1 0x40 MSTORE CALLVALUE DUP1 ISZERO PUSH2 0xF JUMPI PUSH0 DUP1 REVERT JUMPDEST POP PUSH1 0x4 CALLDATASIZE LT PUSH2 0x34 JUMPI PUSH0 CALLDATALOAD PUSH1 0xE0 SHR DUP1 PUSH4 0x4BDD8280 EQ PUSH2 0x38 JUMPI DUP1 PUSH4 0xBD838405 EQ PUSH2 0x59 JUMPI JUMPDEST PUSH0 DUP1 REVERT JUMPDEST PUSH2 0x40 PUSH2 0x75 JUMP JUMPDEST PUSH1 0x40 MLOAD PUSH2 0x50 SWAP5 SWAP4 SWAP3 SWAP2 SWAP1 PUSH2 0x2F6 JUMP JUMPDEST PUSH1 0x40 MLOAD DUP1 SWAP2 SUB SWAP1 RETURN JUMPDEST PUSH2 0x73 PUSH1 0x4 DUP1 CALLDATASIZE SUB DUP2 ADD SWAP1 PUSH2 0x6E SWAP2 SWAP1 PUSH2 0x484 JUMP JUMPDEST PUSH2 0x1C5 JUMP JUMPDEST STOP JUMPDEST PUSH1 0x60 PUSH0 PUSH1 0x60 PUSH0 DUP1 PUSH1 0x1 PUSH0 SWAP1 SLOAD SWAP1 PUSH2 0x100 EXP SWAP1 DIV PUSH20 0xFFFFFFFFFFFFFFFFFFFFFFFFFFFFFFFFFFFFFFFF AND PUSH1 0x2 PUSH1 0x3 SLOAD DUP4 DUP1 SLOAD PUSH2 0xAF SWAP1 PUSH2 0x527 JUMP JUMPDEST DUP1 PUSH1 0x1F ADD PUSH1 0x20 DUP1 SWAP2 DIV MUL PUSH1 0x20 ADD PUSH1 0x40 MLOAD SWAP1 DUP2 ADD PUSH1 0x40 MSTORE DUP1 SWAP3 SWAP2 SWAP1 DUP2 DUP2 MSTORE PUSH1 0x20 ADD DUP3 DUP1 SLOAD PUSH2 0xDB SWAP1 PUSH2 0x527 JUMP JUMPDEST DUP1 ISZERO PUSH2 0x126 JUMPI DUP1 PUSH1 0x1F LT PUSH2 0xFD JUMPI PUSH2 0x100 DUP1 DUP4 SLOAD DIV MUL DUP4 MSTORE SWAP2 PUSH1 0x20 ADD SWAP2 PUSH2 0x126 JUMP JUMPDEST DUP3 ADD SWAP2 SWAP1 PUSH0 MSTORE PUSH1 0x20 PUSH0 KECCAK256 SWAP1 JUMPDEST DUP2 SLOAD DUP2 MSTORE SWAP1 PUSH1 0x1 ADD SWAP1 PUSH1 0x20 ADD DUP1 DUP4 GT PUSH2 0x109 JUMPI DUP3 SWAP1 SUB PUSH1 0x1F AND DUP3 ADD SWAP2 JUMPDEST POP POP POP POP POP SWAP4 POP DUP2 DUP1 SLOAD PUSH2 0x139 SWAP1 PUSH2 0x527 JUMP JUMPDEST DUP1 PUSH1 0x1F ADD PUSH1 0x20 DUP1 SWAP2 DIV MUL PUSH1 0x20 ADD PUSH1 0x40 MLOAD SWAP1 DUP2 ADD PUSH1 0x40 MSTORE DUP1 SWAP3 SWAP2 SWAP1 DUP2 DUP2 MSTORE PUSH1 0x20 ADD DUP3 DUP1 SLOAD PUSH2 0x165 SWAP1 PUSH2 0x527 JUMP JUMPDEST DUP1 ISZERO PUSH2 0x1B0 JUMPI DUP1 PUSH1 0x1F LT PUSH2 0x187 JUMPI PUSH2 0x100 DUP1 DUP4 SLOAD DIV MUL DUP4 MSTORE SWAP2 PUSH1 0x20 ADD SWAP2 PUSH2 0x1B0 JUMP JUMPDEST DUP3 ADD SWAP2 SWAP1 PUSH0 MSTORE PUSH1 0x20 PUSH0 KECCAK256 SWAP1 JUMPDEST DUP2 SLOAD DUP2 MSTORE SWAP1 PUSH1 0x1 ADD SWAP1 PUSH1 0x20 ADD DUP1 DUP4 GT PUSH2 0x193 JUMPI DUP3 SWAP1 SUB PUSH1 0x1F AND DUP3 ADD SWAP2 JUMPDEST POP POP POP POP POP SWAP2 POP SWAP4 POP SWAP4 POP SWAP4 POP SWAP4 POP SWAP1 SWAP2 SWAP3 SWAP4 JUMP JUMPDEST DUP2 PUSH0 SWAP1 DUP2 PUSH2 0x1D3 SWAP2 SWAP1 PUSH2 0x6F4 JUMP JUMPDEST POP CALLER PUSH1 0x1 PUSH0 PUSH2 0x100 EXP DUP2 SLOAD DUP2 PUSH20 0xFFFFFFFFFFFFFFFFFFFFFFFFFFFFFFFFFFFFFFFF MUL NOT AND SWAP1 DUP4 PUSH20 0xFFFFFFFFFFFFFFFFFFFFFFFFFFFFFFFFFFFFFFFF AND MUL OR SWAP1 SSTORE POP DUP1 PUSH1 0x2 SWAP1 DUP2 PUSH2 0x223 SWAP2 SWAP1 PUSH2 0x6F4 JUMP JUMPDEST POP TIMESTAMP PUSH1 0x3 DUP2 SWAP1 SSTORE POP POP POP JUMP JUMPDEST PUSH0 DUP2 MLOAD SWAP1 POP SWAP2 SWAP1 POP JUMP JUMPDEST PUSH0 DUP3 DUP3 MSTORE PUSH1 0x20 DUP3 ADD SWAP1 POP SWAP3 SWAP2 POP POP JUMP JUMPDEST DUP3 DUP2 DUP4 MCOPY PUSH0 DUP4 DUP4 ADD MSTORE POP POP POP JUMP JUMPDEST PUSH0 PUSH1 0x1F NOT PUSH1 0x1F DUP4 ADD AND SWAP1 POP SWAP2 SWAP1 POP JUMP JUMPDEST PUSH0 PUSH2 0x271 DUP3 PUSH2 0x22F JUMP JUMPDEST PUSH2 0x27B DUP2 DUP6 PUSH2 0x239 JUMP JUMPDEST SWAP4 POP PUSH2 0x28B DUP2 DUP6 PUSH1 0x20 DUP7 ADD PUSH2 0x249 JUMP JUMPDEST PUSH2 0x294 DUP2 PUSH2 0x257 JUMP JUMPDEST DUP5 ADD SWAP2 POP POP SWAP3 SWAP2 POP POP JUMP JUMPDEST PUSH0 PUSH20 0xFFFFFFFFFFFFFFFFFFFFFFFFFFFFFFFFFFFFFFFF DUP3 AND SWAP1 POP SWAP2 SWAP1 POP JUMP JUMPDEST PUSH0 PUSH2 0x2C8 DUP3 PUSH2 0x29F JUMP JUMPDEST SWAP1 POP SWAP2 SWAP1 POP JUMP JUMPDEST PUSH2 0x2D8 DUP2 PUSH2 0x2BE JUMP JUMPDEST DUP3 MSTORE POP POP JUMP JUMPDEST PUSH0 DUP2 SWAP1 POP SWAP2 SWAP1 POP JUMP JUMPDEST PUSH2 0x2F0 DUP2 PUSH2 0x2DE JUMP JUMPDEST DUP3 MSTORE POP POP JUMP JUMPDEST PUSH0 PUSH1 0x80 DUP3 ADD SWAP1 POP DUP2 DUP2 SUB PUSH0 DUP4 ADD MSTORE PUSH2 0x30E DUP2 DUP8 PUSH2 0x267 JUMP JUMPDEST SWAP1 POP PUSH2 0x31D PUSH1 0x20 DUP4 ADD DUP7 PUSH2 0x2CF JUMP JUMPDEST DUP2 DUP2 SUB PUSH1 0x40 DUP4 ADD MSTORE PUSH2 0x32F DUP2 DUP6 PUSH2 0x267 JUMP JUMPDEST SWAP1 POP PUSH2 0x33E PUSH1 0x60 DUP4 ADD DUP5 PUSH2 0x2E7 JUMP JUMPDEST SWAP6 SWAP5 POP POP POP POP POP JUMP JUMPDEST PUSH0 PUSH1 0x40 MLOAD SWAP1 POP SWAP1 JUMP JUMPDEST PUSH0 DUP1 REVERT JUMPDEST PUSH0 DUP1 REVERT JUMPDEST PUSH0 DUP1 REVERT JUMPDEST PUSH0 DUP1 REVERT JUMPDEST PUSH32 0x4E487B7100000000000000000000000000000000000000000000000000000000 PUSH0 MSTORE PUSH1 0x41 PUSH1 0x4 MSTORE PUSH1 0x24 PUSH0 REVERT JUMPDEST PUSH2 0x396 DUP3 PUSH2 0x257 JUMP JUMPDEST DUP2 ADD DUP2 DUP2 LT PUSH8 0xFFFFFFFFFFFFFFFF DUP3 GT OR ISZERO PUSH2 0x3B5 JUMPI PUSH2 0x3B4 PUSH2 0x360 JUMP JUMPDEST JUMPDEST DUP1 PUSH1 0x40 MSTORE POP POP POP JUMP JUMPDEST PUSH0 PUSH2 0x3C7 PUSH2 0x347 JUMP JUMPDEST SWAP1 POP PUSH2 0x3D3 DUP3 DUP3 PUSH2 0x38D JUMP JUMPDEST SWAP2 SWAP1 POP JUMP JUMPDEST PUSH0 PUSH8 0xFFFFFFFFFFFFFFFF DUP3 GT ISZERO PUSH2 0x3F2 JUMPI PUSH2 0x3F1 PUSH2 0x360 JUMP JUMPDEST JUMPDEST PUSH2 0x3FB DUP3 PUSH2 0x257 JUMP JUMPDEST SWAP1 POP PUSH1 0x20 DUP2 ADD SWAP1 POP SWAP2 SWAP1 POP JUMP JUMPDEST DUP3 DUP2 DUP4 CALLDATACOPY PUSH0 DUP4 DUP4 ADD MSTORE POP POP POP JUMP JUMPDEST PUSH0 PUSH2 0x428 PUSH2 0x423 DUP5 PUSH2 0x3D8 JUMP JUMPDEST PUSH2 0x3BE JUMP JUMPDEST SWAP1 POP DUP3 DUP2 MSTORE PUSH1 0x20 DUP2 ADD DUP5 DUP5 DUP5 ADD GT ISZERO PUSH2 0x444 JUMPI PUSH2 0x443 PUSH2 0x35C JUMP JUMPDEST JUMPDEST PUSH2 0x44F DUP5 DUP3 DUP6 PUSH2 0x408 JUMP JUMPDEST POP SWAP4 SWAP3 POP POP POP JUMP JUMPDEST PUSH0 DUP3 PUSH1 0x1F DUP4 ADD SLT PUSH2 0x46B JUMPI PUSH2 0x46A PUSH2 0x358 JUMP JUMPDEST JUMPDEST DUP2 CALLDATALOAD PUSH2 0x47B DUP5 DUP3 PUSH1 0x20 DUP7 ADD PUSH2 0x416 JUMP JUMPDEST SWAP2 POP POP SWAP3 SWAP2 POP POP JUMP JUMPDEST PUSH0 DUP1 PUSH1 0x40 DUP4 DUP6 SUB SLT ISZERO PUSH2 0x49A JUMPI PUSH2 0x499 PUSH2 0x350 JUMP JUMPDEST JUMPDEST PUSH0 DUP4 ADD CALLDATALOAD PUSH8 0xFFFFFFFFFFFFFFFF DUP2 GT ISZERO PUSH2 0x4B7 JUMPI PUSH2 0x4B6 PUSH2 0x354 JUMP JUMPDEST JUMPDEST PUSH2 0x4C3 DUP6 DUP3 DUP7 ADD PUSH2 0x457 JUMP JUMPDEST SWAP3 POP POP PUSH1 0x20 DUP4 ADD CALLDATALOAD PUSH8 0xFFFFFFFFFFFFFFFF DUP2 GT ISZERO PUSH2 0x4E4 JUMPI PUSH2 0x4E3 PUSH2 0x354 JUMP JUMPDEST JUMPDEST PUSH2 0x4F0 DUP6 DUP3 DUP7 ADD PUSH2 0x457 JUMP JUMPDEST SWAP2 POP POP SWAP3 POP SWAP3 SWAP1 POP JUMP JUMPDEST PUSH32 0x4E487B7100000000000000000000000000000000000000000000000000000000 PUSH0 MSTORE PUSH1 0x22 PUSH1 0x4 MSTORE PUSH1 0x24 PUSH0 REVERT JUMPDEST PUSH0 PUSH1 0x2 DUP3 DIV SWAP1 POP PUSH1 0x1 DUP3 AND DUP1 PUSH2 0x53E JUMPI PUSH1 0x7F DUP3 AND SWAP2 POP JUMPDEST PUSH1 0x20 DUP3 LT DUP2 SUB PUSH2 0x551 JUMPI PUSH2 0x550 PUSH2 0x4FA JUMP JUMPDEST JUMPDEST POP SWAP2 SWAP1 POP JUMP JUMPDEST PUSH0 DUP2 SWAP1 POP DUP2 PUSH0 MSTORE PUSH1 0x20 PUSH0 KECCAK256 SWAP1 POP SWAP2 SWAP1 POP JUMP JUMPDEST PUSH0 PUSH1 0x20 PUSH1 0x1F DUP4 ADD DIV SWAP1 POP SWAP2 SWAP1 POP JUMP JUMPDEST PUSH0 DUP3 DUP3 SHL SWAP1 POP SWAP3 SWAP2 POP POP JUMP JUMPDEST PUSH0 PUSH1 0x8 DUP4 MUL PUSH2 0x5B3 PUSH32 0xFFFFFFFFFFFFFFFFFFFFFFFFFFFFFFFFFFFFFFFFFFFFFFFFFFFFFFFFFFFFFFFF DUP3 PUSH2 0x578 JUMP JUMPDEST PUSH2 0x5BD DUP7 DUP4 PUSH2 0x578 JUMP JUMPDEST SWAP6 POP DUP1 NOT DUP5 AND SWAP4 POP DUP1 DUP7 AND DUP5 OR SWAP3 POP POP POP SWAP4 SWAP3 POP POP POP JUMP JUMPDEST PUSH0 DUP2 SWAP1 POP SWAP2 SWAP1 POP JUMP JUMPDEST PUSH0 PUSH2 0x5F8 PUSH2 0x5F3 PUSH2 0x5EE DUP5 PUSH2 0x2DE JUMP JUMPDEST PUSH2 0x5D5 JUMP JUMPDEST PUSH2 0x2DE JUMP JUMPDEST SWAP1 POP SWAP2 SWAP1 POP JUMP JUMPDEST PUSH0 DUP2 SWAP1 POP SWAP2 SWAP1 POP JUMP JUMPDEST PUSH2 0x611 DUP4 PUSH2 0x5DE JUMP JUMPDEST PUSH2 0x625 PUSH2 0x61D DUP3 PUSH2 0x5FF JUMP JUMPDEST DUP5 DUP5 SLOAD PUSH2 0x584 JUMP JUMPDEST DUP3 SSTORE POP POP POP POP JUMP JUMPDEST PUSH0 SWAP1 JUMP JUMPDEST PUSH2 0x639 PUSH2 0x62D JUMP JUMPDEST PUSH2 0x644 DUP2 DUP5 DUP5 PUSH2 0x608 JUMP JUMPDEST POP POP POP JUMP JUMPDEST JUMPDEST DUP2 DUP2 LT ISZERO PUSH2 0x667 JUMPI PUSH2 0x65C PUSH0 DUP3 PUSH2 0x631 JUMP JUMPDEST PUSH1 0x1 DUP2 ADD SWAP1 POP PUSH2 0x64A JUMP JUMPDEST POP POP JUMP JUMPDEST PUSH1 0x1F DUP3 GT ISZERO PUSH2 0x6AC JUMPI PUSH2 0x67D DUP2 PUSH2 0x557 JUMP JUMPDEST PUSH2 0x686 DUP5 PUSH2 0x569 JUMP JUMPDEST DUP2 ADD PUSH1 0x20 DUP6 LT ISZERO PUSH2 0x695 JUMPI DUP2 SWAP1 POP JUMPDEST PUSH2 0x6A9 PUSH2 0x6A1 DUP6 PUSH2 0x569 JUMP JUMPDEST DUP4 ADD DUP3 PUSH2 0x649 JUMP JUMPDEST POP POP JUMPDEST POP POP POP JUMP JUMPDEST PUSH0 DUP3 DUP3 SHR SWAP1 POP SWAP3 SWAP2 POP POP JUMP JUMPDEST PUSH0 PUSH2 0x6CC PUSH0 NOT DUP5 PUSH1 0x8 MUL PUSH2 0x6B1 JUMP JUMPDEST NOT DUP1 DUP4 AND SWAP2 POP POP SWAP3 SWAP2 POP POP JUMP JUMPDEST PUSH0 PUSH2 0x6E4 DUP4 DUP4 PUSH2 0x6BD JUMP JUMPDEST SWAP2 POP DUP3 PUSH1 0x2 MUL DUP3 OR SWAP1 POP SWAP3 SWAP2 POP POP JUMP JUMPDEST PUSH2 0x6FD DUP3 PUSH2 0x22F JUMP JUMPDEST PUSH8 0xFFFFFFFFFFFFFFFF DUP2 GT ISZERO PUSH2 0x716 JUMPI PUSH2 0x715 PUSH2 0x360 JUMP JUMPDEST JUMPDEST PUSH2 0x720 DUP3 SLOAD PUSH2 0x527 JUMP JUMPDEST PUSH2 0x72B DUP3 DUP3 DUP6 PUSH2 0x66B JUMP JUMPDEST PUSH0 PUSH1 0x20 SWAP1 POP PUSH1 0x1F DUP4 GT PUSH1 0x1 DUP2 EQ PUSH2 0x75C JUMPI PUSH0 DUP5 ISZERO PUSH2 0x74A JUMPI DUP3 DUP8 ADD MLOAD SWAP1 POP JUMPDEST PUSH2 0x754 DUP6 DUP3 PUSH2 0x6D9 JUMP JUMPDEST DUP7 SSTORE POP PUSH2 0x7BB JUMP JUMPDEST PUSH1 0x1F NOT DUP5 AND PUSH2 0x76A DUP7 PUSH2 0x557 JUMP JUMPDEST PUSH0 JUMPDEST DUP3 DUP2 LT ISZERO PUSH2 0x791 JUMPI DUP5 DUP10 ADD MLOAD DUP3 SSTORE PUSH1 0x1 DUP3 ADD SWAP2 POP PUSH1 0x20 DUP6 ADD SWAP5 POP PUSH1 0x20 DUP2 ADD SWAP1 POP PUSH2 0x76C JUMP JUMPDEST DUP7 DUP4 LT ISZERO PUSH2 0x7AE JUMPI DUP5 DUP10 ADD MLOAD PUSH2 0x7AA PUSH1 0x1F DUP10 AND DUP3 PUSH2 0x6BD JUMP JUMPDEST DUP4 SSTORE POP JUMPDEST PUSH1 0x1 PUSH1 0x2 DUP9 MUL ADD DUP9 SSTORE POP POP POP JUMPDEST POP POP POP POP POP POP JUMP INVALID LOG2 PUSH5 0x6970667358 0x22 SLT KECCAK256 0xA6 LOG4 0xDC 0x27 PUSH10 0xE41FD7B552B1D54E412E SELFBALANCE 0xBD 0x28 0xB4 0xD9 DUP6 0xAC PUSH16 0x99D29EF768328530964736F6C634300 ADDMOD BYTE STOP CALLER "
		},
		"gasEstimates": {
			"creation": {
				"codeDepositCost": "408200",
				"executionCost": "441",
				"totalCost": "408641"
			},
			"external": {
				"escribirVisitaSC(string,string)": "infinite",
				"verUltimaVisitaSC()": "infinite"
			}
		},
		"methodIdentifiers": {
			"escribirVisitaSC(string,string)": "bd838405",
			"verUltimaVisitaSC()": "4bdd8280"
		}
	},
	"abi": [
		{
			"inputs": [
				{
					"internalType": "string",
					"name": "_nombre",
					"type": "string"
				},
				{
					"internalType": "string",
					"name": "_mensaje",
					"type": "string"
				}
			],
			"name": "escribirVisitaSC",
			"outputs": [],
			"stateMutability": "nonpayable",
			"type": "function"
		},
		{
			"inputs": [],
			"name": "verUltimaVisitaSC",
			"outputs": [
				{
					"internalType": "string",
					"name": "",
					"type": "string"
				},
				{
					"internalType": "address",
					"name": "",
					"type": "address"
				},
				{
					"internalType": "string",
					"name": "",
					"type": "string"
				},
				{
					"internalType": "uint256",
					"name": "",
					"type": "uint256"
				}
			],
			"stateMutability": "view",
			"type": "function"
		}
	]
}