{
	"data": {
		"bytecode": {
			"linkReferences": {},
			"object": "608060405263672b5a4060045562093a8060045461001d919061013c565b6005556611c37937e08000600655610258600755600560085560026009555f600a5f6101000a81548160ff02191690831515021790555034801561005f575f80fd5b5060405161193a38038061193a833981810160405281019061008191906101cd565b335f806101000a81548173ffffffffffffffffffffffffffffffffffffffff021916908373ffffffffffffffffffffffffffffffffffffffff1602179055508060025f6101000a81548173ffffffffffffffffffffffffffffffffffffffff021916908373ffffffffffffffffffffffffffffffffffffffff160217905550506101f8565b5f819050919050565b7f4e487b71000000000000000000000000000000000000000000000000000000005f52601160045260245ffd5b5f61014682610106565b915061015183610106565b92508282019050808211156101695761016861010f565b5b92915050565b5f80fd5b5f73ffffffffffffffffffffffffffffffffffffffff82169050919050565b5f61019c82610173565b9050919050565b6101ac81610192565b81146101b6575f80fd5b50565b5f815190506101c7816101a3565b92915050565b5f602082840312156101e2576101e161016f565b5b5f6101ef848285016101b9565b91505092915050565b611735806102055f395ff3fe608060405260043610610113575f3560e01c80636b595fbb1161009f578063e010707711610063578063e01070771461033f578063f292b25d14610369578063f4442c6514610393578063fbc08016146103bd578063ffbfc189146103e757610113565b80636b595fbb1461026c578063723a978d14610296578063753dcaeb146102c0578063acfc9f98146102eb578063c442a99f1461031557610113565b80635298a3c4116100e65780635298a3c41461018b57806356afff7c146101a15780636401f67f146101de578063664e62b91461020857806369ecf1311461024457610113565b80630851eac2146101175780633182237f1461012d5780633dfa138d146101575780633ec059d714610181575b5f80fd5b348015610122575f80fd5b5061012b610411565b005b348015610138575f80fd5b50610141610614565b60405161014e9190610ef3565b60405180910390f35b348015610162575f80fd5b5061016b610639565b6040516101789190610ef3565b60405180910390f35b61018961065c565b005b348015610196575f80fd5b5061019f6109c5565b005b3480156101ac575f80fd5b506101c760048036038101906101c29190610f43565b610b48565b6040516101d5929190610f7d565b60405180910390f35b3480156101e9575f80fd5b506101f2610b96565b6040516101ff9190610fa4565b60405180910390f35b348015610213575f80fd5b5061022e60048036038101906102299190610fe7565b610b9c565b60405161023b9190610fa4565b60405180910390f35b34801561024f575f80fd5b5061026a60048036038101906102659190610f43565b610bb1565b005b348015610277575f80fd5b50610280610d22565b60405161028d9190610fa4565b60405180910390f35b3480156102a1575f80fd5b506102aa610d28565b6040516102b79190610fa4565b60405180910390f35b3480156102cb575f80fd5b506102d4610d2e565b6040516102e2929190610f7d565b60405180910390f35b3480156102f6575f80fd5b506102ff610dab565b60405161030c9190610fa4565b60405180910390f35b348015610320575f80fd5b50610329610db1565b6040516103369190611105565b60405180910390f35b34801561034a575f80fd5b50610353610e6b565b6040516103609190610fa4565b60405180910390f35b348015610374575f80fd5b5061037d610e71565b60405161038a9190610fa4565b60405180910390f35b34801561039e575f80fd5b506103a7610e77565b6040516103b49190610ef3565b60405180910390f35b3480156103c8575f80fd5b506103d1610e9c565b6040516103de9190610fa4565b60405180910390f35b3480156103f2575f80fd5b506103fb610ea2565b604051610408919061113f565b60405180910390f35b5f8054906101000a900473ffffffffffffffffffffffffffffffffffffffff1673ffffffffffffffffffffffffffffffffffffffff163373ffffffffffffffffffffffffffffffffffffffff161461049e576040517f08c379a0000000000000000000000000000000000000000000000000000000008152600401610495906111d8565b60405180910390fd5b60045442101580156104b1575060055442105b6104f0576040517f08c379a00000000000000000000000000000000000000000000000000000000081526004016104e790611240565b60405180910390fd5b600554421015610535576040517f08c379a000000000000000000000000000000000000000000000000000000000815260040161052c906112a8565b60405180910390fd5b6001600a5f6101000a81548160ff0219169083151502179055507fa3a65b403bdae88eb037f4ecc1d619f436fc3ef6bcbbee3787757164e82883f260015f9054906101000a900473ffffffffffffffffffffffffffffffffffffffff166003546040516105a3929190610f7d565b60405180910390a160025f9054906101000a900473ffffffffffffffffffffffffffffffffffffffff1673ffffffffffffffffffffffffffffffffffffffff166108fc60035490811502906040515f60405180830381858888f19350505050158015610611573d5f803e3d5ffd5b50565b60025f9054906101000a900473ffffffffffffffffffffffffffffffffffffffff1681565b5f8054906101000a900473ffffffffffffffffffffffffffffffffffffffff1681565b6004544210156106a1576040517f08c379a000000000000000000000000000000000000000000000000000000000815260040161069890611310565b60405180910390fd5b60045442101580156106b4575060055442105b6106f3576040517f08c379a00000000000000000000000000000000000000000000000000000000081526004016106ea90611240565b60405180910390fd5b600654341015610738576040517f08c379a000000000000000000000000000000000000000000000000000000000815260040161072f9061139e565b60405180910390fd5b606460085460035461074a91906113e9565b6107549190611457565b6003546107619190611487565b3410156107a3576040517f08c379a000000000000000000000000000000000000000000000000000000000815260040161079a90611550565b60405180910390fd5b5f73ffffffffffffffffffffffffffffffffffffffff1660015f9054906101000a900473ffffffffffffffffffffffffffffffffffffffff1673ffffffffffffffffffffffffffffffffffffffff161461086e57600354600c5f60015f9054906101000a900473ffffffffffffffffffffffffffffffffffffffff1673ffffffffffffffffffffffffffffffffffffffff1673ffffffffffffffffffffffffffffffffffffffff1681526020019081526020015f205f8282546108669190611487565b925050819055505b3360015f6101000a81548173ffffffffffffffffffffffffffffffffffffffff021916908373ffffffffffffffffffffffffffffffffffffffff16021790555034600381905550600b60405180604001604052803373ffffffffffffffffffffffffffffffffffffffff16815260200134815250908060018154018082558091505060019003905f5260205f2090600202015f909190919091505f820151815f015f6101000a81548173ffffffffffffffffffffffffffffffffffffffff021916908373ffffffffffffffffffffffffffffffffffffffff1602179055506020820151816001015550507f155d469211f46e4d9ae974606f0878f9aacc6198ba30a1e6b9c8cf5627352fb53334604051610989929190610f7d565b60405180910390a16102586005546109a1919061156e565b4211156109c35760075460055f8282546109bb9190611487565b925050819055505b565b600a5f9054906101000a900460ff16610a13576040517f08c379a0000000000000000000000000000000000000000000000000000000008152600401610a0a906115eb565b60405180910390fd5b5f600c5f3373ffffffffffffffffffffffffffffffffffffffff1673ffffffffffffffffffffffffffffffffffffffff1681526020019081526020015f205490505f8111610a96576040517f08c379a0000000000000000000000000000000000000000000000000000000008152600401610a8d90611653565b60405180910390fd5b5f600c5f3373ffffffffffffffffffffffffffffffffffffffff1673ffffffffffffffffffffffffffffffffffffffff1681526020019081526020015f20819055505f606460095483610ae991906113e9565b610af39190611457565b82610afe919061156e565b90503373ffffffffffffffffffffffffffffffffffffffff166108fc8290811502906040515f60405180830381858888f19350505050158015610b43573d5f803e3d5ffd5b505050565b600b8181548110610b57575f80fd5b905f5260205f2090600202015f91509050805f015f9054906101000a900473ffffffffffffffffffffffffffffffffffffffff16908060010154905082565b60055481565b600c602052805f5260405f205f915090505481565b6004544210158015610bc4575060055442105b610c03576040517f08c379a0000000000000000000000000000000000000000000000000000000008152600401610bfa90611240565b60405180910390fd5b5f600c5f3373ffffffffffffffffffffffffffffffffffffffff1673ffffffffffffffffffffffffffffffffffffffff1681526020019081526020015f2054905081811015610c87576040517f08c379a0000000000000000000000000000000000000000000000000000000008152600401610c7e906116e1565b60405180910390fd5b81600c5f3373ffffffffffffffffffffffffffffffffffffffff1673ffffffffffffffffffffffffffffffffffffffff1681526020019081526020015f205f828254610cd3919061156e565b925050819055503373ffffffffffffffffffffffffffffffffffffffff166108fc8390811502906040515f60405180830381858888f19350505050158015610d1d573d5f803e3d5ffd5b505050565b60085481565b60045481565b5f80600a5f9054906101000a900460ff16610d7e576040517f08c379a0000000000000000000000000000000000000000000000000000000008152600401610d75906115eb565b60405180910390fd5b60015f9054906101000a900473ffffffffffffffffffffffffffffffffffffffff16600354915091509091565b60035481565b6060600b805480602002602001604051908101604052809291908181526020015f905b82821015610e62578382905f5260205f2090600202016040518060400160405290815f82015f9054906101000a900473ffffffffffffffffffffffffffffffffffffffff1673ffffffffffffffffffffffffffffffffffffffff1673ffffffffffffffffffffffffffffffffffffffff16815260200160018201548152505081526020019060010190610dd4565b50505050905090565b60065481565b60075481565b60015f9054906101000a900473ffffffffffffffffffffffffffffffffffffffff1681565b60095481565b600a5f9054906101000a900460ff1681565b5f73ffffffffffffffffffffffffffffffffffffffff82169050919050565b5f610edd82610eb4565b9050919050565b610eed81610ed3565b82525050565b5f602082019050610f065f830184610ee4565b92915050565b5f80fd5b5f819050919050565b610f2281610f10565b8114610f2c575f80fd5b50565b5f81359050610f3d81610f19565b92915050565b5f60208284031215610f5857610f57610f0c565b5b5f610f6584828501610f2f565b91505092915050565b610f7781610f10565b82525050565b5f604082019050610f905f830185610ee4565b610f9d6020830184610f6e565b9392505050565b5f602082019050610fb75f830184610f6e565b92915050565b610fc681610ed3565b8114610fd0575f80fd5b50565b5f81359050610fe181610fbd565b92915050565b5f60208284031215610ffc57610ffb610f0c565b5b5f61100984828501610fd3565b91505092915050565b5f81519050919050565b5f82825260208201905092915050565b5f819050602082019050919050565b61104481610ed3565b82525050565b61105381610f10565b82525050565b604082015f82015161106d5f85018261103b565b506020820151611080602085018261104a565b50505050565b5f6110918383611059565b60408301905092915050565b5f602082019050919050565b5f6110b382611012565b6110bd818561101c565b93506110c88361102c565b805f5b838110156110f85781516110df8882611086565b97506110ea8361109d565b9250506001810190506110cb565b5085935050505092915050565b5f6020820190508181035f83015261111d81846110a9565b905092915050565b5f8115159050919050565b61113981611125565b82525050565b5f6020820190506111525f830184611130565b92915050565b5f82825260208201905092915050565b7f536f6c6f20656c2073756261737461646f7220707565646520656a65637574615f8201527f7220657374612066756e63696f6e000000000000000000000000000000000000602082015250565b5f6111c2602e83611158565b91506111cd82611168565b604082019050919050565b5f6020820190508181035f8301526111ef816111b6565b9050919050565b7f4c612073756261737461206e6f206573746120616374697661000000000000005f82015250565b5f61122a601983611158565b9150611235826111f6565b602082019050919050565b5f6020820190508181035f8301526112578161121e565b9050919050565b7f4c6120737562617374612061756e206573746120656e20637572736f000000005f82015250565b5f611292601c83611158565b915061129d8261125e565b602082019050919050565b5f6020820190508181035f8301526112bf81611286565b9050919050565b7f4c6120737562617374612061756e206e6f20686120696e69636961646f0000005f82015250565b5f6112fa601d83611158565b9150611305826112c6565b602082019050919050565b5f6020820190508181035f830152611327816112ee565b9050919050565b7f4c61206f666572746120646562652073657220616c206d656e6f7320656c206d5f8201527f696e696d6f20646520302e303035204554480000000000000000000000000000602082015250565b5f611388603283611158565b91506113938261132e565b604082019050919050565b5f6020820190508181035f8301526113b58161137c565b9050919050565b7f4e487b71000000000000000000000000000000000000000000000000000000005f52601160045260245ffd5b5f6113f382610f10565b91506113fe83610f10565b925082820261140c81610f10565b91508282048414831517611423576114226113bc565b5b5092915050565b7f4e487b71000000000000000000000000000000000000000000000000000000005f52601260045260245ffd5b5f61146182610f10565b915061146c83610f10565b92508261147c5761147b61142a565b5b828204905092915050565b5f61149182610f10565b915061149c83610f10565b92508282019050808211156114b4576114b36113bc565b5b92915050565b7f4c61206f666572746120646562652073657220616c206d656e6f7320756e20355f8201527f25206d61796f7220717565206c61206d656a6f72206f6665727461206163747560208201527f616c000000000000000000000000000000000000000000000000000000000000604082015250565b5f61153a604283611158565b9150611545826114ba565b606082019050919050565b5f6020820190508181035f8301526115678161152e565b9050919050565b5f61157882610f10565b915061158383610f10565b925082820390508181111561159b5761159a6113bc565b5b92915050565b7f4c6120737562617374612061756e206e6f2068612066696e616c697a61646f005f82015250565b5f6115d5601f83611158565b91506115e0826115a1565b602082019050919050565b5f6020820190508181035f830152611602816115c9565b9050919050565b7f4e6f207469656e6573206465706f7369746f2070617261207265636c616d61725f82015250565b5f61163d602083611158565b915061164882611609565b602082019050919050565b5f6020820190508181035f83015261166a81611631565b9050919050565b7f4d6f6e746f206d61796f7220616c206465706f7369746f20646973706f6e69625f8201527f6c65000000000000000000000000000000000000000000000000000000000000602082015250565b5f6116cb602283611158565b91506116d682611671565b604082019050919050565b5f6020820190508181035f8301526116f8816116bf565b905091905056fea2646970667358221220d31b307c43bbd98876c6232c2256ae1a142efebdbd50a22aa0b545482d3acd3b64736f6c634300081a0033",
			"opcodes": "PUSH1 0x80 PUSH1 0x40 MSTORE PUSH4 0x672B5A40 PUSH1 0x4 SSTORE PUSH3 0x93A80 PUSH1 0x4 SLOAD PUSH2 0x1D SWAP2 SWAP1 PUSH2 0x13C JUMP JUMPDEST PUSH1 0x5 SSTORE PUSH7 0x11C37937E08000 PUSH1 0x6 SSTORE PUSH2 0x258 PUSH1 0x7 SSTORE PUSH1 0x5 PUSH1 0x8 SSTORE PUSH1 0x2 PUSH1 0x9 SSTORE PUSH0 PUSH1 0xA PUSH0 PUSH2 0x100 EXP DUP2 SLOAD DUP2 PUSH1 0xFF MUL NOT AND SWAP1 DUP4 ISZERO ISZERO MUL OR SWAP1 SSTORE POP CALLVALUE DUP1 ISZERO PUSH2 0x5F JUMPI PUSH0 DUP1 REVERT JUMPDEST POP PUSH1 0x40 MLOAD PUSH2 0x193A CODESIZE SUB DUP1 PUSH2 0x193A DUP4 CODECOPY DUP2 DUP2 ADD PUSH1 0x40 MSTORE DUP2 ADD SWAP1 PUSH2 0x81 SWAP2 SWAP1 PUSH2 0x1CD JUMP JUMPDEST CALLER PUSH0 DUP1 PUSH2 0x100 EXP DUP2 SLOAD DUP2 PUSH20 0xFFFFFFFFFFFFFFFFFFFFFFFFFFFFFFFFFFFFFFFF MUL NOT AND SWAP1 DUP4 PUSH20 0xFFFFFFFFFFFFFFFFFFFFFFFFFFFFFFFFFFFFFFFF AND MUL OR SWAP1 SSTORE POP DUP1 PUSH1 0x2 PUSH0 PUSH2 0x100 EXP DUP2 SLOAD DUP2 PUSH20 0xFFFFFFFFFFFFFFFFFFFFFFFFFFFFFFFFFFFFFFFF MUL NOT AND SWAP1 DUP4 PUSH20 0xFFFFFFFFFFFFFFFFFFFFFFFFFFFFFFFFFFFFFFFF AND MUL OR SWAP1 SSTORE POP POP PUSH2 0x1F8 JUMP JUMPDEST PUSH0 DUP2 SWAP1 POP SWAP2 SWAP1 POP JUMP JUMPDEST PUSH32 0x4E487B7100000000000000000000000000000000000000000000000000000000 PUSH0 MSTORE PUSH1 0x11 PUSH1 0x4 MSTORE PUSH1 0x24 PUSH0 REVERT JUMPDEST PUSH0 PUSH2 0x146 DUP3 PUSH2 0x106 JUMP JUMPDEST SWAP2 POP PUSH2 0x151 DUP4 PUSH2 0x106 JUMP JUMPDEST SWAP3 POP DUP3 DUP3 ADD SWAP1 POP DUP1 DUP3 GT ISZERO PUSH2 0x169 JUMPI PUSH2 0x168 PUSH2 0x10F JUMP JUMPDEST JUMPDEST SWAP3 SWAP2 POP POP JUMP JUMPDEST PUSH0 DUP1 REVERT JUMPDEST PUSH0 PUSH20 0xFFFFFFFFFFFFFFFFFFFFFFFFFFFFFFFFFFFFFFFF DUP3 AND SWAP1 POP SWAP2 SWAP1 POP JUMP JUMPDEST PUSH0 PUSH2 0x19C DUP3 PUSH2 0x173 JUMP JUMPDEST SWAP1 POP SWAP2 SWAP1 POP JUMP JUMPDEST PUSH2 0x1AC DUP2 PUSH2 0x192 JUMP JUMPDEST DUP2 EQ PUSH2 0x1B6 JUMPI PUSH0 DUP1 REVERT JUMPDEST POP JUMP JUMPDEST PUSH0 DUP2 MLOAD SWAP1 POP PUSH2 0x1C7 DUP2 PUSH2 0x1A3 JUMP JUMPDEST SWAP3 SWAP2 POP POP JUMP JUMPDEST PUSH0 PUSH1 0x20 DUP3 DUP5 SUB SLT ISZERO PUSH2 0x1E2 JUMPI PUSH2 0x1E1 PUSH2 0x16F JUMP JUMPDEST JUMPDEST PUSH0 PUSH2 0x1EF DUP5 DUP3 DUP6 ADD PUSH2 0x1B9 JUMP JUMPDEST SWAP2 POP POP SWAP3 SWAP2 POP POP JUMP JUMPDEST PUSH2 0x1735 DUP1 PUSH2 0x205 PUSH0 CODECOPY PUSH0 RETURN INVALID PUSH1 0x80 PUSH1 0x40 MSTORE PUSH1 0x4 CALLDATASIZE LT PUSH2 0x113 JUMPI PUSH0 CALLDATALOAD PUSH1 0xE0 SHR DUP1 PUSH4 0x6B595FBB GT PUSH2 0x9F JUMPI DUP1 PUSH4 0xE0107077 GT PUSH2 0x63 JUMPI DUP1 PUSH4 0xE0107077 EQ PUSH2 0x33F JUMPI DUP1 PUSH4 0xF292B25D EQ PUSH2 0x369 JUMPI DUP1 PUSH4 0xF4442C65 EQ PUSH2 0x393 JUMPI DUP1 PUSH4 0xFBC08016 EQ PUSH2 0x3BD JUMPI DUP1 PUSH4 0xFFBFC189 EQ PUSH2 0x3E7 JUMPI PUSH2 0x113 JUMP JUMPDEST DUP1 PUSH4 0x6B595FBB EQ PUSH2 0x26C JUMPI DUP1 PUSH4 0x723A978D EQ PUSH2 0x296 JUMPI DUP1 PUSH4 0x753DCAEB EQ PUSH2 0x2C0 JUMPI DUP1 PUSH4 0xACFC9F98 EQ PUSH2 0x2EB JUMPI DUP1 PUSH4 0xC442A99F EQ PUSH2 0x315 JUMPI PUSH2 0x113 JUMP JUMPDEST DUP1 PUSH4 0x5298A3C4 GT PUSH2 0xE6 JUMPI DUP1 PUSH4 0x5298A3C4 EQ PUSH2 0x18B JUMPI DUP1 PUSH4 0x56AFFF7C EQ PUSH2 0x1A1 JUMPI DUP1 PUSH4 0x6401F67F EQ PUSH2 0x1DE JUMPI DUP1 PUSH4 0x664E62B9 EQ PUSH2 0x208 JUMPI DUP1 PUSH4 0x69ECF131 EQ PUSH2 0x244 JUMPI PUSH2 0x113 JUMP JUMPDEST DUP1 PUSH4 0x851EAC2 EQ PUSH2 0x117 JUMPI DUP1 PUSH4 0x3182237F EQ PUSH2 0x12D JUMPI DUP1 PUSH4 0x3DFA138D EQ PUSH2 0x157 JUMPI DUP1 PUSH4 0x3EC059D7 EQ PUSH2 0x181 JUMPI JUMPDEST PUSH0 DUP1 REVERT JUMPDEST CALLVALUE DUP1 ISZERO PUSH2 0x122 JUMPI PUSH0 DUP1 REVERT JUMPDEST POP PUSH2 0x12B PUSH2 0x411 JUMP JUMPDEST STOP JUMPDEST CALLVALUE DUP1 ISZERO PUSH2 0x138 JUMPI PUSH0 DUP1 REVERT JUMPDEST POP PUSH2 0x141 PUSH2 0x614 JUMP JUMPDEST PUSH1 0x40 MLOAD PUSH2 0x14E SWAP2 SWAP1 PUSH2 0xEF3 JUMP JUMPDEST PUSH1 0x40 MLOAD DUP1 SWAP2 SUB SWAP1 RETURN JUMPDEST CALLVALUE DUP1 ISZERO PUSH2 0x162 JUMPI PUSH0 DUP1 REVERT JUMPDEST POP PUSH2 0x16B PUSH2 0x639 JUMP JUMPDEST PUSH1 0x40 MLOAD PUSH2 0x178 SWAP2 SWAP1 PUSH2 0xEF3 JUMP JUMPDEST PUSH1 0x40 MLOAD DUP1 SWAP2 SUB SWAP1 RETURN JUMPDEST PUSH2 0x189 PUSH2 0x65C JUMP JUMPDEST STOP JUMPDEST CALLVALUE DUP1 ISZERO PUSH2 0x196 JUMPI PUSH0 DUP1 REVERT JUMPDEST POP PUSH2 0x19F PUSH2 0x9C5 JUMP JUMPDEST STOP JUMPDEST CALLVALUE DUP1 ISZERO PUSH2 0x1AC JUMPI PUSH0 DUP1 REVERT JUMPDEST POP PUSH2 0x1C7 PUSH1 0x4 DUP1 CALLDATASIZE SUB DUP2 ADD SWAP1 PUSH2 0x1C2 SWAP2 SWAP1 PUSH2 0xF43 JUMP JUMPDEST PUSH2 0xB48 JUMP JUMPDEST PUSH1 0x40 MLOAD PUSH2 0x1D5 SWAP3 SWAP2 SWAP1 PUSH2 0xF7D JUMP JUMPDEST PUSH1 0x40 MLOAD DUP1 SWAP2 SUB SWAP1 RETURN JUMPDEST CALLVALUE DUP1 ISZERO PUSH2 0x1E9 JUMPI PUSH0 DUP1 REVERT JUMPDEST POP PUSH2 0x1F2 PUSH2 0xB96 JUMP JUMPDEST PUSH1 0x40 MLOAD PUSH2 0x1FF SWAP2 SWAP1 PUSH2 0xFA4 JUMP JUMPDEST PUSH1 0x40 MLOAD DUP1 SWAP2 SUB SWAP1 RETURN JUMPDEST CALLVALUE DUP1 ISZERO PUSH2 0x213 JUMPI PUSH0 DUP1 REVERT JUMPDEST POP PUSH2 0x22E PUSH1 0x4 DUP1 CALLDATASIZE SUB DUP2 ADD SWAP1 PUSH2 0x229 SWAP2 SWAP1 PUSH2 0xFE7 JUMP JUMPDEST PUSH2 0xB9C JUMP JUMPDEST PUSH1 0x40 MLOAD PUSH2 0x23B SWAP2 SWAP1 PUSH2 0xFA4 JUMP JUMPDEST PUSH1 0x40 MLOAD DUP1 SWAP2 SUB SWAP1 RETURN JUMPDEST CALLVALUE DUP1 ISZERO PUSH2 0x24F JUMPI PUSH0 DUP1 REVERT JUMPDEST POP PUSH2 0x26A PUSH1 0x4 DUP1 CALLDATASIZE SUB DUP2 ADD SWAP1 PUSH2 0x265 SWAP2 SWAP1 PUSH2 0xF43 JUMP JUMPDEST PUSH2 0xBB1 JUMP JUMPDEST STOP JUMPDEST CALLVALUE DUP1 ISZERO PUSH2 0x277 JUMPI PUSH0 DUP1 REVERT JUMPDEST POP PUSH2 0x280 PUSH2 0xD22 JUMP JUMPDEST PUSH1 0x40 MLOAD PUSH2 0x28D SWAP2 SWAP1 PUSH2 0xFA4 JUMP JUMPDEST PUSH1 0x40 MLOAD DUP1 SWAP2 SUB SWAP1 RETURN JUMPDEST CALLVALUE DUP1 ISZERO PUSH2 0x2A1 JUMPI PUSH0 DUP1 REVERT JUMPDEST POP PUSH2 0x2AA PUSH2 0xD28 JUMP JUMPDEST PUSH1 0x40 MLOAD PUSH2 0x2B7 SWAP2 SWAP1 PUSH2 0xFA4 JUMP JUMPDEST PUSH1 0x40 MLOAD DUP1 SWAP2 SUB SWAP1 RETURN JUMPDEST CALLVALUE DUP1 ISZERO PUSH2 0x2CB JUMPI PUSH0 DUP1 REVERT JUMPDEST POP PUSH2 0x2D4 PUSH2 0xD2E JUMP JUMPDEST PUSH1 0x40 MLOAD PUSH2 0x2E2 SWAP3 SWAP2 SWAP1 PUSH2 0xF7D JUMP JUMPDEST PUSH1 0x40 MLOAD DUP1 SWAP2 SUB SWAP1 RETURN JUMPDEST CALLVALUE DUP1 ISZERO PUSH2 0x2F6 JUMPI PUSH0 DUP1 REVERT JUMPDEST POP PUSH2 0x2FF PUSH2 0xDAB JUMP JUMPDEST PUSH1 0x40 MLOAD PUSH2 0x30C SWAP2 SWAP1 PUSH2 0xFA4 JUMP JUMPDEST PUSH1 0x40 MLOAD DUP1 SWAP2 SUB SWAP1 RETURN JUMPDEST CALLVALUE DUP1 ISZERO PUSH2 0x320 JUMPI PUSH0 DUP1 REVERT JUMPDEST POP PUSH2 0x329 PUSH2 0xDB1 JUMP JUMPDEST PUSH1 0x40 MLOAD PUSH2 0x336 SWAP2 SWAP1 PUSH2 0x1105 JUMP JUMPDEST PUSH1 0x40 MLOAD DUP1 SWAP2 SUB SWAP1 RETURN JUMPDEST CALLVALUE DUP1 ISZERO PUSH2 0x34A JUMPI PUSH0 DUP1 REVERT JUMPDEST POP PUSH2 0x353 PUSH2 0xE6B JUMP JUMPDEST PUSH1 0x40 MLOAD PUSH2 0x360 SWAP2 SWAP1 PUSH2 0xFA4 JUMP JUMPDEST PUSH1 0x40 MLOAD DUP1 SWAP2 SUB SWAP1 RETURN JUMPDEST CALLVALUE DUP1 ISZERO PUSH2 0x374 JUMPI PUSH0 DUP1 REVERT JUMPDEST POP PUSH2 0x37D PUSH2 0xE71 JUMP JUMPDEST PUSH1 0x40 MLOAD PUSH2 0x38A SWAP2 SWAP1 PUSH2 0xFA4 JUMP JUMPDEST PUSH1 0x40 MLOAD DUP1 SWAP2 SUB SWAP1 RETURN JUMPDEST CALLVALUE DUP1 ISZERO PUSH2 0x39E JUMPI PUSH0 DUP1 REVERT JUMPDEST POP PUSH2 0x3A7 PUSH2 0xE77 JUMP JUMPDEST PUSH1 0x40 MLOAD PUSH2 0x3B4 SWAP2 SWAP1 PUSH2 0xEF3 JUMP JUMPDEST PUSH1 0x40 MLOAD DUP1 SWAP2 SUB SWAP1 RETURN JUMPDEST CALLVALUE DUP1 ISZERO PUSH2 0x3C8 JUMPI PUSH0 DUP1 REVERT JUMPDEST POP PUSH2 0x3D1 PUSH2 0xE9C JUMP JUMPDEST PUSH1 0x40 MLOAD PUSH2 0x3DE SWAP2 SWAP1 PUSH2 0xFA4 JUMP JUMPDEST PUSH1 0x40 MLOAD DUP1 SWAP2 SUB SWAP1 RETURN JUMPDEST CALLVALUE DUP1 ISZERO PUSH2 0x3F2 JUMPI PUSH0 DUP1 REVERT JUMPDEST POP PUSH2 0x3FB PUSH2 0xEA2 JUMP JUMPDEST PUSH1 0x40 MLOAD PUSH2 0x408 SWAP2 SWAP1 PUSH2 0x113F JUMP JUMPDEST PUSH1 0x40 MLOAD DUP1 SWAP2 SUB SWAP1 RETURN JUMPDEST PUSH0 DUP1 SLOAD SWAP1 PUSH2 0x100 EXP SWAP1 DIV PUSH20 0xFFFFFFFFFFFFFFFFFFFFFFFFFFFFFFFFFFFFFFFF AND PUSH20 0xFFFFFFFFFFFFFFFFFFFFFFFFFFFFFFFFFFFFFFFF AND CALLER PUSH20 0xFFFFFFFFFFFFFFFFFFFFFFFFFFFFFFFFFFFFFFFF AND EQ PUSH2 0x49E JUMPI PUSH1 0x40 MLOAD PUSH32 0x8C379A000000000000000000000000000000000000000000000000000000000 DUP2 MSTORE PUSH1 0x4 ADD PUSH2 0x495 SWAP1 PUSH2 0x11D8 JUMP JUMPDEST PUSH1 0x40 MLOAD DUP1 SWAP2 SUB SWAP1 REVERT JUMPDEST PUSH1 0x4 SLOAD TIMESTAMP LT ISZERO DUP1 ISZERO PUSH2 0x4B1 JUMPI POP PUSH1 0x5 SLOAD TIMESTAMP LT JUMPDEST PUSH2 0x4F0 JUMPI PUSH1 0x40 MLOAD PUSH32 0x8C379A000000000000000000000000000000000000000000000000000000000 DUP2 MSTORE PUSH1 0x4 ADD PUSH2 0x4E7 SWAP1 PUSH2 0x1240 JUMP JUMPDEST PUSH1 0x40 MLOAD DUP1 SWAP2 SUB SWAP1 REVERT JUMPDEST PUSH1 0x5 SLOAD TIMESTAMP LT ISZERO PUSH2 0x535 JUMPI PUSH1 0x40 MLOAD PUSH32 0x8C379A000000000000000000000000000000000000000000000000000000000 DUP2 MSTORE PUSH1 0x4 ADD PUSH2 0x52C SWAP1 PUSH2 0x12A8 JUMP JUMPDEST PUSH1 0x40 MLOAD DUP1 SWAP2 SUB SWAP1 REVERT JUMPDEST PUSH1 0x1 PUSH1 0xA PUSH0 PUSH2 0x100 EXP DUP2 SLOAD DUP2 PUSH1 0xFF MUL NOT AND SWAP1 DUP4 ISZERO ISZERO MUL OR SWAP1 SSTORE POP PUSH32 0xA3A65B403BDAE88EB037F4ECC1D619F436FC3EF6BCBBEE3787757164E82883F2 PUSH1 0x1 PUSH0 SWAP1 SLOAD SWAP1 PUSH2 0x100 EXP SWAP1 DIV PUSH20 0xFFFFFFFFFFFFFFFFFFFFFFFFFFFFFFFFFFFFFFFF AND PUSH1 0x3 SLOAD PUSH1 0x40 MLOAD PUSH2 0x5A3 SWAP3 SWAP2 SWAP1 PUSH2 0xF7D JUMP JUMPDEST PUSH1 0x40 MLOAD DUP1 SWAP2 SUB SWAP1 LOG1 PUSH1 0x2 PUSH0 SWAP1 SLOAD SWAP1 PUSH2 0x100 EXP SWAP1 DIV PUSH20 0xFFFFFFFFFFFFFFFFFFFFFFFFFFFFFFFFFFFFFFFF AND PUSH20 0xFFFFFFFFFFFFFFFFFFFFFFFFFFFFFFFFFFFFFFFF AND PUSH2 0x8FC PUSH1 0x3 SLOAD SWAP1 DUP2 ISZERO MUL SWAP1 PUSH1 0x40 MLOAD PUSH0 PUSH1 0x40 MLOAD DUP1 DUP4 SUB DUP2 DUP6 DUP9 DUP9 CALL SWAP4 POP POP POP POP ISZERO DUP1 ISZERO PUSH2 0x611 JUMPI RETURNDATASIZE PUSH0 DUP1 RETURNDATACOPY RETURNDATASIZE PUSH0 REVERT JUMPDEST POP JUMP JUMPDEST PUSH1 0x2 PUSH0 SWAP1 SLOAD SWAP1 PUSH2 0x100 EXP SWAP1 DIV PUSH20 0xFFFFFFFFFFFFFFFFFFFFFFFFFFFFFFFFFFFFFFFF AND DUP2 JUMP JUMPDEST PUSH0 DUP1 SLOAD SWAP1 PUSH2 0x100 EXP SWAP1 DIV PUSH20 0xFFFFFFFFFFFFFFFFFFFFFFFFFFFFFFFFFFFFFFFF AND DUP2 JUMP JUMPDEST PUSH1 0x4 SLOAD TIMESTAMP LT ISZERO PUSH2 0x6A1 JUMPI PUSH1 0x40 MLOAD PUSH32 0x8C379A000000000000000000000000000000000000000000000000000000000 DUP2 MSTORE PUSH1 0x4 ADD PUSH2 0x698 SWAP1 PUSH2 0x1310 JUMP JUMPDEST PUSH1 0x40 MLOAD DUP1 SWAP2 SUB SWAP1 REVERT JUMPDEST PUSH1 0x4 SLOAD TIMESTAMP LT ISZERO DUP1 ISZERO PUSH2 0x6B4 JUMPI POP PUSH1 0x5 SLOAD TIMESTAMP LT JUMPDEST PUSH2 0x6F3 JUMPI PUSH1 0x40 MLOAD PUSH32 0x8C379A000000000000000000000000000000000000000000000000000000000 DUP2 MSTORE PUSH1 0x4 ADD PUSH2 0x6EA SWAP1 PUSH2 0x1240 JUMP JUMPDEST PUSH1 0x40 MLOAD DUP1 SWAP2 SUB SWAP1 REVERT JUMPDEST PUSH1 0x6 SLOAD CALLVALUE LT ISZERO PUSH2 0x738 JUMPI PUSH1 0x40 MLOAD PUSH32 0x8C379A000000000000000000000000000000000000000000000000000000000 DUP2 MSTORE PUSH1 0x4 ADD PUSH2 0x72F SWAP1 PUSH2 0x139E JUMP JUMPDEST PUSH1 0x40 MLOAD DUP1 SWAP2 SUB SWAP1 REVERT JUMPDEST PUSH1 0x64 PUSH1 0x8 SLOAD PUSH1 0x3 SLOAD PUSH2 0x74A SWAP2 SWAP1 PUSH2 0x13E9 JUMP JUMPDEST PUSH2 0x754 SWAP2 SWAP1 PUSH2 0x1457 JUMP JUMPDEST PUSH1 0x3 SLOAD PUSH2 0x761 SWAP2 SWAP1 PUSH2 0x1487 JUMP JUMPDEST CALLVALUE LT ISZERO PUSH2 0x7A3 JUMPI PUSH1 0x40 MLOAD PUSH32 0x8C379A000000000000000000000000000000000000000000000000000000000 DUP2 MSTORE PUSH1 0x4 ADD PUSH2 0x79A SWAP1 PUSH2 0x1550 JUMP JUMPDEST PUSH1 0x40 MLOAD DUP1 SWAP2 SUB SWAP1 REVERT JUMPDEST PUSH0 PUSH20 0xFFFFFFFFFFFFFFFFFFFFFFFFFFFFFFFFFFFFFFFF AND PUSH1 0x1 PUSH0 SWAP1 SLOAD SWAP1 PUSH2 0x100 EXP SWAP1 DIV PUSH20 0xFFFFFFFFFFFFFFFFFFFFFFFFFFFFFFFFFFFFFFFF AND PUSH20 0xFFFFFFFFFFFFFFFFFFFFFFFFFFFFFFFFFFFFFFFF AND EQ PUSH2 0x86E JUMPI PUSH1 0x3 SLOAD PUSH1 0xC PUSH0 PUSH1 0x1 PUSH0 SWAP1 SLOAD SWAP1 PUSH2 0x100 EXP SWAP1 DIV PUSH20 0xFFFFFFFFFFFFFFFFFFFFFFFFFFFFFFFFFFFFFFFF AND PUSH20 0xFFFFFFFFFFFFFFFFFFFFFFFFFFFFFFFFFFFFFFFF AND PUSH20 0xFFFFFFFFFFFFFFFFFFFFFFFFFFFFFFFFFFFFFFFF AND DUP2 MSTORE PUSH1 0x20 ADD SWAP1 DUP2 MSTORE PUSH1 0x20 ADD PUSH0 KECCAK256 PUSH0 DUP3 DUP3 SLOAD PUSH2 0x866 SWAP2 SWAP1 PUSH2 0x1487 JUMP JUMPDEST SWAP3 POP POP DUP2 SWAP1 SSTORE POP JUMPDEST CALLER PUSH1 0x1 PUSH0 PUSH2 0x100 EXP DUP2 SLOAD DUP2 PUSH20 0xFFFFFFFFFFFFFFFFFFFFFFFFFFFFFFFFFFFFFFFF MUL NOT AND SWAP1 DUP4 PUSH20 0xFFFFFFFFFFFFFFFFFFFFFFFFFFFFFFFFFFFFFFFF AND MUL OR SWAP1 SSTORE POP CALLVALUE PUSH1 0x3 DUP2 SWAP1 SSTORE POP PUSH1 0xB PUSH1 0x40 MLOAD DUP1 PUSH1 0x40 ADD PUSH1 0x40 MSTORE DUP1 CALLER PUSH20 0xFFFFFFFFFFFFFFFFFFFFFFFFFFFFFFFFFFFFFFFF AND DUP2 MSTORE PUSH1 0x20 ADD CALLVALUE DUP2 MSTORE POP SWAP1 DUP1 PUSH1 0x1 DUP2 SLOAD ADD DUP1 DUP3 SSTORE DUP1 SWAP2 POP POP PUSH1 0x1 SWAP1 SUB SWAP1 PUSH0 MSTORE PUSH1 0x20 PUSH0 KECCAK256 SWAP1 PUSH1 0x2 MUL ADD PUSH0 SWAP1 SWAP2 SWAP1 SWAP2 SWAP1 SWAP2 POP PUSH0 DUP3 ADD MLOAD DUP2 PUSH0 ADD PUSH0 PUSH2 0x100 EXP DUP2 SLOAD DUP2 PUSH20 0xFFFFFFFFFFFFFFFFFFFFFFFFFFFFFFFFFFFFFFFF MUL NOT AND SWAP1 DUP4 PUSH20 0xFFFFFFFFFFFFFFFFFFFFFFFFFFFFFFFFFFFFFFFF AND MUL OR SWAP1 SSTORE POP PUSH1 0x20 DUP3 ADD MLOAD DUP2 PUSH1 0x1 ADD SSTORE POP POP PUSH32 0x155D469211F46E4D9AE974606F0878F9AACC6198BA30A1E6B9C8CF5627352FB5 CALLER CALLVALUE PUSH1 0x40 MLOAD PUSH2 0x989 SWAP3 SWAP2 SWAP1 PUSH2 0xF7D JUMP JUMPDEST PUSH1 0x40 MLOAD DUP1 SWAP2 SUB SWAP1 LOG1 PUSH2 0x258 PUSH1 0x5 SLOAD PUSH2 0x9A1 SWAP2 SWAP1 PUSH2 0x156E JUMP JUMPDEST TIMESTAMP GT ISZERO PUSH2 0x9C3 JUMPI PUSH1 0x7 SLOAD PUSH1 0x5 PUSH0 DUP3 DUP3 SLOAD PUSH2 0x9BB SWAP2 SWAP1 PUSH2 0x1487 JUMP JUMPDEST SWAP3 POP POP DUP2 SWAP1 SSTORE POP JUMPDEST JUMP JUMPDEST PUSH1 0xA PUSH0 SWAP1 SLOAD SWAP1 PUSH2 0x100 EXP SWAP1 DIV PUSH1 0xFF AND PUSH2 0xA13 JUMPI PUSH1 0x40 MLOAD PUSH32 0x8C379A000000000000000000000000000000000000000000000000000000000 DUP2 MSTORE PUSH1 0x4 ADD PUSH2 0xA0A SWAP1 PUSH2 0x15EB JUMP JUMPDEST PUSH1 0x40 MLOAD DUP1 SWAP2 SUB SWAP1 REVERT JUMPDEST PUSH0 PUSH1 0xC PUSH0 CALLER PUSH20 0xFFFFFFFFFFFFFFFFFFFFFFFFFFFFFFFFFFFFFFFF AND PUSH20 0xFFFFFFFFFFFFFFFFFFFFFFFFFFFFFFFFFFFFFFFF AND DUP2 MSTORE PUSH1 0x20 ADD SWAP1 DUP2 MSTORE PUSH1 0x20 ADD PUSH0 KECCAK256 SLOAD SWAP1 POP PUSH0 DUP2 GT PUSH2 0xA96 JUMPI PUSH1 0x40 MLOAD PUSH32 0x8C379A000000000000000000000000000000000000000000000000000000000 DUP2 MSTORE PUSH1 0x4 ADD PUSH2 0xA8D SWAP1 PUSH2 0x1653 JUMP JUMPDEST PUSH1 0x40 MLOAD DUP1 SWAP2 SUB SWAP1 REVERT JUMPDEST PUSH0 PUSH1 0xC PUSH0 CALLER PUSH20 0xFFFFFFFFFFFFFFFFFFFFFFFFFFFFFFFFFFFFFFFF AND PUSH20 0xFFFFFFFFFFFFFFFFFFFFFFFFFFFFFFFFFFFFFFFF AND DUP2 MSTORE PUSH1 0x20 ADD SWAP1 DUP2 MSTORE PUSH1 0x20 ADD PUSH0 KECCAK256 DUP2 SWAP1 SSTORE POP PUSH0 PUSH1 0x64 PUSH1 0x9 SLOAD DUP4 PUSH2 0xAE9 SWAP2 SWAP1 PUSH2 0x13E9 JUMP JUMPDEST PUSH2 0xAF3 SWAP2 SWAP1 PUSH2 0x1457 JUMP JUMPDEST DUP3 PUSH2 0xAFE SWAP2 SWAP1 PUSH2 0x156E JUMP JUMPDEST SWAP1 POP CALLER PUSH20 0xFFFFFFFFFFFFFFFFFFFFFFFFFFFFFFFFFFFFFFFF AND PUSH2 0x8FC DUP3 SWAP1 DUP2 ISZERO MUL SWAP1 PUSH1 0x40 MLOAD PUSH0 PUSH1 0x40 MLOAD DUP1 DUP4 SUB DUP2 DUP6 DUP9 DUP9 CALL SWAP4 POP POP POP POP ISZERO DUP1 ISZERO PUSH2 0xB43 JUMPI RETURNDATASIZE PUSH0 DUP1 RETURNDATACOPY RETURNDATASIZE PUSH0 REVERT JUMPDEST POP POP POP JUMP JUMPDEST PUSH1 0xB DUP2 DUP2 SLOAD DUP2 LT PUSH2 0xB57 JUMPI PUSH0 DUP1 REVERT JUMPDEST SWAP1 PUSH0 MSTORE PUSH1 0x20 PUSH0 KECCAK256 SWAP1 PUSH1 0x2 MUL ADD PUSH0 SWAP2 POP SWAP1 POP DUP1 PUSH0 ADD PUSH0 SWAP1 SLOAD SWAP1 PUSH2 0x100 EXP SWAP1 DIV PUSH20 0xFFFFFFFFFFFFFFFFFFFFFFFFFFFFFFFFFFFFFFFF AND SWAP1 DUP1 PUSH1 0x1 ADD SLOAD SWAP1 POP DUP3 JUMP JUMPDEST PUSH1 0x5 SLOAD DUP2 JUMP JUMPDEST PUSH1 0xC PUSH1 0x20 MSTORE DUP1 PUSH0 MSTORE PUSH1 0x40 PUSH0 KECCAK256 PUSH0 SWAP2 POP SWAP1 POP SLOAD DUP2 JUMP JUMPDEST PUSH1 0x4 SLOAD TIMESTAMP LT ISZERO DUP1 ISZERO PUSH2 0xBC4 JUMPI POP PUSH1 0x5 SLOAD TIMESTAMP LT JUMPDEST PUSH2 0xC03 JUMPI PUSH1 0x40 MLOAD PUSH32 0x8C379A000000000000000000000000000000000000000000000000000000000 DUP2 MSTORE PUSH1 0x4 ADD PUSH2 0xBFA SWAP1 PUSH2 0x1240 JUMP JUMPDEST PUSH1 0x40 MLOAD DUP1 SWAP2 SUB SWAP1 REVERT JUMPDEST PUSH0 PUSH1 0xC PUSH0 CALLER PUSH20 0xFFFFFFFFFFFFFFFFFFFFFFFFFFFFFFFFFFFFFFFF AND PUSH20 0xFFFFFFFFFFFFFFFFFFFFFFFFFFFFFFFFFFFFFFFF AND DUP2 MSTORE PUSH1 0x20 ADD SWAP1 DUP2 MSTORE PUSH1 0x20 ADD PUSH0 KECCAK256 SLOAD SWAP1 POP DUP2 DUP2 LT ISZERO PUSH2 0xC87 JUMPI PUSH1 0x40 MLOAD PUSH32 0x8C379A000000000000000000000000000000000000000000000000000000000 DUP2 MSTORE PUSH1 0x4 ADD PUSH2 0xC7E SWAP1 PUSH2 0x16E1 JUMP JUMPDEST PUSH1 0x40 MLOAD DUP1 SWAP2 SUB SWAP1 REVERT JUMPDEST DUP2 PUSH1 0xC PUSH0 CALLER PUSH20 0xFFFFFFFFFFFFFFFFFFFFFFFFFFFFFFFFFFFFFFFF AND PUSH20 0xFFFFFFFFFFFFFFFFFFFFFFFFFFFFFFFFFFFFFFFF AND DUP2 MSTORE PUSH1 0x20 ADD SWAP1 DUP2 MSTORE PUSH1 0x20 ADD PUSH0 KECCAK256 PUSH0 DUP3 DUP3 SLOAD PUSH2 0xCD3 SWAP2 SWAP1 PUSH2 0x156E JUMP JUMPDEST SWAP3 POP POP DUP2 SWAP1 SSTORE POP CALLER PUSH20 0xFFFFFFFFFFFFFFFFFFFFFFFFFFFFFFFFFFFFFFFF AND PUSH2 0x8FC DUP4 SWAP1 DUP2 ISZERO MUL SWAP1 PUSH1 0x40 MLOAD PUSH0 PUSH1 0x40 MLOAD DUP1 DUP4 SUB DUP2 DUP6 DUP9 DUP9 CALL SWAP4 POP POP POP POP ISZERO DUP1 ISZERO PUSH2 0xD1D JUMPI RETURNDATASIZE PUSH0 DUP1 RETURNDATACOPY RETURNDATASIZE PUSH0 REVERT JUMPDEST POP POP POP JUMP JUMPDEST PUSH1 0x8 SLOAD DUP2 JUMP JUMPDEST PUSH1 0x4 SLOAD DUP2 JUMP JUMPDEST PUSH0 DUP1 PUSH1 0xA PUSH0 SWAP1 SLOAD SWAP1 PUSH2 0x100 EXP SWAP1 DIV PUSH1 0xFF AND PUSH2 0xD7E JUMPI PUSH1 0x40 MLOAD PUSH32 0x8C379A000000000000000000000000000000000000000000000000000000000 DUP2 MSTORE PUSH1 0x4 ADD PUSH2 0xD75 SWAP1 PUSH2 0x15EB JUMP JUMPDEST PUSH1 0x40 MLOAD DUP1 SWAP2 SUB SWAP1 REVERT JUMPDEST PUSH1 0x1 PUSH0 SWAP1 SLOAD SWAP1 PUSH2 0x100 EXP SWAP1 DIV PUSH20 0xFFFFFFFFFFFFFFFFFFFFFFFFFFFFFFFFFFFFFFFF AND PUSH1 0x3 SLOAD SWAP2 POP SWAP2 POP SWAP1 SWAP2 JUMP JUMPDEST PUSH1 0x3 SLOAD DUP2 JUMP JUMPDEST PUSH1 0x60 PUSH1 0xB DUP1 SLOAD DUP1 PUSH1 0x20 MUL PUSH1 0x20 ADD PUSH1 0x40 MLOAD SWAP1 DUP2 ADD PUSH1 0x40 MSTORE DUP1 SWAP3 SWAP2 SWAP1 DUP2 DUP2 MSTORE PUSH1 0x20 ADD PUSH0 SWAP1 JUMPDEST DUP3 DUP3 LT ISZERO PUSH2 0xE62 JUMPI DUP4 DUP3 SWAP1 PUSH0 MSTORE PUSH1 0x20 PUSH0 KECCAK256 SWAP1 PUSH1 0x2 MUL ADD PUSH1 0x40 MLOAD DUP1 PUSH1 0x40 ADD PUSH1 0x40 MSTORE SWAP1 DUP2 PUSH0 DUP3 ADD PUSH0 SWAP1 SLOAD SWAP1 PUSH2 0x100 EXP SWAP1 DIV PUSH20 0xFFFFFFFFFFFFFFFFFFFFFFFFFFFFFFFFFFFFFFFF AND PUSH20 0xFFFFFFFFFFFFFFFFFFFFFFFFFFFFFFFFFFFFFFFF AND PUSH20 0xFFFFFFFFFFFFFFFFFFFFFFFFFFFFFFFFFFFFFFFF AND DUP2 MSTORE PUSH1 0x20 ADD PUSH1 0x1 DUP3 ADD SLOAD DUP2 MSTORE POP POP DUP2 MSTORE PUSH1 0x20 ADD SWAP1 PUSH1 0x1 ADD SWAP1 PUSH2 0xDD4 JUMP JUMPDEST POP POP POP POP SWAP1 POP SWAP1 JUMP JUMPDEST PUSH1 0x6 SLOAD DUP2 JUMP JUMPDEST PUSH1 0x7 SLOAD DUP2 JUMP JUMPDEST PUSH1 0x1 PUSH0 SWAP1 SLOAD SWAP1 PUSH2 0x100 EXP SWAP1 DIV PUSH20 0xFFFFFFFFFFFFFFFFFFFFFFFFFFFFFFFFFFFFFFFF AND DUP2 JUMP JUMPDEST PUSH1 0x9 SLOAD DUP2 JUMP JUMPDEST PUSH1 0xA PUSH0 SWAP1 SLOAD SWAP1 PUSH2 0x100 EXP SWAP1 DIV PUSH1 0xFF AND DUP2 JUMP JUMPDEST PUSH0 PUSH20 0xFFFFFFFFFFFFFFFFFFFFFFFFFFFFFFFFFFFFFFFF DUP3 AND SWAP1 POP SWAP2 SWAP1 POP JUMP JUMPDEST PUSH0 PUSH2 0xEDD DUP3 PUSH2 0xEB4 JUMP JUMPDEST SWAP1 POP SWAP2 SWAP1 POP JUMP JUMPDEST PUSH2 0xEED DUP2 PUSH2 0xED3 JUMP JUMPDEST DUP3 MSTORE POP POP JUMP JUMPDEST PUSH0 PUSH1 0x20 DUP3 ADD SWAP1 POP PUSH2 0xF06 PUSH0 DUP4 ADD DUP5 PUSH2 0xEE4 JUMP JUMPDEST SWAP3 SWAP2 POP POP JUMP JUMPDEST PUSH0 DUP1 REVERT JUMPDEST PUSH0 DUP2 SWAP1 POP SWAP2 SWAP1 POP JUMP JUMPDEST PUSH2 0xF22 DUP2 PUSH2 0xF10 JUMP JUMPDEST DUP2 EQ PUSH2 0xF2C JUMPI PUSH0 DUP1 REVERT JUMPDEST POP JUMP JUMPDEST PUSH0 DUP2 CALLDATALOAD SWAP1 POP PUSH2 0xF3D DUP2 PUSH2 0xF19 JUMP JUMPDEST SWAP3 SWAP2 POP POP JUMP JUMPDEST PUSH0 PUSH1 0x20 DUP3 DUP5 SUB SLT ISZERO PUSH2 0xF58 JUMPI PUSH2 0xF57 PUSH2 0xF0C JUMP JUMPDEST JUMPDEST PUSH0 PUSH2 0xF65 DUP5 DUP3 DUP6 ADD PUSH2 0xF2F JUMP JUMPDEST SWAP2 POP POP SWAP3 SWAP2 POP POP JUMP JUMPDEST PUSH2 0xF77 DUP2 PUSH2 0xF10 JUMP JUMPDEST DUP3 MSTORE POP POP JUMP JUMPDEST PUSH0 PUSH1 0x40 DUP3 ADD SWAP1 POP PUSH2 0xF90 PUSH0 DUP4 ADD DUP6 PUSH2 0xEE4 JUMP JUMPDEST PUSH2 0xF9D PUSH1 0x20 DUP4 ADD DUP5 PUSH2 0xF6E JUMP JUMPDEST SWAP4 SWAP3 POP POP POP JUMP JUMPDEST PUSH0 PUSH1 0x20 DUP3 ADD SWAP1 POP PUSH2 0xFB7 PUSH0 DUP4 ADD DUP5 PUSH2 0xF6E JUMP JUMPDEST SWAP3 SWAP2 POP POP JUMP JUMPDEST PUSH2 0xFC6 DUP2 PUSH2 0xED3 JUMP JUMPDEST DUP2 EQ PUSH2 0xFD0 JUMPI PUSH0 DUP1 REVERT JUMPDEST POP JUMP JUMPDEST PUSH0 DUP2 CALLDATALOAD SWAP1 POP PUSH2 0xFE1 DUP2 PUSH2 0xFBD JUMP JUMPDEST SWAP3 SWAP2 POP POP JUMP JUMPDEST PUSH0 PUSH1 0x20 DUP3 DUP5 SUB SLT ISZERO PUSH2 0xFFC JUMPI PUSH2 0xFFB PUSH2 0xF0C JUMP JUMPDEST JUMPDEST PUSH0 PUSH2 0x1009 DUP5 DUP3 DUP6 ADD PUSH2 0xFD3 JUMP JUMPDEST SWAP2 POP POP SWAP3 SWAP2 POP POP JUMP JUMPDEST PUSH0 DUP2 MLOAD SWAP1 POP SWAP2 SWAP1 POP JUMP JUMPDEST PUSH0 DUP3 DUP3 MSTORE PUSH1 0x20 DUP3 ADD SWAP1 POP SWAP3 SWAP2 POP POP JUMP JUMPDEST PUSH0 DUP2 SWAP1 POP PUSH1 0x20 DUP3 ADD SWAP1 POP SWAP2 SWAP1 POP JUMP JUMPDEST PUSH2 0x1044 DUP2 PUSH2 0xED3 JUMP JUMPDEST DUP3 MSTORE POP POP JUMP JUMPDEST PUSH2 0x1053 DUP2 PUSH2 0xF10 JUMP JUMPDEST DUP3 MSTORE POP POP JUMP JUMPDEST PUSH1 0x40 DUP3 ADD PUSH0 DUP3 ADD MLOAD PUSH2 0x106D PUSH0 DUP6 ADD DUP3 PUSH2 0x103B JUMP JUMPDEST POP PUSH1 0x20 DUP3 ADD MLOAD PUSH2 0x1080 PUSH1 0x20 DUP6 ADD DUP3 PUSH2 0x104A JUMP JUMPDEST POP POP POP POP JUMP JUMPDEST PUSH0 PUSH2 0x1091 DUP4 DUP4 PUSH2 0x1059 JUMP JUMPDEST PUSH1 0x40 DUP4 ADD SWAP1 POP SWAP3 SWAP2 POP POP JUMP JUMPDEST PUSH0 PUSH1 0x20 DUP3 ADD SWAP1 POP SWAP2 SWAP1 POP JUMP JUMPDEST PUSH0 PUSH2 0x10B3 DUP3 PUSH2 0x1012 JUMP JUMPDEST PUSH2 0x10BD DUP2 DUP6 PUSH2 0x101C JUMP JUMPDEST SWAP4 POP PUSH2 0x10C8 DUP4 PUSH2 0x102C JUMP JUMPDEST DUP1 PUSH0 JUMPDEST DUP4 DUP2 LT ISZERO PUSH2 0x10F8 JUMPI DUP2 MLOAD PUSH2 0x10DF DUP9 DUP3 PUSH2 0x1086 JUMP JUMPDEST SWAP8 POP PUSH2 0x10EA DUP4 PUSH2 0x109D JUMP JUMPDEST SWAP3 POP POP PUSH1 0x1 DUP2 ADD SWAP1 POP PUSH2 0x10CB JUMP JUMPDEST POP DUP6 SWAP4 POP POP POP POP SWAP3 SWAP2 POP POP JUMP JUMPDEST PUSH0 PUSH1 0x20 DUP3 ADD SWAP1 POP DUP2 DUP2 SUB PUSH0 DUP4 ADD MSTORE PUSH2 0x111D DUP2 DUP5 PUSH2 0x10A9 JUMP JUMPDEST SWAP1 POP SWAP3 SWAP2 POP POP JUMP JUMPDEST PUSH0 DUP2 ISZERO ISZERO SWAP1 POP SWAP2 SWAP1 POP JUMP JUMPDEST PUSH2 0x1139 DUP2 PUSH2 0x1125 JUMP JUMPDEST DUP3 MSTORE POP POP JUMP JUMPDEST PUSH0 PUSH1 0x20 DUP3 ADD SWAP1 POP PUSH2 0x1152 PUSH0 DUP4 ADD DUP5 PUSH2 0x1130 JUMP JUMPDEST SWAP3 SWAP2 POP POP JUMP JUMPDEST PUSH0 DUP3 DUP3 MSTORE PUSH1 0x20 DUP3 ADD SWAP1 POP SWAP3 SWAP2 POP POP JUMP JUMPDEST PUSH32 0x536F6C6F20656C2073756261737461646F7220707565646520656A6563757461 PUSH0 DUP3 ADD MSTORE PUSH32 0x7220657374612066756E63696F6E000000000000000000000000000000000000 PUSH1 0x20 DUP3 ADD MSTORE POP JUMP JUMPDEST PUSH0 PUSH2 0x11C2 PUSH1 0x2E DUP4 PUSH2 0x1158 JUMP JUMPDEST SWAP2 POP PUSH2 0x11CD DUP3 PUSH2 0x1168 JUMP JUMPDEST PUSH1 0x40 DUP3 ADD SWAP1 POP SWAP2 SWAP1 POP JUMP JUMPDEST PUSH0 PUSH1 0x20 DUP3 ADD SWAP1 POP DUP2 DUP2 SUB PUSH0 DUP4 ADD MSTORE PUSH2 0x11EF DUP2 PUSH2 0x11B6 JUMP JUMPDEST SWAP1 POP SWAP2 SWAP1 POP JUMP JUMPDEST PUSH32 0x4C612073756261737461206E6F20657374612061637469766100000000000000 PUSH0 DUP3 ADD MSTORE POP JUMP JUMPDEST PUSH0 PUSH2 0x122A PUSH1 0x19 DUP4 PUSH2 0x1158 JUMP JUMPDEST SWAP2 POP PUSH2 0x1235 DUP3 PUSH2 0x11F6 JUMP JUMPDEST PUSH1 0x20 DUP3 ADD SWAP1 POP SWAP2 SWAP1 POP JUMP JUMPDEST PUSH0 PUSH1 0x20 DUP3 ADD SWAP1 POP DUP2 DUP2 SUB PUSH0 DUP4 ADD MSTORE PUSH2 0x1257 DUP2 PUSH2 0x121E JUMP JUMPDEST SWAP1 POP SWAP2 SWAP1 POP JUMP JUMPDEST PUSH32 0x4C6120737562617374612061756E206573746120656E20637572736F00000000 PUSH0 DUP3 ADD MSTORE POP JUMP JUMPDEST PUSH0 PUSH2 0x1292 PUSH1 0x1C DUP4 PUSH2 0x1158 JUMP JUMPDEST SWAP2 POP PUSH2 0x129D DUP3 PUSH2 0x125E JUMP JUMPDEST PUSH1 0x20 DUP3 ADD SWAP1 POP SWAP2 SWAP1 POP JUMP JUMPDEST PUSH0 PUSH1 0x20 DUP3 ADD SWAP1 POP DUP2 DUP2 SUB PUSH0 DUP4 ADD MSTORE PUSH2 0x12BF DUP2 PUSH2 0x1286 JUMP JUMPDEST SWAP1 POP SWAP2 SWAP1 POP JUMP JUMPDEST PUSH32 0x4C6120737562617374612061756E206E6F20686120696E69636961646F000000 PUSH0 DUP3 ADD MSTORE POP JUMP JUMPDEST PUSH0 PUSH2 0x12FA PUSH1 0x1D DUP4 PUSH2 0x1158 JUMP JUMPDEST SWAP2 POP PUSH2 0x1305 DUP3 PUSH2 0x12C6 JUMP JUMPDEST PUSH1 0x20 DUP3 ADD SWAP1 POP SWAP2 SWAP1 POP JUMP JUMPDEST PUSH0 PUSH1 0x20 DUP3 ADD SWAP1 POP DUP2 DUP2 SUB PUSH0 DUP4 ADD MSTORE PUSH2 0x1327 DUP2 PUSH2 0x12EE JUMP JUMPDEST SWAP1 POP SWAP2 SWAP1 POP JUMP JUMPDEST PUSH32 0x4C61206F666572746120646562652073657220616C206D656E6F7320656C206D PUSH0 DUP3 ADD MSTORE PUSH32 0x696E696D6F20646520302E303035204554480000000000000000000000000000 PUSH1 0x20 DUP3 ADD MSTORE POP JUMP JUMPDEST PUSH0 PUSH2 0x1388 PUSH1 0x32 DUP4 PUSH2 0x1158 JUMP JUMPDEST SWAP2 POP PUSH2 0x1393 DUP3 PUSH2 0x132E JUMP JUMPDEST PUSH1 0x40 DUP3 ADD SWAP1 POP SWAP2 SWAP1 POP JUMP JUMPDEST PUSH0 PUSH1 0x20 DUP3 ADD SWAP1 POP DUP2 DUP2 SUB PUSH0 DUP4 ADD MSTORE PUSH2 0x13B5 DUP2 PUSH2 0x137C JUMP JUMPDEST SWAP1 POP SWAP2 SWAP1 POP JUMP JUMPDEST PUSH32 0x4E487B7100000000000000000000000000000000000000000000000000000000 PUSH0 MSTORE PUSH1 0x11 PUSH1 0x4 MSTORE PUSH1 0x24 PUSH0 REVERT JUMPDEST PUSH0 PUSH2 0x13F3 DUP3 PUSH2 0xF10 JUMP JUMPDEST SWAP2 POP PUSH2 0x13FE DUP4 PUSH2 0xF10 JUMP JUMPDEST SWAP3 POP DUP3 DUP3 MUL PUSH2 0x140C DUP2 PUSH2 0xF10 JUMP JUMPDEST SWAP2 POP DUP3 DUP3 DIV DUP5 EQ DUP4 ISZERO OR PUSH2 0x1423 JUMPI PUSH2 0x1422 PUSH2 0x13BC JUMP JUMPDEST JUMPDEST POP SWAP3 SWAP2 POP POP JUMP JUMPDEST PUSH32 0x4E487B7100000000000000000000000000000000000000000000000000000000 PUSH0 MSTORE PUSH1 0x12 PUSH1 0x4 MSTORE PUSH1 0x24 PUSH0 REVERT JUMPDEST PUSH0 PUSH2 0x1461 DUP3 PUSH2 0xF10 JUMP JUMPDEST SWAP2 POP PUSH2 0x146C DUP4 PUSH2 0xF10 JUMP JUMPDEST SWAP3 POP DUP3 PUSH2 0x147C JUMPI PUSH2 0x147B PUSH2 0x142A JUMP JUMPDEST JUMPDEST DUP3 DUP3 DIV SWAP1 POP SWAP3 SWAP2 POP POP JUMP JUMPDEST PUSH0 PUSH2 0x1491 DUP3 PUSH2 0xF10 JUMP JUMPDEST SWAP2 POP PUSH2 0x149C DUP4 PUSH2 0xF10 JUMP JUMPDEST SWAP3 POP DUP3 DUP3 ADD SWAP1 POP DUP1 DUP3 GT ISZERO PUSH2 0x14B4 JUMPI PUSH2 0x14B3 PUSH2 0x13BC JUMP JUMPDEST JUMPDEST SWAP3 SWAP2 POP POP JUMP JUMPDEST PUSH32 0x4C61206F666572746120646562652073657220616C206D656E6F7320756E2035 PUSH0 DUP3 ADD MSTORE PUSH32 0x25206D61796F7220717565206C61206D656A6F72206F66657274612061637475 PUSH1 0x20 DUP3 ADD MSTORE PUSH32 0x616C000000000000000000000000000000000000000000000000000000000000 PUSH1 0x40 DUP3 ADD MSTORE POP JUMP JUMPDEST PUSH0 PUSH2 0x153A PUSH1 0x42 DUP4 PUSH2 0x1158 JUMP JUMPDEST SWAP2 POP PUSH2 0x1545 DUP3 PUSH2 0x14BA JUMP JUMPDEST PUSH1 0x60 DUP3 ADD SWAP1 POP SWAP2 SWAP1 POP JUMP JUMPDEST PUSH0 PUSH1 0x20 DUP3 ADD SWAP1 POP DUP2 DUP2 SUB PUSH0 DUP4 ADD MSTORE PUSH2 0x1567 DUP2 PUSH2 0x152E JUMP JUMPDEST SWAP1 POP SWAP2 SWAP1 POP JUMP JUMPDEST PUSH0 PUSH2 0x1578 DUP3 PUSH2 0xF10 JUMP JUMPDEST SWAP2 POP PUSH2 0x1583 DUP4 PUSH2 0xF10 JUMP JUMPDEST SWAP3 POP DUP3 DUP3 SUB SWAP1 POP DUP2 DUP2 GT ISZERO PUSH2 0x159B JUMPI PUSH2 0x159A PUSH2 0x13BC JUMP JUMPDEST JUMPDEST SWAP3 SWAP2 POP POP JUMP JUMPDEST PUSH32 0x4C6120737562617374612061756E206E6F2068612066696E616C697A61646F00 PUSH0 DUP3 ADD MSTORE POP JUMP JUMPDEST PUSH0 PUSH2 0x15D5 PUSH1 0x1F DUP4 PUSH2 0x1158 JUMP JUMPDEST SWAP2 POP PUSH2 0x15E0 DUP3 PUSH2 0x15A1 JUMP JUMPDEST PUSH1 0x20 DUP3 ADD SWAP1 POP SWAP2 SWAP1 POP JUMP JUMPDEST PUSH0 PUSH1 0x20 DUP3 ADD SWAP1 POP DUP2 DUP2 SUB PUSH0 DUP4 ADD MSTORE PUSH2 0x1602 DUP2 PUSH2 0x15C9 JUMP JUMPDEST SWAP1 POP SWAP2 SWAP1 POP JUMP JUMPDEST PUSH32 0x4E6F207469656E6573206465706F7369746F2070617261207265636C616D6172 PUSH0 DUP3 ADD MSTORE POP JUMP JUMPDEST PUSH0 PUSH2 0x163D PUSH1 0x20 DUP4 PUSH2 0x1158 JUMP JUMPDEST SWAP2 POP PUSH2 0x1648 DUP3 PUSH2 0x1609 JUMP JUMPDEST PUSH1 0x20 DUP3 ADD SWAP1 POP SWAP2 SWAP1 POP JUMP JUMPDEST PUSH0 PUSH1 0x20 DUP3 ADD SWAP1 POP DUP2 DUP2 SUB PUSH0 DUP4 ADD MSTORE PUSH2 0x166A DUP2 PUSH2 0x1631 JUMP JUMPDEST SWAP1 POP SWAP2 SWAP1 POP JUMP JUMPDEST PUSH32 0x4D6F6E746F206D61796F7220616C206465706F7369746F20646973706F6E6962 PUSH0 DUP3 ADD MSTORE PUSH32 0x6C65000000000000000000000000000000000000000000000000000000000000 PUSH1 0x20 DUP3 ADD MSTORE POP JUMP JUMPDEST PUSH0 PUSH2 0x16CB PUSH1 0x22 DUP4 PUSH2 0x1158 JUMP JUMPDEST SWAP2 POP PUSH2 0x16D6 DUP3 PUSH2 0x1671 JUMP JUMPDEST PUSH1 0x40 DUP3 ADD SWAP1 POP SWAP2 SWAP1 POP JUMP JUMPDEST PUSH0 PUSH1 0x20 DUP3 ADD SWAP1 POP DUP2 DUP2 SUB PUSH0 DUP4 ADD MSTORE PUSH2 0x16F8 DUP2 PUSH2 0x16BF JUMP JUMPDEST SWAP1 POP SWAP2 SWAP1 POP JUMP INVALID LOG2 PUSH5 0x6970667358 0x22 SLT KECCAK256 0xD3 SHL ADDRESS PUSH29 0x43BBD98876C6232C2256AE1A142EFEBDBD50A22AA0B545482D3ACD3B64 PUSH20 0x6F6C634300081A00330000000000000000000000 "
		},
		"gasEstimates": {
			"creation": {
				"codeDepositCost": "1188200",
				"executionCost": "infinite",
				"totalCost": "infinite"
			},
			"external": {
				"depositos(address)": "2891",
				"devolverDepositos()": "infinite",
				"extensionTiempo()": "2469",
				"finTiempo()": "2492",
				"finalizada()": "2576",
				"finalizarSubasta()": "infinite",
				"inicioTiempo()": "2470",
				"mejorOferta()": "2514",
				"mejorOfertante()": "2574",
				"mostrarGanador()": "6947",
				"mostrarOfertas()": "infinite",
				"ofertaMinima()": "2447",
				"ofertar()": "infinite",
				"ofertas(uint256)": "infinite",
				"porcentajeComision()": "2513",
				"porcentajeIncrementoMinimo()": "2448",
				"reembolsoParcial(uint256)": "infinite",
				"subastador()": "2573",
				"vendedor()": "2554"
			}
		},
		"methodIdentifiers": {
			"depositos(address)": "664e62b9",
			"devolverDepositos()": "5298a3c4",
			"extensionTiempo()": "f292b25d",
			"finTiempo()": "6401f67f",
			"finalizada()": "ffbfc189",
			"finalizarSubasta()": "0851eac2",
			"inicioTiempo()": "723a978d",
			"mejorOferta()": "acfc9f98",
			"mejorOfertante()": "f4442c65",
			"mostrarGanador()": "753dcaeb",
			"mostrarOfertas()": "c442a99f",
			"ofertaMinima()": "e0107077",
			"ofertar()": "3ec059d7",
			"ofertas(uint256)": "56afff7c",
			"porcentajeComision()": "fbc08016",
			"porcentajeIncrementoMinimo()": "6b595fbb",
			"reembolsoParcial(uint256)": "69ecf131",
			"subastador()": "3dfa138d",
			"vendedor()": "3182237f"
		}
	},
	"abi": [
		{
			"inputs": [
				{
					"internalType": "address",
					"name": "_vendedor",
					"type": "address"
				}
			],
			"stateMutability": "nonpayable",
			"type": "constructor"
		},
		{
			"anonymous": false,
			"inputs": [
				{
					"indexed": false,
					"internalType": "address",
					"name": "ofertante",
					"type": "address"
				},
				{
					"indexed": false,
					"internalType": "uint256",
					"name": "monto",
					"type": "uint256"
				}
			],
			"name": "NuevaOferta",
			"type": "event"
		},
		{
			"anonymous": false,
			"inputs": [
				{
					"indexed": false,
					"internalType": "address",
					"name": "ganador",
					"type": "address"
				},
				{
					"indexed": false,
					"internalType": "uint256",
					"name": "montoGanador",
					"type": "uint256"
				}
			],
			"name": "SubastaFinalizada",
			"type": "event"
		},
		{
			"inputs": [
				{
					"internalType": "address",
					"name": "",
					"type": "address"
				}
			],
			"name": "depositos",
			"outputs": [
				{
					"internalType": "uint256",
					"name": "",
					"type": "uint256"
				}
			],
			"stateMutability": "view",
			"type": "function"
		},
		{
			"inputs": [],
			"name": "devolverDepositos",
			"outputs": [],
			"stateMutability": "nonpayable",
			"type": "function"
		},
		{
			"inputs": [],
			"name": "extensionTiempo",
			"outputs": [
				{
					"internalType": "uint256",
					"name": "",
					"type": "uint256"
				}
			],
			"stateMutability": "view",
			"type": "function"
		},
		{
			"inputs": [],
			"name": "finTiempo",
			"outputs": [
				{
					"internalType": "uint256",
					"name": "",
					"type": "uint256"
				}
			],
			"stateMutability": "view",
			"type": "function"
		},
		{
			"inputs": [],
			"name": "finalizada",
			"outputs": [
				{
					"internalType": "bool",
					"name": "",
					"type": "bool"
				}
			],
			"stateMutability": "view",
			"type": "function"
		},
		{
			"inputs": [],
			"name": "finalizarSubasta",
			"outputs": [],
			"stateMutability": "nonpayable",
			"type": "function"
		},
		{
			"inputs": [],
			"name": "inicioTiempo",
			"outputs": [
				{
					"internalType": "uint256",
					"name": "",
					"type": "uint256"
				}
			],
			"stateMutability": "view",
			"type": "function"
		},
		{
			"inputs": [],
			"name": "mejorOferta",
			"outputs": [
				{
					"internalType": "uint256",
					"name": "",
					"type": "uint256"
				}
			],
			"stateMutability": "view",
			"type": "function"
		},
		{
			"inputs": [],
			"name": "mejorOfertante",
			"outputs": [
				{
					"internalType": "address",
					"name": "",
					"type": "address"
				}
			],
			"stateMutability": "view",
			"type": "function"
		},
		{
			"inputs": [],
			"name": "mostrarGanador",
			"outputs": [
				{
					"internalType": "address",
					"name": "",
					"type": "address"
				},
				{
					"internalType": "uint256",
					"name": "",
					"type": "uint256"
				}
			],
			"stateMutability": "view",
			"type": "function"
		},
		{
			"inputs": [],
			"name": "mostrarOfertas",
			"outputs": [
				{
					"components": [
						{
							"internalType": "address",
							"name": "ofertante",
							"type": "address"
						},
						{
							"internalType": "uint256",
							"name": "monto",
							"type": "uint256"
						}
					],
					"internalType": "struct SubastaSC.Oferta[]",
					"name": "",
					"type": "tuple[]"
				}
			],
			"stateMutability": "view",
			"type": "function"
		},
		{
			"inputs": [],
			"name": "ofertaMinima",
			"outputs": [
				{
					"internalType": "uint256",
					"name": "",
					"type": "uint256"
				}
			],
			"stateMutability": "view",
			"type": "function"
		},
		{
			"inputs": [],
			"name": "ofertar",
			"outputs": [],
			"stateMutability": "payable",
			"type": "function"
		},
		{
			"inputs": [
				{
					"internalType": "uint256",
					"name": "",
					"type": "uint256"
				}
			],
			"name": "ofertas",
			"outputs": [
				{
					"internalType": "address",
					"name": "ofertante",
					"type": "address"
				},
				{
					"internalType": "uint256",
					"name": "monto",
					"type": "uint256"
				}
			],
			"stateMutability": "view",
			"type": "function"
		},
		{
			"inputs": [],
			"name": "porcentajeComision",
			"outputs": [
				{
					"internalType": "uint256",
					"name": "",
					"type": "uint256"
				}
			],
			"stateMutability": "view",
			"type": "function"
		},
		{
			"inputs": [],
			"name": "porcentajeIncrementoMinimo",
			"outputs": [
				{
					"internalType": "uint256",
					"name": "",
					"type": "uint256"
				}
			],
			"stateMutability": "view",
			"type": "function"
		},
		{
			"inputs": [
				{
					"internalType": "uint256",
					"name": "monto",
					"type": "uint256"
				}
			],
			"name": "reembolsoParcial",
			"outputs": [],
			"stateMutability": "nonpayable",
			"type": "function"
		},
		{
			"inputs": [],
			"name": "subastador",
			"outputs": [
				{
					"internalType": "address",
					"name": "",
					"type": "address"
				}
			],
			"stateMutability": "view",
			"type": "function"
		},
		{
			"inputs": [],
			"name": "vendedor",
			"outputs": [
				{
					"internalType": "address",
					"name": "",
					"type": "address"
				}
			],
			"stateMutability": "view",
			"type": "function"
		}
	]
}